{
  "address": "0xdcC0D09beE9726E23256ebC059B7487Cd78F65a0",
  "abi": [
    {
      "inputs": [],
      "stateMutability": "nonpayable",
      "type": "constructor"
    },
    {
      "anonymous": false,
      "inputs": [
        {
          "indexed": true,
          "internalType": "address",
          "name": "source",
          "type": "address"
        },
        {
          "indexed": true,
          "internalType": "address",
          "name": "measure",
          "type": "address"
        },
        {
          "indexed": true,
          "internalType": "address",
          "name": "dripToken",
          "type": "address"
        },
        {
          "indexed": false,
          "internalType": "uint256",
          "name": "dripRatePerSecond",
          "type": "uint256"
        }
      ],
      "name": "BalanceDripActivated",
      "type": "event"
    },
    {
      "anonymous": false,
      "inputs": [
        {
          "indexed": true,
          "internalType": "address",
          "name": "source",
          "type": "address"
        },
        {
          "indexed": true,
          "internalType": "address",
          "name": "measure",
          "type": "address"
        },
        {
          "indexed": true,
          "internalType": "address",
          "name": "dripToken",
          "type": "address"
        }
      ],
      "name": "BalanceDripDeactivated",
      "type": "event"
    },
    {
      "anonymous": false,
      "inputs": [
        {
          "indexed": true,
          "internalType": "address",
          "name": "source",
          "type": "address"
        },
        {
          "indexed": true,
          "internalType": "address",
          "name": "measure",
          "type": "address"
        },
        {
          "indexed": true,
          "internalType": "address",
          "name": "dripToken",
          "type": "address"
        },
        {
          "indexed": false,
          "internalType": "address",
          "name": "user",
          "type": "address"
        },
        {
          "indexed": false,
          "internalType": "uint256",
          "name": "amount",
          "type": "uint256"
        }
      ],
      "name": "BalanceDripDripped",
      "type": "event"
    },
    {
      "anonymous": false,
      "inputs": [
        {
          "indexed": true,
          "internalType": "address",
          "name": "source",
          "type": "address"
        },
        {
          "indexed": true,
          "internalType": "address",
          "name": "measure",
          "type": "address"
        },
        {
          "indexed": true,
          "internalType": "address",
          "name": "dripToken",
          "type": "address"
        },
        {
          "indexed": false,
          "internalType": "uint256",
          "name": "dripRatePerSecond",
          "type": "uint256"
        }
      ],
      "name": "BalanceDripRateSet",
      "type": "event"
    },
    {
      "anonymous": false,
      "inputs": [
        {
          "indexed": true,
          "internalType": "address",
          "name": "operator",
          "type": "address"
        },
        {
          "indexed": true,
          "internalType": "address",
          "name": "dripToken",
          "type": "address"
        },
        {
          "indexed": true,
          "internalType": "address",
          "name": "user",
          "type": "address"
        },
        {
          "indexed": false,
          "internalType": "uint256",
          "name": "amount",
          "type": "uint256"
        }
      ],
      "name": "DripTokenClaimed",
      "type": "event"
    },
    {
      "anonymous": false,
      "inputs": [
        {
          "indexed": true,
          "internalType": "address",
          "name": "dripToken",
          "type": "address"
        },
        {
          "indexed": true,
          "internalType": "address",
          "name": "user",
          "type": "address"
        },
        {
          "indexed": false,
          "internalType": "uint256",
          "name": "amount",
          "type": "uint256"
        }
      ],
      "name": "DripTokenDripped",
      "type": "event"
    },
    {
      "anonymous": false,
      "inputs": [
        {
          "indexed": true,
          "internalType": "address",
          "name": "previousOwner",
          "type": "address"
        },
        {
          "indexed": true,
          "internalType": "address",
          "name": "newOwner",
          "type": "address"
        }
      ],
      "name": "OwnershipTransferred",
      "type": "event"
    },
    {
      "anonymous": false,
      "inputs": [
        {
          "indexed": true,
          "internalType": "address",
          "name": "token",
          "type": "address"
        },
        {
          "indexed": true,
          "internalType": "address",
          "name": "to",
          "type": "address"
        },
        {
          "indexed": false,
          "internalType": "uint256",
          "name": "amount",
          "type": "uint256"
        }
      ],
      "name": "TransferredOut",
      "type": "event"
    },
    {
      "anonymous": false,
      "inputs": [
        {
          "indexed": true,
          "internalType": "address",
          "name": "source",
          "type": "address"
        },
        {
          "indexed": true,
          "internalType": "address",
          "name": "measure",
          "type": "address"
        },
        {
          "indexed": true,
          "internalType": "address",
          "name": "dripToken",
          "type": "address"
        },
        {
          "indexed": false,
          "internalType": "bool",
          "name": "isReferral",
          "type": "bool"
        },
        {
          "indexed": false,
          "internalType": "uint256",
          "name": "periodSeconds",
          "type": "uint256"
        },
        {
          "indexed": false,
          "internalType": "uint256",
          "name": "dripAmount",
          "type": "uint256"
        }
      ],
      "name": "VolumeDripActivated",
      "type": "event"
    },
    {
      "anonymous": false,
      "inputs": [
        {
          "indexed": true,
          "internalType": "address",
          "name": "source",
          "type": "address"
        },
        {
          "indexed": true,
          "internalType": "address",
          "name": "measure",
          "type": "address"
        },
        {
          "indexed": true,
          "internalType": "address",
          "name": "dripToken",
          "type": "address"
        },
        {
          "indexed": false,
          "internalType": "bool",
          "name": "isReferral",
          "type": "bool"
        }
      ],
      "name": "VolumeDripDeactivated",
      "type": "event"
    },
    {
      "anonymous": false,
      "inputs": [
        {
          "indexed": true,
          "internalType": "address",
          "name": "source",
          "type": "address"
        },
        {
          "indexed": true,
          "internalType": "address",
          "name": "measure",
          "type": "address"
        },
        {
          "indexed": true,
          "internalType": "address",
          "name": "dripToken",
          "type": "address"
        },
        {
          "indexed": false,
          "internalType": "bool",
          "name": "isReferral",
          "type": "bool"
        },
        {
          "indexed": false,
          "internalType": "address",
          "name": "user",
          "type": "address"
        },
        {
          "indexed": false,
          "internalType": "uint256",
          "name": "amount",
          "type": "uint256"
        }
      ],
      "name": "VolumeDripDripped",
      "type": "event"
    },
    {
      "anonymous": false,
      "inputs": [
        {
          "indexed": true,
          "internalType": "address",
          "name": "source",
          "type": "address"
        },
        {
          "indexed": true,
          "internalType": "address",
          "name": "measure",
          "type": "address"
        },
        {
          "indexed": true,
          "internalType": "address",
          "name": "dripToken",
          "type": "address"
        },
        {
          "indexed": false,
          "internalType": "bool",
          "name": "isReferral",
          "type": "bool"
        },
        {
          "indexed": false,
          "internalType": "uint32",
          "name": "period",
          "type": "uint32"
        },
        {
          "indexed": false,
          "internalType": "uint256",
          "name": "totalSupply",
          "type": "uint256"
        },
        {
          "indexed": false,
          "internalType": "uint256",
          "name": "drippedTokens",
          "type": "uint256"
        }
      ],
      "name": "VolumeDripPeriodEnded",
      "type": "event"
    },
    {
      "anonymous": false,
      "inputs": [
        {
          "indexed": true,
          "internalType": "address",
          "name": "source",
          "type": "address"
        },
        {
          "indexed": true,
          "internalType": "address",
          "name": "measure",
          "type": "address"
        },
        {
          "indexed": true,
          "internalType": "address",
          "name": "dripToken",
          "type": "address"
        },
        {
          "indexed": false,
          "internalType": "bool",
          "name": "isReferral",
          "type": "bool"
        },
        {
          "indexed": false,
          "internalType": "uint32",
          "name": "period",
          "type": "uint32"
        },
        {
          "indexed": false,
          "internalType": "uint256",
          "name": "dripAmount",
          "type": "uint256"
        },
        {
          "indexed": false,
          "internalType": "uint256",
          "name": "endTime",
          "type": "uint256"
        }
      ],
      "name": "VolumeDripPeriodStarted",
      "type": "event"
    },
    {
      "anonymous": false,
      "inputs": [
        {
          "indexed": true,
          "internalType": "address",
          "name": "source",
          "type": "address"
        },
        {
          "indexed": true,
          "internalType": "address",
          "name": "measure",
          "type": "address"
        },
        {
          "indexed": true,
          "internalType": "address",
          "name": "dripToken",
          "type": "address"
        },
        {
          "indexed": false,
          "internalType": "bool",
          "name": "isReferral",
          "type": "bool"
        },
        {
          "indexed": false,
          "internalType": "uint256",
          "name": "periodSeconds",
          "type": "uint256"
        },
        {
          "indexed": false,
          "internalType": "uint256",
          "name": "dripAmount",
          "type": "uint256"
        }
      ],
      "name": "VolumeDripSet",
      "type": "event"
    },
    {
      "inputs": [
        {
          "internalType": "address",
          "name": "source",
          "type": "address"
        },
        {
          "internalType": "address",
          "name": "measure",
          "type": "address"
        },
        {
          "internalType": "address",
          "name": "dripToken",
          "type": "address"
        },
        {
          "internalType": "uint256",
          "name": "dripRatePerSecond",
          "type": "uint256"
        }
      ],
      "name": "activateBalanceDrip",
      "outputs": [],
      "stateMutability": "nonpayable",
      "type": "function"
    },
    {
      "inputs": [
        {
          "internalType": "address",
          "name": "source",
          "type": "address"
        },
        {
          "internalType": "address",
          "name": "measure",
          "type": "address"
        },
        {
          "internalType": "address",
          "name": "dripToken",
          "type": "address"
        },
        {
          "internalType": "bool",
          "name": "isReferral",
          "type": "bool"
        },
        {
          "internalType": "uint32",
          "name": "periodSeconds",
          "type": "uint32"
        },
        {
          "internalType": "uint112",
          "name": "dripAmount",
          "type": "uint112"
        },
        {
          "internalType": "uint32",
          "name": "endTime",
          "type": "uint32"
        }
      ],
      "name": "activateVolumeDrip",
      "outputs": [],
      "stateMutability": "nonpayable",
      "type": "function"
    },
    {
      "inputs": [
        {
          "internalType": "address",
          "name": "user",
          "type": "address"
        },
        {
          "internalType": "address[]",
          "name": "dripTokens",
          "type": "address[]"
        }
      ],
      "name": "balanceOfClaims",
      "outputs": [
        {
          "components": [
            {
              "internalType": "address",
              "name": "dripToken",
              "type": "address"
            },
            {
              "internalType": "uint256",
              "name": "balance",
              "type": "uint256"
            }
          ],
          "internalType": "struct Comptroller.DripTokenBalance[]",
          "name": "",
          "type": "tuple[]"
        }
      ],
      "stateMutability": "view",
      "type": "function"
    },
    {
      "inputs": [
        {
          "internalType": "address",
          "name": "user",
          "type": "address"
        },
        {
          "internalType": "address",
          "name": "dripToken",
          "type": "address"
        }
      ],
      "name": "balanceOfDrip",
      "outputs": [
        {
          "internalType": "uint256",
          "name": "",
          "type": "uint256"
        }
      ],
      "stateMutability": "view",
      "type": "function"
    },
    {
      "inputs": [
        {
          "internalType": "address",
          "name": "to",
          "type": "address"
        },
        {
          "internalType": "uint256",
          "name": "amount",
          "type": "uint256"
        },
        {
          "internalType": "address",
          "name": "measure",
          "type": "address"
        },
        {
          "internalType": "address",
          "name": "referrer",
          "type": "address"
        }
      ],
      "name": "beforeTokenMint",
      "outputs": [],
      "stateMutability": "nonpayable",
      "type": "function"
    },
    {
      "inputs": [
        {
          "internalType": "address",
          "name": "from",
          "type": "address"
        },
        {
          "internalType": "address",
          "name": "to",
          "type": "address"
        },
        {
          "internalType": "uint256",
          "name": "",
          "type": "uint256"
        },
        {
          "internalType": "address",
          "name": "measure",
          "type": "address"
        }
      ],
      "name": "beforeTokenTransfer",
      "outputs": [],
      "stateMutability": "nonpayable",
      "type": "function"
    },
    {
      "inputs": [
        {
          "components": [
            {
              "internalType": "address",
              "name": "source",
              "type": "address"
            },
            {
              "internalType": "address",
              "name": "measure",
              "type": "address"
            }
          ],
          "internalType": "struct Comptroller.UpdatePair[]",
          "name": "pairs",
          "type": "tuple[]"
        },
        {
          "internalType": "address",
          "name": "user",
          "type": "address"
        },
        {
          "internalType": "address[]",
          "name": "dripTokens",
          "type": "address[]"
        }
      ],
      "name": "captureClaimsForBalanceDripsForPairs",
      "outputs": [],
      "stateMutability": "nonpayable",
      "type": "function"
    },
    {
      "inputs": [
        {
          "internalType": "address",
          "name": "user",
          "type": "address"
        },
        {
          "internalType": "address",
          "name": "dripToken",
          "type": "address"
        },
        {
          "internalType": "uint256",
          "name": "amount",
          "type": "uint256"
        }
      ],
      "name": "claimDrip",
      "outputs": [],
      "stateMutability": "nonpayable",
      "type": "function"
    },
    {
      "inputs": [
        {
          "internalType": "address",
          "name": "user",
          "type": "address"
        },
        {
          "internalType": "address[]",
          "name": "dripTokens",
          "type": "address[]"
        }
      ],
      "name": "claimDrips",
      "outputs": [],
      "stateMutability": "nonpayable",
      "type": "function"
    },
    {
      "inputs": [
        {
          "internalType": "address",
          "name": "source",
          "type": "address"
        },
        {
          "internalType": "address",
          "name": "measure",
          "type": "address"
        },
        {
          "internalType": "address",
          "name": "dripToken",
          "type": "address"
        },
        {
          "internalType": "address",
          "name": "prevDripToken",
          "type": "address"
        }
      ],
      "name": "deactivateBalanceDrip",
      "outputs": [],
      "stateMutability": "nonpayable",
      "type": "function"
    },
    {
      "inputs": [
        {
          "internalType": "address",
          "name": "source",
          "type": "address"
        },
        {
          "internalType": "address",
          "name": "measure",
          "type": "address"
        },
        {
          "internalType": "address",
          "name": "dripToken",
          "type": "address"
        },
        {
          "internalType": "bool",
          "name": "isReferral",
          "type": "bool"
        },
        {
          "internalType": "address",
          "name": "prevDripToken",
          "type": "address"
        }
      ],
      "name": "deactivateVolumeDrip",
      "outputs": [],
      "stateMutability": "nonpayable",
      "type": "function"
    },
    {
      "inputs": [
        {
          "internalType": "address",
          "name": "source",
          "type": "address"
        },
        {
          "internalType": "address",
          "name": "measure",
          "type": "address"
        }
      ],
      "name": "getActiveBalanceDripTokens",
      "outputs": [
        {
          "internalType": "address[]",
          "name": "",
          "type": "address[]"
        }
      ],
      "stateMutability": "view",
      "type": "function"
    },
    {
      "inputs": [
        {
          "internalType": "address",
          "name": "source",
          "type": "address"
        },
        {
          "internalType": "address",
          "name": "measure",
          "type": "address"
        },
        {
          "internalType": "bool",
          "name": "isReferral",
          "type": "bool"
        }
      ],
      "name": "getActiveVolumeDripTokens",
      "outputs": [
        {
          "internalType": "address[]",
          "name": "",
          "type": "address[]"
        }
      ],
      "stateMutability": "view",
      "type": "function"
    },
    {
      "inputs": [
        {
          "internalType": "address",
          "name": "source",
          "type": "address"
        },
        {
          "internalType": "address",
          "name": "measure",
          "type": "address"
        },
        {
          "internalType": "address",
          "name": "dripToken",
          "type": "address"
        }
      ],
      "name": "getBalanceDrip",
      "outputs": [
        {
          "internalType": "uint256",
          "name": "dripRatePerSecond",
          "type": "uint256"
        },
        {
          "internalType": "uint128",
          "name": "exchangeRateMantissa",
          "type": "uint128"
        },
        {
          "internalType": "uint32",
          "name": "timestamp",
          "type": "uint32"
        }
      ],
      "stateMutability": "view",
      "type": "function"
    },
    {
      "inputs": [
        {
          "internalType": "address",
          "name": "source",
          "type": "address"
        },
        {
          "internalType": "address",
          "name": "measure",
          "type": "address"
        },
        {
          "internalType": "address",
          "name": "dripToken",
          "type": "address"
        },
        {
          "internalType": "bool",
          "name": "isReferral",
          "type": "bool"
        }
      ],
      "name": "getVolumeDrip",
      "outputs": [
        {
          "internalType": "uint256",
          "name": "periodSeconds",
          "type": "uint256"
        },
        {
          "internalType": "uint256",
          "name": "dripAmount",
          "type": "uint256"
        },
        {
          "internalType": "uint256",
          "name": "periodCount",
          "type": "uint256"
        }
      ],
      "stateMutability": "view",
      "type": "function"
    },
    {
      "inputs": [
        {
          "internalType": "address",
          "name": "source",
          "type": "address"
        },
        {
          "internalType": "address",
          "name": "measure",
          "type": "address"
        },
        {
          "internalType": "address",
          "name": "dripToken",
          "type": "address"
        },
        {
          "internalType": "bool",
          "name": "isReferral",
          "type": "bool"
        },
        {
          "internalType": "uint16",
          "name": "period",
          "type": "uint16"
        }
      ],
      "name": "getVolumeDripPeriod",
      "outputs": [
        {
          "internalType": "uint112",
          "name": "totalSupply",
          "type": "uint112"
        },
        {
          "internalType": "uint112",
          "name": "dripAmount",
          "type": "uint112"
        },
        {
          "internalType": "uint32",
          "name": "endTime",
          "type": "uint32"
        }
      ],
      "stateMutability": "view",
      "type": "function"
    },
    {
      "inputs": [
        {
          "internalType": "address",
          "name": "source",
          "type": "address"
        },
        {
          "internalType": "address",
          "name": "measure",
          "type": "address"
        },
        {
          "internalType": "address",
          "name": "dripToken",
          "type": "address"
        },
        {
          "internalType": "bool",
          "name": "isReferral",
          "type": "bool"
        }
      ],
      "name": "isVolumeDripActive",
      "outputs": [
        {
          "internalType": "bool",
          "name": "",
          "type": "bool"
        }
      ],
      "stateMutability": "view",
      "type": "function"
    },
    {
      "inputs": [
        {
          "components": [
            {
              "internalType": "address",
              "name": "source",
              "type": "address"
            },
            {
              "internalType": "address",
              "name": "measure",
              "type": "address"
            }
          ],
          "internalType": "struct Comptroller.UpdatePair[]",
          "name": "pairs",
          "type": "tuple[]"
        },
        {
          "internalType": "address",
          "name": "user",
          "type": "address"
        },
        {
          "internalType": "uint256",
          "name": "amount",
          "type": "uint256"
        },
        {
          "internalType": "address[]",
          "name": "dripTokens",
          "type": "address[]"
        }
      ],
      "name": "mintAndCaptureVolumeDripsForPairs",
      "outputs": [],
      "stateMutability": "nonpayable",
      "type": "function"
    },
    {
      "inputs": [],
      "name": "owner",
      "outputs": [
        {
          "internalType": "address",
          "name": "",
          "type": "address"
        }
      ],
      "stateMutability": "view",
      "type": "function"
    },
    {
      "inputs": [],
      "name": "renounceOwnership",
      "outputs": [],
      "stateMutability": "nonpayable",
      "type": "function"
    },
    {
      "inputs": [
        {
          "internalType": "address",
          "name": "source",
          "type": "address"
        },
        {
          "internalType": "address",
          "name": "measure",
          "type": "address"
        },
        {
          "internalType": "address",
          "name": "dripToken",
          "type": "address"
        },
        {
          "internalType": "uint256",
          "name": "dripRatePerSecond",
          "type": "uint256"
        }
      ],
      "name": "setBalanceDripRate",
      "outputs": [],
      "stateMutability": "nonpayable",
      "type": "function"
    },
    {
      "inputs": [
        {
          "internalType": "address",
          "name": "source",
          "type": "address"
        },
        {
          "internalType": "address",
          "name": "measure",
          "type": "address"
        },
        {
          "internalType": "address",
          "name": "dripToken",
          "type": "address"
        },
        {
          "internalType": "bool",
          "name": "isReferral",
          "type": "bool"
        },
        {
          "internalType": "uint32",
          "name": "periodSeconds",
          "type": "uint32"
        },
        {
          "internalType": "uint112",
          "name": "dripAmount",
          "type": "uint112"
        }
      ],
      "name": "setVolumeDrip",
      "outputs": [],
      "stateMutability": "nonpayable",
      "type": "function"
    },
    {
      "inputs": [
        {
          "internalType": "bytes4",
          "name": "interfaceId",
          "type": "bytes4"
        }
      ],
      "name": "supportsInterface",
      "outputs": [
        {
          "internalType": "bool",
          "name": "",
          "type": "bool"
        }
      ],
      "stateMutability": "view",
      "type": "function"
    },
    {
      "inputs": [
        {
          "internalType": "address",
          "name": "token",
          "type": "address"
        },
        {
          "internalType": "address",
          "name": "to",
          "type": "address"
        },
        {
          "internalType": "uint256",
          "name": "amount",
          "type": "uint256"
        }
      ],
      "name": "transferOut",
      "outputs": [],
      "stateMutability": "nonpayable",
      "type": "function"
    },
    {
      "inputs": [
        {
          "internalType": "address",
          "name": "newOwner",
          "type": "address"
        }
      ],
      "name": "transferOwnership",
      "outputs": [],
      "stateMutability": "nonpayable",
      "type": "function"
    },
    {
      "inputs": [
        {
          "components": [
            {
              "internalType": "address",
              "name": "source",
              "type": "address"
            },
            {
              "internalType": "address",
              "name": "measure",
              "type": "address"
            }
          ],
          "internalType": "struct Comptroller.UpdatePair[]",
          "name": "pairs",
          "type": "tuple[]"
        }
      ],
      "name": "updateActiveBalanceDripsForPairs",
      "outputs": [],
      "stateMutability": "nonpayable",
      "type": "function"
    },
    {
      "inputs": [
        {
          "components": [
            {
              "internalType": "address",
              "name": "source",
              "type": "address"
            },
            {
              "internalType": "address",
              "name": "measure",
              "type": "address"
            }
          ],
          "internalType": "struct Comptroller.UpdatePair[]",
          "name": "pairs",
          "type": "tuple[]"
        }
      ],
      "name": "updateActiveVolumeDripsForPairs",
      "outputs": [],
      "stateMutability": "nonpayable",
      "type": "function"
    },
    {
      "inputs": [
        {
          "components": [
            {
              "internalType": "address",
              "name": "source",
              "type": "address"
            },
            {
              "internalType": "address",
              "name": "measure",
              "type": "address"
            }
          ],
          "internalType": "struct Comptroller.UpdatePair[]",
          "name": "pairs",
          "type": "tuple[]"
        },
        {
          "internalType": "address",
          "name": "user",
          "type": "address"
        },
        {
          "internalType": "address[]",
          "name": "dripTokens",
          "type": "address[]"
        }
      ],
      "name": "updateAndClaimDrips",
      "outputs": [
        {
          "components": [
            {
              "internalType": "address",
              "name": "dripToken",
              "type": "address"
            },
            {
              "internalType": "uint256",
              "name": "balance",
              "type": "uint256"
            }
          ],
          "internalType": "struct Comptroller.DripTokenBalance[]",
          "name": "",
          "type": "tuple[]"
        }
      ],
      "stateMutability": "nonpayable",
      "type": "function"
    },
    {
      "inputs": [
        {
          "components": [
            {
              "internalType": "address",
              "name": "source",
              "type": "address"
            },
            {
              "internalType": "address",
              "name": "measure",
              "type": "address"
            }
          ],
          "internalType": "struct Comptroller.UpdatePair[]",
          "name": "pairs",
          "type": "tuple[]"
        },
        {
          "internalType": "address",
          "name": "user",
          "type": "address"
        },
        {
          "internalType": "address[]",
          "name": "dripTokens",
          "type": "address[]"
        }
      ],
      "name": "updateDrips",
      "outputs": [
        {
          "components": [
            {
              "internalType": "address",
              "name": "dripToken",
              "type": "address"
            },
            {
              "internalType": "uint256",
              "name": "balance",
              "type": "uint256"
            }
          ],
          "internalType": "struct Comptroller.DripTokenBalance[]",
          "name": "",
          "type": "tuple[]"
        }
      ],
      "stateMutability": "nonpayable",
      "type": "function"
    }
  ],
  "transactionHash": "0x1f0d00fd4ec318e7e835f51db747f14d288ebdd967cdcf240012714589f2a16c",
  "args": [],
  "solcInputHash": "e709d825f034ede961081b62ddab9220",
  "bytecode": "0x60806040523480156200001157600080fd5b506200001c62000022565b62000292565b600054610100900460ff16806200003e57506200003e620000cb565b806200004d575060005460ff16155b620000755760405162461bcd60e51b81526004016200006c9062000244565b60405180910390fd5b600054610100900460ff16158015620000a1576000805460ff1961ff0019909116610100171660011790555b620000ab620000d1565b620000b56200015b565b8015620000c8576000805461ff00191690555b50565b303b1590565b600054610100900460ff1680620000ed5750620000ed620000cb565b80620000fc575060005460ff16155b6200011b5760405162461bcd60e51b81526004016200006c9062000244565b600054610100900460ff16158015620000b5576000805460ff1961ff0019909116610100171660011790558015620000c8576000805461ff001916905550565b600054610100900460ff168062000177575062000177620000cb565b8062000186575060005460ff16155b620001a55760405162461bcd60e51b81526004016200006c9062000244565b600054610100900460ff16158015620001d1576000805460ff1961ff0019909116610100171660011790555b6000620001dd62000240565b603380546001600160a01b0319166001600160a01b038316908117909155604051919250906000907f8be0079c531659141344cd1fd0a4f28419497f9722a3daafe3b4186f6b6457e0908290a3508015620000c8576000805461ff001916905550565b3390565b6020808252602e908201527f496e697469616c697a61626c653a20636f6e747261637420697320616c72656160408201526d191e481a5b9a5d1a585b1a5e995960921b606082015260800190565b6148f780620002a26000396000f3fe608060405234801561001057600080fd5b50600436106101cf5760003560e01c8063715018a611610104578063ce730461116100a2578063e5f83b7011610071578063e5f83b7014610405578063e72edc2814610418578063f28219ac14610438578063f2fde38b1461044b576101cf565b8063ce730461146103b9578063d7840aad146103cc578063e2937c77146103df578063e37288ec146103f2576101cf565b80639aebef23116100de5780639aebef231461035e578063b221095714610380578063b7e6810a14610393578063c35185df146103a6576101cf565b8063715018a61461032e57806384f8f31c146103365780638da5cb5b14610349576101cf565b80633a6c8a2c11610171578063503bd4801161014b578063503bd480146102d35780635d68ae22146102e65780635e19bad5146102f9578063626e76b41461030c576101cf565b80633a6c8a2c1461027e57806343fcacd01461029e5780634d7f3db0146102c0576101cf565b80631dc2d7a4116101ad5780631dc2d7a4146102255780632697a1a91461023857806334de6d19146102585780633632c1f41461026b576101cf565b806301ffc9a7146101d4578063078d3b79146101fd5780631a6eae6714610212575b600080fd5b6101e76101e2366004614155565b61045e565b6040516101f49190614282565b60405180910390f35b61021061020b366004613e36565b610498565b005b610210610220366004614048565b6105a7565b6102106102333660046140bd565b61067a565b61024b610246366004613dec565b6106de565b6040516101f491906141dd565b610210610266366004613e36565b610738565b610210610279366004614015565b6108b9565b61029161028c366004614048565b61095b565b6040516101f4919061422a565b6102b16102ac366004613bfd565b61099c565b6040516101f4939291906147d5565b6102106102ce366004613f0a565b610ad6565b6102106102e1366004613d9c565b610cbe565b6102106102f4366004613d9c565b610d81565b610210610307366004613ae4565b610e27565b61031f61031a366004613b3b565b610e68565b6040516101f49392919061482c565b610210610fd9565b610210610344366004613cfc565b611058565b6103516111a9565b6040516101f491906141b0565b61037161036c366004613a9f565b6111b8565b6040516101f493929190614807565b61021061038e366004613e76565b61120f565b6102106103a1366004614015565b61140d565b6102106103b4366004613c70565b611502565b6102916103c7366004613f3f565b6115ed565b6101e76103da366004613b3b565b6116c9565b6102106103ed366004613b93565b611726565b610210610400366004613ebd565b611768565b61024b610413366004613a6b565b6117f5565b61042b610426366004613a6b565b61181a565b6040516101f491906147fe565b610291610446366004613ebd565b611846565b610210610459366004613a50565b61195d565b60006001600160e01b031982166301ffc9a760e01b148061049257506001600160e01b03198216600162a1cb1960e01b0319145b92915050565b6104a0611a14565b6033546001600160a01b039081169116146104d65760405162461bcd60e51b81526004016104cd90614656565b60405180910390fd5b60405163a9059cbb60e01b81526001600160a01b0384169063a9059cbb9061050490859085906004016141c4565b602060405180830381600087803b15801561051e57600080fd5b505af1158015610532573d6000803e3d6000fd5b505050506040513d601f19601f820116820180604052508101906105569190614139565b50816001600160a01b0316836001600160a01b03167f175984d55e63e57889870f617ac3d775087f5bf4e22126f7ae4145152113d79c8360405161059a91906147fe565b60405180910390a3505050565b60005b8351811015610674576105bb6138a9565b8482815181106105c757fe5b60200260200101519050600081602001516001600160a01b03166370a08231866040518263ffffffff1660e01b815260040161060391906141b0565b60206040518083038186803b15801561061b57600080fd5b505afa15801561062f573d6000803e3d6000fd5b505050506040513d601f19601f820116820180604052508101906106539190614198565b905061066a82600001518360200151878488611a18565b50506001016105aa565b50505050565b60005b84518110156106d75761068e6138a9565b85828151811061069a57fe5b602002602001015190506106b981600001518260200151878787611aa8565b6106ce81600001518260200151878787611b20565b5060010161067d565b5050505050565b6060811561070f576001600160a01b03841660009081526066602052604090206107089084611b9c565b9050610731565b6001600160a01b03841660009081526065602052604090206107089084611b9c565b9392505050565b6000610742611a14565b6001600160a01b0384166000908152606860205260409020549091506107689083611bc0565b6001600160a01b038085166000908152606860209081526040808320949094556069815283822092881682529190915220546107a49083611bc0565b6001600160a01b038085166000818152606960209081526040808320948a168352939052829020929092555163a9059cbb60e01b815263a9059cbb906107f090879086906004016141c4565b602060405180830381600087803b15801561080a57600080fd5b505af115801561081e573d6000803e3d6000fd5b505050506040513d601f19601f820116820180604052508101906108429190614139565b61085e5760405162461bcd60e51b81526004016104cd90614551565b836001600160a01b0316836001600160a01b0316826001600160a01b03167f76db671dc988a5ba4764a06da6bfc2a6a8df0d7d373cc205a687084b4a8492f0856040516108ab91906147fe565b60405180910390a450505050565b60005b8151811015610957576108cd6138a9565b8282815181106108d957fe5b602002602001015190506109206065600083600001516001600160a01b03166001600160a01b03168152602001908152602001600020826000015183602001516000611c02565b80516001600160a01b0316600090815260666020908152604090912082519183015161094e92906001611c02565b506001016108bc565b5050565b60606109668461140d565b6109718484846105a7565b61097a846108b9565b610987848460008561067a565b60606109938484611846565b95945050505050565b60008060006109a96138c0565b8515610a3657506001600160a01b0380891660009081526066602090815260408083208b8516845260019081018352818420948b16845293825280832061ffff89168452909301815290829020825160608101845290546001600160701b038082168352600160701b82041692820192909252600160e01b90910463ffffffff1691810191909152610ab9565b506001600160a01b0380891660009081526065602090815260408083208b8516845260019081018352818420948b16845293825280832061ffff89168452909301815290829020825160608101845290546001600160701b038082168352600160701b82041692820192909252600160e01b90910463ffffffff16918101919091525b80516020820151604090920151909a919950975095505050505050565b6000610ae0611a14565b90506000836001600160a01b03166370a08231876040518263ffffffff1660e01b8152600401610b1091906141b0565b60206040518083038186803b158015610b2857600080fd5b505afa158015610b3c573d6000803e3d6000fd5b505050506040513d601f19601f82011682018060405250810190610b609190614198565b90506000846001600160a01b03166318160ddd6040518163ffffffff1660e01b815260040160206040518083038186803b158015610b9d57600080fd5b505afa158015610bb1573d6000803e3d6000fd5b505050506040513d601f19601f82011682018060405250810190610bd59190614198565b90506060610be38487611eec565b6001600160a01b0385166000908152606760205260409020909150610c1290858885610c0d611f1d565b611f21565b610c1f84878a8685611a18565b6060610c2b8588612045565b6001600160a01b0386166000908152606560205260408120919250610c54919087908a90611c02565b610c6185888b8b85611aa8565b6001600160a01b03861615610cb3576060610c7c8689612076565b6001600160a01b0387166000908152606660205260409020909150610ca490878a6001611c02565b610cb18689898c85611b20565b505b505050505050505050565b610cc6611a14565b6033546001600160a01b03908116911614610cf35760405162461bcd60e51b81526004016104cd90614656565b610d34838383610d09610d04611f1d565b6120a7565b610d12876120d1565b6001600160a01b038a1660009081526067602052604090209493929190612184565b816001600160a01b0316836001600160a01b0316856001600160a01b03167f1198b38b5e10d4b1e4cd2866dd9bc4e71e32c649b6ff51addd64e01fb6a6d5ad846040516108ab91906147fe565b610d89611a14565b6033546001600160a01b03908116911614610db65760405162461bcd60e51b81526004016104cd90614656565b6001600160a01b0384166000908152606760205260409020610dda908484846122a0565b816001600160a01b0316836001600160a01b0316856001600160a01b03167f4cf47603ce110cd8061678afe77c525be4ca073f4640f629292afcef7be49259846040516108ab91906147fe565b610e2f611a14565b6033546001600160a01b03908116911614610e5c5760405162461bcd60e51b81526004016104cd90614656565b6106748484848461239d565b6000806000610e756138e0565b8415610f1557506001600160a01b0380881660009081526066602090815260408083208a851684526001018252808320938916835292815290829020825160a081018452600282015463ffffffff80821683526001600160701b036401000000008304811695840195909552600160901b9091048416948201949094526003909101549182166060820152600160701b9091049091166080820152610fab565b506001600160a01b0380881660009081526065602090815260408083208a851684526001018252808320938916835292815290829020825160a081018452600282015463ffffffff80821683526001600160701b036401000000008304811695840195909552600160901b9091048416948201949094526003909101549182166060820152600160701b90910490911660808201525b8051602082015160809092015163ffffffff9182169a6001600160701b039093169950169650945050505050565b610fe1611a14565b6033546001600160a01b0390811691161461100e5760405162461bcd60e51b81526004016104cd90614656565b6033546040516000916001600160a01b0316907f8be0079c531659141344cd1fd0a4f28419497f9722a3daafe3b4186f6b6457e0908390a3603380546001600160a01b0319169055565b611060611a14565b6033546001600160a01b0390811691161461108d5760405162461bcd60e51b81526004016104cd90614656565b600084156110c2576001600160a01b03881660009081526066602052604090206110bb908888878787612429565b90506110eb565b6001600160a01b03881660009081526065602052604090206110e8908888878787612429565b90505b856001600160a01b0316876001600160a01b0316896001600160a01b03167f0ee63f5b7633ec1ad321f6f89b83ec0993c2cc680112d7b153759242a655ed4388888860405161113c939291906142ae565b60405180910390a4856001600160a01b0316876001600160a01b0316896001600160a01b03167f5030027163f1655f8ac4c205c22bfe42c59f83e61a7c15da775499920b214314888588886040516111979493929190614301565b60405180910390a45050505050505050565b6033546001600160a01b031690565b6001600160a01b03831660009081526067602052604081208190819081906111e190878761253c565b805460019091015490986001600160701b0382169850600160e01b90910463ffffffff169650945050505050565b6001600160a01b03841661122257610674565b600061122c611a14565b90506000826001600160a01b03166318160ddd6040518163ffffffff1660e01b815260040160206040518083038186803b15801561126957600080fd5b505afa15801561127d573d6000803e3d6000fd5b505050506040513d601f19601f820116820180604052508101906112a19190614198565b90506000836001600160a01b03166370a08231886040518263ffffffff1660e01b81526004016112d191906141b0565b60206040518083038186803b1580156112e957600080fd5b505afa1580156112fd573d6000803e3d6000fd5b505050506040513d601f19601f820116820180604052508101906113219190614198565b9050606061132f8486611eec565b6001600160a01b038516600090815260676020526040902090915061135990858786610c0d611f1d565b61136684868a8585611a18565b6001600160a01b03871615611403576040516370a0823160e01b81526000906001600160a01b038716906370a08231906113a4908b906004016141b0565b60206040518083038186803b1580156113bc57600080fd5b505afa1580156113d0573d6000803e3d6000fd5b505050506040513d601f19601f820116820180604052508101906113f49190614198565b9050610cb385878a8486611a18565b5050505050505050565b6000611417611f1d565b905060005b82518110156114fd5761142d6138a9565b83828151811061143957fe5b602002602001015190506114f46067600083600001516001600160a01b03166001600160a01b031681526020019081526020016000208260000151836020015184602001516001600160a01b03166318160ddd6040518163ffffffff1660e01b815260040160206040518083038186803b1580156114b657600080fd5b505afa1580156114ca573d6000803e3d6000fd5b505050506040513d601f19601f820116820180604052508101906114ee9190614198565b87611f21565b5060010161141c565b505050565b61150a611a14565b6033546001600160a01b039081169116146115375760405162461bcd60e51b81526004016104cd90614656565b8215611567576001600160a01b03861660009081526066602052604090206115629086868585612568565b61158c565b6001600160a01b038616600090815260656020526040902061158c9086868585612568565b836001600160a01b0316856001600160a01b0316876001600160a01b03167f401facfe78ba5adec5aae1404afebf8e3a77cb5dfdf5b4b611504d626d9a2ed58686866040516115dd939291906142ae565b60405180910390a4505050505050565b6060806116808787808060200260200160405190810160405280939291908181526020016000905b82821015611641576116326040830286013681900381019061417d565b81526020019060010190611615565b50505050508686868080602002602001604051908101604052809392919081815260200183836020028082843760009201919091525061095b92505050565b90506116bf8585858080602002602001604051908101604052809392919081815260200183836020028082843760009201919091525061176892505050565b9695505050505050565b600081156116fb576001600160a01b03851660009081526066602052604090206116f49085856125d8565b905061171e565b6001600160a01b03851660009081526065602052604090206116f49085856125d8565b949350505050565b61172e611a14565b6033546001600160a01b0390811691161461175b5760405162461bcd60e51b81526004016104cd90614656565b6106d785858585856125fa565b60005b81518110156114fd576117ed8383838151811061178457fe5b60200260200101516069600086868151811061179c57fe5b60200260200101516001600160a01b03166001600160a01b031681526020019081526020016000206000876001600160a01b03166001600160a01b0316815260200190815260200160002054610738565b60010161176b565b6001600160a01b03821660009081526067602052604090206060906107319083611b9c565b6001600160a01b0380821660009081526069602090815260408083209386168352929052205492915050565b606080825167ffffffffffffffff8111801561186157600080fd5b5060405190808252806020026020018201604052801561189b57816020015b6118886138a9565b8152602001906001900390816118805790505b50905060005b83518110156119555760405180604001604052808583815181106118c157fe5b60200260200101516001600160a01b03168152602001606960008785815181106118e757fe5b60200260200101516001600160a01b03166001600160a01b031681526020019081526020016000206000886001600160a01b03166001600160a01b031681526020019081526020016000205481525082828151811061194257fe5b60209081029190910101526001016118a1565b509392505050565b611965611a14565b6033546001600160a01b039081169116146119925760405162461bcd60e51b81526004016104cd90614656565b6001600160a01b0381166119b85760405162461bcd60e51b81526004016104cd90614456565b6033546040516001600160a01b038084169216907f8be0079c531659141344cd1fd0a4f28419497f9722a3daafe3b4186f6b6457e090600090a3603380546001600160a01b0319166001600160a01b0392909216919091179055565b3390565b60005b8151811015611aa0576000828281518110611a3257fe5b6020908102919091018101516001600160a01b03808a1660009081526067845260408082208b841683526001908101865281832093851683529290945292909220918201549092506001600160701b031615611a9657611a96818989858a8a6126a9565b5050600101611a1b565b505050505050565b60005b8151811015611aa0576000828281518110611ac257fe5b6020908102919091018101516001600160a01b03808a1660009081526065845260408082208b841683526001018552808220928416825291909352822090925090611b169082908a908a9086908b8b612733565b5050600101611aab565b60005b8151811015611aa0576000828281518110611b3a57fe5b6020908102919091018101516001600160a01b03808a1660009081526066845260408082208b84168352600190810186528183209385168352929094529290922090925090611b929082908a908a9086908b8b612733565b5050600101611b23565b6001600160a01b0381166000908152602083905260409020606090610731906127a5565b600061073183836040518060400160405280601e81526020017f536166654d6174683a207375627472616374696f6e206f766572666c6f770000815250612885565b6001600160a01b0382166000908152602085905260408120611c23906128b1565b90506000611c2f611f1d565b6001600160a01b038516600090815260208890526040812091925090611c54906128b7565b90505b6001600160a01b03811615801590611ca157506001600160a01b0385166000908152602088905260409020611c8b906128b1565b6001600160a01b0316816001600160a01b031614155b15611ee3576001600160a01b0380861660009081526001890160209081526040808320938516835292905290812090611cd9836120d1565b600383015490915063ffffffff600160701b909104811690600090611d04908590889086906128d416565b600385015490915063ffffffff838116600160701b9092041614611e9a5763ffffffff82166000908152600185016020526040908190205490516001600160a01b03808816928c821692918e16917f5af66de08c3f6079fb9df0df086b4866eef80830affd2db8a278a87a3c98317891611d8f918e9189916001600160701b039091169089906142d5565b60405180910390a4846001600160a01b0316896001600160a01b03168b6001600160a01b03167f5030027163f1655f8ac4c205c22bfe42c59f83e61a7c15da775499920b2143148b88600301600e9054906101000a900463ffffffff168960010160008b600301600e9054906101000a900463ffffffff1663ffffffff1663ffffffff168152602001908152602001600020600001600e9054906101000a90046001600160701b03168a60010160008c600301600e9054906101000a900463ffffffff1663ffffffff1663ffffffff168152602001908152602001600020600001601c9054906101000a900463ffffffff16604051611e919493929190614301565b60405180910390a45b8083148015611eb057611eb08b8b888c8c6125fa565b6001600160a01b038a16600090815260208d9052604090209597508795611ed790876128fa565b95505050505050611c57565b50505050505050565b6001600160a01b038083166000908152606760209081526040808320938516835292905220606090610731906127a5565b4290565b6001600160a01b0383166000908152602086905260408120611f42906128b1565b6001600160a01b038516600090815260208890526040812091925090611f67906128b7565b90505b6001600160a01b03811615801590611fb457506001600160a01b0385166000908152602088905260409020611f9e906128b1565b6001600160a01b0316816001600160a01b031614155b15611ee3576001600160a01b0380861660009081526001890160209081526040808320938516835292905290812090611fec836120d1565b90506000611ffc8388888561291d565b90508181148015612013576120138a8a878961239d565b6001600160a01b038916600090815260208c905260409020949550859461203a90866128fa565b945050505050611f6a565b6001600160a01b038083166000908152606560209081526040808320938516835292905220606090610731906127a5565b6001600160a01b038083166000908152606660209081526040808320938516835292905220606090610731906127a5565b600064010000000082106120cd5760405162461bcd60e51b81526004016104cd90614721565b5090565b600080826001600160a01b03166370a08231306040518263ffffffff1660e01b815260040161210091906141b0565b60206040518083038186803b15801561211857600080fd5b505afa15801561212c573d6000803e3d6000fd5b505050506040513d601f19601f820116820180604052508101906121509190614198565b6001600160a01b03841660009081526068602052604090205490915081811061217a57600061171e565b61171e8282611bc0565b6001600160a01b03851660009081526020879052604090206121a69085612acd565b6121c25760405162461bcd60e51b81526004016104cd906145d3565b61226f856001600160a01b03166318160ddd6040518163ffffffff1660e01b815260040160206040518083038186803b1580156121fe57600080fd5b505afa158015612212573d6000803e3d6000fd5b505050506040513d601f19601f820116820180604052508101906122369190614198565b6001600160a01b03808816600090815260018a0160209081526040808320938a168352929052209063ffffffff80861690859061291d16565b5050506001600160a01b03928316600090815260019094016020908152604080862093909416855291909152912055565b6001600160a01b03831660009081526020859052604090206122c29083612acd565b156122df5760405162461bcd60e51b81526004016104cd90614383565b6001600160a01b03831660009081526020859052604090205461231d576001600160a01b038316600090815260208590526040902061231d90612b1e565b6001600160a01b038316600090815260208590526040902061233f9083612b62565b6001600160a01b038084166000908152600186016020908152604080832093861683529290522061236f90612c2a565b6001600160a01b03928316600090815260019094016020908152604080862093909416855291909152912055565b6123d98383836123ae610d04611f1d565b6123b7876120d1565b6001600160a01b038a1660009081526067602052604090209493929190612c40565b816001600160a01b0316836001600160a01b0316856001600160a01b03167fbbd41ee308597dd699317716979d8ce8edde7cdde9471c26bfab7752e1186c9460405160405180910390a450505050565b6001600160a01b038516600090815260208790526040812061244b9086612acd565b156124685760405162461bcd60e51b81526004016104cd9061479e565b6001600160a01b0386166000908152602088905260409020546124a6576001600160a01b03861660009081526020889052604090206124a690612b1e565b6001600160a01b03861660009081526020889052604090206124c89086612b62565b6001600160a01b03808716600090815260018901602090815260408083209389168352929052206124fb90858585612ccf565b505050506001600160a01b0391821660009081526001939093016020908152604080852092909316845252902060030154600160701b900463ffffffff1690565b6001600160a01b0391821660009081526001939093016020908152604080852092909316845252902090565b6001600160a01b038416600090815260208690526040902061258a9084612acd565b6125a65760405162461bcd60e51b81526004016104cd90614592565b6001600160a01b03808516600090815260018701602090815260408083209387168352929052206106d7908383612e1b565b6001600160a01b038216600090815260208490526040812061171e9083612acd565b8115612629576001600160a01b038516600090815260666020526040902061262490858584612e8a565b61264d565b6001600160a01b038516600090815260656020526040902061264d90858584612e8a565b826001600160a01b0316846001600160a01b0316866001600160a01b03167f9684c938581734d57a998217c38505f0c4fc95afd0af9da2c97b9822ee7a66c88560405161269a9190614282565b60405180910390a45050505050565b60006126b6878484612ead565b6001600160801b031690508015611ee3576126d2848483612eba565b50836001600160a01b0316856001600160a01b0316876001600160a01b03167f782be3085b3ef7b927740f3ed02f7393ee3f20b8fe87595484dbf65c5be4230d86856040516127229291906141c4565b60405180910390a450505050505050565b6000612740888484612fac565b9050801561140357612753858483612eba565b50846001600160a01b0316866001600160a01b0316886001600160a01b03167f06c65e2aee0f9ad46bde72ca6800e5b29333356dc073eba0e3995ffc980148f78787866040516111979392919061428d565b606080826000015467ffffffffffffffff811180156127c357600080fd5b506040519080825280602002602001820160405280156127ed578160200160208202803683370190505b50600160008181529085016020526040812054919250906001600160a01b03165b6001600160a01b0381161580159061283057506001600160a01b038116600114155b1561287c578083838151811061284257fe5b6001600160a01b0392831660209182029290920181019190915291811660009081526001808801909352604090205492909101911661280e565b50909392505050565b600081848411156128a95760405162461bcd60e51b81526004016104cd9190614330565b505050900390565b50600190565b60016000818152910160205260409020546001600160a01b031690565b60006128e084846131ba565b156128f0576107088484846131f0565b5060009392505050565b6001600160a01b0380821660009081526001840160205260409020541692915050565b600184015460009063ffffffff848116600160e01b9092041614156129445750600061171e565b6001850154600090600160e01b900463ffffffff1615612975576001860154600160e01b900463ffffffff16612977565b835b905060006129858583611bc0565b60018801549091506000906001600160701b0316156129b15760018801546001600160701b03166129c2565b6129c2670de0b6b3a76400006134c0565b9050600080831180156129d55750885415155b15612a2f5788546129e79084906134e5565b9050858111156129f45750845b6000808911612a04576000612a0e565b612a0e828a61351f565b9050612a2b612a266001600160701b03851683613540565b6134c0565b9250505b6001890180546001600160701b0319166001600160701b038481169190911791829055612a6991612a2691600160701b9091041683613540565b89600101600e6101000a8154816001600160701b0302191690836001600160701b03160217905550612a9a876120a7565b60018a01805463ffffffff92909216600160e01b026001600160e01b039092169190911790559350505050949350505050565b60006001600160a01b038216600114801590612af157506001600160a01b03821615155b80156107315750506001600160a01b03908116600090815260019290920160205260409091205416151590565b805415612b3d5760405162461bcd60e51b81526004016104cd9061468b565b60016000818152918101602052604090912080546001600160a01b0319169091179055565b6001600160a01b038116600114801590612b8457506001600160a01b03811615155b612ba05760405162461bcd60e51b81526004016104cd90614400565b6001600160a01b0381811660009081526001840160205260409020541615612bda5760405162461bcd60e51b81526004016104cd906146fa565b60016000818152838201602052604080822080546001600160a01b039586168085529284208054969091166001600160a01b03199687161790559183905281549093169092179091558154019055565b6001018054600160701b600160e01b0319169055565b6001600160a01b0385166000908152602087905260409020612c63908486613565565b612c9f856001600160a01b03166318160ddd6040518163ffffffff1660e01b815260040160206040518083038186803b1580156121fe57600080fd5b505050506001600160a01b0391821660009081526001939093016020908152604080852092909316845252812055565b8263ffffffff1660008111612cf65760405162461bcd60e51b81526004016104cd9061449c565b60028501805463ffffffff191663ffffffff86811691909117640100000000600160901b0319166401000000006001600160701b03871602179091556003860180546001600160701b03191690819055612d6691612d6191600160701b900481169060019061354016565b61362f565b60038601805463ffffffff60701b191661ffff92909216600160701b90810292909217908190556040805160608101825260008082526001600160701b03978816602080840191825263ffffffff98891684860190815295879004891683526001909b01909a529190912090518154985192516001600160701b031990991690871617600160701b600160e01b03191691909516909102176001600160e01b0316600160e01b95909216949094021790555050565b8163ffffffff1660008111612e425760405162461bcd60e51b81526004016104cd9061449c565b50600290920180546001600160701b0390931664010000000002640100000000600160901b031963ffffffff90931663ffffffff199094169390931791909116919091179055565b6001600160a01b0383166000908152602085905260409020610674908284613565565b600061171e848484613653565b600080612ec6856120d1565b90506000818411612ed75783612ed9565b815b6001600160a01b038716600090815260686020526040902054909150612eff9082613540565b6001600160a01b03808816600090815260686020908152604080832094909455606981528382209289168252919091522054612f3b9082613540565b6001600160a01b038088166000818152606960209081526040808320948b1680845294909152908190209390935591519091907f0f3ed8b918f23095606f705f6253b10267861573421cf05301b0f1f006c92b4490612f9b9085906147fe565b60405180910390a395945050505050565b6003830154600090600160701b900463ffffffff16612fcd57506000610731565b6001600160a01b03831660009081526020859052604081205461300890869063ffffffff600160701b820416906001600160701b0316613733565b6003860154909150600160701b900463ffffffff1681156130a3576040518060400160405280613037866134c0565b6001600160701b03908116825263ffffffff8085166020938401526001600160a01b03891660009081528a845260409020845181549590940151909116600160701b0263ffffffff60701b19939092166001600160701b03199094169390931791909116179055613146565b6040805180820182526001600160a01b03871660009081526020899052919091205481906130de90612a26906001600160701b031688613540565b6001600160701b03908116825263ffffffff8085166020938401526001600160a01b03891660009081528a845260409020845181549590940151909116600160701b0263ffffffff60701b19939092166001600160701b031990941693909317919091161790555b63ffffffff808216600090815260018801602052604090205461317991612a26916001600160701b031690879061354016565b63ffffffff9091166000908152600187016020526040902080546001600160701b03929092166001600160701b031990921691909117905590509392505050565b600382015463ffffffff600160701b90910481166000908152600184016020526040902054600160e01b90041681101592915050565b600083836131fe82826131ba565b61321a5760405162461bcd60e51b81526004016104cd90614767565b6003860154600160701b900463ffffffff1660009081526001870160205260408120546001600160701b03161561327c57506003860154600160701b9081900463ffffffff166000908152600188016020526040902054046001600160701b03165b84816001600160701b031611156132df57613296856134c0565b6003880154600160701b9081900463ffffffff16600090815260018a01602052604090208054600160701b600160e01b0319166001600160701b03841690920291909117905590505b600387015463ffffffff600160701b909104811660009081526001808a01602052604082205460028b0154600160e01b90910484169361333c92916133369190811690613330908d908890611bc016565b906137ea565b90613540565b60028a01549091506000906133679061336090849063ffffffff908116906134e516565b8490613540565b60038b015490915061338a90612a26906001600160701b03908116908716613540565b60038b0180546001600160701b0319166001600160701b039290921691909117908190556133cf90612d6190600160701b900463ffffffff9081169060019061354016565b60038b01805463ffffffff60701b191661ffff92909216600160701b02919091179055604080516060810182526000815260028c01546001600160701b03640100000000909104166020820152908101613428836120a7565b63ffffffff90811690915260038c0154600160701b908190048216600090815260018e01602090815260409182902085518154928701519690930151909416600160e01b026001600160e01b036001600160701b03968716909402600160701b600160e01b03199387166001600160701b03199093169290921792909216179190911617905593909316955050505050509392505050565b6000600160701b82106120cd5760405162461bcd60e51b81526004016104cd906146b1565b6000826134f457506000610492565b8282028284828161350157fe5b04146107315760405162461bcd60e51b81526004016104cd90614615565b60008061353484670de0b6b3a76400006134e5565b905061171e81846137ea565b6000828201838110156107315760405162461bcd60e51b81526004016104cd906144d3565b6001600160a01b03811660011480159061358757506001600160a01b03811615155b6135a35760405162461bcd60e51b81526004016104cd90614400565b6001600160a01b0382811660009081526001850160205260409020548116908216146135e15760405162461bcd60e51b81526004016104cd90614429565b6001600160a01b039081166000818152600185016020526040808220805495851683529082208054959094166001600160a01b03199586161790935552805490911690558054600019019055565b60006201000082106120cd5760405162461bcd60e51b81526004016104cd906143ba565b6001600160a01b0382166000908152600284016020526040812080546001600160801b03168061369a5761368e670de0b6b3a76400006134c0565b6001600160701b031690505b60018601546000906136b5906001600160701b031683611bc0565b905060006136cb6136c6878461382c565b61384d565b604080516020808201835260018c01546001600160701b031682526001600160a01b039a909a1660009081526002909b01909952909820965187546fffffffffffffffffffffffffffffffff19166001600160801b0390911617909655509495945050505050565b6003830154600090819063ffffffff600160701b909104811690851610801561377b575063ffffffff841660009081526001860160205260409020546001600160701b031615155b1561171e5763ffffffff841660009081526001860160205260408120546137b5906001600160801b038616906001600160701b031661351f565b63ffffffff861660009081526001880160205260409020549091506116bf90600160701b90046001600160701b03168261382c565b600061073183836040518060400160405280601a81526020017f536166654d6174683a206469766973696f6e206279207a65726f000000000000815250613872565b60008061383983856134e5565b905061171e81670de0b6b3a76400006137ea565b6000600160801b82106120cd5760405162461bcd60e51b81526004016104cd9061450a565b600081836138935760405162461bcd60e51b81526004016104cd9190614330565b50600083858161389f57fe5b0495945050505050565b604080518082019091526000808252602082015290565b604080516060810182526000808252602082018190529181019190915290565b6040805160a08101825260008082526020820181905291810182905260608101829052608081019190915290565b80356001600160a01b038116811461049257600080fd5b600082601f830112613935578081fd5b813561394861394382614869565b614842565b81815291506020808301908481018184028601820187101561396957600080fd5b60005b848110156139905761397e888361390e565b8452928201929082019060010161396c565b505050505092915050565b600082601f8301126139ab578081fd5b81356139b961394382614869565b81815291506020808301908481016040808502870183018810156139dc57600080fd5b60005b85811015613a03576139f18984613a0f565b855293830193918101916001016139df565b50505050505092915050565b600060408284031215613a20578081fd5b613a2a6040614842565b9050613a36838361390e565b8152613a45836020840161390e565b602082015292915050565b600060208284031215613a61578081fd5b610731838361390e565b60008060408385031215613a7d578081fd5b613a87848461390e565b9150613a96846020850161390e565b90509250929050565b600080600060608486031215613ab3578081fd5b613abd858561390e565b9250613acc856020860161390e565b9150613adb856040860161390e565b90509250925092565b60008060008060808587031215613af9578081fd5b613b03868661390e565b9350613b12866020870161390e565b9250613b21866040870161390e565b9150613b30866060870161390e565b905092959194509250565b60008060008060808587031215613b50578384fd5b613b5a868661390e565b9350613b69866020870161390e565b9250613b78866040870161390e565b91506060850135613b88816148a1565b939692955090935050565b600080600080600060a08688031215613baa578081fd5b613bb4878761390e565b9450613bc3876020880161390e565b9350613bd2876040880161390e565b92506060860135613be2816148a1565b9150613bf1876080880161390e565b90509295509295909350565b600080600080600060a08688031215613c14578081fd5b613c1e878761390e565b9450613c2d876020880161390e565b9350613c3c876040880161390e565b92506060860135613c4c816148a1565b9150608086013561ffff81168114613c62578182fd5b809150509295509295909350565b60008060008060008060c08789031215613c88578384fd5b8635613c9381614889565b95506020870135613ca381614889565b94506040870135613cb381614889565b93506060870135613cc3816148a1565b92506080870135613cd3816148af565b915060a08701356001600160701b0381168114613cee578182fd5b809150509295509295509295565b600080600080600080600060e0888a031215613d16578485fd5b8735613d2181614889565b96506020880135613d3181614889565b95506040880135613d4181614889565b94506060880135613d51816148a1565b93506080880135613d61816148af565b925060a08801356001600160701b0381168114613d7c578182fd5b915060c0880135613d8c816148af565b8091505092959891949750929550565b60008060008060808587031215613db1578182fd5b8435613dbc81614889565b93506020850135613dcc81614889565b92506040850135613ddc81614889565b9396929550929360600135925050565b600080600060608486031215613e00578081fd5b8335613e0b81614889565b92506020840135613e1b81614889565b91506040840135613e2b816148a1565b809150509250925092565b600080600060608486031215613e4a578081fd5b8335613e5581614889565b92506020840135613e6581614889565b929592945050506040919091013590565b60008060008060808587031215613e8b578182fd5b8435613e9681614889565b93506020850135613ea681614889565b9250604085013591506060850135613b8881614889565b60008060408385031215613ecf578182fd5b613ed9848461390e565b9150602083013567ffffffffffffffff811115613ef4578182fd5b613f0085828601613925565b9150509250929050565b60008060008060808587031215613f1f578182fd5b613f29868661390e565b935060208501359250613b21866040870161390e565b600080600080600060608688031215613f56578283fd5b853567ffffffffffffffff80821115613f6d578485fd5b818801915088601f830112613f80578485fd5b813581811115613f8e578586fd5b60208a81604084028601011115613fa3578687fd5b8084019850819750613fb78b828c0161390e565b965060408a0135935082841115613fcc578485fd5b838a0193508a601f850112613fdf578485fd5b8335915082821115613fef578485fd5b8a818284028601011115614001578485fd5b979a96995094975050909401935090919050565b600060208284031215614026578081fd5b813567ffffffffffffffff81111561403c578182fd5b61171e8482850161399b565b60008060006060848603121561405c578081fd5b833567ffffffffffffffff80821115614073578283fd5b61407f8783880161399b565b94506020860135915061409182614889565b909250604085013590808211156140a6578283fd5b506140b386828701613925565b9150509250925092565b600080600080608085870312156140d2578182fd5b843567ffffffffffffffff808211156140e9578384fd5b6140f58883890161399b565b9550614104886020890161390e565b9450604087013593506060870135915080821115614120578283fd5b5061412d87828801613925565b91505092959194509250565b60006020828403121561414a578081fd5b8151610731816148a1565b600060208284031215614166578081fd5b81356001600160e01b031981168114610731578182fd5b60006040828403121561418e578081fd5b6107318383613a0f565b6000602082840312156141a9578081fd5b5051919050565b6001600160a01b0391909116815260200190565b6001600160a01b03929092168252602082015260400190565b6020808252825182820181905260009190848201906040850190845b8181101561421e5783516001600160a01b0316835292840192918401916001016141f9565b50909695505050505050565b602080825282518282018190526000919060409081850190868401855b8281101561427557815180516001600160a01b03168552860151868501529284019290850190600101614247565b5091979650505050505050565b901515815260200190565b92151583526001600160a01b03919091166020830152604082015260600190565b921515835263ffffffff9190911660208301526001600160701b0316604082015260600190565b931515845263ffffffff9290921660208401526001600160701b03166040830152606082015260800190565b931515845263ffffffff92831660208501526001600160701b0391909116604084015216606082015260800190565b6000602080835283518082850152825b8181101561435c57858101830151858201604001528201614340565b8181111561436d5783604083870101525b50601f01601f1916929092016040019392505050565b6020808252601e908201527f42616c616e6365447269704d616e616765722f647269702d6163746976650000604082015260600190565b60208082526026908201527f53616665436173743a2076616c756520646f65736e27742066697420696e203160408201526536206269747360d01b606082015260800190565b6020808252600f908201526e496e76616c6964206164647265737360881b604082015260600190565b602080825260139082015272496e76616c696420707265764164647265737360681b604082015260600190565b60208082526026908201527f4f776e61626c653a206e6577206f776e657220697320746865207a65726f206160408201526564647265737360d01b606082015260800190565b60208082526019908201527f566f6c756d65447269702f706572696f642d67742d7a65726f00000000000000604082015260600190565b6020808252601b908201527f536166654d6174683a206164646974696f6e206f766572666c6f770000000000604082015260600190565b60208082526027908201527f53616665436173743a2076616c756520646f65736e27742066697420696e20316040820152663238206269747360c81b606082015260800190565b60208082526021908201527f436f6d7074726f6c6c65722f636c61696d2d7472616e736665722d6661696c656040820152601960fa1b606082015260800190565b60208082526021908201527f566f6c756d65447269704d616e616765722f647269702d6e6f742d61637469766040820152606560f81b606082015260800190565b60208082526022908201527f42616c616e6365447269704d616e616765722f647269702d6e6f742d61637469604082015261766560f01b606082015260800190565b60208082526021908201527f536166654d6174683a206d756c7469706c69636174696f6e206f766572666c6f6040820152607760f81b606082015260800190565b6020808252818101527f4f776e61626c653a2063616c6c6572206973206e6f7420746865206f776e6572604082015260600190565b6020808252600c908201526b105b1c9958591e481a5b9a5d60a21b604082015260600190565b60208082526029908201527f53616665436173743a2076616c756520646f65736e27742066697420696e206160408201526837103ab4b73a18989960b91b606082015260800190565b6020808252600d908201526c105b1c9958591e481859191959609a1b604082015260600190565b60208082526026908201527f53616665436173743a2076616c756520646f65736e27742066697420696e203360408201526532206269747360d01b606082015260800190565b6020808252601a908201527f566f6c756d65447269702f706572696f642d6e6f742d6f766572000000000000604082015260600190565b6020808252601d908201527f566f6c756d65447269704d616e616765722f647269702d616374697665000000604082015260600190565b6001600160701b03938416815291909216602082015263ffffffff909116604082015260600190565b90815260200190565b9283526001600160801b0391909116602083015263ffffffff16604082015260600190565b9283526020830191909152604082015260600190565b60405181810167ffffffffffffffff8111828210171561486157600080fd5b604052919050565b600067ffffffffffffffff82111561487f578081fd5b5060209081020190565b6001600160a01b038116811461489e57600080fd5b50565b801515811461489e57600080fd5b63ffffffff8116811461489e57600080fdfea2646970667358221220947f052ebd10800b9edebfd0cfab21b763e5405acf0105868bf97463b1f794c664736f6c634300060c0033",
  "devdoc": {
    "kind": "dev",
    "methods": {
      "activateBalanceDrip(address,address,address,uint256)": {
        "params": {
          "dripRatePerSecond": "The amount of drip tokens that are awarded each second to the total supply of measure.",
          "dripToken": "The token that is dripped to users.",
          "measure": "The ERC20 token whose balances determines user's share of the drip rate.",
          "source": "The balance drip \"source\"; i.e. a Prize Pool address."
        }
      },
      "activateVolumeDrip(address,address,address,bool,uint32,uint112,uint32)": {
        "params": {
          "dripAmount": "The amount of dripTokens disbursed each period.",
          "dripToken": "The token that is being disbursed",
          "endTime": "The time at which the first period ends.",
          "isReferral": "Whether this volume drip is for referrals",
          "measure": "The Prize Pool controlled token whose volume should be measured",
          "periodSeconds": "The period of the volume drip, in seconds",
          "source": "The Prize Pool for which to bind to"
        }
      },
      "balanceOfDrip(address,address)": {
        "params": {
          "dripToken": "The token that is being disbursed",
          "user": "The user whose balance should be checked."
        },
        "returns": {
          "_0": "The claimable balance of the dripToken by the user."
        }
      },
      "beforeTokenMint(address,uint256,address,address)": {
        "params": {
          "amount": "The amount of tokens they are minting",
          "measure": "The measure token they are minting",
          "referrer": "The user who referred the minting.",
          "to": "The user who is minting the tokens"
        }
      },
      "beforeTokenTransfer(address,address,uint256,address)": {
        "params": {
          "from": "The user who is sending the tokens",
          "measure": "The measure token they are burning",
          "to": "The user who is receiving the tokens"
        }
      },
      "captureClaimsForBalanceDripsForPairs((address,address)[],address,address[])": {
        "params": {
          "dripTokens": "The drip tokens to retrieve claim balances for.",
          "pairs": "The (source, measure) pairs to update.  For each pair all of the balance drips, volume drips, and referral volume drips will be updated.",
          "user": "The user whose drips and balances will be updated."
        }
      },
      "claimDrip(address,address,uint256)": {
        "params": {
          "amount": "The amount of drip token to claim",
          "dripToken": "The drip token to claim",
          "user": "The user for whom to claim the drip tokens"
        }
      },
      "deactivateBalanceDrip(address,address,address,address)": {
        "params": {
          "dripToken": "The token that is dripped to users.",
          "measure": "The ERC20 token whose balances determines user's share of the drip rate.",
          "prevDripToken": "The previous drip token in the balance drip list.  If the dripToken is the first address, then the previous address is the SENTINEL address: 0x0000000000000000000000000000000000000001",
          "source": "The balance drip \"source\"; i.e. a Prize Pool address."
        }
      },
      "deactivateVolumeDrip(address,address,address,bool,address)": {
        "params": {
          "dripToken": "The token that is being disbursed",
          "isReferral": "Whether this volume drip is for referrals",
          "measure": "The Prize Pool controlled token whose volume should be measured",
          "prevDripToken": "The previous drip token in the volume drip list.  Is different for referrals vs non-referral volume drips.",
          "source": "The Prize Pool for which to bind to"
        }
      },
      "getActiveBalanceDripTokens(address,address)": {
        "params": {
          "measure": "The ERC20 token whose balances determines user's share of the drip rate.",
          "source": "The balance drip \"source\"; i.e. a Prize Pool address."
        },
        "returns": {
          "_0": "An array of active Balance Drip token addresses"
        }
      },
      "getActiveVolumeDripTokens(address,address,bool)": {
        "params": {
          "isReferral": "Whether this volume drip is a referral",
          "measure": "The ERC20 token whose volume determines user's share of the drip rate.",
          "source": "The volume drip \"source\"; i.e. a Prize Pool address."
        },
        "returns": {
          "_0": "An array of active Volume Drip token addresses"
        }
      },
      "getBalanceDrip(address,address,address)": {
        "params": {
          "dripToken": "The token that is being dripped to users",
          "measure": "The token that measure's a users share of the drip",
          "source": "The balance drip \"source\"; i.e. Prize Pool"
        },
        "returns": {
          "dripRatePerSecond": "The current drip rate of the balance drip.",
          "exchangeRateMantissa": "The current exchange rate from measure to dripTokens",
          "timestamp": "The timestamp at which the balance drip was last updated."
        }
      },
      "owner()": {
        "details": "Returns the address of the current owner."
      },
      "renounceOwnership()": {
        "details": "Leaves the contract without owner. It will not be possible to call `onlyOwner` functions anymore. Can only be called by the current owner. NOTE: Renouncing ownership will leave the contract without an owner, thereby removing any functionality that is only available to the owner."
      },
      "setBalanceDripRate(address,address,address,uint256)": {
        "params": {
          "dripRatePerSecond": "The new drip rate per second",
          "dripToken": "The token that is dripped to the user",
          "measure": "The token to use to measure a user's share of the drip rate",
          "source": "The balance drip \"source\"; i.e. Prize Pool"
        }
      },
      "setVolumeDrip(address,address,address,bool,uint32,uint112)": {
        "params": {
          "dripAmount": "The amount of tokens to drip for the next period",
          "dripToken": "The token that is being disbursed",
          "isReferral": "Whether this volume drip is a referral",
          "measure": "The token whose volume is being measured",
          "periodSeconds": "The length to use for the next period",
          "source": "The Prize Pool of the volume drip"
        }
      },
      "supportsInterface(bytes4)": {
        "details": "Returns true if this contract implements the interface defined by `interfaceId`. See the corresponding https://eips.ethereum.org/EIPS/eip-165#how-interfaces-are-identified[EIP section] to learn more about how these ids are created. This function call must use less than 30 000 gas."
      },
      "transferOwnership(address)": {
        "details": "Transfers ownership of the contract to a new account (`newOwner`). Can only be called by the current owner."
      },
      "updateAndClaimDrips((address,address)[],address,address[])": {
        "details": "This function will be useful to check the *current* claim balances for a user. Just need to run this as a constant function to see the latest balances. in order to claim the values, this function needs to be run alongside a claimDrip function.",
        "params": {
          "dripTokens": "The drip tokens whose entire balance will be claimed after the update.",
          "pairs": "The (source, measure) pairs of drips to update for the given user",
          "user": "The user for whom to update and claim tokens"
        },
        "returns": {
          "_0": "The claimable balance of each of the passed drip tokens for the user.  These are the post-update balances, and therefore the most accurate."
        }
      },
      "updateDrips((address,address)[],address,address[])": {
        "details": "This function will be useful to check the *current* claim balances for a user. Just need to run this as a constant function to see the latest balances. in order to claim the values, this function needs to be run alongside a claimDrip function.",
        "params": {
          "dripTokens": "The drip tokens whose entire balance will be claimed after the update.",
          "pairs": "The (source, measure) pairs of drips to update for the given user",
          "user": "The user for whom to update and claim tokens"
        },
        "returns": {
          "_0": "The claimable balance of each of the passed drip tokens for the user.  These are the post-update balances, and therefore the most accurate."
        }
      }
    },
    "title": "The Comptroller disburses rewards to pool users",
    "version": 1
  },
  "userdoc": {
    "events": {
      "BalanceDripActivated(address,address,address,uint256)": {
        "notice": "Emitted when a balance drip is actived"
      },
      "BalanceDripDeactivated(address,address,address)": {
        "notice": "Emitted when a balance drip is deactivated"
      },
      "BalanceDripDripped(address,address,address,address,uint256)": {
        "notice": "Emitted when a balance drip drips tokens"
      },
      "BalanceDripRateSet(address,address,address,uint256)": {
        "notice": "Emitted when a balance drip rate is updated"
      },
      "DripTokenClaimed(address,address,address,uint256)": {
        "notice": "Emitted when a user claims drip tokens"
      },
      "VolumeDripActivated(address,address,address,bool,uint256,uint256)": {
        "notice": "Emitted when a volume drip is activated"
      },
      "VolumeDripDeactivated(address,address,address,bool)": {
        "notice": "Emitted when a volume drip is deactivated."
      },
      "VolumeDripDripped(address,address,address,bool,address,uint256)": {
        "notice": "Emitted when a volue drip drips tokens"
      },
      "VolumeDripPeriodEnded(address,address,address,bool,uint32,uint256,uint256)": {
        "notice": "Emitted when a volume drip period has ended"
      },
      "VolumeDripPeriodStarted(address,address,address,bool,uint32,uint256,uint256)": {
        "notice": "Emitted when a new volume drip period has started"
      },
      "VolumeDripSet(address,address,address,bool,uint256,uint256)": {
        "notice": "Emitted when a volume drip is updated"
      }
    },
    "kind": "user",
    "methods": {
      "activateBalanceDrip(address,address,address,uint256)": {
        "notice": "Activates a balance drip.  Only callable by the owner."
      },
      "activateVolumeDrip(address,address,address,bool,uint32,uint112,uint32)": {
        "notice": "Activates a volume drip.  Volume drips distribute tokens to users based on their share of the activity within a period."
      },
      "balanceOfDrip(address,address)": {
        "notice": "Returns a users claimable balance of drip tokens.  This is the combination of all balance and volume drips."
      },
      "beforeTokenMint(address,uint256,address,address)": {
        "notice": "Called by a \"source\" (i.e. Prize Pool) when a user mints new \"measure\" tokens."
      },
      "beforeTokenTransfer(address,address,uint256,address)": {
        "notice": "Called by a \"source\" (i.e. Prize Pool) when tokens change hands or are burned"
      },
      "claimDrip(address,address,uint256)": {
        "notice": "Claims a drip token on behalf of a user.  If the passed amount is less than or equal to the users drip balance, then they will be transferred that amount.  Otherwise, it fails."
      },
      "constructor": "Initializes a new Comptroller.",
      "deactivateBalanceDrip(address,address,address,address)": {
        "notice": "Deactivates a balance drip.  Only callable by the owner."
      },
      "deactivateVolumeDrip(address,address,address,bool,address)": {
        "notice": "Deactivates a volume drip.  Volume drips distribute tokens to users based on their share of the activity within a period."
      },
      "getActiveBalanceDripTokens(address,address)": {
        "notice": "Gets a list of active balance drip tokens"
      },
      "getActiveVolumeDripTokens(address,address,bool)": {
        "notice": "Gets a list of active volume drip tokens"
      },
      "getBalanceDrip(address,address,address)": {
        "notice": "Returns the state of a balance drip."
      },
      "setBalanceDripRate(address,address,address,uint256)": {
        "notice": "Sets the drip rate for a balance drip.  The drip rate is the number of drip tokens given to the entire supply of measure tokens.  Only callable by the owner."
      },
      "setVolumeDrip(address,address,address,bool,uint32,uint112)": {
        "notice": "Sets the parameters for the *next* volume drip period.  The source, measure, dripToken and isReferral combined are used to uniquely identify a volume drip.  Only callable by the owner."
      },
      "updateAndClaimDrips((address,address)[],address,address[])": {
        "notice": "Updates the given drips for a user and then claims the given drip tokens.  This call will poke all of the drips and update the claim balances for the given user."
      },
      "updateDrips((address,address)[],address,address[])": {
        "notice": "Updates the given drips for a user and then claims the given drip tokens.  This call will poke all of the drips and update the claim balances for the given user."
      }
    },
    "version": 1
  },
  "storageLayout": {
    "storage": [
      {
        "astId": 8817,
        "contract": "contracts/comptroller/Comptroller.sol:Comptroller",
        "label": "_initialized",
        "offset": 0,
        "slot": "0",
        "type": "t_bool"
      },
      {
        "astId": 8820,
        "contract": "contracts/comptroller/Comptroller.sol:Comptroller",
        "label": "_initializing",
        "offset": 1,
        "slot": "0",
        "type": "t_bool"
      },
      {
        "astId": 8121,
        "contract": "contracts/comptroller/Comptroller.sol:Comptroller",
        "label": "__gap",
        "offset": 0,
        "slot": "1",
        "type": "t_array(t_uint256)50_storage"
      },
      {
        "astId": 8133,
        "contract": "contracts/comptroller/Comptroller.sol:Comptroller",
        "label": "_owner",
        "offset": 0,
        "slot": "51",
        "type": "t_address"
      },
      {
        "astId": 8251,
        "contract": "contracts/comptroller/Comptroller.sol:Comptroller",
        "label": "__gap",
        "offset": 0,
        "slot": "52",
        "type": "t_array(t_uint256)49_storage"
      },
      {
        "astId": 15927,
        "contract": "contracts/comptroller/Comptroller.sol:Comptroller",
        "label": "volumeDrips",
        "offset": 0,
        "slot": "101",
        "type": "t_mapping(t_address,t_struct(State)17060_storage)"
      },
      {
        "astId": 15931,
        "contract": "contracts/comptroller/Comptroller.sol:Comptroller",
        "label": "referralVolumeDrips",
        "offset": 0,
        "slot": "102",
        "type": "t_mapping(t_address,t_struct(State)17060_storage)"
      },
      {
        "astId": 15935,
        "contract": "contracts/comptroller/Comptroller.sol:Comptroller",
        "label": "balanceDrips",
        "offset": 0,
        "slot": "103",
        "type": "t_mapping(t_address,t_struct(State)16250_storage)"
      },
      {
        "astId": 15939,
        "contract": "contracts/comptroller/Comptroller.sol:Comptroller",
        "label": "dripTokenTotalSupply",
        "offset": 0,
        "slot": "104",
        "type": "t_mapping(t_address,t_uint256)"
      },
      {
        "astId": 15945,
        "contract": "contracts/comptroller/Comptroller.sol:Comptroller",
        "label": "dripTokenBalances",
        "offset": 0,
        "slot": "105",
        "type": "t_mapping(t_address,t_mapping(t_address,t_uint256))"
      }
    ],
    "types": {
      "t_address": {
        "encoding": "inplace",
        "label": "address",
        "numberOfBytes": "20"
      },
      "t_array(t_uint256)49_storage": {
        "base": "t_uint256",
        "encoding": "inplace",
        "label": "uint256[49]",
        "numberOfBytes": "1568"
      },
      "t_array(t_uint256)50_storage": {
        "base": "t_uint256",
        "encoding": "inplace",
        "label": "uint256[50]",
        "numberOfBytes": "1600"
      },
      "t_bool": {
        "encoding": "inplace",
        "label": "bool",
        "numberOfBytes": "1"
      },
      "t_mapping(t_address,t_address)": {
        "encoding": "mapping",
        "key": "t_address",
        "label": "mapping(address => address)",
        "numberOfBytes": "32",
        "value": "t_address"
      },
      "t_mapping(t_address,t_mapping(t_address,t_struct(State)15978_storage))": {
        "encoding": "mapping",
        "key": "t_address",
        "label": "mapping(address => mapping(address => struct BalanceDrip.State))",
        "numberOfBytes": "32",
        "value": "t_mapping(t_address,t_struct(State)15978_storage)"
      },
      "t_mapping(t_address,t_mapping(t_address,t_struct(State)16540_storage))": {
        "encoding": "mapping",
        "key": "t_address",
        "label": "mapping(address => mapping(address => struct VolumeDrip.State))",
        "numberOfBytes": "32",
        "value": "t_mapping(t_address,t_struct(State)16540_storage)"
      },
      "t_mapping(t_address,t_mapping(t_address,t_uint256))": {
        "encoding": "mapping",
        "key": "t_address",
        "label": "mapping(address => mapping(address => uint256))",
        "numberOfBytes": "32",
        "value": "t_mapping(t_address,t_uint256)"
      },
      "t_mapping(t_address,t_struct(Deposit)16514_storage)": {
        "encoding": "mapping",
        "key": "t_address",
        "label": "mapping(address => struct VolumeDrip.Deposit)",
        "numberOfBytes": "32",
        "value": "t_struct(Deposit)16514_storage"
      },
      "t_mapping(t_address,t_struct(Mapping)28268_storage)": {
        "encoding": "mapping",
        "key": "t_address",
        "label": "mapping(address => struct MappedSinglyLinkedList.Mapping)",
        "numberOfBytes": "32",
        "value": "t_struct(Mapping)28268_storage"
      },
      "t_mapping(t_address,t_struct(State)15978_storage)": {
        "encoding": "mapping",
        "key": "t_address",
        "label": "mapping(address => struct BalanceDrip.State)",
        "numberOfBytes": "32",
        "value": "t_struct(State)15978_storage"
      },
      "t_mapping(t_address,t_struct(State)16250_storage)": {
        "encoding": "mapping",
        "key": "t_address",
        "label": "mapping(address => struct BalanceDripManager.State)",
        "numberOfBytes": "32",
        "value": "t_struct(State)16250_storage"
      },
      "t_mapping(t_address,t_struct(State)16540_storage)": {
        "encoding": "mapping",
        "key": "t_address",
        "label": "mapping(address => struct VolumeDrip.State)",
        "numberOfBytes": "32",
        "value": "t_struct(State)16540_storage"
      },
      "t_mapping(t_address,t_struct(State)17060_storage)": {
        "encoding": "mapping",
        "key": "t_address",
        "label": "mapping(address => struct VolumeDripManager.State)",
        "numberOfBytes": "32",
        "value": "t_struct(State)17060_storage"
      },
      "t_mapping(t_address,t_struct(UserState)15965_storage)": {
        "encoding": "mapping",
        "key": "t_address",
        "label": "mapping(address => struct BalanceDrip.UserState)",
        "numberOfBytes": "32",
        "value": "t_struct(UserState)15965_storage"
      },
      "t_mapping(t_address,t_uint256)": {
        "encoding": "mapping",
        "key": "t_address",
        "label": "mapping(address => uint256)",
        "numberOfBytes": "32",
        "value": "t_uint256"
      },
      "t_mapping(t_uint32,t_struct(Period)16521_storage)": {
        "encoding": "mapping",
        "key": "t_uint32",
        "label": "mapping(uint32 => struct VolumeDrip.Period)",
        "numberOfBytes": "32",
        "value": "t_struct(Period)16521_storage"
      },
      "t_struct(Deposit)16514_storage": {
        "encoding": "inplace",
        "label": "struct VolumeDrip.Deposit",
        "members": [
          {
            "astId": 16511,
            "contract": "contracts/comptroller/Comptroller.sol:Comptroller",
            "label": "balance",
            "offset": 0,
            "slot": "0",
            "type": "t_uint112"
          },
          {
            "astId": 16513,
            "contract": "contracts/comptroller/Comptroller.sol:Comptroller",
            "label": "period",
            "offset": 14,
            "slot": "0",
            "type": "t_uint32"
          }
        ],
        "numberOfBytes": "32"
      },
      "t_struct(Mapping)28268_storage": {
        "encoding": "inplace",
        "label": "struct MappedSinglyLinkedList.Mapping",
        "members": [
          {
            "astId": 28263,
            "contract": "contracts/comptroller/Comptroller.sol:Comptroller",
            "label": "count",
            "offset": 0,
            "slot": "0",
            "type": "t_uint256"
          },
          {
            "astId": 28267,
            "contract": "contracts/comptroller/Comptroller.sol:Comptroller",
            "label": "addressMap",
            "offset": 0,
            "slot": "1",
            "type": "t_mapping(t_address,t_address)"
          }
        ],
        "numberOfBytes": "64"
      },
      "t_struct(Period)16521_storage": {
        "encoding": "inplace",
        "label": "struct VolumeDrip.Period",
        "members": [
          {
            "astId": 16516,
            "contract": "contracts/comptroller/Comptroller.sol:Comptroller",
            "label": "totalSupply",
            "offset": 0,
            "slot": "0",
            "type": "t_uint112"
          },
          {
            "astId": 16518,
            "contract": "contracts/comptroller/Comptroller.sol:Comptroller",
            "label": "dripAmount",
            "offset": 14,
            "slot": "0",
            "type": "t_uint112"
          },
          {
            "astId": 16520,
            "contract": "contracts/comptroller/Comptroller.sol:Comptroller",
            "label": "endTime",
            "offset": 28,
            "slot": "0",
            "type": "t_uint32"
          }
        ],
        "numberOfBytes": "32"
      },
      "t_struct(State)15978_storage": {
        "encoding": "inplace",
        "label": "struct BalanceDrip.State",
        "members": [
          {
            "astId": 15967,
            "contract": "contracts/comptroller/Comptroller.sol:Comptroller",
            "label": "dripRatePerSecond",
            "offset": 0,
            "slot": "0",
            "type": "t_uint256"
          },
          {
            "astId": 15969,
            "contract": "contracts/comptroller/Comptroller.sol:Comptroller",
            "label": "exchangeRateMantissa",
            "offset": 0,
            "slot": "1",
            "type": "t_uint112"
          },
          {
            "astId": 15971,
            "contract": "contracts/comptroller/Comptroller.sol:Comptroller",
            "label": "totalDripped",
            "offset": 14,
            "slot": "1",
            "type": "t_uint112"
          },
          {
            "astId": 15973,
            "contract": "contracts/comptroller/Comptroller.sol:Comptroller",
            "label": "timestamp",
            "offset": 28,
            "slot": "1",
            "type": "t_uint32"
          },
          {
            "astId": 15977,
            "contract": "contracts/comptroller/Comptroller.sol:Comptroller",
            "label": "userStates",
            "offset": 0,
            "slot": "2",
            "type": "t_mapping(t_address,t_struct(UserState)15965_storage)"
          }
        ],
        "numberOfBytes": "96"
      },
      "t_struct(State)16250_storage": {
        "encoding": "inplace",
        "label": "struct BalanceDripManager.State",
        "members": [
          {
            "astId": 16243,
            "contract": "contracts/comptroller/Comptroller.sol:Comptroller",
            "label": "activeBalanceDrips",
            "offset": 0,
            "slot": "0",
            "type": "t_mapping(t_address,t_struct(Mapping)28268_storage)"
          },
          {
            "astId": 16249,
            "contract": "contracts/comptroller/Comptroller.sol:Comptroller",
            "label": "balanceDrips",
            "offset": 0,
            "slot": "1",
            "type": "t_mapping(t_address,t_mapping(t_address,t_struct(State)15978_storage))"
          }
        ],
        "numberOfBytes": "64"
      },
      "t_struct(State)16540_storage": {
        "encoding": "inplace",
        "label": "struct VolumeDrip.State",
        "members": [
          {
            "astId": 16525,
            "contract": "contracts/comptroller/Comptroller.sol:Comptroller",
            "label": "deposits",
            "offset": 0,
            "slot": "0",
            "type": "t_mapping(t_address,t_struct(Deposit)16514_storage)"
          },
          {
            "astId": 16529,
            "contract": "contracts/comptroller/Comptroller.sol:Comptroller",
            "label": "periods",
            "offset": 0,
            "slot": "1",
            "type": "t_mapping(t_uint32,t_struct(Period)16521_storage)"
          },
          {
            "astId": 16531,
            "contract": "contracts/comptroller/Comptroller.sol:Comptroller",
            "label": "nextPeriodSeconds",
            "offset": 0,
            "slot": "2",
            "type": "t_uint32"
          },
          {
            "astId": 16533,
            "contract": "contracts/comptroller/Comptroller.sol:Comptroller",
            "label": "nextDripAmount",
            "offset": 4,
            "slot": "2",
            "type": "t_uint112"
          },
          {
            "astId": 16535,
            "contract": "contracts/comptroller/Comptroller.sol:Comptroller",
            "label": "__gap",
            "offset": 18,
            "slot": "2",
            "type": "t_uint112"
          },
          {
            "astId": 16537,
            "contract": "contracts/comptroller/Comptroller.sol:Comptroller",
            "label": "totalDripped",
            "offset": 0,
            "slot": "3",
            "type": "t_uint112"
          },
          {
            "astId": 16539,
            "contract": "contracts/comptroller/Comptroller.sol:Comptroller",
            "label": "periodCount",
            "offset": 14,
            "slot": "3",
            "type": "t_uint32"
          }
        ],
        "numberOfBytes": "128"
      },
      "t_struct(State)17060_storage": {
        "encoding": "inplace",
        "label": "struct VolumeDripManager.State",
        "members": [
          {
            "astId": 17053,
            "contract": "contracts/comptroller/Comptroller.sol:Comptroller",
            "label": "activeVolumeDrips",
            "offset": 0,
            "slot": "0",
            "type": "t_mapping(t_address,t_struct(Mapping)28268_storage)"
          },
          {
            "astId": 17059,
            "contract": "contracts/comptroller/Comptroller.sol:Comptroller",
            "label": "volumeDrips",
            "offset": 0,
            "slot": "1",
            "type": "t_mapping(t_address,t_mapping(t_address,t_struct(State)16540_storage))"
          }
        ],
        "numberOfBytes": "64"
      },
      "t_struct(UserState)15965_storage": {
        "encoding": "inplace",
        "label": "struct BalanceDrip.UserState",
        "members": [
          {
            "astId": 15964,
            "contract": "contracts/comptroller/Comptroller.sol:Comptroller",
            "label": "lastExchangeRateMantissa",
            "offset": 0,
            "slot": "0",
            "type": "t_uint128"
          }
        ],
        "numberOfBytes": "32"
      },
      "t_uint112": {
        "encoding": "inplace",
        "label": "uint112",
        "numberOfBytes": "14"
      },
      "t_uint128": {
        "encoding": "inplace",
        "label": "uint128",
        "numberOfBytes": "16"
      },
      "t_uint256": {
        "encoding": "inplace",
        "label": "uint256",
        "numberOfBytes": "32"
      },
      "t_uint32": {
        "encoding": "inplace",
        "label": "uint32",
        "numberOfBytes": "4"
      }
    }
  }
}