{
  "address": "0x41122Ca50202d13c809dfE88F60Da212A1525Ed7",
  "abi": [
    {
      "inputs": [],
      "stateMutability": "nonpayable",
      "type": "constructor"
    },
    {
      "anonymous": false,
      "inputs": [
        {
          "indexed": true,
          "internalType": "address",
          "name": "previousOwner",
          "type": "address"
        },
        {
          "indexed": true,
          "internalType": "address",
          "name": "newOwner",
          "type": "address"
        }
      ],
      "name": "OwnershipTransferred",
      "type": "event"
    },
    {
      "anonymous": false,
      "inputs": [
        {
          "indexed": false,
          "internalType": "uint256",
          "name": "rateMantissa",
          "type": "uint256"
        }
      ],
      "name": "ReserveRateMantissaSet",
      "type": "event"
    },
    {
      "inputs": [],
      "name": "owner",
      "outputs": [
        {
          "internalType": "address",
          "name": "",
          "type": "address"
        }
      ],
      "stateMutability": "view",
      "type": "function"
    },
    {
      "inputs": [],
      "name": "rateMantissa",
      "outputs": [
        {
          "internalType": "uint256",
          "name": "",
          "type": "uint256"
        }
      ],
      "stateMutability": "view",
      "type": "function"
    },
    {
      "inputs": [],
      "name": "renounceOwnership",
      "outputs": [],
      "stateMutability": "nonpayable",
      "type": "function"
    },
    {
      "inputs": [
        {
          "internalType": "address",
          "name": "",
          "type": "address"
        }
      ],
      "name": "reserveRateMantissa",
      "outputs": [
        {
          "internalType": "uint256",
          "name": "",
          "type": "uint256"
        }
      ],
      "stateMutability": "view",
      "type": "function"
    },
    {
      "inputs": [
        {
          "internalType": "uint256",
          "name": "_rateMantissa",
          "type": "uint256"
        }
      ],
      "name": "setRateMantissa",
      "outputs": [],
      "stateMutability": "nonpayable",
      "type": "function"
    },
    {
      "inputs": [
        {
          "internalType": "address",
          "name": "newOwner",
          "type": "address"
        }
      ],
      "name": "transferOwnership",
      "outputs": [],
      "stateMutability": "nonpayable",
      "type": "function"
    },
    {
      "inputs": [
        {
          "internalType": "address",
          "name": "prizePool",
          "type": "address"
        },
        {
          "internalType": "address",
          "name": "to",
          "type": "address"
        }
      ],
      "name": "withdrawReserve",
      "outputs": [
        {
          "internalType": "uint256",
          "name": "",
          "type": "uint256"
        }
      ],
      "stateMutability": "nonpayable",
      "type": "function"
    }
  ],
  "transactionHash": "0x0fa99a9bfac33a9cd757092ddcfd5f892f92f9d25c4e6c7b1b8136dbbe241447",
  "args": [],
  "solcInputHash": "4ee5cd3af4cdf3f3b3aae685e2904e9d",
  "bytecode": "0x608060405234801561001057600080fd5b5061001961001e565b61028e565b600054610100900460ff168061003757506100376100d0565b80610045575060005460ff16155b6100805760405162461bcd60e51b815260040180806020018281038252602e8152602001806107d2602e913960400191505060405180910390fd5b600054610100900460ff161580156100ab576000805460ff1961ff0019909116610100171660011790555b6100b36100eb565b6100bb61018b565b80156100cd576000805461ff00191690555b50565b60006100e53061028460201b6104af1760201c565b15905090565b600054610100900460ff168061010457506101046100d0565b80610112575060005460ff16155b61014d5760405162461bcd60e51b815260040180806020018281038252602e8152602001806107d2602e913960400191505060405180910390fd5b600054610100900460ff161580156100bb576000805460ff1961ff00199091166101001716600117905580156100cd576000805461ff001916905550565b600054610100900460ff16806101a457506101a46100d0565b806101b2575060005460ff16155b6101ed5760405162461bcd60e51b815260040180806020018281038252602e8152602001806107d2602e913960400191505060405180910390fd5b600054610100900460ff16158015610218576000805460ff1961ff0019909116610100171660011790555b600061022261028a565b603380546001600160a01b0319166001600160a01b038316908117909155604051919250906000907f8be0079c531659141344cd1fd0a4f28419497f9722a3daafe3b4186f6b6457e0908290a35080156100cd576000805461ff001916905550565b3b151590565b3390565b6105358061029d6000396000f3fe608060405234801561001057600080fd5b506004361061007d5760003560e01c8063715018a61161005b578063715018a6146100f057806381b659d2146100fa5780638da5cb5b14610117578063f2fde38b1461013b5761007d565b8063010dfa58146100825780633e0b06db146100ba57806361853b42146100c2575b600080fd5b6100a86004803603602081101561009857600080fd5b50356001600160a01b0316610161565b60408051918252519081900360200190f35b6100a8610168565b6100a8600480360360408110156100d857600080fd5b506001600160a01b038135811691602001351661016e565b6100f8610254565b005b6100f86004803603602081101561011057600080fd5b5035610300565b61011f61039d565b604080516001600160a01b039092168252519081900360200190f35b6100f86004803603602081101561015157600080fd5b50356001600160a01b03166103ac565b5060655490565b60655481565b60006101786104b5565b6001600160a01b031661018961039d565b6001600160a01b0316146101d2576040805162461bcd60e51b815260206004820181905260248201526000805160206104e0833981519152604482015290519081900360640190fd5b826001600160a01b03166352a387ab836040518263ffffffff1660e01b815260040180826001600160a01b03168152602001915050602060405180830381600087803b15801561022157600080fd5b505af1158015610235573d6000803e3d6000fd5b505050506040513d602081101561024b57600080fd5b50519392505050565b61025c6104b5565b6001600160a01b031661026d61039d565b6001600160a01b0316146102b6576040805162461bcd60e51b815260206004820181905260248201526000805160206104e0833981519152604482015290519081900360640190fd5b6033546040516000916001600160a01b0316907f8be0079c531659141344cd1fd0a4f28419497f9722a3daafe3b4186f6b6457e0908390a3603380546001600160a01b0319169055565b6103086104b5565b6001600160a01b031661031961039d565b6001600160a01b031614610362576040805162461bcd60e51b815260206004820181905260248201526000805160206104e0833981519152604482015290519081900360640190fd5b60658190556040805182815290517f596f4db485f9f39633eefcb1b04b10114fc6bc60e5feff327e5b2cace874129f9181900360200190a150565b6033546001600160a01b031690565b6103b46104b5565b6001600160a01b03166103c561039d565b6001600160a01b03161461040e576040805162461bcd60e51b815260206004820181905260248201526000805160206104e0833981519152604482015290519081900360640190fd5b6001600160a01b0381166104535760405162461bcd60e51b81526004018080602001828103825260268152602001806104ba6026913960400191505060405180910390fd5b6033546040516001600160a01b038084169216907f8be0079c531659141344cd1fd0a4f28419497f9722a3daafe3b4186f6b6457e090600090a3603380546001600160a01b0319166001600160a01b0392909216919091179055565b3b151590565b339056fe4f776e61626c653a206e6577206f776e657220697320746865207a65726f20616464726573734f776e61626c653a2063616c6c6572206973206e6f7420746865206f776e6572a2646970667358221220dfb61d005c107e1cfa17cd7dc8daa7ef98abbd82563d9c442697edcee69d83e264736f6c634300060c0033496e697469616c697a61626c653a20636f6e747261637420697320616c726561647920696e697469616c697a6564",
  "devdoc": {
    "kind": "dev",
    "methods": {
      "owner()": {
        "details": "Returns the address of the current owner."
      },
      "renounceOwnership()": {
        "details": "Leaves the contract without owner. It will not be possible to call `onlyOwner` functions anymore. Can only be called by the current owner. NOTE: Renouncing ownership will leave the contract without an owner, thereby removing any functionality that is only available to the owner."
      },
      "transferOwnership(address)": {
        "details": "Transfers ownership of the contract to a new account (`newOwner`). Can only be called by the current owner."
      }
    },
    "title": "Interface that allows a user to draw an address using an index",
    "version": 1
  },
  "userdoc": {
    "kind": "user",
    "methods": {},
    "version": 1
  },
  "storageLayout": {
    "storage": [
      {
        "astId": 1397,
        "contract": "contracts/reserve/Reserve.sol:Reserve",
        "label": "_initialized",
        "offset": 0,
        "slot": "0",
        "type": "t_bool"
      },
      {
        "astId": 1400,
        "contract": "contracts/reserve/Reserve.sol:Reserve",
        "label": "_initializing",
        "offset": 1,
        "slot": "0",
        "type": "t_bool"
      },
      {
        "astId": 3750,
        "contract": "contracts/reserve/Reserve.sol:Reserve",
        "label": "__gap",
        "offset": 0,
        "slot": "1",
        "type": "t_array(t_uint256)50_storage"
      },
      {
        "astId": 10,
        "contract": "contracts/reserve/Reserve.sol:Reserve",
        "label": "_owner",
        "offset": 0,
        "slot": "51",
        "type": "t_address"
      },
      {
        "astId": 129,
        "contract": "contracts/reserve/Reserve.sol:Reserve",
        "label": "__gap",
        "offset": 0,
        "slot": "52",
        "type": "t_array(t_uint256)49_storage"
      },
      {
        "astId": 17139,
        "contract": "contracts/reserve/Reserve.sol:Reserve",
        "label": "rateMantissa",
        "offset": 0,
        "slot": "101",
        "type": "t_uint256"
      }
    ],
    "types": {
      "t_address": {
        "encoding": "inplace",
        "label": "address",
        "numberOfBytes": "20"
      },
      "t_array(t_uint256)49_storage": {
        "base": "t_uint256",
        "encoding": "inplace",
        "label": "uint256[49]",
        "numberOfBytes": "1568"
      },
      "t_array(t_uint256)50_storage": {
        "base": "t_uint256",
        "encoding": "inplace",
        "label": "uint256[50]",
        "numberOfBytes": "1600"
      },
      "t_bool": {
        "encoding": "inplace",
        "label": "bool",
        "numberOfBytes": "1"
      },
      "t_uint256": {
        "encoding": "inplace",
        "label": "uint256",
        "numberOfBytes": "32"
      }
    }
  }
}