{
  "abi": [
    {
      "inputs": [
        {
          "internalType": "contract ComptrollerInterface",
          "name": "_comptroller",
          "type": "address"
        },
        {
          "internalType": "contract SingleRandomWinnerProxyFactory",
          "name": "_singleRandomWinnerProxyFactory",
          "type": "address"
        },
        {
          "internalType": "address",
          "name": "_trustedForwarder",
          "type": "address"
        },
        {
          "internalType": "contract CompoundPrizePoolProxyFactory",
          "name": "_compoundPrizePoolProxyFactory",
          "type": "address"
        },
        {
          "internalType": "contract ControlledTokenProxyFactory",
          "name": "_controlledTokenProxyFactory",
          "type": "address"
        },
        {
          "internalType": "contract OpenZeppelinProxyFactoryInterface",
          "name": "_proxyFactory",
          "type": "address"
        },
        {
          "internalType": "contract TicketProxyFactory",
          "name": "_ticketProxyFactory",
          "type": "address"
        }
      ],
      "stateMutability": "nonpayable",
      "type": "constructor"
    },
    {
      "anonymous": false,
      "inputs": [
        {
          "indexed": true,
          "internalType": "address",
          "name": "creator",
          "type": "address"
        },
        {
          "indexed": true,
          "internalType": "address",
          "name": "prizePool",
          "type": "address"
        },
        {
          "indexed": true,
          "internalType": "address",
          "name": "prizeStrategy",
          "type": "address"
        }
      ],
      "name": "CompoundPrizePoolCreated",
      "type": "event"
    },
    {
      "anonymous": false,
      "inputs": [
        {
          "indexed": true,
          "internalType": "address",
          "name": "singleRandomWinner",
          "type": "address"
        },
        {
          "indexed": true,
          "internalType": "address",
          "name": "ticket",
          "type": "address"
        },
        {
          "indexed": true,
          "internalType": "address",
          "name": "sponsorship",
          "type": "address"
        }
      ],
      "name": "SingleRandomWinnerCreated",
      "type": "event"
    },
    {
      "inputs": [],
      "name": "compoundPrizePoolProxyFactory",
      "outputs": [
        {
          "internalType": "contract CompoundPrizePoolProxyFactory",
          "name": "",
          "type": "address"
        }
      ],
      "stateMutability": "view",
      "type": "function"
    },
    {
      "inputs": [],
      "name": "comptroller",
      "outputs": [
        {
          "internalType": "contract ComptrollerInterface",
          "name": "",
          "type": "address"
        }
      ],
      "stateMutability": "view",
      "type": "function"
    },
    {
      "inputs": [],
      "name": "controlledTokenProxyFactory",
      "outputs": [
        {
          "internalType": "contract ControlledTokenProxyFactory",
          "name": "",
          "type": "address"
        }
      ],
      "stateMutability": "view",
      "type": "function"
    },
    {
      "inputs": [
        {
          "components": [
            {
              "internalType": "contract CTokenInterface",
              "name": "cToken",
              "type": "address"
            },
            {
              "internalType": "uint256",
              "name": "maxExitFeeMantissa",
              "type": "uint256"
            },
            {
              "internalType": "uint256",
              "name": "maxTimelockDuration",
              "type": "uint256"
            }
          ],
          "internalType": "struct CompoundPrizePoolBuilder.CompoundPrizePoolConfig",
          "name": "config",
          "type": "tuple"
        },
        {
          "internalType": "contract PrizePoolTokenListenerInterface",
          "name": "prizeStrategy",
          "type": "address"
        }
      ],
      "name": "createCompoundPrizePool",
      "outputs": [
        {
          "internalType": "contract CompoundPrizePool",
          "name": "",
          "type": "address"
        }
      ],
      "stateMutability": "nonpayable",
      "type": "function"
    },
    {
      "inputs": [
        {
          "components": [
            {
              "internalType": "contract CTokenInterface",
              "name": "cToken",
              "type": "address"
            },
            {
              "internalType": "uint256",
              "name": "maxExitFeeMantissa",
              "type": "uint256"
            },
            {
              "internalType": "uint256",
              "name": "maxTimelockDuration",
              "type": "uint256"
            }
          ],
          "internalType": "struct CompoundPrizePoolBuilder.CompoundPrizePoolConfig",
          "name": "prizePoolConfig",
          "type": "tuple"
        },
        {
          "components": [
            {
              "internalType": "address",
              "name": "proxyAdmin",
              "type": "address"
            },
            {
              "internalType": "contract RNGInterface",
              "name": "rngService",
              "type": "address"
            },
            {
              "internalType": "uint256",
              "name": "prizePeriodStart",
              "type": "uint256"
            },
            {
              "internalType": "uint256",
              "name": "prizePeriodSeconds",
              "type": "uint256"
            },
            {
              "internalType": "string",
              "name": "ticketName",
              "type": "string"
            },
            {
              "internalType": "string",
              "name": "ticketSymbol",
              "type": "string"
            },
            {
              "internalType": "string",
              "name": "sponsorshipName",
              "type": "string"
            },
            {
              "internalType": "string",
              "name": "sponsorshipSymbol",
              "type": "string"
            },
            {
              "internalType": "uint256",
              "name": "ticketCreditLimitMantissa",
              "type": "uint256"
            },
            {
              "internalType": "uint256",
              "name": "ticketCreditRateMantissa",
              "type": "uint256"
            },
            {
              "internalType": "address[]",
              "name": "externalERC20Awards",
              "type": "address[]"
            }
          ],
          "internalType": "struct CompoundPrizePoolBuilder.SingleRandomWinnerConfig",
          "name": "prizeStrategyConfig",
          "type": "tuple"
        }
      ],
      "name": "createSingleRandomWinner",
      "outputs": [
        {
          "internalType": "contract SingleRandomWinner",
          "name": "",
          "type": "address"
        }
      ],
      "stateMutability": "nonpayable",
      "type": "function"
    },
    {
      "inputs": [],
      "name": "proxyFactory",
      "outputs": [
        {
          "internalType": "contract OpenZeppelinProxyFactoryInterface",
          "name": "",
          "type": "address"
        }
      ],
      "stateMutability": "view",
      "type": "function"
    },
    {
      "inputs": [],
      "name": "singleRandomWinnerProxyFactory",
      "outputs": [
        {
          "internalType": "contract SingleRandomWinnerProxyFactory",
          "name": "",
          "type": "address"
        }
      ],
      "stateMutability": "view",
      "type": "function"
    },
    {
      "inputs": [],
      "name": "ticketProxyFactory",
      "outputs": [
        {
          "internalType": "contract TicketProxyFactory",
          "name": "",
          "type": "address"
        }
      ],
      "stateMutability": "view",
      "type": "function"
    },
    {
      "inputs": [],
      "name": "trustedForwarder",
      "outputs": [
        {
          "internalType": "address",
          "name": "",
          "type": "address"
        }
      ],
      "stateMutability": "view",
      "type": "function"
    }
  ],
  "address": "0xdffF916E2813757c7970a98a7668CFf73E03B1e6",
  "args": [
    "0xEF889edD0dCf30dAF0fe2675723B221497A33961",
    "0x046B071a44301E94Cc6Bbc97721BFA0eCB6947Ff",
    "0xcC87aa60a6457D9606995C4E7E9c38A2b627Da88",
    "0x8fc0341d39f9C3AbE83E0f30048862FC7768918E",
    "0x729dCc0a488ba6FFbce5B93a8E435effee84919D",
    "0xF88Bf2F904dd880eA569a67c9887583eA276D312",
    "0x766B58D0cB6102794C8B8eb62A99b7dEEE1c45Da"
  ],
  "solcInputHash": "0xa0f822a3ee57f436a7b88744fc5f3b224259abc4f2d66dcbb41ccbb5a2dab576",
  "bytecode": "0x60806040523480156200001157600080fd5b5060405162001626380380620016268339810160408190526200003491620001b3565b6001600160a01b038716620000665760405162461bcd60e51b81526004016200005d90620003c3565b60405180910390fd5b6001600160a01b0386166200008f5760405162461bcd60e51b81526004016200005d906200025d565b6001600160a01b038416620000b85760405162461bcd60e51b81526004016200005d9062000309565b6001600160a01b038316620000e15760405162461bcd60e51b81526004016200005d9062000410565b6001600160a01b0382166200010a5760405162461bcd60e51b81526004016200005d90620002ba565b6001600160a01b038116620001335760405162461bcd60e51b81526004016200005d9062000366565b600580546001600160a01b03199081166001600160a01b03948516179091556003805482169284169290921790915560008054821697831697909717909655600480548716958216959095179094556006805486169385169390931790925560018054851691841691909117905560028054909316911617905562000487565b600080600080600080600060e0888a031215620001ce578283fd5b8751620001db816200046e565b6020890151909750620001ee816200046e565b604089015190965062000201816200046e565b606089015190955062000214816200046e565b608089015190945062000227816200046e565b60a08901519093506200023a816200046e565b60c08901519092506200024d816200046e565b8091505092959891949750929550565b6020808252603e908201527f436f6d706f756e645072697a65506f6f6c4275696c6465722f73696e676c652d60408201527f72616e646f6d2d77696e6e65722d666163746f72792d6e6f742d7a65726f0000606082015260800190565b6020808252602f908201527f436f6d706f756e645072697a65506f6f6c4275696c6465722f70726f78792d6660408201526e6163746f72792d6e6f742d7a65726f60881b606082015260800190565b6020808252603d908201527f436f6d706f756e645072697a65506f6f6c4275696c6465722f636f6d706f756e60408201527f642d7072697a652d706f6f6c2d6275696c6465722d6e6f742d7a65726f000000606082015260800190565b60208082526036908201527f436f6d706f756e645072697a65506f6f6c4275696c6465722f7469636b65742d60408201527f70726f78792d666163746f72792d6e6f742d7a65726f00000000000000000000606082015260800190565b6020808252602d908201527f436f6d706f756e645072697a65506f6f6c4275696c6465722f636f6d7074726f60408201526c6c6c65722d6e6f742d7a65726f60981b606082015260800190565b602080825260409082018190527f436f6d706f756e645072697a65506f6f6c4275696c6465722f636f6e74726f6c908201527f6c65642d746f6b656e2d70726f78792d666163746f72792d6e6f742d7a65726f606082015260800190565b6001600160a01b03811681146200048457600080fd5b50565b61118f80620004976000396000f3fe608060405234801561001057600080fd5b50600436106100935760003560e01c8063802125f511610066578063802125f5146100d957806384c92869146100e1578063aa3b296c146100e9578063c10f1a75146100f1578063cbf93714146100f957610093565b806311bcc170146100985780635fe3b567146100c15780636a81d8bd146100c95780637da0a877146100d1575b600080fd5b6100ab6100a6366004610d07565b61010c565b6040516100b89190610e42565b60405180910390f35b6100ab610192565b6100ab6101a1565b6100ab6101b0565b6100ab6101bf565b6100ab6101ce565b6100ab6101dd565b6100ab6101ec565b6100ab610107366004610d3e565b6101fb565b60008061012761012136869003860186610d94565b8461091a565b60405163f2fde38b60e01b81529091506001600160a01b0382169063f2fde38b90610156903390600401610e42565b600060405180830381600087803b15801561017057600080fd5b505af1158015610184573d6000803e3d6000fd5b509293505050505b92915050565b6000546001600160a01b031681565b6002546001600160a01b031681565b6006546001600160a01b031681565b6001546001600160a01b031681565b6004546001600160a01b031681565b6003546001600160a01b031681565b6005546001600160a01b031681565b6000808061020c6020850185610c1d565b6001600160a01b03161461032657600554600480546040805163022ec09560e01b815290516001600160a01b0394851694636150864c9442949091169263022ec0959281830192602092829003018186803b15801561026a57600080fd5b505afa15801561027e573d6000803e3d6000fd5b505050506040513d601f19601f820116820180604052508101906102a29190610c40565b6102af6020880188610c1d565b6040518463ffffffff1660e01b81526004016102cd9392919061104a565b602060405180830381600087803b1580156102e757600080fd5b505af11580156102fb573d6000803e3d6000fd5b505050506040513d601f19601f8201168201806040525081019061031f9190610c40565b90506103a5565b6004805460408051633bf206a360e21b815290516001600160a01b039092169263efc81a8c9282820192602092908290030181600087803b15801561036a57600080fd5b505af115801561037e573d6000803e3d6000fd5b505050506040513d601f19601f820116820180604052508101906103a29190610c40565b90505b60006103bf6103b936879003870187610d94565b8361091a565b90506001600160a01b03811663941d505d61045d836103e160808901896110ca565b8080601f0160208091040260200160405190810160405280939291908181526020018383808284376000920191909152506104239250505060a08a018a6110ca565b8080601f016020809104026020016040519081016040528093929190818152602001838380828437600092019190915250610a6a92505050565b6040518263ffffffff1660e01b81526004016104799190610e42565b600060405180830381600087803b15801561049357600080fd5b505af11580156104a7573d6000803e3d6000fd5b5050506001600160a01b038216905063941d505d610548836104cc60c08901896110ca565b8080601f01602080910402602001604051908101604052809392919081815260200183838082843760009201919091525061050e9250505060e08a018a6110ca565b8080601f016020809104026020016040519081016040528093929190818152602001838380828437600092019190915250610b6b92505050565b6040518263ffffffff1660e01b81526004016105649190610e42565b600060405180830381600087803b15801561057e57600080fd5b505af1158015610592573d6000803e3d6000fd5b505050506060816001600160a01b0316639d63848a6040518163ffffffff1660e01b815260040160006040518083038186803b1580156105d157600080fd5b505afa1580156105e5573d6000803e3d6000fd5b505050506040513d6000823e601f3d908101601f1916820160405261060d9190810190610c5c565b9050816001600160a01b031663f37200de8260018151811061062b57fe5b6020026020010151610641886101200135610bbe565b61064f896101000135610bbe565b6040518463ffffffff1660e01b815260040161066d93929190610ee8565b600060405180830381600087803b15801561068757600080fd5b505af115801561069b573d6000803e3d6000fd5b50505050816001600160a01b0316633e4bdf7b826000815181106106bb57fe5b60200260200101516040518263ffffffff1660e01b81526004016106df9190610e42565b600060405180830381600087803b1580156106f957600080fd5b505af115801561070d573d6000803e3d6000fd5b50505050826001600160a01b03166388e1489c600660009054906101000a90046001600160a01b031687604001358860600135868660018151811061074e57fe5b60200260200101518760008151811061076357fe5b60200260200101518c602001602081019061077e9190610c1d565b61078c6101408f018f611078565b6040518a63ffffffff1660e01b81526004016107b099989796959493929190610f1b565b600060405180830381600087803b1580156107ca57600080fd5b505af11580156107de573d6000803e3d6000fd5b505060405163f2fde38b60e01b81526001600160a01b038616925063f2fde38b915061080e903390600401610e42565b600060405180830381600087803b15801561082857600080fd5b505af115801561083c573d6000803e3d6000fd5b505060405163f2fde38b60e01b81526001600160a01b038516925063f2fde38b915061086c903390600401610e42565b600060405180830381600087803b15801561088657600080fd5b505af115801561089a573d6000803e3d6000fd5b50505050806000815181106108ab57fe5b60200260200101516001600160a01b0316816001815181106108c957fe5b60200260200101516001600160a01b0316846001600160a01b03167f0ff3430811d84b8ceaad3d48db335030d651f13007e5699dbf0c63134cccb8a660405160405180910390a45090949350505050565b600080600160009054906101000a90046001600160a01b03166001600160a01b031663efc81a8c6040518163ffffffff1660e01b8152600401602060405180830381600087803b15801561096d57600080fd5b505af1158015610981573d6000803e3d6000fd5b505050506040513d601f19601f820116820180604052508101906109a59190610c40565b6006546000546020870151604080890151895191516396c1c12d60e01b81529596506060956001600160a01b03808916966396c1c12d966109f696918316958d9591909316938a9390600401610e56565b600060405180830381600087803b158015610a1057600080fd5b505af1158015610a24573d6000803e3d6000fd5b50506040516001600160a01b0380881693508516915033907f737c46586c5966bdf5ba716d982ae751f84213774e836279195a754fdb8abf1690600090a4509392505050565b600080600360009054906101000a90046001600160a01b03166001600160a01b031663efc81a8c6040518163ffffffff1660e01b8152600401602060405180830381600087803b158015610abd57600080fd5b505af1158015610ad1573d6000803e3d6000fd5b505050506040513d601f19601f82011682018060405250810190610af59190610c40565b6006546040516323c56d0560e21b81529192506001600160a01b0380841692638f15b41492610b309289928992909116908b90600401610fb9565b600060405180830381600087803b158015610b4a57600080fd5b505af1158015610b5e573d6000803e3d6000fd5b5092979650505050505050565b600080600260009054906101000a90046001600160a01b03166001600160a01b031663efc81a8c6040518163ffffffff1660e01b8152600401602060405180830381600087803b158015610abd57600080fd5b6000600160801b8210610bec5760405162461bcd60e51b8152600401610be390611003565b60405180910390fd5b5090565b803561018c81611141565b805161018c81611141565b600060608284031215610c17578081fd5b50919050565b600060208284031215610c2e578081fd5b8135610c3981611141565b9392505050565b600060208284031215610c51578081fd5b8151610c3981611141565b60006020808385031215610c6e578182fd5b825167ffffffffffffffff80821115610c85578384fd5b81850186601f820112610c96578485fd5b8051925081831115610ca6578485fd5b8383029150610cb6848301611111565b8381528481019082860184840187018a1015610cd0578788fd5b8794505b85851015610cfa57610ce68a82610bfb565b835260019490940193918601918601610cd4565b5098975050505050505050565b60008060808385031215610d19578081fd5b610d238484610c06565b91506060830135610d3381611141565b809150509250929050565b60008060808385031215610d50578182fd5b610d5a8484610c06565b9150606083013567ffffffffffffffff811115610d75578182fd5b8084016101608187031215610d88578283fd5b80925050509250929050565b600060608284031215610da5578081fd5b610daf6060611111565b8235610dba81611141565b8152602083810135908201526040928301359281019290925250919050565b6001600160a01b0316815260200190565b6001600160a01b03169052565b60008151808452815b81811015610e1c57602081850181015186830182015201610e00565b81811115610e2d5782602083870101525b50601f01601f19169290920160200192915050565b6001600160a01b0391909116815260200190565b6001600160a01b038881168252878116602080840191909152908716604083015260e06060830181905286519083018190526000918781019161010085019190845b81811015610ebb57610eab848651610dea565b9382019392820192600101610e98565b50505080925050508460808301528360a0830152610edc60c0830184610dea565b98975050505050505050565b6001600160a01b039390931683526fffffffffffffffffffffffffffffffff918216602084015216604082015260600190565b600061010080830160018060a01b03808e16855260208d818701528c6040870152818c166060870152818b166080870152818a1660a087015281891660c08701528360e0870152829350610f6f8784611138565b93508792508491505b86821015610fa657808301610f9685610f918387610bf0565b610dd9565b9450925060019190910190610f78565b50919d9c50505050505050505050505050565b600060808252610fcc6080830187610df7565b8281036020840152610fde8187610df7565b6001600160a01b03958616604085015293909416606090920191909152509392505050565b60208082526027908201527f53616665436173743a2076616c756520646f65736e27742066697420696e20316040820152663238206269747360c81b606082015260800190565b9283526001600160a01b03918216602084015216604082015260806060820181905260009082015260a00190565b6000808335601e1984360301811261108e578283fd5b8084018035925067ffffffffffffffff8311156110a9578384fd5b60208101935050506020810236038213156110c357600080fd5b9250929050565b6000808335601e198436030181126110e0578182fd5b8084018035925067ffffffffffffffff8311156110fb578384fd5b602001925050368190038213156110c357600080fd5b60405181810167ffffffffffffffff8111828210171561113057600080fd5b604052919050565b90815260200190565b6001600160a01b038116811461115657600080fd5b5056fea2646970667358221220446545cab600cf21ebea2ac851e666818778645189a3dabb428a141bdaa17d0a64736f6c63430006040033",
  "devdoc": {
    "methods": {}
  },
  "userdoc": {
    "methods": {}
  },
  "storageLayout": {
    "storage": [
      {
        "astId": 5458,
        "contract": "contracts/builders/CompoundPrizePoolBuilder.sol:CompoundPrizePoolBuilder",
        "label": "comptroller",
        "offset": 0,
        "slot": "0",
        "type": "t_contract(ComptrollerInterface)7361"
      },
      {
        "astId": 5460,
        "contract": "contracts/builders/CompoundPrizePoolBuilder.sol:CompoundPrizePoolBuilder",
        "label": "compoundPrizePoolProxyFactory",
        "offset": 0,
        "slot": "1",
        "type": "t_contract(CompoundPrizePoolProxyFactory)11625"
      },
      {
        "astId": 5462,
        "contract": "contracts/builders/CompoundPrizePoolBuilder.sol:CompoundPrizePoolBuilder",
        "label": "controlledTokenProxyFactory",
        "offset": 0,
        "slot": "2",
        "type": "t_contract(ControlledTokenProxyFactory)15047"
      },
      {
        "astId": 5464,
        "contract": "contracts/builders/CompoundPrizePoolBuilder.sol:CompoundPrizePoolBuilder",
        "label": "ticketProxyFactory",
        "offset": 0,
        "slot": "3",
        "type": "t_contract(TicketProxyFactory)15311"
      },
      {
        "astId": 5466,
        "contract": "contracts/builders/CompoundPrizePoolBuilder.sol:CompoundPrizePoolBuilder",
        "label": "singleRandomWinnerProxyFactory",
        "offset": 0,
        "slot": "4",
        "type": "t_contract(SingleRandomWinnerProxyFactory)12865"
      },
      {
        "astId": 5468,
        "contract": "contracts/builders/CompoundPrizePoolBuilder.sol:CompoundPrizePoolBuilder",
        "label": "proxyFactory",
        "offset": 0,
        "slot": "5",
        "type": "t_contract(OpenZeppelinProxyFactoryInterface)8898"
      },
      {
        "astId": 5470,
        "contract": "contracts/builders/CompoundPrizePoolBuilder.sol:CompoundPrizePoolBuilder",
        "label": "trustedForwarder",
        "offset": 0,
        "slot": "6",
        "type": "t_address"
      }
    ],
    "types": {
      "t_address": {
        "encoding": "inplace",
        "label": "address",
        "numberOfBytes": "20"
      },
      "t_contract(CompoundPrizePoolProxyFactory)11625": {
        "encoding": "inplace",
        "label": "contract CompoundPrizePoolProxyFactory",
        "numberOfBytes": "20"
      },
      "t_contract(ComptrollerInterface)7361": {
        "encoding": "inplace",
        "label": "contract ComptrollerInterface",
        "numberOfBytes": "20"
      },
      "t_contract(ControlledTokenProxyFactory)15047": {
        "encoding": "inplace",
        "label": "contract ControlledTokenProxyFactory",
        "numberOfBytes": "20"
      },
      "t_contract(OpenZeppelinProxyFactoryInterface)8898": {
        "encoding": "inplace",
        "label": "contract OpenZeppelinProxyFactoryInterface",
        "numberOfBytes": "20"
      },
      "t_contract(SingleRandomWinnerProxyFactory)12865": {
        "encoding": "inplace",
        "label": "contract SingleRandomWinnerProxyFactory",
        "numberOfBytes": "20"
      },
      "t_contract(TicketProxyFactory)15311": {
        "encoding": "inplace",
        "label": "contract TicketProxyFactory",
        "numberOfBytes": "20"
      }
    }
  },
  "gasEstimates": {
    "creation": {
      "codeDepositCost": "899000",
      "executionCost": "infinite",
      "totalCost": "infinite"
    },
    "external": {
      "compoundPrizePoolProxyFactory()": "1070",
      "comptroller()": "1093",
      "controlledTokenProxyFactory()": "1115",
      "createCompoundPrizePool((address,uint256,uint256),address)": "infinite",
      "createSingleRandomWinner((address,uint256,uint256),(address,address,uint256,uint256,string,string,string,string,uint256,uint256,address[]))": "infinite",
      "proxyFactory()": "1136",
      "singleRandomWinnerProxyFactory()": "1092",
      "ticketProxyFactory()": "1114",
      "trustedForwarder()": "1137"
    },
    "internal": {
      "_createCompoundPrizePool(struct CompoundPrizePoolBuilder.CompoundPrizePoolConfig memory,contract PrizePoolTokenListenerInterface)": "infinite",
      "_createControlledToken(contract TokenControllerInterface,string memory,string memory)": "infinite",
      "_createTicket(contract TokenControllerInterface,string memory,string memory)": "infinite"
    }
  }
}