{
  "abi": [
    {
      "inputs": [],
      "stateMutability": "nonpayable",
      "type": "constructor"
    },
    {
      "anonymous": false,
      "inputs": [
        {
          "indexed": true,
          "internalType": "address",
          "name": "source",
          "type": "address"
        },
        {
          "indexed": true,
          "internalType": "address",
          "name": "measure",
          "type": "address"
        },
        {
          "indexed": true,
          "internalType": "address",
          "name": "dripToken",
          "type": "address"
        },
        {
          "indexed": false,
          "internalType": "uint256",
          "name": "dripRatePerSecond",
          "type": "uint256"
        }
      ],
      "name": "BalanceDripActivated",
      "type": "event"
    },
    {
      "anonymous": false,
      "inputs": [
        {
          "indexed": true,
          "internalType": "address",
          "name": "source",
          "type": "address"
        },
        {
          "indexed": true,
          "internalType": "address",
          "name": "measure",
          "type": "address"
        },
        {
          "indexed": true,
          "internalType": "address",
          "name": "dripToken",
          "type": "address"
        }
      ],
      "name": "BalanceDripDeactivated",
      "type": "event"
    },
    {
      "anonymous": false,
      "inputs": [
        {
          "indexed": true,
          "internalType": "address",
          "name": "source",
          "type": "address"
        },
        {
          "indexed": true,
          "internalType": "address",
          "name": "measure",
          "type": "address"
        },
        {
          "indexed": true,
          "internalType": "address",
          "name": "dripToken",
          "type": "address"
        },
        {
          "indexed": false,
          "internalType": "address",
          "name": "user",
          "type": "address"
        },
        {
          "indexed": false,
          "internalType": "uint256",
          "name": "amount",
          "type": "uint256"
        }
      ],
      "name": "BalanceDripDripped",
      "type": "event"
    },
    {
      "anonymous": false,
      "inputs": [
        {
          "indexed": true,
          "internalType": "address",
          "name": "source",
          "type": "address"
        },
        {
          "indexed": true,
          "internalType": "address",
          "name": "measure",
          "type": "address"
        },
        {
          "indexed": true,
          "internalType": "address",
          "name": "dripToken",
          "type": "address"
        },
        {
          "indexed": false,
          "internalType": "uint256",
          "name": "dripRatePerSecond",
          "type": "uint256"
        }
      ],
      "name": "BalanceDripRateSet",
      "type": "event"
    },
    {
      "anonymous": false,
      "inputs": [
        {
          "indexed": true,
          "internalType": "address",
          "name": "operator",
          "type": "address"
        },
        {
          "indexed": true,
          "internalType": "address",
          "name": "dripToken",
          "type": "address"
        },
        {
          "indexed": true,
          "internalType": "address",
          "name": "user",
          "type": "address"
        },
        {
          "indexed": false,
          "internalType": "uint256",
          "name": "amount",
          "type": "uint256"
        }
      ],
      "name": "DripTokenClaimed",
      "type": "event"
    },
    {
      "anonymous": false,
      "inputs": [
        {
          "indexed": true,
          "internalType": "address",
          "name": "dripToken",
          "type": "address"
        },
        {
          "indexed": true,
          "internalType": "address",
          "name": "user",
          "type": "address"
        },
        {
          "indexed": false,
          "internalType": "uint256",
          "name": "amount",
          "type": "uint256"
        }
      ],
      "name": "DripTokenDripped",
      "type": "event"
    },
    {
      "anonymous": false,
      "inputs": [
        {
          "indexed": true,
          "internalType": "address",
          "name": "previousOwner",
          "type": "address"
        },
        {
          "indexed": true,
          "internalType": "address",
          "name": "newOwner",
          "type": "address"
        }
      ],
      "name": "OwnershipTransferred",
      "type": "event"
    },
    {
      "anonymous": false,
      "inputs": [
        {
          "indexed": true,
          "internalType": "address",
          "name": "token",
          "type": "address"
        },
        {
          "indexed": true,
          "internalType": "address",
          "name": "to",
          "type": "address"
        },
        {
          "indexed": false,
          "internalType": "uint256",
          "name": "amount",
          "type": "uint256"
        }
      ],
      "name": "TransferredOut",
      "type": "event"
    },
    {
      "anonymous": false,
      "inputs": [
        {
          "indexed": true,
          "internalType": "address",
          "name": "source",
          "type": "address"
        },
        {
          "indexed": true,
          "internalType": "address",
          "name": "measure",
          "type": "address"
        },
        {
          "indexed": true,
          "internalType": "address",
          "name": "dripToken",
          "type": "address"
        },
        {
          "indexed": false,
          "internalType": "bool",
          "name": "isReferral",
          "type": "bool"
        },
        {
          "indexed": false,
          "internalType": "uint256",
          "name": "periodSeconds",
          "type": "uint256"
        },
        {
          "indexed": false,
          "internalType": "uint256",
          "name": "dripAmount",
          "type": "uint256"
        }
      ],
      "name": "VolumeDripActivated",
      "type": "event"
    },
    {
      "anonymous": false,
      "inputs": [
        {
          "indexed": true,
          "internalType": "address",
          "name": "source",
          "type": "address"
        },
        {
          "indexed": true,
          "internalType": "address",
          "name": "measure",
          "type": "address"
        },
        {
          "indexed": true,
          "internalType": "address",
          "name": "dripToken",
          "type": "address"
        },
        {
          "indexed": false,
          "internalType": "bool",
          "name": "isReferral",
          "type": "bool"
        }
      ],
      "name": "VolumeDripDeactivated",
      "type": "event"
    },
    {
      "anonymous": false,
      "inputs": [
        {
          "indexed": true,
          "internalType": "address",
          "name": "source",
          "type": "address"
        },
        {
          "indexed": true,
          "internalType": "address",
          "name": "measure",
          "type": "address"
        },
        {
          "indexed": true,
          "internalType": "address",
          "name": "dripToken",
          "type": "address"
        },
        {
          "indexed": false,
          "internalType": "bool",
          "name": "isReferral",
          "type": "bool"
        },
        {
          "indexed": false,
          "internalType": "address",
          "name": "user",
          "type": "address"
        },
        {
          "indexed": false,
          "internalType": "uint256",
          "name": "amount",
          "type": "uint256"
        }
      ],
      "name": "VolumeDripDripped",
      "type": "event"
    },
    {
      "anonymous": false,
      "inputs": [
        {
          "indexed": true,
          "internalType": "address",
          "name": "source",
          "type": "address"
        },
        {
          "indexed": true,
          "internalType": "address",
          "name": "measure",
          "type": "address"
        },
        {
          "indexed": true,
          "internalType": "address",
          "name": "dripToken",
          "type": "address"
        },
        {
          "indexed": false,
          "internalType": "bool",
          "name": "isReferral",
          "type": "bool"
        },
        {
          "indexed": false,
          "internalType": "uint32",
          "name": "period",
          "type": "uint32"
        },
        {
          "indexed": false,
          "internalType": "uint256",
          "name": "totalSupply",
          "type": "uint256"
        },
        {
          "indexed": false,
          "internalType": "uint256",
          "name": "drippedTokens",
          "type": "uint256"
        }
      ],
      "name": "VolumeDripPeriodEnded",
      "type": "event"
    },
    {
      "anonymous": false,
      "inputs": [
        {
          "indexed": true,
          "internalType": "address",
          "name": "source",
          "type": "address"
        },
        {
          "indexed": true,
          "internalType": "address",
          "name": "measure",
          "type": "address"
        },
        {
          "indexed": true,
          "internalType": "address",
          "name": "dripToken",
          "type": "address"
        },
        {
          "indexed": false,
          "internalType": "bool",
          "name": "isReferral",
          "type": "bool"
        },
        {
          "indexed": false,
          "internalType": "uint32",
          "name": "period",
          "type": "uint32"
        },
        {
          "indexed": false,
          "internalType": "uint256",
          "name": "dripAmount",
          "type": "uint256"
        },
        {
          "indexed": false,
          "internalType": "uint256",
          "name": "endTime",
          "type": "uint256"
        }
      ],
      "name": "VolumeDripPeriodStarted",
      "type": "event"
    },
    {
      "anonymous": false,
      "inputs": [
        {
          "indexed": true,
          "internalType": "address",
          "name": "source",
          "type": "address"
        },
        {
          "indexed": true,
          "internalType": "address",
          "name": "measure",
          "type": "address"
        },
        {
          "indexed": true,
          "internalType": "address",
          "name": "dripToken",
          "type": "address"
        },
        {
          "indexed": false,
          "internalType": "bool",
          "name": "isReferral",
          "type": "bool"
        },
        {
          "indexed": false,
          "internalType": "uint256",
          "name": "periodSeconds",
          "type": "uint256"
        },
        {
          "indexed": false,
          "internalType": "uint256",
          "name": "dripAmount",
          "type": "uint256"
        }
      ],
      "name": "VolumeDripSet",
      "type": "event"
    },
    {
      "inputs": [
        {
          "internalType": "address",
          "name": "source",
          "type": "address"
        },
        {
          "internalType": "address",
          "name": "measure",
          "type": "address"
        },
        {
          "internalType": "address",
          "name": "dripToken",
          "type": "address"
        },
        {
          "internalType": "uint256",
          "name": "dripRatePerSecond",
          "type": "uint256"
        }
      ],
      "name": "activateBalanceDrip",
      "outputs": [],
      "stateMutability": "nonpayable",
      "type": "function"
    },
    {
      "inputs": [
        {
          "internalType": "address",
          "name": "source",
          "type": "address"
        },
        {
          "internalType": "address",
          "name": "measure",
          "type": "address"
        },
        {
          "internalType": "address",
          "name": "dripToken",
          "type": "address"
        },
        {
          "internalType": "bool",
          "name": "isReferral",
          "type": "bool"
        },
        {
          "internalType": "uint32",
          "name": "periodSeconds",
          "type": "uint32"
        },
        {
          "internalType": "uint112",
          "name": "dripAmount",
          "type": "uint112"
        },
        {
          "internalType": "uint32",
          "name": "endTime",
          "type": "uint32"
        }
      ],
      "name": "activateVolumeDrip",
      "outputs": [],
      "stateMutability": "nonpayable",
      "type": "function"
    },
    {
      "inputs": [
        {
          "internalType": "address",
          "name": "user",
          "type": "address"
        },
        {
          "internalType": "address[]",
          "name": "dripTokens",
          "type": "address[]"
        }
      ],
      "name": "balanceOfClaims",
      "outputs": [
        {
          "components": [
            {
              "internalType": "address",
              "name": "dripToken",
              "type": "address"
            },
            {
              "internalType": "uint256",
              "name": "balance",
              "type": "uint256"
            }
          ],
          "internalType": "struct Comptroller.DripTokenBalance[]",
          "name": "",
          "type": "tuple[]"
        }
      ],
      "stateMutability": "view",
      "type": "function"
    },
    {
      "inputs": [
        {
          "internalType": "address",
          "name": "user",
          "type": "address"
        },
        {
          "internalType": "address",
          "name": "dripToken",
          "type": "address"
        }
      ],
      "name": "balanceOfDrip",
      "outputs": [
        {
          "internalType": "uint256",
          "name": "",
          "type": "uint256"
        }
      ],
      "stateMutability": "view",
      "type": "function"
    },
    {
      "inputs": [
        {
          "internalType": "address",
          "name": "to",
          "type": "address"
        },
        {
          "internalType": "uint256",
          "name": "amount",
          "type": "uint256"
        },
        {
          "internalType": "address",
          "name": "measure",
          "type": "address"
        },
        {
          "internalType": "address",
          "name": "referrer",
          "type": "address"
        }
      ],
      "name": "beforeTokenMint",
      "outputs": [],
      "stateMutability": "nonpayable",
      "type": "function"
    },
    {
      "inputs": [
        {
          "internalType": "address",
          "name": "from",
          "type": "address"
        },
        {
          "internalType": "address",
          "name": "to",
          "type": "address"
        },
        {
          "internalType": "uint256",
          "name": "",
          "type": "uint256"
        },
        {
          "internalType": "address",
          "name": "measure",
          "type": "address"
        }
      ],
      "name": "beforeTokenTransfer",
      "outputs": [],
      "stateMutability": "nonpayable",
      "type": "function"
    },
    {
      "inputs": [
        {
          "components": [
            {
              "internalType": "address",
              "name": "source",
              "type": "address"
            },
            {
              "internalType": "address",
              "name": "measure",
              "type": "address"
            }
          ],
          "internalType": "struct Comptroller.UpdatePair[]",
          "name": "pairs",
          "type": "tuple[]"
        },
        {
          "internalType": "address",
          "name": "user",
          "type": "address"
        },
        {
          "internalType": "address[]",
          "name": "dripTokens",
          "type": "address[]"
        }
      ],
      "name": "captureClaimsForBalanceDripsForPairs",
      "outputs": [],
      "stateMutability": "nonpayable",
      "type": "function"
    },
    {
      "inputs": [
        {
          "internalType": "address",
          "name": "user",
          "type": "address"
        },
        {
          "internalType": "address",
          "name": "dripToken",
          "type": "address"
        },
        {
          "internalType": "uint256",
          "name": "amount",
          "type": "uint256"
        }
      ],
      "name": "claimDrip",
      "outputs": [],
      "stateMutability": "nonpayable",
      "type": "function"
    },
    {
      "inputs": [
        {
          "internalType": "address",
          "name": "user",
          "type": "address"
        },
        {
          "internalType": "address[]",
          "name": "dripTokens",
          "type": "address[]"
        }
      ],
      "name": "claimDrips",
      "outputs": [],
      "stateMutability": "nonpayable",
      "type": "function"
    },
    {
      "inputs": [
        {
          "internalType": "address",
          "name": "source",
          "type": "address"
        },
        {
          "internalType": "address",
          "name": "measure",
          "type": "address"
        },
        {
          "internalType": "address",
          "name": "dripToken",
          "type": "address"
        },
        {
          "internalType": "address",
          "name": "prevDripToken",
          "type": "address"
        }
      ],
      "name": "deactivateBalanceDrip",
      "outputs": [],
      "stateMutability": "nonpayable",
      "type": "function"
    },
    {
      "inputs": [
        {
          "internalType": "address",
          "name": "source",
          "type": "address"
        },
        {
          "internalType": "address",
          "name": "measure",
          "type": "address"
        },
        {
          "internalType": "address",
          "name": "dripToken",
          "type": "address"
        },
        {
          "internalType": "bool",
          "name": "isReferral",
          "type": "bool"
        },
        {
          "internalType": "address",
          "name": "prevDripToken",
          "type": "address"
        }
      ],
      "name": "deactivateVolumeDrip",
      "outputs": [],
      "stateMutability": "nonpayable",
      "type": "function"
    },
    {
      "inputs": [
        {
          "internalType": "address",
          "name": "source",
          "type": "address"
        },
        {
          "internalType": "address",
          "name": "measure",
          "type": "address"
        }
      ],
      "name": "getActiveBalanceDripTokens",
      "outputs": [
        {
          "internalType": "address[]",
          "name": "",
          "type": "address[]"
        }
      ],
      "stateMutability": "view",
      "type": "function"
    },
    {
      "inputs": [
        {
          "internalType": "address",
          "name": "source",
          "type": "address"
        },
        {
          "internalType": "address",
          "name": "measure",
          "type": "address"
        },
        {
          "internalType": "bool",
          "name": "isReferral",
          "type": "bool"
        }
      ],
      "name": "getActiveVolumeDripTokens",
      "outputs": [
        {
          "internalType": "address[]",
          "name": "",
          "type": "address[]"
        }
      ],
      "stateMutability": "view",
      "type": "function"
    },
    {
      "inputs": [
        {
          "internalType": "address",
          "name": "source",
          "type": "address"
        },
        {
          "internalType": "address",
          "name": "measure",
          "type": "address"
        },
        {
          "internalType": "address",
          "name": "dripToken",
          "type": "address"
        }
      ],
      "name": "getBalanceDrip",
      "outputs": [
        {
          "internalType": "uint256",
          "name": "dripRatePerSecond",
          "type": "uint256"
        },
        {
          "internalType": "uint128",
          "name": "exchangeRateMantissa",
          "type": "uint128"
        },
        {
          "internalType": "uint32",
          "name": "timestamp",
          "type": "uint32"
        }
      ],
      "stateMutability": "view",
      "type": "function"
    },
    {
      "inputs": [
        {
          "internalType": "address",
          "name": "source",
          "type": "address"
        },
        {
          "internalType": "address",
          "name": "measure",
          "type": "address"
        },
        {
          "internalType": "address",
          "name": "dripToken",
          "type": "address"
        },
        {
          "internalType": "bool",
          "name": "isReferral",
          "type": "bool"
        }
      ],
      "name": "getVolumeDrip",
      "outputs": [
        {
          "internalType": "uint256",
          "name": "periodSeconds",
          "type": "uint256"
        },
        {
          "internalType": "uint256",
          "name": "dripAmount",
          "type": "uint256"
        },
        {
          "internalType": "uint256",
          "name": "periodCount",
          "type": "uint256"
        }
      ],
      "stateMutability": "view",
      "type": "function"
    },
    {
      "inputs": [
        {
          "internalType": "address",
          "name": "source",
          "type": "address"
        },
        {
          "internalType": "address",
          "name": "measure",
          "type": "address"
        },
        {
          "internalType": "address",
          "name": "dripToken",
          "type": "address"
        },
        {
          "internalType": "bool",
          "name": "isReferral",
          "type": "bool"
        },
        {
          "internalType": "uint16",
          "name": "period",
          "type": "uint16"
        }
      ],
      "name": "getVolumeDripPeriod",
      "outputs": [
        {
          "internalType": "uint112",
          "name": "totalSupply",
          "type": "uint112"
        },
        {
          "internalType": "uint112",
          "name": "dripAmount",
          "type": "uint112"
        },
        {
          "internalType": "uint32",
          "name": "endTime",
          "type": "uint32"
        }
      ],
      "stateMutability": "view",
      "type": "function"
    },
    {
      "inputs": [
        {
          "internalType": "address",
          "name": "source",
          "type": "address"
        },
        {
          "internalType": "address",
          "name": "measure",
          "type": "address"
        },
        {
          "internalType": "address",
          "name": "dripToken",
          "type": "address"
        },
        {
          "internalType": "bool",
          "name": "isReferral",
          "type": "bool"
        }
      ],
      "name": "isVolumeDripActive",
      "outputs": [
        {
          "internalType": "bool",
          "name": "",
          "type": "bool"
        }
      ],
      "stateMutability": "view",
      "type": "function"
    },
    {
      "inputs": [
        {
          "components": [
            {
              "internalType": "address",
              "name": "source",
              "type": "address"
            },
            {
              "internalType": "address",
              "name": "measure",
              "type": "address"
            }
          ],
          "internalType": "struct Comptroller.UpdatePair[]",
          "name": "pairs",
          "type": "tuple[]"
        },
        {
          "internalType": "address",
          "name": "user",
          "type": "address"
        },
        {
          "internalType": "uint256",
          "name": "amount",
          "type": "uint256"
        },
        {
          "internalType": "address[]",
          "name": "dripTokens",
          "type": "address[]"
        }
      ],
      "name": "mintAndCaptureVolumeDripsForPairs",
      "outputs": [],
      "stateMutability": "nonpayable",
      "type": "function"
    },
    {
      "inputs": [],
      "name": "owner",
      "outputs": [
        {
          "internalType": "address",
          "name": "",
          "type": "address"
        }
      ],
      "stateMutability": "view",
      "type": "function"
    },
    {
      "inputs": [],
      "name": "renounceOwnership",
      "outputs": [],
      "stateMutability": "nonpayable",
      "type": "function"
    },
    {
      "inputs": [
        {
          "internalType": "address",
          "name": "source",
          "type": "address"
        },
        {
          "internalType": "address",
          "name": "measure",
          "type": "address"
        },
        {
          "internalType": "address",
          "name": "dripToken",
          "type": "address"
        },
        {
          "internalType": "uint256",
          "name": "dripRatePerSecond",
          "type": "uint256"
        }
      ],
      "name": "setBalanceDripRate",
      "outputs": [],
      "stateMutability": "nonpayable",
      "type": "function"
    },
    {
      "inputs": [
        {
          "internalType": "address",
          "name": "source",
          "type": "address"
        },
        {
          "internalType": "address",
          "name": "measure",
          "type": "address"
        },
        {
          "internalType": "address",
          "name": "dripToken",
          "type": "address"
        },
        {
          "internalType": "bool",
          "name": "isReferral",
          "type": "bool"
        },
        {
          "internalType": "uint32",
          "name": "periodSeconds",
          "type": "uint32"
        },
        {
          "internalType": "uint112",
          "name": "dripAmount",
          "type": "uint112"
        }
      ],
      "name": "setVolumeDrip",
      "outputs": [],
      "stateMutability": "nonpayable",
      "type": "function"
    },
    {
      "inputs": [
        {
          "internalType": "address",
          "name": "token",
          "type": "address"
        },
        {
          "internalType": "address",
          "name": "to",
          "type": "address"
        },
        {
          "internalType": "uint256",
          "name": "amount",
          "type": "uint256"
        }
      ],
      "name": "transferOut",
      "outputs": [],
      "stateMutability": "nonpayable",
      "type": "function"
    },
    {
      "inputs": [
        {
          "internalType": "address",
          "name": "newOwner",
          "type": "address"
        }
      ],
      "name": "transferOwnership",
      "outputs": [],
      "stateMutability": "nonpayable",
      "type": "function"
    },
    {
      "inputs": [
        {
          "components": [
            {
              "internalType": "address",
              "name": "source",
              "type": "address"
            },
            {
              "internalType": "address",
              "name": "measure",
              "type": "address"
            }
          ],
          "internalType": "struct Comptroller.UpdatePair[]",
          "name": "pairs",
          "type": "tuple[]"
        }
      ],
      "name": "updateActiveBalanceDripsForPairs",
      "outputs": [],
      "stateMutability": "nonpayable",
      "type": "function"
    },
    {
      "inputs": [
        {
          "components": [
            {
              "internalType": "address",
              "name": "source",
              "type": "address"
            },
            {
              "internalType": "address",
              "name": "measure",
              "type": "address"
            }
          ],
          "internalType": "struct Comptroller.UpdatePair[]",
          "name": "pairs",
          "type": "tuple[]"
        }
      ],
      "name": "updateActiveVolumeDripsForPairs",
      "outputs": [],
      "stateMutability": "nonpayable",
      "type": "function"
    },
    {
      "inputs": [
        {
          "components": [
            {
              "internalType": "address",
              "name": "source",
              "type": "address"
            },
            {
              "internalType": "address",
              "name": "measure",
              "type": "address"
            }
          ],
          "internalType": "struct Comptroller.UpdatePair[]",
          "name": "pairs",
          "type": "tuple[]"
        },
        {
          "internalType": "address",
          "name": "user",
          "type": "address"
        },
        {
          "internalType": "address[]",
          "name": "dripTokens",
          "type": "address[]"
        }
      ],
      "name": "updateAndClaimDrips",
      "outputs": [
        {
          "components": [
            {
              "internalType": "address",
              "name": "dripToken",
              "type": "address"
            },
            {
              "internalType": "uint256",
              "name": "balance",
              "type": "uint256"
            }
          ],
          "internalType": "struct Comptroller.DripTokenBalance[]",
          "name": "",
          "type": "tuple[]"
        }
      ],
      "stateMutability": "nonpayable",
      "type": "function"
    },
    {
      "inputs": [
        {
          "components": [
            {
              "internalType": "address",
              "name": "source",
              "type": "address"
            },
            {
              "internalType": "address",
              "name": "measure",
              "type": "address"
            }
          ],
          "internalType": "struct Comptroller.UpdatePair[]",
          "name": "pairs",
          "type": "tuple[]"
        },
        {
          "internalType": "address",
          "name": "user",
          "type": "address"
        },
        {
          "internalType": "address[]",
          "name": "dripTokens",
          "type": "address[]"
        }
      ],
      "name": "updateDrips",
      "outputs": [
        {
          "components": [
            {
              "internalType": "address",
              "name": "dripToken",
              "type": "address"
            },
            {
              "internalType": "uint256",
              "name": "balance",
              "type": "uint256"
            }
          ],
          "internalType": "struct Comptroller.DripTokenBalance[]",
          "name": "",
          "type": "tuple[]"
        }
      ],
      "stateMutability": "nonpayable",
      "type": "function"
    }
  ],
  "address": "0xef2d0B09f8b12179175E303546fAAb21B65b713e",
  "args": [],
  "solcInputHash": "0x67d2f1a624640e4210f56b4412d9d009803636a38345b515d4cd1a2d3b2abfcc",
  "bytecode": "0x60806040523480156200001157600080fd5b506200001c62000022565b62000292565b600054610100900460ff16806200003e57506200003e620000cb565b806200004d575060005460ff16155b620000755760405162461bcd60e51b81526004016200006c9062000244565b60405180910390fd5b600054610100900460ff16158015620000a1576000805460ff1961ff0019909116610100171660011790555b620000ab620000d1565b620000b56200015b565b8015620000c8576000805461ff00191690555b50565b303b1590565b600054610100900460ff1680620000ed5750620000ed620000cb565b80620000fc575060005460ff16155b6200011b5760405162461bcd60e51b81526004016200006c9062000244565b600054610100900460ff16158015620000b5576000805460ff1961ff0019909116610100171660011790558015620000c8576000805461ff001916905550565b600054610100900460ff168062000177575062000177620000cb565b8062000186575060005460ff16155b620001a55760405162461bcd60e51b81526004016200006c9062000244565b600054610100900460ff16158015620001d1576000805460ff1961ff0019909116610100171660011790555b6000620001dd62000240565b606580546001600160a01b0319166001600160a01b038316908117909155604051919250906000907f8be0079c531659141344cd1fd0a4f28419497f9722a3daafe3b4186f6b6457e0908290a3508015620000c8576000805461ff001916905550565b3390565b6020808252602e908201527f436f6e747261637420696e7374616e63652068617320616c726561647920626560408201526d195b881a5b9a5d1a585b1a5e995960921b606082015260800190565b61488080620002a26000396000f3fe608060405234801561001057600080fd5b50600436106101c45760003560e01c806384f8f31c116100f9578063d7840aad11610097578063e5f83b7011610071578063e5f83b70146103e7578063e72edc28146103fa578063f28219ac1461041a578063f2fde38b1461042d576101c4565b8063d7840aad146103a1578063e2937c77146103c1578063e37288ec146103d4576101c4565b8063b2210957116100d3578063b221095714610355578063b7e6810a14610368578063c35185df1461037b578063ce7304611461038e576101c4565b806384f8f31c1461030b5780638da5cb5b1461031e5780639aebef2314610333576101c4565b806343fcacd0116101665780635d68ae22116101405780635d68ae22146102bb5780635e19bad5146102ce578063626e76b4146102e1578063715018a614610303576101c4565b806343fcacd0146102735780634d7f3db014610295578063503bd480146102a8576101c4565b80632697a1a9116101a25780632697a1a91461020457806334de6d191461022d5780633632c1f4146102405780633a6c8a2c14610253576101c4565b8063078d3b79146101c95780631a6eae67146101de5780631dc2d7a4146101f1575b600080fd5b6101dc6101d7366004613de7565b610440565b005b6101dc6101ec366004613ff9565b61054f565b6101dc6101ff36600461406b565b610622565b610217610212366004613d9d565b610686565b6040516102249190614166565b60405180910390f35b6101dc61023b366004613de7565b6106e0565b6101dc61024e366004613fc6565b610861565b610266610261366004613ff9565b610903565b60405161022491906141b3565b610286610281366004613bae565b610944565b6040516102249392919061475e565b6101dc6102a3366004613ebb565b610a7e565b6101dc6102b6366004613d4d565b610c66565b6101dc6102c9366004613d4d565b610d29565b6101dc6102dc366004613a95565b610dcf565b6102f46102ef366004613aec565b610e10565b604051610224939291906147b5565b6101dc610f81565b6101dc610319366004613cad565b611000565b610326611151565b6040516102249190614139565b610346610341366004613a50565b611160565b60405161022493929190614790565b6101dc610363366004613e27565b6111b7565b6101dc610376366004613fc6565b6113b5565b6101dc610389366004613c21565b6114aa565b61026661039c366004613ef0565b611595565b6103b46103af366004613aec565b611671565b604051610224919061420b565b6101dc6103cf366004613b44565b6116ce565b6101dc6103e2366004613e6e565b611710565b6102176103f5366004613a1c565b61179d565b61040d610408366004613a1c565b6117cb565b6040516102249190614787565b610266610428366004613e6e565b6117f7565b6101dc61043b366004613a01565b61190e565b6104486119c5565b6065546001600160a01b0390811691161461047e5760405162461bcd60e51b8152600401610475906145df565b60405180910390fd5b60405163a9059cbb60e01b81526001600160a01b0384169063a9059cbb906104ac908590859060040161414d565b602060405180830381600087803b1580156104c657600080fd5b505af11580156104da573d6000803e3d6000fd5b505050506040513d601f19601f820116820180604052508101906104fe91906140ea565b50816001600160a01b0316836001600160a01b03167f175984d55e63e57889870f617ac3d775087f5bf4e22126f7ae4145152113d79c836040516105429190614787565b60405180910390a3505050565b60005b835181101561061c5761056361385a565b84828151811061056f57fe5b60200260200101519050600081602001516001600160a01b03166370a08231866040518263ffffffff1660e01b81526004016105ab9190614139565b60206040518083038186803b1580156105c357600080fd5b505afa1580156105d7573d6000803e3d6000fd5b505050506040513d601f19601f820116820180604052508101906105fb9190614121565b9050610612826000015183602001518784886119c9565b5050600101610552565b50505050565b60005b845181101561067f5761063661385a565b85828151811061064257fe5b6020026020010151905061066181600001518260200151878787611a59565b61067681600001518260200151878787611ad1565b50600101610625565b5050505050565b606081156106b7576001600160a01b03841660009081526098602052604090206106b09084611b4d565b90506106d9565b6001600160a01b03841660009081526097602052604090206106b09084611b4d565b9392505050565b60006106ea6119c5565b6001600160a01b0384166000908152609a60205260409020549091506107109083611b71565b6001600160a01b038085166000908152609a6020908152604080832094909455609b8152838220928816825291909152205461074c9083611b71565b6001600160a01b038085166000818152609b60209081526040808320948a168352939052829020929092555163a9059cbb60e01b815263a9059cbb90610798908790869060040161414d565b602060405180830381600087803b1580156107b257600080fd5b505af11580156107c6573d6000803e3d6000fd5b505050506040513d601f19601f820116820180604052508101906107ea91906140ea565b6108065760405162461bcd60e51b8152600401610475906144da565b836001600160a01b0316836001600160a01b0316826001600160a01b03167f76db671dc988a5ba4764a06da6bfc2a6a8df0d7d373cc205a687084b4a8492f0856040516108539190614787565b60405180910390a450505050565b60005b81518110156108ff5761087561385a565b82828151811061088157fe5b602002602001015190506108c86097600083600001516001600160a01b03166001600160a01b03168152602001908152602001600020826000015183602001516000611bb3565b80516001600160a01b031660009081526098602090815260409091208251918301516108f692906001611bb3565b50600101610864565b5050565b606061090e846113b5565b61091984848461054f565b61092284610861565b61092f8484600085610622565b606061093b84846117f7565b95945050505050565b6000806000610951613871565b85156109de57506001600160a01b0380891660009081526098602090815260408083208b8516845260019081018352818420948b16845293825280832061ffff89168452909301815290829020825160608101845290546001600160701b038082168352600160701b82041692820192909252600160e01b90910463ffffffff1691810191909152610a61565b506001600160a01b0380891660009081526097602090815260408083208b8516845260019081018352818420948b16845293825280832061ffff89168452909301815290829020825160608101845290546001600160701b038082168352600160701b82041692820192909252600160e01b90910463ffffffff16918101919091525b80516020820151604090920151909a919950975095505050505050565b6000610a886119c5565b90506000836001600160a01b03166370a08231876040518263ffffffff1660e01b8152600401610ab89190614139565b60206040518083038186803b158015610ad057600080fd5b505afa158015610ae4573d6000803e3d6000fd5b505050506040513d601f19601f82011682018060405250810190610b089190614121565b90506000846001600160a01b03166318160ddd6040518163ffffffff1660e01b815260040160206040518083038186803b158015610b4557600080fd5b505afa158015610b59573d6000803e3d6000fd5b505050506040513d601f19601f82011682018060405250810190610b7d9190614121565b90506060610b8b8487611e9d565b6001600160a01b0385166000908152609960205260409020909150610bba90858885610bb5611ece565b611ed2565b610bc784878a86856119c9565b6060610bd38588611ff6565b6001600160a01b0386166000908152609760205260408120919250610bfc919087908a90611bb3565b610c0985888b8b85611a59565b6001600160a01b03861615610c5b576060610c248689612027565b6001600160a01b0387166000908152609860205260409020909150610c4c90878a6001611bb3565b610c598689898c85611ad1565b505b505050505050505050565b610c6e6119c5565b6065546001600160a01b03908116911614610c9b5760405162461bcd60e51b8152600401610475906145df565b610cdc838383610cb1610cac611ece565b612058565b610cba87612082565b6001600160a01b038a1660009081526099602052604090209493929190612135565b816001600160a01b0316836001600160a01b0316856001600160a01b03167f1198b38b5e10d4b1e4cd2866dd9bc4e71e32c649b6ff51addd64e01fb6a6d5ad846040516108539190614787565b610d316119c5565b6065546001600160a01b03908116911614610d5e5760405162461bcd60e51b8152600401610475906145df565b6001600160a01b0384166000908152609960205260409020610d8290848484612251565b816001600160a01b0316836001600160a01b0316856001600160a01b03167f4cf47603ce110cd8061678afe77c525be4ca073f4640f629292afcef7be49259846040516108539190614787565b610dd76119c5565b6065546001600160a01b03908116911614610e045760405162461bcd60e51b8152600401610475906145df565b61061c8484848461234e565b6000806000610e1d613891565b8415610ebd57506001600160a01b0380881660009081526098602090815260408083208a851684526001018252808320938916835292815290829020825160a081018452600282015463ffffffff80821683526001600160701b036401000000008304811695840195909552600160901b9091048416948201949094526003909101549182166060820152600160701b9091049091166080820152610f53565b506001600160a01b0380881660009081526097602090815260408083208a851684526001018252808320938916835292815290829020825160a081018452600282015463ffffffff80821683526001600160701b036401000000008304811695840195909552600160901b9091048416948201949094526003909101549182166060820152600160701b90910490911660808201525b8051602082015160809092015163ffffffff9182169a6001600160701b039093169950169650945050505050565b610f896119c5565b6065546001600160a01b03908116911614610fb65760405162461bcd60e51b8152600401610475906145df565b6065546040516000916001600160a01b0316907f8be0079c531659141344cd1fd0a4f28419497f9722a3daafe3b4186f6b6457e0908390a3606580546001600160a01b0319169055565b6110086119c5565b6065546001600160a01b039081169116146110355760405162461bcd60e51b8152600401610475906145df565b6000841561106a576001600160a01b03881660009081526098602052604090206110639088888787876123da565b9050611093565b6001600160a01b03881660009081526097602052604090206110909088888787876123da565b90505b856001600160a01b0316876001600160a01b0316896001600160a01b03167f0ee63f5b7633ec1ad321f6f89b83ec0993c2cc680112d7b153759242a655ed438888886040516110e493929190614237565b60405180910390a4856001600160a01b0316876001600160a01b0316896001600160a01b03167f5030027163f1655f8ac4c205c22bfe42c59f83e61a7c15da775499920b2143148885888860405161113f949392919061428a565b60405180910390a45050505050505050565b6065546001600160a01b031690565b6001600160a01b03831660009081526099602052604081208190819081906111899087876124ed565b805460019091015490986001600160701b0382169850600160e01b90910463ffffffff169650945050505050565b6001600160a01b0384166111ca5761061c565b60006111d46119c5565b90506000826001600160a01b03166318160ddd6040518163ffffffff1660e01b815260040160206040518083038186803b15801561121157600080fd5b505afa158015611225573d6000803e3d6000fd5b505050506040513d601f19601f820116820180604052508101906112499190614121565b90506000836001600160a01b03166370a08231886040518263ffffffff1660e01b81526004016112799190614139565b60206040518083038186803b15801561129157600080fd5b505afa1580156112a5573d6000803e3d6000fd5b505050506040513d601f19601f820116820180604052508101906112c99190614121565b905060606112d78486611e9d565b6001600160a01b038516600090815260996020526040902090915061130190858786610bb5611ece565b61130e84868a85856119c9565b6001600160a01b038716156113ab576040516370a0823160e01b81526000906001600160a01b038716906370a082319061134c908b90600401614139565b60206040518083038186803b15801561136457600080fd5b505afa158015611378573d6000803e3d6000fd5b505050506040513d601f19601f8201168201806040525081019061139c9190614121565b9050610c5b85878a84866119c9565b5050505050505050565b60006113bf611ece565b905060005b82518110156114a5576113d561385a565b8382815181106113e157fe5b6020026020010151905061149c6099600083600001516001600160a01b03166001600160a01b031681526020019081526020016000208260000151836020015184602001516001600160a01b03166318160ddd6040518163ffffffff1660e01b815260040160206040518083038186803b15801561145e57600080fd5b505afa158015611472573d6000803e3d6000fd5b505050506040513d601f19601f820116820180604052508101906114969190614121565b87611ed2565b506001016113c4565b505050565b6114b26119c5565b6065546001600160a01b039081169116146114df5760405162461bcd60e51b8152600401610475906145df565b821561150f576001600160a01b038616600090815260986020526040902061150a9086868585612519565b611534565b6001600160a01b03861660009081526097602052604090206115349086868585612519565b836001600160a01b0316856001600160a01b0316876001600160a01b03167f401facfe78ba5adec5aae1404afebf8e3a77cb5dfdf5b4b611504d626d9a2ed586868660405161158593929190614237565b60405180910390a4505050505050565b6060806116288787808060200260200160405190810160405280939291908181526020016000905b828210156115e9576115da60408302860136819003810190614106565b815260200190600101906115bd565b50505050508686868080602002602001604051908101604052809392919081815260200183836020028082843760009201919091525061090392505050565b90506116678585858080602002602001604051908101604052809392919081815260200183836020028082843760009201919091525061171092505050565b9695505050505050565b600081156116a3576001600160a01b038516600090815260986020526040902061169c908585612589565b90506116c6565b6001600160a01b038516600090815260976020526040902061169c908585612589565b949350505050565b6116d66119c5565b6065546001600160a01b039081169116146117035760405162461bcd60e51b8152600401610475906145df565b61067f85858585856125ab565b60005b81518110156114a5576117958383838151811061172c57fe5b6020026020010151609b600086868151811061174457fe5b60200260200101516001600160a01b03166001600160a01b031681526020019081526020016000206000876001600160a01b03166001600160a01b03168152602001908152602001600020546106e0565b600101611713565b6001600160a01b03821660009081526099602052604090206060906117c29083611b4d565b90505b92915050565b6001600160a01b038082166000908152609b602090815260408083209386168352929052205492915050565b606080825167ffffffffffffffff8111801561181257600080fd5b5060405190808252806020026020018201604052801561184c57816020015b61183961385a565b8152602001906001900390816118315790505b50905060005b835181101561190657604051806040016040528085838151811061187257fe5b60200260200101516001600160a01b03168152602001609b600087858151811061189857fe5b60200260200101516001600160a01b03166001600160a01b031681526020019081526020016000206000886001600160a01b03166001600160a01b03168152602001908152602001600020548152508282815181106118f357fe5b6020908102919091010152600101611852565b509392505050565b6119166119c5565b6065546001600160a01b039081169116146119435760405162461bcd60e51b8152600401610475906145df565b6001600160a01b0381166119695760405162461bcd60e51b8152600401610475906143df565b6065546040516001600160a01b038084169216907f8be0079c531659141344cd1fd0a4f28419497f9722a3daafe3b4186f6b6457e090600090a3606580546001600160a01b0319166001600160a01b0392909216919091179055565b3390565b60005b8151811015611a515760008282815181106119e357fe5b6020908102919091018101516001600160a01b03808a1660009081526099845260408082208b841683526001908101865281832093851683529290945292909220918201549092506001600160701b031615611a4757611a47818989858a8a61265a565b50506001016119cc565b505050505050565b60005b8151811015611a51576000828281518110611a7357fe5b6020908102919091018101516001600160a01b03808a1660009081526097845260408082208b841683526001018552808220928416825291909352822090925090611ac79082908a908a9086908b8b6126e4565b5050600101611a5c565b60005b8151811015611a51576000828281518110611aeb57fe5b6020908102919091018101516001600160a01b03808a1660009081526098845260408082208b84168352600190810186528183209385168352929094529290922090925090611b439082908a908a9086908b8b6126e4565b5050600101611ad4565b6001600160a01b03811660009081526020839052604090206060906117c290612756565b60006117c283836040518060400160405280601e81526020017f536166654d6174683a207375627472616374696f6e206f766572666c6f770000815250612836565b6001600160a01b0382166000908152602085905260408120611bd490612862565b90506000611be0611ece565b6001600160a01b038516600090815260208890526040812091925090611c0590612868565b90505b6001600160a01b03811615801590611c5257506001600160a01b0385166000908152602088905260409020611c3c90612862565b6001600160a01b0316816001600160a01b031614155b15611e94576001600160a01b0380861660009081526001890160209081526040808320938516835292905290812090611c8a83612082565b600383015490915063ffffffff600160701b909104811690600090611cb59085908890869061288516565b600385015490915063ffffffff838116600160701b9092041614611e4b5763ffffffff82166000908152600185016020526040908190205490516001600160a01b03808816928c821692918e16917f5af66de08c3f6079fb9df0df086b4866eef80830affd2db8a278a87a3c98317891611d40918e9189916001600160701b0390911690899061425e565b60405180910390a4846001600160a01b0316896001600160a01b03168b6001600160a01b03167f5030027163f1655f8ac4c205c22bfe42c59f83e61a7c15da775499920b2143148b88600301600e9054906101000a900463ffffffff168960010160008b600301600e9054906101000a900463ffffffff1663ffffffff1663ffffffff168152602001908152602001600020600001600e9054906101000a90046001600160701b03168a60010160008c600301600e9054906101000a900463ffffffff1663ffffffff1663ffffffff168152602001908152602001600020600001601c9054906101000a900463ffffffff16604051611e42949392919061428a565b60405180910390a45b8083148015611e6157611e618b8b888c8c6125ab565b6001600160a01b038a16600090815260208d9052604090209597508795611e8890876128ab565b95505050505050611c08565b50505050505050565b6001600160a01b0380831660009081526099602090815260408083209385168352929052206060906117c290612756565b4290565b6001600160a01b0383166000908152602086905260408120611ef390612862565b6001600160a01b038516600090815260208890526040812091925090611f1890612868565b90505b6001600160a01b03811615801590611f6557506001600160a01b0385166000908152602088905260409020611f4f90612862565b6001600160a01b0316816001600160a01b031614155b15611e94576001600160a01b0380861660009081526001890160209081526040808320938516835292905290812090611f9d83612082565b90506000611fad838888856128ce565b90508181148015611fc457611fc48a8a878961234e565b6001600160a01b038916600090815260208c9052604090209495508594611feb90866128ab565b945050505050611f1b565b6001600160a01b0380831660009081526097602090815260408083209385168352929052206060906117c290612756565b6001600160a01b0380831660009081526098602090815260408083209385168352929052206060906117c290612756565b6000640100000000821061207e5760405162461bcd60e51b8152600401610475906146aa565b5090565b600080826001600160a01b03166370a08231306040518263ffffffff1660e01b81526004016120b19190614139565b60206040518083038186803b1580156120c957600080fd5b505afa1580156120dd573d6000803e3d6000fd5b505050506040513d601f19601f820116820180604052508101906121019190614121565b6001600160a01b0384166000908152609a602052604090205490915081811061212b5760006116c6565b6116c68282611b71565b6001600160a01b03851660009081526020879052604090206121579085612a7e565b6121735760405162461bcd60e51b81526004016104759061455c565b612220856001600160a01b03166318160ddd6040518163ffffffff1660e01b815260040160206040518083038186803b1580156121af57600080fd5b505afa1580156121c3573d6000803e3d6000fd5b505050506040513d601f19601f820116820180604052508101906121e79190614121565b6001600160a01b03808816600090815260018a0160209081526040808320938a168352929052209063ffffffff8086169085906128ce16565b5050506001600160a01b03928316600090815260019094016020908152604080862093909416855291909152912055565b6001600160a01b03831660009081526020859052604090206122739083612a7e565b156122905760405162461bcd60e51b81526004016104759061430c565b6001600160a01b0383166000908152602085905260409020546122ce576001600160a01b03831660009081526020859052604090206122ce90612acf565b6001600160a01b03831660009081526020859052604090206122f09083612b13565b6001600160a01b038084166000908152600186016020908152604080832093861683529290522061232090612bdb565b6001600160a01b03928316600090815260019094016020908152604080862093909416855291909152912055565b61238a83838361235f610cac611ece565b61236887612082565b6001600160a01b038a1660009081526099602052604090209493929190612bf1565b816001600160a01b0316836001600160a01b0316856001600160a01b03167fbbd41ee308597dd699317716979d8ce8edde7cdde9471c26bfab7752e1186c9460405160405180910390a450505050565b6001600160a01b03851660009081526020879052604081206123fc9086612a7e565b156124195760405162461bcd60e51b815260040161047590614727565b6001600160a01b038616600090815260208890526040902054612457576001600160a01b038616600090815260208890526040902061245790612acf565b6001600160a01b03861660009081526020889052604090206124799086612b13565b6001600160a01b03808716600090815260018901602090815260408083209389168352929052206124ac90858585612c80565b505050506001600160a01b0391821660009081526001939093016020908152604080852092909316845252902060030154600160701b900463ffffffff1690565b6001600160a01b0391821660009081526001939093016020908152604080852092909316845252902090565b6001600160a01b038416600090815260208690526040902061253b9084612a7e565b6125575760405162461bcd60e51b81526004016104759061451b565b6001600160a01b038085166000908152600187016020908152604080832093871683529290522061067f908383612dcc565b6001600160a01b03821660009081526020849052604081206116c69083612a7e565b81156125da576001600160a01b03851660009081526098602052604090206125d590858584612e3b565b6125fe565b6001600160a01b03851660009081526097602052604090206125fe90858584612e3b565b826001600160a01b0316846001600160a01b0316866001600160a01b03167f9684c938581734d57a998217c38505f0c4fc95afd0af9da2c97b9822ee7a66c88560405161264b919061420b565b60405180910390a45050505050565b6000612667878484612e5e565b6001600160801b031690508015611e9457612683848483612e6b565b50836001600160a01b0316856001600160a01b0316876001600160a01b03167f782be3085b3ef7b927740f3ed02f7393ee3f20b8fe87595484dbf65c5be4230d86856040516126d392919061414d565b60405180910390a450505050505050565b60006126f1888484612f5d565b905080156113ab57612704858483612e6b565b50846001600160a01b0316866001600160a01b0316886001600160a01b03167f06c65e2aee0f9ad46bde72ca6800e5b29333356dc073eba0e3995ffc980148f787878660405161113f93929190614216565b606080826000015467ffffffffffffffff8111801561277457600080fd5b5060405190808252806020026020018201604052801561279e578160200160208202803683370190505b50600160008181529085016020526040812054919250906001600160a01b03165b6001600160a01b038116158015906127e157506001600160a01b038116600114155b1561282d57808383815181106127f357fe5b6001600160a01b039283166020918202929092018101919091529181166000908152600180880190935260409020549290910191166127bf565b50909392505050565b6000818484111561285a5760405162461bcd60e51b815260040161047591906142b9565b505050900390565b50600190565b60016000818152910160205260409020546001600160a01b031690565b6000612891848461316b565b156128a1576106b08484846131a1565b5060009392505050565b6001600160a01b0380821660009081526001840160205260409020541692915050565b600184015460009063ffffffff848116600160e01b9092041614156128f5575060006116c6565b6001850154600090600160e01b900463ffffffff1615612926576001860154600160e01b900463ffffffff16612928565b835b905060006129368583611b71565b60018801549091506000906001600160701b0316156129625760018801546001600160701b0316612973565b612973670de0b6b3a7640000613471565b9050600080831180156129865750885415155b156129e0578854612998908490613496565b9050858111156129a55750845b60008089116129b55760006129bf565b6129bf828a6134d0565b90506129dc6129d76001600160701b038516836134f1565b613471565b9250505b6001890180546001600160701b0319166001600160701b038481169190911791829055612a1a916129d791600160701b90910416836134f1565b89600101600e6101000a8154816001600160701b0302191690836001600160701b03160217905550612a4b87612058565b60018a01805463ffffffff92909216600160e01b026001600160e01b039092169190911790559350505050949350505050565b60006001600160a01b038216600114801590612aa257506001600160a01b03821615155b80156117c25750506001600160a01b03908116600090815260019290920160205260409091205416151590565b805415612aee5760405162461bcd60e51b815260040161047590614614565b60016000818152918101602052604090912080546001600160a01b0319169091179055565b6001600160a01b038116600114801590612b3557506001600160a01b03811615155b612b515760405162461bcd60e51b815260040161047590614389565b6001600160a01b0381811660009081526001840160205260409020541615612b8b5760405162461bcd60e51b815260040161047590614683565b60016000818152838201602052604080822080546001600160a01b039586168085529284208054969091166001600160a01b03199687161790559183905281549093169092179091558154019055565b6001018054600160701b600160e01b0319169055565b6001600160a01b0385166000908152602087905260409020612c14908486613516565b612c50856001600160a01b03166318160ddd6040518163ffffffff1660e01b815260040160206040518083038186803b1580156121af57600080fd5b505050506001600160a01b0391821660009081526001939093016020908152604080852092909316845252812055565b8263ffffffff1660008111612ca75760405162461bcd60e51b815260040161047590614425565b60028501805463ffffffff191663ffffffff86811691909117640100000000600160901b0319166401000000006001600160701b03871602179091556003860180546001600160701b03191690819055612d1791612d1291600160701b90048116906001906134f116565b6135e0565b60038601805463ffffffff60701b191661ffff92909216600160701b90810292909217908190556040805160608101825260008082526001600160701b03978816602080840191825263ffffffff98891684860190815295879004891683526001909b01909a529190912090518154985192516001600160701b031990991690871617600160701b600160e01b03191691909516909102176001600160e01b0316600160e01b95909216949094021790555050565b8163ffffffff1660008111612df35760405162461bcd60e51b815260040161047590614425565b50600290920180546001600160701b0390931664010000000002640100000000600160901b031963ffffffff90931663ffffffff199094169390931791909116919091179055565b6001600160a01b038316600090815260208590526040902061061c908284613516565b60006116c6848484613604565b600080612e7785612082565b90506000818411612e885783612e8a565b815b6001600160a01b0387166000908152609a6020526040902054909150612eb090826134f1565b6001600160a01b038088166000908152609a6020908152604080832094909455609b81528382209289168252919091522054612eec90826134f1565b6001600160a01b038088166000818152609b60209081526040808320948b1680845294909152908190209390935591519091907f0f3ed8b918f23095606f705f6253b10267861573421cf05301b0f1f006c92b4490612f4c908590614787565b60405180910390a395945050505050565b6003830154600090600160701b900463ffffffff16612f7e575060006106d9565b6001600160a01b038316600090815260208590526040812054612fb990869063ffffffff600160701b820416906001600160701b03166136e4565b6003860154909150600160701b900463ffffffff168115613054576040518060400160405280612fe886613471565b6001600160701b03908116825263ffffffff8085166020938401526001600160a01b03891660009081528a845260409020845181549590940151909116600160701b0263ffffffff60701b19939092166001600160701b031990941693909317919091161790556130f7565b6040805180820182526001600160a01b038716600090815260208990529190912054819061308f906129d7906001600160701b0316886134f1565b6001600160701b03908116825263ffffffff8085166020938401526001600160a01b03891660009081528a845260409020845181549590940151909116600160701b0263ffffffff60701b19939092166001600160701b031990941693909317919091161790555b63ffffffff808216600090815260018801602052604090205461312a916129d7916001600160701b03169087906134f116565b63ffffffff9091166000908152600187016020526040902080546001600160701b03929092166001600160701b031990921691909117905590509392505050565b600382015463ffffffff600160701b90910481166000908152600184016020526040902054600160e01b90041681101592915050565b600083836131af828261316b565b6131cb5760405162461bcd60e51b8152600401610475906146f0565b6003860154600160701b900463ffffffff1660009081526001870160205260408120546001600160701b03161561322d57506003860154600160701b9081900463ffffffff166000908152600188016020526040902054046001600160701b03165b84816001600160701b031611156132905761324785613471565b6003880154600160701b9081900463ffffffff16600090815260018a01602052604090208054600160701b600160e01b0319166001600160701b03841690920291909117905590505b600387015463ffffffff600160701b909104811660009081526001808a01602052604082205460028b0154600160e01b9091048416936132ed92916132e791908116906132e1908d908890611b7116565b9061379b565b906134f1565b60028a01549091506000906133189061331190849063ffffffff9081169061349616565b84906134f1565b60038b015490915061333b906129d7906001600160701b039081169087166134f1565b60038b0180546001600160701b0319166001600160701b0392909216919091179081905561338090612d1290600160701b900463ffffffff908116906001906134f116565b60038b01805463ffffffff60701b191661ffff92909216600160701b02919091179055604080516060810182526000815260028c01546001600160701b036401000000009091041660208201529081016133d983612058565b63ffffffff90811690915260038c0154600160701b908190048216600090815260018e01602090815260409182902085518154928701519690930151909416600160e01b026001600160e01b036001600160701b03968716909402600160701b600160e01b03199387166001600160701b03199093169290921792909216179190911617905593909316955050505050509392505050565b6000600160701b821061207e5760405162461bcd60e51b81526004016104759061463a565b6000826134a5575060006117c5565b828202828482816134b257fe5b04146117c25760405162461bcd60e51b81526004016104759061459e565b6000806134e584670de0b6b3a7640000613496565b90506116c6818461379b565b6000828201838110156117c25760405162461bcd60e51b81526004016104759061445c565b6001600160a01b03811660011480159061353857506001600160a01b03811615155b6135545760405162461bcd60e51b815260040161047590614389565b6001600160a01b0382811660009081526001850160205260409020548116908216146135925760405162461bcd60e51b8152600401610475906143b2565b6001600160a01b039081166000818152600185016020526040808220805495851683529082208054959094166001600160a01b03199586161790935552805490911690558054600019019055565b600062010000821061207e5760405162461bcd60e51b815260040161047590614343565b6001600160a01b0382166000908152600284016020526040812080546001600160801b03168061364b5761363f670de0b6b3a7640000613471565b6001600160701b031690505b6001860154600090613666906001600160701b031683611b71565b9050600061367c61367787846137dd565b6137fe565b604080516020808201835260018c01546001600160701b031682526001600160a01b039a909a1660009081526002909b01909952909820965187546fffffffffffffffffffffffffffffffff19166001600160801b0390911617909655509495945050505050565b6003830154600090819063ffffffff600160701b909104811690851610801561372c575063ffffffff841660009081526001860160205260409020546001600160701b031615155b156116c65763ffffffff84166000908152600186016020526040812054613766906001600160801b038616906001600160701b03166134d0565b63ffffffff8616600090815260018801602052604090205490915061166790600160701b90046001600160701b0316826137dd565b60006117c283836040518060400160405280601a81526020017f536166654d6174683a206469766973696f6e206279207a65726f000000000000815250613823565b6000806137ea8385613496565b90506116c681670de0b6b3a764000061379b565b6000600160801b821061207e5760405162461bcd60e51b815260040161047590614493565b600081836138445760405162461bcd60e51b815260040161047591906142b9565b50600083858161385057fe5b0495945050505050565b604080518082019091526000808252602082015290565b604080516060810182526000808252602082018190529181019190915290565b6040805160a08101825260008082526020820181905291810182905260608101829052608081019190915290565b80356001600160a01b03811681146117c557600080fd5b600082601f8301126138e6578081fd5b81356138f96138f4826147f2565b6147cb565b81815291506020808301908481018184028601820187101561391a57600080fd5b60005b848110156139415761392f88836138bf565b8452928201929082019060010161391d565b505050505092915050565b600082601f83011261395c578081fd5b813561396a6138f4826147f2565b818152915060208083019084810160408085028701830188101561398d57600080fd5b60005b858110156139b4576139a289846139c0565b85529383019391810191600101613990565b50505050505092915050565b6000604082840312156139d1578081fd5b6139db60406147cb565b90506139e783836138bf565b81526139f683602084016138bf565b602082015292915050565b600060208284031215613a12578081fd5b6117c283836138bf565b60008060408385031215613a2e578081fd5b613a3884846138bf565b9150613a4784602085016138bf565b90509250929050565b600080600060608486031215613a64578081fd5b613a6e85856138bf565b9250613a7d85602086016138bf565b9150613a8c85604086016138bf565b90509250925092565b60008060008060808587031215613aaa578081fd5b613ab486866138bf565b9350613ac386602087016138bf565b9250613ad286604087016138bf565b9150613ae186606087016138bf565b905092959194509250565b60008060008060808587031215613b01578384fd5b613b0b86866138bf565b9350613b1a86602087016138bf565b9250613b2986604087016138bf565b91506060850135613b398161482a565b939692955090935050565b600080600080600060a08688031215613b5b578081fd5b613b6587876138bf565b9450613b7487602088016138bf565b9350613b8387604088016138bf565b92506060860135613b938161482a565b9150613ba287608088016138bf565b90509295509295909350565b600080600080600060a08688031215613bc5578081fd5b613bcf87876138bf565b9450613bde87602088016138bf565b9350613bed87604088016138bf565b92506060860135613bfd8161482a565b9150608086013561ffff81168114613c13578182fd5b809150509295509295909350565b60008060008060008060c08789031215613c39578384fd5b8635613c4481614812565b95506020870135613c5481614812565b94506040870135613c6481614812565b93506060870135613c748161482a565b92506080870135613c8481614838565b915060a08701356001600160701b0381168114613c9f578182fd5b809150509295509295509295565b600080600080600080600060e0888a031215613cc7578485fd5b8735613cd281614812565b96506020880135613ce281614812565b95506040880135613cf281614812565b94506060880135613d028161482a565b93506080880135613d1281614838565b925060a08801356001600160701b0381168114613d2d578182fd5b915060c0880135613d3d81614838565b8091505092959891949750929550565b60008060008060808587031215613d62578182fd5b8435613d6d81614812565b93506020850135613d7d81614812565b92506040850135613d8d81614812565b9396929550929360600135925050565b600080600060608486031215613db1578081fd5b8335613dbc81614812565b92506020840135613dcc81614812565b91506040840135613ddc8161482a565b809150509250925092565b600080600060608486031215613dfb578081fd5b8335613e0681614812565b92506020840135613e1681614812565b929592945050506040919091013590565b60008060008060808587031215613e3c578182fd5b8435613e4781614812565b93506020850135613e5781614812565b9250604085013591506060850135613b3981614812565b60008060408385031215613e80578182fd5b613e8a84846138bf565b9150602083013567ffffffffffffffff811115613ea5578182fd5b613eb1858286016138d6565b9150509250929050565b60008060008060808587031215613ed0578182fd5b613eda86866138bf565b935060208501359250613ad286604087016138bf565b600080600080600060608688031215613f07578283fd5b853567ffffffffffffffff80821115613f1e578485fd5b818801915088601f830112613f31578485fd5b813581811115613f3f578586fd5b60208a81604084028601011115613f54578687fd5b8084019850819750613f688b828c016138bf565b965060408a0135935082841115613f7d578485fd5b838a0193508a601f850112613f90578485fd5b8335915082821115613fa0578485fd5b8a818284028601011115613fb2578485fd5b979a96995094975050909401935090919050565b600060208284031215613fd7578081fd5b813567ffffffffffffffff811115613fed578182fd5b6116c68482850161394c565b60008060006060848603121561400d578081fd5b833567ffffffffffffffff80821115614024578283fd5b6140308783880161394c565b945061403f87602088016138bf565b93506040860135915080821115614054578283fd5b50614061868287016138d6565b9150509250925092565b60008060008060808587031215614080578182fd5b843567ffffffffffffffff80821115614097578384fd5b6140a38883890161394c565b9550602087013591506140b582614812565b90935060408601359250606086013590808211156140d1578283fd5b506140de878288016138d6565b91505092959194509250565b6000602082840312156140fb578081fd5b81516117c28161482a565b600060408284031215614117578081fd5b6117c283836139c0565b600060208284031215614132578081fd5b5051919050565b6001600160a01b0391909116815260200190565b6001600160a01b03929092168252602082015260400190565b6020808252825182820181905260009190848201906040850190845b818110156141a75783516001600160a01b031683529284019291840191600101614182565b50909695505050505050565b602080825282518282018190526000919060409081850190868401855b828110156141fe57815180516001600160a01b031685528601518685015292840192908501906001016141d0565b5091979650505050505050565b901515815260200190565b92151583526001600160a01b03919091166020830152604082015260600190565b921515835263ffffffff9190911660208301526001600160701b0316604082015260600190565b931515845263ffffffff9290921660208401526001600160701b03166040830152606082015260800190565b931515845263ffffffff92831660208501526001600160701b0391909116604084015216606082015260800190565b6000602080835283518082850152825b818110156142e5578581018301518582016040015282016142c9565b818111156142f65783604083870101525b50601f01601f1916929092016040019392505050565b6020808252601e908201527f42616c616e6365447269704d616e616765722f647269702d6163746976650000604082015260600190565b60208082526026908201527f53616665436173743a2076616c756520646f65736e27742066697420696e203160408201526536206269747360d01b606082015260800190565b6020808252600f908201526e496e76616c6964206164647265737360881b604082015260600190565b602080825260139082015272496e76616c696420707265764164647265737360681b604082015260600190565b60208082526026908201527f4f776e61626c653a206e6577206f776e657220697320746865207a65726f206160408201526564647265737360d01b606082015260800190565b60208082526019908201527f566f6c756d65447269702f706572696f642d67742d7a65726f00000000000000604082015260600190565b6020808252601b908201527f536166654d6174683a206164646974696f6e206f766572666c6f770000000000604082015260600190565b60208082526027908201527f53616665436173743a2076616c756520646f65736e27742066697420696e20316040820152663238206269747360c81b606082015260800190565b60208082526021908201527f436f6d7074726f6c6c65722f636c61696d2d7472616e736665722d6661696c656040820152601960fa1b606082015260800190565b60208082526021908201527f566f6c756d65447269704d616e616765722f647269702d6e6f742d61637469766040820152606560f81b606082015260800190565b60208082526022908201527f42616c616e6365447269704d616e616765722f647269702d6e6f742d61637469604082015261766560f01b606082015260800190565b60208082526021908201527f536166654d6174683a206d756c7469706c69636174696f6e206f766572666c6f6040820152607760f81b606082015260800190565b6020808252818101527f4f776e61626c653a2063616c6c6572206973206e6f7420746865206f776e6572604082015260600190565b6020808252600c908201526b105b1c9958591e481a5b9a5d60a21b604082015260600190565b60208082526029908201527f53616665436173743a2076616c756520646f65736e27742066697420696e206160408201526837103ab4b73a18989960b91b606082015260800190565b6020808252600d908201526c105b1c9958591e481859191959609a1b604082015260600190565b60208082526026908201527f53616665436173743a2076616c756520646f65736e27742066697420696e203360408201526532206269747360d01b606082015260800190565b6020808252601a908201527f566f6c756d65447269702f706572696f642d6e6f742d6f766572000000000000604082015260600190565b6020808252601d908201527f566f6c756d65447269704d616e616765722f647269702d616374697665000000604082015260600190565b6001600160701b03938416815291909216602082015263ffffffff909116604082015260600190565b90815260200190565b9283526001600160801b0391909116602083015263ffffffff16604082015260600190565b9283526020830191909152604082015260600190565b60405181810167ffffffffffffffff811182821017156147ea57600080fd5b604052919050565b600067ffffffffffffffff821115614808578081fd5b5060209081020190565b6001600160a01b038116811461482757600080fd5b50565b801515811461482757600080fd5b63ffffffff8116811461482757600080fdfea2646970667358221220d0c45bc4dd32f0a168bbe85bc46031b6603c93ee01033928e431adc45e4e7d2664736f6c634300060c0033",
  "devdoc": {
    "kind": "dev",
    "methods": {
      "activateBalanceDrip(address,address,address,uint256)": {
        "params": {
          "dripRatePerSecond": "The amount of drip tokens that are awarded each second to the total supply of measure.",
          "dripToken": "The token that is dripped to users.",
          "measure": "The ERC20 token whose balances determines user's share of the drip rate.",
          "source": "The balance drip \"source\"; i.e. a Prize Pool address."
        }
      },
      "activateVolumeDrip(address,address,address,bool,uint32,uint112,uint32)": {
        "params": {
          "dripAmount": "The amount of dripTokens disbursed each period.",
          "dripToken": "The token that is being disbursed",
          "endTime": "The time at which the first period ends.",
          "isReferral": "Whether this volume drip is for referrals",
          "measure": "The Prize Pool controlled token whose volume should be measured",
          "periodSeconds": "The period of the volume drip, in seconds",
          "source": "The Prize Pool for which to bind to"
        }
      },
      "balanceOfDrip(address,address)": {
        "params": {
          "dripToken": "The token that is being disbursed",
          "user": "The user whose balance should be checked."
        },
        "returns": {
          "_0": "The claimable balance of the dripToken by the user."
        }
      },
      "beforeTokenMint(address,uint256,address,address)": {
        "params": {
          "amount": "The amount of tokens they are minting",
          "measure": "The measure token they are minting",
          "referrer": "The user who referred the minting.",
          "to": "The user who is minting the tokens"
        }
      },
      "beforeTokenTransfer(address,address,uint256,address)": {
        "params": {
          "from": "The user who is sending the tokens",
          "measure": "The measure token they are burning",
          "to": "The user who is receiving the tokens"
        }
      },
      "captureClaimsForBalanceDripsForPairs((address,address)[],address,address[])": {
        "params": {
          "dripTokens": "The drip tokens to retrieve claim balances for.",
          "pairs": "The (source, measure) pairs to update.  For each pair all of the balance drips, volume drips, and referral volume drips will be updated.",
          "user": "The user whose drips and balances will be updated."
        }
      },
      "claimDrip(address,address,uint256)": {
        "params": {
          "amount": "The amount of drip token to claim",
          "dripToken": "The drip token to claim",
          "user": "The user for whom to claim the drip tokens"
        }
      },
      "deactivateBalanceDrip(address,address,address,address)": {
        "params": {
          "dripToken": "The token that is dripped to users.",
          "measure": "The ERC20 token whose balances determines user's share of the drip rate.",
          "prevDripToken": "The previous drip token in the balance drip list.  If the dripToken is the first address, then the previous address is the SENTINEL address: 0x0000000000000000000000000000000000000001",
          "source": "The balance drip \"source\"; i.e. a Prize Pool address."
        }
      },
      "deactivateVolumeDrip(address,address,address,bool,address)": {
        "params": {
          "dripToken": "The token that is being disbursed",
          "isReferral": "Whether this volume drip is for referrals",
          "measure": "The Prize Pool controlled token whose volume should be measured",
          "prevDripToken": "The previous drip token in the volume drip list.  Is different for referrals vs non-referral volume drips.",
          "source": "The Prize Pool for which to bind to"
        }
      },
      "getActiveBalanceDripTokens(address,address)": {
        "params": {
          "measure": "The ERC20 token whose balances determines user's share of the drip rate.",
          "source": "The balance drip \"source\"; i.e. a Prize Pool address."
        },
        "returns": {
          "_0": "An array of active Balance Drip token addresses"
        }
      },
      "getActiveVolumeDripTokens(address,address,bool)": {
        "params": {
          "isReferral": "Whether this volume drip is a referral",
          "measure": "The ERC20 token whose volume determines user's share of the drip rate.",
          "source": "The volume drip \"source\"; i.e. a Prize Pool address."
        },
        "returns": {
          "_0": "An array of active Volume Drip token addresses"
        }
      },
      "getBalanceDrip(address,address,address)": {
        "params": {
          "dripToken": "The token that is being dripped to users",
          "measure": "The token that measure's a users share of the drip",
          "source": "The balance drip \"source\"; i.e. Prize Pool"
        },
        "returns": {
          "dripRatePerSecond": "The current drip rate of the balance drip.",
          "exchangeRateMantissa": "The current exchange rate from measure to dripTokens",
          "timestamp": "The timestamp at which the balance drip was last updated."
        }
      },
      "owner()": {
        "details": "Returns the address of the current owner."
      },
      "renounceOwnership()": {
        "details": "Leaves the contract without owner. It will not be possible to call `onlyOwner` functions anymore. Can only be called by the current owner. NOTE: Renouncing ownership will leave the contract without an owner, thereby removing any functionality that is only available to the owner."
      },
      "setBalanceDripRate(address,address,address,uint256)": {
        "params": {
          "dripRatePerSecond": "The new drip rate per second",
          "dripToken": "The token that is dripped to the user",
          "measure": "The token to use to measure a user's share of the drip rate",
          "source": "The balance drip \"source\"; i.e. Prize Pool"
        }
      },
      "setVolumeDrip(address,address,address,bool,uint32,uint112)": {
        "params": {
          "dripAmount": "The amount of tokens to drip for the next period",
          "dripToken": "The token that is being disbursed",
          "isReferral": "Whether this volume drip is a referral",
          "measure": "The token whose volume is being measured",
          "periodSeconds": "The length to use for the next period",
          "source": "The Prize Pool of the volume drip"
        }
      },
      "transferOwnership(address)": {
        "details": "Transfers ownership of the contract to a new account (`newOwner`). Can only be called by the current owner."
      },
      "updateAndClaimDrips((address,address)[],address,address[])": {
        "details": "This function will be useful to check the *current* claim balances for a user. Just need to run this as a constant function to see the latest balances. in order to claim the values, this function needs to be run alongside a claimDrip function.",
        "params": {
          "dripTokens": "The drip tokens whose entire balance will be claimed after the update.",
          "pairs": "The (source, measure) pairs of drips to update for the given user",
          "user": "The user for whom to update and claim tokens"
        },
        "returns": {
          "_0": "The claimable balance of each of the passed drip tokens for the user.  These are the post-update balances, and therefore the most accurate."
        }
      },
      "updateDrips((address,address)[],address,address[])": {
        "details": "This function will be useful to check the *current* claim balances for a user. Just need to run this as a constant function to see the latest balances. in order to claim the values, this function needs to be run alongside a claimDrip function.",
        "params": {
          "dripTokens": "The drip tokens whose entire balance will be claimed after the update.",
          "pairs": "The (source, measure) pairs of drips to update for the given user",
          "user": "The user for whom to update and claim tokens"
        },
        "returns": {
          "_0": "The claimable balance of each of the passed drip tokens for the user.  These are the post-update balances, and therefore the most accurate."
        }
      }
    },
    "title": "The Comptroller disburses rewards to pool users",
    "version": 1
  },
  "userdoc": {
    "events": {
      "BalanceDripActivated(address,address,address,uint256)": {
        "notice": "Emitted when a balance drip is actived"
      },
      "BalanceDripDeactivated(address,address,address)": {
        "notice": "Emitted when a balance drip is deactivated"
      },
      "BalanceDripDripped(address,address,address,address,uint256)": {
        "notice": "Emitted when a balance drip drips tokens"
      },
      "BalanceDripRateSet(address,address,address,uint256)": {
        "notice": "Emitted when a balance drip rate is updated"
      },
      "DripTokenClaimed(address,address,address,uint256)": {
        "notice": "Emitted when a user claims drip tokens"
      },
      "VolumeDripActivated(address,address,address,bool,uint256,uint256)": {
        "notice": "Emitted when a volume drip is activated"
      },
      "VolumeDripDeactivated(address,address,address,bool)": {
        "notice": "Emitted when a volume drip is deactivated."
      },
      "VolumeDripDripped(address,address,address,bool,address,uint256)": {
        "notice": "Emitted when a volue drip drips tokens"
      },
      "VolumeDripPeriodEnded(address,address,address,bool,uint32,uint256,uint256)": {
        "notice": "Emitted when a volume drip period has ended"
      },
      "VolumeDripPeriodStarted(address,address,address,bool,uint32,uint256,uint256)": {
        "notice": "Emitted when a new volume drip period has started"
      },
      "VolumeDripSet(address,address,address,bool,uint256,uint256)": {
        "notice": "Emitted when a volume drip is updated"
      }
    },
    "kind": "user",
    "methods": {
      "activateBalanceDrip(address,address,address,uint256)": {
        "notice": "Activates a balance drip.  Only callable by the owner."
      },
      "activateVolumeDrip(address,address,address,bool,uint32,uint112,uint32)": {
        "notice": "Activates a volume drip.  Volume drips distribute tokens to users based on their share of the activity within a period."
      },
      "balanceOfDrip(address,address)": {
        "notice": "Returns a users claimable balance of drip tokens.  This is the combination of all balance and volume drips."
      },
      "beforeTokenMint(address,uint256,address,address)": {
        "notice": "Called by a \"source\" (i.e. Prize Pool) when a user mints new \"measure\" tokens."
      },
      "beforeTokenTransfer(address,address,uint256,address)": {
        "notice": "Called by a \"source\" (i.e. Prize Pool) when tokens change hands or are burned"
      },
      "claimDrip(address,address,uint256)": {
        "notice": "Claims a drip token on behalf of a user.  If the passed amount is less than or equal to the users drip balance, then they will be transferred that amount.  Otherwise, it fails."
      },
      "constructor": "Initializes a new Comptroller.",
      "deactivateBalanceDrip(address,address,address,address)": {
        "notice": "Deactivates a balance drip.  Only callable by the owner."
      },
      "deactivateVolumeDrip(address,address,address,bool,address)": {
        "notice": "Deactivates a volume drip.  Volume drips distribute tokens to users based on their share of the activity within a period."
      },
      "getActiveBalanceDripTokens(address,address)": {
        "notice": "Gets a list of active balance drip tokens"
      },
      "getActiveVolumeDripTokens(address,address,bool)": {
        "notice": "Gets a list of active volume drip tokens"
      },
      "getBalanceDrip(address,address,address)": {
        "notice": "Returns the state of a balance drip."
      },
      "setBalanceDripRate(address,address,address,uint256)": {
        "notice": "Sets the drip rate for a balance drip.  The drip rate is the number of drip tokens given to the entire supply of measure tokens.  Only callable by the owner."
      },
      "setVolumeDrip(address,address,address,bool,uint32,uint112)": {
        "notice": "Sets the parameters for the *next* volume drip period.  The source, measure, dripToken and isReferral combined are used to uniquely identify a volume drip.  Only callable by the owner."
      },
      "updateAndClaimDrips((address,address)[],address,address[])": {
        "notice": "Updates the given drips for a user and then claims the given drip tokens.  This call will poke all of the drips and update the claim balances for the given user."
      },
      "updateDrips((address,address)[],address,address[])": {
        "notice": "Updates the given drips for a user and then claims the given drip tokens.  This call will poke all of the drips and update the claim balances for the given user."
      }
    },
    "version": 1
  },
  "storageLayout": {
    "storage": [
      {
        "astId": 678,
        "contract": "contracts/comptroller/Comptroller.sol:Comptroller",
        "label": "initialized",
        "offset": 0,
        "slot": "0",
        "type": "t_bool"
      },
      {
        "astId": 681,
        "contract": "contracts/comptroller/Comptroller.sol:Comptroller",
        "label": "initializing",
        "offset": 1,
        "slot": "0",
        "type": "t_bool"
      },
      {
        "astId": 746,
        "contract": "contracts/comptroller/Comptroller.sol:Comptroller",
        "label": "______gap",
        "offset": 0,
        "slot": "1",
        "type": "t_array(t_uint256)50_storage"
      },
      {
        "astId": 671,
        "contract": "contracts/comptroller/Comptroller.sol:Comptroller",
        "label": "__gap",
        "offset": 0,
        "slot": "51",
        "type": "t_array(t_uint256)50_storage"
      },
      {
        "astId": 758,
        "contract": "contracts/comptroller/Comptroller.sol:Comptroller",
        "label": "_owner",
        "offset": 0,
        "slot": "101",
        "type": "t_address"
      },
      {
        "astId": 876,
        "contract": "contracts/comptroller/Comptroller.sol:Comptroller",
        "label": "__gap",
        "offset": 0,
        "slot": "102",
        "type": "t_array(t_uint256)49_storage"
      },
      {
        "astId": 8778,
        "contract": "contracts/comptroller/Comptroller.sol:Comptroller",
        "label": "volumeDrips",
        "offset": 0,
        "slot": "151",
        "type": "t_mapping(t_address,t_struct(State)10159_storage)"
      },
      {
        "astId": 8782,
        "contract": "contracts/comptroller/Comptroller.sol:Comptroller",
        "label": "referralVolumeDrips",
        "offset": 0,
        "slot": "152",
        "type": "t_mapping(t_address,t_struct(State)10159_storage)"
      },
      {
        "astId": 8786,
        "contract": "contracts/comptroller/Comptroller.sol:Comptroller",
        "label": "balanceDrips",
        "offset": 0,
        "slot": "153",
        "type": "t_mapping(t_address,t_struct(State)9349_storage)"
      },
      {
        "astId": 8790,
        "contract": "contracts/comptroller/Comptroller.sol:Comptroller",
        "label": "dripTokenTotalSupply",
        "offset": 0,
        "slot": "154",
        "type": "t_mapping(t_address,t_uint256)"
      },
      {
        "astId": 8796,
        "contract": "contracts/comptroller/Comptroller.sol:Comptroller",
        "label": "dripTokenBalances",
        "offset": 0,
        "slot": "155",
        "type": "t_mapping(t_address,t_mapping(t_address,t_uint256))"
      }
    ],
    "types": {
      "t_address": {
        "encoding": "inplace",
        "label": "address",
        "numberOfBytes": "20"
      },
      "t_array(t_uint256)49_storage": {
        "base": "t_uint256",
        "encoding": "inplace",
        "label": "uint256[49]",
        "numberOfBytes": "1568"
      },
      "t_array(t_uint256)50_storage": {
        "base": "t_uint256",
        "encoding": "inplace",
        "label": "uint256[50]",
        "numberOfBytes": "1600"
      },
      "t_bool": {
        "encoding": "inplace",
        "label": "bool",
        "numberOfBytes": "1"
      },
      "t_mapping(t_address,t_address)": {
        "encoding": "mapping",
        "key": "t_address",
        "label": "mapping(address => address)",
        "numberOfBytes": "32",
        "value": "t_address"
      },
      "t_mapping(t_address,t_mapping(t_address,t_struct(State)9077_storage))": {
        "encoding": "mapping",
        "key": "t_address",
        "label": "mapping(address => mapping(address => struct BalanceDrip.State))",
        "numberOfBytes": "32",
        "value": "t_mapping(t_address,t_struct(State)9077_storage)"
      },
      "t_mapping(t_address,t_mapping(t_address,t_struct(State)9639_storage))": {
        "encoding": "mapping",
        "key": "t_address",
        "label": "mapping(address => mapping(address => struct VolumeDrip.State))",
        "numberOfBytes": "32",
        "value": "t_mapping(t_address,t_struct(State)9639_storage)"
      },
      "t_mapping(t_address,t_mapping(t_address,t_uint256))": {
        "encoding": "mapping",
        "key": "t_address",
        "label": "mapping(address => mapping(address => uint256))",
        "numberOfBytes": "32",
        "value": "t_mapping(t_address,t_uint256)"
      },
      "t_mapping(t_address,t_struct(Deposit)9613_storage)": {
        "encoding": "mapping",
        "key": "t_address",
        "label": "mapping(address => struct VolumeDrip.Deposit)",
        "numberOfBytes": "32",
        "value": "t_struct(Deposit)9613_storage"
      },
      "t_mapping(t_address,t_struct(Mapping)19945_storage)": {
        "encoding": "mapping",
        "key": "t_address",
        "label": "mapping(address => struct MappedSinglyLinkedList.Mapping)",
        "numberOfBytes": "32",
        "value": "t_struct(Mapping)19945_storage"
      },
      "t_mapping(t_address,t_struct(State)10159_storage)": {
        "encoding": "mapping",
        "key": "t_address",
        "label": "mapping(address => struct VolumeDripManager.State)",
        "numberOfBytes": "32",
        "value": "t_struct(State)10159_storage"
      },
      "t_mapping(t_address,t_struct(State)9077_storage)": {
        "encoding": "mapping",
        "key": "t_address",
        "label": "mapping(address => struct BalanceDrip.State)",
        "numberOfBytes": "32",
        "value": "t_struct(State)9077_storage"
      },
      "t_mapping(t_address,t_struct(State)9349_storage)": {
        "encoding": "mapping",
        "key": "t_address",
        "label": "mapping(address => struct BalanceDripManager.State)",
        "numberOfBytes": "32",
        "value": "t_struct(State)9349_storage"
      },
      "t_mapping(t_address,t_struct(State)9639_storage)": {
        "encoding": "mapping",
        "key": "t_address",
        "label": "mapping(address => struct VolumeDrip.State)",
        "numberOfBytes": "32",
        "value": "t_struct(State)9639_storage"
      },
      "t_mapping(t_address,t_struct(UserState)9064_storage)": {
        "encoding": "mapping",
        "key": "t_address",
        "label": "mapping(address => struct BalanceDrip.UserState)",
        "numberOfBytes": "32",
        "value": "t_struct(UserState)9064_storage"
      },
      "t_mapping(t_address,t_uint256)": {
        "encoding": "mapping",
        "key": "t_address",
        "label": "mapping(address => uint256)",
        "numberOfBytes": "32",
        "value": "t_uint256"
      },
      "t_mapping(t_uint32,t_struct(Period)9620_storage)": {
        "encoding": "mapping",
        "key": "t_uint32",
        "label": "mapping(uint32 => struct VolumeDrip.Period)",
        "numberOfBytes": "32",
        "value": "t_struct(Period)9620_storage"
      },
      "t_struct(Deposit)9613_storage": {
        "encoding": "inplace",
        "label": "struct VolumeDrip.Deposit",
        "members": [
          {
            "astId": 9610,
            "contract": "contracts/comptroller/Comptroller.sol:Comptroller",
            "label": "balance",
            "offset": 0,
            "slot": "0",
            "type": "t_uint112"
          },
          {
            "astId": 9612,
            "contract": "contracts/comptroller/Comptroller.sol:Comptroller",
            "label": "period",
            "offset": 14,
            "slot": "0",
            "type": "t_uint32"
          }
        ],
        "numberOfBytes": "32"
      },
      "t_struct(Mapping)19945_storage": {
        "encoding": "inplace",
        "label": "struct MappedSinglyLinkedList.Mapping",
        "members": [
          {
            "astId": 19940,
            "contract": "contracts/comptroller/Comptroller.sol:Comptroller",
            "label": "count",
            "offset": 0,
            "slot": "0",
            "type": "t_uint256"
          },
          {
            "astId": 19944,
            "contract": "contracts/comptroller/Comptroller.sol:Comptroller",
            "label": "addressMap",
            "offset": 0,
            "slot": "1",
            "type": "t_mapping(t_address,t_address)"
          }
        ],
        "numberOfBytes": "64"
      },
      "t_struct(Period)9620_storage": {
        "encoding": "inplace",
        "label": "struct VolumeDrip.Period",
        "members": [
          {
            "astId": 9615,
            "contract": "contracts/comptroller/Comptroller.sol:Comptroller",
            "label": "totalSupply",
            "offset": 0,
            "slot": "0",
            "type": "t_uint112"
          },
          {
            "astId": 9617,
            "contract": "contracts/comptroller/Comptroller.sol:Comptroller",
            "label": "dripAmount",
            "offset": 14,
            "slot": "0",
            "type": "t_uint112"
          },
          {
            "astId": 9619,
            "contract": "contracts/comptroller/Comptroller.sol:Comptroller",
            "label": "endTime",
            "offset": 28,
            "slot": "0",
            "type": "t_uint32"
          }
        ],
        "numberOfBytes": "32"
      },
      "t_struct(State)10159_storage": {
        "encoding": "inplace",
        "label": "struct VolumeDripManager.State",
        "members": [
          {
            "astId": 10152,
            "contract": "contracts/comptroller/Comptroller.sol:Comptroller",
            "label": "activeVolumeDrips",
            "offset": 0,
            "slot": "0",
            "type": "t_mapping(t_address,t_struct(Mapping)19945_storage)"
          },
          {
            "astId": 10158,
            "contract": "contracts/comptroller/Comptroller.sol:Comptroller",
            "label": "volumeDrips",
            "offset": 0,
            "slot": "1",
            "type": "t_mapping(t_address,t_mapping(t_address,t_struct(State)9639_storage))"
          }
        ],
        "numberOfBytes": "64"
      },
      "t_struct(State)9077_storage": {
        "encoding": "inplace",
        "label": "struct BalanceDrip.State",
        "members": [
          {
            "astId": 9066,
            "contract": "contracts/comptroller/Comptroller.sol:Comptroller",
            "label": "dripRatePerSecond",
            "offset": 0,
            "slot": "0",
            "type": "t_uint256"
          },
          {
            "astId": 9068,
            "contract": "contracts/comptroller/Comptroller.sol:Comptroller",
            "label": "exchangeRateMantissa",
            "offset": 0,
            "slot": "1",
            "type": "t_uint112"
          },
          {
            "astId": 9070,
            "contract": "contracts/comptroller/Comptroller.sol:Comptroller",
            "label": "totalDripped",
            "offset": 14,
            "slot": "1",
            "type": "t_uint112"
          },
          {
            "astId": 9072,
            "contract": "contracts/comptroller/Comptroller.sol:Comptroller",
            "label": "timestamp",
            "offset": 28,
            "slot": "1",
            "type": "t_uint32"
          },
          {
            "astId": 9076,
            "contract": "contracts/comptroller/Comptroller.sol:Comptroller",
            "label": "userStates",
            "offset": 0,
            "slot": "2",
            "type": "t_mapping(t_address,t_struct(UserState)9064_storage)"
          }
        ],
        "numberOfBytes": "96"
      },
      "t_struct(State)9349_storage": {
        "encoding": "inplace",
        "label": "struct BalanceDripManager.State",
        "members": [
          {
            "astId": 9342,
            "contract": "contracts/comptroller/Comptroller.sol:Comptroller",
            "label": "activeBalanceDrips",
            "offset": 0,
            "slot": "0",
            "type": "t_mapping(t_address,t_struct(Mapping)19945_storage)"
          },
          {
            "astId": 9348,
            "contract": "contracts/comptroller/Comptroller.sol:Comptroller",
            "label": "balanceDrips",
            "offset": 0,
            "slot": "1",
            "type": "t_mapping(t_address,t_mapping(t_address,t_struct(State)9077_storage))"
          }
        ],
        "numberOfBytes": "64"
      },
      "t_struct(State)9639_storage": {
        "encoding": "inplace",
        "label": "struct VolumeDrip.State",
        "members": [
          {
            "astId": 9624,
            "contract": "contracts/comptroller/Comptroller.sol:Comptroller",
            "label": "deposits",
            "offset": 0,
            "slot": "0",
            "type": "t_mapping(t_address,t_struct(Deposit)9613_storage)"
          },
          {
            "astId": 9628,
            "contract": "contracts/comptroller/Comptroller.sol:Comptroller",
            "label": "periods",
            "offset": 0,
            "slot": "1",
            "type": "t_mapping(t_uint32,t_struct(Period)9620_storage)"
          },
          {
            "astId": 9630,
            "contract": "contracts/comptroller/Comptroller.sol:Comptroller",
            "label": "nextPeriodSeconds",
            "offset": 0,
            "slot": "2",
            "type": "t_uint32"
          },
          {
            "astId": 9632,
            "contract": "contracts/comptroller/Comptroller.sol:Comptroller",
            "label": "nextDripAmount",
            "offset": 4,
            "slot": "2",
            "type": "t_uint112"
          },
          {
            "astId": 9634,
            "contract": "contracts/comptroller/Comptroller.sol:Comptroller",
            "label": "__gap",
            "offset": 18,
            "slot": "2",
            "type": "t_uint112"
          },
          {
            "astId": 9636,
            "contract": "contracts/comptroller/Comptroller.sol:Comptroller",
            "label": "totalDripped",
            "offset": 0,
            "slot": "3",
            "type": "t_uint112"
          },
          {
            "astId": 9638,
            "contract": "contracts/comptroller/Comptroller.sol:Comptroller",
            "label": "periodCount",
            "offset": 14,
            "slot": "3",
            "type": "t_uint32"
          }
        ],
        "numberOfBytes": "128"
      },
      "t_struct(UserState)9064_storage": {
        "encoding": "inplace",
        "label": "struct BalanceDrip.UserState",
        "members": [
          {
            "astId": 9063,
            "contract": "contracts/comptroller/Comptroller.sol:Comptroller",
            "label": "lastExchangeRateMantissa",
            "offset": 0,
            "slot": "0",
            "type": "t_uint128"
          }
        ],
        "numberOfBytes": "32"
      },
      "t_uint112": {
        "encoding": "inplace",
        "label": "uint112",
        "numberOfBytes": "14"
      },
      "t_uint128": {
        "encoding": "inplace",
        "label": "uint128",
        "numberOfBytes": "16"
      },
      "t_uint256": {
        "encoding": "inplace",
        "label": "uint256",
        "numberOfBytes": "32"
      },
      "t_uint32": {
        "encoding": "inplace",
        "label": "uint32",
        "numberOfBytes": "4"
      }
    }
  },
  "gasEstimates": {
    "creation": {
      "codeDepositCost": "3712000",
      "executionCost": "infinite",
      "totalCost": "infinite"
    },
    "external": {
      "activateBalanceDrip(address,address,address,uint256)": "infinite",
      "activateVolumeDrip(address,address,address,bool,uint32,uint112,uint32)": "infinite",
      "balanceOfClaims(address,address[])": "infinite",
      "balanceOfDrip(address,address)": "infinite",
      "beforeTokenMint(address,uint256,address,address)": "infinite",
      "beforeTokenTransfer(address,address,uint256,address)": "infinite",
      "captureClaimsForBalanceDripsForPairs((address,address)[],address,address[])": "infinite",
      "claimDrip(address,address,uint256)": "infinite",
      "claimDrips(address,address[])": "infinite",
      "deactivateBalanceDrip(address,address,address,address)": "infinite",
      "deactivateVolumeDrip(address,address,address,bool,address)": "infinite",
      "getActiveBalanceDripTokens(address,address)": "infinite",
      "getActiveVolumeDripTokens(address,address,bool)": "infinite",
      "getBalanceDrip(address,address,address)": "infinite",
      "getVolumeDrip(address,address,address,bool)": "infinite",
      "getVolumeDripPeriod(address,address,address,bool,uint16)": "infinite",
      "isVolumeDripActive(address,address,address,bool)": "infinite",
      "mintAndCaptureVolumeDripsForPairs((address,address)[],address,uint256,address[])": "infinite",
      "owner()": "1138",
      "renounceOwnership()": "24312",
      "setBalanceDripRate(address,address,address,uint256)": "infinite",
      "setVolumeDrip(address,address,address,bool,uint32,uint112)": "infinite",
      "transferOut(address,address,uint256)": "infinite",
      "transferOwnership(address)": "infinite",
      "updateActiveBalanceDripsForPairs((address,address)[])": "infinite",
      "updateActiveVolumeDripsForPairs((address,address)[])": "infinite",
      "updateAndClaimDrips((address,address)[],address,address[])": "infinite",
      "updateDrips((address,address)[],address,address[])": "infinite"
    },
    "internal": {
      "_activeBalanceDripTokens(address,address)": "infinite",
      "_activeReferralVolumeDripTokens(address,address)": "infinite",
      "_activeVolumeDripTokens(address,address)": "infinite",
      "_addDripBalance(address,address,uint256)": "infinite",
      "_availableDripTokenBalance(address)": "infinite",
      "_captureClaimForBalanceDrip(struct BalanceDrip.State storage pointer,address,address,address,address,uint256)": "infinite",
      "_captureClaimForVolumeDrip(struct VolumeDrip.State storage pointer,address,address,address,bool,address,uint256)": "infinite",
      "_captureClaimsForBalanceDrips(address,address,address,uint256,address[] memory)": "infinite",
      "_currentTime()": "14",
      "_deactivateBalanceDrip(address,address,address,address)": "infinite",
      "_deactivateVolumeDrip(address,address,address,bool,address)": "infinite",
      "_mintAndCaptureForVolumeDrips(address,address,address,uint256,address[] memory)": "infinite",
      "_mintAndCaptureReferralVolumeDrips(address,address,address,uint256,address[] memory)": "infinite",
      "_updateActiveBalanceDrips(struct BalanceDripManager.State storage pointer,address,address,uint256,uint256)": "infinite",
      "_updateActiveVolumeDrips(struct VolumeDripManager.State storage pointer,address,address,bool)": "infinite"
    }
  }
}