{
  "abi": [
    {
      "inputs": [
        {
          "internalType": "contract ComptrollerInterface",
          "name": "_comptroller",
          "type": "address"
        },
        {
          "internalType": "contract PrizeStrategyProxyFactory",
          "name": "_prizeStrategyProxyFactory",
          "type": "address"
        },
        {
          "internalType": "address",
          "name": "_trustedForwarder",
          "type": "address"
        },
        {
          "internalType": "contract CompoundPrizePoolProxyFactory",
          "name": "_compoundPrizePoolProxyFactory",
          "type": "address"
        },
        {
          "internalType": "contract ControlledTokenProxyFactory",
          "name": "_controlledTokenProxyFactory",
          "type": "address"
        },
        {
          "internalType": "contract RNGInterface",
          "name": "_rng",
          "type": "address"
        },
        {
          "internalType": "contract OpenZeppelinProxyFactoryInterface",
          "name": "_proxyFactory",
          "type": "address"
        }
      ],
      "stateMutability": "nonpayable",
      "type": "constructor"
    },
    {
      "anonymous": false,
      "inputs": [
        {
          "indexed": true,
          "internalType": "address",
          "name": "creator",
          "type": "address"
        },
        {
          "indexed": true,
          "internalType": "address",
          "name": "prizePool",
          "type": "address"
        },
        {
          "indexed": true,
          "internalType": "address",
          "name": "prizeStrategy",
          "type": "address"
        }
      ],
      "name": "CompoundPrizePoolCreated",
      "type": "event"
    },
    {
      "inputs": [],
      "name": "compoundPrizePoolProxyFactory",
      "outputs": [
        {
          "internalType": "contract CompoundPrizePoolProxyFactory",
          "name": "",
          "type": "address"
        }
      ],
      "stateMutability": "view",
      "type": "function"
    },
    {
      "inputs": [],
      "name": "comptroller",
      "outputs": [
        {
          "internalType": "contract ComptrollerInterface",
          "name": "",
          "type": "address"
        }
      ],
      "stateMutability": "view",
      "type": "function"
    },
    {
      "inputs": [],
      "name": "controlledTokenProxyFactory",
      "outputs": [
        {
          "internalType": "contract ControlledTokenProxyFactory",
          "name": "",
          "type": "address"
        }
      ],
      "stateMutability": "view",
      "type": "function"
    },
    {
      "inputs": [
        {
          "components": [
            {
              "internalType": "address",
              "name": "proxyAdmin",
              "type": "address"
            },
            {
              "internalType": "contract CTokenInterface",
              "name": "cToken",
              "type": "address"
            },
            {
              "internalType": "uint256",
              "name": "prizePeriodSeconds",
              "type": "uint256"
            },
            {
              "internalType": "string",
              "name": "ticketName",
              "type": "string"
            },
            {
              "internalType": "string",
              "name": "ticketSymbol",
              "type": "string"
            },
            {
              "internalType": "string",
              "name": "sponsorshipName",
              "type": "string"
            },
            {
              "internalType": "string",
              "name": "sponsorshipSymbol",
              "type": "string"
            },
            {
              "internalType": "uint256",
              "name": "maxExitFeeMantissa",
              "type": "uint256"
            },
            {
              "internalType": "uint256",
              "name": "maxTimelockDuration",
              "type": "uint256"
            },
            {
              "internalType": "uint256",
              "name": "exitFeeMantissa",
              "type": "uint256"
            },
            {
              "internalType": "uint256",
              "name": "creditRateMantissa",
              "type": "uint256"
            },
            {
              "internalType": "address[]",
              "name": "externalERC20Awards",
              "type": "address[]"
            }
          ],
          "internalType": "struct CompoundPrizePoolBuilder.Config",
          "name": "config",
          "type": "tuple"
        }
      ],
      "name": "create",
      "outputs": [
        {
          "internalType": "contract PrizeStrategy",
          "name": "",
          "type": "address"
        }
      ],
      "stateMutability": "nonpayable",
      "type": "function"
    },
    {
      "inputs": [],
      "name": "prizeStrategyProxyFactory",
      "outputs": [
        {
          "internalType": "contract PrizeStrategyProxyFactory",
          "name": "",
          "type": "address"
        }
      ],
      "stateMutability": "view",
      "type": "function"
    },
    {
      "inputs": [],
      "name": "proxyFactory",
      "outputs": [
        {
          "internalType": "contract OpenZeppelinProxyFactoryInterface",
          "name": "",
          "type": "address"
        }
      ],
      "stateMutability": "view",
      "type": "function"
    },
    {
      "inputs": [],
      "name": "rng",
      "outputs": [
        {
          "internalType": "contract RNGInterface",
          "name": "",
          "type": "address"
        }
      ],
      "stateMutability": "view",
      "type": "function"
    },
    {
      "inputs": [],
      "name": "trustedForwarder",
      "outputs": [
        {
          "internalType": "address",
          "name": "",
          "type": "address"
        }
      ],
      "stateMutability": "view",
      "type": "function"
    }
  ],
  "address": "0x70EE7564e8cB6E7BBaE36A0fe6c725A9d1d26D4F",
  "args": [
    "0xC55cBa70FADacb5780f5f2c0c5Ca811a24e8C496",
    "0x2e2785A96a8E445d963c4Ea92D419b1E368c706a",
    "0xcC87aa60a6457D9606995C4E7E9c38A2b627Da88",
    "0xAE06635Be296dcDb71A7d69484e59203E2105961",
    "0xfFF2Af739d6e8dA1E9599c405aadDdBA24794688",
    "0x51B030e52891408c5cFF27eFdBFfcd448bCd5EC2",
    "0x33D1935aF8340598bF3B3a570a2195BFF821aEF0"
  ],
  "solcInputHash": "0x46fdc4958f6881f7fa061a86a12604f712d9c6334db372656d746d0f3b729b52",
  "bytecode": "0x60806040523480156200001157600080fd5b5060405162001168380380620011688339810160408190526200003491620001b6565b6001600160a01b038716620000665760405162461bcd60e51b81526004016200005d90620003ae565b60405180910390fd5b6001600160a01b0386166200008f5760405162461bcd60e51b81526004016200005d90620002a5565b6001600160a01b038416620000b85760405162461bcd60e51b81526004016200005d9062000351565b6001600160a01b038316620000e15760405162461bcd60e51b81526004016200005d90620003fb565b6001600160a01b0382166200010a5760405162461bcd60e51b81526004016200005d9062000260565b6001600160a01b038116620001335760405162461bcd60e51b81526004016200005d9062000302565b600580546001600160a01b03199081166001600160a01b03938416179091556004805482169383169390931790925560008054831697821697909717909655600380548216958716959095179094556006805485169386169390931790925560018054841691851691909117905560028054909216921691909117905562000472565b600080600080600080600060e0888a031215620001d1578283fd5b8751620001de8162000459565b6020890151909750620001f18162000459565b6040890151909650620002048162000459565b6060890151909550620002178162000459565b60808901519094506200022a8162000459565b60a08901519093506200023d8162000459565b60c0890151909250620002508162000459565b8091505092959891949750929550565b60208082526025908201527f436f6d706f756e645072697a65506f6f6c4275696c6465722f726e672d6e6f746040820152642d7a65726f60d81b606082015260800190565b60208082526038908201527f436f6d706f756e645072697a65506f6f6c4275696c6465722f7072697a652d7360408201527f747261746567792d666163746f72792d6e6f742d7a65726f0000000000000000606082015260800190565b6020808252602f908201527f436f6d706f756e645072697a65506f6f6c4275696c6465722f70726f78792d6660408201526e6163746f72792d6e6f742d7a65726f60881b606082015260800190565b6020808252603d908201527f436f6d706f756e645072697a65506f6f6c4275696c6465722f636f6d706f756e60408201527f642d7072697a652d706f6f6c2d6275696c6465722d6e6f742d7a65726f000000606082015260800190565b6020808252602d908201527f436f6d706f756e645072697a65506f6f6c4275696c6465722f636f6d7074726f60408201526c6c6c65722d6e6f742d7a65726f60981b606082015260800190565b602080825260409082018190527f436f6d706f756e645072697a65506f6f6c4275696c6465722f636f6e74726f6c908201527f6c65642d746f6b656e2d70726f78792d666163746f72792d6e6f742d7a65726f606082015260800190565b6001600160a01b03811681146200046f57600080fd5b50565b610ce680620004826000396000f3fe608060405234801561001057600080fd5b50600436106100885760003560e01c80637da0a8771161005b5780637da0a877146100ce578063802125f5146100d6578063c10f1a75146100de578063d605787b146100e657610088565b80635fe3b5671461008d578063630d0f1c146100ab5780636a81d8bd146100be57806375b81dc1146100c6575b600080fd5b6100956100ee565b6040516100a29190610a53565b60405180910390f35b6100956100b93660046109b5565b6100fd565b610095610672565b610095610681565b610095610690565b61009561069f565b6100956106ae565b6100956106bd565b6000546001600160a01b031681565b6000808061010e6020850185610976565b6001600160a01b03161461022b576005546003546040805163022ec09560e01b815290516001600160a01b0393841693636150864c93429391169163022ec09591600480820192602092909190829003018186803b15801561016f57600080fd5b505afa158015610183573d6000803e3d6000fd5b505050506040513d601f19601f820116820180604052508101906101a79190610999565b6101b46020880188610976565b6040518463ffffffff1660e01b81526004016101d293929190610bd1565b602060405180830381600087803b1580156101ec57600080fd5b505af1158015610200573d6000803e3d6000fd5b505050506040513d601f19601f820116820180604052508101906102249190610999565b90506102b6565b600360009054906101000a90046001600160a01b03166001600160a01b031663efc81a8c6040518163ffffffff1660e01b8152600401602060405180830381600087803b15801561027b57600080fd5b505af115801561028f573d6000803e3d6000fd5b505050506040513d601f19601f820116820180604052508101906102b39190610999565b90505b600060606103e5836102ce6040880160208901610976565b6102db6060890189610c51565b8080601f01602080910402602001604051908101604052809392919081815260200183838082843760009201919091525061031d9250505060808a018a610c51565b8080601f01602080910402602001604051908101604052809392919081815260200183838082843760009201919091525061035f9250505060a08b018b610c51565b8080601f0160208091040260200160405190810160405280939291908181526020018383808284376000920191909152506103a19250505060c08c018c610c51565b8080601f01602080910402602001604051908101604052809392919081815260200183838082843760009201919091525050505060e08c01356101008d01356106cc565b60405163f2fde38b60e01b815291935091506001600160a01b0383169063f2fde38b90610416903390600401610a53565b600060405180830381600087803b15801561043057600080fd5b505af1158015610444573d6000803e3d6000fd5b50506006546000805485516001600160a01b03898116965063b5bb3d949550938416939091169160408b0135918891889161047b57fe5b60200260200101518760018151811061049057fe5b60209081029190910101516004546001600160a01b03166104b56101608f018f610bff565b6040518a63ffffffff1660e01b81526004016104d999989796959493929190610a67565b600060405180830381600087803b1580156104f357600080fd5b505af1158015610507573d6000803e3d6000fd5b50506040516330192d0760e21b81526001600160a01b038616925063c064b41c915061053c9061012089013590600401610bc8565b600060405180830381600087803b15801561055657600080fd5b505af115801561056a573d6000803e3d6000fd5b505060405163091bfa8960e11b81526001600160a01b0386169250631237f512915061059f9061014089013590600401610bc8565b600060405180830381600087803b1580156105b957600080fd5b505af11580156105cd573d6000803e3d6000fd5b505060405163f2fde38b60e01b81526001600160a01b038616925063f2fde38b91506105fd903390600401610a53565b600060405180830381600087803b15801561061757600080fd5b505af115801561062b573d6000803e3d6000fd5b50506040516001600160a01b0380871693508516915033907f737c46586c5966bdf5ba716d982ae751f84213774e836279195a754fdb8abf1690600090a450909392505050565b6002546001600160a01b031681565b6003546001600160a01b031681565b6006546001600160a01b031681565b6001546001600160a01b031681565b6005546001600160a01b031681565b6004546001600160a01b031681565b60006060600160009054906101000a90046001600160a01b03166001600160a01b031663efc81a8c6040518163ffffffff1660e01b8152600401602060405180830381600087803b15801561072057600080fd5b505af1158015610734573d6000803e3d6000fd5b505050506040513d601f19601f820116820180604052508101906107589190610999565b6040805160028082526060820183529294509190602083019080368337019050509050610786828989610875565b8160008151811061079357fe5b60200260200101906001600160a01b031690816001600160a01b0316815250506107be828787610875565b816001815181106107cb57fe5b60200260200101906001600160a01b031690816001600160a01b031681525050816001600160a01b031663986b6aaf600660009054906101000a90046001600160a01b03168c8488888f6040518763ffffffff1660e01b815260040161083696959493929190610b07565b600060405180830381600087803b15801561085057600080fd5b505af1158015610864573d6000803e3d6000fd5b505050509850989650505050505050565b600080600260009054906101000a90046001600160a01b03166001600160a01b031663efc81a8c6040518163ffffffff1660e01b8152600401602060405180830381600087803b1580156108c857600080fd5b505af11580156108dc573d6000803e3d6000fd5b505050506040513d601f19601f820116820180604052508101906109009190610999565b6006546040516323c56d0560e21b81529192506001600160a01b0380841692638f15b4149261093b9289928992909116908b90600401610b7e565b600060405180830381600087803b15801561095557600080fd5b505af1158015610969573d6000803e3d6000fd5b5092979650505050505050565b600060208284031215610987578081fd5b813561099281610c98565b9392505050565b6000602082840312156109aa578081fd5b815161099281610c98565b6000602082840312156109c6578081fd5b813567ffffffffffffffff8111156109dc578182fd5b80830161018081860312156109ef578283fd5b949350505050565b6001600160a01b0316815260200190565b60008151808452815b81811015610a2d57602081850181015186830182015201610a11565b81811115610a3e5782602083870101525b50601f01601f19169290920160200192915050565b6001600160a01b0391909116815260200190565b6001600160a01b038a81168252898116602080840191909152604083018a90528882166060840152878216608084015286821660a084015290851660c083015261010060e083018190528201839052600090610120830190859083905b86821015610af4578235610ad781610c98565b610ae185826109f7565b9450508083019250600182019150610ac4565b50919d9c50505050505050505050505050565b600060c0820160018060a01b03808a1684526020818a168186015260c0604086015282895180855260e087019150828b019450855b81811015610b5a578551851683529483019491830191600101610b3c565b505060608601989098525060808401959095525050911660a0909101529392505050565b600060808252610b916080830187610a08565b8281036020840152610ba38187610a08565b6001600160a01b03958616604085015293909416606090920191909152509392505050565b90815260200190565b9283526001600160a01b03918216602084015216604082015260806060820181905260009082015260a00190565b6000808335601e19843603018112610c15578283fd5b8084018035925067ffffffffffffffff831115610c30578384fd5b6020810193505050602081023603821315610c4a57600080fd5b9250929050565b6000808335601e19843603018112610c67578283fd5b8084018035925067ffffffffffffffff831115610c82578384fd5b60200192505036819003821315610c4a57600080fd5b6001600160a01b0381168114610cad57600080fd5b5056fea2646970667358221220b555cad98652896b87d6cbf539a32a6a0f3c78a5b47ad3e749752b238e270b9864736f6c63430006040033",
  "devdoc": {
    "methods": {}
  },
  "userdoc": {
    "methods": {}
  },
  "storageLayout": {
    "storage": [
      {
        "astId": 5441,
        "contract": "contracts/builders/CompoundPrizePoolBuilder.sol:CompoundPrizePoolBuilder",
        "label": "comptroller",
        "offset": 0,
        "slot": "0",
        "type": "t_contract(ComptrollerInterface)6948"
      },
      {
        "astId": 5443,
        "contract": "contracts/builders/CompoundPrizePoolBuilder.sol:CompoundPrizePoolBuilder",
        "label": "compoundPrizePoolProxyFactory",
        "offset": 0,
        "slot": "1",
        "type": "t_contract(CompoundPrizePoolProxyFactory)10298"
      },
      {
        "astId": 5445,
        "contract": "contracts/builders/CompoundPrizePoolBuilder.sol:CompoundPrizePoolBuilder",
        "label": "controlledTokenProxyFactory",
        "offset": 0,
        "slot": "2",
        "type": "t_contract(ControlledTokenProxyFactory)14647"
      },
      {
        "astId": 5447,
        "contract": "contracts/builders/CompoundPrizePoolBuilder.sol:CompoundPrizePoolBuilder",
        "label": "prizeStrategyProxyFactory",
        "offset": 0,
        "slot": "3",
        "type": "t_contract(PrizeStrategyProxyFactory)12747"
      },
      {
        "astId": 5449,
        "contract": "contracts/builders/CompoundPrizePoolBuilder.sol:CompoundPrizePoolBuilder",
        "label": "rng",
        "offset": 0,
        "slot": "4",
        "type": "t_contract(RNGInterface)5317"
      },
      {
        "astId": 5451,
        "contract": "contracts/builders/CompoundPrizePoolBuilder.sol:CompoundPrizePoolBuilder",
        "label": "proxyFactory",
        "offset": 0,
        "slot": "5",
        "type": "t_contract(OpenZeppelinProxyFactoryInterface)8492"
      },
      {
        "astId": 5453,
        "contract": "contracts/builders/CompoundPrizePoolBuilder.sol:CompoundPrizePoolBuilder",
        "label": "trustedForwarder",
        "offset": 0,
        "slot": "6",
        "type": "t_address"
      }
    ],
    "types": {
      "t_address": {
        "encoding": "inplace",
        "label": "address",
        "numberOfBytes": "20"
      },
      "t_contract(CompoundPrizePoolProxyFactory)10298": {
        "encoding": "inplace",
        "label": "contract CompoundPrizePoolProxyFactory",
        "numberOfBytes": "20"
      },
      "t_contract(ComptrollerInterface)6948": {
        "encoding": "inplace",
        "label": "contract ComptrollerInterface",
        "numberOfBytes": "20"
      },
      "t_contract(ControlledTokenProxyFactory)14647": {
        "encoding": "inplace",
        "label": "contract ControlledTokenProxyFactory",
        "numberOfBytes": "20"
      },
      "t_contract(OpenZeppelinProxyFactoryInterface)8492": {
        "encoding": "inplace",
        "label": "contract OpenZeppelinProxyFactoryInterface",
        "numberOfBytes": "20"
      },
      "t_contract(PrizeStrategyProxyFactory)12747": {
        "encoding": "inplace",
        "label": "contract PrizeStrategyProxyFactory",
        "numberOfBytes": "20"
      },
      "t_contract(RNGInterface)5317": {
        "encoding": "inplace",
        "label": "contract RNGInterface",
        "numberOfBytes": "20"
      }
    }
  },
  "gasEstimates": {
    "creation": {
      "codeDepositCost": "660400",
      "executionCost": "infinite",
      "totalCost": "infinite"
    },
    "external": {
      "compoundPrizePoolProxyFactory()": "1092",
      "comptroller()": "1071",
      "controlledTokenProxyFactory()": "1115",
      "create((address,address,uint256,string,string,string,string,uint256,uint256,uint256,uint256,address[]))": "infinite",
      "prizeStrategyProxyFactory()": "1137",
      "proxyFactory()": "1114",
      "rng()": "1136",
      "trustedForwarder()": "1070"
    },
    "internal": {
      "createControlledToken(contract TokenControllerInterface,string memory,string memory)": "infinite",
      "createPrizePoolAndTokens(contract PrizeStrategy,contract CTokenInterface,string memory,string memory,string memory,string memory,uint256,uint256)": "infinite"
    }
  }
}