{
  "abi": [
    {
      "anonymous": false,
      "inputs": [
        {
          "indexed": true,
          "internalType": "address",
          "name": "source",
          "type": "address"
        },
        {
          "indexed": true,
          "internalType": "address",
          "name": "measure",
          "type": "address"
        },
        {
          "indexed": true,
          "internalType": "address",
          "name": "dripToken",
          "type": "address"
        },
        {
          "indexed": false,
          "internalType": "uint256",
          "name": "dripRatePerSecond",
          "type": "uint256"
        }
      ],
      "name": "BalanceDripActivated",
      "type": "event"
    },
    {
      "anonymous": false,
      "inputs": [
        {
          "indexed": true,
          "internalType": "address",
          "name": "source",
          "type": "address"
        },
        {
          "indexed": true,
          "internalType": "address",
          "name": "measure",
          "type": "address"
        },
        {
          "indexed": true,
          "internalType": "address",
          "name": "dripToken",
          "type": "address"
        }
      ],
      "name": "BalanceDripDeactivated",
      "type": "event"
    },
    {
      "anonymous": false,
      "inputs": [
        {
          "indexed": true,
          "internalType": "address",
          "name": "source",
          "type": "address"
        },
        {
          "indexed": true,
          "internalType": "address",
          "name": "measure",
          "type": "address"
        },
        {
          "indexed": true,
          "internalType": "address",
          "name": "dripToken",
          "type": "address"
        },
        {
          "indexed": false,
          "internalType": "address",
          "name": "user",
          "type": "address"
        },
        {
          "indexed": false,
          "internalType": "uint256",
          "name": "amount",
          "type": "uint256"
        }
      ],
      "name": "BalanceDripDripped",
      "type": "event"
    },
    {
      "anonymous": false,
      "inputs": [
        {
          "indexed": true,
          "internalType": "address",
          "name": "source",
          "type": "address"
        },
        {
          "indexed": true,
          "internalType": "address",
          "name": "measure",
          "type": "address"
        },
        {
          "indexed": true,
          "internalType": "address",
          "name": "dripToken",
          "type": "address"
        },
        {
          "indexed": false,
          "internalType": "uint256",
          "name": "dripRatePerSecond",
          "type": "uint256"
        }
      ],
      "name": "BalanceDripRateSet",
      "type": "event"
    },
    {
      "anonymous": false,
      "inputs": [
        {
          "indexed": true,
          "internalType": "address",
          "name": "operator",
          "type": "address"
        },
        {
          "indexed": true,
          "internalType": "address",
          "name": "dripToken",
          "type": "address"
        },
        {
          "indexed": true,
          "internalType": "address",
          "name": "user",
          "type": "address"
        },
        {
          "indexed": false,
          "internalType": "uint256",
          "name": "amount",
          "type": "uint256"
        }
      ],
      "name": "DripTokenClaimed",
      "type": "event"
    },
    {
      "anonymous": false,
      "inputs": [
        {
          "indexed": true,
          "internalType": "address",
          "name": "dripToken",
          "type": "address"
        },
        {
          "indexed": true,
          "internalType": "address",
          "name": "user",
          "type": "address"
        },
        {
          "indexed": false,
          "internalType": "uint256",
          "name": "amount",
          "type": "uint256"
        }
      ],
      "name": "DripTokenDripped",
      "type": "event"
    },
    {
      "anonymous": false,
      "inputs": [
        {
          "indexed": true,
          "internalType": "address",
          "name": "previousOwner",
          "type": "address"
        },
        {
          "indexed": true,
          "internalType": "address",
          "name": "newOwner",
          "type": "address"
        }
      ],
      "name": "OwnershipTransferred",
      "type": "event"
    },
    {
      "anonymous": false,
      "inputs": [
        {
          "indexed": false,
          "internalType": "uint256",
          "name": "reserveRateMantissa",
          "type": "uint256"
        }
      ],
      "name": "ReserveRateMantissaSet",
      "type": "event"
    },
    {
      "anonymous": false,
      "inputs": [
        {
          "indexed": true,
          "internalType": "address",
          "name": "source",
          "type": "address"
        },
        {
          "indexed": true,
          "internalType": "address",
          "name": "measure",
          "type": "address"
        },
        {
          "indexed": true,
          "internalType": "address",
          "name": "dripToken",
          "type": "address"
        },
        {
          "indexed": false,
          "internalType": "bool",
          "name": "isReferral",
          "type": "bool"
        },
        {
          "indexed": false,
          "internalType": "uint256",
          "name": "periodSeconds",
          "type": "uint256"
        },
        {
          "indexed": false,
          "internalType": "uint256",
          "name": "dripAmount",
          "type": "uint256"
        }
      ],
      "name": "VolumeDripActivated",
      "type": "event"
    },
    {
      "anonymous": false,
      "inputs": [
        {
          "indexed": true,
          "internalType": "address",
          "name": "source",
          "type": "address"
        },
        {
          "indexed": true,
          "internalType": "address",
          "name": "measure",
          "type": "address"
        },
        {
          "indexed": true,
          "internalType": "address",
          "name": "dripToken",
          "type": "address"
        },
        {
          "indexed": false,
          "internalType": "bool",
          "name": "isReferral",
          "type": "bool"
        }
      ],
      "name": "VolumeDripDeactivated",
      "type": "event"
    },
    {
      "anonymous": false,
      "inputs": [
        {
          "indexed": true,
          "internalType": "address",
          "name": "source",
          "type": "address"
        },
        {
          "indexed": true,
          "internalType": "address",
          "name": "measure",
          "type": "address"
        },
        {
          "indexed": true,
          "internalType": "address",
          "name": "dripToken",
          "type": "address"
        },
        {
          "indexed": false,
          "internalType": "bool",
          "name": "isReferral",
          "type": "bool"
        },
        {
          "indexed": false,
          "internalType": "address",
          "name": "user",
          "type": "address"
        },
        {
          "indexed": false,
          "internalType": "uint256",
          "name": "amount",
          "type": "uint256"
        }
      ],
      "name": "VolumeDripDripped",
      "type": "event"
    },
    {
      "anonymous": false,
      "inputs": [
        {
          "indexed": true,
          "internalType": "address",
          "name": "source",
          "type": "address"
        },
        {
          "indexed": true,
          "internalType": "address",
          "name": "measure",
          "type": "address"
        },
        {
          "indexed": true,
          "internalType": "address",
          "name": "dripToken",
          "type": "address"
        },
        {
          "indexed": false,
          "internalType": "bool",
          "name": "isReferral",
          "type": "bool"
        },
        {
          "indexed": false,
          "internalType": "uint32",
          "name": "period",
          "type": "uint32"
        },
        {
          "indexed": false,
          "internalType": "uint256",
          "name": "totalSupply",
          "type": "uint256"
        }
      ],
      "name": "VolumeDripPeriodEnded",
      "type": "event"
    },
    {
      "anonymous": false,
      "inputs": [
        {
          "indexed": true,
          "internalType": "address",
          "name": "source",
          "type": "address"
        },
        {
          "indexed": true,
          "internalType": "address",
          "name": "measure",
          "type": "address"
        },
        {
          "indexed": true,
          "internalType": "address",
          "name": "dripToken",
          "type": "address"
        },
        {
          "indexed": false,
          "internalType": "bool",
          "name": "isReferral",
          "type": "bool"
        },
        {
          "indexed": false,
          "internalType": "uint32",
          "name": "period",
          "type": "uint32"
        },
        {
          "indexed": false,
          "internalType": "uint256",
          "name": "dripAmount",
          "type": "uint256"
        },
        {
          "indexed": false,
          "internalType": "uint256",
          "name": "endTime",
          "type": "uint256"
        }
      ],
      "name": "VolumeDripPeriodStarted",
      "type": "event"
    },
    {
      "anonymous": false,
      "inputs": [
        {
          "indexed": true,
          "internalType": "address",
          "name": "source",
          "type": "address"
        },
        {
          "indexed": true,
          "internalType": "address",
          "name": "measure",
          "type": "address"
        },
        {
          "indexed": true,
          "internalType": "address",
          "name": "dripToken",
          "type": "address"
        },
        {
          "indexed": false,
          "internalType": "bool",
          "name": "isReferral",
          "type": "bool"
        },
        {
          "indexed": false,
          "internalType": "uint256",
          "name": "periodSeconds",
          "type": "uint256"
        },
        {
          "indexed": false,
          "internalType": "uint256",
          "name": "dripAmount",
          "type": "uint256"
        }
      ],
      "name": "VolumeDripSet",
      "type": "event"
    },
    {
      "inputs": [
        {
          "internalType": "address",
          "name": "source",
          "type": "address"
        },
        {
          "internalType": "address",
          "name": "measure",
          "type": "address"
        },
        {
          "internalType": "address",
          "name": "dripToken",
          "type": "address"
        },
        {
          "internalType": "uint256",
          "name": "dripRatePerSecond",
          "type": "uint256"
        }
      ],
      "name": "activateBalanceDrip",
      "outputs": [],
      "stateMutability": "nonpayable",
      "type": "function"
    },
    {
      "inputs": [
        {
          "internalType": "address",
          "name": "source",
          "type": "address"
        },
        {
          "internalType": "address",
          "name": "measure",
          "type": "address"
        },
        {
          "internalType": "address",
          "name": "dripToken",
          "type": "address"
        },
        {
          "internalType": "bool",
          "name": "isReferral",
          "type": "bool"
        },
        {
          "internalType": "uint32",
          "name": "periodSeconds",
          "type": "uint32"
        },
        {
          "internalType": "uint112",
          "name": "dripAmount",
          "type": "uint112"
        },
        {
          "internalType": "uint32",
          "name": "endTime",
          "type": "uint32"
        }
      ],
      "name": "activateVolumeDrip",
      "outputs": [],
      "stateMutability": "nonpayable",
      "type": "function"
    },
    {
      "inputs": [
        {
          "internalType": "address",
          "name": "dripToken",
          "type": "address"
        },
        {
          "internalType": "address",
          "name": "user",
          "type": "address"
        }
      ],
      "name": "balanceOfDrip",
      "outputs": [
        {
          "internalType": "uint256",
          "name": "",
          "type": "uint256"
        }
      ],
      "stateMutability": "view",
      "type": "function"
    },
    {
      "inputs": [
        {
          "internalType": "address",
          "name": "to",
          "type": "address"
        },
        {
          "internalType": "uint256",
          "name": "amount",
          "type": "uint256"
        },
        {
          "internalType": "address",
          "name": "measure",
          "type": "address"
        },
        {
          "internalType": "address",
          "name": "referrer",
          "type": "address"
        }
      ],
      "name": "beforeTokenMint",
      "outputs": [],
      "stateMutability": "nonpayable",
      "type": "function"
    },
    {
      "inputs": [
        {
          "internalType": "address",
          "name": "from",
          "type": "address"
        },
        {
          "internalType": "address",
          "name": "to",
          "type": "address"
        },
        {
          "internalType": "uint256",
          "name": "",
          "type": "uint256"
        },
        {
          "internalType": "address",
          "name": "measure",
          "type": "address"
        }
      ],
      "name": "beforeTokenTransfer",
      "outputs": [],
      "stateMutability": "nonpayable",
      "type": "function"
    },
    {
      "inputs": [
        {
          "internalType": "address",
          "name": "user",
          "type": "address"
        },
        {
          "internalType": "address",
          "name": "dripToken",
          "type": "address"
        },
        {
          "internalType": "uint256",
          "name": "amount",
          "type": "uint256"
        }
      ],
      "name": "claimDrip",
      "outputs": [],
      "stateMutability": "nonpayable",
      "type": "function"
    },
    {
      "inputs": [
        {
          "internalType": "address",
          "name": "source",
          "type": "address"
        },
        {
          "internalType": "address",
          "name": "measure",
          "type": "address"
        },
        {
          "internalType": "address",
          "name": "dripToken",
          "type": "address"
        },
        {
          "internalType": "address",
          "name": "prevDripToken",
          "type": "address"
        }
      ],
      "name": "deactivateBalanceDrip",
      "outputs": [],
      "stateMutability": "nonpayable",
      "type": "function"
    },
    {
      "inputs": [
        {
          "internalType": "address",
          "name": "source",
          "type": "address"
        },
        {
          "internalType": "address",
          "name": "measure",
          "type": "address"
        },
        {
          "internalType": "address",
          "name": "dripToken",
          "type": "address"
        },
        {
          "internalType": "bool",
          "name": "isReferral",
          "type": "bool"
        },
        {
          "internalType": "address",
          "name": "prevDripToken",
          "type": "address"
        }
      ],
      "name": "deactivateVolumeDrip",
      "outputs": [],
      "stateMutability": "nonpayable",
      "type": "function"
    },
    {
      "inputs": [
        {
          "internalType": "address",
          "name": "source",
          "type": "address"
        },
        {
          "internalType": "address",
          "name": "measure",
          "type": "address"
        },
        {
          "internalType": "address",
          "name": "dripToken",
          "type": "address"
        }
      ],
      "name": "getBalanceDrip",
      "outputs": [
        {
          "internalType": "uint256",
          "name": "dripRatePerSecond",
          "type": "uint256"
        },
        {
          "internalType": "uint128",
          "name": "exchangeRateMantissa",
          "type": "uint128"
        },
        {
          "internalType": "uint32",
          "name": "timestamp",
          "type": "uint32"
        }
      ],
      "stateMutability": "view",
      "type": "function"
    },
    {
      "inputs": [
        {
          "internalType": "address",
          "name": "source",
          "type": "address"
        },
        {
          "internalType": "address",
          "name": "measure",
          "type": "address"
        },
        {
          "internalType": "address",
          "name": "dripToken",
          "type": "address"
        },
        {
          "internalType": "bool",
          "name": "isReferral",
          "type": "bool"
        }
      ],
      "name": "getVolumeDrip",
      "outputs": [
        {
          "internalType": "uint256",
          "name": "periodSeconds",
          "type": "uint256"
        },
        {
          "internalType": "uint256",
          "name": "dripAmount",
          "type": "uint256"
        },
        {
          "internalType": "uint256",
          "name": "periodCount",
          "type": "uint256"
        }
      ],
      "stateMutability": "view",
      "type": "function"
    },
    {
      "inputs": [
        {
          "internalType": "address",
          "name": "source",
          "type": "address"
        },
        {
          "internalType": "address",
          "name": "measure",
          "type": "address"
        },
        {
          "internalType": "address",
          "name": "dripToken",
          "type": "address"
        },
        {
          "internalType": "bool",
          "name": "isReferral",
          "type": "bool"
        },
        {
          "internalType": "uint16",
          "name": "period",
          "type": "uint16"
        }
      ],
      "name": "getVolumeDripPeriod",
      "outputs": [
        {
          "internalType": "uint112",
          "name": "totalSupply",
          "type": "uint112"
        },
        {
          "internalType": "uint112",
          "name": "dripAmount",
          "type": "uint112"
        },
        {
          "internalType": "uint32",
          "name": "endTime",
          "type": "uint32"
        }
      ],
      "stateMutability": "view",
      "type": "function"
    },
    {
      "inputs": [
        {
          "internalType": "address",
          "name": "_owner",
          "type": "address"
        }
      ],
      "name": "initialize",
      "outputs": [],
      "stateMutability": "nonpayable",
      "type": "function"
    },
    {
      "inputs": [
        {
          "internalType": "address",
          "name": "source",
          "type": "address"
        },
        {
          "internalType": "address",
          "name": "measure",
          "type": "address"
        },
        {
          "internalType": "address",
          "name": "dripToken",
          "type": "address"
        },
        {
          "internalType": "bool",
          "name": "isReferral",
          "type": "bool"
        }
      ],
      "name": "isVolumeDripActive",
      "outputs": [
        {
          "internalType": "bool",
          "name": "",
          "type": "bool"
        }
      ],
      "stateMutability": "view",
      "type": "function"
    },
    {
      "inputs": [],
      "name": "owner",
      "outputs": [
        {
          "internalType": "address",
          "name": "",
          "type": "address"
        }
      ],
      "stateMutability": "view",
      "type": "function"
    },
    {
      "inputs": [
        {
          "components": [
            {
              "internalType": "address",
              "name": "source",
              "type": "address"
            },
            {
              "internalType": "address",
              "name": "measure",
              "type": "address"
            }
          ],
          "internalType": "struct Comptroller.UpdatePair[]",
          "name": "pairs",
          "type": "tuple[]"
        },
        {
          "internalType": "address",
          "name": "user",
          "type": "address"
        },
        {
          "internalType": "address[]",
          "name": "dripTokens",
          "type": "address[]"
        }
      ],
      "name": "pokeDrips",
      "outputs": [],
      "stateMutability": "nonpayable",
      "type": "function"
    },
    {
      "inputs": [],
      "name": "renounceOwnership",
      "outputs": [],
      "stateMutability": "nonpayable",
      "type": "function"
    },
    {
      "inputs": [],
      "name": "reserveRateMantissa",
      "outputs": [
        {
          "internalType": "uint256",
          "name": "",
          "type": "uint256"
        }
      ],
      "stateMutability": "view",
      "type": "function"
    },
    {
      "inputs": [
        {
          "internalType": "address",
          "name": "source",
          "type": "address"
        },
        {
          "internalType": "address",
          "name": "measure",
          "type": "address"
        },
        {
          "internalType": "address",
          "name": "dripToken",
          "type": "address"
        },
        {
          "internalType": "uint256",
          "name": "dripRatePerSecond",
          "type": "uint256"
        }
      ],
      "name": "setBalanceDripRate",
      "outputs": [],
      "stateMutability": "nonpayable",
      "type": "function"
    },
    {
      "inputs": [
        {
          "internalType": "uint256",
          "name": "__reserveRateMantissa",
          "type": "uint256"
        }
      ],
      "name": "setReserveRateMantissa",
      "outputs": [],
      "stateMutability": "nonpayable",
      "type": "function"
    },
    {
      "inputs": [
        {
          "internalType": "address",
          "name": "source",
          "type": "address"
        },
        {
          "internalType": "address",
          "name": "measure",
          "type": "address"
        },
        {
          "internalType": "address",
          "name": "dripToken",
          "type": "address"
        },
        {
          "internalType": "bool",
          "name": "isReferral",
          "type": "bool"
        },
        {
          "internalType": "uint32",
          "name": "periodSeconds",
          "type": "uint32"
        },
        {
          "internalType": "uint112",
          "name": "dripAmount",
          "type": "uint112"
        }
      ],
      "name": "setVolumeDrip",
      "outputs": [],
      "stateMutability": "nonpayable",
      "type": "function"
    },
    {
      "inputs": [
        {
          "internalType": "address",
          "name": "newOwner",
          "type": "address"
        }
      ],
      "name": "transferOwnership",
      "outputs": [],
      "stateMutability": "nonpayable",
      "type": "function"
    },
    {
      "inputs": [
        {
          "components": [
            {
              "internalType": "address",
              "name": "source",
              "type": "address"
            },
            {
              "internalType": "address",
              "name": "measure",
              "type": "address"
            }
          ],
          "internalType": "struct Comptroller.UpdatePair[]",
          "name": "pairs",
          "type": "tuple[]"
        },
        {
          "internalType": "address",
          "name": "user",
          "type": "address"
        },
        {
          "internalType": "address[]",
          "name": "dripTokens",
          "type": "address[]"
        }
      ],
      "name": "updateAndClaimDrips",
      "outputs": [],
      "stateMutability": "nonpayable",
      "type": "function"
    },
    {
      "inputs": [
        {
          "components": [
            {
              "internalType": "address",
              "name": "source",
              "type": "address"
            },
            {
              "internalType": "address",
              "name": "measure",
              "type": "address"
            }
          ],
          "internalType": "struct Comptroller.UpdatePair[]",
          "name": "pairs",
          "type": "tuple[]"
        },
        {
          "internalType": "address",
          "name": "user",
          "type": "address"
        },
        {
          "internalType": "address[]",
          "name": "dripTokens",
          "type": "address[]"
        }
      ],
      "name": "updateDrips",
      "outputs": [
        {
          "components": [
            {
              "internalType": "address",
              "name": "dripToken",
              "type": "address"
            },
            {
              "internalType": "uint256",
              "name": "balance",
              "type": "uint256"
            }
          ],
          "internalType": "struct Comptroller.DripTokenBalance[]",
          "name": "",
          "type": "tuple[]"
        }
      ],
      "stateMutability": "nonpayable",
      "type": "function"
    }
  ],
  "address": "0x652c35EaC4fcC61C0BE3cA32e58a53585A59Eb33",
  "args": [],
  "solcInputHash": "0x5990c6ddf035c4524995c695306211997266288ccd71605d74eb8e130e387fdd",
  "bytecode": "0x608060405234801561001057600080fd5b5061454a806100206000396000f3fe608060405234801561001057600080fd5b506004361061014d5760003560e01c80638da5cb5b116100c3578063c4d66de81161007c578063c4d66de8146102d3578063ce730461146102e6578063d7840aad146102f9578063e2937c7714610319578063e72edc281461032c578063f2fde38b1461033f5761014d565b80638da5cb5b1461024e5780638eaa71d7146102635780639aebef2314610278578063ab47176d1461029a578063b2210957146102ad578063c35185df146102c05761014d565b8063503bd48011610115578063503bd480146101d85780635d68ae22146101eb5780635e19bad5146101fe578063626e76b414610211578063715018a61461023357806384f8f31c1461023b5761014d565b806334de6d1914610152578063369238f8146101675780633a6c8a2c1461017a57806343fcacd0146101a35780634d7f3db0146101c5575b600080fd5b610165610160366004613ab4565b610352565b005b610165610175366004613c46565b6104dc565b61018d610188366004613c46565b6106f6565b60405161019a9190613dd6565b60405180910390f35b6101b66101b13660046138c5565b6109e7565b60405161019a9392919061442b565b6101656101d3366004613b3b565b610b21565b6101656101e6366004613a64565b610cb9565b6101656101f9366004613a64565b610d72565b61016561020c3660046137ac565b610e26565b61022461021f366004613803565b610e6d565b60405161019a93929190614482565b610165610fdc565b6101656102493660046139c4565b61105b565b6102566111ac565b60405161019a9190613d87565b61026b6111bb565b60405161019a9190614454565b61028b610286366004613767565b6111c1565b60405161019a9392919061445d565b6101656102a8366004613d57565b611218565b6101656102bb366004613af4565b6112b5565b6101656102ce366004613938565b6114b7565b6101656102e1366004613718565b6115a2565b6101656102f4366004613b70565b611637565b61030c610307366004613803565b611718565b60405161019a9190613e2e565b61016561032736600461385b565b611775565b61026b61033a366004613733565b6117be565b61016561034d366004613718565b6117eb565b600061035c6118a2565b6001600160a01b0384166000908152609b602052604090205490915061038290836118a6565b6001600160a01b038085166000908152609b6020908152604080832094909455609c815283822092881682529190915220546103be90836118a6565b6001600160a01b038085166000818152609c60209081526040808320948a168352939052829020929092555163a9059cbb60e01b815263a9059cbb9061040a9087908690600401613dbd565b602060405180830381600087803b15801561042457600080fd5b505af1158015610438573d6000803e3d6000fd5b505050506040513d601f19601f8201168201806040525081019061045c9190613d20565b6104815760405162461bcd60e51b81526004016104789061412b565b60405180910390fd5b826001600160a01b0316846001600160a01b0316826001600160a01b03167f76db671dc988a5ba4764a06da6bfc2a6a8df0d7d373cc205a687084b4a8492f0856040516104ce9190614454565b60405180910390a450505050565b60006104e66118ef565b90506000805b85518210156106ee576104fd6135e5565b86838151811061050957fe5b60200260200101519050600091505b84518210156106e257600085838151811061052f57fe5b6020026020010151905061066c609a600084600001516001600160a01b03166001600160a01b0316815260200190815260200160002083600001518460200151848b87602001516001600160a01b03166370a082318e6040518263ffffffff1660e01b81526004016105a19190613d87565b60206040518083038186803b1580156105b957600080fd5b505afa1580156105cd573d6000803e3d6000fd5b505050506040513d601f19601f820116820180604052508101906105f19190613d6f565b88602001516001600160a01b03166318160ddd6040518163ffffffff1660e01b815260040160206040518083038186803b15801561062e57600080fd5b505afa158015610642573d6000803e3d6000fd5b505050506040513d601f19601f820116820180604052508101906106669190613d6f565b8c6118f3565b5081516001600160a01b0316600090815260986020908152604082208451918501516106a09391929185908c908b816119f9565b5081516001600160a01b0316600090815260996020908152604082208451918501516106d59391929185908c908b60016119f9565b5050600190910190610518565b506001909101906104ec565b505050505050565b606060006107026118ef565b905060005b85518110156108ca576107186135e5565b86828151811061072457fe5b60200260200101519050610860609a600083600001516001600160a01b03166001600160a01b03168152602001908152602001600020826000015183602001518985602001516001600160a01b03166370a082318c6040518263ffffffff1660e01b81526004016107959190613d87565b60206040518083038186803b1580156107ad57600080fd5b505afa1580156107c1573d6000803e3d6000fd5b505050506040513d601f19601f820116820180604052508101906107e59190613d6f565b86602001516001600160a01b03166318160ddd6040518163ffffffff1660e01b815260040160206040518083038186803b15801561082257600080fd5b505afa158015610836573d6000803e3d6000fd5b505050506040513d601f19601f8201168201806040525081019061085a9190613d6f565b89611cae565b80516001600160a01b031660009081526098602090815260408220835191840151610890939192918a9080611da6565b80516001600160a01b0316600090815260996020908152604082208351918401516108c1939192918a906001611da6565b50600101610707565b6060845167ffffffffffffffff811180156108e457600080fd5b5060405190808252806020026020018201604052801561091e57816020015b61090b6135e5565b8152602001906001900390816109035790505b509050600091505b84518210156109dd57604051806040016040528086848151811061094657fe5b60200260200101516001600160a01b03168152602001609c600088868151811061096c57fe5b60200260200101516001600160a01b03166001600160a01b031681526020019081526020016000206000896001600160a01b03166001600160a01b03168152602001908152602001600020548152508183815181106109c757fe5b6020908102919091010152600190910190610926565b9695505050505050565b60008060006109f46135fc565b8515610a8157506001600160a01b0380891660009081526099602090815260408083208b8516845260019081018352818420948b16845293825280832061ffff89168452909301815290829020825160608101845290546001600160701b038082168352600160701b82041692820192909252600160e01b90910463ffffffff1691810191909152610b04565b506001600160a01b0380891660009081526098602090815260408083208b8516845260019081018352818420948b16845293825280832061ffff89168452909301815290829020825160608101845290546001600160701b038082168352600160701b82041692820192909252600160e01b90910463ffffffff16918101919091525b80516020820151604090920151909a919950975095505050505050565b6000610b2b6118a2565b90506000836001600160a01b03166370a08231876040518263ffffffff1660e01b8152600401610b5b9190613d87565b60206040518083038186803b158015610b7357600080fd5b505afa158015610b87573d6000803e3d6000fd5b505050506040513d601f19601f82011682018060405250810190610bab9190613d6f565b90506000846001600160a01b03166318160ddd6040518163ffffffff1660e01b815260040160206040518083038186803b158015610be857600080fd5b505afa158015610bfc573d6000803e3d6000fd5b505050506040513d601f19601f82011682018060405250810190610c209190613d6f565b6001600160a01b0384166000908152609a60205260409020909150610c519084878a8686610c4c6118ef565b611cae565b6001600160a01b0383166000908152609860205260408120610c7a91859088908b908b90611da6565b6001600160a01b03841615610cb0576001600160a01b0383166000908152609960205260409020610cb0908487878a6001611da6565b50505050505050565b610cc16118a2565b6065546001600160a01b03908116911614610cee5760405162461bcd60e51b81526004016104789061425e565b610d25838383610d04610cff6118ef565b611ea0565b6001600160a01b0389166000908152609a6020526040902093929190611ec9565b816001600160a01b0316836001600160a01b0316856001600160a01b03167f1198b38b5e10d4b1e4cd2866dd9bc4e71e32c649b6ff51addd64e01fb6a6d5ad846040516104ce9190614454565b610d7a6118a2565b6065546001600160a01b03908116911614610da75760405162461bcd60e51b81526004016104789061425e565b610dd9838383610db8610cff6118ef565b6001600160a01b0389166000908152609a6020526040902093929190611faa565b816001600160a01b0316836001600160a01b0316856001600160a01b03167f4cf47603ce110cd8061678afe77c525be4ca073f4640f629292afcef7be49259846040516104ce9190614454565b610e2e6118a2565b6065546001600160a01b03908116911614610e5b5760405162461bcd60e51b81526004016104789061425e565b610e6784848484612079565b50505050565b6000806000610e7a61361c565b8415610f1957506001600160a01b0380881660009081526099602090815260408083208a851684526001018252808320938916835292815290829020825160a081018452600282015463ffffffff80821683526001600160701b03600160201b8304811695840195909552600160901b9091048416948201949094526003909101549182166060820152600160701b9091049091166080820152610fae565b506001600160a01b0380881660009081526098602090815260408083208a851684526001018252808320938916835292815290829020825160a081018452600282015463ffffffff80821683526001600160701b03600160201b8304811695840195909552600160901b9091048416948201949094526003909101549182166060820152600160701b90910490911660808201525b8051602082015160809092015163ffffffff9182169a6001600160701b039093169950169650945050505050565b610fe46118a2565b6065546001600160a01b039081169116146110115760405162461bcd60e51b81526004016104789061425e565b6065546040516000916001600160a01b0316907f8be0079c531659141344cd1fd0a4f28419497f9722a3daafe3b4186f6b6457e0908390a3606580546001600160a01b0319169055565b6110636118a2565b6065546001600160a01b039081169116146110905760405162461bcd60e51b81526004016104789061425e565b600084156110c5576001600160a01b03881660009081526099602052604090206110be9088888787876120fb565b90506110ee565b6001600160a01b03881660009081526098602052604090206110eb9088888787876120fb565b90505b856001600160a01b0316876001600160a01b0316896001600160a01b03167f0ee63f5b7633ec1ad321f6f89b83ec0993c2cc680112d7b153759242a655ed4388888860405161113f93929190613e7f565b60405180910390a4856001600160a01b0316876001600160a01b0316896001600160a01b03167f5030027163f1655f8ac4c205c22bfe42c59f83e61a7c15da775499920b2143148885888860405161119a9493929190613ea6565b60405180910390a45050505050505050565b6065546001600160a01b031690565b60975490565b6001600160a01b0383166000908152609a602052604081208190819081906111ea90878761220e565b805460019091015490986001600160701b0382169850600160e01b90910463ffffffff169650945050505050565b6112206118a2565b6065546001600160a01b0390811691161461124d5760405162461bcd60e51b81526004016104789061425e565b670de0b6b3a76400008111156112755760405162461bcd60e51b815260040161047890614078565b60978190556040517f596f4db485f9f39633eefcb1b04b10114fc6bc60e5feff327e5b2cace874129f906112aa908390614454565b60405180910390a150565b6001600160a01b0384166112c857610e67565b60006112d26118a2565b90506000826001600160a01b03166318160ddd6040518163ffffffff1660e01b815260040160206040518083038186803b15801561130f57600080fd5b505afa158015611323573d6000803e3d6000fd5b505050506040513d601f19601f820116820180604052508101906113479190613d6f565b90506000836001600160a01b03166370a08231886040518263ffffffff1660e01b81526004016113779190613d87565b60206040518083038186803b15801561138f57600080fd5b505afa1580156113a3573d6000803e3d6000fd5b505050506040513d601f19601f820116820180604052508101906113c79190613d6f565b6001600160a01b0384166000908152609a602052604090209091506113f39084868a8587610c4c6118ef565b6001600160a01b03861615610cb0576040516370a0823160e01b81526000906001600160a01b038616906370a0823190611431908a90600401613d87565b60206040518083038186803b15801561144957600080fd5b505afa15801561145d573d6000803e3d6000fd5b505050506040513d601f19601f820116820180604052508101906114819190613d6f565b6001600160a01b0385166000908152609a602052604090209091506114ad9085878a8588610c4c6118ef565b5050505050505050565b6114bf6118a2565b6065546001600160a01b039081169116146114ec5760405162461bcd60e51b81526004016104789061425e565b821561151c576001600160a01b0386166000908152609960205260409020611517908686858561223a565b611541565b6001600160a01b0386166000908152609860205260409020611541908686858561223a565b836001600160a01b0316856001600160a01b0316876001600160a01b03167f401facfe78ba5adec5aae1404afebf8e3a77cb5dfdf5b4b611504d626d9a2ed586868660405161159293929190613e7f565b60405180910390a4505050505050565b600054610100900460ff16806115bb57506115bb6122aa565b806115c9575060005460ff16155b6115e55760405162461bcd60e51b815260040161047890614302565b600054610100900460ff16158015611610576000805460ff1961ff0019909116610100171660011790555b6116186122b0565b611621826117eb565b8015611633576000805461ff00191690555b5050565b60606116c98686808060200260200160405190810160405280939291908181526020016000905b8282101561168a5761167b60408302860136819003810190613d3c565b8152602001906001019061165e565b5050505050858585808060200260200160405190810160405280939291908181526020018383602002808284376000920191909152506106f692505050565b905060005b8151811015610cb057611710858383815181106116e757fe5b6020026020010151600001518484815181106116ff57fe5b602002602001015160200151610352565b6001016116ce565b6000811561174a576001600160a01b0385166000908152609960205260409020611743908585612343565b905061176d565b6001600160a01b0385166000908152609860205260409020611743908585612343565b949350505050565b61177d6118a2565b6065546001600160a01b039081169116146117aa5760405162461bcd60e51b81526004016104789061425e565b6117b78585858585612365565b5050505050565b6001600160a01b038083166000908152609c60209081526040808320938516835292905220545b92915050565b6117f36118a2565b6065546001600160a01b039081169116146118205760405162461bcd60e51b81526004016104789061425e565b6001600160a01b0381166118465760405162461bcd60e51b815260040161047890613ffb565b6065546040516001600160a01b038084169216907f8be0079c531659141344cd1fd0a4f28419497f9722a3daafe3b4186f6b6457e090600090a3606580546001600160a01b0319166001600160a01b0392909216919091179055565b3390565b60006118e883836040518060400160405280601e81526020017f536166654d6174683a207375627472616374696f6e206f766572666c6f770000815250612414565b9392505050565b4290565b6001600160a01b03808716600081815260018b0160209081526040808320948a1683529381528382209282528b905291822082906119319089612440565b90506000811561194f576119488389898989612491565b905061195d565b61195a8389896124a9565b90505b60006001600160801b038216156119dc576119828a8a846001600160801b03166124b6565b9050896001600160a01b03168b6001600160a01b03168d6001600160a01b03167f782be3085b3ef7b927740f3ed02f7393ee3f20b8fe87595484dbf65c5be4230d8c866040516119d3929190613d9b565b60405180910390a45b6001600160801b0390911614159250505098975050505050505050565b6001600160a01b03808716600090815260018a016020908152604080832093891683529290529081208180611a3083898989612649565b909250905060008215611aa457611a488a8a856124b6565b9050896001600160a01b03168b6001600160a01b03168d6001600160a01b03167f06c65e2aee0f9ad46bde72ca6800e5b29333356dc073eba0e3995ffc980148f7898d88604051611a9b93929190613e39565b60405180910390a45b6001600160a01b038b16600090815260208e905260408120611ac6908c612440565b9050808015611ad25750825b15611c99576003850154600090611b0590611b009063ffffffff600160701b9091048116906001906118a616565b61287e565b90508b6001600160a01b03168d6001600160a01b03168f6001600160a01b03167fa2ec807a0c220b85f5b188be41d7d35248cc5abe1a2fab6c33d31132cdd682c38b858b60010160008861ffff1663ffffffff16815260200190815260200160002060000160009054906101000a90046001600160701b0316604051611b8d93929190613e5a565b60405180910390a48b6001600160a01b03168d6001600160a01b03168f6001600160a01b03167f5030027163f1655f8ac4c205c22bfe42c59f83e61a7c15da775499920b2143148b8a600301600e9054906101000a900463ffffffff168b60010160008d600301600e9054906101000a900463ffffffff1663ffffffff1663ffffffff168152602001908152602001600020600001600e9054906101000a90046001600160701b03168c60010160008e600301600e9054906101000a900463ffffffff1663ffffffff1663ffffffff168152602001908152602001600020600001601c9054906101000a900463ffffffff16604051611c8f9493929190613ea6565b60405180910390a4505b50909114159250505098975050505050505050565b6001600160a01b0385166000908152602088905260408120611ccf906128a2565b6001600160a01b038716600090815260208a90526040812091925090611cf4906128a8565b90505b6001600160a01b03811615801590611d4157506001600160a01b038716600090815260208a905260409020611d2b906128a2565b6001600160a01b0316816001600160a01b031614155b15611d9b576000611d588a8a8a858b8b8b8b6118f3565b90508015611d6c57611d6c89898486612079565b6001600160a01b038816600090815260208b9052604090209192508291611d9390836128c5565b915050611cf7565b505050505050505050565b6001600160a01b0384166000908152602087905260408120611dc7906128a2565b90506000611dd36118ef565b6001600160a01b038716600090815260208a90526040812091925090611df8906128a8565b90505b6001600160a01b03811615801590611e4557506001600160a01b038716600090815260208a905260409020611e2f906128a2565b6001600160a01b0316816001600160a01b031614155b15611d9b576000611e5c8a8a8a858b8b898c6119f9565b90508015611e7157611e718989848888612365565b6001600160a01b038816600090815260208b9052604090209193508391611e9890836128c5565b915050611dfb565b6000600160201b8210611ec55760405162461bcd60e51b815260040161047890614377565b5090565b6001600160a01b0384166000908152602086905260409020611eeb9084612440565b611f075760405162461bcd60e51b8152600401610478906141db565b6117b7846001600160a01b03166318160ddd6040518163ffffffff1660e01b815260040160206040518083038186803b158015611f4357600080fd5b505afa158015611f57573d6000803e3d6000fd5b505050506040513d601f19601f82011682018060405250810190611f7b9190613d6f565b6001600160a01b03808716600090815260018901602090815260408083209389168352929052209084846128e8565b6001600160a01b0384166000908152602086905260409020611fcc9084612440565b15611fe95760405162461bcd60e51b815260040161047890613f28565b6001600160a01b038416600090815260208690526040902054612027576001600160a01b038416600090815260208690526040902061202790612900565b6001600160a01b03841660009081526020869052604090206120499084612944565b6001600160a01b0380851660009081526001870160209081526040808320938716835292905220611f0790612a0c565b6120ab83838361208a610cff6118ef565b6001600160a01b0389166000908152609a6020526040902093929190612a22565b816001600160a01b0316836001600160a01b0316856001600160a01b03167fbbd41ee308597dd699317716979d8ce8edde7cdde9471c26bfab7752e1186c9460405160405180910390a450505050565b6001600160a01b038516600090815260208790526040812061211d9086612440565b1561213a5760405162461bcd60e51b8152600401610478906143f4565b6001600160a01b038616600090815260208890526040902054612178576001600160a01b038616600090815260208890526040902061217890612900565b6001600160a01b038616600090815260208890526040902061219a9086612944565b6001600160a01b03808716600090815260018901602090815260408083209389168352929052206121cd90858585612aea565b505050506001600160a01b0391821660009081526001939093016020908152604080852092909316845252902060030154600160701b900463ffffffff1690565b6001600160a01b0391821660009081526001939093016020908152604080852092909316845252902090565b6001600160a01b038416600090815260208690526040902061225c9084612440565b6122785760405162461bcd60e51b81526004016104789061419a565b6001600160a01b03808516600090815260018701602090815260408083209387168352929052206117b7908383612c30565b303b1590565b600054610100900460ff16806122c957506122c96122aa565b806122d7575060005460ff16155b6122f35760405162461bcd60e51b815260040161047890614302565b600054610100900460ff1615801561231e576000805460ff1961ff0019909116610100171660011790555b612326612c9e565b61232e612d1f565b8015612340576000805461ff00191690555b50565b6001600160a01b038216600090815260208490526040812061176d9083612440565b8115612394576001600160a01b038516600090815260996020526040902061238f90858584612df9565b6123b8565b6001600160a01b03851660009081526098602052604090206123b890858584612df9565b826001600160a01b0316846001600160a01b0316866001600160a01b03167f9684c938581734d57a998217c38505f0c4fc95afd0af9da2c97b9822ee7a66c8856040516124059190613e2e565b60405180910390a45050505050565b600081848411156124385760405162461bcd60e51b81526004016104789190613ed5565b505050900390565b60006001600160a01b03821660011480159061246457506001600160a01b03821615155b80156118e85750506001600160a01b03908116600090815260019290920160205260409091205416151590565b600061249e868484612e1c565b6109dd868686612faf565b600061176d848484612faf565b600080846001600160a01b03166370a08231306040518263ffffffff1660e01b81526004016124e59190613d87565b60206040518083038186803b1580156124fd57600080fd5b505afa158015612511573d6000803e3d6000fd5b505050506040513d601f19601f820116820180604052508101906125359190613d6f565b6001600160a01b0386166000908152609b602052604081205491925082821061255f576000612569565b61256983836118a6565b905080851115612577578094505b6001600160a01b0387166000908152609b602052604090205461259a908661308f565b6001600160a01b038089166000908152609b6020908152604080832094909455609c8152838220928a1682529190915220546125d6908661308f565b6001600160a01b038089166000818152609c60209081526040808320948c1680845294909152908190209390935591519091907f0f3ed8b918f23095606f705f6253b10267861573421cf05301b0f1f006c92b4490612636908990614454565b60405180910390a3509295945050505050565b600384015460009081908690600160701b900463ffffffff1661267e5760405162461bcd60e51b81526004016104789061416c565b61268887856130b4565b6001600160a01b0387166000908152602089905260409020549092506126c690889063ffffffff600160701b820416906001600160701b03166130e0565b6003880154909350600160701b900463ffffffff1683156127615760405180604001604052806126f588613184565b6001600160701b03908116825263ffffffff8085166020938401526001600160a01b038b1660009081528c845260409020845181549590940151909116600160701b0263ffffffff60701b19939092166001600160701b03199094169390931791909116179055612809565b6040805180820182526001600160a01b038916600090815260208b9052919091205481906127a19061279c906001600160701b03168a61308f565b613184565b6001600160701b03908116825263ffffffff8085166020938401526001600160a01b038b1660009081528c845260409020845181549590940151909116600160701b0263ffffffff60701b19939092166001600160701b031990941693909317919091161790555b63ffffffff808216600090815260018a01602052604090205461283c9161279c916001600160701b031690899061308f16565b63ffffffff9091166000908152600189016020526040902080546001600160701b03929092166001600160701b03199092169190911790555094509492505050565b6000620100008210611ec55760405162461bcd60e51b815260040161047890613f5f565b50600190565b60016000818152910160205260409020546001600160a01b031690565b6001600160a01b0380821660009081526001840160205260409020541692915050565b6128f984848363ffffffff16612e1c565b5090915550565b80541561291f5760405162461bcd60e51b815260040161047890614293565b60016000818152918101602052604090912080546001600160a01b0319169091179055565b6001600160a01b03811660011480159061296657506001600160a01b03811615155b6129825760405162461bcd60e51b815260040161047890613fa5565b6001600160a01b03818116600090815260018401602052604090205416156129bc5760405162461bcd60e51b815260040161047890614350565b60016000818152838201602052604080822080546001600160a01b039586168085529284208054969091166001600160a01b03199687161790559183905281549093169092179091558154019055565b6001018054600160701b600160e01b0319169055565b6001600160a01b0384166000908152602086905260409020612a459083856131a9565b6117b7846001600160a01b03166318160ddd6040518163ffffffff1660e01b815260040160206040518083038186803b158015612a8157600080fd5b505afa158015612a95573d6000803e3d6000fd5b505050506040513d601f19601f82011682018060405250810190612ab99190613d6f565b6001600160a01b038087166000908152600189016020908152604080832093891683529290529081209190846128e8565b8263ffffffff1660008111612b115760405162461bcd60e51b815260040161047890614041565b60028501805463ffffffff191663ffffffff86811691909117640100000000600160901b031916600160201b6001600160701b03871602179091556003860180546001600160701b03191690819055612b7b91611b0091600160701b900481169060019061308f16565b60038601805463ffffffff60701b191661ffff92909216600160701b90810292909217908190556040805160608101825260008082526001600160701b03978816602080840191825263ffffffff98891684860190815295879004891683526001909b01909a529190912090518154985192516001600160701b031990991690871617600160701b600160e01b03191691909516909102176001600160e01b0316600160e01b95909216949094021790555050565b8163ffffffff1660008111612c575760405162461bcd60e51b815260040161047890614041565b50600290920180546001600160701b03909316600160201b02640100000000600160901b031963ffffffff90931663ffffffff199094169390931791909116919091179055565b600054610100900460ff1680612cb75750612cb76122aa565b80612cc5575060005460ff16155b612ce15760405162461bcd60e51b815260040161047890614302565b600054610100900460ff1615801561232e576000805460ff1961ff0019909116610100171660011790558015612340576000805461ff001916905550565b600054610100900460ff1680612d385750612d386122aa565b80612d46575060005460ff16155b612d625760405162461bcd60e51b815260040161047890614302565b600054610100900460ff16158015612d8d576000805460ff1961ff0019909116610100171660011790555b6000612d976118a2565b606580546001600160a01b0319166001600160a01b038316908117909155604051919250906000907f8be0079c531659141344cd1fd0a4f28419497f9722a3daafe3b4186f6b6457e0908290a3508015612340576000805461ff001916905550565b6001600160a01b0383166000908152602085905260409020610e679082846131a9565b600183015463ffffffff828116600160e01b909204161415612e3d57612faa565b6001830154600090600160e01b900463ffffffff1615612e6e576001840154600160e01b900463ffffffff16612e70565b815b90506000612e7e83836118a6565b60018601549091506000906001600160701b031615612eaa5760018601546001600160701b0316612ebb565b612ebb670de0b6b3a7640000613184565b905060008083118015612ece5750865415155b15612f18578654612ee0908490613273565b90506000808711612ef2576000612efc565b612efc82886132ad565b9050612f1461279c6001600160701b0385168361308f565b9250505b6001870180546001600160701b0319166001600160701b038481169190911791829055612f529161279c91600160701b909104168361308f565b87600101600e6101000a8154816001600160701b0302191690836001600160701b03160217905550612f8385611ea0565b87600101601c6101000a81548163ffffffff021916908363ffffffff160217905550505050505b505050565b6001600160a01b0382166000908152600284016020526040812080546001600160801b031680612ff657612fea670de0b6b3a7640000613184565b6001600160701b031690505b6001860154600090613011906001600160701b0316836118a6565b9050600061302761302287846132ce565b6132ef565b604080516020808201835260018c01546001600160701b031682526001600160a01b039a909a1660009081526002909b01909952909820965187546fffffffffffffffffffffffffffffffff19166001600160801b0390911617909655509495945050505050565b6000828201838110156118e85760405162461bcd60e51b8152600401610478906140ad565b60006130c08383613314565b156130d7576130cf838361334a565b5060016117e5565b50600092915050565b6003830154600090819063ffffffff600160701b9091048116908516108015613128575063ffffffff841660009081526001860160205260409020546001600160701b031615155b1561176d5763ffffffff84166000908152600186016020526040812054613162906001600160801b038616906001600160701b03166132ad565b60028701549091506109dd90600160201b90046001600160701b0316826132ce565b6000600160701b8210611ec55760405162461bcd60e51b8152600401610478906142b9565b6001600160a01b0381166001148015906131cb57506001600160a01b03811615155b6131e75760405162461bcd60e51b815260040161047890613fa5565b6001600160a01b0382811660009081526001850160205260409020548116908216146132255760405162461bcd60e51b815260040161047890613fce565b6001600160a01b039081166000818152600185016020526040808220805495851683529082208054959094166001600160a01b03199586161790935552805490911690558054600019019055565b600082613282575060006117e5565b8282028284828161328f57fe5b04146118e85760405162461bcd60e51b81526004016104789061421d565b6000806132c284670de0b6b3a7640000613273565b905061176d8184613571565b6000806132db8385613273565b905061176d81670de0b6b3a7640000613571565b6000600160801b8210611ec55760405162461bcd60e51b8152600401610478906140e4565b600382015463ffffffff600160701b90910481166000908152600184016020526040902054600160e01b90041681101592915050565b81816133568282613314565b6133725760405162461bcd60e51b8152600401610478906143bd565b600384015463ffffffff600160701b90910481166000908152600180870160205260408220546002880154600160e01b9091048416936133cf92916133c991908116906133c3908a9088906118a616565b90613571565b9061308f565b60028701549091506000906133fa906133f390849063ffffffff9081169061327316565b849061308f565b600388015463ffffffff600160701b8083048216600090815260018c0160205260409020549394506134429361279c936001600160701b039081169392909104169061308f16565b6003880180546001600160701b0319166001600160701b0392909216919091179081905561348790611b0090600160701b900463ffffffff9081169060019061308f16565b60038801805463ffffffff60701b191661ffff92909216600160701b02919091179055604080516060810182526000815260028901546001600160701b03600160201b9091041660208201529081016134df83611ea0565b63ffffffff9081169091526003890154600160701b90819004821660009081526001909a01602090815260409a8b9020845181549286015195909c01516001600160701b03199092166001600160701b039c8d1617600160701b600160e01b0319169b909416909102999099176001600160e01b0316600160e01b999091169890980297909717909655505050505050565b60006118e883836040518060400160405280601a81526020017f536166654d6174683a206469766973696f6e206279207a65726f000000000000815250600081836135cf5760405162461bcd60e51b81526004016104789190613ed5565b5060008385816135db57fe5b0495945050505050565b604080518082019091526000808252602082015290565b604080516060810182526000808252602082018190529181019190915290565b6040805160a08101825260008082526020820181905291810182905260608101829052608081019190915290565b80356001600160a01b03811681146117e557600080fd5b600082601f830112613671578081fd5b813561368461367f826144bf565b614498565b8181529150602080830190848101818402860182018710156136a557600080fd5b60005b848110156136cc576136ba888361364a565b845292820192908201906001016136a8565b505050505092915050565b6000604082840312156136e8578081fd5b6136f26040614498565b90506136fe838361364a565b815261370d836020840161364a565b602082015292915050565b600060208284031215613729578081fd5b6118e8838361364a565b60008060408385031215613745578081fd5b61374f848461364a565b915061375e846020850161364a565b90509250929050565b60008060006060848603121561377b578081fd5b613785858561364a565b9250613794856020860161364a565b91506137a3856040860161364a565b90509250925092565b600080600080608085870312156137c1578081fd5b6137cb868661364a565b93506137da866020870161364a565b92506137e9866040870161364a565b91506137f8866060870161364a565b905092959194509250565b60008060008060808587031215613818578384fd5b613822868661364a565b9350613831866020870161364a565b9250613840866040870161364a565b91506060850135613850816144f4565b939692955090935050565b600080600080600060a08688031215613872578081fd5b61387c878761364a565b945061388b876020880161364a565b935061389a876040880161364a565b925060608601356138aa816144f4565b91506138b9876080880161364a565b90509295509295909350565b600080600080600060a086880312156138dc578081fd5b6138e6878761364a565b94506138f5876020880161364a565b9350613904876040880161364a565b92506060860135613914816144f4565b9150608086013561ffff8116811461392a578182fd5b809150509295509295909350565b60008060008060008060c08789031215613950578384fd5b863561395b816144df565b9550602087013561396b816144df565b9450604087013561397b816144df565b9350606087013561398b816144f4565b9250608087013561399b81614502565b915060a08701356001600160701b03811681146139b6578182fd5b809150509295509295509295565b600080600080600080600060e0888a0312156139de578485fd5b87356139e9816144df565b965060208801356139f9816144df565b95506040880135613a09816144df565b94506060880135613a19816144f4565b93506080880135613a2981614502565b925060a08801356001600160701b0381168114613a44578182fd5b915060c0880135613a5481614502565b8091505092959891949750929550565b60008060008060808587031215613a79578182fd5b8435613a84816144df565b93506020850135613a94816144df565b92506040850135613aa4816144df565b9396929550929360600135925050565b600080600060608486031215613ac8578081fd5b8335613ad3816144df565b92506020840135613ae3816144df565b929592945050506040919091013590565b60008060008060808587031215613b09578182fd5b8435613b14816144df565b93506020850135613b24816144df565b9250604085013591506060850135613850816144df565b60008060008060808587031215613b50578182fd5b613b5a868661364a565b9350602085013592506137e9866040870161364a565b600080600080600060608688031215613b87578283fd5b853567ffffffffffffffff80821115613b9e578485fd5b818801915088601f830112613bb1578485fd5b813581811115613bbf578586fd5b60208a81604084028601011115613bd4578687fd5b8084019850819750613be88b828c0161364a565b965060408a0135935082841115613bfd578485fd5b838a0193508a601f850112613c10578485fd5b8335915082821115613c20578485fd5b8a818284028601011115613c32578485fd5b979a96995094975050909401935090919050565b600080600060608486031215613c5a578081fd5b833567ffffffffffffffff80821115613c71578283fd5b818601915086601f830112613c84578283fd5b8135613c9261367f826144bf565b808282526020808301925080860160408c838288028a01011115613cb4578889fd5b8897505b85881015613ce057613cca8d836136d7565b8552600197909701969382019390810190613cb8565b839a50613cef8d848e0161364a565b9950808c0135975050505050505080821115613d09578283fd5b50613d1686828701613661565b9150509250925092565b600060208284031215613d31578081fd5b81516118e8816144f4565b600060408284031215613d4d578081fd5b6118e883836136d7565b600060208284031215613d68578081fd5b5035919050565b600060208284031215613d80578081fd5b5051919050565b6001600160a01b0391909116815260200190565b6001600160a01b039290921682526001600160801b0316602082015260400190565b6001600160a01b03929092168252602082015260400190565b602080825282518282018190526000919060409081850190868401855b82811015613e2157815180516001600160a01b03168552860151868501529284019290850190600101613df3565b5091979650505050505050565b901515815260200190565b92151583526001600160a01b03919091166020830152604082015260600190565b921515835261ffff9190911660208301526001600160701b0316604082015260600190565b921515835263ffffffff9190911660208301526001600160701b0316604082015260600190565b931515845263ffffffff92831660208501526001600160701b0391909116604084015216606082015260800190565b6000602080835283518082850152825b81811015613f0157858101830151858201604001528201613ee5565b81811115613f125783604083870101525b50601f01601f1916929092016040019392505050565b6020808252601e908201527f42616c616e6365447269704d616e616765722f647269702d6163746976650000604082015260600190565b60208082526026908201527f53616665436173743a2076616c756520646f65736e27742066697420696e203160408201526536206269747360d01b606082015260800190565b6020808252600f908201526e496e76616c6964206164647265737360881b604082015260600190565b602080825260139082015272496e76616c696420707265764164647265737360681b604082015260600190565b60208082526026908201527f4f776e61626c653a206e6577206f776e657220697320746865207a65726f206160408201526564647265737360d01b606082015260800190565b60208082526019908201527f566f6c756d65447269702f706572696f642d67742d7a65726f00000000000000604082015260600190565b6020808252818101527f436f6d7074726f6c6c65722f726573657276652d726174652d6c74652d6f6e65604082015260600190565b6020808252601b908201527f536166654d6174683a206164646974696f6e206f766572666c6f770000000000604082015260600190565b60208082526027908201527f53616665436173743a2076616c756520646f65736e27742066697420696e20316040820152663238206269747360c81b606082015260800190565b60208082526021908201527f436f6d7074726f6c6c65722f636c61696d2d7472616e736665722d6661696c656040820152601960fa1b606082015260800190565b602080825260149082015273159bdb1d5b59511c9a5c0bdb9bcb5c195c9a5bd960621b604082015260600190565b60208082526021908201527f566f6c756d65447269704d616e616765722f647269702d6e6f742d61637469766040820152606560f81b606082015260800190565b60208082526022908201527f42616c616e6365447269704d616e616765722f647269702d6e6f742d61637469604082015261766560f01b606082015260800190565b60208082526021908201527f536166654d6174683a206d756c7469706c69636174696f6e206f766572666c6f6040820152607760f81b606082015260800190565b6020808252818101527f4f776e61626c653a2063616c6c6572206973206e6f7420746865206f776e6572604082015260600190565b6020808252600c908201526b105b1c9958591e481a5b9a5d60a21b604082015260600190565b60208082526029908201527f53616665436173743a2076616c756520646f65736e27742066697420696e206160408201526837103ab4b73a18989960b91b606082015260800190565b6020808252602e908201527f436f6e747261637420696e7374616e63652068617320616c726561647920626560408201526d195b881a5b9a5d1a585b1a5e995960921b606082015260800190565b6020808252600d908201526c105b1c9958591e481859191959609a1b604082015260600190565b60208082526026908201527f53616665436173743a2076616c756520646f65736e27742066697420696e203360408201526532206269747360d01b606082015260800190565b6020808252601a908201527f566f6c756d65447269702f706572696f642d6e6f742d6f766572000000000000604082015260600190565b6020808252601d908201527f566f6c756d65447269704d616e616765722f647269702d616374697665000000604082015260600190565b6001600160701b03938416815291909216602082015263ffffffff909116604082015260600190565b90815260200190565b9283526001600160801b0391909116602083015263ffffffff16604082015260600190565b9283526020830191909152604082015260600190565b60405181810167ffffffffffffffff811182821017156144b757600080fd5b604052919050565b600067ffffffffffffffff8211156144d5578081fd5b5060209081020190565b6001600160a01b038116811461234057600080fd5b801515811461234057600080fd5b63ffffffff8116811461234057600080fdfea2646970667358221220f609af3c468f6129658a6dc0841a4cf059ceebfa7c1a6e372e22a19d0fb4e06c64736f6c634300060c0033",
  "devdoc": {
    "kind": "dev",
    "methods": {
      "activateBalanceDrip(address,address,address,uint256)": {
        "params": {
          "dripRatePerSecond": "The amount of drip tokens that are awarded each second to the total supply of measure.",
          "dripToken": "The token that is dripped to users.",
          "measure": "The ERC20 token whose balances determines user's share of the drip rate.",
          "source": "The balance drip \"source\"; i.e. a Prize Pool address."
        }
      },
      "activateVolumeDrip(address,address,address,bool,uint32,uint112,uint32)": {
        "params": {
          "dripAmount": "The amount of dripTokens disbursed each period.",
          "dripToken": "The token that is being disbursed",
          "endTime": "The time at which the first period ends.",
          "isReferral": "Whether this volume drip is for referrals",
          "measure": "The Prize Pool controlled token whose volume should be measured",
          "periodSeconds": "The period of the volume drip, in seconds",
          "source": "The Prize Pool for which to bind to"
        }
      },
      "balanceOfDrip(address,address)": {
        "params": {
          "dripToken": "The token that is being disbursed",
          "user": "The user whose balance should be checked."
        },
        "returns": {
          "_0": "The claimable balance of the dripToken by the user."
        }
      },
      "beforeTokenMint(address,uint256,address,address)": {
        "params": {
          "amount": "The amount of tokens they are minting",
          "measure": "The measure token they are minting",
          "referrer": "The user who referred the minting.",
          "to": "The user who is minting the tokens"
        }
      },
      "beforeTokenTransfer(address,address,uint256,address)": {
        "params": {
          "from": "The user who is sending the tokens",
          "measure": "The measure token they are burning",
          "to": "The user who is receiving the tokens"
        }
      },
      "claimDrip(address,address,uint256)": {
        "params": {
          "amount": "The amount of drip token to claim",
          "dripToken": "The drip token to claim",
          "user": "The user for whom to claim the drip tokens"
        }
      },
      "deactivateBalanceDrip(address,address,address,address)": {
        "params": {
          "dripToken": "The token that is dripped to users.",
          "measure": "The ERC20 token whose balances determines user's share of the drip rate.",
          "prevDripToken": "The previous drip token in the balance drip list.  If the dripToken is the first address, then the previous address is the SENTINEL address: 0x0000000000000000000000000000000000000001",
          "source": "The balance drip \"source\"; i.e. a Prize Pool address."
        }
      },
      "deactivateVolumeDrip(address,address,address,bool,address)": {
        "params": {
          "dripToken": "The token that is being disbursed",
          "isReferral": "Whether this volume drip is for referrals",
          "measure": "The Prize Pool controlled token whose volume should be measured",
          "prevDripToken": "The previous drip token in the volume drip list.  Is different for referrals vs non-referral volume drips.",
          "source": "The Prize Pool for which to bind to"
        }
      },
      "getBalanceDrip(address,address,address)": {
        "params": {
          "dripToken": "The token that is being dripped to users",
          "measure": "The token that measure's a users share of the drip",
          "source": "The balance drip \"source\"; i.e. Prize Pool"
        },
        "returns": {
          "dripRatePerSecond": "The current drip rate of the balance drip.",
          "exchangeRateMantissa": "The current exchange rate from measure to dripTokens",
          "timestamp": "The timestamp at which the balance drip was last updated."
        }
      },
      "initialize(address)": {
        "params": {
          "_owner": "The address to set as the owner of the contract"
        }
      },
      "owner()": {
        "details": "Returns the address of the current owner."
      },
      "renounceOwnership()": {
        "details": "Leaves the contract without owner. It will not be possible to call `onlyOwner` functions anymore. Can only be called by the current owner. NOTE: Renouncing ownership will leave the contract without an owner, thereby removing any functionality that is only available to the owner."
      },
      "reserveRateMantissa()": {
        "returns": {
          "_0": "The current reserve rate mantissa"
        }
      },
      "setBalanceDripRate(address,address,address,uint256)": {
        "params": {
          "dripRatePerSecond": "The new drip rate per second",
          "dripToken": "The token that is dripped to the user",
          "measure": "The token to use to measure a user's share of the drip rate",
          "source": "The balance drip \"source\"; i.e. Prize Pool"
        }
      },
      "setReserveRateMantissa(uint256)": {
        "params": {
          "__reserveRateMantissa": "The new reserve rate.  Must be less than or equal to 1."
        }
      },
      "setVolumeDrip(address,address,address,bool,uint32,uint112)": {
        "params": {
          "dripAmount": "The amount of tokens to drip for the next period",
          "dripToken": "The token that is being disbursed",
          "isReferral": "Whether this volume drip is a referral",
          "measure": "The token whose volume is being measured",
          "periodSeconds": "The length to use for the next period",
          "source": "The Prize Pool of the volume drip"
        }
      },
      "transferOwnership(address)": {
        "details": "Transfers ownership of the contract to a new account (`newOwner`). Can only be called by the current owner."
      },
      "updateAndClaimDrips((address,address)[],address,address[])": {
        "params": {
          "dripTokens": "The drip tokens whose entire balance will be claimed after the update.",
          "pairs": "The (source, measure) pairs of drips to update for the given user",
          "user": "The user for whom to update and claim tokens"
        }
      },
      "updateDrips((address,address)[],address,address[])": {
        "details": "This function will be useful to check the *current* claim balances for a user. Just need to run this as a constant function to see the latest balances. in order to claim the values, this function needs to be run alongside a claimDrip function.",
        "params": {
          "dripTokens": "The drip tokens to retrieve claim balances for.",
          "pairs": "The (source, measure) pairs to update.  For each pair all of the balance drips, volume drips, and referral volume drips will be updated.",
          "user": "The user whose drips and balances will be updated."
        },
        "returns": {
          "_0": "The claimable balance of each of the passed drip tokens for the user.  These are the post-update balances, and therefore the most accurate."
        }
      }
    },
    "title": "The Comptroller disburses rewards to pool users and captures reserve fees from Prize Pools.",
    "version": 1
  },
  "userdoc": {
    "events": {
      "BalanceDripActivated(address,address,address,uint256)": {
        "notice": "Emitted when a balance drip is actived"
      },
      "BalanceDripDeactivated(address,address,address)": {
        "notice": "Emitted when a balance drip is deactivated"
      },
      "BalanceDripDripped(address,address,address,address,uint256)": {
        "notice": "Emitted when a balance drip drips tokens"
      },
      "BalanceDripRateSet(address,address,address,uint256)": {
        "notice": "Emitted when a balance drip rate is updated"
      },
      "DripTokenClaimed(address,address,address,uint256)": {
        "notice": "Emitted when a user claims drip tokens"
      },
      "ReserveRateMantissaSet(uint256)": {
        "notice": "Emitted when the reserve rate mantissa is changed"
      },
      "VolumeDripActivated(address,address,address,bool,uint256,uint256)": {
        "notice": "Emitted when a volume drip is activated"
      },
      "VolumeDripDeactivated(address,address,address,bool)": {
        "notice": "Emitted when a volume drip is deactivated."
      },
      "VolumeDripDripped(address,address,address,bool,address,uint256)": {
        "notice": "Emitted when a volue drip drips tokens"
      },
      "VolumeDripPeriodEnded(address,address,address,bool,uint32,uint256)": {
        "notice": "Emitted when a volume drip period has ended"
      },
      "VolumeDripPeriodStarted(address,address,address,bool,uint32,uint256,uint256)": {
        "notice": "Emitted when a new volume drip period has started"
      },
      "VolumeDripSet(address,address,address,bool,uint256,uint256)": {
        "notice": "Emitted when a volume drip is updated"
      }
    },
    "kind": "user",
    "methods": {
      "activateBalanceDrip(address,address,address,uint256)": {
        "notice": "Activates a balance drip.  Only callable by the owner."
      },
      "activateVolumeDrip(address,address,address,bool,uint32,uint112,uint32)": {
        "notice": "Activates a volume drip.  Volume drips distribute tokens to users based on their share of the activity within a period."
      },
      "balanceOfDrip(address,address)": {
        "notice": "Returns a users claimable balance of drip tokens.  This is the combination of all balance and volume drips."
      },
      "beforeTokenMint(address,uint256,address,address)": {
        "notice": "Called by a \"source\" (i.e. Prize Pool) when a user mints new \"measure\" tokens."
      },
      "beforeTokenTransfer(address,address,uint256,address)": {
        "notice": "Called by a \"source\" (i.e. Prize Pool) when tokens change hands or are burned"
      },
      "claimDrip(address,address,uint256)": {
        "notice": "Claims a drip token on behalf of a user.  If the passed amount is less than or equal to the users drip balance, then they will be transferred that amount.  Otherwise, it fails."
      },
      "deactivateBalanceDrip(address,address,address,address)": {
        "notice": "Deactivates a balance drip.  Only callable by the owner."
      },
      "deactivateVolumeDrip(address,address,address,bool,address)": {
        "notice": "Deactivates a volume drip.  Volume drips distribute tokens to users based on their share of the activity within a period."
      },
      "getBalanceDrip(address,address,address)": {
        "notice": "Returns the state of a balance drip."
      },
      "initialize(address)": {
        "notice": "Initializes a new Comptroller."
      },
      "reserveRateMantissa()": {
        "notice": "Returns the reserve rate mantissa.  This is a fixed point 18 number, like \"Ether\". Pools will contribute this fraction of the interest they earn to the protocol."
      },
      "setBalanceDripRate(address,address,address,uint256)": {
        "notice": "Sets the drip rate for a balance drip.  The drip rate is the number of drip tokens given to the entire supply of measure tokens.  Only callable by the owner."
      },
      "setReserveRateMantissa(uint256)": {
        "notice": "Sets the reserve rate mantissa.  Only callable by the owner."
      },
      "setVolumeDrip(address,address,address,bool,uint32,uint112)": {
        "notice": "Sets the parameters for the *next* volume drip period.  The source, measure, dripToken and isReferral combined are used to uniquely identify a volume drip.  Only callable by the owner."
      },
      "updateAndClaimDrips((address,address)[],address,address[])": {
        "notice": "Updates the given drips for a user and then claims the given drip tokens"
      },
      "updateDrips((address,address)[],address,address[])": {
        "notice": "Updates all drips. Drip may need to be \"poked\" from time-to-time if there is little transaction activity.  This call will poke all of the drips and update the claim balances for the given user."
      }
    },
    "version": 1
  },
  "storageLayout": {
    "storage": [
      {
        "astId": 1377,
        "contract": "contracts/comptroller/Comptroller.sol:Comptroller",
        "label": "initialized",
        "offset": 0,
        "slot": "0",
        "type": "t_bool"
      },
      {
        "astId": 1380,
        "contract": "contracts/comptroller/Comptroller.sol:Comptroller",
        "label": "initializing",
        "offset": 1,
        "slot": "0",
        "type": "t_bool"
      },
      {
        "astId": 1445,
        "contract": "contracts/comptroller/Comptroller.sol:Comptroller",
        "label": "______gap",
        "offset": 0,
        "slot": "1",
        "type": "t_array(t_uint256)50_storage"
      },
      {
        "astId": 1370,
        "contract": "contracts/comptroller/Comptroller.sol:Comptroller",
        "label": "__gap",
        "offset": 0,
        "slot": "51",
        "type": "t_array(t_uint256)50_storage"
      },
      {
        "astId": 1457,
        "contract": "contracts/comptroller/Comptroller.sol:Comptroller",
        "label": "_owner",
        "offset": 0,
        "slot": "101",
        "type": "t_address"
      },
      {
        "astId": 1575,
        "contract": "contracts/comptroller/Comptroller.sol:Comptroller",
        "label": "__gap",
        "offset": 0,
        "slot": "102",
        "type": "t_array(t_uint256)49_storage"
      },
      {
        "astId": 8591,
        "contract": "contracts/comptroller/Comptroller.sol:Comptroller",
        "label": "_reserveRateMantissa",
        "offset": 0,
        "slot": "151",
        "type": "t_uint256"
      },
      {
        "astId": 8595,
        "contract": "contracts/comptroller/Comptroller.sol:Comptroller",
        "label": "volumeDrips",
        "offset": 0,
        "slot": "152",
        "type": "t_mapping(t_address,t_struct(State)9949_storage)"
      },
      {
        "astId": 8599,
        "contract": "contracts/comptroller/Comptroller.sol:Comptroller",
        "label": "referralVolumeDrips",
        "offset": 0,
        "slot": "153",
        "type": "t_mapping(t_address,t_struct(State)9949_storage)"
      },
      {
        "astId": 8603,
        "contract": "contracts/comptroller/Comptroller.sol:Comptroller",
        "label": "balanceDrips",
        "offset": 0,
        "slot": "154",
        "type": "t_mapping(t_address,t_struct(State)9202_storage)"
      },
      {
        "astId": 8607,
        "contract": "contracts/comptroller/Comptroller.sol:Comptroller",
        "label": "dripTokenTotalSupply",
        "offset": 0,
        "slot": "155",
        "type": "t_mapping(t_address,t_uint256)"
      },
      {
        "astId": 8613,
        "contract": "contracts/comptroller/Comptroller.sol:Comptroller",
        "label": "dripTokenBalances",
        "offset": 0,
        "slot": "156",
        "type": "t_mapping(t_address,t_mapping(t_address,t_uint256))"
      }
    ],
    "types": {
      "t_address": {
        "encoding": "inplace",
        "label": "address",
        "numberOfBytes": "20"
      },
      "t_array(t_uint256)49_storage": {
        "base": "t_uint256",
        "encoding": "inplace",
        "label": "uint256[49]",
        "numberOfBytes": "1568"
      },
      "t_array(t_uint256)50_storage": {
        "base": "t_uint256",
        "encoding": "inplace",
        "label": "uint256[50]",
        "numberOfBytes": "1600"
      },
      "t_bool": {
        "encoding": "inplace",
        "label": "bool",
        "numberOfBytes": "1"
      },
      "t_mapping(t_address,t_address)": {
        "encoding": "mapping",
        "key": "t_address",
        "label": "mapping(address => address)",
        "numberOfBytes": "32",
        "value": "t_address"
      },
      "t_mapping(t_address,t_mapping(t_address,t_struct(State)8894_storage))": {
        "encoding": "mapping",
        "key": "t_address",
        "label": "mapping(address => mapping(address => struct BalanceDrip.State))",
        "numberOfBytes": "32",
        "value": "t_mapping(t_address,t_struct(State)8894_storage)"
      },
      "t_mapping(t_address,t_mapping(t_address,t_struct(State)9455_storage))": {
        "encoding": "mapping",
        "key": "t_address",
        "label": "mapping(address => mapping(address => struct VolumeDrip.State))",
        "numberOfBytes": "32",
        "value": "t_mapping(t_address,t_struct(State)9455_storage)"
      },
      "t_mapping(t_address,t_mapping(t_address,t_uint256))": {
        "encoding": "mapping",
        "key": "t_address",
        "label": "mapping(address => mapping(address => uint256))",
        "numberOfBytes": "32",
        "value": "t_mapping(t_address,t_uint256)"
      },
      "t_mapping(t_address,t_struct(Deposit)9429_storage)": {
        "encoding": "mapping",
        "key": "t_address",
        "label": "mapping(address => struct VolumeDrip.Deposit)",
        "numberOfBytes": "32",
        "value": "t_struct(Deposit)9429_storage"
      },
      "t_mapping(t_address,t_struct(Mapping)18006_storage)": {
        "encoding": "mapping",
        "key": "t_address",
        "label": "mapping(address => struct MappedSinglyLinkedList.Mapping)",
        "numberOfBytes": "32",
        "value": "t_struct(Mapping)18006_storage"
      },
      "t_mapping(t_address,t_struct(State)8894_storage)": {
        "encoding": "mapping",
        "key": "t_address",
        "label": "mapping(address => struct BalanceDrip.State)",
        "numberOfBytes": "32",
        "value": "t_struct(State)8894_storage"
      },
      "t_mapping(t_address,t_struct(State)9202_storage)": {
        "encoding": "mapping",
        "key": "t_address",
        "label": "mapping(address => struct BalanceDripManager.State)",
        "numberOfBytes": "32",
        "value": "t_struct(State)9202_storage"
      },
      "t_mapping(t_address,t_struct(State)9455_storage)": {
        "encoding": "mapping",
        "key": "t_address",
        "label": "mapping(address => struct VolumeDrip.State)",
        "numberOfBytes": "32",
        "value": "t_struct(State)9455_storage"
      },
      "t_mapping(t_address,t_struct(State)9949_storage)": {
        "encoding": "mapping",
        "key": "t_address",
        "label": "mapping(address => struct VolumeDripManager.State)",
        "numberOfBytes": "32",
        "value": "t_struct(State)9949_storage"
      },
      "t_mapping(t_address,t_struct(UserState)8881_storage)": {
        "encoding": "mapping",
        "key": "t_address",
        "label": "mapping(address => struct BalanceDrip.UserState)",
        "numberOfBytes": "32",
        "value": "t_struct(UserState)8881_storage"
      },
      "t_mapping(t_address,t_uint256)": {
        "encoding": "mapping",
        "key": "t_address",
        "label": "mapping(address => uint256)",
        "numberOfBytes": "32",
        "value": "t_uint256"
      },
      "t_mapping(t_uint32,t_struct(Period)9436_storage)": {
        "encoding": "mapping",
        "key": "t_uint32",
        "label": "mapping(uint32 => struct VolumeDrip.Period)",
        "numberOfBytes": "32",
        "value": "t_struct(Period)9436_storage"
      },
      "t_struct(Deposit)9429_storage": {
        "encoding": "inplace",
        "label": "struct VolumeDrip.Deposit",
        "members": [
          {
            "astId": 9426,
            "contract": "contracts/comptroller/Comptroller.sol:Comptroller",
            "label": "balance",
            "offset": 0,
            "slot": "0",
            "type": "t_uint112"
          },
          {
            "astId": 9428,
            "contract": "contracts/comptroller/Comptroller.sol:Comptroller",
            "label": "period",
            "offset": 14,
            "slot": "0",
            "type": "t_uint32"
          }
        ],
        "numberOfBytes": "32"
      },
      "t_struct(Mapping)18006_storage": {
        "encoding": "inplace",
        "label": "struct MappedSinglyLinkedList.Mapping",
        "members": [
          {
            "astId": 18001,
            "contract": "contracts/comptroller/Comptroller.sol:Comptroller",
            "label": "count",
            "offset": 0,
            "slot": "0",
            "type": "t_uint256"
          },
          {
            "astId": 18005,
            "contract": "contracts/comptroller/Comptroller.sol:Comptroller",
            "label": "addressMap",
            "offset": 0,
            "slot": "1",
            "type": "t_mapping(t_address,t_address)"
          }
        ],
        "numberOfBytes": "64"
      },
      "t_struct(Period)9436_storage": {
        "encoding": "inplace",
        "label": "struct VolumeDrip.Period",
        "members": [
          {
            "astId": 9431,
            "contract": "contracts/comptroller/Comptroller.sol:Comptroller",
            "label": "totalSupply",
            "offset": 0,
            "slot": "0",
            "type": "t_uint112"
          },
          {
            "astId": 9433,
            "contract": "contracts/comptroller/Comptroller.sol:Comptroller",
            "label": "dripAmount",
            "offset": 14,
            "slot": "0",
            "type": "t_uint112"
          },
          {
            "astId": 9435,
            "contract": "contracts/comptroller/Comptroller.sol:Comptroller",
            "label": "endTime",
            "offset": 28,
            "slot": "0",
            "type": "t_uint32"
          }
        ],
        "numberOfBytes": "32"
      },
      "t_struct(State)8894_storage": {
        "encoding": "inplace",
        "label": "struct BalanceDrip.State",
        "members": [
          {
            "astId": 8883,
            "contract": "contracts/comptroller/Comptroller.sol:Comptroller",
            "label": "dripRatePerSecond",
            "offset": 0,
            "slot": "0",
            "type": "t_uint256"
          },
          {
            "astId": 8885,
            "contract": "contracts/comptroller/Comptroller.sol:Comptroller",
            "label": "exchangeRateMantissa",
            "offset": 0,
            "slot": "1",
            "type": "t_uint112"
          },
          {
            "astId": 8887,
            "contract": "contracts/comptroller/Comptroller.sol:Comptroller",
            "label": "totalDripped",
            "offset": 14,
            "slot": "1",
            "type": "t_uint112"
          },
          {
            "astId": 8889,
            "contract": "contracts/comptroller/Comptroller.sol:Comptroller",
            "label": "timestamp",
            "offset": 28,
            "slot": "1",
            "type": "t_uint32"
          },
          {
            "astId": 8893,
            "contract": "contracts/comptroller/Comptroller.sol:Comptroller",
            "label": "userStates",
            "offset": 0,
            "slot": "2",
            "type": "t_mapping(t_address,t_struct(UserState)8881_storage)"
          }
        ],
        "numberOfBytes": "96"
      },
      "t_struct(State)9202_storage": {
        "encoding": "inplace",
        "label": "struct BalanceDripManager.State",
        "members": [
          {
            "astId": 9195,
            "contract": "contracts/comptroller/Comptroller.sol:Comptroller",
            "label": "activeBalanceDrips",
            "offset": 0,
            "slot": "0",
            "type": "t_mapping(t_address,t_struct(Mapping)18006_storage)"
          },
          {
            "astId": 9201,
            "contract": "contracts/comptroller/Comptroller.sol:Comptroller",
            "label": "balanceDrips",
            "offset": 0,
            "slot": "1",
            "type": "t_mapping(t_address,t_mapping(t_address,t_struct(State)8894_storage))"
          }
        ],
        "numberOfBytes": "64"
      },
      "t_struct(State)9455_storage": {
        "encoding": "inplace",
        "label": "struct VolumeDrip.State",
        "members": [
          {
            "astId": 9440,
            "contract": "contracts/comptroller/Comptroller.sol:Comptroller",
            "label": "deposits",
            "offset": 0,
            "slot": "0",
            "type": "t_mapping(t_address,t_struct(Deposit)9429_storage)"
          },
          {
            "astId": 9444,
            "contract": "contracts/comptroller/Comptroller.sol:Comptroller",
            "label": "periods",
            "offset": 0,
            "slot": "1",
            "type": "t_mapping(t_uint32,t_struct(Period)9436_storage)"
          },
          {
            "astId": 9446,
            "contract": "contracts/comptroller/Comptroller.sol:Comptroller",
            "label": "nextPeriodSeconds",
            "offset": 0,
            "slot": "2",
            "type": "t_uint32"
          },
          {
            "astId": 9448,
            "contract": "contracts/comptroller/Comptroller.sol:Comptroller",
            "label": "nextDripAmount",
            "offset": 4,
            "slot": "2",
            "type": "t_uint112"
          },
          {
            "astId": 9450,
            "contract": "contracts/comptroller/Comptroller.sol:Comptroller",
            "label": "__gap",
            "offset": 18,
            "slot": "2",
            "type": "t_uint112"
          },
          {
            "astId": 9452,
            "contract": "contracts/comptroller/Comptroller.sol:Comptroller",
            "label": "totalDripped",
            "offset": 0,
            "slot": "3",
            "type": "t_uint112"
          },
          {
            "astId": 9454,
            "contract": "contracts/comptroller/Comptroller.sol:Comptroller",
            "label": "periodCount",
            "offset": 14,
            "slot": "3",
            "type": "t_uint32"
          }
        ],
        "numberOfBytes": "128"
      },
      "t_struct(State)9949_storage": {
        "encoding": "inplace",
        "label": "struct VolumeDripManager.State",
        "members": [
          {
            "astId": 9942,
            "contract": "contracts/comptroller/Comptroller.sol:Comptroller",
            "label": "activeVolumeDrips",
            "offset": 0,
            "slot": "0",
            "type": "t_mapping(t_address,t_struct(Mapping)18006_storage)"
          },
          {
            "astId": 9948,
            "contract": "contracts/comptroller/Comptroller.sol:Comptroller",
            "label": "volumeDrips",
            "offset": 0,
            "slot": "1",
            "type": "t_mapping(t_address,t_mapping(t_address,t_struct(State)9455_storage))"
          }
        ],
        "numberOfBytes": "64"
      },
      "t_struct(UserState)8881_storage": {
        "encoding": "inplace",
        "label": "struct BalanceDrip.UserState",
        "members": [
          {
            "astId": 8880,
            "contract": "contracts/comptroller/Comptroller.sol:Comptroller",
            "label": "lastExchangeRateMantissa",
            "offset": 0,
            "slot": "0",
            "type": "t_uint128"
          }
        ],
        "numberOfBytes": "32"
      },
      "t_uint112": {
        "encoding": "inplace",
        "label": "uint112",
        "numberOfBytes": "14"
      },
      "t_uint128": {
        "encoding": "inplace",
        "label": "uint128",
        "numberOfBytes": "16"
      },
      "t_uint256": {
        "encoding": "inplace",
        "label": "uint256",
        "numberOfBytes": "32"
      },
      "t_uint32": {
        "encoding": "inplace",
        "label": "uint32",
        "numberOfBytes": "4"
      }
    }
  },
  "gasEstimates": {
    "creation": {
      "codeDepositCost": "3547600",
      "executionCost": "3982",
      "totalCost": "3551582"
    },
    "external": {
      "activateBalanceDrip(address,address,address,uint256)": "infinite",
      "activateVolumeDrip(address,address,address,bool,uint32,uint112,uint32)": "infinite",
      "balanceOfDrip(address,address)": "infinite",
      "beforeTokenMint(address,uint256,address,address)": "infinite",
      "beforeTokenTransfer(address,address,uint256,address)": "infinite",
      "claimDrip(address,address,uint256)": "infinite",
      "deactivateBalanceDrip(address,address,address,address)": "infinite",
      "deactivateVolumeDrip(address,address,address,bool,address)": "infinite",
      "getBalanceDrip(address,address,address)": "infinite",
      "getVolumeDrip(address,address,address,bool)": "infinite",
      "getVolumeDripPeriod(address,address,address,bool,uint16)": "infinite",
      "initialize(address)": "infinite",
      "isVolumeDripActive(address,address,address,bool)": "infinite",
      "owner()": "1093",
      "pokeDrips((address,address)[],address,address[])": "infinite",
      "renounceOwnership()": "24312",
      "reserveRateMantissa()": "1073",
      "setBalanceDripRate(address,address,address,uint256)": "infinite",
      "setReserveRateMantissa(uint256)": "22319",
      "setVolumeDrip(address,address,address,bool,uint32,uint112)": "infinite",
      "transferOwnership(address)": "24576",
      "updateAndClaimDrips((address,address)[],address,address[])": "infinite",
      "updateDrips((address,address)[],address,address[])": "infinite"
    },
    "internal": {
      "_addDripBalance(address,address,uint256)": "infinite",
      "_currentTime()": "14",
      "_deactivateBalanceDrip(address,address,address,address)": "infinite",
      "_deactivateVolumeDrip(address,address,address,bool,address)": "infinite",
      "_depositVolumeDrip(struct VolumeDripManager.State storage pointer,address,address,address,uint256,bool)": "infinite",
      "_updateBalanceDripToken(struct BalanceDripManager.State storage pointer,address,address,address,address,uint256,uint256,uint256)": "infinite",
      "_updateBalanceDrips(struct BalanceDripManager.State storage pointer,address,address,address,uint256,uint256,uint256)": "infinite",
      "_updateVolumeDripToken(struct VolumeDripManager.State storage pointer,address,address,address,address,uint256,uint256,bool)": "infinite"
    }
  }
}