{
  "abi": [
    {
      "inputs": [
        {
          "internalType": "contract MultipleWinnersProxyFactory",
          "name": "_multipleWinnersProxyFactory",
          "type": "address"
        }
      ],
      "stateMutability": "nonpayable",
      "type": "constructor"
    },
    {
      "anonymous": false,
      "inputs": [
        {
          "indexed": true,
          "internalType": "address",
          "name": "oldPrizeStrategy",
          "type": "address"
        },
        {
          "indexed": true,
          "internalType": "address",
          "name": "prizeStrategy",
          "type": "address"
        },
        {
          "indexed": false,
          "internalType": "uint256",
          "name": "winnerCount",
          "type": "uint256"
        }
      ],
      "name": "CreatedMultipleWinners",
      "type": "event"
    },
    {
      "inputs": [
        {
          "internalType": "contract PeriodicPrizeStrategy",
          "name": "prizeStrategy",
          "type": "address"
        },
        {
          "internalType": "uint256",
          "name": "numberOfWinners",
          "type": "uint256"
        }
      ],
      "name": "createMultipleWinners",
      "outputs": [
        {
          "internalType": "contract MultipleWinners",
          "name": "",
          "type": "address"
        }
      ],
      "stateMutability": "nonpayable",
      "type": "function"
    },
    {
      "inputs": [],
      "name": "multipleWinnersProxyFactory",
      "outputs": [
        {
          "internalType": "contract MultipleWinnersProxyFactory",
          "name": "",
          "type": "address"
        }
      ],
      "stateMutability": "view",
      "type": "function"
    }
  ],
  "address": "0xfDA63A69F08c02F1B1ce46c57ebe010C303bacD0",
  "args": [
    "0xF516710Cc8C23b1477C2716A996DF99b2858FDC8"
  ],
  "solcInputHash": "0x67d2f1a624640e4210f56b4412d9d009803636a38345b515d4cd1a2d3b2abfcc",
  "bytecode": "0x608060405234801561001057600080fd5b5060405161076f38038061076f83398101604081905261002f91610083565b6001600160a01b03811661005e5760405162461bcd60e51b8152600401610055906100b1565b60405180910390fd5b600080546001600160a01b0319166001600160a01b039290921691909117905561010e565b600060208284031215610094578081fd5b81516001600160a01b03811681146100aa578182fd5b9392505050565b6020808252603b908201527f4d756c7469706c6557696e6e6572734275696c6465722f6d756c7469706c655760408201527f696e6e65727350726f7879466163746f72792d6e6f742d7a65726f0000000000606082015260800190565b6106528061011d6000396000f3fe608060405234801561001057600080fd5b50600436106100365760003560e01c8063013da4201461003b5780635a7296ac14610059575b600080fd5b61004361006c565b60405161005091906105e7565b60405180910390f35b6100436100673660046104f1565b61007b565b6000546001600160a01b031681565b6000805460408051633bf206a360e21b8152905183926001600160a01b03169163efc81a8c91600480830192602092919082900301818787803b1580156100c157600080fd5b505af11580156100d5573d6000803e3d6000fd5b505050506040513d601f19601f820116820180604052508101906100f991906104ce565b90506060816001600160a01b0316634a54b475866001600160a01b0316637da0a8776040518163ffffffff1660e01b815260040160206040518083038186803b15801561014557600080fd5b505afa158015610159573d6000803e3d6000fd5b505050506040513d601f19601f8201168201806040525081019061017d91906104ce565b876001600160a01b03166372f33ea96040518163ffffffff1660e01b815260040160206040518083038186803b1580156101b657600080fd5b505afa1580156101ca573d6000803e3d6000fd5b505050506040513d601f19601f820116820180604052508101906101ee919061051c565b886001600160a01b03166394144c6b6040518163ffffffff1660e01b815260040160206040518083038186803b15801561022757600080fd5b505afa15801561023b573d6000803e3d6000fd5b505050506040513d601f19601f8201168201806040525081019061025f919061051c565b896001600160a01b031663719ce73e6040518163ffffffff1660e01b815260040160206040518083038186803b15801561029857600080fd5b505afa1580156102ac573d6000803e3d6000fd5b505050506040513d601f19601f820116820180604052508101906102d091906104ce565b8a6001600160a01b0316636cc25db76040518163ffffffff1660e01b815260040160206040518083038186803b15801561030957600080fd5b505afa15801561031d573d6000803e3d6000fd5b505050506040513d601f19601f8201168201806040525081019061034191906104ce565b8b6001600160a01b031663500db70d6040518163ffffffff1660e01b815260040160206040518083038186803b15801561037a57600080fd5b505afa15801561038e573d6000803e3d6000fd5b505050506040513d601f19601f820116820180604052508101906103b291906104ce565b8c6001600160a01b031663d605787b6040518163ffffffff1660e01b815260040160206040518083038186803b1580156103eb57600080fd5b505afa1580156103ff573d6000803e3d6000fd5b505050506040513d601f19601f8201168201806040525081019061042391906104ce565b898d6040518a63ffffffff1660e01b815260040161044999989796959493929190610545565b600060405180830381600087803b15801561046357600080fd5b505af1158015610477573d6000803e3d6000fd5b50505050816001600160a01b0316856001600160a01b03167fd852768e0d390b9571ff8362f0d1aaf7637bb56935416f6b9496783275e30321866040516104be91906105fb565b60405180910390a3509392505050565b6000602082840312156104df578081fd5b81516104ea81610604565b9392505050565b60008060408385031215610503578081fd5b823561050e81610604565b946020939093013593505050565b60006020828403121561052d578081fd5b5051919050565b6001600160a01b0316815260200190565b6001600160a01b038a8116825260208083018b9052604083018a90528882166060840152878216608084015286821660a084015290851660c083015261012060e083018190528451600092918401918291906105a182846105fb565b93508088019250845b828110156105cb576105bd858551610534565b9450928101926001016105aa565b5050505061010092909201929092529998505050505050505050565b6001600160a01b0391909116815260200190565b90815260200190565b6001600160a01b038116811461061957600080fd5b5056fea264697066735822122046318f1debb14d28d2dad1bab213828d2000ffa2b8dc63d4a8c68ea57ee106b164736f6c634300060c0033"
}