{
  "abi": [
    {
      "constant": true,
      "inputs": [
        {
          "name": "proxy",
          "type": "address"
        }
      ],
      "name": "getProxyImplementation",
      "outputs": [
        {
          "name": "",
          "type": "address"
        }
      ],
      "payable": false,
      "stateMutability": "view",
      "type": "function"
    },
    {
      "constant": false,
      "inputs": [],
      "name": "renounceOwnership",
      "outputs": [],
      "payable": false,
      "stateMutability": "nonpayable",
      "type": "function"
    },
    {
      "constant": false,
      "inputs": [
        {
          "name": "proxy",
          "type": "address"
        },
        {
          "name": "newAdmin",
          "type": "address"
        }
      ],
      "name": "changeProxyAdmin",
      "outputs": [],
      "payable": false,
      "stateMutability": "nonpayable",
      "type": "function"
    },
    {
      "constant": true,
      "inputs": [],
      "name": "owner",
      "outputs": [
        {
          "name": "",
          "type": "address"
        }
      ],
      "payable": false,
      "stateMutability": "view",
      "type": "function"
    },
    {
      "constant": true,
      "inputs": [],
      "name": "isOwner",
      "outputs": [
        {
          "name": "",
          "type": "bool"
        }
      ],
      "payable": false,
      "stateMutability": "view",
      "type": "function"
    },
    {
      "constant": false,
      "inputs": [
        {
          "name": "proxy",
          "type": "address"
        },
        {
          "name": "implementation",
          "type": "address"
        },
        {
          "name": "data",
          "type": "bytes"
        }
      ],
      "name": "upgradeAndCall",
      "outputs": [],
      "payable": true,
      "stateMutability": "payable",
      "type": "function"
    },
    {
      "constant": false,
      "inputs": [
        {
          "name": "proxy",
          "type": "address"
        },
        {
          "name": "implementation",
          "type": "address"
        }
      ],
      "name": "upgrade",
      "outputs": [],
      "payable": false,
      "stateMutability": "nonpayable",
      "type": "function"
    },
    {
      "constant": false,
      "inputs": [
        {
          "name": "newOwner",
          "type": "address"
        }
      ],
      "name": "transferOwnership",
      "outputs": [],
      "payable": false,
      "stateMutability": "nonpayable",
      "type": "function"
    },
    {
      "constant": true,
      "inputs": [
        {
          "name": "proxy",
          "type": "address"
        }
      ],
      "name": "getProxyAdmin",
      "outputs": [
        {
          "name": "",
          "type": "address"
        }
      ],
      "payable": false,
      "stateMutability": "view",
      "type": "function"
    },
    {
      "anonymous": false,
      "inputs": [
        {
          "indexed": true,
          "name": "previousOwner",
          "type": "address"
        },
        {
          "indexed": true,
          "name": "newOwner",
          "type": "address"
        }
      ],
      "name": "OwnershipTransferred",
      "type": "event"
    }
  ],
  "address": "0x48569744c446f82bC3B9A3811Cc392315444F98e",
  "args": [],
  "solcInputHash": "0x46eff0da6e199900c2c22bb012b533dddeaf0e6bc7cf22bc2e35fa13f86c37b1",
  "bytecode": "0x6080604052336000806101000a81548173ffffffffffffffffffffffffffffffffffffffff021916908373ffffffffffffffffffffffffffffffffffffffff1602179055506000809054906101000a900473ffffffffffffffffffffffffffffffffffffffff1673ffffffffffffffffffffffffffffffffffffffff16600073ffffffffffffffffffffffffffffffffffffffff167f8be0079c531659141344cd1fd0a4f28419497f9722a3daafe3b4186f6b6457e060405160405180910390a3610b1c806100cf6000396000f3fe6080604052600436106100865760003560e01c80638f32d59b116100595780638f32d59b146101fb5780639623609d1461022a57806399a88ec414610325578063f2fde38b14610396578063f3b7dead146103e757610086565b8063204e1c7a1461008b578063715018a61461011c5780637eff275e146101335780638da5cb5b146101a4575b600080fd5b34801561009757600080fd5b506100da600480360360208110156100ae57600080fd5b81019080803573ffffffffffffffffffffffffffffffffffffffff169060200190929190505050610478565b604051808273ffffffffffffffffffffffffffffffffffffffff1673ffffffffffffffffffffffffffffffffffffffff16815260200191505060405180910390f35b34801561012857600080fd5b50610131610542565b005b34801561013f57600080fd5b506101a26004803603604081101561015657600080fd5b81019080803573ffffffffffffffffffffffffffffffffffffffff169060200190929190803573ffffffffffffffffffffffffffffffffffffffff169060200190929190505050610614565b005b3480156101b057600080fd5b506101b96106c2565b604051808273ffffffffffffffffffffffffffffffffffffffff1673ffffffffffffffffffffffffffffffffffffffff16815260200191505060405180910390f35b34801561020757600080fd5b506102106106eb565b604051808215151515815260200191505060405180910390f35b6103236004803603606081101561024057600080fd5b81019080803573ffffffffffffffffffffffffffffffffffffffff169060200190929190803573ffffffffffffffffffffffffffffffffffffffff1690602001909291908035906020019064010000000081111561029d57600080fd5b8201836020820111156102af57600080fd5b803590602001918460018302840111640100000000831117156102d157600080fd5b91908080601f016020809104026020016040519081016040528093929190818152602001838380828437600081840152601f19601f820116905080830192505050505050509192919290505050610742565b005b34801561033157600080fd5b506103946004803603604081101561034857600080fd5b81019080803573ffffffffffffffffffffffffffffffffffffffff169060200190929190803573ffffffffffffffffffffffffffffffffffffffff16906020019092919050505061085f565b005b3480156103a257600080fd5b506103e5600480360360208110156103b957600080fd5b81019080803573ffffffffffffffffffffffffffffffffffffffff16906020019092919050505061090d565b005b3480156103f357600080fd5b506104366004803603602081101561040a57600080fd5b81019080803573ffffffffffffffffffffffffffffffffffffffff16906020019092919050505061092c565b604051808273ffffffffffffffffffffffffffffffffffffffff1673ffffffffffffffffffffffffffffffffffffffff16815260200191505060405180910390f35b60008060608373ffffffffffffffffffffffffffffffffffffffff1660405180807f5c60da1b000000000000000000000000000000000000000000000000000000008152506004019050600060405180830381855afa9150503d80600081146104fd576040519150601f19603f3d011682016040523d82523d6000602084013e610502565b606091505b509150915081151561051357600080fd5b80806020019051602081101561052857600080fd5b810190808051906020019092919050505092505050919050565b61054a6106eb565b151561055557600080fd5b600073ffffffffffffffffffffffffffffffffffffffff166000809054906101000a900473ffffffffffffffffffffffffffffffffffffffff1673ffffffffffffffffffffffffffffffffffffffff167f8be0079c531659141344cd1fd0a4f28419497f9722a3daafe3b4186f6b6457e060405160405180910390a360008060006101000a81548173ffffffffffffffffffffffffffffffffffffffff021916908373ffffffffffffffffffffffffffffffffffffffff160217905550565b61061c6106eb565b151561062757600080fd5b8173ffffffffffffffffffffffffffffffffffffffff16638f283970826040518263ffffffff1660e01b8152600401808273ffffffffffffffffffffffffffffffffffffffff1673ffffffffffffffffffffffffffffffffffffffff168152602001915050600060405180830381600087803b1580156106a657600080fd5b505af11580156106ba573d6000803e3d6000fd5b505050505050565b60008060009054906101000a900473ffffffffffffffffffffffffffffffffffffffff16905090565b60008060009054906101000a900473ffffffffffffffffffffffffffffffffffffffff1673ffffffffffffffffffffffffffffffffffffffff163373ffffffffffffffffffffffffffffffffffffffff1614905090565b61074a6106eb565b151561075557600080fd5b8273ffffffffffffffffffffffffffffffffffffffff16634f1ef2863484846040518463ffffffff1660e01b8152600401808373ffffffffffffffffffffffffffffffffffffffff1673ffffffffffffffffffffffffffffffffffffffff16815260200180602001828103825283818151815260200191508051906020019080838360005b838110156107f55780820151818401526020810190506107da565b50505050905090810190601f1680156108225780820380516001836020036101000a031916815260200191505b5093505050506000604051808303818588803b15801561084157600080fd5b505af1158015610855573d6000803e3d6000fd5b5050505050505050565b6108676106eb565b151561087257600080fd5b8173ffffffffffffffffffffffffffffffffffffffff16633659cfe6826040518263ffffffff1660e01b8152600401808273ffffffffffffffffffffffffffffffffffffffff1673ffffffffffffffffffffffffffffffffffffffff168152602001915050600060405180830381600087803b1580156108f157600080fd5b505af1158015610905573d6000803e3d6000fd5b505050505050565b6109156106eb565b151561092057600080fd5b610929816109f6565b50565b60008060608373ffffffffffffffffffffffffffffffffffffffff1660405180807ff851a440000000000000000000000000000000000000000000000000000000008152506004019050600060405180830381855afa9150503d80600081146109b1576040519150601f19603f3d011682016040523d82523d6000602084013e6109b6565b606091505b50915091508115156109c757600080fd5b8080602001905160208110156109dc57600080fd5b810190808051906020019092919050505092505050919050565b600073ffffffffffffffffffffffffffffffffffffffff168173ffffffffffffffffffffffffffffffffffffffff1614151515610a3257600080fd5b8073ffffffffffffffffffffffffffffffffffffffff166000809054906101000a900473ffffffffffffffffffffffffffffffffffffffff1673ffffffffffffffffffffffffffffffffffffffff167f8be0079c531659141344cd1fd0a4f28419497f9722a3daafe3b4186f6b6457e060405160405180910390a3806000806101000a81548173ffffffffffffffffffffffffffffffffffffffff021916908373ffffffffffffffffffffffffffffffffffffffff1602179055505056fea165627a7a723058209445eb06c44f835de37dfb573d5867f8c55f6cd256668c173b3c874a55cadc4e0029"
}