{
  "abi": [
    {
      "inputs": [],
      "stateMutability": "nonpayable",
      "type": "constructor"
    },
    {
      "anonymous": false,
      "inputs": [
        {
          "indexed": true,
          "internalType": "address",
          "name": "previousOwner",
          "type": "address"
        },
        {
          "indexed": true,
          "internalType": "address",
          "name": "newOwner",
          "type": "address"
        }
      ],
      "name": "OwnershipTransferred",
      "type": "event"
    },
    {
      "anonymous": false,
      "inputs": [
        {
          "indexed": true,
          "internalType": "address",
          "name": "pointer",
          "type": "address"
        }
      ],
      "name": "Registered",
      "type": "event"
    },
    {
      "inputs": [],
      "name": "lookup",
      "outputs": [
        {
          "internalType": "address",
          "name": "",
          "type": "address"
        }
      ],
      "stateMutability": "view",
      "type": "function"
    },
    {
      "inputs": [],
      "name": "owner",
      "outputs": [
        {
          "internalType": "address",
          "name": "",
          "type": "address"
        }
      ],
      "stateMutability": "view",
      "type": "function"
    },
    {
      "inputs": [
        {
          "internalType": "address",
          "name": "_pointer",
          "type": "address"
        }
      ],
      "name": "register",
      "outputs": [],
      "stateMutability": "nonpayable",
      "type": "function"
    },
    {
      "inputs": [],
      "name": "renounceOwnership",
      "outputs": [],
      "stateMutability": "nonpayable",
      "type": "function"
    },
    {
      "inputs": [
        {
          "internalType": "address",
          "name": "newOwner",
          "type": "address"
        }
      ],
      "name": "transferOwnership",
      "outputs": [],
      "stateMutability": "nonpayable",
      "type": "function"
    }
  ],
  "address": "0xdE55668e38FEcD037BFA40AcFD7d30e58F9143D4",
  "args": [],
  "solcInputHash": "0x67d2f1a624640e4210f56b4412d9d009803636a38345b515d4cd1a2d3b2abfcc",
  "bytecode": "0x608060405234801561001057600080fd5b5061001961001e565b610273565b600054610100900460ff168061003757506100376100d0565b80610045575060005460ff16155b6100805760405162461bcd60e51b815260040180806020018281038252602e815260200180610657602e913960400191505060405180910390fd5b600054610100900460ff161580156100ab576000805460ff1961ff0019909116610100171660011790555b6100b36100d6565b6100bb610176565b80156100cd576000805461ff00191690555b50565b303b1590565b600054610100900460ff16806100ef57506100ef6100d0565b806100fd575060005460ff16155b6101385760405162461bcd60e51b815260040180806020018281038252602e815260200180610657602e913960400191505060405180910390fd5b600054610100900460ff161580156100bb576000805460ff1961ff00199091166101001716600117905580156100cd576000805461ff001916905550565b600054610100900460ff168061018f575061018f6100d0565b8061019d575060005460ff16155b6101d85760405162461bcd60e51b815260040180806020018281038252602e815260200180610657602e913960400191505060405180910390fd5b600054610100900460ff16158015610203576000805460ff1961ff0019909116610100171660011790555b600061020d61026f565b606580546001600160a01b0319166001600160a01b038316908117909155604051919250906000907f8be0079c531659141344cd1fd0a4f28419497f9722a3daafe3b4186f6b6457e0908290a35080156100cd576000805461ff001916905550565b3390565b6103d5806102826000396000f3fe608060405234801561001057600080fd5b50600436106100575760003560e01c80634420e4861461005c578063715018a6146100845780638da5cb5b1461008c578063f2fde38b146100b0578063f5e3542b146100d6575b600080fd5b6100826004803603602081101561007257600080fd5b50356001600160a01b03166100de565b005b610082610198565b61009461024c565b604080516001600160a01b039092168252519081900360200190f35b610082600480360360208110156100c657600080fd5b50356001600160a01b031661025b565b610094610366565b6100e6610375565b6065546001600160a01b03908116911614610148576040805162461bcd60e51b815260206004820181905260248201527f4f776e61626c653a2063616c6c6572206973206e6f7420746865206f776e6572604482015290519081900360640190fd5b609780546001600160a01b0319166001600160a01b0383811691909117918290556040519116907f2d3734a8e47ac8316e500ac231c90a6e1848ca2285f40d07eaa52005e4b3a0e990600090a250565b6101a0610375565b6065546001600160a01b03908116911614610202576040805162461bcd60e51b815260206004820181905260248201527f4f776e61626c653a2063616c6c6572206973206e6f7420746865206f776e6572604482015290519081900360640190fd5b6065546040516000916001600160a01b0316907f8be0079c531659141344cd1fd0a4f28419497f9722a3daafe3b4186f6b6457e0908390a3606580546001600160a01b0319169055565b6065546001600160a01b031690565b610263610375565b6065546001600160a01b039081169116146102c5576040805162461bcd60e51b815260206004820181905260248201527f4f776e61626c653a2063616c6c6572206973206e6f7420746865206f776e6572604482015290519081900360640190fd5b6001600160a01b03811661030a5760405162461bcd60e51b815260040180806020018281038252602681526020018061037a6026913960400191505060405180910390fd5b6065546040516001600160a01b038084169216907f8be0079c531659141344cd1fd0a4f28419497f9722a3daafe3b4186f6b6457e090600090a3606580546001600160a01b0319166001600160a01b0392909216919091179055565b6097546001600160a01b031690565b339056fe4f776e61626c653a206e6577206f776e657220697320746865207a65726f2061646472657373a264697066735822122082275df7a3a1df63adfcde7908d257c3fae7afbab668531b3e94d75350fd1a3564736f6c634300060c0033436f6e747261637420696e7374616e63652068617320616c7265616479206265656e20696e697469616c697a6564",
  "devdoc": {
    "kind": "dev",
    "methods": {
      "owner()": {
        "details": "Returns the address of the current owner."
      },
      "renounceOwnership()": {
        "details": "Leaves the contract without owner. It will not be possible to call `onlyOwner` functions anymore. Can only be called by the current owner. NOTE: Renouncing ownership will leave the contract without an owner, thereby removing any functionality that is only available to the owner."
      },
      "transferOwnership(address)": {
        "details": "Transfers ownership of the contract to a new account (`newOwner`). Can only be called by the current owner."
      }
    },
    "title": "Interface that allows a user to draw an address using an index",
    "version": 1
  },
  "userdoc": {
    "kind": "user",
    "methods": {},
    "version": 1
  },
  "storageLayout": {
    "storage": [
      {
        "astId": 678,
        "contract": "contracts/registry/Registry.sol:Registry",
        "label": "initialized",
        "offset": 0,
        "slot": "0",
        "type": "t_bool"
      },
      {
        "astId": 681,
        "contract": "contracts/registry/Registry.sol:Registry",
        "label": "initializing",
        "offset": 1,
        "slot": "0",
        "type": "t_bool"
      },
      {
        "astId": 746,
        "contract": "contracts/registry/Registry.sol:Registry",
        "label": "______gap",
        "offset": 0,
        "slot": "1",
        "type": "t_array(t_uint256)50_storage"
      },
      {
        "astId": 671,
        "contract": "contracts/registry/Registry.sol:Registry",
        "label": "__gap",
        "offset": 0,
        "slot": "51",
        "type": "t_array(t_uint256)50_storage"
      },
      {
        "astId": 758,
        "contract": "contracts/registry/Registry.sol:Registry",
        "label": "_owner",
        "offset": 0,
        "slot": "101",
        "type": "t_address"
      },
      {
        "astId": 876,
        "contract": "contracts/registry/Registry.sol:Registry",
        "label": "__gap",
        "offset": 0,
        "slot": "102",
        "type": "t_array(t_uint256)49_storage"
      },
      {
        "astId": 16162,
        "contract": "contracts/registry/Registry.sol:Registry",
        "label": "pointer",
        "offset": 0,
        "slot": "151",
        "type": "t_address"
      }
    ],
    "types": {
      "t_address": {
        "encoding": "inplace",
        "label": "address",
        "numberOfBytes": "20"
      },
      "t_array(t_uint256)49_storage": {
        "base": "t_uint256",
        "encoding": "inplace",
        "label": "uint256[49]",
        "numberOfBytes": "1568"
      },
      "t_array(t_uint256)50_storage": {
        "base": "t_uint256",
        "encoding": "inplace",
        "label": "uint256[50]",
        "numberOfBytes": "1600"
      },
      "t_bool": {
        "encoding": "inplace",
        "label": "bool",
        "numberOfBytes": "1"
      },
      "t_uint256": {
        "encoding": "inplace",
        "label": "uint256",
        "numberOfBytes": "32"
      }
    }
  },
  "gasEstimates": {
    "creation": {
      "codeDepositCost": "196200",
      "executionCost": "infinite",
      "totalCost": "infinite"
    },
    "external": {
      "lookup()": "1103",
      "owner()": "1059",
      "register(address)": "23087",
      "renounceOwnership()": "24201",
      "transferOwnership(address)": "infinite"
    }
  }
}