{
  "abi": [
    {
      "inputs": [
        {
          "internalType": "contract SingleRandomWinnerProxyFactory",
          "name": "_singleRandomWinnerProxyFactory",
          "type": "address"
        },
        {
          "internalType": "address",
          "name": "_trustedForwarder",
          "type": "address"
        },
        {
          "internalType": "contract ControlledTokenProxyFactory",
          "name": "_controlledTokenProxyFactory",
          "type": "address"
        },
        {
          "internalType": "contract TicketProxyFactory",
          "name": "_ticketProxyFactory",
          "type": "address"
        }
      ],
      "stateMutability": "nonpayable",
      "type": "constructor"
    },
    {
      "anonymous": false,
      "inputs": [
        {
          "indexed": true,
          "internalType": "address",
          "name": "singleRandomWinner",
          "type": "address"
        },
        {
          "indexed": true,
          "internalType": "address",
          "name": "ticket",
          "type": "address"
        },
        {
          "indexed": true,
          "internalType": "address",
          "name": "sponsorship",
          "type": "address"
        }
      ],
      "name": "SingleRandomWinnerCreated",
      "type": "event"
    },
    {
      "inputs": [],
      "name": "controlledTokenProxyFactory",
      "outputs": [
        {
          "internalType": "contract ControlledTokenProxyFactory",
          "name": "",
          "type": "address"
        }
      ],
      "stateMutability": "view",
      "type": "function"
    },
    {
      "inputs": [
        {
          "internalType": "contract PrizePool",
          "name": "prizePool",
          "type": "address"
        },
        {
          "components": [
            {
              "internalType": "contract RNGInterface",
              "name": "rngService",
              "type": "address"
            },
            {
              "internalType": "uint256",
              "name": "prizePeriodStart",
              "type": "uint256"
            },
            {
              "internalType": "uint256",
              "name": "prizePeriodSeconds",
              "type": "uint256"
            },
            {
              "internalType": "string",
              "name": "ticketName",
              "type": "string"
            },
            {
              "internalType": "string",
              "name": "ticketSymbol",
              "type": "string"
            },
            {
              "internalType": "string",
              "name": "sponsorshipName",
              "type": "string"
            },
            {
              "internalType": "string",
              "name": "sponsorshipSymbol",
              "type": "string"
            },
            {
              "internalType": "uint256",
              "name": "ticketCreditLimitMantissa",
              "type": "uint256"
            },
            {
              "internalType": "uint256",
              "name": "ticketCreditRateMantissa",
              "type": "uint256"
            },
            {
              "internalType": "address[]",
              "name": "externalERC20Awards",
              "type": "address[]"
            }
          ],
          "internalType": "struct SingleRandomWinnerBuilder.SingleRandomWinnerConfig",
          "name": "config",
          "type": "tuple"
        },
        {
          "internalType": "uint8",
          "name": "decimals",
          "type": "uint8"
        },
        {
          "internalType": "address",
          "name": "owner",
          "type": "address"
        }
      ],
      "name": "createSingleRandomWinner",
      "outputs": [
        {
          "internalType": "contract SingleRandomWinner",
          "name": "",
          "type": "address"
        }
      ],
      "stateMutability": "nonpayable",
      "type": "function"
    },
    {
      "inputs": [],
      "name": "singleRandomWinnerProxyFactory",
      "outputs": [
        {
          "internalType": "contract SingleRandomWinnerProxyFactory",
          "name": "",
          "type": "address"
        }
      ],
      "stateMutability": "view",
      "type": "function"
    },
    {
      "inputs": [],
      "name": "ticketProxyFactory",
      "outputs": [
        {
          "internalType": "contract TicketProxyFactory",
          "name": "",
          "type": "address"
        }
      ],
      "stateMutability": "view",
      "type": "function"
    },
    {
      "inputs": [],
      "name": "trustedForwarder",
      "outputs": [
        {
          "internalType": "address",
          "name": "",
          "type": "address"
        }
      ],
      "stateMutability": "view",
      "type": "function"
    }
  ],
  "address": "0xc0dA19bB3BC4644399ec85808d1ea52cD9f01bB3",
  "args": [
    "0xEaE3391F1E02E524eF5F55d99623D0Db3C9D65c0",
    "0x25CEd1955423BA34332Ec1B60154967750a0297D",
    "0x1a8A2F20E37dCc27d5d18af65eC58Be02CEd979D",
    "0xE2ba9bEA2D8fcE8Fee675B13951e5A0aC886c9D0"
  ],
  "solcInputHash": "0x67d2f1a624640e4210f56b4412d9d009803636a38345b515d4cd1a2d3b2abfcc",
  "bytecode": "0x608060405234801561001057600080fd5b50604051610abc380380610abc83398101604081905261002f916100fa565b6001600160a01b03841661005e5760405162461bcd60e51b8152600401610055906101b5565b60405180910390fd5b6001600160a01b0382166100845760405162461bcd60e51b815260040161005590610212565b6001600160a01b0381166100aa5760405162461bcd60e51b815260040161005590610158565b600180546001600160a01b03199081166001600160a01b03938416179091556002805482169583169590951790945560038054851693821693909317909255600080549093169116179055610291565b6000806000806080858703121561010f578384fd5b845161011a81610279565b602086015190945061012b81610279565b604086015190935061013c81610279565b606086015190925061014d81610279565b939692955090935050565b60208082526037908201527f53696e676c6552616e646f6d57696e6e65724275696c6465722f7469636b657460408201527f2d70726f78792d666163746f72792d6e6f742d7a65726f000000000000000000606082015260800190565b6020808252603f908201527f53696e676c6552616e646f6d57696e6e65724275696c6465722f73696e676c6560408201527f2d72616e646f6d2d77696e6e65722d666163746f72792d6e6f742d7a65726f00606082015260800190565b60208082526041908201527f53696e676c6552616e646f6d57696e6e65724275696c6465722f636f6e74726f60408201527f6c6c65642d746f6b656e2d70726f78792d666163746f72792d6e6f742d7a65726060820152606f60f81b608082015260a00190565b6001600160a01b038116811461028e57600080fd5b50565b61081c806102a06000396000f3fe608060405234801561001057600080fd5b50600436106100575760003560e01c80636a81d8bd1461005c5780637da0a8771461007a57806384c9286914610082578063aa3b296c1461008a578063ec027fa914610092575b600080fd5b6100646100a5565b6040516100719190610643565b60405180910390f35b6100646100b4565b6100646100c3565b6100646100d2565b6100646100a036600461055f565b6100e1565b6000546001600160a01b031681565b6003546001600160a01b031681565b6002546001600160a01b031681565b6001546001600160a01b031681565b600080600260009054906101000a90046001600160a01b03166001600160a01b031663efc81a8c6040518163ffffffff1660e01b8152600401602060405180830381600087803b15801561013457600080fd5b505af1158015610148573d6000803e3d6000fd5b505050506040513d601f19601f8201168201806040525081019061016c919061053c565b905060006101ff876101816060890189610789565b8080601f0160208091040260200160405190810160405280939291908181526020018383808284376000920191909152506101c39250505060808a018a610789565b8080601f0160208091040260200160405190810160405280939291908181526020018383808284376000920191909152508b92506103f4915050565b905060006102928861021460a08a018a610789565b8080601f0160208091040260200160405190810160405280939291908181526020018383808284376000920191909152506102569250505060c08b018b610789565b8080601f0160208091040260200160405190810160405280939291908181526020018383808284376000920191909152508c92506104f6915050565b9050826001600160a01b03166388e1489c600360009054906101000a90046001600160a01b031689602001358a604001358c87878e60000160208101906102d991906105dc565b8f8061012001906102ea919061073b565b6040518a63ffffffff1660e01b815260040161030e99989796959493929190610657565b600060405180830381600087803b15801561032857600080fd5b505af115801561033c573d6000803e3d6000fd5b505060405163f2fde38b60e01b81526001600160a01b038616925063f2fde38b915061036c908890600401610643565b600060405180830381600087803b15801561038657600080fd5b505af115801561039a573d6000803e3d6000fd5b50505050806001600160a01b0316826001600160a01b0316846001600160a01b03167f0ff3430811d84b8ceaad3d48db335030d651f13007e5699dbf0c63134cccb8a660405160405180910390a450909695505050505050565b600080600160009054906101000a90046001600160a01b03166001600160a01b031663efc81a8c6040518163ffffffff1660e01b8152600401602060405180830381600087803b15801561044757600080fd5b505af115801561045b573d6000803e3d6000fd5b505050506040513d601f19601f8201168201806040525081019061047f919061053c565b60035460405163641078a360e11b81529192506001600160a01b038084169263c820f146926104ba928a928a928a9216908d906004016106eb565b600060405180830381600087803b1580156104d457600080fd5b505af11580156104e8573d6000803e3d6000fd5b509298975050505050505050565b6000805460408051633bf206a360e21b8152905183926001600160a01b03169163efc81a8c91600480830192602092919082900301818787803b15801561044757600080fd5b60006020828403121561054d578081fd5b8151610558816107ce565b9392505050565b60008060008060808587031215610574578283fd5b843561057f816107ce565b9350602085013567ffffffffffffffff81111561059a578384fd5b850161014081880312156105ac578384fd5b9250604085013560ff811681146105c1578283fd5b915060608501356105d1816107ce565b939692955090935050565b6000602082840312156105ed578081fd5b8135610558816107ce565b60008151808452815b8181101561061d57602081850181015186830182015201610601565b8181111561062e5782602083870101525b50601f01601f19169290920160200192915050565b6001600160a01b0391909116815260200190565b6001600160a01b038a8116825260208083018b9052604083018a90528882166060840152878216608084015286821660a084015285821660c084015261010060e084018190528301849052600091610120840191869190845b878110156106d75783356106c3816107ce565b8316855293810193928101926001016106b0565b50929e9d5050505050505050505050505050565b600060a082526106fe60a08301886105f8565b828103602084015261071081886105f8565b60ff96909616604084015250506001600160a01b039283166060820152911660809091015292915050565b6000808335601e19843603018112610751578283fd5b83018035915067ffffffffffffffff82111561076b578283fd5b602090810192508102360382131561078257600080fd5b9250929050565b6000808335601e1984360301811261079f578283fd5b83018035915067ffffffffffffffff8211156107b9578283fd5b60200191503681900382131561078257600080fd5b6001600160a01b03811681146107e357600080fd5b5056fea26469706673582212204edf86547ce97084e279d3dd723d0930838a628286acfb7e31fe28900207b49664736f6c634300060c0033"
}