{
  "abi": [
    {
      "inputs": [
        {
          "internalType": "contract ComptrollerInterface",
          "name": "_comptroller",
          "type": "address"
        },
        {
          "internalType": "contract SingleRandomWinnerProxyFactory",
          "name": "_singleRandomWinnerProxyFactory",
          "type": "address"
        },
        {
          "internalType": "address",
          "name": "_trustedForwarder",
          "type": "address"
        },
        {
          "internalType": "contract yVaultPrizePoolProxyFactory",
          "name": "_vaultPrizePoolProxyFactory",
          "type": "address"
        },
        {
          "internalType": "contract ControlledTokenProxyFactory",
          "name": "_controlledTokenProxyFactory",
          "type": "address"
        },
        {
          "internalType": "contract OpenZeppelinProxyFactoryInterface",
          "name": "_proxyFactory",
          "type": "address"
        },
        {
          "internalType": "contract TicketProxyFactory",
          "name": "_ticketProxyFactory",
          "type": "address"
        }
      ],
      "stateMutability": "nonpayable",
      "type": "constructor"
    },
    {
      "anonymous": false,
      "inputs": [
        {
          "indexed": true,
          "internalType": "address",
          "name": "singleRandomWinner",
          "type": "address"
        },
        {
          "indexed": true,
          "internalType": "address",
          "name": "ticket",
          "type": "address"
        },
        {
          "indexed": true,
          "internalType": "address",
          "name": "sponsorship",
          "type": "address"
        }
      ],
      "name": "SingleRandomWinnerCreated",
      "type": "event"
    },
    {
      "anonymous": false,
      "inputs": [
        {
          "indexed": true,
          "internalType": "address",
          "name": "creator",
          "type": "address"
        },
        {
          "indexed": true,
          "internalType": "address",
          "name": "prizePool",
          "type": "address"
        },
        {
          "indexed": true,
          "internalType": "address",
          "name": "prizeStrategy",
          "type": "address"
        }
      ],
      "name": "yVaultPrizePoolCreated",
      "type": "event"
    },
    {
      "inputs": [],
      "name": "comptroller",
      "outputs": [
        {
          "internalType": "contract ComptrollerInterface",
          "name": "",
          "type": "address"
        }
      ],
      "stateMutability": "view",
      "type": "function"
    },
    {
      "inputs": [],
      "name": "controlledTokenProxyFactory",
      "outputs": [
        {
          "internalType": "contract ControlledTokenProxyFactory",
          "name": "",
          "type": "address"
        }
      ],
      "stateMutability": "view",
      "type": "function"
    },
    {
      "inputs": [
        {
          "components": [
            {
              "internalType": "contract yVaultInterface",
              "name": "vault",
              "type": "address"
            },
            {
              "internalType": "uint256",
              "name": "reserveRateMantissa",
              "type": "uint256"
            },
            {
              "internalType": "uint256",
              "name": "maxExitFeeMantissa",
              "type": "uint256"
            },
            {
              "internalType": "uint256",
              "name": "maxTimelockDuration",
              "type": "uint256"
            }
          ],
          "internalType": "struct yVaultPrizePoolBuilder.yVaultPrizePoolConfig",
          "name": "prizePoolConfig",
          "type": "tuple"
        },
        {
          "components": [
            {
              "internalType": "address",
              "name": "proxyAdmin",
              "type": "address"
            },
            {
              "internalType": "contract RNGInterface",
              "name": "rngService",
              "type": "address"
            },
            {
              "internalType": "uint256",
              "name": "prizePeriodStart",
              "type": "uint256"
            },
            {
              "internalType": "uint256",
              "name": "prizePeriodSeconds",
              "type": "uint256"
            },
            {
              "internalType": "string",
              "name": "ticketName",
              "type": "string"
            },
            {
              "internalType": "string",
              "name": "ticketSymbol",
              "type": "string"
            },
            {
              "internalType": "string",
              "name": "sponsorshipName",
              "type": "string"
            },
            {
              "internalType": "string",
              "name": "sponsorshipSymbol",
              "type": "string"
            },
            {
              "internalType": "uint256",
              "name": "ticketCreditLimitMantissa",
              "type": "uint256"
            },
            {
              "internalType": "uint256",
              "name": "ticketCreditRateMantissa",
              "type": "uint256"
            },
            {
              "internalType": "address[]",
              "name": "externalERC20Awards",
              "type": "address[]"
            }
          ],
          "internalType": "struct SingleRandomWinnerBuilder.SingleRandomWinnerConfig",
          "name": "prizeStrategyConfig",
          "type": "tuple"
        },
        {
          "internalType": "uint8",
          "name": "decimals",
          "type": "uint8"
        }
      ],
      "name": "createSingleRandomWinner",
      "outputs": [
        {
          "internalType": "contract SingleRandomWinner",
          "name": "",
          "type": "address"
        }
      ],
      "stateMutability": "nonpayable",
      "type": "function"
    },
    {
      "inputs": [
        {
          "components": [
            {
              "internalType": "contract yVaultInterface",
              "name": "vault",
              "type": "address"
            },
            {
              "internalType": "uint256",
              "name": "reserveRateMantissa",
              "type": "uint256"
            },
            {
              "internalType": "uint256",
              "name": "maxExitFeeMantissa",
              "type": "uint256"
            },
            {
              "internalType": "uint256",
              "name": "maxTimelockDuration",
              "type": "uint256"
            }
          ],
          "internalType": "struct yVaultPrizePoolBuilder.yVaultPrizePoolConfig",
          "name": "config",
          "type": "tuple"
        },
        {
          "internalType": "contract PrizePoolTokenListenerInterface",
          "name": "prizeStrategy",
          "type": "address"
        }
      ],
      "name": "createyVaultPrizePool",
      "outputs": [
        {
          "internalType": "contract yVaultPrizePool",
          "name": "",
          "type": "address"
        }
      ],
      "stateMutability": "nonpayable",
      "type": "function"
    },
    {
      "inputs": [],
      "name": "proxyFactory",
      "outputs": [
        {
          "internalType": "contract OpenZeppelinProxyFactoryInterface",
          "name": "",
          "type": "address"
        }
      ],
      "stateMutability": "view",
      "type": "function"
    },
    {
      "inputs": [],
      "name": "singleRandomWinnerProxyFactory",
      "outputs": [
        {
          "internalType": "contract SingleRandomWinnerProxyFactory",
          "name": "",
          "type": "address"
        }
      ],
      "stateMutability": "view",
      "type": "function"
    },
    {
      "inputs": [],
      "name": "ticketProxyFactory",
      "outputs": [
        {
          "internalType": "contract TicketProxyFactory",
          "name": "",
          "type": "address"
        }
      ],
      "stateMutability": "view",
      "type": "function"
    },
    {
      "inputs": [],
      "name": "trustedForwarder",
      "outputs": [
        {
          "internalType": "address",
          "name": "",
          "type": "address"
        }
      ],
      "stateMutability": "view",
      "type": "function"
    },
    {
      "inputs": [],
      "name": "vaultPrizePoolProxyFactory",
      "outputs": [
        {
          "internalType": "contract yVaultPrizePoolProxyFactory",
          "name": "",
          "type": "address"
        }
      ],
      "stateMutability": "view",
      "type": "function"
    }
  ],
  "address": "0x54f94f13F5c6efb2ad62Cd6DFd4b039308a3dC43",
  "args": [
    "0x7e40278fCF283F933e1d3e30E7BBE52B1Bb0A65b",
    "0xb05C73A85A28343e0C5471728d7D1B4b71d400f8",
    "0xcC87aa60a6457D9606995C4E7E9c38A2b627Da88",
    "0x97Ec646334421f6E028541079Be0fA4092b32A2c",
    "0x5C7E597CE6DB5379232563000AC5b60578e6b739",
    "0xdb75B845960c835b6086db1bD3087Ea01e7D8BdE",
    "0x9CBbCAd1Bb9cfBE91A68ECd3D39C18bc5EeE45dA"
  ],
  "solcInputHash": "0x952a1c5ddcee9cfa35668d0ea97d336f2fe723c7e9085fb13b07daa4f06a7d3e",
  "bytecode": "0x60806040523480156200001157600080fd5b5060405162001644380380620016448339810160408190526200003491620001b3565b6001600160a01b038716620000665760405162461bcd60e51b81526004016200005d906200041e565b60405180910390fd5b6001600160a01b0386166200008f5760405162461bcd60e51b81526004016200005d90620002aa565b6001600160a01b038416620000b85760405162461bcd60e51b81526004016200005d9062000364565b6001600160a01b038316620000e15760405162461bcd60e51b81526004016200005d9062000307565b6001600160a01b0382166200010a5760405162461bcd60e51b81526004016200005d906200025d565b6001600160a01b038116620001335760405162461bcd60e51b81526004016200005d90620003c1565b600580546001600160a01b03199081166001600160a01b03948516179091556003805482169284169290921790915560008054821697831697909717909655600480548716958216959095179094556006805486169385169390931790925560018054851691841691909117905560028054909316911617905562000482565b600080600080600080600060e0888a031215620001ce578283fd5b8751620001db8162000469565b6020890151909750620001ee8162000469565b6040890151909650620002018162000469565b6060890151909550620002148162000469565b6080890151909450620002278162000469565b60a08901519093506200023a8162000469565b60c08901519092506200024d8162000469565b8091505092959891949750929550565b6020808252602d908201527f795661756c745072697a65506f6f6c4275696c6465722f70726f78792d66616360408201526c746f72792d6e6f742d7a65726f60981b606082015260800190565b6020808252603c908201527f795661756c745072697a65506f6f6c4275696c6465722f73696e676c652d726160408201527f6e646f6d2d77696e6e65722d666163746f72792d6e6f742d7a65726f00000000606082015260800190565b6020808252603e908201527f795661756c745072697a65506f6f6c4275696c6465722f636f6e74726f6c6c6560408201527f642d746f6b656e2d70726f78792d666163746f72792d6e6f742d7a65726f0000606082015260800190565b6020808252603b908201527f795661756c745072697a65506f6f6c4275696c6465722f636f6d706f756e642d60408201527f7072697a652d706f6f6c2d6275696c6465722d6e6f742d7a65726f0000000000606082015260800190565b60208082526034908201527f795661756c745072697a65506f6f6c4275696c6465722f7469636b65742d707260408201527f6f78792d666163746f72792d6e6f742d7a65726f000000000000000000000000606082015260800190565b6020808252602b908201527f795661756c745072697a65506f6f6c4275696c6465722f636f6d7074726f6c6c60408201526a65722d6e6f742d7a65726f60a81b606082015260800190565b6001600160a01b03811681146200047f57600080fd5b50565b6111b280620004926000396000f3fe608060405234801561001057600080fd5b50600436106100935760003560e01c80637513d5c1116100665780637513d5c1146100d95780637da0a877146100ec57806384c92869146100f4578063aa3b296c146100fc578063c10f1a751461010457610093565b806328ab0c8c146100985780635dc7a7bc146100b65780635fe3b567146100c95780636a81d8bd146100d1575b600080fd5b6100a061010c565b6040516100ad9190610e69565b60405180910390f35b6100a06100c4366004610d43565b61011b565b6100a0610842565b6100a0610851565b6100a06100e7366004610d0c565b610860565b6100a06108e6565b6100a06108f5565b6100a0610904565b6100a0610913565b6001546001600160a01b031681565b6000808061012c6020860186610c22565b6001600160a01b03161461024657600554600480546040805163022ec09560e01b815290516001600160a01b0394851694636150864c9442949091169263022ec0959281830192602092829003018186803b15801561018a57600080fd5b505afa15801561019e573d6000803e3d6000fd5b505050506040513d601f19601f820116820180604052508101906101c29190610c45565b6101cf6020890189610c22565b6040518463ffffffff1660e01b81526004016101ed9392919061107c565b602060405180830381600087803b15801561020757600080fd5b505af115801561021b573d6000803e3d6000fd5b505050506040513d601f19601f8201168201806040525081019061023f9190610c45565b90506102c5565b6004805460408051633bf206a360e21b815290516001600160a01b039092169263efc81a8c9282820192602092908290030181600087803b15801561028a57600080fd5b505af115801561029e573d6000803e3d6000fd5b505050506040513d601f19601f820116820180604052508101906102c29190610c45565b90505b60006102df6102d936889003880188610dae565b83610922565b90506001600160a01b03811663941d505d61037f8361030160808a018a6110f8565b8080601f0160208091040260200160405190810160405280939291908181526020018383808284376000920191909152506103439250505060a08b018b6110f8565b8080601f0160208091040260200160405190810160405280939291908181526020018383808284376000920191909152508c9250610a79915050565b6040518263ffffffff1660e01b815260040161039b9190610e69565b600060405180830381600087803b1580156103b557600080fd5b505af11580156103c9573d6000803e3d6000fd5b5050506001600160a01b038216905063941d505d61046c836103ee60c08a018a6110f8565b8080601f0160208091040260200160405190810160405280939291908181526020018383808284376000920191909152506104309250505060e08b018b6110f8565b8080601f0160208091040260200160405190810160405280939291908181526020018383808284376000920191909152508c9250610b7b915050565b6040518263ffffffff1660e01b81526004016104889190610e69565b600060405180830381600087803b1580156104a257600080fd5b505af11580156104b6573d6000803e3d6000fd5b505050506060816001600160a01b0316639d63848a6040518163ffffffff1660e01b815260040160006040518083038186803b1580156104f557600080fd5b505afa158015610509573d6000803e3d6000fd5b505050506040513d6000823e601f3d908101601f191682016040526105319190810190610c61565b9050816001600160a01b031663a7b2cc318260018151811061054f57fe5b6020026020010151610565896101200135610bce565b6105738a6101000135610bce565b6040518463ffffffff1660e01b815260040161059193929190610f16565b600060405180830381600087803b1580156105ab57600080fd5b505af11580156105bf573d6000803e3d6000fd5b50505050816001600160a01b0316633e4bdf7b826000815181106105df57fe5b60200260200101516040518263ffffffff1660e01b81526004016106039190610e69565b600060405180830381600087803b15801561061d57600080fd5b505af1158015610631573d6000803e3d6000fd5b50505050826001600160a01b03166388e1489c600660009054906101000a90046001600160a01b031688604001358960600135868660018151811061067257fe5b60200260200101518760008151811061068757fe5b60200260200101518d60200160208101906106a29190610c22565b8e8061014001906106b391906110aa565b6040518a63ffffffff1660e01b81526004016106d799989796959493929190610f49565b600060405180830381600087803b1580156106f157600080fd5b505af1158015610705573d6000803e3d6000fd5b505060405163f2fde38b60e01b81526001600160a01b038616925063f2fde38b9150610735903390600401610e69565b600060405180830381600087803b15801561074f57600080fd5b505af1158015610763573d6000803e3d6000fd5b505060405163f2fde38b60e01b81526001600160a01b038516925063f2fde38b9150610793903390600401610e69565b600060405180830381600087803b1580156107ad57600080fd5b505af11580156107c1573d6000803e3d6000fd5b50505050806000815181106107d257fe5b60200260200101516001600160a01b0316816001815181106107f057fe5b60200260200101516001600160a01b0316846001600160a01b03167f0ff3430811d84b8ceaad3d48db335030d651f13007e5699dbf0c63134cccb8a660405160405180910390a4509095945050505050565b6000546001600160a01b031681565b6002546001600160a01b031681565b60008061087b61087536869003860186610dae565b84610922565b60405163f2fde38b60e01b81529091506001600160a01b0382169063f2fde38b906108aa903390600401610e69565b600060405180830381600087803b1580156108c457600080fd5b505af11580156108d8573d6000803e3d6000fd5b509293505050505b92915050565b6006546001600160a01b031681565b6004546001600160a01b031681565b6003546001600160a01b031681565b6005546001600160a01b031681565b600080600160009054906101000a90046001600160a01b03166001600160a01b031663efc81a8c6040518163ffffffff1660e01b8152600401602060405180830381600087803b15801561097557600080fd5b505af1158015610989573d6000803e3d6000fd5b505050506040513d601f19601f820116820180604052508101906109ad9190610c45565b6006546000546040808801516060898101518a5160208c01519451635b5add1560e11b815297985091966001600160a01b03808a169763b6b5ba2a97610a0597918316968e9691909316948b94909290600401610e7d565b600060405180830381600087803b158015610a1f57600080fd5b505af1158015610a33573d6000803e3d6000fd5b50506040516001600160a01b0380881693508516915033907f2ab58319cdf2365d33486f067735d479b1ff535cf970c13ea090f264e2ec684b90600090a4509392505050565b600080600360009054906101000a90046001600160a01b03166001600160a01b031663efc81a8c6040518163ffffffff1660e01b8152600401602060405180830381600087803b158015610acc57600080fd5b505af1158015610ae0573d6000803e3d6000fd5b505050506040513d601f19601f82011682018060405250810190610b049190610c45565b60065460405163641078a360e11b81529192506001600160a01b038084169263c820f14692610b3f928a928a928a9216908d90600401610fe5565b600060405180830381600087803b158015610b5957600080fd5b505af1158015610b6d573d6000803e3d6000fd5b509298975050505050505050565b600080600260009054906101000a90046001600160a01b03166001600160a01b031663efc81a8c6040518163ffffffff1660e01b8152600401602060405180830381600087803b158015610acc57600080fd5b6000600160801b8210610bfc5760405162461bcd60e51b8152600401610bf390611035565b60405180910390fd5b5090565b80516108e081611164565b600060808284031215610c1c578081fd5b50919050565b600060208284031215610c33578081fd5b8135610c3e81611164565b9392505050565b600060208284031215610c56578081fd5b8151610c3e81611164565b60006020808385031215610c73578182fd5b825167ffffffffffffffff80821115610c8a578384fd5b818501915085601f830112610c9d578384fd5b815181811115610cab578485fd5b8381029150610cbb84830161113d565b8181528481019084860184860187018a1015610cd5578788fd5b8795505b83861015610cff57610ceb8a82610c00565b835260019590950194918601918601610cd9565b5098975050505050505050565b60008060a08385031215610d1e578081fd5b610d288484610c0b565b91506080830135610d3881611164565b809150509250929050565b600080600060c08486031215610d57578081fd5b610d618585610c0b565b9250608084013567ffffffffffffffff811115610d7c578182fd5b84016101608187031215610d8e578182fd5b915060a084013560ff81168114610da3578182fd5b809150509250925092565b600060808284031215610dbf578081fd5b610dc9608061113d565b8235610dd481611164565b808252506020830135602082015260408301356040820152606083013560608201528091505092915050565b6001600160a01b0316815260200190565b6001600160a01b03169052565b60008151808452815b81811015610e4357602081850181015186830182015201610e27565b81811115610e545782602083870101525b50601f01601f19169290920160200192915050565b6001600160a01b0391909116815260200190565b6001600160a01b038981168252888116602080840191909152908816604083015261010060608301819052875190830181905260009161012084019189820191845b82811015610ee257610ed2858551610e11565b9381019392810192600101610ebf565b50505050809150508560808301528460a0830152610f0360c0830185610e11565b8260e08301529998505050505050505050565b6001600160a01b039390931683526fffffffffffffffffffffffffffffffff918216602084015216604082015260600190565b6001600160a01b038a8116825260208083018b9052604083018a90528882166060840152878216608084015286821660a084015290851660c083015261010060e083018190528201839052600090610120830190859083905b86821015610fd2578235610fb581611164565b610fbf8582610e00565b9450508083019250600182019150610fa2565b50919d9c50505050505050505050505050565b600060a08252610ff860a0830188610e1e565b828103602084015261100a8188610e1e565b60ff96909616604084015250506001600160a01b039283166060820152911660809091015292915050565b60208082526027908201527f53616665436173743a2076616c756520646f65736e27742066697420696e20316040820152663238206269747360c81b606082015260800190565b9283526001600160a01b03918216602084015216604082015260806060820181905260009082015260a00190565b6000808335601e198436030181126110c0578283fd5b83018035915067ffffffffffffffff8211156110da578283fd5b60209081019250810236038213156110f157600080fd5b9250929050565b6000808335601e1984360301811261110e578182fd5b83018035915067ffffffffffffffff821115611128578283fd5b6020019150368190038213156110f157600080fd5b60405181810167ffffffffffffffff8111828210171561115c57600080fd5b604052919050565b6001600160a01b038116811461117957600080fd5b5056fea264697066735822122042b4648aa826a52b167a119f3a213c09ea915f6f682b9afb2a91d9882a01108f64736f6c634300060c0033",
  "devdoc": {
    "kind": "dev",
    "methods": {},
    "version": 1
  },
  "userdoc": {
    "kind": "user",
    "methods": {},
    "version": 1
  },
  "storageLayout": {
    "storage": [
      {
        "astId": 6116,
        "contract": "contracts/builders/yVaultPrizePoolBuilder.sol:yVaultPrizePoolBuilder",
        "label": "comptroller",
        "offset": 0,
        "slot": "0",
        "type": "t_contract(ComptrollerInterface)8031"
      },
      {
        "astId": 6118,
        "contract": "contracts/builders/yVaultPrizePoolBuilder.sol:yVaultPrizePoolBuilder",
        "label": "vaultPrizePoolProxyFactory",
        "offset": 0,
        "slot": "1",
        "type": "t_contract(yVaultPrizePoolProxyFactory)13009"
      },
      {
        "astId": 6120,
        "contract": "contracts/builders/yVaultPrizePoolBuilder.sol:yVaultPrizePoolBuilder",
        "label": "controlledTokenProxyFactory",
        "offset": 0,
        "slot": "2",
        "type": "t_contract(ControlledTokenProxyFactory)16838"
      },
      {
        "astId": 6122,
        "contract": "contracts/builders/yVaultPrizePoolBuilder.sol:yVaultPrizePoolBuilder",
        "label": "ticketProxyFactory",
        "offset": 0,
        "slot": "3",
        "type": "t_contract(TicketProxyFactory)17107"
      },
      {
        "astId": 6124,
        "contract": "contracts/builders/yVaultPrizePoolBuilder.sol:yVaultPrizePoolBuilder",
        "label": "singleRandomWinnerProxyFactory",
        "offset": 0,
        "slot": "4",
        "type": "t_contract(SingleRandomWinnerProxyFactory)14273"
      },
      {
        "astId": 6126,
        "contract": "contracts/builders/yVaultPrizePoolBuilder.sol:yVaultPrizePoolBuilder",
        "label": "proxyFactory",
        "offset": 0,
        "slot": "5",
        "type": "t_contract(OpenZeppelinProxyFactoryInterface)9573"
      },
      {
        "astId": 6128,
        "contract": "contracts/builders/yVaultPrizePoolBuilder.sol:yVaultPrizePoolBuilder",
        "label": "trustedForwarder",
        "offset": 0,
        "slot": "6",
        "type": "t_address"
      }
    ],
    "types": {
      "t_address": {
        "encoding": "inplace",
        "label": "address",
        "numberOfBytes": "20"
      },
      "t_contract(ComptrollerInterface)8031": {
        "encoding": "inplace",
        "label": "contract ComptrollerInterface",
        "numberOfBytes": "20"
      },
      "t_contract(ControlledTokenProxyFactory)16838": {
        "encoding": "inplace",
        "label": "contract ControlledTokenProxyFactory",
        "numberOfBytes": "20"
      },
      "t_contract(OpenZeppelinProxyFactoryInterface)9573": {
        "encoding": "inplace",
        "label": "contract OpenZeppelinProxyFactoryInterface",
        "numberOfBytes": "20"
      },
      "t_contract(SingleRandomWinnerProxyFactory)14273": {
        "encoding": "inplace",
        "label": "contract SingleRandomWinnerProxyFactory",
        "numberOfBytes": "20"
      },
      "t_contract(TicketProxyFactory)17107": {
        "encoding": "inplace",
        "label": "contract TicketProxyFactory",
        "numberOfBytes": "20"
      },
      "t_contract(yVaultPrizePoolProxyFactory)13009": {
        "encoding": "inplace",
        "label": "contract yVaultPrizePoolProxyFactory",
        "numberOfBytes": "20"
      }
    }
  },
  "gasEstimates": {
    "creation": {
      "codeDepositCost": "906000",
      "executionCost": "infinite",
      "totalCost": "infinite"
    },
    "external": {
      "comptroller()": "1115",
      "controlledTokenProxyFactory()": "1137",
      "createSingleRandomWinner((address,uint256,uint256,uint256),(address,address,uint256,uint256,string,string,string,string,uint256,uint256,address[]),uint8)": "infinite",
      "createyVaultPrizePool((address,uint256,uint256,uint256),address)": "infinite",
      "proxyFactory()": "1158",
      "singleRandomWinnerProxyFactory()": "1114",
      "ticketProxyFactory()": "1136",
      "trustedForwarder()": "1092",
      "vaultPrizePoolProxyFactory()": "1071"
    },
    "internal": {
      "_createControlledToken(contract TokenControllerInterface,string memory,string memory,uint8)": "infinite",
      "_createTicket(contract TokenControllerInterface,string memory,string memory,uint8)": "infinite",
      "_createyVaultPrizePool(struct yVaultPrizePoolBuilder.yVaultPrizePoolConfig memory,contract PrizePoolTokenListenerInterface)": "infinite"
    }
  }
}