{
  "abi": [
    {
      "inputs": [
        {
          "internalType": "contract ReserveInterface",
          "name": "_reserve",
          "type": "address"
        },
        {
          "internalType": "address",
          "name": "_trustedForwarder",
          "type": "address"
        },
        {
          "internalType": "contract yVaultPrizePoolProxyFactory",
          "name": "_vaultPrizePoolProxyFactory",
          "type": "address"
        },
        {
          "internalType": "contract SingleRandomWinnerBuilder",
          "name": "_singleRandomWinnerBuilder",
          "type": "address"
        }
      ],
      "stateMutability": "nonpayable",
      "type": "constructor"
    },
    {
      "anonymous": false,
      "inputs": [
        {
          "indexed": true,
          "internalType": "address",
          "name": "creator",
          "type": "address"
        },
        {
          "indexed": true,
          "internalType": "address",
          "name": "prizePool",
          "type": "address"
        }
      ],
      "name": "PrizePoolCreated",
      "type": "event"
    },
    {
      "inputs": [
        {
          "components": [
            {
              "internalType": "contract yVaultInterface",
              "name": "vault",
              "type": "address"
            },
            {
              "internalType": "uint256",
              "name": "reserveRateMantissa",
              "type": "uint256"
            },
            {
              "internalType": "uint256",
              "name": "maxExitFeeMantissa",
              "type": "uint256"
            },
            {
              "internalType": "uint256",
              "name": "maxTimelockDuration",
              "type": "uint256"
            }
          ],
          "internalType": "struct yVaultPrizePoolBuilder.yVaultPrizePoolConfig",
          "name": "prizePoolConfig",
          "type": "tuple"
        },
        {
          "components": [
            {
              "internalType": "contract RNGInterface",
              "name": "rngService",
              "type": "address"
            },
            {
              "internalType": "uint256",
              "name": "prizePeriodStart",
              "type": "uint256"
            },
            {
              "internalType": "uint256",
              "name": "prizePeriodSeconds",
              "type": "uint256"
            },
            {
              "internalType": "string",
              "name": "ticketName",
              "type": "string"
            },
            {
              "internalType": "string",
              "name": "ticketSymbol",
              "type": "string"
            },
            {
              "internalType": "string",
              "name": "sponsorshipName",
              "type": "string"
            },
            {
              "internalType": "string",
              "name": "sponsorshipSymbol",
              "type": "string"
            },
            {
              "internalType": "uint256",
              "name": "ticketCreditLimitMantissa",
              "type": "uint256"
            },
            {
              "internalType": "uint256",
              "name": "ticketCreditRateMantissa",
              "type": "uint256"
            },
            {
              "internalType": "address[]",
              "name": "externalERC20Awards",
              "type": "address[]"
            }
          ],
          "internalType": "struct SingleRandomWinnerBuilder.SingleRandomWinnerConfig",
          "name": "prizeStrategyConfig",
          "type": "tuple"
        },
        {
          "internalType": "uint8",
          "name": "decimals",
          "type": "uint8"
        }
      ],
      "name": "createSingleRandomWinner",
      "outputs": [
        {
          "internalType": "contract yVaultPrizePool",
          "name": "",
          "type": "address"
        }
      ],
      "stateMutability": "nonpayable",
      "type": "function"
    },
    {
      "inputs": [
        {
          "components": [
            {
              "internalType": "contract yVaultInterface",
              "name": "vault",
              "type": "address"
            },
            {
              "internalType": "uint256",
              "name": "reserveRateMantissa",
              "type": "uint256"
            },
            {
              "internalType": "uint256",
              "name": "maxExitFeeMantissa",
              "type": "uint256"
            },
            {
              "internalType": "uint256",
              "name": "maxTimelockDuration",
              "type": "uint256"
            }
          ],
          "internalType": "struct yVaultPrizePoolBuilder.yVaultPrizePoolConfig",
          "name": "config",
          "type": "tuple"
        }
      ],
      "name": "createyVaultPrizePool",
      "outputs": [
        {
          "internalType": "contract yVaultPrizePool",
          "name": "",
          "type": "address"
        }
      ],
      "stateMutability": "nonpayable",
      "type": "function"
    },
    {
      "inputs": [],
      "name": "reserve",
      "outputs": [
        {
          "internalType": "contract ReserveInterface",
          "name": "",
          "type": "address"
        }
      ],
      "stateMutability": "view",
      "type": "function"
    },
    {
      "inputs": [],
      "name": "singleRandomWinnerBuilder",
      "outputs": [
        {
          "internalType": "contract SingleRandomWinnerBuilder",
          "name": "",
          "type": "address"
        }
      ],
      "stateMutability": "view",
      "type": "function"
    },
    {
      "inputs": [],
      "name": "trustedForwarder",
      "outputs": [
        {
          "internalType": "address",
          "name": "",
          "type": "address"
        }
      ],
      "stateMutability": "view",
      "type": "function"
    },
    {
      "inputs": [],
      "name": "vaultPrizePoolProxyFactory",
      "outputs": [
        {
          "internalType": "contract yVaultPrizePoolProxyFactory",
          "name": "",
          "type": "address"
        }
      ],
      "stateMutability": "view",
      "type": "function"
    }
  ],
  "address": "0x8139db6c59c80901234e8662f4945a4a6C2ec90C",
  "args": [
    "0x8E5579c916D95713F339Fedec273088a143d4cC3",
    "0x25CEd1955423BA34332Ec1B60154967750a0297D",
    "0xad21D24C06aFAae2eBEadcA19F54713455C8ccc9",
    "0xa12aD5c38802d4C30AD5aBc7702A8827F210A857"
  ],
  "solcInputHash": "0x6340fcbeed079e284d2e5b37851e01c54c9ce216cfbfb71550fcb3294424f434",
  "bytecode": "0x60806040523480156200001157600080fd5b50604051620010cc380380620010cc83398101604081905262000034916200010c565b6001600160a01b038416620000665760405162461bcd60e51b81526004016200005d906200022d565b60405180910390fd5b6001600160a01b0381166200008f5760405162461bcd60e51b81526004016200005d90620001d0565b6001600160a01b038216620000b85760405162461bcd60e51b81526004016200005d9062000173565b600080546001600160a01b039586166001600160a01b03199182161790915560028054928616928216929092179091556003805493851693821693909317909255600180549190931691161790556200028d565b6000806000806080858703121562000122578384fd5b84516200012f8162000274565b6020860151909450620001428162000274565b6040860151909350620001558162000274565b6060860151909250620001688162000274565b939692955090935050565b6020808252603b908201527f795661756c745072697a65506f6f6c4275696c6465722f636f6d706f756e642d60408201527f7072697a652d706f6f6c2d6275696c6465722d6e6f742d7a65726f0000000000606082015260800190565b6020808252603c908201527f795661756c745072697a65506f6f6c4275696c6465722f73696e676c652d726160408201527f6e646f6d2d77696e6e65722d6275696c6465722d6e6f742d7a65726f00000000606082015260800190565b60208082526027908201527f795661756c745072697a65506f6f6c4275696c6465722f726573657276652d6e6040820152666f742d7a65726f60c81b606082015260800190565b6001600160a01b03811681146200028a57600080fd5b50565b610e2f806200029d6000396000f3fe608060405234801561001057600080fd5b50600436106100625760003560e01c806328ab0c8c14610067578063321ad5b5146100855780637da0a877146100985780638b21a439146100a0578063ad84e0f7146100b3578063cd3293de146100bb575b600080fd5b61006f6100c3565b60405161007c9190610aef565b60405180910390f35b61006f6100933660046109fe565b6100d2565b61006f61041d565b61006f6100ae3660046109e3565b61042c565b61006f6105e5565b61006f6105f4565b6001546001600160a01b031681565b600080600160009054906101000a90046001600160a01b03166001600160a01b031663efc81a8c6040518163ffffffff1660e01b8152600401602060405180830381600087803b15801561012557600080fd5b505af1158015610139573d6000803e3d6000fd5b505050506040513d601f19601f8201168201806040525081019061015d91906109a4565b60025460405163ec027fa960e01b81529192506000916001600160a01b039091169063ec027fa990610199908590899089903390600401610bbe565b602060405180830381600087803b1580156101b357600080fd5b505af11580156101c7573d6000803e3d6000fd5b505050506040513d601f19601f820116820180604052508101906101eb91906109a4565b6003546000549192506060916001600160a01b03808616926325581e0e9290821691168460408c01358c82013561022560208f018f6109c7565b8e602001356040518863ffffffff1660e01b815260040161024c9796959493929190610b03565b600060405180830381600087803b15801561026657600080fd5b505af115801561027a573d6000803e3d6000fd5b5050505061029383838861010001358960e00135610603565b826001600160a01b031663a7b2cc31836001600160a01b031663500db70d6040518163ffffffff1660e01b815260040160206040518083038186803b1580156102db57600080fd5b505afa1580156102ef573d6000803e3d6000fd5b505050506040513d601f19601f8201168201806040525081019061031391906109a4565b61032189610100013561094a565b61032e8a60e0013561094a565b6040518463ffffffff1660e01b815260040161034c93929190610b8b565b600060405180830381600087803b15801561036657600080fd5b505af115801561037a573d6000803e3d6000fd5b505060405163f2fde38b60e01b81526001600160a01b038616925063f2fde38b91506103aa903390600401610aef565b600060405180830381600087803b1580156103c457600080fd5b505af11580156103d8573d6000803e3d6000fd5b50506040516001600160a01b03861692503391507f0b951d5080d5d1ed87b8d27a54d3cf0019c5b2ca9912347c630a1f09e14b185f90600090a3509095945050505050565b6003546001600160a01b031681565b600080600160009054906101000a90046001600160a01b03166001600160a01b031663efc81a8c6040518163ffffffff1660e01b8152600401602060405180830381600087803b15801561047f57600080fd5b505af1158015610493573d6000803e3d6000fd5b505050506040513d601f19601f820116820180604052508101906104b791906109a4565b6003546000549192506060916001600160a01b03808516926325581e0e929082169116846040890135898201356104f160208c018c6109c7565b8b602001356040518863ffffffff1660e01b81526004016105189796959493929190610b03565b600060405180830381600087803b15801561053257600080fd5b505af1158015610546573d6000803e3d6000fd5b505060405163f2fde38b60e01b81526001600160a01b038516925063f2fde38b9150610576903390600401610aef565b600060405180830381600087803b15801561059057600080fd5b505af11580156105a4573d6000803e3d6000fd5b50506040516001600160a01b03851692503391507f0b951d5080d5d1ed87b8d27a54d3cf0019c5b2ca9912347c630a1f09e14b185f90600090a35092915050565b6002546001600160a01b031681565b6000546001600160a01b031681565b6000836001600160a01b0316636cc25db76040518163ffffffff1660e01b815260040160206040518083038186803b15801561063e57600080fd5b505afa158015610652573d6000803e3d6000fd5b505050506040513d601f19601f8201168201806040525081019061067691906109a4565b6040516348e5240760e11b81529091506001600160a01b038616906391ca480e906106a5908790600401610aef565b600060405180830381600087803b1580156106bf57600080fd5b505af11580156106d3573d6000803e3d6000fd5b505060405163941d505d60e01b81526001600160a01b038816925063941d505d9150610703908490600401610aef565b600060405180830381600087803b15801561071d57600080fd5b505af1158015610731573d6000803e3d6000fd5b50505050846001600160a01b031663941d505d856001600160a01b031663500db70d6040518163ffffffff1660e01b815260040160206040518083038186803b15801561077d57600080fd5b505afa158015610791573d6000803e3d6000fd5b505050506040513d601f19601f820116820180604052508101906107b591906109a4565b6040518263ffffffff1660e01b81526004016107d19190610aef565b600060405180830381600087803b1580156107eb57600080fd5b505af11580156107ff573d6000803e3d6000fd5b50505050846001600160a01b031663a7b2cc318261081c8661094a565b6108258661094a565b6040518463ffffffff1660e01b815260040161084393929190610b8b565b600060405180830381600087803b15801561085d57600080fd5b505af1158015610871573d6000803e3d6000fd5b50505050846001600160a01b0316633e4bdf7b856001600160a01b031663500db70d6040518163ffffffff1660e01b815260040160206040518083038186803b1580156108bd57600080fd5b505afa1580156108d1573d6000803e3d6000fd5b505050506040513d601f19601f820116820180604052508101906108f591906109a4565b6040518263ffffffff1660e01b81526004016109119190610aef565b600060405180830381600087803b15801561092b57600080fd5b505af115801561093f573d6000803e3d6000fd5b505050505050505050565b6000600160801b82106109785760405162461bcd60e51b815260040161096f90610d06565b60405180910390fd5b5090565b803561098781610de1565b92915050565b60006080828403121561099e578081fd5b50919050565b6000602082840312156109b5578081fd5b81516109c081610de1565b9392505050565b6000602082840312156109d8578081fd5b81356109c081610de1565b6000608082840312156109f4578081fd5b6109c0838361098d565b600080600060c08486031215610a12578182fd5b610a1c858561098d565b9250608084013567ffffffffffffffff811115610a37578283fd5b84016101408187031215610a49578283fd5b915060a084013560ff81168114610a5e578182fd5b809150509250925092565b6001600160a01b03169052565b60008284526020808501945082825b85811015610ab3578135610a9881610de1565b6001600160a01b031687529582019590820190600101610a85565b509495945050505050565b60008284528282602086013780602084860101526020601f19601f85011685010190509392505050565b60ff169052565b6001600160a01b0391909116815260200190565b600060e0820160018060a01b03808b1684526020818b168186015260e06040860152828a5180855261010087019150828c019450855b81811015610b57578551851683529483019491830191600101610b39565b505080945050505050856060830152846080830152610b7960a0830185610a69565b8260c083015298975050505050505050565b6001600160a01b039390931683526fffffffffffffffffffffffffffffffff918216602084015216604082015260600190565b600060018060a01b03861682526080602083015260208501610bec60808401610be7838961097c565b610a69565b3560a0830152604085013560c0830152610c096060860186610d9c565b6101408060e0860152610c216101c086018385610abe565b9250610c306080890189610d9c565b9250607f19610100818887030181890152610c4c868685610abe565b9550610c5b60a08c018c610d9c565b955092506101208289880301818a0152610c76878786610abe565b9650610c8560c08d018d610d9c565b965093508289880301858a0152610c9d878786610abe565b965060e08c01356101608a0152818c01356101808a0152610cc0818d018d610d4d565b96509450505080878603016101a08801525050610cde838383610a76565b9350505050610cf06040830185610ae8565b610cfd6060830184610a69565b95945050505050565b60208082526027908201527f53616665436173743a2076616c756520646f65736e27742066697420696e20316040820152663238206269747360c81b606082015260800190565b6000808335601e19843603018112610d63578283fd5b830160208101925035905067ffffffffffffffff811115610d8357600080fd5b602081023603831315610d9557600080fd5b9250929050565b6000808335601e19843603018112610db2578283fd5b830160208101925035905067ffffffffffffffff811115610dd257600080fd5b803603831315610d9557600080fd5b6001600160a01b0381168114610df657600080fd5b5056fea26469706673582212203f3b4452e82de0354816e3b68366ef794f7788515c509c52c529484a0eb53f4164736f6c634300060c0033",
  "devdoc": {
    "kind": "dev",
    "methods": {},
    "version": 1
  },
  "userdoc": {
    "kind": "user",
    "methods": {},
    "version": 1
  },
  "storageLayout": {
    "storage": [
      {
        "astId": 6358,
        "contract": "contracts/builders/yVaultPrizePoolBuilder.sol:yVaultPrizePoolBuilder",
        "label": "reserve",
        "offset": 0,
        "slot": "0",
        "type": "t_contract(ReserveInterface)15699"
      },
      {
        "astId": 6360,
        "contract": "contracts/builders/yVaultPrizePoolBuilder.sol:yVaultPrizePoolBuilder",
        "label": "vaultPrizePoolProxyFactory",
        "offset": 0,
        "slot": "1",
        "type": "t_contract(yVaultPrizePoolProxyFactory)13986"
      },
      {
        "astId": 6362,
        "contract": "contracts/builders/yVaultPrizePoolBuilder.sol:yVaultPrizePoolBuilder",
        "label": "singleRandomWinnerBuilder",
        "offset": 0,
        "slot": "2",
        "type": "t_contract(SingleRandomWinnerBuilder)6101"
      },
      {
        "astId": 6364,
        "contract": "contracts/builders/yVaultPrizePoolBuilder.sol:yVaultPrizePoolBuilder",
        "label": "trustedForwarder",
        "offset": 0,
        "slot": "3",
        "type": "t_address"
      }
    ],
    "types": {
      "t_address": {
        "encoding": "inplace",
        "label": "address",
        "numberOfBytes": "20"
      },
      "t_contract(ReserveInterface)15699": {
        "encoding": "inplace",
        "label": "contract ReserveInterface",
        "numberOfBytes": "20"
      },
      "t_contract(SingleRandomWinnerBuilder)6101": {
        "encoding": "inplace",
        "label": "contract SingleRandomWinnerBuilder",
        "numberOfBytes": "20"
      },
      "t_contract(yVaultPrizePoolProxyFactory)13986": {
        "encoding": "inplace",
        "label": "contract yVaultPrizePoolProxyFactory",
        "numberOfBytes": "20"
      }
    }
  },
  "gasEstimates": {
    "creation": {
      "codeDepositCost": "726200",
      "executionCost": "infinite",
      "totalCost": "infinite"
    },
    "external": {
      "createSingleRandomWinner((address,uint256,uint256,uint256),(address,uint256,uint256,string,string,string,string,uint256,uint256,address[]),uint8)": "infinite",
      "createyVaultPrizePool((address,uint256,uint256,uint256))": "infinite",
      "reserve()": "1158",
      "singleRandomWinnerBuilder()": "1136",
      "trustedForwarder()": "1092",
      "vaultPrizePoolProxyFactory()": "1048"
    }
  }
}