{
  "address": "0xCE7Ff1E49E16f3AD30b23a04eDA62F18D8F6d186",
  "abi": [
    {
      "inputs": [
        {
          "internalType": "contract RegistryInterface",
          "name": "_reserveRegistry",
          "type": "address"
        },
        {
          "internalType": "contract CompoundPrizePoolProxyFactory",
          "name": "_compoundPrizePoolProxyFactory",
          "type": "address"
        },
        {
          "internalType": "contract YieldSourcePrizePoolProxyFactory",
          "name": "_yieldSourcePrizePoolProxyFactory",
          "type": "address"
        },
        {
          "internalType": "contract StakePrizePoolProxyFactory",
          "name": "_stakePrizePoolProxyFactory",
          "type": "address"
        },
        {
          "internalType": "contract MultipleWinnersBuilder",
          "name": "_multipleWinnersBuilder",
          "type": "address"
        }
      ],
      "stateMutability": "nonpayable",
      "type": "constructor"
    },
    {
      "anonymous": false,
      "inputs": [
        {
          "indexed": true,
          "internalType": "contract CompoundPrizePool",
          "name": "prizePool",
          "type": "address"
        },
        {
          "indexed": true,
          "internalType": "contract MultipleWinners",
          "name": "prizeStrategy",
          "type": "address"
        }
      ],
      "name": "CompoundPrizePoolWithMultipleWinnersCreated",
      "type": "event"
    },
    {
      "anonymous": false,
      "inputs": [
        {
          "indexed": true,
          "internalType": "contract StakePrizePool",
          "name": "prizePool",
          "type": "address"
        },
        {
          "indexed": true,
          "internalType": "contract MultipleWinners",
          "name": "prizeStrategy",
          "type": "address"
        }
      ],
      "name": "StakePrizePoolWithMultipleWinnersCreated",
      "type": "event"
    },
    {
      "anonymous": false,
      "inputs": [
        {
          "indexed": true,
          "internalType": "contract YieldSourcePrizePool",
          "name": "prizePool",
          "type": "address"
        },
        {
          "indexed": true,
          "internalType": "contract MultipleWinners",
          "name": "prizeStrategy",
          "type": "address"
        }
      ],
      "name": "YieldSourcePrizePoolWithMultipleWinnersCreated",
      "type": "event"
    },
    {
      "inputs": [],
      "name": "compoundPrizePoolProxyFactory",
      "outputs": [
        {
          "internalType": "contract CompoundPrizePoolProxyFactory",
          "name": "",
          "type": "address"
        }
      ],
      "stateMutability": "view",
      "type": "function"
    },
    {
      "inputs": [
        {
          "components": [
            {
              "internalType": "contract CTokenInterface",
              "name": "cToken",
              "type": "address"
            },
            {
              "internalType": "uint256",
              "name": "maxExitFeeMantissa",
              "type": "uint256"
            }
          ],
          "internalType": "struct PoolWithMultipleWinnersBuilder.CompoundPrizePoolConfig",
          "name": "prizePoolConfig",
          "type": "tuple"
        },
        {
          "components": [
            {
              "internalType": "contract RNGInterface",
              "name": "rngService",
              "type": "address"
            },
            {
              "internalType": "uint256",
              "name": "prizePeriodStart",
              "type": "uint256"
            },
            {
              "internalType": "uint256",
              "name": "prizePeriodSeconds",
              "type": "uint256"
            },
            {
              "internalType": "string",
              "name": "ticketName",
              "type": "string"
            },
            {
              "internalType": "string",
              "name": "ticketSymbol",
              "type": "string"
            },
            {
              "internalType": "string",
              "name": "sponsorshipName",
              "type": "string"
            },
            {
              "internalType": "string",
              "name": "sponsorshipSymbol",
              "type": "string"
            },
            {
              "internalType": "uint256",
              "name": "ticketCreditLimitMantissa",
              "type": "uint256"
            },
            {
              "internalType": "uint256",
              "name": "ticketCreditRateMantissa",
              "type": "uint256"
            },
            {
              "internalType": "uint256",
              "name": "numberOfWinners",
              "type": "uint256"
            },
            {
              "components": [
                {
                  "internalType": "address",
                  "name": "target",
                  "type": "address"
                },
                {
                  "internalType": "uint16",
                  "name": "percentage",
                  "type": "uint16"
                },
                {
                  "internalType": "uint8",
                  "name": "token",
                  "type": "uint8"
                }
              ],
              "internalType": "struct PrizeSplit.PrizeSplitConfig[]",
              "name": "prizeSplits",
              "type": "tuple[]"
            },
            {
              "internalType": "bool",
              "name": "splitExternalErc20Awards",
              "type": "bool"
            }
          ],
          "internalType": "struct MultipleWinnersBuilder.MultipleWinnersConfig",
          "name": "prizeStrategyConfig",
          "type": "tuple"
        },
        {
          "internalType": "uint8",
          "name": "decimals",
          "type": "uint8"
        }
      ],
      "name": "createCompoundMultipleWinners",
      "outputs": [
        {
          "internalType": "contract CompoundPrizePool",
          "name": "",
          "type": "address"
        }
      ],
      "stateMutability": "nonpayable",
      "type": "function"
    },
    {
      "inputs": [
        {
          "components": [
            {
              "internalType": "contract IERC20Upgradeable",
              "name": "token",
              "type": "address"
            },
            {
              "internalType": "uint256",
              "name": "maxExitFeeMantissa",
              "type": "uint256"
            }
          ],
          "internalType": "struct PoolWithMultipleWinnersBuilder.StakePrizePoolConfig",
          "name": "prizePoolConfig",
          "type": "tuple"
        },
        {
          "components": [
            {
              "internalType": "contract RNGInterface",
              "name": "rngService",
              "type": "address"
            },
            {
              "internalType": "uint256",
              "name": "prizePeriodStart",
              "type": "uint256"
            },
            {
              "internalType": "uint256",
              "name": "prizePeriodSeconds",
              "type": "uint256"
            },
            {
              "internalType": "string",
              "name": "ticketName",
              "type": "string"
            },
            {
              "internalType": "string",
              "name": "ticketSymbol",
              "type": "string"
            },
            {
              "internalType": "string",
              "name": "sponsorshipName",
              "type": "string"
            },
            {
              "internalType": "string",
              "name": "sponsorshipSymbol",
              "type": "string"
            },
            {
              "internalType": "uint256",
              "name": "ticketCreditLimitMantissa",
              "type": "uint256"
            },
            {
              "internalType": "uint256",
              "name": "ticketCreditRateMantissa",
              "type": "uint256"
            },
            {
              "internalType": "uint256",
              "name": "numberOfWinners",
              "type": "uint256"
            },
            {
              "components": [
                {
                  "internalType": "address",
                  "name": "target",
                  "type": "address"
                },
                {
                  "internalType": "uint16",
                  "name": "percentage",
                  "type": "uint16"
                },
                {
                  "internalType": "uint8",
                  "name": "token",
                  "type": "uint8"
                }
              ],
              "internalType": "struct PrizeSplit.PrizeSplitConfig[]",
              "name": "prizeSplits",
              "type": "tuple[]"
            },
            {
              "internalType": "bool",
              "name": "splitExternalErc20Awards",
              "type": "bool"
            }
          ],
          "internalType": "struct MultipleWinnersBuilder.MultipleWinnersConfig",
          "name": "prizeStrategyConfig",
          "type": "tuple"
        },
        {
          "internalType": "uint8",
          "name": "decimals",
          "type": "uint8"
        }
      ],
      "name": "createStakeMultipleWinners",
      "outputs": [
        {
          "internalType": "contract StakePrizePool",
          "name": "",
          "type": "address"
        }
      ],
      "stateMutability": "nonpayable",
      "type": "function"
    },
    {
      "inputs": [
        {
          "components": [
            {
              "internalType": "contract IYieldSource",
              "name": "yieldSource",
              "type": "address"
            },
            {
              "internalType": "uint256",
              "name": "maxExitFeeMantissa",
              "type": "uint256"
            }
          ],
          "internalType": "struct PoolWithMultipleWinnersBuilder.YieldSourcePrizePoolConfig",
          "name": "prizePoolConfig",
          "type": "tuple"
        },
        {
          "components": [
            {
              "internalType": "contract RNGInterface",
              "name": "rngService",
              "type": "address"
            },
            {
              "internalType": "uint256",
              "name": "prizePeriodStart",
              "type": "uint256"
            },
            {
              "internalType": "uint256",
              "name": "prizePeriodSeconds",
              "type": "uint256"
            },
            {
              "internalType": "string",
              "name": "ticketName",
              "type": "string"
            },
            {
              "internalType": "string",
              "name": "ticketSymbol",
              "type": "string"
            },
            {
              "internalType": "string",
              "name": "sponsorshipName",
              "type": "string"
            },
            {
              "internalType": "string",
              "name": "sponsorshipSymbol",
              "type": "string"
            },
            {
              "internalType": "uint256",
              "name": "ticketCreditLimitMantissa",
              "type": "uint256"
            },
            {
              "internalType": "uint256",
              "name": "ticketCreditRateMantissa",
              "type": "uint256"
            },
            {
              "internalType": "uint256",
              "name": "numberOfWinners",
              "type": "uint256"
            },
            {
              "components": [
                {
                  "internalType": "address",
                  "name": "target",
                  "type": "address"
                },
                {
                  "internalType": "uint16",
                  "name": "percentage",
                  "type": "uint16"
                },
                {
                  "internalType": "uint8",
                  "name": "token",
                  "type": "uint8"
                }
              ],
              "internalType": "struct PrizeSplit.PrizeSplitConfig[]",
              "name": "prizeSplits",
              "type": "tuple[]"
            },
            {
              "internalType": "bool",
              "name": "splitExternalErc20Awards",
              "type": "bool"
            }
          ],
          "internalType": "struct MultipleWinnersBuilder.MultipleWinnersConfig",
          "name": "prizeStrategyConfig",
          "type": "tuple"
        },
        {
          "internalType": "uint8",
          "name": "decimals",
          "type": "uint8"
        }
      ],
      "name": "createYieldSourceMultipleWinners",
      "outputs": [
        {
          "internalType": "contract YieldSourcePrizePool",
          "name": "",
          "type": "address"
        }
      ],
      "stateMutability": "nonpayable",
      "type": "function"
    },
    {
      "inputs": [],
      "name": "multipleWinnersBuilder",
      "outputs": [
        {
          "internalType": "contract MultipleWinnersBuilder",
          "name": "",
          "type": "address"
        }
      ],
      "stateMutability": "view",
      "type": "function"
    },
    {
      "inputs": [],
      "name": "reserveRegistry",
      "outputs": [
        {
          "internalType": "contract RegistryInterface",
          "name": "",
          "type": "address"
        }
      ],
      "stateMutability": "view",
      "type": "function"
    },
    {
      "inputs": [],
      "name": "stakePrizePoolProxyFactory",
      "outputs": [
        {
          "internalType": "contract StakePrizePoolProxyFactory",
          "name": "",
          "type": "address"
        }
      ],
      "stateMutability": "view",
      "type": "function"
    },
    {
      "inputs": [],
      "name": "yieldSourcePrizePoolProxyFactory",
      "outputs": [
        {
          "internalType": "contract YieldSourcePrizePoolProxyFactory",
          "name": "",
          "type": "address"
        }
      ],
      "stateMutability": "view",
      "type": "function"
    }
  ],
  "transactionHash": "0xe64439a5e56233e386e4a58bbfd3cced52cb024ef1a30d56ec580f207cab51b9",
  "args": [
    "0x20F29CCaE4c9886964033042c6b79c2C4C816308",
    "0x72Edd573E230C7d68274Bf718A4C6aD82b5d5f90",
    "0x5effa0823e486A5ED1D49d88A1374Fc337e1f9F4",
    "0xdE55668e38FEcD037BFA40AcFD7d30e58F9143D4",
    "0xB29A3c1a9d4eFa7391e685bFD2654ea31E2f3125"
  ],
  "solcInputHash": "07113fc1ebb7a05ae49ea4c62cff423c",
  "bytecode": "0x60806040523480156200001157600080fd5b50604051620018c1380380620018c183398101604081905262000034916200016d565b6001600160a01b038516620000665760405162461bcd60e51b81526004016200005d9062000296565b60405180910390fd5b6001600160a01b0384166200008f5760405162461bcd60e51b81526004016200005d90620002dc565b6001600160a01b038316620000b85760405162461bcd60e51b81526004016200005d90620001ec565b6001600160a01b038216620000e15760405162461bcd60e51b81526004016200005d9062000339565b6001600160a01b0381166200010a5760405162461bcd60e51b81526004016200005d9062000249565b600080546001600160a01b03199081166001600160a01b03978816179091556001805482169587169590951790945560028054851693861693909317909255600380548416918516919091179055600480549092169216919091179055620003a3565b600080600080600060a0868803121562000185578081fd5b855162000192816200038a565b6020870151909550620001a5816200038a565b6040870151909450620001b8816200038a565b6060870151909350620001cb816200038a565b6080870151909250620001de816200038a565b809150509295509295909350565b60208082526037908201527f476c6f62616c4275696c6465722f7969656c64536f757263655072697a65506f60408201527f6f6c50726f7879466163746f72792d6e6f742d7a65726f000000000000000000606082015260800190565b6020808252602d908201527f476c6f62616c4275696c6465722f6d756c7469706c6557696e6e65727342756960408201526c6c6465722d6e6f742d7a65726f60981b606082015260800190565b60208082526026908201527f476c6f62616c4275696c6465722f7265736572766552656769737472792d6e6f604082015265742d7a65726f60d01b606082015260800190565b60208082526034908201527f476c6f62616c4275696c6465722f636f6d706f756e645072697a65506f6f6c5060408201527f726f7879466163746f72792d6e6f742d7a65726f000000000000000000000000606082015260800190565b60208082526031908201527f476c6f62616c4275696c6465722f7374616b655072697a65506f6f6c50726f7860408201527079466163746f72792d6e6f742d7a65726f60781b606082015260800190565b6001600160a01b0381168114620003a057600080fd5b50565b61150e80620003b36000396000f3fe608060405234801561001057600080fd5b50600436106100885760003560e01c80638f0a6b361161005b5780638f0a6b36146100ce578063b77b59d0146100d6578063c4844272146100de578063dc71362b146100f157610088565b8063083d91441461008d5780633327717d146100b6578063802125f5146100be5780638e71c1f6146100c6575b600080fd5b6100a061009b36600461103c565b610104565b6040516100ad9190611383565b60405180910390f35b6100a0610483565b6100a0610492565b6100a06104a1565b6100a06104b0565b6100a06104bf565b6100a06100ec3660046110c0565b6104ce565b6100a06100ff366004611147565b61084d565b600080600160009054906101000a90046001600160a01b03166001600160a01b031663efc81a8c6040518163ffffffff1660e01b8152600401602060405180830381600087803b15801561015757600080fd5b505af115801561016b573d6000803e3d6000fd5b505050506040513d601f19601f8201168201806040525081019061018f9190611019565b6004805460405163b77f3bcb60e01b81529293506000926001600160a01b039091169163b77f3bcb916101ca9186918a918a913391016113ca565b602060405180830381600087803b1580156101e457600080fd5b505af11580156101f8573d6000803e3d6000fd5b505050506040513d601f19601f8201168201806040525081019061021c9190611019565b6000549091506001600160a01b038084169163c5871485911661023e84610bcc565b60208a01518a516040516001600160e01b031960e087901b1681526102699493929190600401611408565b600060405180830381600087803b15801561028357600080fd5b505af1158015610297573d6000803e3d6000fd5b50506040516348e5240760e11b81526001600160a01b03851692506391ca480e91506102c7908490600401611383565b600060405180830381600087803b1580156102e157600080fd5b505af11580156102f5573d6000803e3d6000fd5b50505050816001600160a01b031663a7b2cc31826001600160a01b0316636cc25db76040518163ffffffff1660e01b815260040160206040518083038186803b15801561034157600080fd5b505afa158015610355573d6000803e3d6000fd5b505050506040513d601f19601f820116820180604052508101906103799190611019565b610387886101000151610d2b565b6103948960e00151610d2b565b6040518463ffffffff1660e01b81526004016103b293929190611397565b600060405180830381600087803b1580156103cc57600080fd5b505af11580156103e0573d6000803e3d6000fd5b505060405163f2fde38b60e01b81526001600160a01b038516925063f2fde38b9150610410903390600401611383565b600060405180830381600087803b15801561042a57600080fd5b505af115801561043e573d6000803e3d6000fd5b50506040516001600160a01b038085169350851691507f42714bc68c7250ebba24f4cf6ff0e97afddec794459ee3d050081bd7fbc3d65e90600090a350949350505050565b6003546001600160a01b031681565b6001546001600160a01b031681565b6000546001600160a01b031681565b6002546001600160a01b031681565b6004546001600160a01b031681565b600080600360009054906101000a90046001600160a01b03166001600160a01b031663efc81a8c6040518163ffffffff1660e01b8152600401602060405180830381600087803b15801561052157600080fd5b505af1158015610535573d6000803e3d6000fd5b505050506040513d601f19601f820116820180604052508101906105599190611019565b6004805460405163b77f3bcb60e01b81529293506000926001600160a01b039091169163b77f3bcb916105949186918a918a913391016113ca565b602060405180830381600087803b1580156105ae57600080fd5b505af11580156105c2573d6000803e3d6000fd5b505050506040513d601f19601f820116820180604052508101906105e69190611019565b6000549091506001600160a01b038084169163c5871485911661060884610bcc565b60208a01518a516040516001600160e01b031960e087901b1681526106339493929190600401611408565b600060405180830381600087803b15801561064d57600080fd5b505af1158015610661573d6000803e3d6000fd5b50506040516348e5240760e11b81526001600160a01b03851692506391ca480e9150610691908490600401611383565b600060405180830381600087803b1580156106ab57600080fd5b505af11580156106bf573d6000803e3d6000fd5b50505050816001600160a01b031663a7b2cc31826001600160a01b0316636cc25db76040518163ffffffff1660e01b815260040160206040518083038186803b15801561070b57600080fd5b505afa15801561071f573d6000803e3d6000fd5b505050506040513d601f19601f820116820180604052508101906107439190611019565b610751886101000151610d2b565b61075e8960e00151610d2b565b6040518463ffffffff1660e01b815260040161077c93929190611397565b600060405180830381600087803b15801561079657600080fd5b505af11580156107aa573d6000803e3d6000fd5b505060405163f2fde38b60e01b81526001600160a01b038516925063f2fde38b91506107da903390600401611383565b600060405180830381600087803b1580156107f457600080fd5b505af1158015610808573d6000803e3d6000fd5b50506040516001600160a01b038085169350851691507f1633ccb3d787c0c7e5c7b5eb77604c85e70614eeef4f64551ab0044cd9925d0e90600090a350949350505050565b600080600260009054906101000a90046001600160a01b03166001600160a01b031663efc81a8c6040518163ffffffff1660e01b8152600401602060405180830381600087803b1580156108a057600080fd5b505af11580156108b4573d6000803e3d6000fd5b505050506040513d601f19601f820116820180604052508101906108d89190611019565b6004805460405163b77f3bcb60e01b81529293506000926001600160a01b039091169163b77f3bcb916109139186918a918a913391016113ca565b602060405180830381600087803b15801561092d57600080fd5b505af1158015610941573d6000803e3d6000fd5b505050506040513d601f19601f820116820180604052508101906109659190611019565b6000549091506001600160a01b038084169163cfa24007911661098784610bcc565b60208a01518a516040516001600160e01b031960e087901b1681526109b29493929190600401611408565b600060405180830381600087803b1580156109cc57600080fd5b505af11580156109e0573d6000803e3d6000fd5b50506040516348e5240760e11b81526001600160a01b03851692506391ca480e9150610a10908490600401611383565b600060405180830381600087803b158015610a2a57600080fd5b505af1158015610a3e573d6000803e3d6000fd5b50505050816001600160a01b031663a7b2cc31826001600160a01b0316636cc25db76040518163ffffffff1660e01b815260040160206040518083038186803b158015610a8a57600080fd5b505afa158015610a9e573d6000803e3d6000fd5b505050506040513d601f19601f82011682018060405250810190610ac29190611019565b610ad0886101000151610d2b565b610add8960e00151610d2b565b6040518463ffffffff1660e01b8152600401610afb93929190611397565b600060405180830381600087803b158015610b1557600080fd5b505af1158015610b29573d6000803e3d6000fd5b505060405163f2fde38b60e01b81526001600160a01b038516925063f2fde38b9150610b59903390600401611383565b600060405180830381600087803b158015610b7357600080fd5b505af1158015610b87573d6000803e3d6000fd5b50506040516001600160a01b038085169350851691507f63eabe842a4ca0fa63657803ae342a4b111574de00afe4fad24e7668d8b7975490600090a350949350505050565b604080516002808252606080830184529283929190602083019080368337019050509050826001600160a01b0316636cc25db76040518163ffffffff1660e01b815260040160206040518083038186803b158015610c2957600080fd5b505afa158015610c3d573d6000803e3d6000fd5b505050506040513d601f19601f82011682018060405250810190610c619190611019565b81600081518110610c6e57fe5b60200260200101906001600160a01b031690816001600160a01b031681525050826001600160a01b031663500db70d6040518163ffffffff1660e01b815260040160206040518083038186803b158015610cc757600080fd5b505afa158015610cdb573d6000803e3d6000fd5b505050506040513d601f19601f82011682018060405250810190610cff9190611019565b81600181518110610d0c57fe5b6001600160a01b03909216602092830291909101909101529050919050565b6000600160801b8210610d595760405162461bcd60e51b8152600401610d5090611443565b60405180910390fd5b5090565b600082601f830112610d6d578081fd5b813567ffffffffffffffff811115610d83578182fd5b6020610d92818284020161148a565b8281529250808301848201606080850287018401881015610db257600080fd5b60005b85811015610dd957610dc78984610fab565b84529284019291810191600101610db5565b50505050505092915050565b80358015158114610df557600080fd5b92915050565b8035610df5816114b1565b600082601f830112610e16578081fd5b813567ffffffffffffffff811115610e2c578182fd5b610e3f601f8201601f191660200161148a565b9150808252836020828501011115610e5657600080fd5b8060208401602084013760009082016020015292915050565b6000610180808385031215610e82578182fd5b610e8b8161148a565b915050610e988383610dfb565b81526020820135602082015260408201356040820152606082013567ffffffffffffffff80821115610ec957600080fd5b610ed585838601610e06565b60608401526080840135915080821115610eee57600080fd5b610efa85838601610e06565b608084015260a0840135915080821115610f1357600080fd5b610f1f85838601610e06565b60a084015260c0840135915080821115610f3857600080fd5b610f4485838601610e06565b60c084015260e084810135908401526101008085013590840152610120808501359084015261014091508184013581811115610f7f57600080fd5b610f8b86828701610d5d565b83850152505050610160610fa184828501610de5565b9082015292915050565b600060608284031215610fbc578081fd5b610fc6606061148a565b90508135610fd3816114b1565b8152602082013561ffff81168114610fea57600080fd5b60208201526040820135610ffd816114c9565b604082015292915050565b803560ff81168114610df557600080fd5b60006020828403121561102a578081fd5b8151611035816114b1565b9392505050565b60008060008385036080811215611051578283fd5b604081121561105e578283fd5b50611069604061148a565b8435611074816114b1565b8152602085810135908201529250604084013567ffffffffffffffff81111561109b578283fd5b6110a786828701610e6f565b9250506110b78560608601611008565b90509250925092565b600080600083850360808112156110d5578182fd5b60408112156110e2578182fd5b506110ed604061148a565b84356110f8816114b1565b8152602085810135908201529250604084013567ffffffffffffffff81111561111f578182fd5b61112b86828701610e6f565b925050606084013561113c816114c9565b809150509250925092565b6000806000838503608081121561115c578182fd5b6040811215611169578182fd5b50611174604061148a565b843561117f816114b1565b8152602085810135908201529250604084013567ffffffffffffffff81111561109b578182fd5b6001600160a01b03169052565b6000815180845260208085019450808401835b838110156111eb5781516001600160a01b0316875295820195908201906001016111c6565b509495945050505050565b6000815180845260208085019450808401835b838110156111eb57815180516001600160a01b031688528381015161ffff168489015260409081015160ff169088015260609096019590820190600101611209565b15159052565b60008151808452815b818110156112765760208185018101518683018201520161125a565b818111156112875782602083870101525b50601f01601f19169290920160200192915050565b60006101806112ac8484516111a6565b602083015160208501526040830151604085015260608301518160608601526112d782860182611251565b915050608083015184820360808601526112f18282611251565b91505060a083015184820360a086015261130b8282611251565b91505060c083015184820360c08601526113258282611251565b91505060e083015160e0850152610100808401518186015250610120808401518186015250610140808401518583038287015261136283826111f6565b92505050610160808401516113798287018261124b565b5090949350505050565b6001600160a01b0391909116815260200190565b6001600160a01b039390931683526fffffffffffffffffffffffffffffffff918216602084015216604082015260600190565b600060018060a01b038087168352608060208401526113ec608084018761129c565b60ff959095166040840152929092166060909101525092915050565b600060018060a01b0380871683526080602084015261142a60808401876111b3565b6040840195909552929092166060909101525092915050565b60208082526027908201527f53616665436173743a2076616c756520646f65736e27742066697420696e20316040820152663238206269747360c81b606082015260800190565b60405181810167ffffffffffffffff811182821017156114a957600080fd5b604052919050565b6001600160a01b03811681146114c657600080fd5b50565b60ff811681146114c657600080fdfea26469706673582212201eb6f314902fb7a42be9d91ed16a86831170e79821effec25435b3eb504885cc64736f6c634300060c0033",
  "devdoc": {
    "kind": "dev",
    "methods": {},
    "version": 1
  },
  "userdoc": {
    "kind": "user",
    "methods": {},
    "version": 1
  },
  "storageLayout": {
    "storage": [
      {
        "astId": 6182,
        "contract": "contracts/builders/PoolWithMultipleWinnersBuilder.sol:PoolWithMultipleWinnersBuilder",
        "label": "reserveRegistry",
        "offset": 0,
        "slot": "0",
        "type": "t_contract(RegistryInterface)12614"
      },
      {
        "astId": 6184,
        "contract": "contracts/builders/PoolWithMultipleWinnersBuilder.sol:PoolWithMultipleWinnersBuilder",
        "label": "compoundPrizePoolProxyFactory",
        "offset": 0,
        "slot": "1",
        "type": "t_contract(CompoundPrizePoolProxyFactory)9294"
      },
      {
        "astId": 6186,
        "contract": "contracts/builders/PoolWithMultipleWinnersBuilder.sol:PoolWithMultipleWinnersBuilder",
        "label": "yieldSourcePrizePoolProxyFactory",
        "offset": 0,
        "slot": "2",
        "type": "t_contract(YieldSourcePrizePoolProxyFactory)9671"
      },
      {
        "astId": 6188,
        "contract": "contracts/builders/PoolWithMultipleWinnersBuilder.sol:PoolWithMultipleWinnersBuilder",
        "label": "stakePrizePoolProxyFactory",
        "offset": 0,
        "slot": "3",
        "type": "t_contract(StakePrizePoolProxyFactory)9456"
      },
      {
        "astId": 6190,
        "contract": "contracts/builders/PoolWithMultipleWinnersBuilder.sol:PoolWithMultipleWinnersBuilder",
        "label": "multipleWinnersBuilder",
        "offset": 0,
        "slot": "4",
        "type": "t_contract(MultipleWinnersBuilder)6134"
      }
    ],
    "types": {
      "t_contract(CompoundPrizePoolProxyFactory)9294": {
        "encoding": "inplace",
        "label": "contract CompoundPrizePoolProxyFactory",
        "numberOfBytes": "20"
      },
      "t_contract(MultipleWinnersBuilder)6134": {
        "encoding": "inplace",
        "label": "contract MultipleWinnersBuilder",
        "numberOfBytes": "20"
      },
      "t_contract(RegistryInterface)12614": {
        "encoding": "inplace",
        "label": "contract RegistryInterface",
        "numberOfBytes": "20"
      },
      "t_contract(StakePrizePoolProxyFactory)9456": {
        "encoding": "inplace",
        "label": "contract StakePrizePoolProxyFactory",
        "numberOfBytes": "20"
      },
      "t_contract(YieldSourcePrizePoolProxyFactory)9671": {
        "encoding": "inplace",
        "label": "contract YieldSourcePrizePoolProxyFactory",
        "numberOfBytes": "20"
      }
    }
  }
}