{
  "address": "0xdd8f31f7B9C6026311464bc07aE5DB2F99F3892e",
  "abi": [
    {
      "inputs": [],
      "stateMutability": "nonpayable",
      "type": "constructor"
    },
    {
      "anonymous": false,
      "inputs": [
        {
          "indexed": false,
          "internalType": "address",
          "name": "proxy",
          "type": "address"
        }
      ],
      "name": "ProxyCreated",
      "type": "event"
    },
    {
      "inputs": [],
      "name": "create",
      "outputs": [
        {
          "internalType": "contract YieldSourcePrizePool",
          "name": "",
          "type": "address"
        }
      ],
      "stateMutability": "nonpayable",
      "type": "function"
    },
    {
      "inputs": [
        {
          "internalType": "address",
          "name": "_logic",
          "type": "address"
        },
        {
          "internalType": "bytes",
          "name": "_data",
          "type": "bytes"
        }
      ],
      "name": "deployMinimal",
      "outputs": [
        {
          "internalType": "address",
          "name": "proxy",
          "type": "address"
        }
      ],
      "stateMutability": "nonpayable",
      "type": "function"
    },
    {
      "inputs": [],
      "name": "instance",
      "outputs": [
        {
          "internalType": "contract YieldSourcePrizePool",
          "name": "",
          "type": "address"
        }
      ],
      "stateMutability": "view",
      "type": "function"
    }
  ],
  "transactionHash": "0x02120ace0afed1fa04be37dee82899fb0d3837b4032a90565d7e959204b52474",
  "args": [],
  "solcInputHash": "4ee5cd3af4cdf3f3b3aae685e2904e9d",
  "bytecode": "0x608060405234801561001057600080fd5b5060405161001d9061005f565b604051809103906000f080158015610039573d6000803e3d6000fd5b50600080546001600160a01b0319166001600160a01b039290921691909117905561006c565b614a74806103b283390190565b6103378061007b6000396000f3fe608060405234801561001057600080fd5b50600436106100415760003560e01c8063022ec09514610046578063b3eeb5e21461006a578063efc81a8c14610120575b600080fd5b61004e610128565b604080516001600160a01b039092168252519081900360200190f35b61004e6004803603604081101561008057600080fd5b6001600160a01b0382351691908101906040810160208201356401000000008111156100ab57600080fd5b8201836020820111156100bd57600080fd5b803590602001918460018302840111640100000000831117156100df57600080fd5b91908080601f016020809104026020016040519081016040528093929190818152602001838380828437600092019190915250929550610137945050505050565b61004e6102b3565b6000546001600160a01b031681565b6000808360601b9050604051733d602d80600a3d3981f3363d3d373d3d3d363d7360601b81528160148201526e5af43d82803e903d91602b57fd5bf360881b60288201526037816000f0604080516001600160a01b038316815290519194507efffc2da0b561cae30d9826d37709e9421c4725faebc226cbbb7ef5fc5e7349925081900360200190a18251156102ac576000826001600160a01b0316846040518082805190602001908083835b602083106102035780518252601f1990920191602091820191016101e4565b6001836020036101000a0380198251168184511680821785525050505050509050019150506000604051808303816000865af19150503d8060008114610265576040519150601f19603f3d011682016040523d82523d6000602084013e61026a565b606091505b50509050806102aa5760405162461bcd60e51b81526004018080602001828103825260248152602001806102de6024913960400191505060405180910390fd5b505b5092915050565b6000805460408051602081019091528281526102d8916001600160a01b031690610137565b90509056fe50726f7879466163746f72792f636f6e7374727563746f722d63616c6c2d6661696c6564a2646970667358221220fe6cc3ec245e6d8808928159e85745ea672dcf53b45ced87fe4e102a0a14521564736f6c634300060c0033608060405234801561001057600080fd5b50614a54806100206000396000f3fe608060405234801561001057600080fd5b50600436106102695760003560e01c80638f03daef11610151578063b3a7b78a116100c3578063e6d8a94b11610087578063e6d8a94b14610964578063edb4e1cf1461096c578063f2fde38b14610974578063f30b3c591461099a578063f69bd42814610a5f578063fc0c546a14610a6757610269565b8063b3a7b78a1461088d578063b69ef8a8146108c3578063d4a1361d146108cb578063db92f7f014610920578063e323f8251461092857610269565b80639e167519116101155780639e167519146107b35780639fe32a91146107bb578063a016240b146107d8578063a7b2cc3114610812578063abca6e711461084f578063b2470e5c1461088557610269565b80638f03daef146106d157806391ca480e146106f757806394d43e141461071d57806398bf3eb6146107535780639d63848a1461075b57610269565b80636968f8b3116101ea57806379cb8563116101ae57806379cb8563146105d15780637b99adb1146106035780637cbab1c714610620578063888c2b6f146106565780638da5cb5b146106a55780638e71c1f6146106c957610269565b80636968f8b31461052b5780636a3fd4f9146105515780636b1b863a1461058b578063715018a6146105c157806376687d3d146105c957610269565b80632f7627e3116102315780632f7627e3146104335780633e7580a914610461578063494de9f7146104cf57806352a387ab146104fd578063630665b41461052357610269565b80630881cffb1461026e5780630937eb541461032657806313f55e391461034057806316960d55146103765780632b0ab144146103fd575b600080fd5b6103246004803603608081101561028457600080fd5b6001600160a01b038235169190810190604081016020820135600160201b8111156102ae57600080fd5b8201836020820111156102c057600080fd5b803590602001918460208302840111600160201b831117156102e157600080fd5b9190808060200260200160405190810160405280939291908181526020018383602002808284376000920191909152509295505082359350505060200135610a6f565b005b61032e610c18565b60408051918252519081900360200190f35b6103246004803603606081101561035657600080fd5b506001600160a01b03813581169160208101359091169060400135610c27565b6103246004803603606081101561038c57600080fd5b6001600160a01b038235811692602081013590911691810190606081016040820135600160201b8111156103bf57600080fd5b8201836020820111156103d157600080fd5b803590602001918460208302840111600160201b831117156103f257600080fd5b509092509050610ce5565b6103246004803603606081101561041357600080fd5b506001600160a01b03813581169160208101359091169060400135610ece565b6103246004803603604081101561044957600080fd5b506001600160a01b0381358116916020013516610f8b565b61032e6004803603602081101561047757600080fd5b810190602081018135600160201b81111561049157600080fd5b8201836020820111156104a357600080fd5b803590602001918460208302840111600160201b831117156104c457600080fd5b5090925090506110da565b61032e600480360360408110156104e557600080fd5b506001600160a01b038135811691602001351661116c565b61032e6004803603602081101561051357600080fd5b50356001600160a01b0316611273565b61032e6113c2565b61032e6004803603602081101561054157600080fd5b50356001600160a01b03166113c8565b6105776004803603602081101561056757600080fd5b50356001600160a01b03166113e7565b604080519115158252519081900360200190f35b610324600480360360608110156105a157600080fd5b506001600160a01b038135811691602081013591604090910135166113f8565b610324611600565b61032e6116ac565b61032e600480360360608110156105e757600080fd5b506001600160a01b0381351690602081013590604001356116b2565b6103246004803603602081101561061957600080fd5b50356116c9565b6103246004803603606081101561063657600080fd5b506001600160a01b03813581169160208101359091169060400135611737565b61068c6004803603606081101561066c57600080fd5b506001600160a01b03813581169160208101359091169060400135611983565b6040805192835260208301919091528051918290030190f35b6106ad61199d565b604080516001600160a01b039092168252519081900360200190f35b6106ad6119ac565b61032e600480360360208110156106e757600080fd5b50356001600160a01b03166119bb565b6103246004803603602081101561070d57600080fd5b50356001600160a01b03166119d6565b6103246004803603606081101561073357600080fd5b506001600160a01b03813581169160208101359160409091013516611a41565b6106ad611be9565b610763611bf8565b60408051602080825283518183015283519192839290830191858101910280838360005b8381101561079f578181015183820152602001610787565b505050509050019250505060405180910390f35b61032e611c04565b61032e600480360360208110156107d157600080fd5b5035611c0a565b61032e600480360360808110156107ee57600080fd5b506001600160a01b0381358116916020810135916040820135169060600135611d40565b6103246004803603606081101561082857600080fd5b506001600160a01b03813516906001600160801b0360208201358116916040013516611f65565b61068c6004803603606081101561086557600080fd5b506001600160a01b038135811691602081013590911690604001356120bb565b6106ad6120c9565b61032e600480360360608110156108a357600080fd5b506001600160a01b038135811691602081013591604090910135166120d8565b61032e6122ad565b6108f1600480360360208110156108e157600080fd5b50356001600160a01b03166122b7565b60405180836001600160801b03168152602001826001600160801b031681526020019250505060405180910390f35b61032e6122e7565b6103246004803603608081101561093e57600080fd5b506001600160a01b038135811691602081013591604082013581169160600135166122ed565b61032e612490565b61032e6125f4565b6103246004803603602081101561098a57600080fd5b50356001600160a01b03166125fa565b610324600480360360a08110156109b057600080fd5b6001600160a01b038235169190810190604081016020820135600160201b8111156109da57600080fd5b8201836020820111156109ec57600080fd5b803590602001918460208302840111600160201b83111715610a0d57600080fd5b91908080602002602001604051908101604052809392919081815260200183836020028082843760009201919091525092955050823593505050602081013590604001356001600160a01b03166126fd565b61032e6127fc565b6106ad612802565b600054610100900460ff1680610a885750610a8861280c565b80610a96575060005460ff16155b610ad15760405162461bcd60e51b815260040180806020018281038252602e8152602001806148f9602e913960400191505060405180910390fd5b600054610100900460ff16158015610afc576000805460ff1961ff0019909116610100171660011790555b6001600160a01b038516610b415760405162461bcd60e51b81526004018080602001828103825260228152602001806148b16022913960400191505060405180910390fd5b610b4b609861281d565b60005b8451811015610b7b57610b73858281518110610b6657fe5b6020026020010151612885565b600101610b4e565b50610b84612991565b610b8c612a42565b610b97600019612ad7565b609780546001600160a01b0387166001600160a01b03199091168117909155609b849055609c8390556040805191825260208201859052818101849052517f0f91882b50d9330af0b1d4998e6af7f2eaee90ce7e77ea54fea089af166d021d9181900360600190a18015610c11576000805461ff00191690555b5050505050565b6000610c22612b12565b905090565b609a546001600160a01b0316610c3b612bfe565b6001600160a01b031614610c84576040805162461bcd60e51b815260206004820152601c60248201526000805160206149ff833981519152604482015290519081900360640190fd5b610c8f838383612c02565b15610ce057816001600160a01b0316836001600160a01b03167fb0bac59718cd343c80a813518afcf36846cfcfe6d56e2b3cab9bd49f5f9b251c836040518082815260200191505060405180910390a35b505050565b609a546001600160a01b0316610cf9612bfe565b6001600160a01b031614610d42576040805162461bcd60e51b815260206004820152601c60248201526000805160206149ff833981519152604482015290519081900360640190fd5b610d4b83612c89565b610d9c576040805162461bcd60e51b815260206004820181905260248201527f5072697a65506f6f6c2f696e76616c69642d65787465726e616c2d746f6b656e604482015290519081900360640190fd5b80610da657610ec8565b60005b81811015610e4f57836001600160a01b03166323b872dd3087868686818110610dce57fe5b905060200201356040518463ffffffff1660e01b815260040180846001600160a01b03168152602001836001600160a01b031681526020018281526020019350505050600060405180830381600087803b158015610e2b57600080fd5b505af1158015610e3f573d6000803e3d6000fd5b505060019092019150610da99050565b50826001600160a01b0316846001600160a01b03167f69c2de32bc4d47f488e72626a6cfdee85089342e52675e7de79c4b417623960c848460405180806020018281038252848482818152602001925060200280828437600083820152604051601f909101601f19169092018290039550909350505050a35b50505050565b609a546001600160a01b0316610ee2612bfe565b6001600160a01b031614610f2b576040805162461bcd60e51b815260206004820152601c60248201526000805160206149ff833981519152604482015290519081900360640190fd5b610f36838383612c02565b15610ce057816001600160a01b0316836001600160a01b03167fc65f48aca3b7a99b7443d04b8ffbb073156179bc628dc3f7def5047748973469836040518082815260200191505060405180910390a3505050565b610f93612bfe565b6001600160a01b0316610fa461199d565b6001600160a01b031614610fed576040805162461bcd60e51b81526020600482018190526024820152600080516020614948833981519152604482015290519081900360640190fd5b6000826001600160a01b03166370a08231306040518263ffffffff1660e01b815260040180826001600160a01b0316815260200191505060206040518083038186803b15801561103c57600080fd5b505afa158015611050573d6000803e3d6000fd5b505050506040513d602081101561106657600080fd5b505111156110d657816001600160a01b0316635c19a95c826040518263ffffffff1660e01b815260040180826001600160a01b03168152602001915050600060405180830381600087803b1580156110bd57600080fd5b505af11580156110d1573d6000803e3d6000fd5b505050505b5050565b600060026065541415611122576040805162461bcd60e51b815260206004820152601f6024820152600080516020614844833981519152604482015290519081900360640190fd5b6002606555604080516020808502828101820190935284825261116092869186918291850190849080828437600092019190915250612c9e92505050565b60016065559392505050565b60008161117881612f52565b6111b7576040805162461bcd60e51b8152602060048201526017602482015260008051602061498f833981519152604482015290519081900360640190fd5b61123c8484856001600160a01b03166370a08231886040518263ffffffff1660e01b815260040180826001600160a01b0316815260200191505060206040518083038186803b15801561120957600080fd5b505afa15801561121d573d6000803e3d6000fd5b505050506040513d602081101561123357600080fd5b50516000612f5f565b50506001600160a01b03908116600090815260a460209081526040808320949093168252929092529020546001600160c01b031690565b600080609760009054906101000a90046001600160a01b03166001600160a01b031663f5e3542b6040518163ffffffff1660e01b815260040160206040518083038186803b1580156112c457600080fd5b505afa1580156112d8573d6000803e3d6000fd5b505050506040513d60208110156112ee57600080fd5b505190506001600160a01b0381163314611348576040805162461bcd60e51b81526020600482015260166024820152755072697a65506f6f6c2f6f6e6c792d7265736572766560501b604482015290519081900360640190fd5b609e80546000918290559061135c82612f75565b905061137b858261136b612ff4565b6001600160a01b0316919061306a565b6040805183815290516001600160a01b038716917f1c71c8e11fd443227c8f8d3dc1a237a3a5e8310b540c7fbcf5169754aedf42c9919081900360200190a2949350505050565b60a05490565b6001600160a01b038116600090815260a160205260409020545b919050565b60006113f282612c89565b92915050565b609a546001600160a01b031661140c612bfe565b6001600160a01b031614611455576040805162461bcd60e51b815260206004820152601c60248201526000805160206149ff833981519152604482015290519081900360640190fd5b8061145f81612f52565b61149e576040805162461bcd60e51b8152602060048201526017602482015260008051602061498f833981519152604482015290519081900360640190fd5b826114a857610ec8565b60a0548311156114ff576040805162461bcd60e51b815260206004820152601d60248201527f5072697a65506f6f6c2f61776172642d657863656564732d617661696c000000604482015290519081900360640190fd5b60a05461150c90846130bc565b60a05561151c8484846000613119565b600061152883856131ff565b90506115ae8584856001600160a01b03166370a08231896040518263ffffffff1660e01b815260040180826001600160a01b0316815260200191505060206040518083038186803b15801561157c57600080fd5b505afa158015611590573d6000803e3d6000fd5b505050506040513d60208110156115a657600080fd5b505184612f5f565b826001600160a01b0316856001600160a01b03167fe2554529d99ab7a67db6b4cea2b32c7d55ae325f958861e05f304fdded867e31866040518082815260200191505060405180910390a35050505050565b611608612bfe565b6001600160a01b031661161961199d565b6001600160a01b031614611662576040805162461bcd60e51b81526020600482018190526024820152600080516020614948833981519152604482015290519081900360640190fd5b6033546040516000916001600160a01b0316907f8be0079c531659141344cd1fd0a4f28419497f9722a3daafe3b4186f6b6457e0908390a3603380546001600160a01b0319169055565b609f5481565b60006116bf848484613237565b90505b9392505050565b6116d1612bfe565b6001600160a01b03166116e261199d565b6001600160a01b03161461172b576040805162461bcd60e51b81526020600482018190526024820152600080516020614948833981519152604482015290519081900360640190fd5b61173481612ad7565b50565b3361174181612f52565b611780576040805162461bcd60e51b8152602060048201526017602482015260008051602061498f833981519152604482015290519081900360640190fd5b6001600160a01b0384161561185a576000336001600160a01b03166370a08231866040518263ffffffff1660e01b815260040180826001600160a01b0316815260200191505060206040518083038186803b1580156117de57600080fd5b505afa1580156117f2573d6000803e3d6000fd5b505050506040513d602081101561180857600080fd5b50519050600061181a86338484613291565b9050846001600160a01b0316866001600160a01b03161461184c576118493361184384876130bc565b83613320565b90505b611857863383613366565b50505b6001600160a01b038316158015906118845750836001600160a01b0316836001600160a01b031614155b156118db576118db8333336001600160a01b03166370a08231876040518263ffffffff1660e01b815260040180826001600160a01b0316815260200191505060206040518083038186803b15801561120957600080fd5b6001600160a01b038416158015906118fd5750609a546001600160a01b031615155b15610ec857609a546040805163b221095760e01b81526001600160a01b0387811660048301528681166024830152604482018690523360648301529151919092169163b221095791608480830192600092919082900301818387803b15801561196557600080fd5b505af1158015611979573d6000803e3d6000fd5b5050505050505050565b6000806119918585856134fc565b91509150935093915050565b6033546001600160a01b031690565b6097546001600160a01b031681565b6001600160a01b0316600090815260a2602052604090205490565b6119de612bfe565b6001600160a01b03166119ef61199d565b6001600160a01b031614611a38576040805162461bcd60e51b81526020600482018190526024820152600080516020614948833981519152604482015290519081900360640190fd5b6117348161369a565b80611a4b81612f52565b611a8a576040805162461bcd60e51b8152602060048201526017602482015260008051602061498f833981519152604482015290519081900360640190fd5b82611a94816137ad565b611ae5576040805162461bcd60e51b815260206004820152601f60248201527f5072697a65506f6f6c2f657863656564732d6c69717569646974792d63617000604482015290519081900360640190fd5b60026065541415611b2b576040805162461bcd60e51b815260206004820152601f6024820152600080516020614844833981519152604482015290519081900360640190fd5b60026065556000611b3a612bfe565b9050611b498686866000613119565b6001600160a01b038116600090815260a16020526040902054611b6c90866130bc565b6001600160a01b038216600090815260a16020526040902055609d54611b9290866130bc565b609d556040805186815290516001600160a01b038087169289821692918516917f5e2892708ad1e30084c9b26159ffc666e18a9bffef3e61c8020110b5542db9cf9181900360200190a45050600160655550505050565b609a546001600160a01b031681565b6060610c2260986137d1565b609b5481565b600080609760009054906101000a90046001600160a01b03166001600160a01b031663f5e3542b6040518163ffffffff1660e01b815260040160206040518083038186803b158015611c5b57600080fd5b505afa158015611c6f573d6000803e3d6000fd5b505050506040513d6020811015611c8557600080fd5b505190506001600160a01b038116611ca15760009150506113e2565b6000816001600160a01b031663010dfa58306040518263ffffffff1660e01b815260040180826001600160a01b0316815260200191505060206040518083038186803b158015611cf057600080fd5b505afa158015611d04573d6000803e3d6000fd5b505050506040513d6020811015611d1a57600080fd5b5051905080611d2e576000925050506113e2565b611d3884826138a8565b949350505050565b600060026065541415611d88576040805162461bcd60e51b815260206004820152601f6024820152600080516020614844833981519152604482015290519081900360640190fd5b600260655582611d9781612f52565b611dd6576040805162461bcd60e51b8152602060048201526017602482015260008051602061498f833981519152604482015290519081900360640190fd5b600080611de48887896134fc565b9150915084821115611e275760405162461bcd60e51b81526004018080602001828103825260278152602001806149686027913960400191505060405180910390fd5b611e328887836138c9565b856001600160a01b031663631b5dfb611e49612bfe565b8a8a6040518463ffffffff1660e01b815260040180846001600160a01b03168152602001836001600160a01b031681526020018281526020019350505050600060405180830381600087803b158015611ea157600080fd5b505af1158015611eb5573d6000803e3d6000fd5b505050506000611ece83896130bc90919063ffffffff16565b90506000611edb82612f75565b9050611eea8a8261136b612ff4565b876001600160a01b03168a6001600160a01b0316611f06612bfe565b604080518d81526020810186905280820189905290516001600160a01b0392909216917f0271704a58fd2953e49b87d67a0a3ce28a58147de98a5457f60b4686f63850309181900360600190a450506001606555509695505050505050565b82611f6f81612f52565b611fae576040805162461bcd60e51b8152602060048201526017602482015260008051602061498f833981519152604482015290519081900360640190fd5b611fb6612bfe565b6001600160a01b0316611fc761199d565b6001600160a01b031614612010576040805162461bcd60e51b81526020600482018190526024820152600080516020614948833981519152604482015290519081900360640190fd5b6040805180820182526001600160801b0380851680835286821660208085018281526001600160a01b038b16600081815260a384528890209651875492518716600160801b029087166fffffffffffffffffffffffffffffffff1990931692909217909516179094558451928352928201528083019190915290517ffb0ba2cf86a2b03bcf387753a2192da80a006afa99dd022bb301c78e323bf1b99181900360600190a150505050565b60008061199185858561398a565b60a5546001600160a01b031681565b600060026065541415612120576040805162461bcd60e51b815260206004820152601f6024820152600080516020614844833981519152604482015290519081900360640190fd5b60026065558161212f81612f52565b61216e576040805162461bcd60e51b8152602060048201526017602482015260008051602061498f833981519152604482015290519081900360640190fd5b60006121786139c9565b905060008061218888878961398a565b9092509050600061219984846139cd565b90506121a68988846138c9565b866001600160a01b031663631b5dfb6121bd612bfe565b8b8b6040518463ffffffff1660e01b815260040180846001600160a01b03168152602001836001600160a01b031681526020018281526020019350505050600060405180830381600087803b15801561221557600080fd5b505af1158015612229573d6000803e3d6000fd5b50505050612238898983613a27565b866001600160a01b0316896001600160a01b0316612254612bfe565b6001600160a01b03167f8525b0d0266acfc7f6134894f8c4bea88f1beb343d5a3c11b0f3b982a8becfab8b85604051808381526020018281526020019250505060405180910390a4600160655598975050505050505050565b6000610c22613af2565b6001600160a01b0316600090815260a360205260409020546001600160801b0380821692600160801b9092041690565b609d5481565b816122f781612f52565b612336576040805162461bcd60e51b8152602060048201526017602482015260008051602061498f833981519152604482015290519081900360640190fd5b83612340816137ad565b612391576040805162461bcd60e51b815260206004820152601f60248201527f5072697a65506f6f6c2f657863656564732d6c69717569646974792d63617000604482015290519081900360640190fd5b600260655414156123d7576040805162461bcd60e51b815260206004820152601f6024820152600080516020614844833981519152604482015290519081900360640190fd5b600260655560006123e6612bfe565b90506123f487878787613119565b612413813088612402612ff4565b6001600160a01b0316929190613b52565b61241c86613bac565b846001600160a01b0316876001600160a01b0316826001600160a01b03167f6ce569498e0f86f147466ac49211cb2a1ffe06195adb805e383b3f2365109160898860405180838152602001826001600160a01b031681526020019250505060405180910390a4505060016065555050505050565b6000600260655414156124d8576040805162461bcd60e51b815260206004820152601f6024820152600080516020614844833981519152604482015290519081900360640190fd5b600260655560006124e7612b12565b905060006124f3613af2565b9050600082821161250557600061250f565b61250f82846130bc565b9050600060a0548211612523576000612531565b60a0546125319083906130bc565b905080156125e357600061254482611c0a565b9050801561259e57609e5461255990826139cd565b609e5561256682826130bc565b6040805183815290519193507f5f1703ccfa2730d4245350f228079926a37f26a44ecf6978a7eeafff0af11407919081900360200190a15b60a0546125ab90836139cd565b60a0556040805183815290517fce2b6e507c7ca1a20ce136810f524eefc19ba4c7e4866eb6cc0cba76e778d4be9181900360200190a1505b60a054945050505050600160655590565b609e5481565b612602612bfe565b6001600160a01b031661261361199d565b6001600160a01b03161461265c576040805162461bcd60e51b81526020600482018190526024820152600080516020614948833981519152604482015290519081900360640190fd5b6001600160a01b0381166126a15760405162461bcd60e51b81526004018080602001828103825260268152602001806148646026913960400191505060405180910390fd5b6033546040516001600160a01b038084169216907f8be0079c531659141344cd1fd0a4f28419497f9722a3daafe3b4186f6b6457e090600090a3603380546001600160a01b0319166001600160a01b0392909216919091179055565b600054610100900460ff1680612716575061271661280c565b80612724575060005460ff16155b61275f5760405162461bcd60e51b815260040180806020018281038252602e8152602001806148f9602e913960400191505060405180910390fd5b600054610100900460ff1615801561278a576000805460ff1961ff0019909116610100171660011790555b61279686868686610a6f565b60a580546001600160a01b0319166001600160a01b0384811691909117918290556040519116907f7a0ca506edc9fcd36e010dbcaad57dade17bbac71dfeb53269077098e863eeca90600090a280156110d1576000805461ff0019169055505050505050565b609c5481565b6000610c22612ff4565b600061281730613d0f565b15905090565b805415612860576040805162461bcd60e51b815260206004820152600c60248201526b105b1c9958591e481a5b9a5d60a21b604482015290519081900360640190fd5b60016000818152918101602052604090912080546001600160a01b0319169091179055565b306001600160a01b0316816001600160a01b031663f77c47916040518163ffffffff1660e01b815260040160206040518083038186803b1580156128c857600080fd5b505afa1580156128dc573d6000803e3d6000fd5b505050506040513d60208110156128f257600080fd5b50516001600160a01b03161461294f576040805162461bcd60e51b815260206004820152601e60248201527f5072697a65506f6f6c2f746f6b656e2d6374726c722d6d69736d617463680000604482015290519081900360640190fd5b61295a609882613d15565b6040516001600160a01b038216907f460e712b4a5d801d031ed673dea209b73ab854f7ddeb86b6c48082e92c3eee6690600090a250565b600054610100900460ff16806129aa57506129aa61280c565b806129b8575060005460ff16155b6129f35760405162461bcd60e51b815260040180806020018281038252602e8152602001806148f9602e913960400191505060405180910390fd5b600054610100900460ff16158015612a1e576000805460ff1961ff0019909116610100171660011790555b612a26613e29565b612a2e613ec9565b8015611734576000805461ff001916905550565b600054610100900460ff1680612a5b5750612a5b61280c565b80612a69575060005460ff16155b612aa45760405162461bcd60e51b815260040180806020018281038252602e8152602001806148f9602e913960400191505060405180910390fd5b600054610100900460ff16158015612acf576000805460ff1961ff0019909116610100171660011790555b612a2e613fc2565b609f8190556040805182815290517f3ff20538222f568f27ff436c0c49dfd3e48d5b8f86533a3f759dc1c7089775ab9181900360200190a150565b600080612b2c609e54609d546139cd90919063ffffffff16565b90506000612b3a6098614068565b90505b6001600160a01b03811615801590612b705750612b5a6098614085565b6001600160a01b0316816001600160a01b031614155b15612bf857612be4816001600160a01b03166318160ddd6040518163ffffffff1660e01b815260040160206040518083038186803b158015612bb157600080fd5b505afa158015612bc5573d6000803e3d6000fd5b505050506040513d6020811015612bdb57600080fd5b505183906139cd565b9150612bf160988261408b565b9050612b3d565b50905090565b3390565b6000612c0d83612c89565b612c5e576040805162461bcd60e51b815260206004820181905260248201527f5072697a65506f6f6c2f696e76616c69642d65787465726e616c2d746f6b656e604482015290519081900360640190fd5b81612c6b575060006116c2565b612c7f6001600160a01b038416858461306a565b5060019392505050565b60a5546001600160a01b039081169116141590565b600080612ca9612bfe565b90506060835167ffffffffffffffff81118015612cc557600080fd5b50604051908082528060200260200182016040528015612cef578160200160208202803683370190505b5090506000805b8551811015612dbe576000868281518110612d0d57fe5b60200260200101519050612d1f6139c9565b6001600160a01b038216600090815260a2602052604090205411612db5576001600160a01b038116600090815260a16020526040902054612d619084906139cd565b6001600160a01b038216600090815260a16020526040902054855191945090859084908110612d8c57fe5b6020908102919091018101919091526001600160a01b038216600090815260a190915260408120555b50600101612cf6565b81612dd05760009450505050506113e2565b609d54612ddd90836130bc565b609d556000612deb83612f75565b90506000612df7612ff4565b9050600092505b8751831015612f46576000858481518110612e1557fe5b60200260200101511115612f3b5760a26000898581518110612e3357fe5b60200260200101516001600160a01b03166001600160a01b03168152602001908152602001600020600090556000612e7e868581518110612e7057fe5b6020026020010151866140ae565b90506000612e8c84836138a8565b9050612ebf8a8681518110612e9d57fe5b602002602001015182856001600160a01b031661306a9092919063ffffffff16565b898581518110612ecb57fe5b60200260200101516001600160a01b0316886001600160a01b03167fbb0b86d17da09eb201fde0b40e5129e29184c65db2bf7e6ec15cf199daccd1d2898881518110612f1357fe5b602002602001015184604051808381526020018281526020019250505060405180910390a350505b600190920191612dfe565b50919695505050505050565b60006113f26098836140cf565b610ec88484612f7087878787613291565b613366565b60a5546040805163db006a7560e01b81526004810184905290516000926001600160a01b03169163db006a7591602480830192602092919082900301818787803b158015612fc257600080fd5b505af1158015612fd6573d6000803e3d6000fd5b505050506040513d6020811015612fec57600080fd5b505192915050565b60a55460408051637e062a3560e11b815290516000926001600160a01b03169163fc0c546a916004808301926020929190829003018186803b15801561303957600080fd5b505afa15801561304d573d6000803e3d6000fd5b505050506040513d602081101561306357600080fd5b5051905090565b604080516001600160a01b038416602482015260448082018490528251808303909101815260649091019091526020810180516001600160e01b031663a9059cbb60e01b179052610ce0908490614120565b600082821115613113576040805162461bcd60e51b815260206004820152601e60248201527f536166654d6174683a207375627472616374696f6e206f766572666c6f770000604482015290519081900360640190fd5b50900390565b609a546001600160a01b0316156131a857609a54604080516304d7f3db60e41b81526001600160a01b038781166004830152602482018790528581166044830152848116606483015291519190921691634d7f3db091608480830192600092919082900301818387803b15801561318f57600080fd5b505af11580156131a3573d6000803e3d6000fd5b505050505b816001600160a01b0316635d7b075885856040518363ffffffff1660e01b815260040180836001600160a01b0316815260200182815260200192505050600060405180830381600087803b15801561196557600080fd5b6001600160a01b038216600090815260a360205260408120546116c29083906132329082906001600160801b03166138a8565b6141d1565b6001600160a01b038316600090815260a36020526040812054819061326d908590600160801b90046001600160801b03166138a8565b90508061327e5760009150506116c2565b61328883826141f6565b95945050505050565b6001600160a01b03838116600090815260a46020908152604080832093881683529290529081208054829190600160e01b900460ff166132d45760009150613316565b60006132e188888861425d565b8254909150613312908890889061330d908990613307906001600160c01b0316876139cd565b906139cd565b613320565b9250505b5095945050505050565b6001600160a01b038316600090815260a36020526040812054819061334f9085906001600160801b03166138a8565b90508083111561335d578092505b50909392505050565b6001600160a01b03808316600090815260a4602090815260408083209387168352929052819020548151606081019092526001600160c01b031690806133ab8461430e565b6001600160801b031681526020016133c96133c46139c9565b614356565b63ffffffff908116825260016020928301526001600160a01b03868116600090815260a484526040808220928a168252918452819020845181549486015195909201516001600160c01b03199094166001600160c01b039092169190911763ffffffff60c01b1916600160c01b94909216939093021760ff60e01b1916600160e01b91151591909102179055818110156134ac576001600160a01b038084169085167f2f92d56910619b38bc29fd8e4ca5e56359edac7a0c086cdcd305fb603fa3749161349685856130bc565b60408051918252519081900360200190a3610ec8565b6001600160a01b038084169085167ff584c579437bc25785b953cc4d8d247251812751e1871c6130cbdecf95a106cf6134e584866130bc565b60408051918252519081900360200190a350505050565b6000806000846001600160a01b03166370a08231876040518263ffffffff1660e01b815260040180826001600160a01b0316815260200191505060206040518083038186803b15801561354e57600080fd5b505afa158015613562573d6000803e3d6000fd5b505050506040513d602081101561357857600080fd5b50519050838110156135ca576040805162461bcd60e51b81526020600482015260166024820152755072697a65506f6f6c2f696e737566662d66756e647360501b604482015290519081900360640190fd5b6135d78686836000612f5f565b60006135ec866135e784886130bc565b6131ff565b6001600160a01b03808816600090815260a460209081526040808320938c16835292905290812054919250906001600160c01b03168211613663576001600160a01b03808816600090815260a460209081526040808320938c1683529290522054613660906001600160c01b0316836130bc565b90505b600061366f88886131ff565b905080821161367e5781613680565b805b945061368c81866130bc565b955050505050935093915050565b6001600160a01b0381166136f5576040805162461bcd60e51b815260206004820181905260248201527f5072697a65506f6f6c2f7072697a6553747261746567792d6e6f742d7a65726f604482015290519081900360640190fd5b6137126001600160a01b038216600162a1cb1960e01b031961439a565b613763576040805162461bcd60e51b815260206004820152601f60248201527f5072697a65506f6f6c2f7072697a6553747261746567792d696e76616c696400604482015290519081900360640190fd5b609a80546001600160a01b0319166001600160a01b0383169081179091556040517f7f58dc86bc2e435cb77ca0edb1df55e25f90caf2d6bd866971715437d456a21290600090a250565b6000806137b8612b12565b609f549091506137c882856139cd565b11159392505050565b606080826000015467ffffffffffffffff811180156137ef57600080fd5b50604051908082528060200260200182016040528015613819578160200160208202803683370190505b50600160008181529085016020526040812054919250906001600160a01b03165b6001600160a01b0381161580159061385c57506001600160a01b038116600114155b1561335d578083838151811061386e57fe5b6001600160a01b0392831660209182029290920181019190915291811660009081526001808801909352604090205492909101911661383a565b6000806138b583856143b6565b9050611d3881670de0b6b3a764000061440f565b6001600160a01b03808316600090815260a4602090815260408083209387168352929052205461390b90613906906001600160c01b0316836130bc565b61430e565b6001600160a01b03808416600081815260a4602090815260408083209489168084529482529182902080546001600160c01b0319166001600160801b0396909616959095179094558051858152905191937ff584c579437bc25785b953cc4d8d247251812751e1871c6130cbdecf95a106cf92918290030190a3505050565b60008060008061399b8787876134fc565b9150915060006139ac878785613237565b9050609c548111156139bd5750609c545b97909650945050505050565b4290565b6000828201838110156116c2576040805162461bcd60e51b815260206004820152601b60248201527f536166654d6174683a206164646974696f6e206f766572666c6f770000000000604482015290519081900360640190fd5b604080516001808252818301909252606091602080830190803683370190505090508381600081518110613a5757fe5b60200260200101906001600160a01b031690816001600160a01b031681525050613a8081612c9e565b50609d54613a8e90846139cd565b609d556001600160a01b038416600090815260a16020526040902054613ab490846139cd565b6001600160a01b038516600090815260a1602090815260408083209390935560a2905220829055613ae36139c9565b8211610ec857610c1181612c9e565b60a554604080516370a0823160e01b815230600482015290516000926001600160a01b0316916370a0823191602480830192602092919082900301818787803b158015613b3e57600080fd5b505af115801561304d573d6000803e3d6000fd5b604080516001600160a01b0380861660248301528416604482015260648082018490528251808303909101815260849091019091526020810180516001600160e01b03166323b872dd60e01b179052610ec8908590614120565b60a560009054906101000a90046001600160a01b03166001600160a01b031663fc0c546a6040518163ffffffff1660e01b815260040160206040518083038186803b158015613bfa57600080fd5b505afa158015613c0e573d6000803e3d6000fd5b505050506040513d6020811015613c2457600080fd5b505160a5546040805163095ea7b360e01b81526001600160a01b039283166004820152602481018590529051919092169163095ea7b39160448083019260209291908290030181600087803b158015613c7c57600080fd5b505af1158015613c90573d6000803e3d6000fd5b505050506040513d6020811015613ca657600080fd5b505060a554604080516304bbd69360e01b81526004810184905230602482015290516001600160a01b03909216916304bbd6939160448082019260009290919082900301818387803b158015613cfb57600080fd5b505af1158015610c11573d6000803e3d6000fd5b3b151590565b6001600160a01b038116600114801590613d3757506001600160a01b03811615155b613d7a576040805162461bcd60e51b815260206004820152600f60248201526e496e76616c6964206164647265737360881b604482015290519081900360640190fd5b6001600160a01b0381811660009081526001840160205260409020541615613dd9576040805162461bcd60e51b815260206004820152600d60248201526c105b1c9958591e481859191959609a1b604482015290519081900360640190fd5b60016000818152838201602052604080822080546001600160a01b039586168085529284208054969091166001600160a01b03199687161790559183905281549093169092179091558154019055565b600054610100900460ff1680613e425750613e4261280c565b80613e50575060005460ff16155b613e8b5760405162461bcd60e51b815260040180806020018281038252602e8152602001806148f9602e913960400191505060405180910390fd5b600054610100900460ff16158015612a2e576000805460ff1961ff0019909116610100171660011790558015611734576000805461ff001916905550565b600054610100900460ff1680613ee25750613ee261280c565b80613ef0575060005460ff16155b613f2b5760405162461bcd60e51b815260040180806020018281038252602e8152602001806148f9602e913960400191505060405180910390fd5b600054610100900460ff16158015613f56576000805460ff1961ff0019909116610100171660011790555b6000613f60612bfe565b603380546001600160a01b0319166001600160a01b038316908117909155604051919250906000907f8be0079c531659141344cd1fd0a4f28419497f9722a3daafe3b4186f6b6457e0908290a3508015611734576000805461ff001916905550565b600054610100900460ff1680613fdb5750613fdb61280c565b80613fe9575060005460ff16155b6140245760405162461bcd60e51b815260040180806020018281038252602e8152602001806148f9602e913960400191505060405180910390fd5b600054610100900460ff1615801561404f576000805460ff1961ff0019909116610100171660011790555b60016065558015611734576000805461ff001916905550565b60016000818152910160205260409020546001600160a01b031690565b50600190565b6001600160a01b0380821660009081526001840160205260409020541692915050565b6000806140c384670de0b6b3a76400006143b6565b9050611d38818461440f565b60006001600160a01b0382166001148015906140f357506001600160a01b03821615155b80156116c25750506001600160a01b03908116600090815260019290920160205260409091205416151590565b6060614175826040518060400160405280602081526020017f5361666545524332303a206c6f772d6c6576656c2063616c6c206661696c6564815250856001600160a01b03166144519092919063ffffffff16565b805190915015610ce05780806020019051602081101561419457600080fd5b5051610ce05760405162461bcd60e51b815260040180806020018281038252602a8152602001806149d5602a913960400191505060405180910390fd5b6000806141e084609b546138a8565b9050808311156141ee578092505b509092915050565b600080821161424c576040805162461bcd60e51b815260206004820152601a60248201527f536166654d6174683a206469766973696f6e206279207a65726f000000000000604482015290519081900360640190fd5b81838161425557fe5b049392505050565b6001600160a01b03828116600090815260a460209081526040808320938716835292905290812054600160c01b810463ffffffff1690600160e01b900460ff166142ab5760009150506116c2565b60006142bf826142b96139c9565b906130bc565b6001600160a01b038616600090815260a36020526040812054919250906142f7908690600160801b90046001600160801b03166138a8565b905061430382826143b6565b979650505050505050565b6000600160801b82106143525760405162461bcd60e51b815260040180806020018281038252602781526020018061488a6027913960400191505060405180910390fd5b5090565b6000600160201b82106143525760405162461bcd60e51b81526004018080602001828103825260268152602001806149af6026913960400191505060405180910390fd5b60006143a583614460565b80156116c257506116c28383614493565b6000826143c5575060006113f2565b828202828482816143d257fe5b04146116c25760405162461bcd60e51b81526004018080602001828103825260218152602001806149276021913960400191505060405180910390fd5b60006116c283836040518060400160405280601a81526020017f536166654d6174683a206469766973696f6e206279207a65726f0000000000008152506144b6565b60606116bf8484600085614558565b6000614473826301ffc9a760e01b614493565b80156113f2575061448c826001600160e01b0319614493565b1592915050565b60008060006144a285856146a9565b915091508180156132885750949350505050565b600081836145425760405162461bcd60e51b81526004018080602001828103825283818151815260200191508051906020019080838360005b838110156145075781810151838201526020016144ef565b50505050905090810190601f1680156145345780820380516001836020036101000a031916815260200191505b509250505060405180910390fd5b50600083858161454e57fe5b0495945050505050565b6060824710156145995760405162461bcd60e51b81526004018080602001828103825260268152602001806148d36026913960400191505060405180910390fd5b6145a285613d0f565b6145f3576040805162461bcd60e51b815260206004820152601d60248201527f416464726573733a2063616c6c20746f206e6f6e2d636f6e7472616374000000604482015290519081900360640190fd5b60006060866001600160a01b031685876040518082805190602001908083835b602083106146325780518252601f199092019160209182019101614613565b6001836020036101000a03801982511681845116808217855250505050505090500191505060006040518083038185875af1925050503d8060008114614694576040519150601f19603f3d011682016040523d82523d6000602084013e614699565b606091505b50915091506143038282866147dd565b604080516001600160e01b0319831660248083019190915282518083039091018152604490910182526020810180516001600160e01b03166301ffc9a760e01b1781529151815160009384939284926060926001600160a01b038a169261753092879282918083835b602083106147315780518252601f199092019160209182019101614712565b6001836020036101000a0380198251168184511680821785525050505050509050019150506000604051808303818686fa925050503d8060008114614792576040519150601f19603f3d011682016040523d82523d6000602084013e614797565b606091505b50915091506020815110156147b557600080945094505050506147d6565b818180602001905160208110156147cb57600080fd5b505190955093505050505b9250929050565b606083156147ec5750816116c2565b8251156147fc5782518084602001fd5b60405162461bcd60e51b81526020600482018181528451602484015284518593919283926044019190850190808383600083156145075781810151838201526020016144ef56fe5265656e7472616e637947756172643a207265656e7472616e742063616c6c004f776e61626c653a206e6577206f776e657220697320746865207a65726f206164647265737353616665436173743a2076616c756520646f65736e27742066697420696e2031323820626974735072697a65506f6f6c2f7265736572766552656769737472792d6e6f742d7a65726f416464726573733a20696e73756666696369656e742062616c616e636520666f722063616c6c496e697469616c697a61626c653a20636f6e747261637420697320616c726561647920696e697469616c697a6564536166654d6174683a206d756c7469706c69636174696f6e206f766572666c6f774f776e61626c653a2063616c6c6572206973206e6f7420746865206f776e65725072697a65506f6f6c2f657869742d6665652d657863656564732d757365722d6d6178696d756d5072697a65506f6f6c2f756e6b6e6f776e2d746f6b656e00000000000000000053616665436173743a2076616c756520646f65736e27742066697420696e20333220626974735361666545524332303a204552433230206f7065726174696f6e20646964206e6f7420737563636565645072697a65506f6f6c2f6f6e6c792d7072697a65537472617465677900000000a2646970667358221220cc76fe4c47f7174161db33a9b3365ee9f6e54202fc13fb2d005395cdcfd2aa6064736f6c634300060c0033",
  "devdoc": {
    "kind": "dev",
    "methods": {
      "create()": {
        "returns": {
          "_0": "A reference to the new proxied yVault Prize Pool"
        }
      }
    },
    "title": "yVault Prize Pool Proxy Factory",
    "version": 1
  },
  "userdoc": {
    "kind": "user",
    "methods": {
      "constructor": "Initializes the Factory with an instance of the yVault Prize Pool",
      "create()": {
        "notice": "Creates a new yVault Prize Pool as a proxy of the template instance"
      },
      "instance()": {
        "notice": "Contract template for deploying proxied Prize Pools"
      }
    },
    "notice": "Minimal proxy pattern for creating new yVault Prize Pools",
    "version": 1
  },
  "storageLayout": {
    "storage": [
      {
        "astId": 14387,
        "contract": "contracts/prize-pool/yield-source/YieldSourcePrizePoolProxyFactory.sol:YieldSourcePrizePoolProxyFactory",
        "label": "instance",
        "offset": 0,
        "slot": "0",
        "type": "t_contract(YieldSourcePrizePool)14377"
      }
    ],
    "types": {
      "t_contract(YieldSourcePrizePool)14377": {
        "encoding": "inplace",
        "label": "contract YieldSourcePrizePool",
        "numberOfBytes": "20"
      }
    }
  }
}