{
  "address": "0xb1D89477d1b505C261bab6e73f08fA834544CD21",
  "abi": [
    {
      "inputs": [
        {
          "internalType": "contract MultipleWinnersProxyFactory",
          "name": "_multipleWinnersProxyFactory",
          "type": "address"
        },
        {
          "internalType": "contract ControlledTokenBuilder",
          "name": "_controlledTokenBuilder",
          "type": "address"
        }
      ],
      "stateMutability": "nonpayable",
      "type": "constructor"
    },
    {
      "anonymous": false,
      "inputs": [
        {
          "indexed": true,
          "internalType": "address",
          "name": "prizeStrategy",
          "type": "address"
        }
      ],
      "name": "MultipleWinnersCreated",
      "type": "event"
    },
    {
      "inputs": [],
      "name": "controlledTokenBuilder",
      "outputs": [
        {
          "internalType": "contract ControlledTokenBuilder",
          "name": "",
          "type": "address"
        }
      ],
      "stateMutability": "view",
      "type": "function"
    },
    {
      "inputs": [
        {
          "internalType": "contract PrizePool",
          "name": "prizePool",
          "type": "address"
        },
        {
          "components": [
            {
              "internalType": "contract RNGInterface",
              "name": "rngService",
              "type": "address"
            },
            {
              "internalType": "uint256",
              "name": "prizePeriodStart",
              "type": "uint256"
            },
            {
              "internalType": "uint256",
              "name": "prizePeriodSeconds",
              "type": "uint256"
            },
            {
              "internalType": "string",
              "name": "ticketName",
              "type": "string"
            },
            {
              "internalType": "string",
              "name": "ticketSymbol",
              "type": "string"
            },
            {
              "internalType": "string",
              "name": "sponsorshipName",
              "type": "string"
            },
            {
              "internalType": "string",
              "name": "sponsorshipSymbol",
              "type": "string"
            },
            {
              "internalType": "uint256",
              "name": "ticketCreditLimitMantissa",
              "type": "uint256"
            },
            {
              "internalType": "uint256",
              "name": "ticketCreditRateMantissa",
              "type": "uint256"
            },
            {
              "internalType": "uint256",
              "name": "numberOfWinners",
              "type": "uint256"
            },
            {
              "internalType": "bool",
              "name": "splitExternalErc20Awards",
              "type": "bool"
            }
          ],
          "internalType": "struct MultipleWinnersBuilder.MultipleWinnersConfig",
          "name": "prizeStrategyConfig",
          "type": "tuple"
        },
        {
          "internalType": "uint8",
          "name": "decimals",
          "type": "uint8"
        },
        {
          "internalType": "address",
          "name": "owner",
          "type": "address"
        }
      ],
      "name": "createMultipleWinners",
      "outputs": [
        {
          "internalType": "contract MultipleWinners",
          "name": "",
          "type": "address"
        }
      ],
      "stateMutability": "nonpayable",
      "type": "function"
    },
    {
      "inputs": [
        {
          "internalType": "contract PeriodicPrizeStrategy",
          "name": "prizeStrategy",
          "type": "address"
        },
        {
          "internalType": "uint256",
          "name": "numberOfWinners",
          "type": "uint256"
        }
      ],
      "name": "createMultipleWinnersFromExistingPrizeStrategy",
      "outputs": [
        {
          "internalType": "contract MultipleWinners",
          "name": "",
          "type": "address"
        }
      ],
      "stateMutability": "nonpayable",
      "type": "function"
    },
    {
      "inputs": [],
      "name": "multipleWinnersProxyFactory",
      "outputs": [
        {
          "internalType": "contract MultipleWinnersProxyFactory",
          "name": "",
          "type": "address"
        }
      ],
      "stateMutability": "view",
      "type": "function"
    }
  ],
  "transactionHash": "0xe17dab0a57225e6bf981ce5d543fc39cda83af40445b593a4f6498d78e18efae",
  "args": [
    "0xCB876f60399897db24058b2d58D0B9f713175eeF",
    "0x6dc7cA9e2c19Da475B39cce7437994c1725d85C9"
  ],
  "solcInputHash": "4ee5cd3af4cdf3f3b3aae685e2904e9d",
  "bytecode": "0x608060405234801561001057600080fd5b50604051610dbe380380610dbe83398101604081905261002f916100b5565b6001600160a01b03821661005e5760405162461bcd60e51b8152600401610055906100ee565b60405180910390fd5b6001600160a01b0381166100845760405162461bcd60e51b81526004016100559061014b565b600080546001600160a01b039384166001600160a01b031991821617909155600180549290931691161790556101b0565b600080604083850312156100c7578182fd5b82516100d281610198565b60208401519092506100e381610198565b809150509250929050565b6020808252603b908201527f4d756c7469706c6557696e6e6572734275696c6465722f6d756c7469706c655760408201527f696e6e65727350726f7879466163746f72792d6e6f742d7a65726f0000000000606082015260800190565b6020808252602d908201527f4d756c7469706c6557696e6e6572734275696c6465722f746f6b656e2d62756960408201526c6c6465722d6e6f742d7a65726f60981b606082015260800190565b6001600160a01b03811681146101ad57600080fd5b50565b610bff806101bf6000396000f3fe608060405234801561001057600080fd5b506004361061004c5760003560e01c8063013da4201461005157806314d9dcd01461006f57806315a5c87314610077578063b6c828c01461008a575b600080fd5b61005961009d565b6040516100669190610ac8565b60405180910390f35b6100596100ac565b6100596100853660046108cf565b6100bb565b6100596100983660046108fa565b6104e0565b6000546001600160a01b031681565b6001546001600160a01b031681565b6000805460408051633bf206a360e21b8152905183926001600160a01b03169163efc81a8c91600480830192602092919082900301818787803b15801561010157600080fd5b505af1158015610115573d6000803e3d6000fd5b505050506040513d601f19601f8201168201806040525081019061013991906108ac565b9050806001600160a01b0316637f2be9fc856001600160a01b03166372f33ea96040518163ffffffff1660e01b815260040160206040518083038186803b15801561018357600080fd5b505afa158015610197573d6000803e3d6000fd5b505050506040513d601f19601f820116820180604052508101906101bb9190610a65565b866001600160a01b03166394144c6b6040518163ffffffff1660e01b815260040160206040518083038186803b1580156101f457600080fd5b505afa158015610208573d6000803e3d6000fd5b505050506040513d601f19601f8201168201806040525081019061022c9190610a65565b876001600160a01b031663719ce73e6040518163ffffffff1660e01b815260040160206040518083038186803b15801561026557600080fd5b505afa158015610279573d6000803e3d6000fd5b505050506040513d601f19601f8201168201806040525081019061029d91906108ac565b886001600160a01b0316636cc25db76040518163ffffffff1660e01b815260040160206040518083038186803b1580156102d657600080fd5b505afa1580156102ea573d6000803e3d6000fd5b505050506040513d601f19601f8201168201806040525081019061030e91906108ac565b896001600160a01b031663500db70d6040518163ffffffff1660e01b815260040160206040518083038186803b15801561034757600080fd5b505afa15801561035b573d6000803e3d6000fd5b505050506040513d601f19601f8201168201806040525081019061037f91906108ac565b8a6001600160a01b031663d605787b6040518163ffffffff1660e01b815260040160206040518083038186803b1580156103b857600080fd5b505afa1580156103cc573d6000803e3d6000fd5b505050506040513d601f19601f820116820180604052508101906103f091906108ac565b8a6040518863ffffffff1660e01b81526004016104139796959493929190610b4f565b600060405180830381600087803b15801561042d57600080fd5b505af1158015610441573d6000803e3d6000fd5b505060405163f2fde38b60e01b81526001600160a01b038416925063f2fde38b9150610471903390600401610ac8565b600060405180830381600087803b15801561048b57600080fd5b505af115801561049f573d6000803e3d6000fd5b50506040516001600160a01b03841692507f8f711639be1281e7c5ee59206b3043d38eaabb4e87ef3cbd3e301ca1f46474549150600090a290505b92915050565b6000805460408051633bf206a360e21b8152905183926001600160a01b03169163efc81a8c91600480830192602092919082900301818787803b15801561052657600080fd5b505af115801561053a573d6000803e3d6000fd5b505050506040513d601f19601f8201168201806040525081019061055e91906108ac565b9050600061057686606001518760800151878a610712565b9050600061058e8760a001518860c00151888b6107c2565b60208801516040808a01518a516101208c01519251631fcafa7f60e21b81529495506001600160a01b03881694637f2be9fc946105d7949093928f928a928a9291600401610b4f565b600060405180830381600087803b1580156105f157600080fd5b505af1158015610605573d6000803e3d6000fd5b505050508661014001511561067457604051631c54da5b60e11b81526001600160a01b038416906338a9b4b69061064190600190600401610adc565b600060405180830381600087803b15801561065b57600080fd5b505af115801561066f573d6000803e3d6000fd5b505050505b60405163f2fde38b60e01b81526001600160a01b0384169063f2fde38b906106a0908890600401610ac8565b600060405180830381600087803b1580156106ba57600080fd5b505af11580156106ce573d6000803e3d6000fd5b50506040516001600160a01b03861692507f8f711639be1281e7c5ee59206b3043d38eaabb4e87ef3cbd3e301ca1f46474549150600090a250909695505050505050565b600154604080516080810182528681526020810186905260ff8516818301526001600160a01b0384811660608301529151638e22585d60e01b81526000939290921691638e22585d9161076791600401610ae7565b602060405180830381600087803b15801561078157600080fd5b505af1158015610795573d6000803e3d6000fd5b505050506040513d601f19601f820116820180604052508101906107b991906108ac565b95945050505050565b600154604080516080810182528681526020810186905260ff8516818301526001600160a01b0384811660608301529151638c0cd38d60e01b81526000939290921691638c0cd38d9161076791600401610ae7565b80356104da81610bb1565b803580151581146104da57600080fd5b600082601f830112610842578081fd5b813567ffffffffffffffff811115610858578182fd5b61086b601f8201601f1916602001610b8a565b915080825283602082850101111561088257600080fd5b8060208401602084013760009082016020015292915050565b803560ff811681146104da57600080fd5b6000602082840312156108bd578081fd5b81516108c881610bb1565b9392505050565b600080604083850312156108e1578081fd5b82356108ec81610bb1565b946020939093013593505050565b6000806000806080858703121561090f578182fd5b843561091a81610bb1565b9350602085013567ffffffffffffffff80821115610936578384fd5b818701915061016080838a03121561094c578485fd5b61095581610b8a565b90506109618984610817565b81526020830135602082015260408301356040820152606083013582811115610988578586fd5b6109948a828601610832565b6060830152506080830135828111156109ab578586fd5b6109b78a828601610832565b60808301525060a0830135828111156109ce578586fd5b6109da8a828601610832565b60a08301525060c0830135828111156109f1578586fd5b6109fd8a828601610832565b60c08301525060e08381013590820152610100808401359082015261012080840135908201526101409150610a3489838501610822565b82820152809550505050610a4b866040870161089b565b9150610a5a8660608701610817565b905092959194509250565b600060208284031215610a76578081fd5b5051919050565b60008151808452815b81811015610aa257602081850181015186830182015201610a86565b81811115610ab35782602083870101525b50601f01601f19169290920160200192915050565b6001600160a01b0391909116815260200190565b901515815260200190565b600060208252825160806020840152610b0360a0840182610a7d565b90506020840151601f19848303016040850152610b208282610a7d565b604086015160ff16606086810191909152909501516001600160a01b0316608090940193909352509192915050565b96875260208701959095526001600160a01b0393841660408701529183166060860152821660808501521660a083015260c082015260e00190565b60405181810167ffffffffffffffff81118282101715610ba957600080fd5b604052919050565b6001600160a01b0381168114610bc657600080fd5b5056fea26469706673582212205896642e2e6cc684d45986eda7e92bced64cc6d6c2053fe76391623b1776813864736f6c634300060c0033",
  "devdoc": {
    "kind": "dev",
    "methods": {},
    "version": 1
  },
  "userdoc": {
    "kind": "user",
    "methods": {},
    "version": 1
  },
  "storageLayout": {
    "storage": [
      {
        "astId": 5912,
        "contract": "contracts/builders/MultipleWinnersBuilder.sol:MultipleWinnersBuilder",
        "label": "multipleWinnersProxyFactory",
        "offset": 0,
        "slot": "0",
        "type": "t_contract(MultipleWinnersProxyFactory)16982"
      },
      {
        "astId": 5914,
        "contract": "contracts/builders/MultipleWinnersBuilder.sol:MultipleWinnersBuilder",
        "label": "controlledTokenBuilder",
        "offset": 0,
        "slot": "1",
        "type": "t_contract(ControlledTokenBuilder)5878"
      }
    ],
    "types": {
      "t_contract(ControlledTokenBuilder)5878": {
        "encoding": "inplace",
        "label": "contract ControlledTokenBuilder",
        "numberOfBytes": "20"
      },
      "t_contract(MultipleWinnersProxyFactory)16982": {
        "encoding": "inplace",
        "label": "contract MultipleWinnersProxyFactory",
        "numberOfBytes": "20"
      }
    }
  }
}