{
  "abi": [
    {
      "inputs": [],
      "stateMutability": "nonpayable",
      "type": "constructor"
    },
    {
      "anonymous": false,
      "inputs": [
        {
          "indexed": true,
          "internalType": "address",
          "name": "source",
          "type": "address"
        },
        {
          "indexed": true,
          "internalType": "address",
          "name": "measure",
          "type": "address"
        },
        {
          "indexed": true,
          "internalType": "address",
          "name": "dripToken",
          "type": "address"
        },
        {
          "indexed": false,
          "internalType": "uint256",
          "name": "dripRatePerSecond",
          "type": "uint256"
        }
      ],
      "name": "BalanceDripActivated",
      "type": "event"
    },
    {
      "anonymous": false,
      "inputs": [
        {
          "indexed": true,
          "internalType": "address",
          "name": "source",
          "type": "address"
        },
        {
          "indexed": true,
          "internalType": "address",
          "name": "measure",
          "type": "address"
        },
        {
          "indexed": true,
          "internalType": "address",
          "name": "dripToken",
          "type": "address"
        }
      ],
      "name": "BalanceDripDeactivated",
      "type": "event"
    },
    {
      "anonymous": false,
      "inputs": [
        {
          "indexed": true,
          "internalType": "address",
          "name": "source",
          "type": "address"
        },
        {
          "indexed": true,
          "internalType": "address",
          "name": "measure",
          "type": "address"
        },
        {
          "indexed": true,
          "internalType": "address",
          "name": "dripToken",
          "type": "address"
        },
        {
          "indexed": false,
          "internalType": "address",
          "name": "user",
          "type": "address"
        },
        {
          "indexed": false,
          "internalType": "uint256",
          "name": "amount",
          "type": "uint256"
        }
      ],
      "name": "BalanceDripDripped",
      "type": "event"
    },
    {
      "anonymous": false,
      "inputs": [
        {
          "indexed": true,
          "internalType": "address",
          "name": "source",
          "type": "address"
        },
        {
          "indexed": true,
          "internalType": "address",
          "name": "measure",
          "type": "address"
        },
        {
          "indexed": true,
          "internalType": "address",
          "name": "dripToken",
          "type": "address"
        },
        {
          "indexed": false,
          "internalType": "uint256",
          "name": "dripRatePerSecond",
          "type": "uint256"
        }
      ],
      "name": "BalanceDripRateSet",
      "type": "event"
    },
    {
      "anonymous": false,
      "inputs": [
        {
          "indexed": true,
          "internalType": "address",
          "name": "operator",
          "type": "address"
        },
        {
          "indexed": true,
          "internalType": "address",
          "name": "dripToken",
          "type": "address"
        },
        {
          "indexed": true,
          "internalType": "address",
          "name": "user",
          "type": "address"
        },
        {
          "indexed": false,
          "internalType": "uint256",
          "name": "amount",
          "type": "uint256"
        }
      ],
      "name": "DripTokenClaimed",
      "type": "event"
    },
    {
      "anonymous": false,
      "inputs": [
        {
          "indexed": true,
          "internalType": "address",
          "name": "dripToken",
          "type": "address"
        },
        {
          "indexed": true,
          "internalType": "address",
          "name": "user",
          "type": "address"
        },
        {
          "indexed": false,
          "internalType": "uint256",
          "name": "amount",
          "type": "uint256"
        }
      ],
      "name": "DripTokenDripped",
      "type": "event"
    },
    {
      "anonymous": false,
      "inputs": [
        {
          "indexed": true,
          "internalType": "address",
          "name": "previousOwner",
          "type": "address"
        },
        {
          "indexed": true,
          "internalType": "address",
          "name": "newOwner",
          "type": "address"
        }
      ],
      "name": "OwnershipTransferred",
      "type": "event"
    },
    {
      "anonymous": false,
      "inputs": [
        {
          "indexed": true,
          "internalType": "address",
          "name": "source",
          "type": "address"
        },
        {
          "indexed": true,
          "internalType": "address",
          "name": "measure",
          "type": "address"
        },
        {
          "indexed": true,
          "internalType": "address",
          "name": "dripToken",
          "type": "address"
        },
        {
          "indexed": false,
          "internalType": "bool",
          "name": "isReferral",
          "type": "bool"
        },
        {
          "indexed": false,
          "internalType": "uint256",
          "name": "periodSeconds",
          "type": "uint256"
        },
        {
          "indexed": false,
          "internalType": "uint256",
          "name": "dripAmount",
          "type": "uint256"
        }
      ],
      "name": "VolumeDripActivated",
      "type": "event"
    },
    {
      "anonymous": false,
      "inputs": [
        {
          "indexed": true,
          "internalType": "address",
          "name": "source",
          "type": "address"
        },
        {
          "indexed": true,
          "internalType": "address",
          "name": "measure",
          "type": "address"
        },
        {
          "indexed": true,
          "internalType": "address",
          "name": "dripToken",
          "type": "address"
        },
        {
          "indexed": false,
          "internalType": "bool",
          "name": "isReferral",
          "type": "bool"
        }
      ],
      "name": "VolumeDripDeactivated",
      "type": "event"
    },
    {
      "anonymous": false,
      "inputs": [
        {
          "indexed": true,
          "internalType": "address",
          "name": "source",
          "type": "address"
        },
        {
          "indexed": true,
          "internalType": "address",
          "name": "measure",
          "type": "address"
        },
        {
          "indexed": true,
          "internalType": "address",
          "name": "dripToken",
          "type": "address"
        },
        {
          "indexed": false,
          "internalType": "bool",
          "name": "isReferral",
          "type": "bool"
        },
        {
          "indexed": false,
          "internalType": "address",
          "name": "user",
          "type": "address"
        },
        {
          "indexed": false,
          "internalType": "uint256",
          "name": "amount",
          "type": "uint256"
        }
      ],
      "name": "VolumeDripDripped",
      "type": "event"
    },
    {
      "anonymous": false,
      "inputs": [
        {
          "indexed": true,
          "internalType": "address",
          "name": "source",
          "type": "address"
        },
        {
          "indexed": true,
          "internalType": "address",
          "name": "measure",
          "type": "address"
        },
        {
          "indexed": true,
          "internalType": "address",
          "name": "dripToken",
          "type": "address"
        },
        {
          "indexed": false,
          "internalType": "bool",
          "name": "isReferral",
          "type": "bool"
        },
        {
          "indexed": false,
          "internalType": "uint32",
          "name": "period",
          "type": "uint32"
        },
        {
          "indexed": false,
          "internalType": "uint256",
          "name": "totalSupply",
          "type": "uint256"
        }
      ],
      "name": "VolumeDripPeriodEnded",
      "type": "event"
    },
    {
      "anonymous": false,
      "inputs": [
        {
          "indexed": true,
          "internalType": "address",
          "name": "source",
          "type": "address"
        },
        {
          "indexed": true,
          "internalType": "address",
          "name": "measure",
          "type": "address"
        },
        {
          "indexed": true,
          "internalType": "address",
          "name": "dripToken",
          "type": "address"
        },
        {
          "indexed": false,
          "internalType": "bool",
          "name": "isReferral",
          "type": "bool"
        },
        {
          "indexed": false,
          "internalType": "uint32",
          "name": "period",
          "type": "uint32"
        },
        {
          "indexed": false,
          "internalType": "uint256",
          "name": "dripAmount",
          "type": "uint256"
        },
        {
          "indexed": false,
          "internalType": "uint256",
          "name": "endTime",
          "type": "uint256"
        }
      ],
      "name": "VolumeDripPeriodStarted",
      "type": "event"
    },
    {
      "anonymous": false,
      "inputs": [
        {
          "indexed": true,
          "internalType": "address",
          "name": "source",
          "type": "address"
        },
        {
          "indexed": true,
          "internalType": "address",
          "name": "measure",
          "type": "address"
        },
        {
          "indexed": true,
          "internalType": "address",
          "name": "dripToken",
          "type": "address"
        },
        {
          "indexed": false,
          "internalType": "bool",
          "name": "isReferral",
          "type": "bool"
        },
        {
          "indexed": false,
          "internalType": "uint256",
          "name": "periodSeconds",
          "type": "uint256"
        },
        {
          "indexed": false,
          "internalType": "uint256",
          "name": "dripAmount",
          "type": "uint256"
        }
      ],
      "name": "VolumeDripSet",
      "type": "event"
    },
    {
      "inputs": [
        {
          "internalType": "address",
          "name": "source",
          "type": "address"
        },
        {
          "internalType": "address",
          "name": "measure",
          "type": "address"
        },
        {
          "internalType": "address",
          "name": "dripToken",
          "type": "address"
        },
        {
          "internalType": "uint256",
          "name": "dripRatePerSecond",
          "type": "uint256"
        }
      ],
      "name": "activateBalanceDrip",
      "outputs": [],
      "stateMutability": "nonpayable",
      "type": "function"
    },
    {
      "inputs": [
        {
          "internalType": "address",
          "name": "source",
          "type": "address"
        },
        {
          "internalType": "address",
          "name": "measure",
          "type": "address"
        },
        {
          "internalType": "address",
          "name": "dripToken",
          "type": "address"
        },
        {
          "internalType": "bool",
          "name": "isReferral",
          "type": "bool"
        },
        {
          "internalType": "uint32",
          "name": "periodSeconds",
          "type": "uint32"
        },
        {
          "internalType": "uint112",
          "name": "dripAmount",
          "type": "uint112"
        },
        {
          "internalType": "uint32",
          "name": "endTime",
          "type": "uint32"
        }
      ],
      "name": "activateVolumeDrip",
      "outputs": [],
      "stateMutability": "nonpayable",
      "type": "function"
    },
    {
      "inputs": [
        {
          "internalType": "address",
          "name": "dripToken",
          "type": "address"
        },
        {
          "internalType": "address",
          "name": "user",
          "type": "address"
        }
      ],
      "name": "balanceOfDrip",
      "outputs": [
        {
          "internalType": "uint256",
          "name": "",
          "type": "uint256"
        }
      ],
      "stateMutability": "view",
      "type": "function"
    },
    {
      "inputs": [
        {
          "internalType": "address",
          "name": "to",
          "type": "address"
        },
        {
          "internalType": "uint256",
          "name": "amount",
          "type": "uint256"
        },
        {
          "internalType": "address",
          "name": "measure",
          "type": "address"
        },
        {
          "internalType": "address",
          "name": "referrer",
          "type": "address"
        }
      ],
      "name": "beforeTokenMint",
      "outputs": [],
      "stateMutability": "nonpayable",
      "type": "function"
    },
    {
      "inputs": [
        {
          "internalType": "address",
          "name": "from",
          "type": "address"
        },
        {
          "internalType": "address",
          "name": "to",
          "type": "address"
        },
        {
          "internalType": "uint256",
          "name": "amount",
          "type": "uint256"
        },
        {
          "internalType": "address",
          "name": "measure",
          "type": "address"
        }
      ],
      "name": "beforeTokenTransfer",
      "outputs": [],
      "stateMutability": "nonpayable",
      "type": "function"
    },
    {
      "inputs": [
        {
          "internalType": "address",
          "name": "user",
          "type": "address"
        },
        {
          "internalType": "address",
          "name": "dripToken",
          "type": "address"
        },
        {
          "internalType": "uint256",
          "name": "amount",
          "type": "uint256"
        }
      ],
      "name": "claimDrip",
      "outputs": [],
      "stateMutability": "nonpayable",
      "type": "function"
    },
    {
      "inputs": [
        {
          "internalType": "address",
          "name": "source",
          "type": "address"
        },
        {
          "internalType": "address",
          "name": "measure",
          "type": "address"
        },
        {
          "internalType": "address",
          "name": "dripToken",
          "type": "address"
        },
        {
          "internalType": "address",
          "name": "prevDripToken",
          "type": "address"
        }
      ],
      "name": "deactivateBalanceDrip",
      "outputs": [],
      "stateMutability": "nonpayable",
      "type": "function"
    },
    {
      "inputs": [
        {
          "internalType": "address",
          "name": "source",
          "type": "address"
        },
        {
          "internalType": "address",
          "name": "measure",
          "type": "address"
        },
        {
          "internalType": "address",
          "name": "dripToken",
          "type": "address"
        },
        {
          "internalType": "bool",
          "name": "isReferral",
          "type": "bool"
        },
        {
          "internalType": "address",
          "name": "prevDripToken",
          "type": "address"
        }
      ],
      "name": "deactivateVolumeDrip",
      "outputs": [],
      "stateMutability": "nonpayable",
      "type": "function"
    },
    {
      "inputs": [
        {
          "internalType": "address",
          "name": "source",
          "type": "address"
        },
        {
          "internalType": "address",
          "name": "measure",
          "type": "address"
        }
      ],
      "name": "getActiveBalanceDripTokens",
      "outputs": [
        {
          "internalType": "address[]",
          "name": "",
          "type": "address[]"
        }
      ],
      "stateMutability": "view",
      "type": "function"
    },
    {
      "inputs": [
        {
          "internalType": "address",
          "name": "source",
          "type": "address"
        },
        {
          "internalType": "address",
          "name": "measure",
          "type": "address"
        },
        {
          "internalType": "bool",
          "name": "isReferral",
          "type": "bool"
        }
      ],
      "name": "getActiveVolumeDripTokens",
      "outputs": [
        {
          "internalType": "address[]",
          "name": "",
          "type": "address[]"
        }
      ],
      "stateMutability": "view",
      "type": "function"
    },
    {
      "inputs": [
        {
          "internalType": "address",
          "name": "source",
          "type": "address"
        },
        {
          "internalType": "address",
          "name": "measure",
          "type": "address"
        },
        {
          "internalType": "address",
          "name": "dripToken",
          "type": "address"
        }
      ],
      "name": "getBalanceDrip",
      "outputs": [
        {
          "internalType": "uint256",
          "name": "dripRatePerSecond",
          "type": "uint256"
        },
        {
          "internalType": "uint128",
          "name": "exchangeRateMantissa",
          "type": "uint128"
        },
        {
          "internalType": "uint32",
          "name": "timestamp",
          "type": "uint32"
        }
      ],
      "stateMutability": "view",
      "type": "function"
    },
    {
      "inputs": [
        {
          "internalType": "address",
          "name": "source",
          "type": "address"
        },
        {
          "internalType": "address",
          "name": "measure",
          "type": "address"
        },
        {
          "internalType": "address",
          "name": "dripToken",
          "type": "address"
        },
        {
          "internalType": "bool",
          "name": "isReferral",
          "type": "bool"
        }
      ],
      "name": "getVolumeDrip",
      "outputs": [
        {
          "internalType": "uint256",
          "name": "periodSeconds",
          "type": "uint256"
        },
        {
          "internalType": "uint256",
          "name": "dripAmount",
          "type": "uint256"
        },
        {
          "internalType": "uint256",
          "name": "periodCount",
          "type": "uint256"
        }
      ],
      "stateMutability": "view",
      "type": "function"
    },
    {
      "inputs": [
        {
          "internalType": "address",
          "name": "source",
          "type": "address"
        },
        {
          "internalType": "address",
          "name": "measure",
          "type": "address"
        },
        {
          "internalType": "address",
          "name": "dripToken",
          "type": "address"
        },
        {
          "internalType": "bool",
          "name": "isReferral",
          "type": "bool"
        },
        {
          "internalType": "uint16",
          "name": "period",
          "type": "uint16"
        }
      ],
      "name": "getVolumeDripPeriod",
      "outputs": [
        {
          "internalType": "uint112",
          "name": "totalSupply",
          "type": "uint112"
        },
        {
          "internalType": "uint112",
          "name": "dripAmount",
          "type": "uint112"
        },
        {
          "internalType": "uint32",
          "name": "endTime",
          "type": "uint32"
        }
      ],
      "stateMutability": "view",
      "type": "function"
    },
    {
      "inputs": [
        {
          "internalType": "address",
          "name": "source",
          "type": "address"
        },
        {
          "internalType": "address",
          "name": "measure",
          "type": "address"
        },
        {
          "internalType": "address",
          "name": "dripToken",
          "type": "address"
        },
        {
          "internalType": "bool",
          "name": "isReferral",
          "type": "bool"
        }
      ],
      "name": "isVolumeDripActive",
      "outputs": [
        {
          "internalType": "bool",
          "name": "",
          "type": "bool"
        }
      ],
      "stateMutability": "view",
      "type": "function"
    },
    {
      "inputs": [],
      "name": "owner",
      "outputs": [
        {
          "internalType": "address",
          "name": "",
          "type": "address"
        }
      ],
      "stateMutability": "view",
      "type": "function"
    },
    {
      "inputs": [],
      "name": "renounceOwnership",
      "outputs": [],
      "stateMutability": "nonpayable",
      "type": "function"
    },
    {
      "inputs": [
        {
          "internalType": "address",
          "name": "source",
          "type": "address"
        },
        {
          "internalType": "address",
          "name": "measure",
          "type": "address"
        },
        {
          "internalType": "address",
          "name": "dripToken",
          "type": "address"
        },
        {
          "internalType": "uint256",
          "name": "dripRatePerSecond",
          "type": "uint256"
        }
      ],
      "name": "setBalanceDripRate",
      "outputs": [],
      "stateMutability": "nonpayable",
      "type": "function"
    },
    {
      "inputs": [
        {
          "internalType": "address",
          "name": "source",
          "type": "address"
        },
        {
          "internalType": "address",
          "name": "measure",
          "type": "address"
        },
        {
          "internalType": "address",
          "name": "dripToken",
          "type": "address"
        },
        {
          "internalType": "bool",
          "name": "isReferral",
          "type": "bool"
        },
        {
          "internalType": "uint32",
          "name": "periodSeconds",
          "type": "uint32"
        },
        {
          "internalType": "uint112",
          "name": "dripAmount",
          "type": "uint112"
        }
      ],
      "name": "setVolumeDrip",
      "outputs": [],
      "stateMutability": "nonpayable",
      "type": "function"
    },
    {
      "inputs": [
        {
          "internalType": "address",
          "name": "newOwner",
          "type": "address"
        }
      ],
      "name": "transferOwnership",
      "outputs": [],
      "stateMutability": "nonpayable",
      "type": "function"
    },
    {
      "inputs": [
        {
          "components": [
            {
              "internalType": "address",
              "name": "source",
              "type": "address"
            },
            {
              "internalType": "address",
              "name": "measure",
              "type": "address"
            }
          ],
          "internalType": "struct Comptroller.UpdatePair[]",
          "name": "pairs",
          "type": "tuple[]"
        },
        {
          "internalType": "address",
          "name": "user",
          "type": "address"
        },
        {
          "internalType": "address[]",
          "name": "dripTokens",
          "type": "address[]"
        }
      ],
      "name": "updateAndClaimDrips",
      "outputs": [],
      "stateMutability": "nonpayable",
      "type": "function"
    },
    {
      "inputs": [
        {
          "components": [
            {
              "internalType": "address",
              "name": "source",
              "type": "address"
            },
            {
              "internalType": "address",
              "name": "measure",
              "type": "address"
            }
          ],
          "internalType": "struct Comptroller.UpdatePair[]",
          "name": "pairs",
          "type": "tuple[]"
        },
        {
          "internalType": "address",
          "name": "user",
          "type": "address"
        },
        {
          "internalType": "address[]",
          "name": "dripTokens",
          "type": "address[]"
        }
      ],
      "name": "updateDrips",
      "outputs": [
        {
          "components": [
            {
              "internalType": "address",
              "name": "dripToken",
              "type": "address"
            },
            {
              "internalType": "uint256",
              "name": "balance",
              "type": "uint256"
            }
          ],
          "internalType": "struct Comptroller.DripTokenBalance[]",
          "name": "",
          "type": "tuple[]"
        }
      ],
      "stateMutability": "nonpayable",
      "type": "function"
    }
  ],
  "address": "0xD7335b086303411Da6806F8F94D2Ca7dd72306C2",
  "args": [],
  "solcInputHash": "0x9e86e6e196f07851777ac4be42d1cab1fe5b6ed64502e86e191489c7c5097102",
  "bytecode": "0x60806040523480156200001157600080fd5b506200001c62000022565b62000292565b600054610100900460ff16806200003e57506200003e620000cb565b806200004d575060005460ff16155b620000755760405162461bcd60e51b81526004016200006c9062000244565b60405180910390fd5b600054610100900460ff16158015620000a1576000805460ff1961ff0019909116610100171660011790555b620000ab620000d1565b620000b56200015b565b8015620000c8576000805461ff00191690555b50565b303b1590565b600054610100900460ff1680620000ed5750620000ed620000cb565b80620000fc575060005460ff16155b6200011b5760405162461bcd60e51b81526004016200006c9062000244565b600054610100900460ff16158015620000b5576000805460ff1961ff0019909116610100171660011790558015620000c8576000805461ff001916905550565b600054610100900460ff168062000177575062000177620000cb565b8062000186575060005460ff16155b620001a55760405162461bcd60e51b81526004016200006c9062000244565b600054610100900460ff16158015620001d1576000805460ff1961ff0019909116610100171660011790555b6000620001dd62000240565b606580546001600160a01b0319166001600160a01b038316908117909155604051919250906000907f8be0079c531659141344cd1fd0a4f28419497f9722a3daafe3b4186f6b6457e0908290a3508015620000c8576000805461ff001916905550565b3390565b6020808252602e908201527f436f6e747261637420696e7374616e63652068617320616c726561647920626560408201526d195b881a5b9a5d1a585b1a5e995960921b606082015260800190565b61416280620002a26000396000f3fe608060405234801561001057600080fd5b50600436106101375760003560e01c806384f8f31c116100b8578063ce7304611161007c578063ce730461146102a2578063d7840aad146102b5578063e2937c77146102d5578063e5f83b70146102e8578063e72edc28146102fb578063f2fde38b1461031b57610137565b806384f8f31c146102325780638da5cb5b146102455780639aebef231461025a578063b22109571461027c578063c35185df1461028f57610137565b8063503bd480116100ff578063503bd480146101cf5780635d68ae22146101e25780635e19bad5146101f5578063626e76b414610208578063715018a61461022a57610137565b80632697a1a91461013c57806334de6d19146101655780633a6c8a2c1461017a57806343fcacd01461019a5780634d7f3db0146101bc575b600080fd5b61014f61014a3660046136cd565b61032e565b60405161015c9190613a21565b60405180910390f35b610178610173366004613717565b610388565b005b61018d6101883660046138a9565b610512565b60405161015c9190613a6e565b6101ad6101a83660046134de565b610803565b60405161015c93929190614040565b6101786101ca36600461379e565b61093d565b6101786101dd36600461367d565b610ad5565b6101786101f036600461367d565b610b8e565b6101786102033660046133c5565b610c42565b61021b61021636600461341c565b610c89565b60405161015c93929190614097565b610178610df8565b6101786102403660046135dd565b610e77565b61024d610fc8565b60405161015c91906139d2565b61026d610268366004613380565b610fd7565b60405161015c93929190614072565b61017861028a366004613757565b61102e565b61017861029d366004613551565b611230565b6101786102b03660046137d3565b61131b565b6102c86102c336600461341c565b6113fc565b60405161015c9190613ac6565b6101786102e3366004613474565b611459565b61014f6102f636600461334c565b6114a2565b61030e61030936600461334c565b6114d0565b60405161015c9190614069565b610178610329366004613331565b6114fb565b6060811561035f576001600160a01b038416600090815260986020526040902061035890846115b2565b9050610381565b6001600160a01b038416600090815260976020526040902061035890846115b2565b9392505050565b60006103926115d6565b6001600160a01b0384166000908152609a60205260409020549091506103b890836115da565b6001600160a01b038085166000908152609a6020908152604080832094909455609b815283822092881682529190915220546103f490836115da565b6001600160a01b038085166000818152609b60209081526040808320948a168352939052829020929092555163a9059cbb60e01b815263a9059cbb906104409087908690600401613a08565b602060405180830381600087803b15801561045a57600080fd5b505af115801561046e573d6000803e3d6000fd5b505050506040513d601f19601f820116820180604052508101906104929190613983565b6104b75760405162461bcd60e51b81526004016104ae90613d8e565b60405180910390fd5b836001600160a01b0316836001600160a01b0316826001600160a01b03167f76db671dc988a5ba4764a06da6bfc2a6a8df0d7d373cc205a687084b4a8492f0856040516105049190614069565b60405180910390a450505050565b6060600061051e61161c565b905060005b85518110156106e6576105346131fe565b86828151811061054057fe5b6020026020010151905061067c6099600083600001516001600160a01b03166001600160a01b03168152602001908152602001600020826000015183602001518985602001516001600160a01b03166370a082318c6040518263ffffffff1660e01b81526004016105b191906139d2565b60206040518083038186803b1580156105c957600080fd5b505afa1580156105dd573d6000803e3d6000fd5b505050506040513d601f19601f8201168201806040525081019061060191906139ba565b86602001516001600160a01b03166318160ddd6040518163ffffffff1660e01b815260040160206040518083038186803b15801561063e57600080fd5b505afa158015610652573d6000803e3d6000fd5b505050506040513d601f19601f8201168201806040525081019061067691906139ba565b89611620565b80516001600160a01b0316600090815260976020908152604082208351918401516106ac939192918a9080611718565b80516001600160a01b0316600090815260986020908152604082208351918401516106dd939192918a906001611718565b50600101610523565b6060845167ffffffffffffffff8111801561070057600080fd5b5060405190808252806020026020018201604052801561073a57816020015b6107276131fe565b81526020019060019003908161071f5790505b509050600091505b84518210156107f957604051806040016040528086848151811061076257fe5b60200260200101516001600160a01b03168152602001609b600088868151811061078857fe5b60200260200101516001600160a01b03166001600160a01b031681526020019081526020016000206000896001600160a01b03166001600160a01b03168152602001908152602001600020548152508183815181106107e357fe5b6020908102919091010152600190910190610742565b9695505050505050565b6000806000610810613215565b851561089d57506001600160a01b0380891660009081526098602090815260408083208b8516845260019081018352818420948b16845293825280832061ffff89168452909301815290829020825160608101845290546001600160701b038082168352600160701b82041692820192909252600160e01b90910463ffffffff1691810191909152610920565b506001600160a01b0380891660009081526097602090815260408083208b8516845260019081018352818420948b16845293825280832061ffff89168452909301815290829020825160608101845290546001600160701b038082168352600160701b82041692820192909252600160e01b90910463ffffffff16918101919091525b80516020820151604090920151909a919950975095505050505050565b60006109476115d6565b90506000836001600160a01b03166370a08231876040518263ffffffff1660e01b815260040161097791906139d2565b60206040518083038186803b15801561098f57600080fd5b505afa1580156109a3573d6000803e3d6000fd5b505050506040513d601f19601f820116820180604052508101906109c791906139ba565b90506000846001600160a01b03166318160ddd6040518163ffffffff1660e01b815260040160206040518083038186803b158015610a0457600080fd5b505afa158015610a18573d6000803e3d6000fd5b505050506040513d601f19601f82011682018060405250810190610a3c91906139ba565b6001600160a01b0384166000908152609960205260409020909150610a6d9084878a8686610a6861161c565b611620565b6001600160a01b0383166000908152609760205260408120610a9691859088908b908b90611718565b6001600160a01b03841615610acc576001600160a01b0383166000908152609860205260409020610acc908487878a6001611718565b50505050505050565b610add6115d6565b6065546001600160a01b03908116911614610b0a5760405162461bcd60e51b81526004016104ae90613ec1565b610b41838383610b20610b1b61161c565b611812565b6001600160a01b03891660009081526099602052604090209392919061183b565b816001600160a01b0316836001600160a01b0316856001600160a01b03167f1198b38b5e10d4b1e4cd2866dd9bc4e71e32c649b6ff51addd64e01fb6a6d5ad846040516105049190614069565b610b966115d6565b6065546001600160a01b03908116911614610bc35760405162461bcd60e51b81526004016104ae90613ec1565b610bf5838383610bd4610b1b61161c565b6001600160a01b03891660009081526099602052604090209392919061191c565b816001600160a01b0316836001600160a01b0316856001600160a01b03167f4cf47603ce110cd8061678afe77c525be4ca073f4640f629292afcef7be49259846040516105049190614069565b610c4a6115d6565b6065546001600160a01b03908116911614610c775760405162461bcd60e51b81526004016104ae90613ec1565b610c83848484846119eb565b50505050565b6000806000610c96613235565b8415610d3557506001600160a01b0380881660009081526098602090815260408083208a851684526001018252808320938916835292815290829020825160a081018452600282015463ffffffff80821683526001600160701b03600160201b8304811695840195909552600160901b9091048416948201949094526003909101549182166060820152600160701b9091049091166080820152610dca565b506001600160a01b0380881660009081526097602090815260408083208a851684526001018252808320938916835292815290829020825160a081018452600282015463ffffffff80821683526001600160701b03600160201b8304811695840195909552600160901b9091048416948201949094526003909101549182166060820152600160701b90910490911660808201525b8051602082015160809092015163ffffffff9182169a6001600160701b039093169950169650945050505050565b610e006115d6565b6065546001600160a01b03908116911614610e2d5760405162461bcd60e51b81526004016104ae90613ec1565b6065546040516000916001600160a01b0316907f8be0079c531659141344cd1fd0a4f28419497f9722a3daafe3b4186f6b6457e0908390a3606580546001600160a01b0319169055565b610e7f6115d6565b6065546001600160a01b03908116911614610eac5760405162461bcd60e51b81526004016104ae90613ec1565b60008415610ee1576001600160a01b0388166000908152609860205260409020610eda908888878787611a6d565b9050610f0a565b6001600160a01b0388166000908152609760205260409020610f07908888878787611a6d565b90505b856001600160a01b0316876001600160a01b0316896001600160a01b03167f0ee63f5b7633ec1ad321f6f89b83ec0993c2cc680112d7b153759242a655ed43888888604051610f5b93929190613b17565b60405180910390a4856001600160a01b0316876001600160a01b0316896001600160a01b03167f5030027163f1655f8ac4c205c22bfe42c59f83e61a7c15da775499920b21431488858888604051610fb69493929190613b3e565b60405180910390a45050505050505050565b6065546001600160a01b031690565b6001600160a01b0383166000908152609960205260408120819081908190611000908787611b80565b805460019091015490986001600160701b0382169850600160e01b90910463ffffffff169650945050505050565b6001600160a01b03841661104157610c83565b600061104b6115d6565b90506000826001600160a01b03166318160ddd6040518163ffffffff1660e01b815260040160206040518083038186803b15801561108857600080fd5b505afa15801561109c573d6000803e3d6000fd5b505050506040513d601f19601f820116820180604052508101906110c091906139ba565b90506000836001600160a01b03166370a08231886040518263ffffffff1660e01b81526004016110f091906139d2565b60206040518083038186803b15801561110857600080fd5b505afa15801561111c573d6000803e3d6000fd5b505050506040513d601f19601f8201168201806040525081019061114091906139ba565b6001600160a01b038416600090815260996020526040902090915061116c9084868a8587610a6861161c565b6001600160a01b03861615610acc576040516370a0823160e01b81526000906001600160a01b038616906370a08231906111aa908a906004016139d2565b60206040518083038186803b1580156111c257600080fd5b505afa1580156111d6573d6000803e3d6000fd5b505050506040513d601f19601f820116820180604052508101906111fa91906139ba565b6001600160a01b03851660009081526099602052604090209091506112269085878a8588610a6861161c565b5050505050505050565b6112386115d6565b6065546001600160a01b039081169116146112655760405162461bcd60e51b81526004016104ae90613ec1565b8215611295576001600160a01b03861660009081526098602052604090206112909086868585611bac565b6112ba565b6001600160a01b03861660009081526097602052604090206112ba9086868585611bac565b836001600160a01b0316856001600160a01b0316876001600160a01b03167f401facfe78ba5adec5aae1404afebf8e3a77cb5dfdf5b4b611504d626d9a2ed586868660405161130b93929190613b17565b60405180910390a4505050505050565b60606113ad8686808060200260200160405190810160405280939291908181526020016000905b8282101561136e5761135f6040830286013681900381019061399f565b81526020019060010190611342565b50505050508585858080602002602001604051908101604052809392919081815260200183836020028082843760009201919091525061051292505050565b905060005b8151811015610acc576113f4858383815181106113cb57fe5b6020026020010151600001518484815181106113e357fe5b602002602001015160200151610388565b6001016113b2565b6000811561142e576001600160a01b0385166000908152609860205260409020611427908585611c1c565b9050611451565b6001600160a01b0385166000908152609760205260409020611427908585611c1c565b949350505050565b6114616115d6565b6065546001600160a01b0390811691161461148e5760405162461bcd60e51b81526004016104ae90613ec1565b61149b8585858585611c3e565b5050505050565b6001600160a01b03821660009081526099602052604090206060906114c790836115b2565b90505b92915050565b6001600160a01b039182166000908152609b6020908152604080832093909416825291909152205490565b6115036115d6565b6065546001600160a01b039081169116146115305760405162461bcd60e51b81526004016104ae90613ec1565b6001600160a01b0381166115565760405162461bcd60e51b81526004016104ae90613c93565b6065546040516001600160a01b038084169216907f8be0079c531659141344cd1fd0a4f28419497f9722a3daafe3b4186f6b6457e090600090a3606580546001600160a01b0319166001600160a01b0392909216919091179055565b6001600160a01b03811660009081526020839052604090206060906114c790611ced565b3390565b60006114c783836040518060400160405280601e81526020017f536166654d6174683a207375627472616374696f6e206f766572666c6f770000815250611dcd565b4290565b6001600160a01b038516600090815260208890526040812061164190611df9565b6001600160a01b038716600090815260208a9052604081209192509061166690611dff565b90505b6001600160a01b038116158015906116b357506001600160a01b038716600090815260208a90526040902061169d90611df9565b6001600160a01b0316816001600160a01b031614155b1561170d5760006116ca8a8a8a858b8b8b8b611e1c565b905080156116de576116de898984866119eb565b6001600160a01b038816600090815260208b90526040902091925082916117059083611f22565b915050611669565b505050505050505050565b6001600160a01b038416600090815260208790526040812061173990611df9565b9050600061174561161c565b6001600160a01b038716600090815260208a9052604081209192509061176a90611dff565b90505b6001600160a01b038116158015906117b757506001600160a01b038716600090815260208a9052604090206117a190611df9565b6001600160a01b0316816001600160a01b031614155b1561170d5760006117ce8a8a8a858b8b898c611f45565b905080156117e3576117e38989848888611c3e565b6001600160a01b038816600090815260208b905260409020919350839161180a9083611f22565b91505061176d565b6000600160201b82106118375760405162461bcd60e51b81526004016104ae90613f8c565b5090565b6001600160a01b038416600090815260208690526040902061185d90846121fa565b6118795760405162461bcd60e51b81526004016104ae90613e3e565b61149b846001600160a01b03166318160ddd6040518163ffffffff1660e01b815260040160206040518083038186803b1580156118b557600080fd5b505afa1580156118c9573d6000803e3d6000fd5b505050506040513d601f19601f820116820180604052508101906118ed91906139ba565b6001600160a01b038087166000908152600189016020908152604080832093891683529290522090848461224b565b6001600160a01b038416600090815260208690526040902061193e90846121fa565b1561195b5760405162461bcd60e51b81526004016104ae90613bc0565b6001600160a01b038416600090815260208690526040902054611999576001600160a01b038416600090815260208690526040902061199990612263565b6001600160a01b03841660009081526020869052604090206119bb90846122a7565b6001600160a01b03808516600090815260018701602090815260408083209387168352929052206118799061236f565b611a1d8383836119fc610b1b61161c565b6001600160a01b038916600090815260996020526040902093929190612385565b816001600160a01b0316836001600160a01b0316856001600160a01b03167fbbd41ee308597dd699317716979d8ce8edde7cdde9471c26bfab7752e1186c9460405160405180910390a450505050565b6001600160a01b0385166000908152602087905260408120611a8f90866121fa565b15611aac5760405162461bcd60e51b81526004016104ae90614009565b6001600160a01b038616600090815260208890526040902054611aea576001600160a01b0386166000908152602088905260409020611aea90612263565b6001600160a01b0386166000908152602088905260409020611b0c90866122a7565b6001600160a01b0380871660009081526001890160209081526040808320938916835292905220611b3f9085858561244d565b505050506001600160a01b0391821660009081526001939093016020908152604080852092909316845252902060030154600160701b900463ffffffff1690565b6001600160a01b0391821660009081526001939093016020908152604080852092909316845252902090565b6001600160a01b0384166000908152602086905260409020611bce90846121fa565b611bea5760405162461bcd60e51b81526004016104ae90613dfd565b6001600160a01b038085166000908152600187016020908152604080832093871683529290522061149b908383612593565b6001600160a01b038216600090815260208490526040812061145190836121fa565b8115611c6d576001600160a01b0385166000908152609860205260409020611c6890858584612601565b611c91565b6001600160a01b0385166000908152609760205260409020611c9190858584612601565b826001600160a01b0316846001600160a01b0316866001600160a01b03167f9684c938581734d57a998217c38505f0c4fc95afd0af9da2c97b9822ee7a66c885604051611cde9190613ac6565b60405180910390a45050505050565b606080826000015467ffffffffffffffff81118015611d0b57600080fd5b50604051908082528060200260200182016040528015611d35578160200160208202803683370190505b50600160008181529085016020526040812054919250906001600160a01b03165b6001600160a01b03811615801590611d7857506001600160a01b038116600114155b15611dc45780838381518110611d8a57fe5b6001600160a01b03928316602091820292909201810191909152918116600090815260018088019093526040902054929091019116611d56565b50909392505050565b60008184841115611df15760405162461bcd60e51b81526004016104ae9190613b6d565b505050900390565b50600190565b60016000818152910160205260409020546001600160a01b031690565b6001600160a01b03808716600081815260018b0160209081526040808320948a1683529381528382209282528b90529182208290611e5a90896121fa565b905060008115611e7857611e718389898989612624565b9050611e86565b611e8383898961263c565b90505b60006001600160801b03821615611f0557611eab8a8a846001600160801b0316612649565b9050896001600160a01b03168b6001600160a01b03168d6001600160a01b03167f782be3085b3ef7b927740f3ed02f7393ee3f20b8fe87595484dbf65c5be4230d8c86604051611efc9291906139e6565b60405180910390a45b6001600160801b0390911614159250505098975050505050505050565b6001600160a01b0380821660009081526001840160205260409020541692915050565b6001600160a01b03808716600090815260018a016020908152604080832093891683529290529081208180611f7c838989896127dc565b909250905060008215611ff057611f948a8a85612649565b9050896001600160a01b03168b6001600160a01b03168d6001600160a01b03167f06c65e2aee0f9ad46bde72ca6800e5b29333356dc073eba0e3995ffc980148f7898d88604051611fe793929190613ad1565b60405180910390a45b6001600160a01b038b16600090815260208e905260408120612012908c6121fa565b905080801561201e5750825b156121e55760038501546000906120519061204c9063ffffffff600160701b9091048116906001906115da16565b612a11565b90508b6001600160a01b03168d6001600160a01b03168f6001600160a01b03167fa2ec807a0c220b85f5b188be41d7d35248cc5abe1a2fab6c33d31132cdd682c38b858b60010160008861ffff1663ffffffff16815260200190815260200160002060000160009054906101000a90046001600160701b03166040516120d993929190613af2565b60405180910390a48b6001600160a01b03168d6001600160a01b03168f6001600160a01b03167f5030027163f1655f8ac4c205c22bfe42c59f83e61a7c15da775499920b2143148b8a600301600e9054906101000a900463ffffffff168b60010160008d600301600e9054906101000a900463ffffffff1663ffffffff1663ffffffff168152602001908152602001600020600001600e9054906101000a90046001600160701b03168c60010160008e600301600e9054906101000a900463ffffffff1663ffffffff1663ffffffff168152602001908152602001600020600001601c9054906101000a900463ffffffff166040516121db9493929190613b3e565b60405180910390a4505b50909114159250505098975050505050505050565b60006001600160a01b03821660011480159061221e57506001600160a01b03821615155b80156114c75750506001600160a01b03908116600090815260019290920160205260409091205416151590565b61225c84848363ffffffff16612a35565b5090915550565b8054156122825760405162461bcd60e51b81526004016104ae90613ef6565b60016000818152918101602052604090912080546001600160a01b0319169091179055565b6001600160a01b0381166001148015906122c957506001600160a01b03811615155b6122e55760405162461bcd60e51b81526004016104ae90613c3d565b6001600160a01b038181166000908152600184016020526040902054161561231f5760405162461bcd60e51b81526004016104ae90613f65565b60016000818152838201602052604080822080546001600160a01b039586168085529284208054969091166001600160a01b03199687161790559183905281549093169092179091558154019055565b6001018054600160701b600160e01b0319169055565b6001600160a01b03841660009081526020869052604090206123a8908385612bc8565b61149b846001600160a01b03166318160ddd6040518163ffffffff1660e01b815260040160206040518083038186803b1580156123e457600080fd5b505afa1580156123f8573d6000803e3d6000fd5b505050506040513d601f19601f8201168201806040525081019061241c91906139ba565b6001600160a01b0380871660009081526001890160209081526040808320938916835292905290812091908461224b565b8263ffffffff16600081116124745760405162461bcd60e51b81526004016104ae90613cd9565b60028501805463ffffffff191663ffffffff86811691909117640100000000600160901b031916600160201b6001600160701b03871602179091556003860180546001600160701b031916908190556124de9161204c91600160701b9004811690600190612c9216565b60038601805463ffffffff60701b191661ffff92909216600160701b90810292909217908190556040805160608101825260008082526001600160701b03978816602080840191825263ffffffff98891684860190815295879004891683526001909b01909a529190912090518154985192516001600160701b031990991690871617600160701b600160e01b03191691909516909102176001600160e01b0316600160e01b95909216949094021790555050565b8163ffffffff16600081116125ba5760405162461bcd60e51b81526004016104ae90613cd9565b50600290920180546001600160701b03909316600160201b02640100000000600160901b031963ffffffff90931663ffffffff199094169390931791909116919091179055565b6001600160a01b0383166000908152602085905260409020610c83908284612bc8565b6000612631868484612a35565b6107f9868686612cb7565b6000611451848484612cb7565b600080846001600160a01b03166370a08231306040518263ffffffff1660e01b815260040161267891906139d2565b60206040518083038186803b15801561269057600080fd5b505afa1580156126a4573d6000803e3d6000fd5b505050506040513d601f19601f820116820180604052508101906126c891906139ba565b6001600160a01b0386166000908152609a60205260408120549192508282106126f25760006126fc565b6126fc83836115da565b90508085111561270a578094505b6001600160a01b0387166000908152609a602052604090205461272d9086612c92565b6001600160a01b038089166000908152609a6020908152604080832094909455609b8152838220928a1682529190915220546127699086612c92565b6001600160a01b038089166000818152609b60209081526040808320948c1680845294909152908190209390935591519091907f0f3ed8b918f23095606f705f6253b10267861573421cf05301b0f1f006c92b44906127c9908990614069565b60405180910390a3509295945050505050565b600384015460009081908690600160701b900463ffffffff166128115760405162461bcd60e51b81526004016104ae90613dcf565b61281b8785612d97565b6001600160a01b03871660009081526020899052604090205490925061285990889063ffffffff600160701b820416906001600160701b0316612dc3565b6003880154909350600160701b900463ffffffff1683156128f457604051806040016040528061288888612e67565b6001600160701b03908116825263ffffffff8085166020938401526001600160a01b038b1660009081528c845260409020845181549590940151909116600160701b0263ffffffff60701b19939092166001600160701b0319909416939093179190911617905561299c565b6040805180820182526001600160a01b038916600090815260208b9052919091205481906129349061292f906001600160701b03168a612c92565b612e67565b6001600160701b03908116825263ffffffff8085166020938401526001600160a01b038b1660009081528c845260409020845181549590940151909116600160701b0263ffffffff60701b19939092166001600160701b031990941693909317919091161790555b63ffffffff808216600090815260018a0160205260409020546129cf9161292f916001600160701b0316908990612c9216565b63ffffffff9091166000908152600189016020526040902080546001600160701b03929092166001600160701b03199092169190911790555094509492505050565b60006201000082106118375760405162461bcd60e51b81526004016104ae90613bf7565b600183015463ffffffff828116600160e01b909204161415612a5657612bc3565b6001830154600090600160e01b900463ffffffff1615612a87576001840154600160e01b900463ffffffff16612a89565b815b90506000612a9783836115da565b60018601549091506000906001600160701b031615612ac35760018601546001600160701b0316612ad4565b612ad4670de0b6b3a7640000612e67565b905060008083118015612ae75750865415155b15612b31578654612af9908490612e8c565b90506000808711612b0b576000612b15565b612b158288612ec6565b9050612b2d61292f6001600160701b03851683612c92565b9250505b6001870180546001600160701b0319166001600160701b038481169190911791829055612b6b9161292f91600160701b9091041683612c92565b87600101600e6101000a8154816001600160701b0302191690836001600160701b03160217905550612b9c85611812565b87600101601c6101000a81548163ffffffff021916908363ffffffff160217905550505050505b505050565b6001600160a01b038116600114801590612bea57506001600160a01b03811615155b612c065760405162461bcd60e51b81526004016104ae90613c3d565b6001600160a01b038281166000908152600185016020526040902054811690821614612c445760405162461bcd60e51b81526004016104ae90613c66565b6001600160a01b039081166000818152600185016020526040808220805495851683529082208054959094166001600160a01b03199586161790935552805490911690558054600019019055565b6000828201838110156114c75760405162461bcd60e51b81526004016104ae90613d10565b6001600160a01b0382166000908152600284016020526040812080546001600160801b031680612cfe57612cf2670de0b6b3a7640000612e67565b6001600160701b031690505b6001860154600090612d19906001600160701b0316836115da565b90506000612d2f612d2a8784612ee7565b612f08565b604080516020808201835260018c01546001600160701b031682526001600160a01b039a909a1660009081526002909b01909952909820965187546fffffffffffffffffffffffffffffffff19166001600160801b0390911617909655509495945050505050565b6000612da38383612f2d565b15612dba57612db28383612f63565b5060016114ca565b50600092915050565b6003830154600090819063ffffffff600160701b9091048116908516108015612e0b575063ffffffff841660009081526001860160205260409020546001600160701b031615155b156114515763ffffffff84166000908152600186016020526040812054612e45906001600160801b038616906001600160701b0316612ec6565b60028701549091506107f990600160201b90046001600160701b031682612ee7565b6000600160701b82106118375760405162461bcd60e51b81526004016104ae90613f1c565b600082612e9b575060006114ca565b82820282848281612ea857fe5b04146114c75760405162461bcd60e51b81526004016104ae90613e80565b600080612edb84670de0b6b3a7640000612e8c565b9050611451818461318a565b600080612ef48385612e8c565b905061145181670de0b6b3a764000061318a565b6000600160801b82106118375760405162461bcd60e51b81526004016104ae90613d47565b600382015463ffffffff600160701b90910481166000908152600184016020526040902054600160e01b90041681101592915050565b8181612f6f8282612f2d565b612f8b5760405162461bcd60e51b81526004016104ae90613fd2565b600384015463ffffffff600160701b90910481166000908152600180870160205260408220546002880154600160e01b909104841693612fe89291612fe29190811690612fdc908a9088906115da16565b9061318a565b90612c92565b60028701549091506000906130139061300c90849063ffffffff90811690612e8c16565b8490612c92565b600388015463ffffffff600160701b8083048216600090815260018c01602052604090205493945061305b9361292f936001600160701b0390811693929091041690612c9216565b6003880180546001600160701b0319166001600160701b039290921691909117908190556130a09061204c90600160701b900463ffffffff90811690600190612c9216565b60038801805463ffffffff60701b191661ffff92909216600160701b02919091179055604080516060810182526000815260028901546001600160701b03600160201b9091041660208201529081016130f883611812565b63ffffffff9081169091526003890154600160701b90819004821660009081526001909a01602090815260409a8b9020845181549286015195909c01516001600160701b03199092166001600160701b039c8d1617600160701b600160e01b0319169b909416909102999099176001600160e01b0316600160e01b999091169890980297909717909655505050505050565b60006114c783836040518060400160405280601a81526020017f536166654d6174683a206469766973696f6e206279207a65726f000000000000815250600081836131e85760405162461bcd60e51b81526004016104ae9190613b6d565b5060008385816131f457fe5b0495945050505050565b604080518082019091526000808252602082015290565b604080516060810182526000808252602082018190529181019190915290565b6040805160a08101825260008082526020820181905291810182905260608101829052608081019190915290565b80356001600160a01b03811681146114ca57600080fd5b600082601f83011261328a578081fd5b813561329d613298826140d4565b6140ad565b8181529150602080830190848101818402860182018710156132be57600080fd5b60005b848110156132e5576132d38883613263565b845292820192908201906001016132c1565b505050505092915050565b600060408284031215613301578081fd5b61330b60406140ad565b90506133178383613263565b81526133268360208401613263565b602082015292915050565b600060208284031215613342578081fd5b6114c78383613263565b6000806040838503121561335e578081fd5b6133688484613263565b91506133778460208501613263565b90509250929050565b600080600060608486031215613394578081fd5b61339e8585613263565b92506133ad8560208601613263565b91506133bc8560408601613263565b90509250925092565b600080600080608085870312156133da578081fd5b6133e48686613263565b93506133f38660208701613263565b92506134028660408701613263565b91506134118660608701613263565b905092959194509250565b60008060008060808587031215613431578384fd5b61343b8686613263565b935061344a8660208701613263565b92506134598660408701613263565b915060608501356134698161410c565b939692955090935050565b600080600080600060a0868803121561348b578081fd5b6134958787613263565b94506134a48760208801613263565b93506134b38760408801613263565b925060608601356134c38161410c565b91506134d28760808801613263565b90509295509295909350565b600080600080600060a086880312156134f5578081fd5b6134ff8787613263565b945061350e8760208801613263565b935061351d8760408801613263565b9250606086013561352d8161410c565b9150608086013561ffff81168114613543578182fd5b809150509295509295909350565b60008060008060008060c08789031215613569578384fd5b8635613574816140f4565b95506020870135613584816140f4565b94506040870135613594816140f4565b935060608701356135a48161410c565b925060808701356135b48161411a565b915060a08701356001600160701b03811681146135cf578182fd5b809150509295509295509295565b600080600080600080600060e0888a0312156135f7578485fd5b8735613602816140f4565b96506020880135613612816140f4565b95506040880135613622816140f4565b945060608801356136328161410c565b935060808801356136428161411a565b925060a08801356001600160701b038116811461365d578182fd5b915060c088013561366d8161411a565b8091505092959891949750929550565b60008060008060808587031215613692578182fd5b843561369d816140f4565b935060208501356136ad816140f4565b925060408501356136bd816140f4565b9396929550929360600135925050565b6000806000606084860312156136e1578081fd5b83356136ec816140f4565b925060208401356136fc816140f4565b9150604084013561370c8161410c565b809150509250925092565b60008060006060848603121561372b578081fd5b8335613736816140f4565b92506020840135613746816140f4565b929592945050506040919091013590565b6000806000806080858703121561376c578182fd5b8435613777816140f4565b93506020850135613787816140f4565b9250604085013591506060850135613469816140f4565b600080600080608085870312156137b3578182fd5b6137bd8686613263565b9350602085013592506134028660408701613263565b6000806000806000606086880312156137ea578283fd5b853567ffffffffffffffff80821115613801578485fd5b818801915088601f830112613814578485fd5b813581811115613822578586fd5b60208a81604084028601011115613837578687fd5b808401985081975061384b8b828c01613263565b965060408a0135935082841115613860578485fd5b838a0193508a601f850112613873578485fd5b8335915082821115613883578485fd5b8a818284028601011115613895578485fd5b979a96995094975050909401935090919050565b6000806000606084860312156138bd578081fd5b833567ffffffffffffffff808211156138d4578283fd5b818601915086601f8301126138e7578283fd5b81356138f5613298826140d4565b808282526020808301925080860160408c838288028a01011115613917578889fd5b8897505b858810156139435761392d8d836132f0565b855260019790970196938201939081019061391b565b839a506139528d848e01613263565b9950808c013597505050505050508082111561396c578283fd5b506139798682870161327a565b9150509250925092565b600060208284031215613994578081fd5b81516114c78161410c565b6000604082840312156139b0578081fd5b6114c783836132f0565b6000602082840312156139cb578081fd5b5051919050565b6001600160a01b0391909116815260200190565b6001600160a01b039290921682526001600160801b0316602082015260400190565b6001600160a01b03929092168252602082015260400190565b6020808252825182820181905260009190848201906040850190845b81811015613a625783516001600160a01b031683529284019291840191600101613a3d565b50909695505050505050565b602080825282518282018190526000919060409081850190868401855b82811015613ab957815180516001600160a01b03168552860151868501529284019290850190600101613a8b565b5091979650505050505050565b901515815260200190565b92151583526001600160a01b03919091166020830152604082015260600190565b921515835261ffff9190911660208301526001600160701b0316604082015260600190565b921515835263ffffffff9190911660208301526001600160701b0316604082015260600190565b931515845263ffffffff92831660208501526001600160701b0391909116604084015216606082015260800190565b6000602080835283518082850152825b81811015613b9957858101830151858201604001528201613b7d565b81811115613baa5783604083870101525b50601f01601f1916929092016040019392505050565b6020808252601e908201527f42616c616e6365447269704d616e616765722f647269702d6163746976650000604082015260600190565b60208082526026908201527f53616665436173743a2076616c756520646f65736e27742066697420696e203160408201526536206269747360d01b606082015260800190565b6020808252600f908201526e496e76616c6964206164647265737360881b604082015260600190565b602080825260139082015272496e76616c696420707265764164647265737360681b604082015260600190565b60208082526026908201527f4f776e61626c653a206e6577206f776e657220697320746865207a65726f206160408201526564647265737360d01b606082015260800190565b60208082526019908201527f566f6c756d65447269702f706572696f642d67742d7a65726f00000000000000604082015260600190565b6020808252601b908201527f536166654d6174683a206164646974696f6e206f766572666c6f770000000000604082015260600190565b60208082526027908201527f53616665436173743a2076616c756520646f65736e27742066697420696e20316040820152663238206269747360c81b606082015260800190565b60208082526021908201527f436f6d7074726f6c6c65722f636c61696d2d7472616e736665722d6661696c656040820152601960fa1b606082015260800190565b602080825260149082015273159bdb1d5b59511c9a5c0bdb9bcb5c195c9a5bd960621b604082015260600190565b60208082526021908201527f566f6c756d65447269704d616e616765722f647269702d6e6f742d61637469766040820152606560f81b606082015260800190565b60208082526022908201527f42616c616e6365447269704d616e616765722f647269702d6e6f742d61637469604082015261766560f01b606082015260800190565b60208082526021908201527f536166654d6174683a206d756c7469706c69636174696f6e206f766572666c6f6040820152607760f81b606082015260800190565b6020808252818101527f4f776e61626c653a2063616c6c6572206973206e6f7420746865206f776e6572604082015260600190565b6020808252600c908201526b105b1c9958591e481a5b9a5d60a21b604082015260600190565b60208082526029908201527f53616665436173743a2076616c756520646f65736e27742066697420696e206160408201526837103ab4b73a18989960b91b606082015260800190565b6020808252600d908201526c105b1c9958591e481859191959609a1b604082015260600190565b60208082526026908201527f53616665436173743a2076616c756520646f65736e27742066697420696e203360408201526532206269747360d01b606082015260800190565b6020808252601a908201527f566f6c756d65447269702f706572696f642d6e6f742d6f766572000000000000604082015260600190565b6020808252601d908201527f566f6c756d65447269704d616e616765722f647269702d616374697665000000604082015260600190565b6001600160701b03938416815291909216602082015263ffffffff909116604082015260600190565b90815260200190565b9283526001600160801b0391909116602083015263ffffffff16604082015260600190565b9283526020830191909152604082015260600190565b60405181810167ffffffffffffffff811182821017156140cc57600080fd5b604052919050565b600067ffffffffffffffff8211156140ea578081fd5b5060209081020190565b6001600160a01b038116811461410957600080fd5b50565b801515811461410957600080fd5b63ffffffff8116811461410957600080fdfea26469706673582212208eb57321a50a333f8591f070eca5b46e8fe55cbd7e19e6618808eb3190e2195d64736f6c634300060c0033",
  "devdoc": {
    "kind": "dev",
    "methods": {
      "activateBalanceDrip(address,address,address,uint256)": {
        "params": {
          "dripRatePerSecond": "The amount of drip tokens that are awarded each second to the total supply of measure.",
          "dripToken": "The token that is dripped to users.",
          "measure": "The ERC20 token whose balances determines user's share of the drip rate.",
          "source": "The balance drip \"source\"; i.e. a Prize Pool address."
        }
      },
      "activateVolumeDrip(address,address,address,bool,uint32,uint112,uint32)": {
        "params": {
          "dripAmount": "The amount of dripTokens disbursed each period.",
          "dripToken": "The token that is being disbursed",
          "endTime": "The time at which the first period ends.",
          "isReferral": "Whether this volume drip is for referrals",
          "measure": "The Prize Pool controlled token whose volume should be measured",
          "periodSeconds": "The period of the volume drip, in seconds",
          "source": "The Prize Pool for which to bind to"
        }
      },
      "balanceOfDrip(address,address)": {
        "params": {
          "dripToken": "The token that is being disbursed",
          "user": "The user whose balance should be checked."
        },
        "returns": {
          "_0": "The claimable balance of the dripToken by the user."
        }
      },
      "beforeTokenMint(address,uint256,address,address)": {
        "params": {
          "amount": "The amount of tokens they are minting",
          "measure": "The measure token they are minting",
          "referrer": "The user who referred the minting.",
          "to": "The user who is minting the tokens"
        }
      },
      "beforeTokenTransfer(address,address,uint256,address)": {
        "params": {
          "amount": "The amount of tokens being transferred",
          "from": "The user who is sending the tokens",
          "measure": "The measure token they are transferring",
          "to": "The user who is receiving the tokens"
        }
      },
      "claimDrip(address,address,uint256)": {
        "params": {
          "amount": "The amount of drip token to claim",
          "dripToken": "The drip token to claim",
          "user": "The user for whom to claim the drip tokens"
        }
      },
      "deactivateBalanceDrip(address,address,address,address)": {
        "params": {
          "dripToken": "The token that is dripped to users.",
          "measure": "The ERC20 token whose balances determines user's share of the drip rate.",
          "prevDripToken": "The previous drip token in the balance drip list.  If the dripToken is the first address, then the previous address is the SENTINEL address: 0x0000000000000000000000000000000000000001",
          "source": "The balance drip \"source\"; i.e. a Prize Pool address."
        }
      },
      "deactivateVolumeDrip(address,address,address,bool,address)": {
        "params": {
          "dripToken": "The token that is being disbursed",
          "isReferral": "Whether this volume drip is for referrals",
          "measure": "The Prize Pool controlled token whose volume should be measured",
          "prevDripToken": "The previous drip token in the volume drip list.  Is different for referrals vs non-referral volume drips.",
          "source": "The Prize Pool for which to bind to"
        }
      },
      "getActiveBalanceDripTokens(address,address)": {
        "params": {
          "measure": "The ERC20 token whose balances determines user's share of the drip rate.",
          "source": "The balance drip \"source\"; i.e. a Prize Pool address."
        },
        "returns": {
          "_0": "An array of active Balance Drip token addresses"
        }
      },
      "getActiveVolumeDripTokens(address,address,bool)": {
        "params": {
          "isReferral": "Whether this volume drip is a referral",
          "measure": "The ERC20 token whose volume determines user's share of the drip rate.",
          "source": "The volume drip \"source\"; i.e. a Prize Pool address."
        },
        "returns": {
          "_0": "An array of active Volume Drip token addresses"
        }
      },
      "getBalanceDrip(address,address,address)": {
        "params": {
          "dripToken": "The token that is being dripped to users",
          "measure": "The token that measure's a users share of the drip",
          "source": "The balance drip \"source\"; i.e. Prize Pool"
        },
        "returns": {
          "dripRatePerSecond": "The current drip rate of the balance drip.",
          "exchangeRateMantissa": "The current exchange rate from measure to dripTokens",
          "timestamp": "The timestamp at which the balance drip was last updated."
        }
      },
      "owner()": {
        "details": "Returns the address of the current owner."
      },
      "renounceOwnership()": {
        "details": "Leaves the contract without owner. It will not be possible to call `onlyOwner` functions anymore. Can only be called by the current owner. NOTE: Renouncing ownership will leave the contract without an owner, thereby removing any functionality that is only available to the owner."
      },
      "setBalanceDripRate(address,address,address,uint256)": {
        "params": {
          "dripRatePerSecond": "The new drip rate per second",
          "dripToken": "The token that is dripped to the user",
          "measure": "The token to use to measure a user's share of the drip rate",
          "source": "The balance drip \"source\"; i.e. Prize Pool"
        }
      },
      "setVolumeDrip(address,address,address,bool,uint32,uint112)": {
        "params": {
          "dripAmount": "The amount of tokens to drip for the next period",
          "dripToken": "The token that is being disbursed",
          "isReferral": "Whether this volume drip is a referral",
          "measure": "The token whose volume is being measured",
          "periodSeconds": "The length to use for the next period",
          "source": "The Prize Pool of the volume drip"
        }
      },
      "transferOwnership(address)": {
        "details": "Transfers ownership of the contract to a new account (`newOwner`). Can only be called by the current owner."
      },
      "updateAndClaimDrips((address,address)[],address,address[])": {
        "params": {
          "dripTokens": "The drip tokens whose entire balance will be claimed after the update.",
          "pairs": "The (source, measure) pairs of drips to update for the given user",
          "user": "The user for whom to update and claim tokens"
        }
      },
      "updateDrips((address,address)[],address,address[])": {
        "details": "This function will be useful to check the *current* claim balances for a user. Just need to run this as a constant function to see the latest balances. in order to claim the values, this function needs to be run alongside a claimDrip function.",
        "params": {
          "dripTokens": "The drip tokens to retrieve claim balances for.",
          "pairs": "The (source, measure) pairs to update.  For each pair all of the balance drips, volume drips, and referral volume drips will be updated.",
          "user": "The user whose drips and balances will be updated."
        },
        "returns": {
          "_0": "The claimable balance of each of the passed drip tokens for the user.  These are the post-update balances, and therefore the most accurate."
        }
      }
    },
    "title": "The Comptroller disburses rewards to pool users",
    "version": 1
  },
  "userdoc": {
    "events": {
      "BalanceDripActivated(address,address,address,uint256)": {
        "notice": "Emitted when a balance drip is actived"
      },
      "BalanceDripDeactivated(address,address,address)": {
        "notice": "Emitted when a balance drip is deactivated"
      },
      "BalanceDripDripped(address,address,address,address,uint256)": {
        "notice": "Emitted when a balance drip drips tokens"
      },
      "BalanceDripRateSet(address,address,address,uint256)": {
        "notice": "Emitted when a balance drip rate is updated"
      },
      "DripTokenClaimed(address,address,address,uint256)": {
        "notice": "Emitted when a user claims drip tokens"
      },
      "VolumeDripActivated(address,address,address,bool,uint256,uint256)": {
        "notice": "Emitted when a volume drip is activated"
      },
      "VolumeDripDeactivated(address,address,address,bool)": {
        "notice": "Emitted when a volume drip is deactivated."
      },
      "VolumeDripDripped(address,address,address,bool,address,uint256)": {
        "notice": "Emitted when a volue drip drips tokens"
      },
      "VolumeDripPeriodEnded(address,address,address,bool,uint32,uint256)": {
        "notice": "Emitted when a volume drip period has ended"
      },
      "VolumeDripPeriodStarted(address,address,address,bool,uint32,uint256,uint256)": {
        "notice": "Emitted when a new volume drip period has started"
      },
      "VolumeDripSet(address,address,address,bool,uint256,uint256)": {
        "notice": "Emitted when a volume drip is updated"
      }
    },
    "kind": "user",
    "methods": {
      "activateBalanceDrip(address,address,address,uint256)": {
        "notice": "Activates a balance drip.  Only callable by the owner."
      },
      "activateVolumeDrip(address,address,address,bool,uint32,uint112,uint32)": {
        "notice": "Activates a volume drip.  Volume drips distribute tokens to users based on their share of the activity within a period."
      },
      "balanceOfDrip(address,address)": {
        "notice": "Returns a users claimable balance of drip tokens.  This is the combination of all balance and volume drips."
      },
      "beforeTokenMint(address,uint256,address,address)": {
        "notice": "Called by a \"source\" (i.e. Prize Pool) when a user mints new \"measure\" tokens."
      },
      "beforeTokenTransfer(address,address,uint256,address)": {
        "notice": "Called by a \"source\" (i.e. Prize Pool) when tokens change hands or are burned"
      },
      "claimDrip(address,address,uint256)": {
        "notice": "Claims a drip token on behalf of a user.  If the passed amount is less than or equal to the users drip balance, then they will be transferred that amount.  Otherwise, it fails."
      },
      "constructor": "Initializes a new Comptroller.",
      "deactivateBalanceDrip(address,address,address,address)": {
        "notice": "Deactivates a balance drip.  Only callable by the owner."
      },
      "deactivateVolumeDrip(address,address,address,bool,address)": {
        "notice": "Deactivates a volume drip.  Volume drips distribute tokens to users based on their share of the activity within a period."
      },
      "getActiveBalanceDripTokens(address,address)": {
        "notice": "Gets a list of active balance drip tokens"
      },
      "getActiveVolumeDripTokens(address,address,bool)": {
        "notice": "Gets a list of active volume drip tokens"
      },
      "getBalanceDrip(address,address,address)": {
        "notice": "Returns the state of a balance drip."
      },
      "setBalanceDripRate(address,address,address,uint256)": {
        "notice": "Sets the drip rate for a balance drip.  The drip rate is the number of drip tokens given to the entire supply of measure tokens.  Only callable by the owner."
      },
      "setVolumeDrip(address,address,address,bool,uint32,uint112)": {
        "notice": "Sets the parameters for the *next* volume drip period.  The source, measure, dripToken and isReferral combined are used to uniquely identify a volume drip.  Only callable by the owner."
      },
      "updateAndClaimDrips((address,address)[],address,address[])": {
        "notice": "Updates the given drips for a user and then claims the given drip tokens"
      },
      "updateDrips((address,address)[],address,address[])": {
        "notice": "Updates all drips. Drip may need to be \"poked\" from time-to-time if there is little transaction activity.  This call will poke all of the drips and update the claim balances for the given user."
      }
    },
    "version": 1
  },
  "storageLayout": {
    "storage": [
      {
        "astId": 678,
        "contract": "contracts/comptroller/Comptroller.sol:Comptroller",
        "label": "initialized",
        "offset": 0,
        "slot": "0",
        "type": "t_bool"
      },
      {
        "astId": 681,
        "contract": "contracts/comptroller/Comptroller.sol:Comptroller",
        "label": "initializing",
        "offset": 1,
        "slot": "0",
        "type": "t_bool"
      },
      {
        "astId": 746,
        "contract": "contracts/comptroller/Comptroller.sol:Comptroller",
        "label": "______gap",
        "offset": 0,
        "slot": "1",
        "type": "t_array(t_uint256)50_storage"
      },
      {
        "astId": 671,
        "contract": "contracts/comptroller/Comptroller.sol:Comptroller",
        "label": "__gap",
        "offset": 0,
        "slot": "51",
        "type": "t_array(t_uint256)50_storage"
      },
      {
        "astId": 758,
        "contract": "contracts/comptroller/Comptroller.sol:Comptroller",
        "label": "_owner",
        "offset": 0,
        "slot": "101",
        "type": "t_address"
      },
      {
        "astId": 876,
        "contract": "contracts/comptroller/Comptroller.sol:Comptroller",
        "label": "__gap",
        "offset": 0,
        "slot": "102",
        "type": "t_array(t_uint256)49_storage"
      },
      {
        "astId": 8293,
        "contract": "contracts/comptroller/Comptroller.sol:Comptroller",
        "label": "volumeDrips",
        "offset": 0,
        "slot": "151",
        "type": "t_mapping(t_address,t_struct(State)9666_storage)"
      },
      {
        "astId": 8297,
        "contract": "contracts/comptroller/Comptroller.sol:Comptroller",
        "label": "referralVolumeDrips",
        "offset": 0,
        "slot": "152",
        "type": "t_mapping(t_address,t_struct(State)9666_storage)"
      },
      {
        "astId": 8301,
        "contract": "contracts/comptroller/Comptroller.sol:Comptroller",
        "label": "balanceDrips",
        "offset": 0,
        "slot": "153",
        "type": "t_mapping(t_address,t_struct(State)8900_storage)"
      },
      {
        "astId": 8305,
        "contract": "contracts/comptroller/Comptroller.sol:Comptroller",
        "label": "dripTokenTotalSupply",
        "offset": 0,
        "slot": "154",
        "type": "t_mapping(t_address,t_uint256)"
      },
      {
        "astId": 8311,
        "contract": "contracts/comptroller/Comptroller.sol:Comptroller",
        "label": "dripTokenBalances",
        "offset": 0,
        "slot": "155",
        "type": "t_mapping(t_address,t_mapping(t_address,t_uint256))"
      }
    ],
    "types": {
      "t_address": {
        "encoding": "inplace",
        "label": "address",
        "numberOfBytes": "20"
      },
      "t_array(t_uint256)49_storage": {
        "base": "t_uint256",
        "encoding": "inplace",
        "label": "uint256[49]",
        "numberOfBytes": "1568"
      },
      "t_array(t_uint256)50_storage": {
        "base": "t_uint256",
        "encoding": "inplace",
        "label": "uint256[50]",
        "numberOfBytes": "1600"
      },
      "t_bool": {
        "encoding": "inplace",
        "label": "bool",
        "numberOfBytes": "1"
      },
      "t_mapping(t_address,t_address)": {
        "encoding": "mapping",
        "key": "t_address",
        "label": "mapping(address => address)",
        "numberOfBytes": "32",
        "value": "t_address"
      },
      "t_mapping(t_address,t_mapping(t_address,t_struct(State)8592_storage))": {
        "encoding": "mapping",
        "key": "t_address",
        "label": "mapping(address => mapping(address => struct BalanceDrip.State))",
        "numberOfBytes": "32",
        "value": "t_mapping(t_address,t_struct(State)8592_storage)"
      },
      "t_mapping(t_address,t_mapping(t_address,t_struct(State)9172_storage))": {
        "encoding": "mapping",
        "key": "t_address",
        "label": "mapping(address => mapping(address => struct VolumeDrip.State))",
        "numberOfBytes": "32",
        "value": "t_mapping(t_address,t_struct(State)9172_storage)"
      },
      "t_mapping(t_address,t_mapping(t_address,t_uint256))": {
        "encoding": "mapping",
        "key": "t_address",
        "label": "mapping(address => mapping(address => uint256))",
        "numberOfBytes": "32",
        "value": "t_mapping(t_address,t_uint256)"
      },
      "t_mapping(t_address,t_struct(Deposit)9146_storage)": {
        "encoding": "mapping",
        "key": "t_address",
        "label": "mapping(address => struct VolumeDrip.Deposit)",
        "numberOfBytes": "32",
        "value": "t_struct(Deposit)9146_storage"
      },
      "t_mapping(t_address,t_struct(Mapping)19559_storage)": {
        "encoding": "mapping",
        "key": "t_address",
        "label": "mapping(address => struct MappedSinglyLinkedList.Mapping)",
        "numberOfBytes": "32",
        "value": "t_struct(Mapping)19559_storage"
      },
      "t_mapping(t_address,t_struct(State)8592_storage)": {
        "encoding": "mapping",
        "key": "t_address",
        "label": "mapping(address => struct BalanceDrip.State)",
        "numberOfBytes": "32",
        "value": "t_struct(State)8592_storage"
      },
      "t_mapping(t_address,t_struct(State)8900_storage)": {
        "encoding": "mapping",
        "key": "t_address",
        "label": "mapping(address => struct BalanceDripManager.State)",
        "numberOfBytes": "32",
        "value": "t_struct(State)8900_storage"
      },
      "t_mapping(t_address,t_struct(State)9172_storage)": {
        "encoding": "mapping",
        "key": "t_address",
        "label": "mapping(address => struct VolumeDrip.State)",
        "numberOfBytes": "32",
        "value": "t_struct(State)9172_storage"
      },
      "t_mapping(t_address,t_struct(State)9666_storage)": {
        "encoding": "mapping",
        "key": "t_address",
        "label": "mapping(address => struct VolumeDripManager.State)",
        "numberOfBytes": "32",
        "value": "t_struct(State)9666_storage"
      },
      "t_mapping(t_address,t_struct(UserState)8579_storage)": {
        "encoding": "mapping",
        "key": "t_address",
        "label": "mapping(address => struct BalanceDrip.UserState)",
        "numberOfBytes": "32",
        "value": "t_struct(UserState)8579_storage"
      },
      "t_mapping(t_address,t_uint256)": {
        "encoding": "mapping",
        "key": "t_address",
        "label": "mapping(address => uint256)",
        "numberOfBytes": "32",
        "value": "t_uint256"
      },
      "t_mapping(t_uint32,t_struct(Period)9153_storage)": {
        "encoding": "mapping",
        "key": "t_uint32",
        "label": "mapping(uint32 => struct VolumeDrip.Period)",
        "numberOfBytes": "32",
        "value": "t_struct(Period)9153_storage"
      },
      "t_struct(Deposit)9146_storage": {
        "encoding": "inplace",
        "label": "struct VolumeDrip.Deposit",
        "members": [
          {
            "astId": 9143,
            "contract": "contracts/comptroller/Comptroller.sol:Comptroller",
            "label": "balance",
            "offset": 0,
            "slot": "0",
            "type": "t_uint112"
          },
          {
            "astId": 9145,
            "contract": "contracts/comptroller/Comptroller.sol:Comptroller",
            "label": "period",
            "offset": 14,
            "slot": "0",
            "type": "t_uint32"
          }
        ],
        "numberOfBytes": "32"
      },
      "t_struct(Mapping)19559_storage": {
        "encoding": "inplace",
        "label": "struct MappedSinglyLinkedList.Mapping",
        "members": [
          {
            "astId": 19554,
            "contract": "contracts/comptroller/Comptroller.sol:Comptroller",
            "label": "count",
            "offset": 0,
            "slot": "0",
            "type": "t_uint256"
          },
          {
            "astId": 19558,
            "contract": "contracts/comptroller/Comptroller.sol:Comptroller",
            "label": "addressMap",
            "offset": 0,
            "slot": "1",
            "type": "t_mapping(t_address,t_address)"
          }
        ],
        "numberOfBytes": "64"
      },
      "t_struct(Period)9153_storage": {
        "encoding": "inplace",
        "label": "struct VolumeDrip.Period",
        "members": [
          {
            "astId": 9148,
            "contract": "contracts/comptroller/Comptroller.sol:Comptroller",
            "label": "totalSupply",
            "offset": 0,
            "slot": "0",
            "type": "t_uint112"
          },
          {
            "astId": 9150,
            "contract": "contracts/comptroller/Comptroller.sol:Comptroller",
            "label": "dripAmount",
            "offset": 14,
            "slot": "0",
            "type": "t_uint112"
          },
          {
            "astId": 9152,
            "contract": "contracts/comptroller/Comptroller.sol:Comptroller",
            "label": "endTime",
            "offset": 28,
            "slot": "0",
            "type": "t_uint32"
          }
        ],
        "numberOfBytes": "32"
      },
      "t_struct(State)8592_storage": {
        "encoding": "inplace",
        "label": "struct BalanceDrip.State",
        "members": [
          {
            "astId": 8581,
            "contract": "contracts/comptroller/Comptroller.sol:Comptroller",
            "label": "dripRatePerSecond",
            "offset": 0,
            "slot": "0",
            "type": "t_uint256"
          },
          {
            "astId": 8583,
            "contract": "contracts/comptroller/Comptroller.sol:Comptroller",
            "label": "exchangeRateMantissa",
            "offset": 0,
            "slot": "1",
            "type": "t_uint112"
          },
          {
            "astId": 8585,
            "contract": "contracts/comptroller/Comptroller.sol:Comptroller",
            "label": "totalDripped",
            "offset": 14,
            "slot": "1",
            "type": "t_uint112"
          },
          {
            "astId": 8587,
            "contract": "contracts/comptroller/Comptroller.sol:Comptroller",
            "label": "timestamp",
            "offset": 28,
            "slot": "1",
            "type": "t_uint32"
          },
          {
            "astId": 8591,
            "contract": "contracts/comptroller/Comptroller.sol:Comptroller",
            "label": "userStates",
            "offset": 0,
            "slot": "2",
            "type": "t_mapping(t_address,t_struct(UserState)8579_storage)"
          }
        ],
        "numberOfBytes": "96"
      },
      "t_struct(State)8900_storage": {
        "encoding": "inplace",
        "label": "struct BalanceDripManager.State",
        "members": [
          {
            "astId": 8893,
            "contract": "contracts/comptroller/Comptroller.sol:Comptroller",
            "label": "activeBalanceDrips",
            "offset": 0,
            "slot": "0",
            "type": "t_mapping(t_address,t_struct(Mapping)19559_storage)"
          },
          {
            "astId": 8899,
            "contract": "contracts/comptroller/Comptroller.sol:Comptroller",
            "label": "balanceDrips",
            "offset": 0,
            "slot": "1",
            "type": "t_mapping(t_address,t_mapping(t_address,t_struct(State)8592_storage))"
          }
        ],
        "numberOfBytes": "64"
      },
      "t_struct(State)9172_storage": {
        "encoding": "inplace",
        "label": "struct VolumeDrip.State",
        "members": [
          {
            "astId": 9157,
            "contract": "contracts/comptroller/Comptroller.sol:Comptroller",
            "label": "deposits",
            "offset": 0,
            "slot": "0",
            "type": "t_mapping(t_address,t_struct(Deposit)9146_storage)"
          },
          {
            "astId": 9161,
            "contract": "contracts/comptroller/Comptroller.sol:Comptroller",
            "label": "periods",
            "offset": 0,
            "slot": "1",
            "type": "t_mapping(t_uint32,t_struct(Period)9153_storage)"
          },
          {
            "astId": 9163,
            "contract": "contracts/comptroller/Comptroller.sol:Comptroller",
            "label": "nextPeriodSeconds",
            "offset": 0,
            "slot": "2",
            "type": "t_uint32"
          },
          {
            "astId": 9165,
            "contract": "contracts/comptroller/Comptroller.sol:Comptroller",
            "label": "nextDripAmount",
            "offset": 4,
            "slot": "2",
            "type": "t_uint112"
          },
          {
            "astId": 9167,
            "contract": "contracts/comptroller/Comptroller.sol:Comptroller",
            "label": "__gap",
            "offset": 18,
            "slot": "2",
            "type": "t_uint112"
          },
          {
            "astId": 9169,
            "contract": "contracts/comptroller/Comptroller.sol:Comptroller",
            "label": "totalDripped",
            "offset": 0,
            "slot": "3",
            "type": "t_uint112"
          },
          {
            "astId": 9171,
            "contract": "contracts/comptroller/Comptroller.sol:Comptroller",
            "label": "periodCount",
            "offset": 14,
            "slot": "3",
            "type": "t_uint32"
          }
        ],
        "numberOfBytes": "128"
      },
      "t_struct(State)9666_storage": {
        "encoding": "inplace",
        "label": "struct VolumeDripManager.State",
        "members": [
          {
            "astId": 9659,
            "contract": "contracts/comptroller/Comptroller.sol:Comptroller",
            "label": "activeVolumeDrips",
            "offset": 0,
            "slot": "0",
            "type": "t_mapping(t_address,t_struct(Mapping)19559_storage)"
          },
          {
            "astId": 9665,
            "contract": "contracts/comptroller/Comptroller.sol:Comptroller",
            "label": "volumeDrips",
            "offset": 0,
            "slot": "1",
            "type": "t_mapping(t_address,t_mapping(t_address,t_struct(State)9172_storage))"
          }
        ],
        "numberOfBytes": "64"
      },
      "t_struct(UserState)8579_storage": {
        "encoding": "inplace",
        "label": "struct BalanceDrip.UserState",
        "members": [
          {
            "astId": 8578,
            "contract": "contracts/comptroller/Comptroller.sol:Comptroller",
            "label": "lastExchangeRateMantissa",
            "offset": 0,
            "slot": "0",
            "type": "t_uint128"
          }
        ],
        "numberOfBytes": "32"
      },
      "t_uint112": {
        "encoding": "inplace",
        "label": "uint112",
        "numberOfBytes": "14"
      },
      "t_uint128": {
        "encoding": "inplace",
        "label": "uint128",
        "numberOfBytes": "16"
      },
      "t_uint256": {
        "encoding": "inplace",
        "label": "uint256",
        "numberOfBytes": "32"
      },
      "t_uint32": {
        "encoding": "inplace",
        "label": "uint32",
        "numberOfBytes": "4"
      }
    }
  },
  "gasEstimates": {
    "creation": {
      "codeDepositCost": "3347600",
      "executionCost": "infinite",
      "totalCost": "infinite"
    },
    "external": {
      "activateBalanceDrip(address,address,address,uint256)": "infinite",
      "activateVolumeDrip(address,address,address,bool,uint32,uint112,uint32)": "infinite",
      "balanceOfDrip(address,address)": "infinite",
      "beforeTokenMint(address,uint256,address,address)": "infinite",
      "beforeTokenTransfer(address,address,uint256,address)": "infinite",
      "claimDrip(address,address,uint256)": "infinite",
      "deactivateBalanceDrip(address,address,address,address)": "infinite",
      "deactivateVolumeDrip(address,address,address,bool,address)": "infinite",
      "getActiveBalanceDripTokens(address,address)": "infinite",
      "getActiveVolumeDripTokens(address,address,bool)": "infinite",
      "getBalanceDrip(address,address,address)": "infinite",
      "getVolumeDrip(address,address,address,bool)": "infinite",
      "getVolumeDripPeriod(address,address,address,bool,uint16)": "infinite",
      "isVolumeDripActive(address,address,address,bool)": "infinite",
      "owner()": "1115",
      "renounceOwnership()": "24312",
      "setBalanceDripRate(address,address,address,uint256)": "infinite",
      "setVolumeDrip(address,address,address,bool,uint32,uint112)": "infinite",
      "transferOwnership(address)": "infinite",
      "updateAndClaimDrips((address,address)[],address,address[])": "infinite",
      "updateDrips((address,address)[],address,address[])": "infinite"
    },
    "internal": {
      "_addDripBalance(address,address,uint256)": "infinite",
      "_currentTime()": "14",
      "_deactivateBalanceDrip(address,address,address,address)": "infinite",
      "_deactivateVolumeDrip(address,address,address,bool,address)": "infinite",
      "_depositVolumeDrip(struct VolumeDripManager.State storage pointer,address,address,address,uint256,bool)": "infinite",
      "_updateBalanceDripToken(struct BalanceDripManager.State storage pointer,address,address,address,address,uint256,uint256,uint256)": "infinite",
      "_updateBalanceDrips(struct BalanceDripManager.State storage pointer,address,address,address,uint256,uint256,uint256)": "infinite",
      "_updateVolumeDripToken(struct VolumeDripManager.State storage pointer,address,address,address,address,uint256,uint256,bool)": "infinite"
    }
  }
}