{
  "abi": [
    {
      "inputs": [
        {
          "internalType": "contract ComptrollerInterface",
          "name": "_comptroller",
          "type": "address"
        },
        {
          "internalType": "contract PrizeStrategyProxyFactory",
          "name": "_prizeStrategyProxyFactory",
          "type": "address"
        },
        {
          "internalType": "address",
          "name": "_trustedForwarder",
          "type": "address"
        },
        {
          "internalType": "contract CompoundPrizePoolProxyFactory",
          "name": "_compoundPrizePoolProxyFactory",
          "type": "address"
        },
        {
          "internalType": "contract ControlledTokenProxyFactory",
          "name": "_controlledTokenProxyFactory",
          "type": "address"
        },
        {
          "internalType": "contract OpenZeppelinProxyFactoryInterface",
          "name": "_proxyFactory",
          "type": "address"
        },
        {
          "internalType": "contract TicketProxyFactory",
          "name": "_ticketProxyFactory",
          "type": "address"
        }
      ],
      "stateMutability": "nonpayable",
      "type": "constructor"
    },
    {
      "anonymous": false,
      "inputs": [
        {
          "indexed": true,
          "internalType": "address",
          "name": "creator",
          "type": "address"
        },
        {
          "indexed": true,
          "internalType": "address",
          "name": "prizePool",
          "type": "address"
        },
        {
          "indexed": true,
          "internalType": "address",
          "name": "prizeStrategy",
          "type": "address"
        }
      ],
      "name": "CompoundPrizePoolCreated",
      "type": "event"
    },
    {
      "inputs": [],
      "name": "compoundPrizePoolProxyFactory",
      "outputs": [
        {
          "internalType": "contract CompoundPrizePoolProxyFactory",
          "name": "",
          "type": "address"
        }
      ],
      "stateMutability": "view",
      "type": "function"
    },
    {
      "inputs": [],
      "name": "comptroller",
      "outputs": [
        {
          "internalType": "contract ComptrollerInterface",
          "name": "",
          "type": "address"
        }
      ],
      "stateMutability": "view",
      "type": "function"
    },
    {
      "inputs": [],
      "name": "controlledTokenProxyFactory",
      "outputs": [
        {
          "internalType": "contract ControlledTokenProxyFactory",
          "name": "",
          "type": "address"
        }
      ],
      "stateMutability": "view",
      "type": "function"
    },
    {
      "inputs": [
        {
          "components": [
            {
              "internalType": "address",
              "name": "proxyAdmin",
              "type": "address"
            },
            {
              "internalType": "contract CTokenInterface",
              "name": "cToken",
              "type": "address"
            },
            {
              "internalType": "contract RNGInterface",
              "name": "rngService",
              "type": "address"
            },
            {
              "internalType": "uint256",
              "name": "prizePeriodStart",
              "type": "uint256"
            },
            {
              "internalType": "uint256",
              "name": "prizePeriodSeconds",
              "type": "uint256"
            },
            {
              "internalType": "string",
              "name": "ticketName",
              "type": "string"
            },
            {
              "internalType": "string",
              "name": "ticketSymbol",
              "type": "string"
            },
            {
              "internalType": "string",
              "name": "sponsorshipName",
              "type": "string"
            },
            {
              "internalType": "string",
              "name": "sponsorshipSymbol",
              "type": "string"
            },
            {
              "internalType": "uint256",
              "name": "maxExitFeeMantissa",
              "type": "uint256"
            },
            {
              "internalType": "uint256",
              "name": "maxTimelockDuration",
              "type": "uint256"
            },
            {
              "internalType": "uint256",
              "name": "exitFeeMantissa",
              "type": "uint256"
            },
            {
              "internalType": "uint256",
              "name": "creditRateMantissa",
              "type": "uint256"
            },
            {
              "internalType": "address[]",
              "name": "externalERC20Awards",
              "type": "address[]"
            }
          ],
          "internalType": "struct CompoundPrizePoolBuilder.Config",
          "name": "config",
          "type": "tuple"
        }
      ],
      "name": "create",
      "outputs": [
        {
          "internalType": "contract PrizeStrategy",
          "name": "",
          "type": "address"
        }
      ],
      "stateMutability": "nonpayable",
      "type": "function"
    },
    {
      "inputs": [],
      "name": "prizeStrategyProxyFactory",
      "outputs": [
        {
          "internalType": "contract PrizeStrategyProxyFactory",
          "name": "",
          "type": "address"
        }
      ],
      "stateMutability": "view",
      "type": "function"
    },
    {
      "inputs": [],
      "name": "proxyFactory",
      "outputs": [
        {
          "internalType": "contract OpenZeppelinProxyFactoryInterface",
          "name": "",
          "type": "address"
        }
      ],
      "stateMutability": "view",
      "type": "function"
    },
    {
      "inputs": [],
      "name": "ticketProxyFactory",
      "outputs": [
        {
          "internalType": "contract TicketProxyFactory",
          "name": "",
          "type": "address"
        }
      ],
      "stateMutability": "view",
      "type": "function"
    },
    {
      "inputs": [],
      "name": "trustedForwarder",
      "outputs": [
        {
          "internalType": "address",
          "name": "",
          "type": "address"
        }
      ],
      "stateMutability": "view",
      "type": "function"
    }
  ],
  "address": "0xa22E273bD13c56e9E0df52101820e6D236F97268",
  "args": [
    "0x0fC910bEC023706DC67b5Ef5BaC3f5A082f3E790",
    "0x8fed8ad17481076E4B44896Ae42A06e7939D8F5C",
    "0xd6cC1FEAB6E1DbDc3c0a6F2798c8089c72F78E64",
    "0x4FAC6E5dAe8827Dc1835Aa66585aC4053f807b4B",
    "0x2E635c389c7d7b8f06474C63D719569B0Ff81658",
    "0x41Ae1002228Cb8FbC483E88dBf08dbE1e5924D57",
    "0x34AD03210cB39Bbd082E4B85390A0f71C370Fd52"
  ],
  "solcInputHash": "0x3dd93a755595e4c9823a506f3ade8b426923e03b6d19db76dba8a7d6a33bf9d4",
  "bytecode": "0x60806040523480156200001157600080fd5b5060405162001299380380620012998339810160408190526200003491620001b3565b6001600160a01b038716620000665760405162461bcd60e51b81526004016200005d90620003c3565b60405180910390fd5b6001600160a01b0386166200008f5760405162461bcd60e51b81526004016200005d906200025d565b6001600160a01b038416620000b85760405162461bcd60e51b81526004016200005d9062000309565b6001600160a01b038316620000e15760405162461bcd60e51b81526004016200005d9062000410565b6001600160a01b0382166200010a5760405162461bcd60e51b81526004016200005d90620002ba565b6001600160a01b038116620001335760405162461bcd60e51b81526004016200005d9062000366565b600580546001600160a01b03199081166001600160a01b03948516179091556003805482169284169290921790915560008054821697831697909717909655600480548716958216959095179094556006805486169385169390931790925560018054851691841691909117905560028054909316911617905562000487565b600080600080600080600060e0888a031215620001ce578283fd5b8751620001db816200046e565b6020890151909750620001ee816200046e565b604089015190965062000201816200046e565b606089015190955062000214816200046e565b608089015190945062000227816200046e565b60a08901519093506200023a816200046e565b60c08901519092506200024d816200046e565b8091505092959891949750929550565b60208082526038908201527f436f6d706f756e645072697a65506f6f6c4275696c6465722f7072697a652d7360408201527f747261746567792d666163746f72792d6e6f742d7a65726f0000000000000000606082015260800190565b6020808252602f908201527f436f6d706f756e645072697a65506f6f6c4275696c6465722f70726f78792d6660408201526e6163746f72792d6e6f742d7a65726f60881b606082015260800190565b6020808252603d908201527f436f6d706f756e645072697a65506f6f6c4275696c6465722f636f6d706f756e60408201527f642d7072697a652d706f6f6c2d6275696c6465722d6e6f742d7a65726f000000606082015260800190565b60208082526036908201527f436f6d706f756e645072697a65506f6f6c4275696c6465722f7469636b65742d60408201527f70726f78792d666163746f72792d6e6f742d7a65726f00000000000000000000606082015260800190565b6020808252602d908201527f436f6d706f756e645072697a65506f6f6c4275696c6465722f636f6d7074726f60408201526c6c6c65722d6e6f742d7a65726f60981b606082015260800190565b602080825260409082018190527f436f6d706f756e645072697a65506f6f6c4275696c6465722f636f6e74726f6c908201527f6c65642d746f6b656e2d70726f78792d666163746f72792d6e6f742d7a65726f606082015260800190565b6001600160a01b03811681146200048457600080fd5b50565b610e0280620004976000396000f3fe608060405234801561001057600080fd5b50600436106100885760003560e01c80637da0a8771161005b5780637da0a877146100ce578063802125f5146100d6578063aa3b296c146100de578063c10f1a75146100e657610088565b80630b6151611461008d5780635fe3b567146100b65780636a81d8bd146100be57806375b81dc1146100c6575b600080fd5b6100a061009b366004610a55565b6100ee565b6040516100ad9190610aef565b60405180910390f35b6100a0610790565b6100a061079f565b6100a06107ae565b6100a06107bd565b6100a06107cc565b6100a06107db565b6100a06107ea565b600080806100ff6020850185610a16565b6001600160a01b03161461021957600554600480546040805163022ec09560e01b815290516001600160a01b0394851694636150864c9442949091169263022ec0959281830192602092829003018186803b15801561015d57600080fd5b505afa158015610171573d6000803e3d6000fd5b505050506040513d601f19601f820116820180604052508101906101959190610a39565b6101a26020880188610a16565b6040518463ffffffff1660e01b81526004016101c093929190610ced565b602060405180830381600087803b1580156101da57600080fd5b505af11580156101ee573d6000803e3d6000fd5b505050506040513d601f19601f820116820180604052508101906102129190610a39565b9050610298565b6004805460408051633bf206a360e21b815290516001600160a01b039092169263efc81a8c9282820192602092908290030181600087803b15801561025d57600080fd5b505af1158015610271573d6000803e3d6000fd5b505050506040513d601f19601f820116820180604052508101906102959190610a39565b90505b60015460408051633bf206a360e21b815290516000926001600160a01b03169163efc81a8c91600480830192602092919082900301818787803b1580156102de57600080fd5b505af11580156102f2573d6000803e3d6000fd5b505050506040513d601f19601f820116820180604052508101906103169190610a39565b9050606061042c8261032b60a0880188610d6d565b8080601f01602080910402602001604051908101604052809392919081815260200183838082843760009201919091525061036d9250505060c0890189610d6d565b8080601f0160208091040260200160405190810160405280939291908181526020018383808284376000920191909152506103af9250505060e08a018a610d6d565b8080601f0160208091040260200160405190810160405280939291908181526020018383808284376000920191909152506103f2925050506101008b018b610d6d565b8080601f0160208091040260200160405190810160405280939291908181526020018383808284376000920191909152506107f992505050565b6006546000549192506001600160a01b03808516926396c1c12d92821691879116856101208b01356101408c013561046a60408e0160208f01610a16565b6040518863ffffffff1660e01b815260040161048c9796959493929190610b03565b600060405180830381600087803b1580156104a657600080fd5b505af11580156104ba573d6000803e3d6000fd5b50505050816001600160a01b031663f37200de826000815181106104da57fe5b60200260200101516104f0886101800135610890565b6104fe896101600135610890565b6040518463ffffffff1660e01b815260040161051c93929190610b95565b600060405180830381600087803b15801561053657600080fd5b505af115801561054a573d6000803e3d6000fd5b50505050816001600160a01b0316633e4bdf7b8260018151811061056a57fe5b60200260200101516040518263ffffffff1660e01b815260040161058e9190610aef565b600060405180830381600087803b1580156105a857600080fd5b505af11580156105bc573d6000803e3d6000fd5b505060405163f2fde38b60e01b81526001600160a01b038516925063f2fde38b91506105ec903390600401610aef565b600060405180830381600087803b15801561060657600080fd5b505af115801561061a573d6000803e3d6000fd5b50505050826001600160a01b03166388e1489c600660009054906101000a90046001600160a01b031687606001358860800135868660008151811061065b57fe5b60200260200101518760018151811061067057fe5b60200260200101518c604001602081019061068b9190610a16565b6106996101a08f018f610d1b565b6040518a63ffffffff1660e01b81526004016106bd99989796959493929190610bc8565b600060405180830381600087803b1580156106d757600080fd5b505af11580156106eb573d6000803e3d6000fd5b505060405163f2fde38b60e01b81526001600160a01b038616925063f2fde38b915061071b903390600401610aef565b600060405180830381600087803b15801561073557600080fd5b505af1158015610749573d6000803e3d6000fd5b50506040516001600160a01b0380871693508516915033907f737c46586c5966bdf5ba716d982ae751f84213774e836279195a754fdb8abf1690600090a450909392505050565b6000546001600160a01b031681565b6002546001600160a01b031681565b6004546001600160a01b031681565b6006546001600160a01b031681565b6001546001600160a01b031681565b6003546001600160a01b031681565b6005546001600160a01b031681565b6040805160028082526060808301845292839291906020830190803683370190505090506108288787876108c2565b8160008151811061083557fe5b60200260200101906001600160a01b031690816001600160a01b0316815250506108608785856109c3565b8160018151811061086d57fe5b6001600160a01b0390921660209283029190910190910152905095945050505050565b6000600160801b82106108be5760405162461bcd60e51b81526004016108b590610ca6565b60405180910390fd5b5090565b600080600360009054906101000a90046001600160a01b03166001600160a01b031663efc81a8c6040518163ffffffff1660e01b8152600401602060405180830381600087803b15801561091557600080fd5b505af1158015610929573d6000803e3d6000fd5b505050506040513d601f19601f8201168201806040525081019061094d9190610a39565b6006546040516323c56d0560e21b81529192506001600160a01b0380841692638f15b414926109889289928992909116908b90600401610c5c565b600060405180830381600087803b1580156109a257600080fd5b505af11580156109b6573d6000803e3d6000fd5b5092979650505050505050565b600080600260009054906101000a90046001600160a01b03166001600160a01b031663efc81a8c6040518163ffffffff1660e01b8152600401602060405180830381600087803b15801561091557600080fd5b600060208284031215610a27578081fd5b8135610a3281610db4565b9392505050565b600060208284031215610a4a578081fd5b8151610a3281610db4565b600060208284031215610a66578081fd5b813567ffffffffffffffff811115610a7c578182fd5b8083016101c08186031215610a8f578283fd5b949350505050565b6001600160a01b03169052565b60008151808452815b81811015610ac957602081850181015186830182015201610aad565b81811115610ada5782602083870101525b50601f01601f19169290920160200192915050565b6001600160a01b0391909116815260200190565b6001600160a01b038881168252878116602080840191909152908716604083015260e06060830181905286519083018190526000918781019161010085019190845b81811015610b6857610b58848651610a97565b9382019392820192600101610b45565b50505080925050508460808301528360a0830152610b8960c0830184610a97565b98975050505050505050565b6001600160a01b039390931683526fffffffffffffffffffffffffffffffff918216602084015216604082015260600190565b6001600160a01b038a8116825260208083018b9052604083018a90528882166060840152878216608084015286821660a084015285821660c084015261010060e084018190528301849052600091610120840191869190845b87811015610c48578335610c3481610db4565b831685529381019392810192600101610c21565b50929e9d5050505050505050505050505050565b600060808252610c6f6080830187610aa4565b8281036020840152610c818187610aa4565b6001600160a01b03958616604085015293909416606090920191909152509392505050565b60208082526027908201527f53616665436173743a2076616c756520646f65736e27742066697420696e20316040820152663238206269747360c81b606082015260800190565b9283526001600160a01b03918216602084015216604082015260806060820181905260009082015260a00190565b6000808335601e19843603018112610d31578283fd5b8084018035925067ffffffffffffffff831115610d4c578384fd5b6020810193505050602081023603821315610d6657600080fd5b9250929050565b6000808335601e19843603018112610d83578283fd5b8084018035925067ffffffffffffffff831115610d9e578384fd5b60200192505036819003821315610d6657600080fd5b6001600160a01b0381168114610dc957600080fd5b5056fea264697066735822122065e3b62acffe59c329b3daae2bafa8d470b0c8cd74e6db579280b973d414040c64736f6c63430006040033",
  "devdoc": {
    "methods": {}
  },
  "userdoc": {
    "methods": {}
  },
  "storageLayout": {
    "storage": [
      {
        "astId": 13527,
        "contract": "contracts/builders/CompoundPrizePoolBuilder.sol:CompoundPrizePoolBuilder",
        "label": "comptroller",
        "offset": 0,
        "slot": "0",
        "type": "t_contract(ComptrollerInterface)15398"
      },
      {
        "astId": 13529,
        "contract": "contracts/builders/CompoundPrizePoolBuilder.sol:CompoundPrizePoolBuilder",
        "label": "compoundPrizePoolProxyFactory",
        "offset": 0,
        "slot": "1",
        "type": "t_contract(CompoundPrizePoolProxyFactory)19451"
      },
      {
        "astId": 13531,
        "contract": "contracts/builders/CompoundPrizePoolBuilder.sol:CompoundPrizePoolBuilder",
        "label": "controlledTokenProxyFactory",
        "offset": 0,
        "slot": "2",
        "type": "t_contract(ControlledTokenProxyFactory)22610"
      },
      {
        "astId": 13533,
        "contract": "contracts/builders/CompoundPrizePoolBuilder.sol:CompoundPrizePoolBuilder",
        "label": "ticketProxyFactory",
        "offset": 0,
        "slot": "3",
        "type": "t_contract(TicketProxyFactory)22874"
      },
      {
        "astId": 13535,
        "contract": "contracts/builders/CompoundPrizePoolBuilder.sol:CompoundPrizePoolBuilder",
        "label": "prizeStrategyProxyFactory",
        "offset": 0,
        "slot": "4",
        "type": "t_contract(PrizeStrategyProxyFactory)20614"
      },
      {
        "astId": 13537,
        "contract": "contracts/builders/CompoundPrizePoolBuilder.sol:CompoundPrizePoolBuilder",
        "label": "proxyFactory",
        "offset": 0,
        "slot": "5",
        "type": "t_contract(OpenZeppelinProxyFactoryInterface)16935"
      },
      {
        "astId": 13539,
        "contract": "contracts/builders/CompoundPrizePoolBuilder.sol:CompoundPrizePoolBuilder",
        "label": "trustedForwarder",
        "offset": 0,
        "slot": "6",
        "type": "t_address"
      }
    ],
    "types": {
      "t_address": {
        "encoding": "inplace",
        "label": "address",
        "numberOfBytes": "20"
      },
      "t_contract(CompoundPrizePoolProxyFactory)19451": {
        "encoding": "inplace",
        "label": "contract CompoundPrizePoolProxyFactory",
        "numberOfBytes": "20"
      },
      "t_contract(ComptrollerInterface)15398": {
        "encoding": "inplace",
        "label": "contract ComptrollerInterface",
        "numberOfBytes": "20"
      },
      "t_contract(ControlledTokenProxyFactory)22610": {
        "encoding": "inplace",
        "label": "contract ControlledTokenProxyFactory",
        "numberOfBytes": "20"
      },
      "t_contract(OpenZeppelinProxyFactoryInterface)16935": {
        "encoding": "inplace",
        "label": "contract OpenZeppelinProxyFactoryInterface",
        "numberOfBytes": "20"
      },
      "t_contract(PrizeStrategyProxyFactory)20614": {
        "encoding": "inplace",
        "label": "contract PrizeStrategyProxyFactory",
        "numberOfBytes": "20"
      },
      "t_contract(TicketProxyFactory)22874": {
        "encoding": "inplace",
        "label": "contract TicketProxyFactory",
        "numberOfBytes": "20"
      }
    }
  },
  "gasEstimates": {
    "creation": {
      "codeDepositCost": "717200",
      "executionCost": "infinite",
      "totalCost": "infinite"
    },
    "external": {
      "compoundPrizePoolProxyFactory()": "1092",
      "comptroller()": "1093",
      "controlledTokenProxyFactory()": "1115",
      "create((address,address,address,uint256,uint256,string,string,string,string,uint256,uint256,uint256,uint256,address[]))": "infinite",
      "prizeStrategyProxyFactory()": "1137",
      "proxyFactory()": "1136",
      "ticketProxyFactory()": "1114",
      "trustedForwarder()": "1070"
    },
    "internal": {
      "createControlledToken(contract TokenControllerInterface,string memory,string memory)": "infinite",
      "createTicket(contract TokenControllerInterface,string memory,string memory)": "infinite",
      "createTokens(contract PrizePool,string memory,string memory,string memory,string memory)": "infinite"
    }
  }
}