{
  "abi": [
    {
      "inputs": [
        {
          "internalType": "contract RegistryInterface",
          "name": "_reserveRegistry",
          "type": "address"
        },
        {
          "internalType": "address",
          "name": "_trustedForwarder",
          "type": "address"
        },
        {
          "internalType": "contract CompoundPrizePoolProxyFactory",
          "name": "_compoundPrizePoolProxyFactory",
          "type": "address"
        }
      ],
      "stateMutability": "nonpayable",
      "type": "constructor"
    },
    {
      "anonymous": false,
      "inputs": [
        {
          "indexed": true,
          "internalType": "address",
          "name": "creator",
          "type": "address"
        },
        {
          "indexed": true,
          "internalType": "address",
          "name": "prizePool",
          "type": "address"
        }
      ],
      "name": "PrizePoolCreated",
      "type": "event"
    },
    {
      "inputs": [],
      "name": "compoundPrizePoolProxyFactory",
      "outputs": [
        {
          "internalType": "contract CompoundPrizePoolProxyFactory",
          "name": "",
          "type": "address"
        }
      ],
      "stateMutability": "view",
      "type": "function"
    },
    {
      "inputs": [
        {
          "components": [
            {
              "internalType": "contract CTokenInterface",
              "name": "cToken",
              "type": "address"
            },
            {
              "internalType": "uint256",
              "name": "maxExitFeeMantissa",
              "type": "uint256"
            },
            {
              "internalType": "uint256",
              "name": "maxTimelockDuration",
              "type": "uint256"
            },
            {
              "internalType": "bool",
              "name": "useGSN",
              "type": "bool"
            }
          ],
          "internalType": "struct CompoundPrizePoolBuilder.CompoundPrizePoolConfig",
          "name": "config",
          "type": "tuple"
        }
      ],
      "name": "createCompoundPrizePool",
      "outputs": [
        {
          "internalType": "contract CompoundPrizePool",
          "name": "",
          "type": "address"
        }
      ],
      "stateMutability": "nonpayable",
      "type": "function"
    },
    {
      "inputs": [],
      "name": "reserveRegistry",
      "outputs": [
        {
          "internalType": "contract RegistryInterface",
          "name": "",
          "type": "address"
        }
      ],
      "stateMutability": "view",
      "type": "function"
    },
    {
      "inputs": [],
      "name": "trustedForwarder",
      "outputs": [
        {
          "internalType": "address",
          "name": "",
          "type": "address"
        }
      ],
      "stateMutability": "view",
      "type": "function"
    }
  ],
  "address": "0xb671bA3B1e3dD0ac7F8070D278F21dA88Ce22dA7",
  "args": [
    "0x4c59CC99Bad823a03682A22e2eCC72CD79cd1213",
    "0x956868751Cc565507B3B58E53a6f9f41B56bed74",
    "0x4cb2F953f85b3Ffdc97269F5Cef6a4FcC0CA4d73"
  ],
  "solcInputHash": "0xd7cd31f30aa30a6e349c3d93933b7744d0e3a59879a749ab42a3f83eb979d1b0",
  "bytecode": "0x608060405234801561001057600080fd5b506040516105cc3803806105cc83398101604081905261002f916100c6565b6001600160a01b03831661005e5760405162461bcd60e51b81526004016100559061016f565b60405180910390fd5b6001600160a01b0381166100845760405162461bcd60e51b815260040161005590610112565b600080546001600160a01b039485166001600160a01b0319918216179091556002805493851693821693909317909255600180549190931691161790556101d8565b6000806000606084860312156100da578283fd5b83516100e5816101c0565b60208501519093506100f6816101c0565b6040850151909250610107816101c0565b809150509250925092565b6020808252603d908201527f436f6d706f756e645072697a65506f6f6c4275696c6465722f636f6d706f756e60408201527f642d7072697a652d706f6f6c2d6275696c6465722d6e6f742d7a65726f000000606082015260800190565b60208082526031908201527f436f6d706f756e645072697a65506f6f6c4275696c6465722f7265736572766560408201527052656769737472792d6e6f742d7a65726f60781b606082015260800190565b6001600160a01b03811681146101d557600080fd5b50565b6103e5806101e76000396000f3fe608060405234801561001057600080fd5b506004361061004c5760003560e01c80637da0a87714610051578063802125f51461006f578063847a93bf146100775780638e71c1f61461008a575b600080fd5b610059610092565b604051610066919061030c565b60405180910390f35b6100596100a1565b6100596100853660046102f5565b6100b0565b610059610287565b6002546001600160a01b031681565b6001546001600160a01b031681565b600080600160009054906101000a90046001600160a01b03166001600160a01b031663efc81a8c6040518163ffffffff1660e01b8152600401602060405180830381600087803b15801561010357600080fd5b505af1158015610117573d6000803e3d6000fd5b505050506040513d601f19601f8201168201806040525081019061013b91906102d9565b905060606001600160a01b03821663986b6aaf61015d60808701878501610296565b610168576000610175565b6002546001600160a01b03165b6000546001600160a01b0316846020890180359060408b013590610199908c6102bd565b6040518763ffffffff1660e01b81526004016101ba96959493929190610320565b600060405180830381600087803b1580156101d457600080fd5b505af11580156101e8573d6000803e3d6000fd5b505060405163f2fde38b60e01b81526001600160a01b038516925063f2fde38b915061021890339060040161030c565b600060405180830381600087803b15801561023257600080fd5b505af1158015610246573d6000803e3d6000fd5b50506040516001600160a01b03851692503391507f0b951d5080d5d1ed87b8d27a54d3cf0019c5b2ca9912347c630a1f09e14b185f90600090a35092915050565b6000546001600160a01b031681565b6000602082840312156102a7578081fd5b813580151581146102b6578182fd5b9392505050565b6000602082840312156102ce578081fd5b81356102b681610397565b6000602082840312156102ea578081fd5b81516102b681610397565b600060808284031215610306578081fd5b50919050565b6001600160a01b0391909116815260200190565b600060c0820160018060a01b03808a1684526020818a168186015260c0604086015282895180855260e087019150828b019450855b81811015610373578551851683529483019491830191600101610355565b505060608601989098525060808401959095525050911660a0909101529392505050565b6001600160a01b03811681146103ac57600080fd5b5056fea2646970667358221220fec00218f1bd87edd10c1cd312de42a1074adb3408445cabd24e1e7e1866fe1864736f6c634300060c0033",
  "devdoc": {
    "kind": "dev",
    "methods": {
      "createCompoundPrizePool((address,uint256,uint256,bool))": {
        "params": {
          "config": "The config to use to initialize the Compound Prize Pool"
        },
        "returns": {
          "_0": "The Compound Prize Pool"
        }
      }
    },
    "title": "Creates new Compound Prize Pools",
    "version": 1
  },
  "userdoc": {
    "kind": "user",
    "methods": {
      "createCompoundPrizePool((address,uint256,uint256,bool))": {
        "notice": "Creates a new Compound Prize Pool with a preconfigured prize strategy."
      }
    },
    "version": 1
  },
  "storageLayout": {
    "storage": [
      {
        "astId": 13398,
        "contract": "contracts/builders/CompoundPrizePoolBuilder.sol:CompoundPrizePoolBuilder",
        "label": "reserveRegistry",
        "offset": 0,
        "slot": "0",
        "type": "t_contract(RegistryInterface)24570"
      },
      {
        "astId": 13400,
        "contract": "contracts/builders/CompoundPrizePoolBuilder.sol:CompoundPrizePoolBuilder",
        "label": "compoundPrizePoolProxyFactory",
        "offset": 0,
        "slot": "1",
        "type": "t_contract(CompoundPrizePoolProxyFactory)21689"
      },
      {
        "astId": 13402,
        "contract": "contracts/builders/CompoundPrizePoolBuilder.sol:CompoundPrizePoolBuilder",
        "label": "trustedForwarder",
        "offset": 0,
        "slot": "2",
        "type": "t_address"
      }
    ],
    "types": {
      "t_address": {
        "encoding": "inplace",
        "label": "address",
        "numberOfBytes": "20"
      },
      "t_contract(CompoundPrizePoolProxyFactory)21689": {
        "encoding": "inplace",
        "label": "contract CompoundPrizePoolProxyFactory",
        "numberOfBytes": "20"
      },
      "t_contract(RegistryInterface)24570": {
        "encoding": "inplace",
        "label": "contract RegistryInterface",
        "numberOfBytes": "20"
      }
    }
  },
  "gasEstimates": {
    "creation": {
      "codeDepositCost": "199400",
      "executionCost": "infinite",
      "totalCost": "infinite"
    },
    "external": {
      "compoundPrizePoolProxyFactory()": "1070",
      "createCompoundPrizePool((address,uint256,uint256,bool))": "infinite",
      "reserveRegistry()": "1114",
      "trustedForwarder()": "1048"
    }
  }
}