{
  "abi": [
    {
      "anonymous": false,
      "inputs": [
        {
          "indexed": true,
          "internalType": "address",
          "name": "source",
          "type": "address"
        },
        {
          "indexed": true,
          "internalType": "address",
          "name": "measure",
          "type": "address"
        },
        {
          "indexed": true,
          "internalType": "address",
          "name": "dripToken",
          "type": "address"
        },
        {
          "indexed": false,
          "internalType": "uint256",
          "name": "dripRatePerSecond",
          "type": "uint256"
        }
      ],
      "name": "BalanceDripActivated",
      "type": "event"
    },
    {
      "anonymous": false,
      "inputs": [
        {
          "indexed": true,
          "internalType": "address",
          "name": "source",
          "type": "address"
        },
        {
          "indexed": true,
          "internalType": "address",
          "name": "measure",
          "type": "address"
        },
        {
          "indexed": true,
          "internalType": "address",
          "name": "dripToken",
          "type": "address"
        }
      ],
      "name": "BalanceDripDeactivated",
      "type": "event"
    },
    {
      "anonymous": false,
      "inputs": [
        {
          "indexed": true,
          "internalType": "address",
          "name": "source",
          "type": "address"
        },
        {
          "indexed": true,
          "internalType": "address",
          "name": "measure",
          "type": "address"
        },
        {
          "indexed": true,
          "internalType": "address",
          "name": "dripToken",
          "type": "address"
        },
        {
          "indexed": false,
          "internalType": "address",
          "name": "user",
          "type": "address"
        },
        {
          "indexed": false,
          "internalType": "uint256",
          "name": "userExchangeRate",
          "type": "uint256"
        }
      ],
      "name": "BalanceDripDripped",
      "type": "event"
    },
    {
      "anonymous": false,
      "inputs": [
        {
          "indexed": true,
          "internalType": "address",
          "name": "source",
          "type": "address"
        },
        {
          "indexed": true,
          "internalType": "address",
          "name": "measure",
          "type": "address"
        },
        {
          "indexed": true,
          "internalType": "address",
          "name": "dripToken",
          "type": "address"
        },
        {
          "indexed": false,
          "internalType": "uint256",
          "name": "dripRatePerSecond",
          "type": "uint256"
        }
      ],
      "name": "BalanceDripRateSet",
      "type": "event"
    },
    {
      "anonymous": false,
      "inputs": [
        {
          "indexed": true,
          "internalType": "address",
          "name": "operator",
          "type": "address"
        },
        {
          "indexed": true,
          "internalType": "address",
          "name": "dripToken",
          "type": "address"
        },
        {
          "indexed": true,
          "internalType": "address",
          "name": "user",
          "type": "address"
        },
        {
          "indexed": false,
          "internalType": "uint256",
          "name": "amount",
          "type": "uint256"
        }
      ],
      "name": "DripTokenClaimed",
      "type": "event"
    },
    {
      "anonymous": false,
      "inputs": [
        {
          "indexed": true,
          "internalType": "address",
          "name": "dripToken",
          "type": "address"
        },
        {
          "indexed": true,
          "internalType": "address",
          "name": "user",
          "type": "address"
        },
        {
          "indexed": false,
          "internalType": "uint256",
          "name": "amount",
          "type": "uint256"
        }
      ],
      "name": "DripTokenDripped",
      "type": "event"
    },
    {
      "anonymous": false,
      "inputs": [
        {
          "indexed": true,
          "internalType": "address",
          "name": "previousOwner",
          "type": "address"
        },
        {
          "indexed": true,
          "internalType": "address",
          "name": "newOwner",
          "type": "address"
        }
      ],
      "name": "OwnershipTransferred",
      "type": "event"
    },
    {
      "anonymous": false,
      "inputs": [
        {
          "indexed": false,
          "internalType": "uint256",
          "name": "reserveRateMantissa",
          "type": "uint256"
        }
      ],
      "name": "ReserveRateMantissaSet",
      "type": "event"
    },
    {
      "anonymous": false,
      "inputs": [
        {
          "indexed": true,
          "internalType": "address",
          "name": "source",
          "type": "address"
        },
        {
          "indexed": true,
          "internalType": "address",
          "name": "measure",
          "type": "address"
        },
        {
          "indexed": true,
          "internalType": "address",
          "name": "dripToken",
          "type": "address"
        },
        {
          "indexed": false,
          "internalType": "bool",
          "name": "isReferral",
          "type": "bool"
        },
        {
          "indexed": false,
          "internalType": "uint256",
          "name": "periodSeconds",
          "type": "uint256"
        },
        {
          "indexed": false,
          "internalType": "uint256",
          "name": "dripAmount",
          "type": "uint256"
        }
      ],
      "name": "VolumeDripActivated",
      "type": "event"
    },
    {
      "anonymous": false,
      "inputs": [
        {
          "indexed": true,
          "internalType": "address",
          "name": "source",
          "type": "address"
        },
        {
          "indexed": true,
          "internalType": "address",
          "name": "measure",
          "type": "address"
        },
        {
          "indexed": true,
          "internalType": "address",
          "name": "dripToken",
          "type": "address"
        },
        {
          "indexed": false,
          "internalType": "bool",
          "name": "isReferral",
          "type": "bool"
        }
      ],
      "name": "VolumeDripDeactivated",
      "type": "event"
    },
    {
      "anonymous": false,
      "inputs": [
        {
          "indexed": true,
          "internalType": "address",
          "name": "source",
          "type": "address"
        },
        {
          "indexed": true,
          "internalType": "address",
          "name": "measure",
          "type": "address"
        },
        {
          "indexed": true,
          "internalType": "address",
          "name": "dripToken",
          "type": "address"
        },
        {
          "indexed": false,
          "internalType": "bool",
          "name": "isReferral",
          "type": "bool"
        },
        {
          "indexed": false,
          "internalType": "address",
          "name": "user",
          "type": "address"
        },
        {
          "indexed": false,
          "internalType": "uint256",
          "name": "amount",
          "type": "uint256"
        },
        {
          "indexed": false,
          "internalType": "uint256",
          "name": "balance",
          "type": "uint256"
        },
        {
          "indexed": false,
          "internalType": "uint256",
          "name": "accrued",
          "type": "uint256"
        }
      ],
      "name": "VolumeDripDeposited",
      "type": "event"
    },
    {
      "anonymous": false,
      "inputs": [
        {
          "indexed": true,
          "internalType": "address",
          "name": "source",
          "type": "address"
        },
        {
          "indexed": true,
          "internalType": "address",
          "name": "measure",
          "type": "address"
        },
        {
          "indexed": true,
          "internalType": "address",
          "name": "dripToken",
          "type": "address"
        },
        {
          "indexed": false,
          "internalType": "bool",
          "name": "isReferral",
          "type": "bool"
        },
        {
          "indexed": false,
          "internalType": "address",
          "name": "user",
          "type": "address"
        },
        {
          "indexed": false,
          "internalType": "uint256",
          "name": "amount",
          "type": "uint256"
        }
      ],
      "name": "VolumeDripDripped",
      "type": "event"
    },
    {
      "anonymous": false,
      "inputs": [
        {
          "indexed": true,
          "internalType": "address",
          "name": "source",
          "type": "address"
        },
        {
          "indexed": true,
          "internalType": "address",
          "name": "measure",
          "type": "address"
        },
        {
          "indexed": true,
          "internalType": "address",
          "name": "dripToken",
          "type": "address"
        },
        {
          "indexed": false,
          "internalType": "bool",
          "name": "isReferral",
          "type": "bool"
        },
        {
          "indexed": false,
          "internalType": "uint32",
          "name": "period",
          "type": "uint32"
        },
        {
          "indexed": false,
          "internalType": "uint256",
          "name": "totalSupply",
          "type": "uint256"
        }
      ],
      "name": "VolumeDripPeriodEnded",
      "type": "event"
    },
    {
      "anonymous": false,
      "inputs": [
        {
          "indexed": true,
          "internalType": "address",
          "name": "source",
          "type": "address"
        },
        {
          "indexed": true,
          "internalType": "address",
          "name": "measure",
          "type": "address"
        },
        {
          "indexed": true,
          "internalType": "address",
          "name": "dripToken",
          "type": "address"
        },
        {
          "indexed": false,
          "internalType": "bool",
          "name": "isReferral",
          "type": "bool"
        },
        {
          "indexed": false,
          "internalType": "uint32",
          "name": "period",
          "type": "uint32"
        },
        {
          "indexed": false,
          "internalType": "uint256",
          "name": "dripAmount",
          "type": "uint256"
        },
        {
          "indexed": false,
          "internalType": "uint256",
          "name": "endTime",
          "type": "uint256"
        }
      ],
      "name": "VolumeDripPeriodStarted",
      "type": "event"
    },
    {
      "anonymous": false,
      "inputs": [
        {
          "indexed": true,
          "internalType": "address",
          "name": "source",
          "type": "address"
        },
        {
          "indexed": true,
          "internalType": "address",
          "name": "measure",
          "type": "address"
        },
        {
          "indexed": true,
          "internalType": "address",
          "name": "dripToken",
          "type": "address"
        },
        {
          "indexed": false,
          "internalType": "bool",
          "name": "isReferral",
          "type": "bool"
        },
        {
          "indexed": false,
          "internalType": "uint256",
          "name": "periodSeconds",
          "type": "uint256"
        },
        {
          "indexed": false,
          "internalType": "uint256",
          "name": "dripAmount",
          "type": "uint256"
        }
      ],
      "name": "VolumeDripSet",
      "type": "event"
    },
    {
      "inputs": [
        {
          "internalType": "address",
          "name": "source",
          "type": "address"
        },
        {
          "internalType": "address",
          "name": "measure",
          "type": "address"
        },
        {
          "internalType": "address",
          "name": "dripToken",
          "type": "address"
        },
        {
          "internalType": "uint256",
          "name": "dripRatePerSecond",
          "type": "uint256"
        }
      ],
      "name": "activateBalanceDrip",
      "outputs": [],
      "stateMutability": "nonpayable",
      "type": "function"
    },
    {
      "inputs": [
        {
          "internalType": "address",
          "name": "source",
          "type": "address"
        },
        {
          "internalType": "address",
          "name": "measure",
          "type": "address"
        },
        {
          "internalType": "address",
          "name": "dripToken",
          "type": "address"
        },
        {
          "internalType": "bool",
          "name": "isReferral",
          "type": "bool"
        },
        {
          "internalType": "uint32",
          "name": "periodSeconds",
          "type": "uint32"
        },
        {
          "internalType": "uint112",
          "name": "dripAmount",
          "type": "uint112"
        },
        {
          "internalType": "uint32",
          "name": "endTime",
          "type": "uint32"
        }
      ],
      "name": "activateVolumeDrip",
      "outputs": [],
      "stateMutability": "nonpayable",
      "type": "function"
    },
    {
      "inputs": [
        {
          "internalType": "address",
          "name": "to",
          "type": "address"
        },
        {
          "internalType": "uint256",
          "name": "amount",
          "type": "uint256"
        },
        {
          "internalType": "uint256",
          "name": "balance",
          "type": "uint256"
        },
        {
          "internalType": "uint256",
          "name": "totalSupply",
          "type": "uint256"
        },
        {
          "internalType": "address",
          "name": "measure",
          "type": "address"
        },
        {
          "internalType": "address",
          "name": "referrer",
          "type": "address"
        }
      ],
      "name": "afterDepositTo",
      "outputs": [],
      "stateMutability": "nonpayable",
      "type": "function"
    },
    {
      "inputs": [
        {
          "internalType": "address",
          "name": "from",
          "type": "address"
        },
        {
          "internalType": "uint256",
          "name": "amount",
          "type": "uint256"
        },
        {
          "internalType": "uint256",
          "name": "balance",
          "type": "uint256"
        },
        {
          "internalType": "uint256",
          "name": "totalSupply",
          "type": "uint256"
        },
        {
          "internalType": "address",
          "name": "measure",
          "type": "address"
        }
      ],
      "name": "afterWithdrawFrom",
      "outputs": [],
      "stateMutability": "nonpayable",
      "type": "function"
    },
    {
      "inputs": [
        {
          "internalType": "address",
          "name": "dripToken",
          "type": "address"
        },
        {
          "internalType": "address",
          "name": "user",
          "type": "address"
        }
      ],
      "name": "balanceOfDrip",
      "outputs": [
        {
          "internalType": "uint256",
          "name": "",
          "type": "uint256"
        }
      ],
      "stateMutability": "view",
      "type": "function"
    },
    {
      "inputs": [
        {
          "internalType": "address",
          "name": "user",
          "type": "address"
        },
        {
          "internalType": "address",
          "name": "dripToken",
          "type": "address"
        },
        {
          "internalType": "uint256",
          "name": "amount",
          "type": "uint256"
        }
      ],
      "name": "claimDrip",
      "outputs": [],
      "stateMutability": "nonpayable",
      "type": "function"
    },
    {
      "inputs": [
        {
          "internalType": "address",
          "name": "source",
          "type": "address"
        },
        {
          "internalType": "address",
          "name": "measure",
          "type": "address"
        },
        {
          "internalType": "address",
          "name": "dripToken",
          "type": "address"
        },
        {
          "internalType": "address",
          "name": "prevDripToken",
          "type": "address"
        }
      ],
      "name": "deactivateBalanceDrip",
      "outputs": [],
      "stateMutability": "nonpayable",
      "type": "function"
    },
    {
      "inputs": [
        {
          "internalType": "address",
          "name": "source",
          "type": "address"
        },
        {
          "internalType": "address",
          "name": "measure",
          "type": "address"
        },
        {
          "internalType": "address",
          "name": "dripToken",
          "type": "address"
        },
        {
          "internalType": "bool",
          "name": "isReferral",
          "type": "bool"
        },
        {
          "internalType": "address",
          "name": "prevDripToken",
          "type": "address"
        }
      ],
      "name": "deactivateVolumeDrip",
      "outputs": [],
      "stateMutability": "nonpayable",
      "type": "function"
    },
    {
      "inputs": [
        {
          "internalType": "address",
          "name": "source",
          "type": "address"
        },
        {
          "internalType": "address",
          "name": "measure",
          "type": "address"
        },
        {
          "internalType": "address",
          "name": "dripToken",
          "type": "address"
        }
      ],
      "name": "getBalanceDrip",
      "outputs": [
        {
          "internalType": "uint256",
          "name": "dripRatePerSecond",
          "type": "uint256"
        },
        {
          "internalType": "uint128",
          "name": "exchangeRateMantissa",
          "type": "uint128"
        },
        {
          "internalType": "uint32",
          "name": "timestamp",
          "type": "uint32"
        }
      ],
      "stateMutability": "view",
      "type": "function"
    },
    {
      "inputs": [
        {
          "internalType": "address",
          "name": "source",
          "type": "address"
        },
        {
          "internalType": "address",
          "name": "measure",
          "type": "address"
        },
        {
          "internalType": "address",
          "name": "dripToken",
          "type": "address"
        },
        {
          "internalType": "bool",
          "name": "isReferral",
          "type": "bool"
        }
      ],
      "name": "getVolumeDrip",
      "outputs": [
        {
          "internalType": "uint256",
          "name": "periodSeconds",
          "type": "uint256"
        },
        {
          "internalType": "uint256",
          "name": "dripAmount",
          "type": "uint256"
        },
        {
          "internalType": "uint256",
          "name": "periodCount",
          "type": "uint256"
        }
      ],
      "stateMutability": "view",
      "type": "function"
    },
    {
      "inputs": [
        {
          "internalType": "address",
          "name": "source",
          "type": "address"
        },
        {
          "internalType": "address",
          "name": "measure",
          "type": "address"
        },
        {
          "internalType": "address",
          "name": "dripToken",
          "type": "address"
        },
        {
          "internalType": "bool",
          "name": "isReferral",
          "type": "bool"
        },
        {
          "internalType": "uint16",
          "name": "period",
          "type": "uint16"
        }
      ],
      "name": "getVolumeDripPeriod",
      "outputs": [
        {
          "internalType": "uint112",
          "name": "totalSupply",
          "type": "uint112"
        },
        {
          "internalType": "uint112",
          "name": "dripAmount",
          "type": "uint112"
        },
        {
          "internalType": "uint32",
          "name": "endTime",
          "type": "uint32"
        }
      ],
      "stateMutability": "view",
      "type": "function"
    },
    {
      "inputs": [
        {
          "internalType": "address",
          "name": "_owner",
          "type": "address"
        }
      ],
      "name": "initialize",
      "outputs": [],
      "stateMutability": "nonpayable",
      "type": "function"
    },
    {
      "inputs": [
        {
          "internalType": "address",
          "name": "source",
          "type": "address"
        },
        {
          "internalType": "address",
          "name": "measure",
          "type": "address"
        },
        {
          "internalType": "address",
          "name": "dripToken",
          "type": "address"
        },
        {
          "internalType": "bool",
          "name": "isReferral",
          "type": "bool"
        }
      ],
      "name": "isVolumeDripActive",
      "outputs": [
        {
          "internalType": "bool",
          "name": "",
          "type": "bool"
        }
      ],
      "stateMutability": "view",
      "type": "function"
    },
    {
      "inputs": [],
      "name": "owner",
      "outputs": [
        {
          "internalType": "address",
          "name": "",
          "type": "address"
        }
      ],
      "stateMutability": "view",
      "type": "function"
    },
    {
      "inputs": [],
      "name": "renounceOwnership",
      "outputs": [],
      "stateMutability": "nonpayable",
      "type": "function"
    },
    {
      "inputs": [],
      "name": "reserveRateMantissa",
      "outputs": [
        {
          "internalType": "uint256",
          "name": "",
          "type": "uint256"
        }
      ],
      "stateMutability": "view",
      "type": "function"
    },
    {
      "inputs": [
        {
          "internalType": "address",
          "name": "source",
          "type": "address"
        },
        {
          "internalType": "address",
          "name": "measure",
          "type": "address"
        },
        {
          "internalType": "address",
          "name": "dripToken",
          "type": "address"
        },
        {
          "internalType": "uint256",
          "name": "dripRatePerSecond",
          "type": "uint256"
        }
      ],
      "name": "setBalanceDripRate",
      "outputs": [],
      "stateMutability": "nonpayable",
      "type": "function"
    },
    {
      "inputs": [
        {
          "internalType": "uint256",
          "name": "__reserveRateMantissa",
          "type": "uint256"
        }
      ],
      "name": "setReserveRateMantissa",
      "outputs": [],
      "stateMutability": "nonpayable",
      "type": "function"
    },
    {
      "inputs": [
        {
          "internalType": "address",
          "name": "source",
          "type": "address"
        },
        {
          "internalType": "address",
          "name": "measure",
          "type": "address"
        },
        {
          "internalType": "address",
          "name": "dripToken",
          "type": "address"
        },
        {
          "internalType": "bool",
          "name": "isReferral",
          "type": "bool"
        },
        {
          "internalType": "uint32",
          "name": "periodSeconds",
          "type": "uint32"
        },
        {
          "internalType": "uint112",
          "name": "dripAmount",
          "type": "uint112"
        }
      ],
      "name": "setVolumeDrip",
      "outputs": [],
      "stateMutability": "nonpayable",
      "type": "function"
    },
    {
      "inputs": [
        {
          "internalType": "address",
          "name": "newOwner",
          "type": "address"
        }
      ],
      "name": "transferOwnership",
      "outputs": [],
      "stateMutability": "nonpayable",
      "type": "function"
    },
    {
      "inputs": [
        {
          "components": [
            {
              "internalType": "address",
              "name": "source",
              "type": "address"
            },
            {
              "internalType": "address",
              "name": "measure",
              "type": "address"
            }
          ],
          "internalType": "struct Comptroller.UpdatePair[]",
          "name": "pairs",
          "type": "tuple[]"
        },
        {
          "internalType": "address",
          "name": "user",
          "type": "address"
        },
        {
          "internalType": "address[]",
          "name": "dripTokens",
          "type": "address[]"
        }
      ],
      "name": "updateAndClaimDrips",
      "outputs": [],
      "stateMutability": "nonpayable",
      "type": "function"
    },
    {
      "inputs": [
        {
          "components": [
            {
              "internalType": "address",
              "name": "source",
              "type": "address"
            },
            {
              "internalType": "address",
              "name": "measure",
              "type": "address"
            }
          ],
          "internalType": "struct Comptroller.UpdatePair[]",
          "name": "pairs",
          "type": "tuple[]"
        },
        {
          "internalType": "address",
          "name": "user",
          "type": "address"
        },
        {
          "internalType": "address[]",
          "name": "dripTokens",
          "type": "address[]"
        }
      ],
      "name": "updateDrips",
      "outputs": [
        {
          "components": [
            {
              "internalType": "address",
              "name": "dripToken",
              "type": "address"
            },
            {
              "internalType": "uint256",
              "name": "balance",
              "type": "uint256"
            }
          ],
          "internalType": "struct Comptroller.DripTokenBalance[]",
          "name": "",
          "type": "tuple[]"
        }
      ],
      "stateMutability": "nonpayable",
      "type": "function"
    }
  ],
  "address": "0x6b7159653465472C11cf983eD42B97eacE45F7fD",
  "args": [],
  "solcInputHash": "0xcade2c052eaee9c1bca92acbc1e2b89976bc6c0f84bf375816660aacdf735bc7",
  "bytecode": "0x608060405234801561001057600080fd5b50613e2a806100206000396000f3fe608060405234801561001057600080fd5b50600436106101425760003560e01c80638eaa71d7116100b8578063c4d66de81161007c578063c4d66de8146102b5578063ce730461146102c8578063d7840aad146102db578063e2937c77146102fb578063e72edc281461030e578063f2fde38b1461032157610142565b80638eaa71d7146102455780639aebef231461025a578063ab47176d1461027c578063c18f8dd51461028f578063c35185df146102a257610142565b80635d68ae221161010a5780635d68ae22146101cd5780635e19bad5146101e0578063626e76b4146101f3578063715018a61461021557806384f8f31c1461021d5780638da5cb5b1461023057610142565b806327f807a21461014757806334de6d191461015c5780633a6c8a2c1461016f57806343fcacd014610198578063503bd480146101ba575b600080fd5b61015a610155366004613436565b610334565b005b61015a61016a3660046133b1565b6103f5565b61018261017d36600461356e565b610556565b60405161018f91906136dc565b60405180910390f35b6101ab6101a63660046131c2565b61082c565b60405161018f93929190613d0b565b61015a6101c8366004613361565b610966565b61015a6101db366004613361565b610a25565b61015a6101ee3660046130a9565b610adf565b610206610201366004613100565b610b9c565b60405161018f93929190613d62565b61015a610ccf565b61015a61022b3660046132c1565b610d4e565b610238610eab565b60405161018f91906136af565b61024d610eba565b60405161018f9190613d34565b61026d610268366004613064565b610ec0565b60405161018f93929190613d3d565b61015a61028a36600461367f565b610f1d565b61015a61029d3660046133f1565b610fba565b61015a6102b0366004613235565b61100f565b61015a6102c3366004613015565b611106565b61015a6102d6366004613497565b61119b565b6102ee6102e9366004613100565b61127c565b60405161018f9190613734565b61015a610309366004613158565b6112e5565b61024d61031c366004613030565b6113d5565b61015a61032f366004613015565b611402565b600061033e6114b9565b6001600160a01b0381166000908152609a6020526040902090915061038e908290858a6103718a8c63ffffffff6114bd16565b6103818a8d63ffffffff6114bd16565b610389611506565b61150a565b6001600160a01b03811660009081526098602052604081206103b591839190868b8b611673565b6001600160a01b038216156103ec576001600160a01b03811660009081526099602052604090206103ec908290600186868b611673565b50505050505050565b60006103ff6114b9565b6001600160a01b038085166000908152609b6020908152604080832093891683529290522054909150610438908363ffffffff6114bd16565b6001600160a01b038085166000818152609b60209081526040808320948a168352939052829020929092555163a9059cbb60e01b815263a9059cbb9061048490879086906004016136c3565b602060405180830381600087803b15801561049e57600080fd5b505af11580156104b2573d6000803e3d6000fd5b505050506040513d601f19601f820116820180604052508101906104d69190613648565b6104fb5760405162461bcd60e51b81526004016104f290613a31565b60405180910390fd5b826001600160a01b0316846001600160a01b0316826001600160a01b03167f76db671dc988a5ba4764a06da6bfc2a6a8df0d7d373cc205a687084b4a8492f0856040516105489190613d34565b60405180910390a450505050565b60606000610562611506565b905060005b855181101561072657610578612f0e565b86828151811061058457fe5b602002602001015190506106c08160000151609a600084600001516001600160a01b03166001600160a01b0316815260200190815260200160002083602001518985602001516001600160a01b03166370a082318c6040518263ffffffff1660e01b81526004016105f591906136af565b60206040518083038186803b15801561060d57600080fd5b505afa158015610621573d6000803e3d6000fd5b505050506040513d601f19601f820116820180604052508101906106459190613697565b86602001516001600160a01b03166318160ddd6040518163ffffffff1660e01b815260040160206040518083038186803b15801561068257600080fd5b505afa158015610696573d6000803e3d6000fd5b505050506040513d601f19601f820116820180604052508101906106ba9190613697565b8961150a565b80516001600160a01b03811660009081526098602090815260408220908401516106ed9392908a82611673565b80516001600160a01b038116600090815260996020908152604082209084015161071d9392600191908b90611673565b50600101610567565b6060845160405190808252806020026020018201604052801561076357816020015b610750612f0e565b8152602001906001900390816107485790505b509050600091505b845182101561082257604051806040016040528086848151811061078b57fe5b60200260200101516001600160a01b03168152602001609b60008886815181106107b157fe5b60200260200101516001600160a01b03166001600160a01b031681526020019081526020016000206000896001600160a01b03166001600160a01b031681526020019081526020016000205481525081838151811061080c57fe5b602090810291909101015260019091019061076b565b9695505050505050565b6000806000610839612f25565b85156108c657506001600160a01b0380891660009081526099602090815260408083208b8516845260019081018352818420948b16845293825280832061ffff89168452909301815290829020825160608101845290546001600160701b038082168352600160701b82041692820192909252600160e01b90910463ffffffff1691810191909152610949565b506001600160a01b0380891660009081526098602090815260408083208b8516845260019081018352818420948b16845293825280832061ffff89168452909301815290829020825160608101845290546001600160701b038082168352600160701b82041692820192909252600160e01b90910463ffffffff16918101919091525b80516020820151604090920151909a919950975095505050505050565b61096e6114b9565b6065546001600160a01b0390811691161461099b5760405162461bcd60e51b81526004016104f290613b64565b6109d88383836109b16109ac611506565b61197b565b6001600160a01b0389166000908152609a602052604090209392919063ffffffff6119a416565b816001600160a01b0316836001600160a01b0316856001600160a01b03167f1198b38b5e10d4b1e4cd2866dd9bc4e71e32c649b6ff51addd64e01fb6a6d5ad846040516105489190613d34565b610a2d6114b9565b6065546001600160a01b03908116911614610a5a5760405162461bcd60e51b81526004016104f290613b64565b610a92838383610a6b6109ac611506565b6001600160a01b0389166000908152609a602052604090209392919063ffffffff611a9816565b816001600160a01b0316836001600160a01b0316856001600160a01b03167f4cf47603ce110cd8061678afe77c525be4ca073f4640f629292afcef7be49259846040516105489190613d34565b610ae76114b9565b6065546001600160a01b03908116911614610b145760405162461bcd60e51b81526004016104f290613b64565b610b4c838383610b256109ac611506565b6001600160a01b0389166000908152609a602052604090209392919063ffffffff611b9216565b816001600160a01b0316836001600160a01b0316856001600160a01b03167fbbd41ee308597dd699317716979d8ce8edde7cdde9471c26bfab7752e1186c9460405160405180910390a450505050565b6000806000610ba9612f25565b8415610c2a57506001600160a01b0380881660009081526099602090815260408083208a851684526001018252808320938916835292815290829020825160608101845260029091015463ffffffff80821683526001600160701b03600160201b83041693830193909352600160901b900490911691810191909152610ca1565b506001600160a01b0380881660009081526098602090815260408083208a851684526001018252808320938916835292815290829020825160608101845260029091015463ffffffff80821683526001600160701b03600160201b83041693830193909352600160901b9004909116918101919091525b8051602082015160409092015163ffffffff9182169a6001600160701b039093169950169650945050505050565b610cd76114b9565b6065546001600160a01b03908116911614610d045760405162461bcd60e51b81526004016104f290613b64565b6065546040516000916001600160a01b0316907f8be0079c531659141344cd1fd0a4f28419497f9722a3daafe3b4186f6b6457e0908390a3606580546001600160a01b0319169055565b610d566114b9565b6065546001600160a01b03908116911614610d835760405162461bcd60e51b81526004016104f290613b64565b60008415610dbe576001600160a01b0388166000908152609960205260409020610db790888887878763ffffffff611c6616565b9050610ded565b6001600160a01b0388166000908152609860205260409020610dea90888887878763ffffffff611c6616565b90505b856001600160a01b0316876001600160a01b0316896001600160a01b03167f0ee63f5b7633ec1ad321f6f89b83ec0993c2cc680112d7b153759242a655ed43888888604051610e3e93929190613785565b60405180910390a4856001600160a01b0316876001600160a01b0316896001600160a01b03167f5030027163f1655f8ac4c205c22bfe42c59f83e61a7c15da775499920b21431488858888604051610e9994939291906137ac565b60405180910390a45050505050505050565b6065546001600160a01b031690565b60975490565b6001600160a01b0383166000908152609a60205260408120819081908190610eef90878763ffffffff611dda16565b805460019091015490986001600160801b0382169850600160801b90910463ffffffff169650945050505050565b610f256114b9565b6065546001600160a01b03908116911614610f525760405162461bcd60e51b81526004016104f290613b64565b670de0b6b3a7640000811115610f7a5760405162461bcd60e51b81526004016104f29061397e565b60978190556040517f596f4db485f9f39633eefcb1b04b10114fc6bc60e5feff327e5b2cace874129f90610faf908390613d34565b60405180910390a150565b6000610fc46114b9565b6001600160a01b0381166000908152609a602052604090209091506110079082908489610ff7898b63ffffffff611e0616565b610381898c63ffffffff611e0616565b505050505050565b6110176114b9565b6065546001600160a01b039081169116146110445760405162461bcd60e51b81526004016104f290613b64565b821561107a576001600160a01b0386166000908152609960205260409020611075908686858563ffffffff611e2b16565b6110a5565b6001600160a01b03861660009081526098602052604090206110a5908686858563ffffffff611e2b16565b836001600160a01b0316856001600160a01b0316876001600160a01b03167f401facfe78ba5adec5aae1404afebf8e3a77cb5dfdf5b4b611504d626d9a2ed58686866040516110f693929190613785565b60405180910390a4505050505050565b600054610100900460ff168061111f575061111f611ea7565b8061112d575060005460ff16155b6111495760405162461bcd60e51b81526004016104f290613be2565b600054610100900460ff16158015611174576000805460ff1961ff0019909116610100171660011790555b61117c611ead565b61118582611402565b8015611197576000805461ff00191690555b5050565b606061122d8686808060200260200160405190810160405280939291908181526020016000905b828210156111ee576111df60408302860136819003810190613664565b815260200190600101906111c2565b50505050508585858080602002602001604051908101604052809392919081815260200183836020028082843760009201919091525061055692505050565b905060005b81518110156103ec576112748583838151811061124b57fe5b60200260200101516000015184848151811061126357fe5b6020026020010151602001516103f5565b600101611232565b600081156112b4576001600160a01b03851660009081526099602052604090206112ad90858563ffffffff611f4016565b90506112dd565b6001600160a01b03851660009081526098602052604090206112ad90858563ffffffff611f4016565b949350505050565b6112ed6114b9565b6065546001600160a01b0390811691161461131a5760405162461bcd60e51b81526004016104f290613b64565b811561134f576001600160a01b038516600090815260996020526040902061134a9085858463ffffffff611f6816565b611379565b6001600160a01b03851660009081526098602052604090206113799085858463ffffffff611f6816565b826001600160a01b0316846001600160a01b0316866001600160a01b03167f9684c938581734d57a998217c38505f0c4fc95afd0af9da2c97b9822ee7a66c8856040516113c69190613734565b60405180910390a45050505050565b6001600160a01b038083166000908152609b60209081526040808320938516835292905220545b92915050565b61140a6114b9565b6065546001600160a01b039081169116146114375760405162461bcd60e51b81526004016104f290613b64565b6001600160a01b03811661145d5760405162461bcd60e51b81526004016104f290613901565b6065546040516001600160a01b038084169216907f8be0079c531659141344cd1fd0a4f28419497f9722a3daafe3b4186f6b6457e090600090a3606580546001600160a01b0319166001600160a01b0392909216919091179055565b3390565b60006114ff83836040518060400160405280601e81526020017f536166654d6174683a207375627472616374696f6e206f766572666c6f770000815250611f97565b9392505050565b4290565b6001600160a01b03808616600090815260208881526040808320600180855201909152902054165b6001600160a01b0381161580159061155457506001600160a01b038116600114155b15611669576001600160a01b0380871660009081526001890160209081526040808320938516835292905290812090611596828888888863ffffffff611fc316565b90506001600160801b03811615611636576001600160a01b03871660009081526002830160205260409020546001600160801b03908116906115dd9085908a908516611fdb565b836001600160a01b0316896001600160a01b03168c6001600160a01b03167f782be3085b3ef7b927740f3ed02f7393ee3f20b8fe87595484dbf65c5be4230d8b8560405161162c9291906136c3565b60405180910390a4505b50506001600160a01b03808716600090815260208981526040808320948416835260019094019052919091205416611532565b5050505050505050565b600061167d611506565b6001600160a01b03808616600090815260208981526040808320600180855201909152902054919250165b6001600160a01b038116158015906116ca57506001600160a01b038116600114155b15611669576001600160a01b03808616600090815260018901602090815260408083209385168352929052908120908061170c8388888863ffffffff61207e16565b9092509050811561177c57611722848884611fdb565b836001600160a01b0316886001600160a01b03168c6001600160a01b03167f06c65e2aee0f9ad46bde72ca6800e5b29333356dc073eba0e3995ffc980148f78c8b876040516117739392919061373f565b60405180910390a45b6001600160a01b03808916600090815260208c8152604080832097841683526001909701905294909420549093169280156119735760028301546000906117df906117da9063ffffffff600160901b9091048116906001906114bd16565b6122b9565b9050846001600160a01b0316896001600160a01b03168d6001600160a01b03167fa2ec807a0c220b85f5b188be41d7d35248cc5abe1a2fab6c33d31132cdd682c38d858960010160008861ffff1663ffffffff16815260200190815260200160002060000160009054906101000a90046001600160701b031660405161186793929190613760565b60405180910390a4846001600160a01b0316896001600160a01b03168d6001600160a01b03167f5030027163f1655f8ac4c205c22bfe42c59f83e61a7c15da775499920b2143148d8860020160129054906101000a900463ffffffff168960010160008b60020160129054906101000a900463ffffffff1663ffffffff1663ffffffff168152602001908152602001600020600001600e9054906101000a90046001600160701b03168a60010160008c60020160129054906101000a900463ffffffff1663ffffffff1663ffffffff168152602001908152602001600020600001601c9054906101000a900463ffffffff1660405161196994939291906137ac565b60405180910390a4505b5050506116a8565b6000600160201b82106119a05760405162461bcd60e51b81526004016104f290613c57565b5090565b6001600160a01b03841660009081526020869052604090206119cc908463ffffffff6122dd16565b6119e85760405162461bcd60e51b81526004016104f290613ae1565b611a91846001600160a01b03166318160ddd6040518163ffffffff1660e01b815260040160206040518083038186803b158015611a2457600080fd5b505afa158015611a38573d6000803e3d6000fd5b505050506040513d601f19601f82011682018060405250810190611a5c9190613697565b6001600160a01b038087166000908152600189016020908152604080832093891683529290522090848463ffffffff61231816565b5050505050565b6001600160a01b0384166000908152602086905260409020611ac0908463ffffffff6122dd16565b15611add5760405162461bcd60e51b81526004016104f29061382e565b6001600160a01b038416600090815260208690526040902054611b6a57604080516001808252818301909252606091602080830190803683370190505090508381600081518110611b2a57fe5b6001600160a01b0392831660209182029290920181019190915290861660009081529087905260409020611b64908263ffffffff61233016565b506119e8565b6001600160a01b03841660009081526020869052604090206119e8908463ffffffff61242a16565b6001600160a01b0384166000908152602086905260409020611bbb90838563ffffffff6124f216565b611a91846001600160a01b03166318160ddd6040518163ffffffff1660e01b815260040160206040518083038186803b158015611bf757600080fd5b505afa158015611c0b573d6000803e3d6000fd5b505050506040513d601f19601f82011682018060405250810190611c2f9190613697565b6001600160a01b0380871660009081526001890160209081526040808320938916835292905290812091908463ffffffff61231816565b6001600160a01b0385166000908152602087905260408120611c8e908663ffffffff6122dd16565b15611cab5760405162461bcd60e51b81526004016104f290613cd4565b6001600160a01b038616600090815260208890526040902054611d3857604080516001808252818301909252606091602080830190803683370190505090508581600081518110611cf857fe5b6001600160a01b0392831660209182029290920181019190915290881660009081529089905260409020611d32908263ffffffff61233016565b50611d60565b6001600160a01b0386166000908152602088905260409020611d60908663ffffffff61242a16565b6001600160a01b0380871660009081526001890160209081526040808320938916835292905220611d999085858563ffffffff6125bc16565b505050506001600160a01b0391821660009081526001939093016020908152604080852092909316845252902060020154600160901b900463ffffffff1690565b6001600160a01b0391821660009081526001939093016020908152604080852092909316845252902090565b6000828201838110156114ff5760405162461bcd60e51b81526004016104f2906139b3565b6001600160a01b0384166000908152602086905260409020611e53908463ffffffff6122dd16565b611e6f5760405162461bcd60e51b81526004016104f290613aa0565b6001600160a01b0380851660009081526001870160209081526040808320938716835292905220611a9190838363ffffffff6126f216565b303b1590565b600054610100900460ff1680611ec65750611ec6611ea7565b80611ed4575060005460ff16155b611ef05760405162461bcd60e51b81526004016104f290613be2565b600054610100900460ff16158015611f1b576000805460ff1961ff0019909116610100171660011790555b611f23612760565b611f2b6127e1565b8015611f3d576000805461ff00191690555b50565b6001600160a01b03821660009081526020849052604081206112dd908363ffffffff6122dd16565b6001600160a01b0383166000908152602085905260409020611f9190828463ffffffff6124f216565b50505050565b60008184841115611fbb5760405162461bcd60e51b81526004016104f291906137db565b505050900390565b6000611fd08684846128bb565b610822868686612a22565b6001600160a01b038084166000908152609b6020908152604080832093861683529290522054612011908263ffffffff611e0616565b6001600160a01b038085166000818152609b6020908152604080832094881680845294909152908190209390935591519091907f0f3ed8b918f23095606f705f6253b10267861573421cf05301b0f1f006c92b4490612071908590613d34565b60405180910390a3505050565b600284015460009081908690600160901b900463ffffffff166120b35760405162461bcd60e51b81526004016104f290613a72565b6120bd8785612ae7565b6001600160a01b0387166000908152602089905260409020549092506120fb90889063ffffffff600160701b820416906001600160701b0316612b13565b6002880154909350600160901b900463ffffffff16831561219657604051806040016040528061212a88612bb7565b6001600160701b03908116825263ffffffff8085166020938401526001600160a01b038b1660009081528c845260409020845181549590940151909116600160701b0263ffffffff60701b19939092166001600160701b03199094169390931791909116179055612244565b6040805180820182526001600160a01b038916600090815260208b9052919091205481906121dc906121d7906001600160701b03168a63ffffffff611e0616565b612bb7565b6001600160701b03908116825263ffffffff8085166020938401526001600160a01b038b1660009081528c845260409020845181549590940151909116600160701b0263ffffffff60701b19939092166001600160701b031990941693909317919091161790555b63ffffffff808216600090815260018a016020526040902054612277916121d7916001600160701b0316908990611e0616565b63ffffffff9091166000908152600189016020526040902080546001600160701b03929092166001600160701b03199092169190911790555094509492505050565b60006201000082106119a05760405162461bcd60e51b81526004016104f290613865565b60006001600160a01b038216158015906114ff5750506001600160a01b03908116600090815260019290920160205260409091205416151590565b61232984848363ffffffff166128bb565b5090915550565b600160008181528382016020526040812080546001600160a01b031916909217909155805b825181101561232957600160008181529085016020819052604082205485516001600160a01b03909116929086908590811061238d57fe5b60200260200101516001600160a01b03166001600160a01b0316815260200190815260200160002060006101000a8154816001600160a01b0302191690836001600160a01b031602179055508281815181106123e557fe5b60209081029190910181015160016000818152878201909352604090922080546001600160a01b0319166001600160a01b039092169190911790559182019101612355565b6001600160a01b03811660011480159061244c57506001600160a01b03811615155b6124685760405162461bcd60e51b81526004016104f2906138ab565b6001600160a01b03818116600090815260018401602052604090205416156124a25760405162461bcd60e51b81526004016104f290613c30565b60016000818152838201602052604080822080546001600160a01b039586168085529284208054969091166001600160a01b03199687161790559183905281549093169092179091558154019055565b6001600160a01b03811660011480159061251457506001600160a01b03811615155b6125305760405162461bcd60e51b81526004016104f2906138ab565b6001600160a01b03828116600090815260018501602052604090205481169082161461256e5760405162461bcd60e51b81526004016104f2906138d4565b6001600160a01b039081166000818152600185016020526040808220805495851683529082208054959094166001600160a01b03199586161790935552805490911690558054600019019055565b8263ffffffff16600081116125e35760405162461bcd60e51b81526004016104f290613947565b6002850154612609906117da9063ffffffff600160901b909104811690600190611e0616565b60028601805463ffffffff60901b191661ffff92909216600160901b908102929092178082556040805160608101825260008082526001600160701b03988916602080840182815263ffffffff9a8b16858701908152989096048a1683526001909c01909b529190912090518154925194516001600160701b031990931690881617600160701b600160e01b031916600160701b9490971693909302959095176001600160e01b0316600160e01b9585169590950294909417905550815463ffffffff1916921691909117640100000000600160901b031916600160201b909202919091179055565b8163ffffffff16600081116127195760405162461bcd60e51b81526004016104f290613947565b50600290920180546001600160701b03909316600160201b02640100000000600160901b031963ffffffff90931663ffffffff199094169390931791909116919091179055565b600054610100900460ff16806127795750612779611ea7565b80612787575060005460ff16155b6127a35760405162461bcd60e51b81526004016104f290613be2565b600054610100900460ff16158015611f2b576000805460ff1961ff0019909116610100171660011790558015611f3d576000805461ff001916905550565b600054610100900460ff16806127fa57506127fa611ea7565b80612808575060005460ff16155b6128245760405162461bcd60e51b81526004016104f290613be2565b600054610100900460ff1615801561284f576000805460ff1961ff0019909116610100171660011790555b60006128596114b9565b606580546001600160a01b0319166001600160a01b038316908117909155604051919250906000907f8be0079c531659141344cd1fd0a4f28419497f9722a3daafe3b4186f6b6457e0908290a3508015611f3d576000805461ff001916905550565b600183015463ffffffff828116600160801b9092041614156128dc57612a1d565b6001830154600090600160801b900463ffffffff161561290d576001840154600160801b900463ffffffff1661290f565b815b90506000612923838363ffffffff6114bd16565b60018601549091506000906001600160801b03161561294f5760018601546001600160801b0316612960565b612960670de0b6b3a7640000612bdc565b90506000821180156129725750855415155b156129d157855460009061298d90849063ffffffff612c0116565b9050600080871161299f5760006129a9565b6129a98288612c3b565b90506129cc6129c76001600160801b0385168363ffffffff611e0616565b612bdc565b925050505b6001860180546001600160801b0319166001600160801b0383161790556129f78461197b565b8660010160106101000a81548163ffffffff021916908363ffffffff1602179055505050505b505050565b6001600160a01b0382166000908152600284016020526040812080546001600160801b031680612a5c575060018501546001600160801b03165b6001860154600090612a7d906001600160801b03168363ffffffff6114bd16565b90506000612a8e6129c78784612c68565b604080516020808201835260018c01546001600160801b0390811683526001600160a01b039b909b1660009081526002909c0190529920985189546001600160801b031916981697909717909755509395945050505050565b6000612af38383612c95565b15612b0a57612b028383612ccb565b5060016113fc565b50600092915050565b6002830154600090819063ffffffff600160901b9091048116908516108015612b5b575063ffffffff841660009081526001860160205260409020546001600160701b031615155b156112dd5763ffffffff84166000908152600186016020526040812054612b95906001600160801b038616906001600160701b0316612c3b565b600287015490915061082290600160201b90046001600160701b031682612c68565b6000600160701b82106119a05760405162461bcd60e51b81526004016104f290613b99565b6000600160801b82106119a05760405162461bcd60e51b81526004016104f2906139ea565b600082612c10575060006113fc565b82820282848281612c1d57fe5b04146114ff5760405162461bcd60e51b81526004016104f290613b23565b600080612c5684670de0b6b3a764000063ffffffff612c0116565b90506112dd818463ffffffff612e9a16565b600080612c7b838563ffffffff612c0116565b90506112dd81670de0b6b3a764000063ffffffff612e9a16565b600282015463ffffffff600160901b90910481166000908152600184016020526040902054600160e01b90041681101592915050565b8181612cd78282612c95565b612cf35760405162461bcd60e51b81526004016104f290613c9d565b600284015463ffffffff600160901b82048116600090815260018088016020526040822054600160e01b90048316939192612d5692612d4a9190811690612d3e908a9088906114bd16565b9063ffffffff612e9a16565b9063ffffffff611e0616565b6002870154909150600090612d8790612d7a90849063ffffffff90811690612c0116565b849063ffffffff611e0616565b6002880154909150612db0906117da9063ffffffff600160901b909104811690600190611e0616565b60028801805463ffffffff60901b191661ffff92909216600160901b02919091179081905560408051606081018252600081526001600160701b03600160201b9093049290921660208301528101612e078361197b565b63ffffffff9081169091526002890154600160901b900481166000908152600190990160209081526040998a9020835181549285015194909b01516001600160701b03199092166001600160701b039b8c1617600160701b600160e01b031916600160701b9b9094169a909a02929092176001600160e01b0316600160e01b929091169190910217909655505050505050565b60006114ff83836040518060400160405280601a81526020017f536166654d6174683a206469766973696f6e206279207a65726f00000000000081525060008183612ef85760405162461bcd60e51b81526004016104f291906137db565b506000838581612f0457fe5b0495945050505050565b604080518082019091526000808252602082015290565b604080516060810182526000808252602082018190529181019190915290565b80356001600160a01b03811681146113fc57600080fd5b600082601f830112612f6c578081fd5b8135612f7f612f7a82613d9f565b613d78565b818152915060208083019084810181840286018201871015612fa057600080fd5b60005b84811015612fc757612fb58883612f45565b84529282019290820190600101612fa3565b505050505092915050565b600060408284031215612fe3578081fd5b612fed6040613d78565b90508135612ffa81613dbf565b8152602082013561300a81613dbf565b602082015292915050565b600060208284031215613026578081fd5b6114ff8383612f45565b60008060408385031215613042578081fd5b61304c8484612f45565b915061305b8460208501612f45565b90509250929050565b600080600060608486031215613078578081fd5b6130828585612f45565b92506130918560208601612f45565b91506130a08560408601612f45565b90509250925092565b600080600080608085870312156130be578081fd5b6130c88686612f45565b93506130d78660208701612f45565b92506130e68660408701612f45565b91506130f58660608701612f45565b905092959194509250565b60008060008060808587031215613115578384fd5b61311f8686612f45565b935061312e8660208701612f45565b925061313d8660408701612f45565b9150606085013561314d81613dd4565b939692955090935050565b600080600080600060a0868803121561316f578081fd5b6131798787612f45565b94506131888760208801612f45565b93506131978760408801612f45565b925060608601356131a781613dd4565b91506131b68760808801612f45565b90509295509295909350565b600080600080600060a086880312156131d9578081fd5b6131e38787612f45565b94506131f28760208801612f45565b93506132018760408801612f45565b9250606086013561321181613dd4565b9150608086013561ffff81168114613227578182fd5b809150509295509295909350565b60008060008060008060c0878903121561324d578384fd5b863561325881613dbf565b9550602087013561326881613dbf565b9450604087013561327881613dbf565b9350606087013561328881613dd4565b9250608087013561329881613de2565b915060a08701356001600160701b03811681146132b3578182fd5b809150509295509295509295565b600080600080600080600060e0888a0312156132db578485fd5b87356132e681613dbf565b965060208801356132f681613dbf565b9550604088013561330681613dbf565b9450606088013561331681613dd4565b9350608088013561332681613de2565b925060a08801356001600160701b0381168114613341578182fd5b915060c088013561335181613de2565b8091505092959891949750929550565b60008060008060808587031215613376578182fd5b843561338181613dbf565b9350602085013561339181613dbf565b925060408501356133a181613dbf565b9396929550929360600135925050565b6000806000606084860312156133c5578081fd5b83356133d081613dbf565b925060208401356133e081613dbf565b929592945050506040919091013590565b600080600080600060a08688031215613408578283fd5b6134128787612f45565b94506020860135935060408601359250606086013591506131b68760808801612f45565b60008060008060008060c0878903121561344e578384fd5b6134588888612f45565b955060208701359450604087013593506060870135925061347c8860808901612f45565b915061348b8860a08901612f45565b90509295509295509295565b6000806000806000606086880312156134ae578283fd5b853567ffffffffffffffff808211156134c5578485fd5b81880189601f8201126134d6578586fd5b80359250818311156134e6578586fd5b60208a816040860284010111156134fb578687fd5b808201985083975061350f8b828c01612f45565b965060408a0135935082841115613524578485fd5b838a0191508a601f830112613537578485fd5b8135935082841115613547578485fd5b8a818286028401011115613559578485fd5b979a9699509497505092909401935090919050565b600080600060608486031215613582578081fd5b833567ffffffffffffffff80821115613599578283fd5b81860187601f8201126135aa578384fd5b803592506135ba612f7a84613d9f565b808482526020808301925080840160408c83828a0288010111156135dc578889fd5b8895505b87861015613608576135f28d83612fd2565b85526001959095019493820193908101906135e0565b839a506136178d848e01612f45565b9950808c0135975050505050505080821115613631578283fd5b5061363e86828701612f5c565b9150509250925092565b600060208284031215613659578081fd5b81516114ff81613dd4565b600060408284031215613675578081fd5b6114ff8383612fd2565b600060208284031215613690578081fd5b5035919050565b6000602082840312156136a8578081fd5b5051919050565b6001600160a01b0391909116815260200190565b6001600160a01b03929092168252602082015260400190565b602080825282518282018190526000919060409081850190868401855b8281101561372757815180516001600160a01b031685528601518685015292840192908501906001016136f9565b5091979650505050505050565b901515815260200190565b92151583526001600160a01b03919091166020830152604082015260600190565b921515835261ffff9190911660208301526001600160701b0316604082015260600190565b921515835263ffffffff9190911660208301526001600160701b0316604082015260600190565b931515845263ffffffff92831660208501526001600160701b0391909116604084015216606082015260800190565b6000602080835283518082850152825b81811015613807578581018301518582016040015282016137eb565b818111156138185783604083870101525b50601f01601f1916929092016040019392505050565b6020808252601e908201527f42616c616e6365447269704d616e616765722f647269702d6163746976650000604082015260600190565b60208082526026908201527f53616665436173743a2076616c756520646f65736e27742066697420696e203160408201526536206269747360d01b606082015260800190565b6020808252600f908201526e496e76616c6964206164647265737360881b604082015260600190565b602080825260139082015272496e76616c696420707265764164647265737360681b604082015260600190565b60208082526026908201527f4f776e61626c653a206e6577206f776e657220697320746865207a65726f206160408201526564647265737360d01b606082015260800190565b60208082526019908201527f566f6c756d65447269702f706572696f642d67742d7a65726f00000000000000604082015260600190565b6020808252818101527f436f6d7074726f6c6c65722f726573657276652d726174652d6c74652d6f6e65604082015260600190565b6020808252601b908201527f536166654d6174683a206164646974696f6e206f766572666c6f770000000000604082015260600190565b60208082526027908201527f53616665436173743a2076616c756520646f65736e27742066697420696e20316040820152663238206269747360c81b606082015260800190565b60208082526021908201527f436f6d7074726f6c6c65722f636c61696d2d7472616e736665722d6661696c656040820152601960fa1b606082015260800190565b602080825260149082015273159bdb1d5b59511c9a5c0bdb9bcb5c195c9a5bd960621b604082015260600190565b60208082526021908201527f566f6c756d65447269704d616e616765722f647269702d6e6f742d61637469766040820152606560f81b606082015260800190565b60208082526022908201527f42616c616e6365447269704d616e616765722f647269702d6e6f742d61637469604082015261766560f01b606082015260800190565b60208082526021908201527f536166654d6174683a206d756c7469706c69636174696f6e206f766572666c6f6040820152607760f81b606082015260800190565b6020808252818101527f4f776e61626c653a2063616c6c6572206973206e6f7420746865206f776e6572604082015260600190565b60208082526029908201527f53616665436173743a2076616c756520646f65736e27742066697420696e206160408201526837103ab4b73a18989960b91b606082015260800190565b6020808252602e908201527f436f6e747261637420696e7374616e63652068617320616c726561647920626560408201526d195b881a5b9a5d1a585b1a5e995960921b606082015260800190565b6020808252600d908201526c105b1c9958591e481859191959609a1b604082015260600190565b60208082526026908201527f53616665436173743a2076616c756520646f65736e27742066697420696e203360408201526532206269747360d01b606082015260800190565b6020808252601a908201527f566f6c756d65447269702f706572696f642d6e6f742d6f766572000000000000604082015260600190565b6020808252601d908201527f566f6c756d65447269704d616e616765722f647269702d616374697665000000604082015260600190565b6001600160701b03938416815291909216602082015263ffffffff909116604082015260600190565b90815260200190565b9283526001600160801b0391909116602083015263ffffffff16604082015260600190565b9283526020830191909152604082015260600190565b60405181810167ffffffffffffffff81118282101715613d9757600080fd5b604052919050565b600067ffffffffffffffff821115613db5578081fd5b5060209081020190565b6001600160a01b0381168114611f3d57600080fd5b8015158114611f3d57600080fd5b63ffffffff81168114611f3d57600080fdfea26469706673582212204b8497a9bbfc700bcf42d3e83bc07d319b369d7c2e807c7a8710b371d1c4a16464736f6c63430006040033"
}