{
  "abi": [
    {
      "anonymous": false,
      "inputs": [
        {
          "indexed": true,
          "internalType": "address",
          "name": "source",
          "type": "address"
        },
        {
          "indexed": true,
          "internalType": "address",
          "name": "measure",
          "type": "address"
        },
        {
          "indexed": true,
          "internalType": "address",
          "name": "dripToken",
          "type": "address"
        },
        {
          "indexed": false,
          "internalType": "uint256",
          "name": "dripRatePerSecond",
          "type": "uint256"
        }
      ],
      "name": "BalanceDripActivated",
      "type": "event"
    },
    {
      "anonymous": false,
      "inputs": [
        {
          "indexed": true,
          "internalType": "address",
          "name": "source",
          "type": "address"
        },
        {
          "indexed": true,
          "internalType": "address",
          "name": "measure",
          "type": "address"
        },
        {
          "indexed": true,
          "internalType": "address",
          "name": "dripToken",
          "type": "address"
        }
      ],
      "name": "BalanceDripDeactivated",
      "type": "event"
    },
    {
      "anonymous": false,
      "inputs": [
        {
          "indexed": true,
          "internalType": "address",
          "name": "source",
          "type": "address"
        },
        {
          "indexed": true,
          "internalType": "address",
          "name": "measure",
          "type": "address"
        },
        {
          "indexed": true,
          "internalType": "address",
          "name": "dripToken",
          "type": "address"
        },
        {
          "indexed": false,
          "internalType": "address",
          "name": "user",
          "type": "address"
        },
        {
          "indexed": false,
          "internalType": "uint256",
          "name": "amount",
          "type": "uint256"
        }
      ],
      "name": "BalanceDripDripped",
      "type": "event"
    },
    {
      "anonymous": false,
      "inputs": [
        {
          "indexed": true,
          "internalType": "address",
          "name": "source",
          "type": "address"
        },
        {
          "indexed": true,
          "internalType": "address",
          "name": "measure",
          "type": "address"
        },
        {
          "indexed": true,
          "internalType": "address",
          "name": "dripToken",
          "type": "address"
        },
        {
          "indexed": false,
          "internalType": "uint256",
          "name": "dripRatePerSecond",
          "type": "uint256"
        }
      ],
      "name": "BalanceDripRateSet",
      "type": "event"
    },
    {
      "anonymous": false,
      "inputs": [
        {
          "indexed": true,
          "internalType": "address",
          "name": "operator",
          "type": "address"
        },
        {
          "indexed": true,
          "internalType": "address",
          "name": "dripToken",
          "type": "address"
        },
        {
          "indexed": true,
          "internalType": "address",
          "name": "user",
          "type": "address"
        },
        {
          "indexed": false,
          "internalType": "uint256",
          "name": "amount",
          "type": "uint256"
        }
      ],
      "name": "DripTokenClaimed",
      "type": "event"
    },
    {
      "anonymous": false,
      "inputs": [
        {
          "indexed": true,
          "internalType": "address",
          "name": "dripToken",
          "type": "address"
        },
        {
          "indexed": true,
          "internalType": "address",
          "name": "user",
          "type": "address"
        },
        {
          "indexed": false,
          "internalType": "uint256",
          "name": "amount",
          "type": "uint256"
        }
      ],
      "name": "DripTokenDripped",
      "type": "event"
    },
    {
      "anonymous": false,
      "inputs": [
        {
          "indexed": true,
          "internalType": "address",
          "name": "previousOwner",
          "type": "address"
        },
        {
          "indexed": true,
          "internalType": "address",
          "name": "newOwner",
          "type": "address"
        }
      ],
      "name": "OwnershipTransferred",
      "type": "event"
    },
    {
      "anonymous": false,
      "inputs": [
        {
          "indexed": false,
          "internalType": "uint256",
          "name": "reserveRateMantissa",
          "type": "uint256"
        }
      ],
      "name": "ReserveRateMantissaSet",
      "type": "event"
    },
    {
      "anonymous": false,
      "inputs": [
        {
          "indexed": true,
          "internalType": "address",
          "name": "source",
          "type": "address"
        },
        {
          "indexed": true,
          "internalType": "address",
          "name": "measure",
          "type": "address"
        },
        {
          "indexed": true,
          "internalType": "address",
          "name": "dripToken",
          "type": "address"
        },
        {
          "indexed": false,
          "internalType": "bool",
          "name": "isReferral",
          "type": "bool"
        },
        {
          "indexed": false,
          "internalType": "uint256",
          "name": "periodSeconds",
          "type": "uint256"
        },
        {
          "indexed": false,
          "internalType": "uint256",
          "name": "dripAmount",
          "type": "uint256"
        }
      ],
      "name": "VolumeDripActivated",
      "type": "event"
    },
    {
      "anonymous": false,
      "inputs": [
        {
          "indexed": true,
          "internalType": "address",
          "name": "source",
          "type": "address"
        },
        {
          "indexed": true,
          "internalType": "address",
          "name": "measure",
          "type": "address"
        },
        {
          "indexed": true,
          "internalType": "address",
          "name": "dripToken",
          "type": "address"
        },
        {
          "indexed": false,
          "internalType": "bool",
          "name": "isReferral",
          "type": "bool"
        }
      ],
      "name": "VolumeDripDeactivated",
      "type": "event"
    },
    {
      "anonymous": false,
      "inputs": [
        {
          "indexed": true,
          "internalType": "address",
          "name": "source",
          "type": "address"
        },
        {
          "indexed": true,
          "internalType": "address",
          "name": "measure",
          "type": "address"
        },
        {
          "indexed": true,
          "internalType": "address",
          "name": "dripToken",
          "type": "address"
        },
        {
          "indexed": false,
          "internalType": "bool",
          "name": "isReferral",
          "type": "bool"
        },
        {
          "indexed": false,
          "internalType": "address",
          "name": "user",
          "type": "address"
        },
        {
          "indexed": false,
          "internalType": "uint256",
          "name": "amount",
          "type": "uint256"
        }
      ],
      "name": "VolumeDripDripped",
      "type": "event"
    },
    {
      "anonymous": false,
      "inputs": [
        {
          "indexed": true,
          "internalType": "address",
          "name": "source",
          "type": "address"
        },
        {
          "indexed": true,
          "internalType": "address",
          "name": "measure",
          "type": "address"
        },
        {
          "indexed": true,
          "internalType": "address",
          "name": "dripToken",
          "type": "address"
        },
        {
          "indexed": false,
          "internalType": "bool",
          "name": "isReferral",
          "type": "bool"
        },
        {
          "indexed": false,
          "internalType": "uint32",
          "name": "period",
          "type": "uint32"
        },
        {
          "indexed": false,
          "internalType": "uint256",
          "name": "totalSupply",
          "type": "uint256"
        }
      ],
      "name": "VolumeDripPeriodEnded",
      "type": "event"
    },
    {
      "anonymous": false,
      "inputs": [
        {
          "indexed": true,
          "internalType": "address",
          "name": "source",
          "type": "address"
        },
        {
          "indexed": true,
          "internalType": "address",
          "name": "measure",
          "type": "address"
        },
        {
          "indexed": true,
          "internalType": "address",
          "name": "dripToken",
          "type": "address"
        },
        {
          "indexed": false,
          "internalType": "bool",
          "name": "isReferral",
          "type": "bool"
        },
        {
          "indexed": false,
          "internalType": "uint32",
          "name": "period",
          "type": "uint32"
        },
        {
          "indexed": false,
          "internalType": "uint256",
          "name": "dripAmount",
          "type": "uint256"
        },
        {
          "indexed": false,
          "internalType": "uint256",
          "name": "endTime",
          "type": "uint256"
        }
      ],
      "name": "VolumeDripPeriodStarted",
      "type": "event"
    },
    {
      "anonymous": false,
      "inputs": [
        {
          "indexed": true,
          "internalType": "address",
          "name": "source",
          "type": "address"
        },
        {
          "indexed": true,
          "internalType": "address",
          "name": "measure",
          "type": "address"
        },
        {
          "indexed": true,
          "internalType": "address",
          "name": "dripToken",
          "type": "address"
        },
        {
          "indexed": false,
          "internalType": "bool",
          "name": "isReferral",
          "type": "bool"
        },
        {
          "indexed": false,
          "internalType": "uint256",
          "name": "periodSeconds",
          "type": "uint256"
        },
        {
          "indexed": false,
          "internalType": "uint256",
          "name": "dripAmount",
          "type": "uint256"
        }
      ],
      "name": "VolumeDripSet",
      "type": "event"
    },
    {
      "inputs": [
        {
          "internalType": "address",
          "name": "source",
          "type": "address"
        },
        {
          "internalType": "address",
          "name": "measure",
          "type": "address"
        },
        {
          "internalType": "address",
          "name": "dripToken",
          "type": "address"
        },
        {
          "internalType": "uint256",
          "name": "dripRatePerSecond",
          "type": "uint256"
        }
      ],
      "name": "activateBalanceDrip",
      "outputs": [],
      "stateMutability": "nonpayable",
      "type": "function"
    },
    {
      "inputs": [
        {
          "internalType": "address",
          "name": "source",
          "type": "address"
        },
        {
          "internalType": "address",
          "name": "measure",
          "type": "address"
        },
        {
          "internalType": "address",
          "name": "dripToken",
          "type": "address"
        },
        {
          "internalType": "bool",
          "name": "isReferral",
          "type": "bool"
        },
        {
          "internalType": "uint32",
          "name": "periodSeconds",
          "type": "uint32"
        },
        {
          "internalType": "uint112",
          "name": "dripAmount",
          "type": "uint112"
        },
        {
          "internalType": "uint32",
          "name": "endTime",
          "type": "uint32"
        }
      ],
      "name": "activateVolumeDrip",
      "outputs": [],
      "stateMutability": "nonpayable",
      "type": "function"
    },
    {
      "inputs": [
        {
          "internalType": "address",
          "name": "dripToken",
          "type": "address"
        },
        {
          "internalType": "address",
          "name": "user",
          "type": "address"
        }
      ],
      "name": "balanceOfDrip",
      "outputs": [
        {
          "internalType": "uint256",
          "name": "",
          "type": "uint256"
        }
      ],
      "stateMutability": "view",
      "type": "function"
    },
    {
      "inputs": [
        {
          "internalType": "address",
          "name": "to",
          "type": "address"
        },
        {
          "internalType": "uint256",
          "name": "amount",
          "type": "uint256"
        },
        {
          "internalType": "address",
          "name": "measure",
          "type": "address"
        },
        {
          "internalType": "address",
          "name": "referrer",
          "type": "address"
        }
      ],
      "name": "beforeTokenMint",
      "outputs": [],
      "stateMutability": "nonpayable",
      "type": "function"
    },
    {
      "inputs": [
        {
          "internalType": "address",
          "name": "from",
          "type": "address"
        },
        {
          "internalType": "address",
          "name": "to",
          "type": "address"
        },
        {
          "internalType": "uint256",
          "name": "",
          "type": "uint256"
        },
        {
          "internalType": "address",
          "name": "measure",
          "type": "address"
        }
      ],
      "name": "beforeTokenTransfer",
      "outputs": [],
      "stateMutability": "nonpayable",
      "type": "function"
    },
    {
      "inputs": [
        {
          "internalType": "address",
          "name": "user",
          "type": "address"
        },
        {
          "internalType": "address",
          "name": "dripToken",
          "type": "address"
        },
        {
          "internalType": "uint256",
          "name": "amount",
          "type": "uint256"
        }
      ],
      "name": "claimDrip",
      "outputs": [],
      "stateMutability": "nonpayable",
      "type": "function"
    },
    {
      "inputs": [
        {
          "internalType": "address",
          "name": "source",
          "type": "address"
        },
        {
          "internalType": "address",
          "name": "measure",
          "type": "address"
        },
        {
          "internalType": "address",
          "name": "dripToken",
          "type": "address"
        },
        {
          "internalType": "address",
          "name": "prevDripToken",
          "type": "address"
        }
      ],
      "name": "deactivateBalanceDrip",
      "outputs": [],
      "stateMutability": "nonpayable",
      "type": "function"
    },
    {
      "inputs": [
        {
          "internalType": "address",
          "name": "source",
          "type": "address"
        },
        {
          "internalType": "address",
          "name": "measure",
          "type": "address"
        },
        {
          "internalType": "address",
          "name": "dripToken",
          "type": "address"
        },
        {
          "internalType": "bool",
          "name": "isReferral",
          "type": "bool"
        },
        {
          "internalType": "address",
          "name": "prevDripToken",
          "type": "address"
        }
      ],
      "name": "deactivateVolumeDrip",
      "outputs": [],
      "stateMutability": "nonpayable",
      "type": "function"
    },
    {
      "inputs": [
        {
          "internalType": "address",
          "name": "source",
          "type": "address"
        },
        {
          "internalType": "address",
          "name": "measure",
          "type": "address"
        },
        {
          "internalType": "address",
          "name": "dripToken",
          "type": "address"
        }
      ],
      "name": "getBalanceDrip",
      "outputs": [
        {
          "internalType": "uint256",
          "name": "dripRatePerSecond",
          "type": "uint256"
        },
        {
          "internalType": "uint128",
          "name": "exchangeRateMantissa",
          "type": "uint128"
        },
        {
          "internalType": "uint32",
          "name": "timestamp",
          "type": "uint32"
        }
      ],
      "stateMutability": "view",
      "type": "function"
    },
    {
      "inputs": [
        {
          "internalType": "address",
          "name": "source",
          "type": "address"
        },
        {
          "internalType": "address",
          "name": "measure",
          "type": "address"
        },
        {
          "internalType": "address",
          "name": "dripToken",
          "type": "address"
        },
        {
          "internalType": "bool",
          "name": "isReferral",
          "type": "bool"
        }
      ],
      "name": "getVolumeDrip",
      "outputs": [
        {
          "internalType": "uint256",
          "name": "periodSeconds",
          "type": "uint256"
        },
        {
          "internalType": "uint256",
          "name": "dripAmount",
          "type": "uint256"
        },
        {
          "internalType": "uint256",
          "name": "periodCount",
          "type": "uint256"
        }
      ],
      "stateMutability": "view",
      "type": "function"
    },
    {
      "inputs": [
        {
          "internalType": "address",
          "name": "source",
          "type": "address"
        },
        {
          "internalType": "address",
          "name": "measure",
          "type": "address"
        },
        {
          "internalType": "address",
          "name": "dripToken",
          "type": "address"
        },
        {
          "internalType": "bool",
          "name": "isReferral",
          "type": "bool"
        },
        {
          "internalType": "uint16",
          "name": "period",
          "type": "uint16"
        }
      ],
      "name": "getVolumeDripPeriod",
      "outputs": [
        {
          "internalType": "uint112",
          "name": "totalSupply",
          "type": "uint112"
        },
        {
          "internalType": "uint112",
          "name": "dripAmount",
          "type": "uint112"
        },
        {
          "internalType": "uint32",
          "name": "endTime",
          "type": "uint32"
        }
      ],
      "stateMutability": "view",
      "type": "function"
    },
    {
      "inputs": [
        {
          "internalType": "address",
          "name": "_owner",
          "type": "address"
        }
      ],
      "name": "initialize",
      "outputs": [],
      "stateMutability": "nonpayable",
      "type": "function"
    },
    {
      "inputs": [
        {
          "internalType": "address",
          "name": "source",
          "type": "address"
        },
        {
          "internalType": "address",
          "name": "measure",
          "type": "address"
        },
        {
          "internalType": "address",
          "name": "dripToken",
          "type": "address"
        },
        {
          "internalType": "bool",
          "name": "isReferral",
          "type": "bool"
        }
      ],
      "name": "isVolumeDripActive",
      "outputs": [
        {
          "internalType": "bool",
          "name": "",
          "type": "bool"
        }
      ],
      "stateMutability": "view",
      "type": "function"
    },
    {
      "inputs": [],
      "name": "owner",
      "outputs": [
        {
          "internalType": "address",
          "name": "",
          "type": "address"
        }
      ],
      "stateMutability": "view",
      "type": "function"
    },
    {
      "inputs": [],
      "name": "renounceOwnership",
      "outputs": [],
      "stateMutability": "nonpayable",
      "type": "function"
    },
    {
      "inputs": [],
      "name": "reserveRateMantissa",
      "outputs": [
        {
          "internalType": "uint256",
          "name": "",
          "type": "uint256"
        }
      ],
      "stateMutability": "view",
      "type": "function"
    },
    {
      "inputs": [
        {
          "internalType": "address",
          "name": "source",
          "type": "address"
        },
        {
          "internalType": "address",
          "name": "measure",
          "type": "address"
        },
        {
          "internalType": "address",
          "name": "dripToken",
          "type": "address"
        },
        {
          "internalType": "uint256",
          "name": "dripRatePerSecond",
          "type": "uint256"
        }
      ],
      "name": "setBalanceDripRate",
      "outputs": [],
      "stateMutability": "nonpayable",
      "type": "function"
    },
    {
      "inputs": [
        {
          "internalType": "uint256",
          "name": "__reserveRateMantissa",
          "type": "uint256"
        }
      ],
      "name": "setReserveRateMantissa",
      "outputs": [],
      "stateMutability": "nonpayable",
      "type": "function"
    },
    {
      "inputs": [
        {
          "internalType": "address",
          "name": "source",
          "type": "address"
        },
        {
          "internalType": "address",
          "name": "measure",
          "type": "address"
        },
        {
          "internalType": "address",
          "name": "dripToken",
          "type": "address"
        },
        {
          "internalType": "bool",
          "name": "isReferral",
          "type": "bool"
        },
        {
          "internalType": "uint32",
          "name": "periodSeconds",
          "type": "uint32"
        },
        {
          "internalType": "uint112",
          "name": "dripAmount",
          "type": "uint112"
        }
      ],
      "name": "setVolumeDrip",
      "outputs": [],
      "stateMutability": "nonpayable",
      "type": "function"
    },
    {
      "inputs": [
        {
          "internalType": "address",
          "name": "newOwner",
          "type": "address"
        }
      ],
      "name": "transferOwnership",
      "outputs": [],
      "stateMutability": "nonpayable",
      "type": "function"
    },
    {
      "inputs": [
        {
          "components": [
            {
              "internalType": "address",
              "name": "source",
              "type": "address"
            },
            {
              "internalType": "address",
              "name": "measure",
              "type": "address"
            }
          ],
          "internalType": "struct Comptroller.UpdatePair[]",
          "name": "pairs",
          "type": "tuple[]"
        },
        {
          "internalType": "address",
          "name": "user",
          "type": "address"
        },
        {
          "internalType": "address[]",
          "name": "dripTokens",
          "type": "address[]"
        }
      ],
      "name": "updateAndClaimDrips",
      "outputs": [],
      "stateMutability": "nonpayable",
      "type": "function"
    },
    {
      "inputs": [
        {
          "components": [
            {
              "internalType": "address",
              "name": "source",
              "type": "address"
            },
            {
              "internalType": "address",
              "name": "measure",
              "type": "address"
            }
          ],
          "internalType": "struct Comptroller.UpdatePair[]",
          "name": "pairs",
          "type": "tuple[]"
        },
        {
          "internalType": "address",
          "name": "user",
          "type": "address"
        },
        {
          "internalType": "address[]",
          "name": "dripTokens",
          "type": "address[]"
        }
      ],
      "name": "updateDrips",
      "outputs": [
        {
          "components": [
            {
              "internalType": "address",
              "name": "dripToken",
              "type": "address"
            },
            {
              "internalType": "uint256",
              "name": "balance",
              "type": "uint256"
            }
          ],
          "internalType": "struct Comptroller.DripTokenBalance[]",
          "name": "",
          "type": "tuple[]"
        }
      ],
      "stateMutability": "nonpayable",
      "type": "function"
    }
  ],
  "address": "0x958CfeFe5D550549A7abCFCEA1Be4cb54Ed99Fc7",
  "args": [],
  "solcInputHash": "0x952a1c5ddcee9cfa35668d0ea97d336f2fe723c7e9085fb13b07daa4f06a7d3e",
  "bytecode": "0x608060405234801561001057600080fd5b50613ef8806100206000396000f3fe608060405234801561001057600080fd5b50600436106101425760003560e01c80638eaa71d7116100b8578063c4d66de81161007c578063c4d66de8146102b5578063ce730461146102c8578063d7840aad146102db578063e2937c77146102fb578063e72edc281461030e578063f2fde38b1461032157610142565b80638eaa71d7146102455780639aebef231461025a578063ab47176d1461027c578063b22109571461028f578063c35185df146102a257610142565b80635d68ae221161010a5780635d68ae22146101cd5780635e19bad5146101e0578063626e76b4146101f3578063715018a61461021557806384f8f31c1461021d5780638da5cb5b1461023057610142565b806334de6d19146101475780633a6c8a2c1461015c57806343fcacd0146101855780634d7f3db0146101a7578063503bd480146101ba575b600080fd5b61015a610155366004613462565b610334565b005b61016f61016a3660046135f4565b61048f565b60405161017c9190613784565b60405180910390f35b610198610193366004613273565b61077c565b60405161017c93929190613dd9565b61015a6101b53660046134e9565b6108b6565b61015a6101c8366004613412565b610a4e565b61015a6101db366004613412565b610b07565b61015a6101ee36600461315a565b610bbb565b6102066102013660046131b1565b610c72565b60405161017c93929190613e30565b61015a610da5565b61015a61022b366004613372565b610e24565b610238610f75565b60405161017c9190613735565b61024d610f84565b60405161017c9190613e02565b61026d610268366004613115565b610f8a565b60405161017c93929190613e0b565b61015a61028a366004613705565b610fe1565b61015a61029d3660046134a2565b61107e565b61015a6102b03660046132e6565b611283565b61015a6102c33660046130c6565b61136e565b61015a6102d636600461351e565b611403565b6102ee6102e93660046131b1565b6114e4565b60405161017c91906137dc565b61015a610309366004613209565b611541565b61024d61031c3660046130e1565b611625565b61015a61032f3660046130c6565b611652565b600061033e611709565b6001600160a01b038085166000908152609b6020908152604080832093891683529290522054909150610371908361170d565b6001600160a01b038085166000818152609b60209081526040808320948a168352939052829020929092555163a9059cbb60e01b815263a9059cbb906103bd908790869060040161376b565b602060405180830381600087803b1580156103d757600080fd5b505af11580156103eb573d6000803e3d6000fd5b505050506040513d601f19601f8201168201806040525081019061040f91906136ce565b6104345760405162461bcd60e51b815260040161042b90613ad9565b60405180910390fd5b826001600160a01b0316846001600160a01b0316826001600160a01b03167f76db671dc988a5ba4764a06da6bfc2a6a8df0d7d373cc205a687084b4a8492f0856040516104819190613e02565b60405180910390a450505050565b6060600061049b611756565b905060005b855181101561065f576104b1612fc1565b8682815181106104bd57fe5b602002602001015190506105f98160000151609a600084600001516001600160a01b03166001600160a01b0316815260200190815260200160002083602001518985602001516001600160a01b03166370a082318c6040518263ffffffff1660e01b815260040161052e9190613735565b60206040518083038186803b15801561054657600080fd5b505afa15801561055a573d6000803e3d6000fd5b505050506040513d601f19601f8201168201806040525081019061057e919061371d565b86602001516001600160a01b03166318160ddd6040518163ffffffff1660e01b815260040160206040518083038186803b1580156105bb57600080fd5b505afa1580156105cf573d6000803e3d6000fd5b505050506040513d601f19601f820116820180604052508101906105f3919061371d565b8961175a565b80516001600160a01b03811660009081526098602090815260408220908401516106269392908a826118ac565b80516001600160a01b03811660009081526099602090815260408220908401516106569392600191908b906118ac565b506001016104a0565b6060845167ffffffffffffffff8111801561067957600080fd5b506040519080825280602002602001820160405280156106b357816020015b6106a0612fc1565b8152602001906001900390816106985790505b509050600091505b84518210156107725760405180604001604052808684815181106106db57fe5b60200260200101516001600160a01b03168152602001609b600088868151811061070157fe5b60200260200101516001600160a01b03166001600160a01b031681526020019081526020016000206000896001600160a01b03166001600160a01b031681526020019081526020016000205481525081838151811061075c57fe5b60209081029190910101526001909101906106bb565b9695505050505050565b6000806000610789612fd8565b851561081657506001600160a01b0380891660009081526099602090815260408083208b8516845260019081018352818420948b16845293825280832061ffff89168452909301815290829020825160608101845290546001600160701b038082168352600160701b82041692820192909252600160e01b90910463ffffffff1691810191909152610899565b506001600160a01b0380891660009081526098602090815260408083208b8516845260019081018352818420948b16845293825280832061ffff89168452909301815290829020825160608101845290546001600160701b038082168352600160701b82041692820192909252600160e01b90910463ffffffff16918101919091525b80516020820151604090920151909a919950975095505050505050565b60006108c0611709565b90506000836001600160a01b03166370a08231876040518263ffffffff1660e01b81526004016108f09190613735565b60206040518083038186803b15801561090857600080fd5b505afa15801561091c573d6000803e3d6000fd5b505050506040513d601f19601f82011682018060405250810190610940919061371d565b90506000846001600160a01b03166318160ddd6040518163ffffffff1660e01b815260040160206040518083038186803b15801561097d57600080fd5b505afa158015610991573d6000803e3d6000fd5b505050506040513d601f19601f820116820180604052508101906109b5919061371d565b6001600160a01b0384166000908152609a602052604090209091506109e7908490878a86866109e2611756565b61175a565b6001600160a01b0383166000908152609860205260408120610a0e91859190888b8b6118ac565b6001600160a01b03841615610a45576001600160a01b0383166000908152609960205260409020610a45908490600188888b6118ac565b50505050505050565b610a56611709565b6065546001600160a01b03908116911614610a835760405162461bcd60e51b815260040161042b90613c0c565b610aba838383610a99610a94611756565b611bc8565b6001600160a01b0389166000908152609a6020526040902093929190611bf1565b816001600160a01b0316836001600160a01b0316856001600160a01b03167f1198b38b5e10d4b1e4cd2866dd9bc4e71e32c649b6ff51addd64e01fb6a6d5ad846040516104819190613e02565b610b0f611709565b6065546001600160a01b03908116911614610b3c5760405162461bcd60e51b815260040161042b90613c0c565b610b6e838383610b4d610a94611756565b6001600160a01b0389166000908152609a6020526040902093929190611cd9565b816001600160a01b0316836001600160a01b0316856001600160a01b03167f4cf47603ce110cd8061678afe77c525be4ca073f4640f629292afcef7be49259846040516104819190613e02565b610bc3611709565b6065546001600160a01b03908116911614610bf05760405162461bcd60e51b815260040161042b90613c0c565b610c22838383610c01610a94611756565b6001600160a01b0389166000908152609a6020526040902093929190611d78565b816001600160a01b0316836001600160a01b0316856001600160a01b03167fbbd41ee308597dd699317716979d8ce8edde7cdde9471c26bfab7752e1186c9460405160405180910390a450505050565b6000806000610c7f612fd8565b8415610d0057506001600160a01b0380881660009081526099602090815260408083208a851684526001018252808320938916835292815290829020825160608101845260029091015463ffffffff80821683526001600160701b03600160201b83041693830193909352600160901b900490911691810191909152610d77565b506001600160a01b0380881660009081526098602090815260408083208a851684526001018252808320938916835292815290829020825160608101845260029091015463ffffffff80821683526001600160701b03600160201b83041693830193909352600160901b9004909116918101919091525b8051602082015160409092015163ffffffff9182169a6001600160701b039093169950169650945050505050565b610dad611709565b6065546001600160a01b03908116911614610dda5760405162461bcd60e51b815260040161042b90613c0c565b6065546040516000916001600160a01b0316907f8be0079c531659141344cd1fd0a4f28419497f9722a3daafe3b4186f6b6457e0908390a3606580546001600160a01b0319169055565b610e2c611709565b6065546001600160a01b03908116911614610e595760405162461bcd60e51b815260040161042b90613c0c565b60008415610e8e576001600160a01b0388166000908152609960205260409020610e87908888878787611e40565b9050610eb7565b6001600160a01b0388166000908152609860205260409020610eb4908888878787611e40565b90505b856001600160a01b0316876001600160a01b0316896001600160a01b03167f0ee63f5b7633ec1ad321f6f89b83ec0993c2cc680112d7b153759242a655ed43888888604051610f089392919061382d565b60405180910390a4856001600160a01b0316876001600160a01b0316896001600160a01b03167f5030027163f1655f8ac4c205c22bfe42c59f83e61a7c15da775499920b21431488858888604051610f639493929190613854565b60405180910390a45050505050505050565b6065546001600160a01b031690565b60975490565b6001600160a01b0383166000908152609a60205260408120819081908190610fb3908787611f53565b805460019091015490986001600160801b0382169850600160801b90910463ffffffff169650945050505050565b610fe9611709565b6065546001600160a01b039081169116146110165760405162461bcd60e51b815260040161042b90613c0c565b670de0b6b3a764000081111561103e5760405162461bcd60e51b815260040161042b90613a26565b60978190556040517f596f4db485f9f39633eefcb1b04b10114fc6bc60e5feff327e5b2cace874129f90611073908390613e02565b60405180910390a150565b6001600160a01b0384166110915761127d565b600061109b611709565b90506000826001600160a01b03166318160ddd6040518163ffffffff1660e01b815260040160206040518083038186803b1580156110d857600080fd5b505afa1580156110ec573d6000803e3d6000fd5b505050506040513d601f19601f82011682018060405250810190611110919061371d565b90506000836001600160a01b03166370a08231886040518263ffffffff1660e01b81526004016111409190613735565b60206040518083038186803b15801561115857600080fd5b505afa15801561116c573d6000803e3d6000fd5b505050506040513d601f19601f82011682018060405250810190611190919061371d565b6001600160a01b0384166000908152609a602052604090209091506111bd908490868a85876109e2611756565b6001600160a01b03861615610a45576040516370a0823160e01b81526000906001600160a01b038616906370a08231906111fb908a90600401613735565b60206040518083038186803b15801561121357600080fd5b505afa158015611227573d6000803e3d6000fd5b505050506040513d601f19601f8201168201806040525081019061124b919061371d565b6001600160a01b0385166000908152609a60205260409020909150611278908590878a85886109e2611756565b505050505b50505050565b61128b611709565b6065546001600160a01b039081169116146112b85760405162461bcd60e51b815260040161042b90613c0c565b82156112e8576001600160a01b03861660009081526099602052604090206112e39086868585611f7f565b61130d565b6001600160a01b038616600090815260986020526040902061130d9086868585611f7f565b836001600160a01b0316856001600160a01b0316876001600160a01b03167f401facfe78ba5adec5aae1404afebf8e3a77cb5dfdf5b4b611504d626d9a2ed586868660405161135e9392919061382d565b60405180910390a4505050505050565b600054610100900460ff16806113875750611387611fef565b80611395575060005460ff16155b6113b15760405162461bcd60e51b815260040161042b90613cb0565b600054610100900460ff161580156113dc576000805460ff1961ff0019909116610100171660011790555b6113e4611ff5565b6113ed82611652565b80156113ff576000805461ff00191690555b5050565b60606114958686808060200260200160405190810160405280939291908181526020016000905b8282101561145657611447604083028601368190038101906136ea565b8152602001906001019061142a565b50505050508585858080602002602001604051908101604052809392919081815260200183836020028082843760009201919091525061048f92505050565b905060005b8151811015610a45576114dc858383815181106114b357fe5b6020026020010151600001518484815181106114cb57fe5b602002602001015160200151610334565b60010161149a565b60008115611516576001600160a01b038516600090815260996020526040902061150f908585612088565b9050611539565b6001600160a01b038516600090815260986020526040902061150f908585612088565b949350505050565b611549611709565b6065546001600160a01b039081169116146115765760405162461bcd60e51b815260040161042b90613c0c565b81156115a5576001600160a01b03851660009081526099602052604090206115a0908585846120aa565b6115c9565b6001600160a01b03851660009081526098602052604090206115c9908585846120aa565b826001600160a01b0316846001600160a01b0316866001600160a01b03167f9684c938581734d57a998217c38505f0c4fc95afd0af9da2c97b9822ee7a66c88560405161161691906137dc565b60405180910390a45050505050565b6001600160a01b038083166000908152609b60209081526040808320938516835292905220545b92915050565b61165a611709565b6065546001600160a01b039081169116146116875760405162461bcd60e51b815260040161042b90613c0c565b6001600160a01b0381166116ad5760405162461bcd60e51b815260040161042b906139a9565b6065546040516001600160a01b038084169216907f8be0079c531659141344cd1fd0a4f28419497f9722a3daafe3b4186f6b6457e090600090a3606580546001600160a01b0319166001600160a01b0392909216919091179055565b3390565b600061174f83836040518060400160405280601e81526020017f536166654d6174683a207375627472616374696f6e206f766572666c6f7700008152506120cd565b9392505050565b4290565b6001600160a01b038516600090815260208790526040812061177b906120f9565b90505b6001600160a01b038116158015906117c857506001600160a01b03861660009081526020889052604090206117b290612116565b6001600160a01b0316816001600160a01b031614155b15611278576001600160a01b0380871660009081526001890160209081526040808320938516835292905290812090611804828888888861211c565b90506001600160801b03811615611881576118298388836001600160801b0316612134565b826001600160a01b0316886001600160a01b03168b6001600160a01b03167f782be3085b3ef7b927740f3ed02f7393ee3f20b8fe87595484dbf65c5be4230d8a85604051611878929190613749565b60405180910390a45b6001600160a01b038816600090815260208a9052604090206118a390846121d1565b9250505061177e565b60006118b6611756565b6001600160a01b0385166000908152602088905260408120919250906118db906120f9565b90505b6001600160a01b0381161580159061192857506001600160a01b038516600090815260208890526040902061191290612116565b6001600160a01b0316816001600160a01b031614155b15611278576001600160a01b038086166000908152600189016020908152604080832093851683529290529081209080611964838888886121f4565b909250905081156119d45761197a848884612134565b836001600160a01b0316886001600160a01b03168c6001600160a01b03167f06c65e2aee0f9ad46bde72ca6800e5b29333356dc073eba0e3995ffc980148f78c8b876040516119cb939291906137e7565b60405180910390a45b8015611b9c576002830154600090611a0890611a039063ffffffff600160901b90910481169060019061170d16565b612429565b9050846001600160a01b0316896001600160a01b03168d6001600160a01b03167fa2ec807a0c220b85f5b188be41d7d35248cc5abe1a2fab6c33d31132cdd682c38d858960010160008861ffff1663ffffffff16815260200190815260200160002060000160009054906101000a90046001600160701b0316604051611a9093929190613808565b60405180910390a4846001600160a01b0316896001600160a01b03168d6001600160a01b03167f5030027163f1655f8ac4c205c22bfe42c59f83e61a7c15da775499920b2143148d8860020160129054906101000a900463ffffffff168960010160008b60020160129054906101000a900463ffffffff1663ffffffff1663ffffffff168152602001908152602001600020600001600e9054906101000a90046001600160701b03168a60010160008c60020160129054906101000a900463ffffffff1663ffffffff1663ffffffff168152602001908152602001600020600001601c9054906101000a900463ffffffff16604051611b929493929190613854565b60405180910390a4505b6001600160a01b038816600090815260208b905260409020611bbe90856121d1565b93505050506118de565b6000600160201b8210611bed5760405162461bcd60e51b815260040161042b90613d25565b5090565b6001600160a01b0384166000908152602086905260409020611c13908461244d565b611c2f5760405162461bcd60e51b815260040161042b90613b89565b611cd2846001600160a01b03166318160ddd6040518163ffffffff1660e01b815260040160206040518083038186803b158015611c6b57600080fd5b505afa158015611c7f573d6000803e3d6000fd5b505050506040513d601f19601f82011682018060405250810190611ca3919061371d565b6001600160a01b038087166000908152600189016020908152604080832093891683529290522090848461249e565b5050505050565b6001600160a01b0384166000908152602086905260409020611cfb908461244d565b15611d185760405162461bcd60e51b815260040161042b906138d6565b6001600160a01b038416600090815260208690526040902054611d56576001600160a01b0384166000908152602086905260409020611d56906124b6565b6001600160a01b0384166000908152602086905260409020611c2f90846124fa565b6001600160a01b0384166000908152602086905260409020611d9b9083856125c2565b611cd2846001600160a01b03166318160ddd6040518163ffffffff1660e01b815260040160206040518083038186803b158015611dd757600080fd5b505afa158015611deb573d6000803e3d6000fd5b505050506040513d601f19601f82011682018060405250810190611e0f919061371d565b6001600160a01b0380871660009081526001890160209081526040808320938916835292905290812091908461249e565b6001600160a01b0385166000908152602087905260408120611e62908661244d565b15611e7f5760405162461bcd60e51b815260040161042b90613da2565b6001600160a01b038616600090815260208890526040902054611ebd576001600160a01b0386166000908152602088905260409020611ebd906124b6565b6001600160a01b0386166000908152602088905260409020611edf90866124fa565b6001600160a01b0380871660009081526001890160209081526040808320938916835292905220611f129085858561268c565b505050506001600160a01b0391821660009081526001939093016020908152604080852092909316845252902060020154600160901b900463ffffffff1690565b6001600160a01b0391821660009081526001939093016020908152604080852092909316845252902090565b6001600160a01b0384166000908152602086905260409020611fa1908461244d565b611fbd5760405162461bcd60e51b815260040161042b90613b48565b6001600160a01b0380851660009081526001870160209081526040808320938716835292905220611cd29083836127c2565b303b1590565b600054610100900460ff168061200e575061200e611fef565b8061201c575060005460ff16155b6120385760405162461bcd60e51b815260040161042b90613cb0565b600054610100900460ff16158015612063576000805460ff1961ff0019909116610100171660011790555b61206b612830565b6120736128b1565b8015612085576000805461ff00191690555b50565b6001600160a01b0382166000908152602084905260408120611539908361244d565b6001600160a01b038316600090815260208590526040902061127d9082846125c2565b600081848411156120f15760405162461bcd60e51b815260040161042b9190613883565b505050900390565b60016000818152910160205260409020546001600160a01b031690565b50600190565b600061212986848461298b565b610772868686612ae0565b6001600160a01b038084166000908152609b60209081526040808320938616835292905220546121649082612b9f565b6001600160a01b038085166000818152609b6020908152604080832094881680845294909152908190209390935591519091907f0f3ed8b918f23095606f705f6253b10267861573421cf05301b0f1f006c92b44906121c4908590613e02565b60405180910390a3505050565b6001600160a01b0380821660009081526001840160205260409020541692915050565b600284015460009081908690600160901b900463ffffffff166122295760405162461bcd60e51b815260040161042b90613b1a565b6122338785612bc4565b6001600160a01b03871660009081526020899052604090205490925061227190889063ffffffff600160701b820416906001600160701b0316612bf0565b6002880154909350600160901b900463ffffffff16831561230c5760405180604001604052806122a088612c94565b6001600160701b03908116825263ffffffff8085166020938401526001600160a01b038b1660009081528c845260409020845181549590940151909116600160701b0263ffffffff60701b19939092166001600160701b031990941693909317919091161790556123b4565b6040805180820182526001600160a01b038916600090815260208b90529190912054819061234c90612347906001600160701b03168a612b9f565b612c94565b6001600160701b03908116825263ffffffff8085166020938401526001600160a01b038b1660009081528c845260409020845181549590940151909116600160701b0263ffffffff60701b19939092166001600160701b031990941693909317919091161790555b63ffffffff808216600090815260018a0160205260409020546123e791612347916001600160701b0316908990612b9f16565b63ffffffff9091166000908152600189016020526040902080546001600160701b03929092166001600160701b03199092169190911790555094509492505050565b6000620100008210611bed5760405162461bcd60e51b815260040161042b9061390d565b60006001600160a01b03821660011480159061247157506001600160a01b03821615155b801561174f5750506001600160a01b03908116600090815260019290920160205260409091205416151590565b6124af84848363ffffffff1661298b565b5090915550565b8054156124d55760405162461bcd60e51b815260040161042b90613c41565b60016000818152918101602052604090912080546001600160a01b0319169091179055565b6001600160a01b03811660011480159061251c57506001600160a01b03811615155b6125385760405162461bcd60e51b815260040161042b90613953565b6001600160a01b03818116600090815260018401602052604090205416156125725760405162461bcd60e51b815260040161042b90613cfe565b60016000818152838201602052604080822080546001600160a01b039586168085529284208054969091166001600160a01b03199687161790559183905281549093169092179091558154019055565b6001600160a01b0381166001148015906125e457506001600160a01b03811615155b6126005760405162461bcd60e51b815260040161042b90613953565b6001600160a01b03828116600090815260018501602052604090205481169082161461263e5760405162461bcd60e51b815260040161042b9061397c565b6001600160a01b039081166000818152600185016020526040808220805495851683529082208054959094166001600160a01b03199586161790935552805490911690558054600019019055565b8263ffffffff16600081116126b35760405162461bcd60e51b815260040161042b906139ef565b60028501546126d990611a039063ffffffff600160901b909104811690600190612b9f16565b60028601805463ffffffff60901b191661ffff92909216600160901b908102929092178082556040805160608101825260008082526001600160701b03988916602080840182815263ffffffff9a8b16858701908152989096048a1683526001909c01909b529190912090518154925194516001600160701b031990931690881617600160701b600160e01b031916600160701b9490971693909302959095176001600160e01b0316600160e01b9585169590950294909417905550815463ffffffff1916921691909117640100000000600160901b031916600160201b909202919091179055565b8163ffffffff16600081116127e95760405162461bcd60e51b815260040161042b906139ef565b50600290920180546001600160701b03909316600160201b02640100000000600160901b031963ffffffff90931663ffffffff199094169390931791909116919091179055565b600054610100900460ff16806128495750612849611fef565b80612857575060005460ff16155b6128735760405162461bcd60e51b815260040161042b90613cb0565b600054610100900460ff16158015612073576000805460ff1961ff0019909116610100171660011790558015612085576000805461ff001916905550565b600054610100900460ff16806128ca57506128ca611fef565b806128d8575060005460ff16155b6128f45760405162461bcd60e51b815260040161042b90613cb0565b600054610100900460ff1615801561291f576000805460ff1961ff0019909116610100171660011790555b6000612929611709565b606580546001600160a01b0319166001600160a01b038316908117909155604051919250906000907f8be0079c531659141344cd1fd0a4f28419497f9722a3daafe3b4186f6b6457e0908290a3508015612085576000805461ff001916905550565b600183015463ffffffff828116600160801b9092041614156129ac57612adb565b6001830154600090600160801b900463ffffffff16156129dd576001840154600160801b900463ffffffff166129df565b815b905060006129ed838361170d565b60018601549091506000906001600160801b031615612a195760018601546001600160801b0316612a2a565b612a2a670de0b6b3a7640000612cb9565b9050600082118015612a3c5750855415155b15612a8f578554600090612a51908490612cde565b90506000808711612a63576000612a6d565b612a6d8288612d18565b9050612a8a612a856001600160801b03851683612b9f565b612cb9565b925050505b6001860180546001600160801b0319166001600160801b038316179055612ab584611bc8565b8660010160106101000a81548163ffffffff021916908363ffffffff1602179055505050505b505050565b6001600160a01b0382166000908152600284016020526040812080546001600160801b031680612b1a575060018501546001600160801b03165b6001860154600090612b35906001600160801b03168361170d565b90506000612b46612a858784612d39565b604080516020808201835260018c01546001600160801b0390811683526001600160a01b039b909b1660009081526002909c0190529920985189546001600160801b031916981697909717909755509395945050505050565b60008282018381101561174f5760405162461bcd60e51b815260040161042b90613a5b565b6000612bd08383612d5a565b15612be757612bdf8383612d90565b50600161164c565b50600092915050565b6002830154600090819063ffffffff600160901b9091048116908516108015612c38575063ffffffff841660009081526001860160205260409020546001600160701b031615155b156115395763ffffffff84166000908152600186016020526040812054612c72906001600160801b038616906001600160701b0316612d18565b600287015490915061077290600160201b90046001600160701b031682612d39565b6000600160701b8210611bed5760405162461bcd60e51b815260040161042b90613c67565b6000600160801b8210611bed5760405162461bcd60e51b815260040161042b90613a92565b600082612ced5750600061164c565b82820282848281612cfa57fe5b041461174f5760405162461bcd60e51b815260040161042b90613bcb565b600080612d2d84670de0b6b3a7640000612cde565b90506115398184612f4d565b600080612d468385612cde565b905061153981670de0b6b3a7640000612f4d565b600282015463ffffffff600160901b90910481166000908152600184016020526040902054600160e01b90041681101592915050565b8181612d9c8282612d5a565b612db85760405162461bcd60e51b815260040161042b90613d6b565b600284015463ffffffff600160901b82048116600090815260018088016020526040822054600160e01b90048316939192612e0f92612e099190811690612e03908a90889061170d16565b90612f4d565b90612b9f565b6002870154909150600090612e3a90612e3390849063ffffffff90811690612cde16565b8490612b9f565b6002880154909150612e6390611a039063ffffffff600160901b909104811690600190612b9f16565b60028801805463ffffffff60901b191661ffff92909216600160901b02919091179081905560408051606081018252600081526001600160701b03600160201b9093049290921660208301528101612eba83611bc8565b63ffffffff9081169091526002890154600160901b900481166000908152600190990160209081526040998a9020835181549285015194909b01516001600160701b03199092166001600160701b039b8c1617600160701b600160e01b031916600160701b9b9094169a909a02929092176001600160e01b0316600160e01b929091169190910217909655505050505050565b600061174f83836040518060400160405280601a81526020017f536166654d6174683a206469766973696f6e206279207a65726f00000000000081525060008183612fab5760405162461bcd60e51b815260040161042b9190613883565b506000838581612fb757fe5b0495945050505050565b604080518082019091526000808252602082015290565b604080516060810182526000808252602082018190529181019190915290565b80356001600160a01b038116811461164c57600080fd5b600082601f83011261301f578081fd5b813561303261302d82613e6d565b613e46565b81815291506020808301908481018184028601820187101561305357600080fd5b60005b8481101561307a576130688883612ff8565b84529282019290820190600101613056565b505050505092915050565b600060408284031215613096578081fd5b6130a06040613e46565b90506130ac8383612ff8565b81526130bb8360208401612ff8565b602082015292915050565b6000602082840312156130d7578081fd5b61174f8383612ff8565b600080604083850312156130f3578081fd5b6130fd8484612ff8565b915061310c8460208501612ff8565b90509250929050565b600080600060608486031215613129578081fd5b6131338585612ff8565b92506131428560208601612ff8565b91506131518560408601612ff8565b90509250925092565b6000806000806080858703121561316f578081fd5b6131798686612ff8565b93506131888660208701612ff8565b92506131978660408701612ff8565b91506131a68660608701612ff8565b905092959194509250565b600080600080608085870312156131c6578384fd5b6131d08686612ff8565b93506131df8660208701612ff8565b92506131ee8660408701612ff8565b915060608501356131fe81613ea2565b939692955090935050565b600080600080600060a08688031215613220578081fd5b61322a8787612ff8565b94506132398760208801612ff8565b93506132488760408801612ff8565b9250606086013561325881613ea2565b91506132678760808801612ff8565b90509295509295909350565b600080600080600060a0868803121561328a578081fd5b6132948787612ff8565b94506132a38760208801612ff8565b93506132b28760408801612ff8565b925060608601356132c281613ea2565b9150608086013561ffff811681146132d8578182fd5b809150509295509295909350565b60008060008060008060c087890312156132fe578384fd5b863561330981613e8d565b9550602087013561331981613e8d565b9450604087013561332981613e8d565b9350606087013561333981613ea2565b9250608087013561334981613eb0565b915060a08701356001600160701b0381168114613364578182fd5b809150509295509295509295565b600080600080600080600060e0888a03121561338c578485fd5b873561339781613e8d565b965060208801356133a781613e8d565b955060408801356133b781613e8d565b945060608801356133c781613ea2565b935060808801356133d781613eb0565b925060a08801356001600160701b03811681146133f2578182fd5b915060c088013561340281613eb0565b8091505092959891949750929550565b60008060008060808587031215613427578182fd5b843561343281613e8d565b9350602085013561344281613e8d565b9250604085013561345281613e8d565b9396929550929360600135925050565b600080600060608486031215613476578081fd5b833561348181613e8d565b9250602084013561349181613e8d565b929592945050506040919091013590565b600080600080608085870312156134b7578182fd5b84356134c281613e8d565b935060208501356134d281613e8d565b92506040850135915060608501356131fe81613e8d565b600080600080608085870312156134fe578182fd5b6135088686612ff8565b9350602085013592506131978660408701612ff8565b600080600080600060608688031215613535578283fd5b853567ffffffffffffffff8082111561354c578485fd5b818801915088601f83011261355f578485fd5b81358181111561356d578586fd5b60208a81604084028601011115613582578687fd5b80840198508197506135968b828c01612ff8565b965060408a01359350828411156135ab578485fd5b838a0193508a601f8501126135be578485fd5b83359150828211156135ce578485fd5b8a8182840286010111156135e0578485fd5b979a96995094975050909401935090919050565b600080600060608486031215613608578081fd5b833567ffffffffffffffff8082111561361f578283fd5b818601915086601f830112613632578283fd5b813561364061302d82613e6d565b808282526020808301925080860160408c838288028a01011115613662578889fd5b8897505b8588101561368e576136788d83613085565b8552600197909701969382019390810190613666565b839a5061369d8d848e01612ff8565b9950808c01359750505050505050808211156136b7578283fd5b506136c48682870161300f565b9150509250925092565b6000602082840312156136df578081fd5b815161174f81613ea2565b6000604082840312156136fb578081fd5b61174f8383613085565b600060208284031215613716578081fd5b5035919050565b60006020828403121561372e578081fd5b5051919050565b6001600160a01b0391909116815260200190565b6001600160a01b039290921682526001600160801b0316602082015260400190565b6001600160a01b03929092168252602082015260400190565b602080825282518282018190526000919060409081850190868401855b828110156137cf57815180516001600160a01b031685528601518685015292840192908501906001016137a1565b5091979650505050505050565b901515815260200190565b92151583526001600160a01b03919091166020830152604082015260600190565b921515835261ffff9190911660208301526001600160701b0316604082015260600190565b921515835263ffffffff9190911660208301526001600160701b0316604082015260600190565b931515845263ffffffff92831660208501526001600160701b0391909116604084015216606082015260800190565b6000602080835283518082850152825b818110156138af57858101830151858201604001528201613893565b818111156138c05783604083870101525b50601f01601f1916929092016040019392505050565b6020808252601e908201527f42616c616e6365447269704d616e616765722f647269702d6163746976650000604082015260600190565b60208082526026908201527f53616665436173743a2076616c756520646f65736e27742066697420696e203160408201526536206269747360d01b606082015260800190565b6020808252600f908201526e496e76616c6964206164647265737360881b604082015260600190565b602080825260139082015272496e76616c696420707265764164647265737360681b604082015260600190565b60208082526026908201527f4f776e61626c653a206e6577206f776e657220697320746865207a65726f206160408201526564647265737360d01b606082015260800190565b60208082526019908201527f566f6c756d65447269702f706572696f642d67742d7a65726f00000000000000604082015260600190565b6020808252818101527f436f6d7074726f6c6c65722f726573657276652d726174652d6c74652d6f6e65604082015260600190565b6020808252601b908201527f536166654d6174683a206164646974696f6e206f766572666c6f770000000000604082015260600190565b60208082526027908201527f53616665436173743a2076616c756520646f65736e27742066697420696e20316040820152663238206269747360c81b606082015260800190565b60208082526021908201527f436f6d7074726f6c6c65722f636c61696d2d7472616e736665722d6661696c656040820152601960fa1b606082015260800190565b602080825260149082015273159bdb1d5b59511c9a5c0bdb9bcb5c195c9a5bd960621b604082015260600190565b60208082526021908201527f566f6c756d65447269704d616e616765722f647269702d6e6f742d61637469766040820152606560f81b606082015260800190565b60208082526022908201527f42616c616e6365447269704d616e616765722f647269702d6e6f742d61637469604082015261766560f01b606082015260800190565b60208082526021908201527f536166654d6174683a206d756c7469706c69636174696f6e206f766572666c6f6040820152607760f81b606082015260800190565b6020808252818101527f4f776e61626c653a2063616c6c6572206973206e6f7420746865206f776e6572604082015260600190565b6020808252600c908201526b105b1c9958591e481a5b9a5d60a21b604082015260600190565b60208082526029908201527f53616665436173743a2076616c756520646f65736e27742066697420696e206160408201526837103ab4b73a18989960b91b606082015260800190565b6020808252602e908201527f436f6e747261637420696e7374616e63652068617320616c726561647920626560408201526d195b881a5b9a5d1a585b1a5e995960921b606082015260800190565b6020808252600d908201526c105b1c9958591e481859191959609a1b604082015260600190565b60208082526026908201527f53616665436173743a2076616c756520646f65736e27742066697420696e203360408201526532206269747360d01b606082015260800190565b6020808252601a908201527f566f6c756d65447269702f706572696f642d6e6f742d6f766572000000000000604082015260600190565b6020808252601d908201527f566f6c756d65447269704d616e616765722f647269702d616374697665000000604082015260600190565b6001600160701b03938416815291909216602082015263ffffffff909116604082015260600190565b90815260200190565b9283526001600160801b0391909116602083015263ffffffff16604082015260600190565b9283526020830191909152604082015260600190565b60405181810167ffffffffffffffff81118282101715613e6557600080fd5b604052919050565b600067ffffffffffffffff821115613e83578081fd5b5060209081020190565b6001600160a01b038116811461208557600080fd5b801515811461208557600080fd5b63ffffffff8116811461208557600080fdfea2646970667358221220da67757efc0a4d989ffafc2bdf4481d065e8dc9e474de968fd674e2f08a5327964736f6c634300060c0033"
}