{
  "abi": [
    {
      "inputs": [
        {
          "internalType": "contract ControlledTokenProxyFactory",
          "name": "_controlledTokenProxyFactory",
          "type": "address"
        },
        {
          "internalType": "contract TicketProxyFactory",
          "name": "_ticketProxyFactory",
          "type": "address"
        }
      ],
      "stateMutability": "nonpayable",
      "type": "constructor"
    },
    {
      "anonymous": false,
      "inputs": [
        {
          "indexed": true,
          "internalType": "address",
          "name": "token",
          "type": "address"
        }
      ],
      "name": "CreatedControlledToken",
      "type": "event"
    },
    {
      "anonymous": false,
      "inputs": [
        {
          "indexed": true,
          "internalType": "address",
          "name": "token",
          "type": "address"
        }
      ],
      "name": "CreatedTicket",
      "type": "event"
    },
    {
      "inputs": [],
      "name": "controlledTokenProxyFactory",
      "outputs": [
        {
          "internalType": "contract ControlledTokenProxyFactory",
          "name": "",
          "type": "address"
        }
      ],
      "stateMutability": "view",
      "type": "function"
    },
    {
      "inputs": [
        {
          "components": [
            {
              "internalType": "string",
              "name": "name",
              "type": "string"
            },
            {
              "internalType": "string",
              "name": "symbol",
              "type": "string"
            },
            {
              "internalType": "uint8",
              "name": "decimals",
              "type": "uint8"
            },
            {
              "internalType": "contract TokenControllerInterface",
              "name": "controller",
              "type": "address"
            }
          ],
          "internalType": "struct ControlledTokenBuilder.ControlledTokenConfig",
          "name": "config",
          "type": "tuple"
        }
      ],
      "name": "createControlledToken",
      "outputs": [
        {
          "internalType": "contract ControlledToken",
          "name": "",
          "type": "address"
        }
      ],
      "stateMutability": "nonpayable",
      "type": "function"
    },
    {
      "inputs": [
        {
          "components": [
            {
              "internalType": "string",
              "name": "name",
              "type": "string"
            },
            {
              "internalType": "string",
              "name": "symbol",
              "type": "string"
            },
            {
              "internalType": "uint8",
              "name": "decimals",
              "type": "uint8"
            },
            {
              "internalType": "contract TokenControllerInterface",
              "name": "controller",
              "type": "address"
            }
          ],
          "internalType": "struct ControlledTokenBuilder.ControlledTokenConfig",
          "name": "config",
          "type": "tuple"
        }
      ],
      "name": "createTicket",
      "outputs": [
        {
          "internalType": "contract Ticket",
          "name": "",
          "type": "address"
        }
      ],
      "stateMutability": "nonpayable",
      "type": "function"
    },
    {
      "inputs": [],
      "name": "ticketProxyFactory",
      "outputs": [
        {
          "internalType": "contract TicketProxyFactory",
          "name": "",
          "type": "address"
        }
      ],
      "stateMutability": "view",
      "type": "function"
    }
  ],
  "address": "0x239fC7c69Ba8079ebEC07156F13a6d78d234Fa6B",
  "args": [
    "0xF8D06e34Df36fB32Bb69D575AF4d17f83FE4B884",
    "0xccad64BB6Bb69c7D31458D8e10e246bA3cC8FED4"
  ],
  "solcInputHash": "0x65c54a092a85fed1297338a9ab810eb58fd00e8c51d917bd9b84b44e33eb5480",
  "bytecode": "0x608060405234801561001057600080fd5b506040516106f03803806106f083398101604081905261002f916100b5565b6001600160a01b03821661005e5760405162461bcd60e51b815260040161005590610140565b60405180910390fd5b6001600160a01b0381166100845760405162461bcd60e51b8152600401610055906100ee565b600080546001600160a01b039384166001600160a01b031991821617909155600180549290931691161790556101b5565b600080604083850312156100c7578182fd5b82516100d28161019d565b60208401519092506100e38161019d565b809150509250929050565b60208082526032908201527f436f6e74726f6c6c6564546f6b656e4275696c6465722f7469636b657450726f6040820152717879466163746f72792d6e6f742d7a65726f60701b606082015260800190565b6020808252603b908201527f436f6e74726f6c6c6564546f6b656e4275696c6465722f636f6e74726f6c6c6560408201527f64546f6b656e50726f7879466163746f72792d6e6f742d7a65726f0000000000606082015260800190565b6001600160a01b03811681146101b257600080fd5b50565b61052c806101c46000396000f3fe608060405234801561001057600080fd5b506004361061004c5760003560e01c80636a81d8bd146100515780638c0cd38d1461006f5780638e22585d14610082578063aa3b296c14610095575b600080fd5b61005961009d565b6040516100669190610430565b60405180910390f35b61005961007d3660046103ad565b6100ac565b6100596100903660046103ad565b6101ff565b61005961035f565b6000546001600160a01b031681565b6000805460408051633bf206a360e21b8152905183926001600160a01b03169163efc81a8c91600480830192602092919082900301818787803b1580156100f257600080fd5b505af1158015610106573d6000803e3d6000fd5b505050506040513d601f19601f8201168201806040525081019061012a919061036e565b90506001600160a01b03811663de7ea79d6101458580610492565b6101526020880188610492565b61016260608a0160408b016103e5565b61017260808b0160608c01610391565b6040518763ffffffff1660e01b815260040161019396959493929190610444565b600060405180830381600087803b1580156101ad57600080fd5b505af11580156101c1573d6000803e3d6000fd5b50506040516001600160a01b03841692507fe3d5734f17a493c850907f8a8366a543676afd8eeb9b7cd16e22c998297d8ebd9150600090a292915050565b600080600160009054906101000a90046001600160a01b03166001600160a01b031663efc81a8c6040518163ffffffff1660e01b8152600401602060405180830381600087803b15801561025257600080fd5b505af1158015610266573d6000803e3d6000fd5b505050506040513d601f19601f8201168201806040525081019061028a919061036e565b90506001600160a01b03811663de7ea79d6102a58580610492565b6102b26020880188610492565b6102c260608a0160408b016103e5565b6102d260808b0160608c01610391565b6040518763ffffffff1660e01b81526004016102f396959493929190610444565b600060405180830381600087803b15801561030d57600080fd5b505af1158015610321573d6000803e3d6000fd5b50506040516001600160a01b03841692507ff771026f1a6d488c23bb75726c18bcc96f290b64209576da54a46c80fd335cab9150600090a292915050565b6001546001600160a01b031681565b60006020828403121561037f578081fd5b815161038a816104de565b9392505050565b6000602082840312156103a2578081fd5b813561038a816104de565b6000602082840312156103be578081fd5b813567ffffffffffffffff8111156103d4578182fd5b82016080818503121561038a578182fd5b6000602082840312156103f6578081fd5b813560ff8116811461038a578182fd5b60008284528282602086013780602084860101526020601f19601f85011685010190509392505050565b6001600160a01b0391909116815260200190565b60006080825261045860808301888a610406565b828103602084015261046b818789610406565b60ff95909516604084015250506001600160a01b0391909116606090910152949350505050565b6000808335601e198436030181126104a8578283fd5b83018035915067ffffffffffffffff8211156104c2578283fd5b6020019150368190038213156104d757600080fd5b9250929050565b6001600160a01b03811681146104f357600080fd5b5056fea26469706673582212208b4fee3a22ca404a4af8e35a07710406893fe5f6684abd0b608065b3501e9e7664736f6c634300060c0033",
  "devdoc": {
    "kind": "dev",
    "methods": {},
    "version": 1
  },
  "userdoc": {
    "kind": "user",
    "methods": {},
    "version": 1
  },
  "storageLayout": {
    "storage": [
      {
        "astId": 13075,
        "contract": "contracts/builders/ControlledTokenBuilder.sol:ControlledTokenBuilder",
        "label": "controlledTokenProxyFactory",
        "offset": 0,
        "slot": "0",
        "type": "t_contract(ControlledTokenProxyFactory)27275"
      },
      {
        "astId": 13077,
        "contract": "contracts/builders/ControlledTokenBuilder.sol:ControlledTokenBuilder",
        "label": "ticketProxyFactory",
        "offset": 0,
        "slot": "1",
        "type": "t_contract(TicketProxyFactory)27547"
      }
    ],
    "types": {
      "t_contract(ControlledTokenProxyFactory)27275": {
        "encoding": "inplace",
        "label": "contract ControlledTokenProxyFactory",
        "numberOfBytes": "20"
      },
      "t_contract(TicketProxyFactory)27547": {
        "encoding": "inplace",
        "label": "contract TicketProxyFactory",
        "numberOfBytes": "20"
      }
    }
  },
  "gasEstimates": {
    "creation": {
      "codeDepositCost": "264800",
      "executionCost": "infinite",
      "totalCost": "infinite"
    },
    "external": {
      "controlledTokenProxyFactory()": "1048",
      "createControlledToken((string,string,uint8,address))": "infinite",
      "createTicket((string,string,uint8,address))": "infinite",
      "ticketProxyFactory()": "1114"
    }
  }
}