{
  "abi": [
    {
      "inputs": [
        {
          "internalType": "address",
          "name": "_trustedForwarder",
          "type": "address"
        },
        {
          "internalType": "contract ControlledTokenProxyFactory",
          "name": "_controlledTokenProxyFactory",
          "type": "address"
        },
        {
          "internalType": "contract TicketProxyFactory",
          "name": "_ticketProxyFactory",
          "type": "address"
        }
      ],
      "stateMutability": "nonpayable",
      "type": "constructor"
    },
    {
      "anonymous": false,
      "inputs": [
        {
          "indexed": true,
          "internalType": "address",
          "name": "token",
          "type": "address"
        }
      ],
      "name": "CreatedControlledToken",
      "type": "event"
    },
    {
      "anonymous": false,
      "inputs": [
        {
          "indexed": true,
          "internalType": "address",
          "name": "token",
          "type": "address"
        }
      ],
      "name": "CreatedTicket",
      "type": "event"
    },
    {
      "inputs": [],
      "name": "controlledTokenProxyFactory",
      "outputs": [
        {
          "internalType": "contract ControlledTokenProxyFactory",
          "name": "",
          "type": "address"
        }
      ],
      "stateMutability": "view",
      "type": "function"
    },
    {
      "inputs": [
        {
          "components": [
            {
              "internalType": "string",
              "name": "name",
              "type": "string"
            },
            {
              "internalType": "string",
              "name": "symbol",
              "type": "string"
            },
            {
              "internalType": "uint8",
              "name": "decimals",
              "type": "uint8"
            },
            {
              "internalType": "contract TokenControllerInterface",
              "name": "controller",
              "type": "address"
            },
            {
              "internalType": "bool",
              "name": "useGSN",
              "type": "bool"
            }
          ],
          "internalType": "struct ControlledTokenBuilder.ControlledTokenConfig",
          "name": "config",
          "type": "tuple"
        }
      ],
      "name": "createControlledToken",
      "outputs": [
        {
          "internalType": "contract ControlledToken",
          "name": "",
          "type": "address"
        }
      ],
      "stateMutability": "nonpayable",
      "type": "function"
    },
    {
      "inputs": [
        {
          "components": [
            {
              "internalType": "string",
              "name": "name",
              "type": "string"
            },
            {
              "internalType": "string",
              "name": "symbol",
              "type": "string"
            },
            {
              "internalType": "uint8",
              "name": "decimals",
              "type": "uint8"
            },
            {
              "internalType": "contract TokenControllerInterface",
              "name": "controller",
              "type": "address"
            },
            {
              "internalType": "bool",
              "name": "useGSN",
              "type": "bool"
            }
          ],
          "internalType": "struct ControlledTokenBuilder.ControlledTokenConfig",
          "name": "config",
          "type": "tuple"
        }
      ],
      "name": "createTicket",
      "outputs": [
        {
          "internalType": "contract Ticket",
          "name": "",
          "type": "address"
        }
      ],
      "stateMutability": "nonpayable",
      "type": "function"
    },
    {
      "inputs": [],
      "name": "ticketProxyFactory",
      "outputs": [
        {
          "internalType": "contract TicketProxyFactory",
          "name": "",
          "type": "address"
        }
      ],
      "stateMutability": "view",
      "type": "function"
    },
    {
      "inputs": [],
      "name": "trustedForwarder",
      "outputs": [
        {
          "internalType": "address",
          "name": "",
          "type": "address"
        }
      ],
      "stateMutability": "view",
      "type": "function"
    }
  ],
  "address": "0xdDf547560eccf082af39FEa77DF60dF664Cdb72E",
  "args": [
    "0x956868751Cc565507B3B58E53a6f9f41B56bed74",
    "0xD1e536939F637Fc12f29C304c406377c9f77E28c",
    "0x1f96f26eF870bb3D21fA4fa1e482De258CD2522d"
  ],
  "solcInputHash": "0xd7cd31f30aa30a6e349c3d93933b7744d0e3a59879a749ab42a3f83eb979d1b0",
  "bytecode": "0x608060405234801561001057600080fd5b506040516107b93803806107b983398101604081905261002f916100c4565b6001600160a01b03821661005e5760405162461bcd60e51b815260040161005590610162565b60405180910390fd5b6001600160a01b0381166100845760405162461bcd60e51b815260040161005590610110565b600180546001600160a01b03199081166001600160a01b0394851617909155600080548216948416949094179093556002805490931691161790556101d7565b6000806000606084860312156100d8578283fd5b83516100e3816101bf565b60208501519093506100f4816101bf565b6040850151909250610105816101bf565b809150509250925092565b60208082526032908201527f436f6e74726f6c6c6564546f6b656e4275696c6465722f7469636b657450726f6040820152717879466163746f72792d6e6f742d7a65726f60701b606082015260800190565b6020808252603b908201527f436f6e74726f6c6c6564546f6b656e4275696c6465722f636f6e74726f6c6c6560408201527f64546f6b656e50726f7879466163746f72792d6e6f742d7a65726f0000000000606082015260800190565b6001600160a01b03811681146101d457600080fd5b50565b6105d3806101e66000396000f3fe608060405234801561001057600080fd5b50600436106100575760003560e01c80631a4187c11461005c5780635b832293146100855780636a81d8bd146100985780637da0a877146100a0578063aa3b296c146100a8575b600080fd5b61006f61006a36600461044e565b6100b0565b60405161007c91906104d1565b60405180910390f35b61006f61009336600461044e565b610239565b61006f6103c2565b61006f6103d1565b61006f6103e0565b600080600260009054906101000a90046001600160a01b03166001600160a01b031663efc81a8c6040518163ffffffff1660e01b8152600401602060405180830381600087803b15801561010357600080fd5b505af1158015610117573d6000803e3d6000fd5b505050506040513d601f19601f8201168201806040525081019061013b9190610416565b90506001600160a01b03811663c820f1466101568580610539565b6101636020880188610539565b61017360608a0160408b01610486565b61018360a08b0160808c016103ef565b61018e57600061019b565b6000546001600160a01b03165b6101ab60808c0160608d01610432565b6040518863ffffffff1660e01b81526004016101cd97969594939291906104e5565b600060405180830381600087803b1580156101e757600080fd5b505af11580156101fb573d6000803e3d6000fd5b50506040516001600160a01b03841692507ff771026f1a6d488c23bb75726c18bcc96f290b64209576da54a46c80fd335cab9150600090a292915050565b600080600160009054906101000a90046001600160a01b03166001600160a01b031663efc81a8c6040518163ffffffff1660e01b8152600401602060405180830381600087803b15801561028c57600080fd5b505af11580156102a0573d6000803e3d6000fd5b505050506040513d601f19601f820116820180604052508101906102c49190610416565b90506001600160a01b03811663c820f1466102df8580610539565b6102ec6020880188610539565b6102fc60608a0160408b01610486565b61030c60a08b0160808c016103ef565b610317576000610324565b6000546001600160a01b03165b61033460808c0160608d01610432565b6040518863ffffffff1660e01b815260040161035697969594939291906104e5565b600060405180830381600087803b15801561037057600080fd5b505af1158015610384573d6000803e3d6000fd5b50506040516001600160a01b03841692507fe3d5734f17a493c850907f8a8366a543676afd8eeb9b7cd16e22c998297d8ebd9150600090a292915050565b6001546001600160a01b031681565b6000546001600160a01b031681565b6002546001600160a01b031681565b600060208284031215610400578081fd5b8135801515811461040f578182fd5b9392505050565b600060208284031215610427578081fd5b815161040f81610585565b600060208284031215610443578081fd5b813561040f81610585565b60006020828403121561045f578081fd5b813567ffffffffffffffff811115610475578182fd5b820160a0818503121561040f578182fd5b600060208284031215610497578081fd5b813560ff8116811461040f578182fd5b60008284528282602086013780602084860101526020601f19601f85011685010190509392505050565b6001600160a01b0391909116815260200190565b600060a082526104f960a08301898b6104a7565b828103602084015261050c81888a6104a7565b60ff96909616604084015250506001600160a01b0392831660608201529116608090910152949350505050565b6000808335601e1984360301811261054f578283fd5b83018035915067ffffffffffffffff821115610569578283fd5b60200191503681900382131561057e57600080fd5b9250929050565b6001600160a01b038116811461059a57600080fd5b5056fea26469706673582212203e4a77db5be5700687aab72943a88b9cc612ae94f327aa81ac3a48ae12ef332464736f6c634300060c0033",
  "devdoc": {
    "kind": "dev",
    "methods": {},
    "version": 1
  },
  "userdoc": {
    "kind": "user",
    "methods": {},
    "version": 1
  },
  "storageLayout": {
    "storage": [
      {
        "astId": 13525,
        "contract": "contracts/builders/ControlledTokenBuilder.sol:ControlledTokenBuilder",
        "label": "trustedForwarder",
        "offset": 0,
        "slot": "0",
        "type": "t_address"
      },
      {
        "astId": 13527,
        "contract": "contracts/builders/ControlledTokenBuilder.sol:ControlledTokenBuilder",
        "label": "controlledTokenProxyFactory",
        "offset": 0,
        "slot": "1",
        "type": "t_contract(ControlledTokenProxyFactory)28049"
      },
      {
        "astId": 13529,
        "contract": "contracts/builders/ControlledTokenBuilder.sol:ControlledTokenBuilder",
        "label": "ticketProxyFactory",
        "offset": 0,
        "slot": "2",
        "type": "t_contract(TicketProxyFactory)28324"
      }
    ],
    "types": {
      "t_address": {
        "encoding": "inplace",
        "label": "address",
        "numberOfBytes": "20"
      },
      "t_contract(ControlledTokenProxyFactory)28049": {
        "encoding": "inplace",
        "label": "contract ControlledTokenProxyFactory",
        "numberOfBytes": "20"
      },
      "t_contract(TicketProxyFactory)28324": {
        "encoding": "inplace",
        "label": "contract TicketProxyFactory",
        "numberOfBytes": "20"
      }
    }
  },
  "gasEstimates": {
    "creation": {
      "codeDepositCost": "298200",
      "executionCost": "infinite",
      "totalCost": "infinite"
    },
    "external": {
      "controlledTokenProxyFactory()": "1092",
      "createControlledToken((string,string,uint8,address,bool))": "infinite",
      "createTicket((string,string,uint8,address,bool))": "infinite",
      "ticketProxyFactory()": "1136",
      "trustedForwarder()": "1114"
    }
  }
}