{
  "abi": [
    {
      "anonymous": false,
      "inputs": [
        {
          "indexed": true,
          "internalType": "address",
          "name": "previousOwner",
          "type": "address"
        },
        {
          "indexed": true,
          "internalType": "address",
          "name": "newOwner",
          "type": "address"
        }
      ],
      "name": "OwnershipTransferred",
      "type": "event"
    },
    {
      "inputs": [
        {
          "internalType": "address",
          "name": "dai",
          "type": "address"
        },
        {
          "internalType": "address",
          "name": "prizePool",
          "type": "address"
        },
        {
          "internalType": "address",
          "name": "to",
          "type": "address"
        },
        {
          "internalType": "uint256",
          "name": "amount",
          "type": "uint256"
        },
        {
          "internalType": "address",
          "name": "controlledToken",
          "type": "address"
        },
        {
          "internalType": "address",
          "name": "referrer",
          "type": "address"
        }
      ],
      "name": "depositTo",
      "outputs": [],
      "stateMutability": "nonpayable",
      "type": "function"
    },
    {
      "inputs": [],
      "name": "owner",
      "outputs": [
        {
          "internalType": "address",
          "name": "",
          "type": "address"
        }
      ],
      "stateMutability": "view",
      "type": "function"
    },
    {
      "inputs": [
        {
          "internalType": "address",
          "name": "dai",
          "type": "address"
        },
        {
          "internalType": "address",
          "name": "holder",
          "type": "address"
        },
        {
          "internalType": "uint256",
          "name": "nonce",
          "type": "uint256"
        },
        {
          "internalType": "uint256",
          "name": "expiry",
          "type": "uint256"
        },
        {
          "internalType": "bool",
          "name": "allowed",
          "type": "bool"
        },
        {
          "internalType": "uint8",
          "name": "v",
          "type": "uint8"
        },
        {
          "internalType": "bytes32",
          "name": "r",
          "type": "bytes32"
        },
        {
          "internalType": "bytes32",
          "name": "s",
          "type": "bytes32"
        },
        {
          "internalType": "address",
          "name": "prizePool",
          "type": "address"
        },
        {
          "internalType": "address",
          "name": "to",
          "type": "address"
        },
        {
          "internalType": "uint256",
          "name": "amount",
          "type": "uint256"
        },
        {
          "internalType": "address",
          "name": "controlledToken",
          "type": "address"
        },
        {
          "internalType": "address",
          "name": "referrer",
          "type": "address"
        }
      ],
      "name": "permitAndDepositTo",
      "outputs": [],
      "stateMutability": "nonpayable",
      "type": "function"
    },
    {
      "inputs": [],
      "name": "renounceOwnership",
      "outputs": [],
      "stateMutability": "nonpayable",
      "type": "function"
    },
    {
      "inputs": [
        {
          "internalType": "address",
          "name": "newOwner",
          "type": "address"
        }
      ],
      "name": "transferOwnership",
      "outputs": [],
      "stateMutability": "nonpayable",
      "type": "function"
    }
  ],
  "address": "0x91817512578E22D4aB2a70683280BFbE11C504B4",
  "args": [],
  "solcInputHash": "0xd7cd31f30aa30a6e349c3d93933b7744d0e3a59879a749ab42a3f83eb979d1b0",
  "bytecode": "0x608060405234801561001057600080fd5b50610871806100206000396000f3fe608060405234801561001057600080fd5b50600436106100575760003560e01c806311728e291461005c5780634cd263e4146100e3578063715018a61461012f5780638da5cb5b14610137578063f2fde38b1461015b575b600080fd5b6100e160048036036101a081101561007357600080fd5b506001600160a01b0381358116916020810135821691604082013591606081013591608082013515159160ff60a0820135169160c08201359160e081013591610100820135811691610120810135821691610140820135916101608101358216916101809091013516610181565b005b6100e1600480360360c08110156100f957600080fd5b506001600160a01b03813581169160208101358216916040820135811691606081013591608082013581169160a0013516610293565b6100e16102aa565b61013f61035e565b604080516001600160a01b039092168252519081900360200190f35b6100e16004803603602081101561017157600080fd5b50356001600160a01b031661036d565b336001600160a01b038d16146101de576040805162461bcd60e51b815260206004820152601f60248201527f5065726d6974416e644465706f7369744461692f6f6e6c792d7369676e657200604482015290519081900360640190fd5b604080516323f2ebc360e21b81526001600160a01b038e81166004830152306024830152604482018e9052606482018d90528b1515608483015260ff8b1660a483015260c482018a905260e482018990529151918f1691638fcbaf0c916101048082019260009290919082900301818387803b15801561025d57600080fd5b505af1158015610271573d6000803e3d6000fd5b505050506102848d8d8787878787610478565b50505050505050505050505050565b6102a286338787878787610478565b505050505050565b6102b2610593565b6065546001600160a01b03908116911614610314576040805162461bcd60e51b815260206004820181905260248201527f4f776e61626c653a2063616c6c6572206973206e6f7420746865206f776e6572604482015290519081900360640190fd5b6065546040516000916001600160a01b0316907f8be0079c531659141344cd1fd0a4f28419497f9722a3daafe3b4186f6b6457e0908390a3606580546001600160a01b0319169055565b6065546001600160a01b031690565b610375610593565b6065546001600160a01b039081169116146103d7576040805162461bcd60e51b815260206004820181905260248201527f4f776e61626c653a2063616c6c6572206973206e6f7420746865206f776e6572604482015290519081900360640190fd5b6001600160a01b03811661041c5760405162461bcd60e51b81526004018080602001828103825260268152602001806107ec6026913960400191505060405180910390fd5b6065546040516001600160a01b038084169216907f8be0079c531659141344cd1fd0a4f28419497f9722a3daafe3b4186f6b6457e090600090a3606580546001600160a01b0319166001600160a01b0392909216919091179055565b61048d6001600160a01b038816873086610597565b866001600160a01b031663095ea7b386856040518363ffffffff1660e01b815260040180836001600160a01b0316815260200182815260200192505050602060405180830381600087803b1580156104e457600080fd5b505af11580156104f8573d6000803e3d6000fd5b505050506040513d602081101561050e57600080fd5b50506040805163e323f82560e01b81526001600160a01b038681166004830152602482018690528481166044830152838116606483015291519187169163e323f8259160848082019260009290919082900301818387803b15801561057257600080fd5b505af1158015610586573d6000803e3d6000fd5b5050505050505050505050565b3390565b604080516001600160a01b0380861660248301528416604482015260648082018490528251808303909101815260849091019091526020810180516001600160e01b03166323b872dd60e01b1790526105f19085906105f7565b50505050565b610609826001600160a01b03166107af565b61065a576040805162461bcd60e51b815260206004820152601f60248201527f5361666545524332303a2063616c6c20746f206e6f6e2d636f6e747261637400604482015290519081900360640190fd5b60006060836001600160a01b0316836040518082805190602001908083835b602083106106985780518252601f199092019160209182019101610679565b6001836020036101000a0380198251168184511680821785525050505050509050019150506000604051808303816000865af19150503d80600081146106fa576040519150601f19603f3d011682016040523d82523d6000602084013e6106ff565b606091505b509150915081610756576040805162461bcd60e51b815260206004820181905260248201527f5361666545524332303a206c6f772d6c6576656c2063616c6c206661696c6564604482015290519081900360640190fd5b8051156105f15780806020019051602081101561077257600080fd5b50516105f15760405162461bcd60e51b815260040180806020018281038252602a815260200180610812602a913960400191505060405180910390fd5b6000813f7fc5d2460186f7233c927e7db2dcc703c0e500b653ca82273b7bfad8045d85a4708181148015906107e357508115155b94935050505056fe4f776e61626c653a206e6577206f776e657220697320746865207a65726f20616464726573735361666545524332303a204552433230206f7065726174696f6e20646964206e6f742073756363656564a2646970667358221220ab0055c40517ea00933f24c356797a41a1b72c660eba01dbc663583ec626202d64736f6c634300060c0033",
  "devdoc": {
    "kind": "dev",
    "methods": {
      "depositTo(address,address,address,uint256,address,address)": {
        "params": {
          "amount": "The amount to deposit",
          "controlledToken": "The type of token to be minted in exchange (i.e. tickets or sponsorship)",
          "prizePool": "The prize pool to deposit into",
          "referrer": "The address that referred the deposit",
          "to": "The address that will receive the controlled tokens"
        }
      },
      "owner()": {
        "details": "Returns the address of the current owner."
      },
      "permitAndDepositTo(address,address,uint256,uint256,bool,uint8,bytes32,bytes32,address,address,uint256,address,address)": {
        "details": "The Dai permit params match the Dai#permit function, but it expects the `spender` to be the address of this contract.",
        "params": {
          "allowed": "If true, then the spender is approving holder the max allowance.  False makes the allowance zero.",
          "amount": "The amount to deposit",
          "controlledToken": "The type of token to be minted in exchange (i.e. tickets or sponsorship)",
          "expiry": "The timestamp at which the sig expires",
          "holder": "The address spending the tokens",
          "nonce": "The nonce of the tx.  Should be retrieved from the Dai token",
          "prizePool": "The prize pool to deposit into",
          "r": "The `r` portion of the signature.",
          "referrer": "The address that referred the deposit",
          "s": "The `s` portion of the signature.",
          "to": "The address that will receive the controlled tokens",
          "v": "The `v` portion of the signature."
        }
      },
      "renounceOwnership()": {
        "details": "Leaves the contract without owner. It will not be possible to call `onlyOwner` functions anymore. Can only be called by the current owner. NOTE: Renouncing ownership will leave the contract without an owner, thereby removing any functionality that is only available to the owner."
      },
      "transferOwnership(address)": {
        "details": "Transfers ownership of the contract to a new account (`newOwner`). Can only be called by the current owner."
      }
    },
    "title": "Allows users to approve and deposit dai into a prize pool in a single transaction.",
    "version": 1
  },
  "userdoc": {
    "kind": "user",
    "methods": {
      "depositTo(address,address,address,uint256,address,address)": {
        "notice": "Deposits into a Prize Pool from the sender.  Tokens will be transferred from the sender then deposited into the Pool on the sender's behalf.  This can be called after permitAndDepositTo is called, as this contract will have full approval for a user."
      },
      "permitAndDepositTo(address,address,uint256,uint256,bool,uint8,bytes32,bytes32,address,address,uint256,address,address)": {
        "notice": "Permits this contract to spend on a users behalf, and deposits into the prize pool."
      }
    },
    "version": 1
  },
  "storageLayout": {
    "storage": [
      {
        "astId": 8756,
        "contract": "contracts/permit/PermitAndDepositDai.sol:PermitAndDepositDai",
        "label": "initialized",
        "offset": 0,
        "slot": "0",
        "type": "t_bool"
      },
      {
        "astId": 8759,
        "contract": "contracts/permit/PermitAndDepositDai.sol:PermitAndDepositDai",
        "label": "initializing",
        "offset": 1,
        "slot": "0",
        "type": "t_bool"
      },
      {
        "astId": 8824,
        "contract": "contracts/permit/PermitAndDepositDai.sol:PermitAndDepositDai",
        "label": "______gap",
        "offset": 0,
        "slot": "1",
        "type": "t_array(t_uint256)50_storage"
      },
      {
        "astId": 8749,
        "contract": "contracts/permit/PermitAndDepositDai.sol:PermitAndDepositDai",
        "label": "__gap",
        "offset": 0,
        "slot": "51",
        "type": "t_array(t_uint256)50_storage"
      },
      {
        "astId": 8836,
        "contract": "contracts/permit/PermitAndDepositDai.sol:PermitAndDepositDai",
        "label": "_owner",
        "offset": 0,
        "slot": "101",
        "type": "t_address"
      },
      {
        "astId": 8954,
        "contract": "contracts/permit/PermitAndDepositDai.sol:PermitAndDepositDai",
        "label": "__gap",
        "offset": 0,
        "slot": "102",
        "type": "t_array(t_uint256)49_storage"
      }
    ],
    "types": {
      "t_address": {
        "encoding": "inplace",
        "label": "address",
        "numberOfBytes": "20"
      },
      "t_array(t_uint256)49_storage": {
        "base": "t_uint256",
        "encoding": "inplace",
        "label": "uint256[49]",
        "numberOfBytes": "1568"
      },
      "t_array(t_uint256)50_storage": {
        "base": "t_uint256",
        "encoding": "inplace",
        "label": "uint256[50]",
        "numberOfBytes": "1600"
      },
      "t_bool": {
        "encoding": "inplace",
        "label": "bool",
        "numberOfBytes": "1"
      },
      "t_uint256": {
        "encoding": "inplace",
        "label": "uint256",
        "numberOfBytes": "32"
      }
    }
  },
  "gasEstimates": {
    "creation": {
      "codeDepositCost": "432200",
      "executionCost": "468",
      "totalCost": "432668"
    },
    "external": {
      "depositTo(address,address,address,uint256,address,address)": "infinite",
      "owner()": "1081",
      "permitAndDepositTo(address,address,uint256,uint256,bool,uint8,bytes32,bytes32,address,address,uint256,address,address)": "infinite",
      "renounceOwnership()": "24223",
      "transferOwnership(address)": "infinite"
    },
    "internal": {
      "_depositTo(address,address,address,address,uint256,address,address)": "infinite"
    }
  }
}