{
  "abi": [
    {
      "inputs": [
        {
          "internalType": "contract ComptrollerInterface",
          "name": "_comptroller",
          "type": "address"
        },
        {
          "internalType": "contract SingleRandomWinnerProxyFactory",
          "name": "_singleRandomWinnerProxyFactory",
          "type": "address"
        },
        {
          "internalType": "address",
          "name": "_trustedForwarder",
          "type": "address"
        },
        {
          "internalType": "contract yVaultPrizePoolProxyFactory",
          "name": "_vaultPrizePoolProxyFactory",
          "type": "address"
        },
        {
          "internalType": "contract ControlledTokenProxyFactory",
          "name": "_controlledTokenProxyFactory",
          "type": "address"
        },
        {
          "internalType": "contract OpenZeppelinProxyFactoryInterface",
          "name": "_proxyFactory",
          "type": "address"
        },
        {
          "internalType": "contract TicketProxyFactory",
          "name": "_ticketProxyFactory",
          "type": "address"
        }
      ],
      "stateMutability": "nonpayable",
      "type": "constructor"
    },
    {
      "anonymous": false,
      "inputs": [
        {
          "indexed": true,
          "internalType": "address",
          "name": "singleRandomWinner",
          "type": "address"
        },
        {
          "indexed": true,
          "internalType": "address",
          "name": "ticket",
          "type": "address"
        },
        {
          "indexed": true,
          "internalType": "address",
          "name": "sponsorship",
          "type": "address"
        }
      ],
      "name": "SingleRandomWinnerCreated",
      "type": "event"
    },
    {
      "anonymous": false,
      "inputs": [
        {
          "indexed": true,
          "internalType": "address",
          "name": "creator",
          "type": "address"
        },
        {
          "indexed": true,
          "internalType": "address",
          "name": "prizePool",
          "type": "address"
        },
        {
          "indexed": true,
          "internalType": "address",
          "name": "prizeStrategy",
          "type": "address"
        }
      ],
      "name": "yVaultPrizePoolCreated",
      "type": "event"
    },
    {
      "inputs": [],
      "name": "comptroller",
      "outputs": [
        {
          "internalType": "contract ComptrollerInterface",
          "name": "",
          "type": "address"
        }
      ],
      "stateMutability": "view",
      "type": "function"
    },
    {
      "inputs": [],
      "name": "controlledTokenProxyFactory",
      "outputs": [
        {
          "internalType": "contract ControlledTokenProxyFactory",
          "name": "",
          "type": "address"
        }
      ],
      "stateMutability": "view",
      "type": "function"
    },
    {
      "inputs": [
        {
          "components": [
            {
              "internalType": "contract yVaultInterface",
              "name": "vault",
              "type": "address"
            },
            {
              "internalType": "uint256",
              "name": "reserveRateMantissa",
              "type": "uint256"
            },
            {
              "internalType": "uint256",
              "name": "maxExitFeeMantissa",
              "type": "uint256"
            },
            {
              "internalType": "uint256",
              "name": "maxTimelockDuration",
              "type": "uint256"
            }
          ],
          "internalType": "struct yVaultPrizePoolBuilder.yVaultPrizePoolConfig",
          "name": "prizePoolConfig",
          "type": "tuple"
        },
        {
          "components": [
            {
              "internalType": "address",
              "name": "proxyAdmin",
              "type": "address"
            },
            {
              "internalType": "contract RNGInterface",
              "name": "rngService",
              "type": "address"
            },
            {
              "internalType": "uint256",
              "name": "prizePeriodStart",
              "type": "uint256"
            },
            {
              "internalType": "uint256",
              "name": "prizePeriodSeconds",
              "type": "uint256"
            },
            {
              "internalType": "string",
              "name": "ticketName",
              "type": "string"
            },
            {
              "internalType": "string",
              "name": "ticketSymbol",
              "type": "string"
            },
            {
              "internalType": "string",
              "name": "sponsorshipName",
              "type": "string"
            },
            {
              "internalType": "string",
              "name": "sponsorshipSymbol",
              "type": "string"
            },
            {
              "internalType": "uint256",
              "name": "ticketCreditLimitMantissa",
              "type": "uint256"
            },
            {
              "internalType": "uint256",
              "name": "ticketCreditRateMantissa",
              "type": "uint256"
            },
            {
              "internalType": "address[]",
              "name": "externalERC20Awards",
              "type": "address[]"
            }
          ],
          "internalType": "struct SingleRandomWinnerBuilder.SingleRandomWinnerConfig",
          "name": "prizeStrategyConfig",
          "type": "tuple"
        },
        {
          "internalType": "uint8",
          "name": "decimals",
          "type": "uint8"
        }
      ],
      "name": "createSingleRandomWinner",
      "outputs": [
        {
          "internalType": "contract SingleRandomWinner",
          "name": "",
          "type": "address"
        }
      ],
      "stateMutability": "nonpayable",
      "type": "function"
    },
    {
      "inputs": [
        {
          "components": [
            {
              "internalType": "contract yVaultInterface",
              "name": "vault",
              "type": "address"
            },
            {
              "internalType": "uint256",
              "name": "reserveRateMantissa",
              "type": "uint256"
            },
            {
              "internalType": "uint256",
              "name": "maxExitFeeMantissa",
              "type": "uint256"
            },
            {
              "internalType": "uint256",
              "name": "maxTimelockDuration",
              "type": "uint256"
            }
          ],
          "internalType": "struct yVaultPrizePoolBuilder.yVaultPrizePoolConfig",
          "name": "config",
          "type": "tuple"
        },
        {
          "internalType": "contract PrizePoolTokenListenerInterface",
          "name": "prizeStrategy",
          "type": "address"
        }
      ],
      "name": "createyVaultPrizePool",
      "outputs": [
        {
          "internalType": "contract yVaultPrizePool",
          "name": "",
          "type": "address"
        }
      ],
      "stateMutability": "nonpayable",
      "type": "function"
    },
    {
      "inputs": [],
      "name": "proxyFactory",
      "outputs": [
        {
          "internalType": "contract OpenZeppelinProxyFactoryInterface",
          "name": "",
          "type": "address"
        }
      ],
      "stateMutability": "view",
      "type": "function"
    },
    {
      "inputs": [],
      "name": "singleRandomWinnerProxyFactory",
      "outputs": [
        {
          "internalType": "contract SingleRandomWinnerProxyFactory",
          "name": "",
          "type": "address"
        }
      ],
      "stateMutability": "view",
      "type": "function"
    },
    {
      "inputs": [],
      "name": "ticketProxyFactory",
      "outputs": [
        {
          "internalType": "contract TicketProxyFactory",
          "name": "",
          "type": "address"
        }
      ],
      "stateMutability": "view",
      "type": "function"
    },
    {
      "inputs": [],
      "name": "trustedForwarder",
      "outputs": [
        {
          "internalType": "address",
          "name": "",
          "type": "address"
        }
      ],
      "stateMutability": "view",
      "type": "function"
    },
    {
      "inputs": [],
      "name": "vaultPrizePoolProxyFactory",
      "outputs": [
        {
          "internalType": "contract yVaultPrizePoolProxyFactory",
          "name": "",
          "type": "address"
        }
      ],
      "stateMutability": "view",
      "type": "function"
    }
  ],
  "address": "0x4037f548ba6fA9ca5AE2a29Fdd6E804b9b588164",
  "args": [
    "0xb7C6d617F6BeE47e73D800Ab8B3a672F622029a8",
    "0x33e26289f4b7fBE41bF7596dAd60e9a863E98DA2",
    "0xd6cC1FEAB6E1DbDc3c0a6F2798c8089c72F78E64",
    "0x426aA05c2EBE270ad02793747bc555E8F3f03e06",
    "0x865621f27F2c0765623fAD4309758D24C95E8f4d",
    "0x6B2FfB39Cc07C27390D5E0B7bf1e4BB4e7A4358c",
    "0x34F2114b62214D2F95B8Fe88150E1dB24b7BcD9A"
  ],
  "solcInputHash": "0x46eff0da6e199900c2c22bb012b533dddeaf0e6bc7cf22bc2e35fa13f86c37b1",
  "bytecode": "0x60806040523480156200001157600080fd5b506040516200165b3803806200165b8339810160408190526200003491620001b3565b6001600160a01b038716620000665760405162461bcd60e51b81526004016200005d906200041e565b60405180910390fd5b6001600160a01b0386166200008f5760405162461bcd60e51b81526004016200005d90620002aa565b6001600160a01b038416620000b85760405162461bcd60e51b81526004016200005d9062000364565b6001600160a01b038316620000e15760405162461bcd60e51b81526004016200005d9062000307565b6001600160a01b0382166200010a5760405162461bcd60e51b81526004016200005d906200025d565b6001600160a01b038116620001335760405162461bcd60e51b81526004016200005d90620003c1565b600580546001600160a01b03199081166001600160a01b03948516179091556003805482169284169290921790915560008054821697831697909717909655600480548716958216959095179094556006805486169385169390931790925560018054851691841691909117905560028054909316911617905562000482565b600080600080600080600060e0888a031215620001ce578283fd5b8751620001db8162000469565b6020890151909750620001ee8162000469565b6040890151909650620002018162000469565b6060890151909550620002148162000469565b6080890151909450620002278162000469565b60a08901519093506200023a8162000469565b60c08901519092506200024d8162000469565b8091505092959891949750929550565b6020808252602d908201527f795661756c745072697a65506f6f6c4275696c6465722f70726f78792d66616360408201526c746f72792d6e6f742d7a65726f60981b606082015260800190565b6020808252603c908201527f795661756c745072697a65506f6f6c4275696c6465722f73696e676c652d726160408201527f6e646f6d2d77696e6e65722d666163746f72792d6e6f742d7a65726f00000000606082015260800190565b6020808252603e908201527f795661756c745072697a65506f6f6c4275696c6465722f636f6e74726f6c6c6560408201527f642d746f6b656e2d70726f78792d666163746f72792d6e6f742d7a65726f0000606082015260800190565b6020808252603b908201527f795661756c745072697a65506f6f6c4275696c6465722f636f6d706f756e642d60408201527f7072697a652d706f6f6c2d6275696c6465722d6e6f742d7a65726f0000000000606082015260800190565b60208082526034908201527f795661756c745072697a65506f6f6c4275696c6465722f7469636b65742d707260408201527f6f78792d666163746f72792d6e6f742d7a65726f000000000000000000000000606082015260800190565b6020808252602b908201527f795661756c745072697a65506f6f6c4275696c6465722f636f6d7074726f6c6c60408201526a65722d6e6f742d7a65726f60a81b606082015260800190565b6001600160a01b03811681146200047f57600080fd5b50565b6111c980620004926000396000f3fe608060405234801561001057600080fd5b50600436106100935760003560e01c80637513d5c1116100665780637513d5c1146100d95780637da0a877146100ec57806384c92869146100f4578063aa3b296c146100fc578063c10f1a751461010457610093565b806328ab0c8c146100985780635dc7a7bc146100b65780635fe3b567146100c95780636a81d8bd146100d1575b600080fd5b6100a061010c565b6040516100ad9190610e74565b60405180910390f35b6100a06100c4366004610d4e565b61011b565b6100a0610842565b6100a0610851565b6100a06100e7366004610d17565b610860565b6100a06108e6565b6100a06108f5565b6100a0610904565b6100a0610913565b6001546001600160a01b031681565b6000808061012c6020860186610c2d565b6001600160a01b03161461024657600554600480546040805163022ec09560e01b815290516001600160a01b0394851694636150864c9442949091169263022ec0959281830192602092829003018186803b15801561018a57600080fd5b505afa15801561019e573d6000803e3d6000fd5b505050506040513d601f19601f820116820180604052508101906101c29190610c50565b6101cf6020890189610c2d565b6040518463ffffffff1660e01b81526004016101ed9392919061108a565b602060405180830381600087803b15801561020757600080fd5b505af115801561021b573d6000803e3d6000fd5b505050506040513d601f19601f8201168201806040525081019061023f9190610c50565b90506102c5565b6004805460408051633bf206a360e21b815290516001600160a01b039092169263efc81a8c9282820192602092908290030181600087803b15801561028a57600080fd5b505af115801561029e573d6000803e3d6000fd5b505050506040513d601f19601f820116820180604052508101906102c29190610c50565b90505b60006102df6102d936889003880188610db9565b83610922565b90506001600160a01b03811663941d505d61037f8361030160808a018a611106565b8080601f0160208091040260200160405190810160405280939291908181526020018383808284376000920191909152506103439250505060a08b018b611106565b8080601f0160208091040260200160405190810160405280939291908181526020018383808284376000920191909152508c9250610a79915050565b6040518263ffffffff1660e01b815260040161039b9190610e74565b600060405180830381600087803b1580156103b557600080fd5b505af11580156103c9573d6000803e3d6000fd5b5050506001600160a01b038216905063941d505d61046c836103ee60c08a018a611106565b8080601f0160208091040260200160405190810160405280939291908181526020018383808284376000920191909152506104309250505060e08b018b611106565b8080601f0160208091040260200160405190810160405280939291908181526020018383808284376000920191909152508c9250610b7b915050565b6040518263ffffffff1660e01b81526004016104889190610e74565b600060405180830381600087803b1580156104a257600080fd5b505af11580156104b6573d6000803e3d6000fd5b505050506060816001600160a01b0316639d63848a6040518163ffffffff1660e01b815260040160006040518083038186803b1580156104f557600080fd5b505afa158015610509573d6000803e3d6000fd5b505050506040513d6000823e601f3d908101601f191682016040526105319190810190610c6c565b9050816001600160a01b031663a7b2cc318260018151811061054f57fe5b6020026020010151610565896101200135610bce565b6105738a6101000135610bce565b6040518463ffffffff1660e01b815260040161059193929190610f22565b600060405180830381600087803b1580156105ab57600080fd5b505af11580156105bf573d6000803e3d6000fd5b50505050816001600160a01b0316633e4bdf7b826000815181106105df57fe5b60200260200101516040518263ffffffff1660e01b81526004016106039190610e74565b600060405180830381600087803b15801561061d57600080fd5b505af1158015610631573d6000803e3d6000fd5b50505050826001600160a01b03166388e1489c600660009054906101000a90046001600160a01b031688604001358960600135868660018151811061067257fe5b60200260200101518760008151811061068757fe5b60200260200101518d60200160208101906106a29190610c2d565b8e8061014001906106b391906110b8565b6040518a63ffffffff1660e01b81526004016106d799989796959493929190610f55565b600060405180830381600087803b1580156106f157600080fd5b505af1158015610705573d6000803e3d6000fd5b505060405163f2fde38b60e01b81526001600160a01b038616925063f2fde38b9150610735903390600401610e74565b600060405180830381600087803b15801561074f57600080fd5b505af1158015610763573d6000803e3d6000fd5b505060405163f2fde38b60e01b81526001600160a01b038516925063f2fde38b9150610793903390600401610e74565b600060405180830381600087803b1580156107ad57600080fd5b505af11580156107c1573d6000803e3d6000fd5b50505050806000815181106107d257fe5b60200260200101516001600160a01b0316816001815181106107f057fe5b60200260200101516001600160a01b0316846001600160a01b03167f0ff3430811d84b8ceaad3d48db335030d651f13007e5699dbf0c63134cccb8a660405160405180910390a4509095945050505050565b6000546001600160a01b031681565b6002546001600160a01b031681565b60008061087b61087536869003860186610db9565b84610922565b60405163f2fde38b60e01b81529091506001600160a01b0382169063f2fde38b906108aa903390600401610e74565b600060405180830381600087803b1580156108c457600080fd5b505af11580156108d8573d6000803e3d6000fd5b509293505050505b92915050565b6006546001600160a01b031681565b6004546001600160a01b031681565b6003546001600160a01b031681565b6005546001600160a01b031681565b600080600160009054906101000a90046001600160a01b03166001600160a01b031663efc81a8c6040518163ffffffff1660e01b8152600401602060405180830381600087803b15801561097557600080fd5b505af1158015610989573d6000803e3d6000fd5b505050506040513d601f19601f820116820180604052508101906109ad9190610c50565b6006546000546040808801516060898101518a5160208c01519451635b5add1560e11b815297985091966001600160a01b03808a169763b6b5ba2a97610a0597918316968e9691909316948b94909290600401610e88565b600060405180830381600087803b158015610a1f57600080fd5b505af1158015610a33573d6000803e3d6000fd5b50506040516001600160a01b0380881693508516915033907f2ab58319cdf2365d33486f067735d479b1ff535cf970c13ea090f264e2ec684b90600090a4509392505050565b600080600360009054906101000a90046001600160a01b03166001600160a01b031663efc81a8c6040518163ffffffff1660e01b8152600401602060405180830381600087803b158015610acc57600080fd5b505af1158015610ae0573d6000803e3d6000fd5b505050506040513d601f19601f82011682018060405250810190610b049190610c50565b60065460405163641078a360e11b81529192506001600160a01b038084169263c820f14692610b3f928a928a928a9216908d90600401610ff3565b600060405180830381600087803b158015610b5957600080fd5b505af1158015610b6d573d6000803e3d6000fd5b509298975050505050505050565b600080600260009054906101000a90046001600160a01b03166001600160a01b031663efc81a8c6040518163ffffffff1660e01b8152600401602060405180830381600087803b158015610acc57600080fd5b6000600160801b8210610bfc5760405162461bcd60e51b8152600401610bf390611043565b60405180910390fd5b5090565b80356108e08161117b565b80516108e08161117b565b600060808284031215610c27578081fd5b50919050565b600060208284031215610c3e578081fd5b8135610c498161117b565b9392505050565b600060208284031215610c61578081fd5b8151610c498161117b565b60006020808385031215610c7e578182fd5b825167ffffffffffffffff80821115610c95578384fd5b818501915085601f830112610ca8578384fd5b815181811115610cb6578485fd5b8381029150610cc684830161114b565b8181528481019084860184860187018a1015610ce0578788fd5b8795505b83861015610d0a57610cf68a82610c0b565b835260019590950194918601918601610ce4565b5098975050505050505050565b60008060a08385031215610d29578081fd5b610d338484610c16565b91506080830135610d438161117b565b809150509250929050565b600080600060c08486031215610d62578081fd5b610d6c8585610c16565b9250608084013567ffffffffffffffff811115610d87578182fd5b84016101608187031215610d99578182fd5b915060a084013560ff81168114610dae578182fd5b809150509250925092565b600060808284031215610dca578081fd5b610dd4608061114b565b8235610ddf8161117b565b808252506020830135602082015260408301356040820152606083013560608201528091505092915050565b6001600160a01b0316815260200190565b6001600160a01b03169052565b60008151808452815b81811015610e4e57602081850181015186830182015201610e32565b81811115610e5f5782602083870101525b50601f01601f19169290920160200192915050565b6001600160a01b0391909116815260200190565b600061010080830160018060a01b03808d1685526020818d1681870152818c1660408701528360608701528293508a519150610ec48284611172565b9350808b019250845b82811015610eee57610ee0858551610e0b565b945092810192600101610ecd565b50505050809150508560808301528460a0830152610f0f60c0830185610e1c565b8260e08301529998505050505050505050565b6001600160a01b039390931683526fffffffffffffffffffffffffffffffff918216602084015216604082015260600190565b600061010080830160018060a01b03808e16855260208d818701528c6040870152818c166060870152818b166080870152818a1660a087015281891660c08701528360e0870152829350610fa98784611172565b93508792508491505b86821015610fe057808301610fd085610fcb8387610c00565b610e0b565b9450925060019190910190610fb2565b50919d9c50505050505050505050505050565b600060a0825261100660a0830188610e29565b82810360208401526110188188610e29565b60ff96909616604084015250506001600160a01b039283166060820152911660809091015292915050565b60208082526027908201527f53616665436173743a2076616c756520646f65736e27742066697420696e20316040820152663238206269747360c81b606082015260800190565b9283526001600160a01b03918216602084015216604082015260806060820181905260009082015260a00190565b6000808335601e198436030181126110ce578283fd5b83018035915067ffffffffffffffff8211156110e8578283fd5b60209081019250810236038213156110ff57600080fd5b9250929050565b6000808335601e1984360301811261111c578182fd5b83018035915067ffffffffffffffff821115611136578283fd5b6020019150368190038213156110ff57600080fd5b60405181810167ffffffffffffffff8111828210171561116a57600080fd5b604052919050565b90815260200190565b6001600160a01b038116811461119057600080fd5b5056fea2646970667358221220dc8ae4ae76043e2fe8c30fe26371d42298ec68d472a78ea2f963a86c03c07eb464736f6c634300060c0033",
  "devdoc": {
    "kind": "dev",
    "methods": {},
    "version": 1
  },
  "userdoc": {
    "kind": "user",
    "methods": {},
    "version": 1
  },
  "storageLayout": {
    "storage": [
      {
        "astId": 6115,
        "contract": "contracts/builders/yVaultPrizePoolBuilder.sol:yVaultPrizePoolBuilder",
        "label": "comptroller",
        "offset": 0,
        "slot": "0",
        "type": "t_contract(ComptrollerInterface)8030"
      },
      {
        "astId": 6117,
        "contract": "contracts/builders/yVaultPrizePoolBuilder.sol:yVaultPrizePoolBuilder",
        "label": "vaultPrizePoolProxyFactory",
        "offset": 0,
        "slot": "1",
        "type": "t_contract(yVaultPrizePoolProxyFactory)13008"
      },
      {
        "astId": 6119,
        "contract": "contracts/builders/yVaultPrizePoolBuilder.sol:yVaultPrizePoolBuilder",
        "label": "controlledTokenProxyFactory",
        "offset": 0,
        "slot": "2",
        "type": "t_contract(ControlledTokenProxyFactory)16741"
      },
      {
        "astId": 6121,
        "contract": "contracts/builders/yVaultPrizePoolBuilder.sol:yVaultPrizePoolBuilder",
        "label": "ticketProxyFactory",
        "offset": 0,
        "slot": "3",
        "type": "t_contract(TicketProxyFactory)17010"
      },
      {
        "astId": 6123,
        "contract": "contracts/builders/yVaultPrizePoolBuilder.sol:yVaultPrizePoolBuilder",
        "label": "singleRandomWinnerProxyFactory",
        "offset": 0,
        "slot": "4",
        "type": "t_contract(SingleRandomWinnerProxyFactory)14180"
      },
      {
        "astId": 6125,
        "contract": "contracts/builders/yVaultPrizePoolBuilder.sol:yVaultPrizePoolBuilder",
        "label": "proxyFactory",
        "offset": 0,
        "slot": "5",
        "type": "t_contract(OpenZeppelinProxyFactoryInterface)9572"
      },
      {
        "astId": 6127,
        "contract": "contracts/builders/yVaultPrizePoolBuilder.sol:yVaultPrizePoolBuilder",
        "label": "trustedForwarder",
        "offset": 0,
        "slot": "6",
        "type": "t_address"
      }
    ],
    "types": {
      "t_address": {
        "encoding": "inplace",
        "label": "address",
        "numberOfBytes": "20"
      },
      "t_contract(ComptrollerInterface)8030": {
        "encoding": "inplace",
        "label": "contract ComptrollerInterface",
        "numberOfBytes": "20"
      },
      "t_contract(ControlledTokenProxyFactory)16741": {
        "encoding": "inplace",
        "label": "contract ControlledTokenProxyFactory",
        "numberOfBytes": "20"
      },
      "t_contract(OpenZeppelinProxyFactoryInterface)9572": {
        "encoding": "inplace",
        "label": "contract OpenZeppelinProxyFactoryInterface",
        "numberOfBytes": "20"
      },
      "t_contract(SingleRandomWinnerProxyFactory)14180": {
        "encoding": "inplace",
        "label": "contract SingleRandomWinnerProxyFactory",
        "numberOfBytes": "20"
      },
      "t_contract(TicketProxyFactory)17010": {
        "encoding": "inplace",
        "label": "contract TicketProxyFactory",
        "numberOfBytes": "20"
      },
      "t_contract(yVaultPrizePoolProxyFactory)13008": {
        "encoding": "inplace",
        "label": "contract yVaultPrizePoolProxyFactory",
        "numberOfBytes": "20"
      }
    }
  },
  "gasEstimates": {
    "creation": {
      "codeDepositCost": "910600",
      "executionCost": "infinite",
      "totalCost": "infinite"
    },
    "external": {
      "comptroller()": "1115",
      "controlledTokenProxyFactory()": "1137",
      "createSingleRandomWinner((address,uint256,uint256,uint256),(address,address,uint256,uint256,string,string,string,string,uint256,uint256,address[]),uint8)": "infinite",
      "createyVaultPrizePool((address,uint256,uint256,uint256),address)": "infinite",
      "proxyFactory()": "1158",
      "singleRandomWinnerProxyFactory()": "1114",
      "ticketProxyFactory()": "1136",
      "trustedForwarder()": "1092",
      "vaultPrizePoolProxyFactory()": "1071"
    },
    "internal": {
      "_createControlledToken(contract TokenControllerInterface,string memory,string memory,uint8)": "infinite",
      "_createTicket(contract TokenControllerInterface,string memory,string memory,uint8)": "infinite",
      "_createyVaultPrizePool(struct yVaultPrizePoolBuilder.yVaultPrizePoolConfig memory,contract PrizePoolTokenListenerInterface)": "infinite"
    }
  }
}