{
  "address": "0xA743f8A9d7c2d7e56e6983d0b60FF19EBc0cE727",
  "abi": [
    {
      "inputs": [],
      "stateMutability": "nonpayable",
      "type": "constructor"
    },
    {
      "anonymous": false,
      "inputs": [
        {
          "indexed": false,
          "internalType": "address",
          "name": "proxy",
          "type": "address"
        }
      ],
      "name": "ProxyCreated",
      "type": "event"
    },
    {
      "inputs": [],
      "name": "create",
      "outputs": [
        {
          "internalType": "contract ControlledToken",
          "name": "",
          "type": "address"
        }
      ],
      "stateMutability": "nonpayable",
      "type": "function"
    },
    {
      "inputs": [
        {
          "internalType": "address",
          "name": "_logic",
          "type": "address"
        },
        {
          "internalType": "bytes",
          "name": "_data",
          "type": "bytes"
        }
      ],
      "name": "deployMinimal",
      "outputs": [
        {
          "internalType": "address",
          "name": "proxy",
          "type": "address"
        }
      ],
      "stateMutability": "nonpayable",
      "type": "function"
    },
    {
      "inputs": [],
      "name": "instance",
      "outputs": [
        {
          "internalType": "contract ControlledToken",
          "name": "",
          "type": "address"
        }
      ],
      "stateMutability": "view",
      "type": "function"
    }
  ],
  "transactionHash": "0x216cb8a3559edb5ba059d6907aea27c3898e87571f8731a320019c49e73b1d42",
  "args": [],
  "solcInputHash": "4ee5cd3af4cdf3f3b3aae685e2904e9d",
  "bytecode": "0x608060405234801561001057600080fd5b5060405161001d9061005f565b604051809103906000f080158015610039573d6000803e3d6000fd5b50600080546001600160a01b0319166001600160a01b039290921691909117905561006c565b611d28806103b283390190565b6103378061007b6000396000f3fe608060405234801561001057600080fd5b50600436106100415760003560e01c8063022ec09514610046578063b3eeb5e21461006a578063efc81a8c14610120575b600080fd5b61004e610128565b604080516001600160a01b039092168252519081900360200190f35b61004e6004803603604081101561008057600080fd5b6001600160a01b0382351691908101906040810160208201356401000000008111156100ab57600080fd5b8201836020820111156100bd57600080fd5b803590602001918460018302840111640100000000831117156100df57600080fd5b91908080601f016020809104026020016040519081016040528093929190818152602001838380828437600092019190915250929550610137945050505050565b61004e6102b3565b6000546001600160a01b031681565b6000808360601b9050604051733d602d80600a3d3981f3363d3d373d3d3d363d7360601b81528160148201526e5af43d82803e903d91602b57fd5bf360881b60288201526037816000f0604080516001600160a01b038316815290519194507efffc2da0b561cae30d9826d37709e9421c4725faebc226cbbb7ef5fc5e7349925081900360200190a18251156102ac576000826001600160a01b0316846040518082805190602001908083835b602083106102035780518252601f1990920191602091820191016101e4565b6001836020036101000a0380198251168184511680821785525050505050509050019150506000604051808303816000865af19150503d8060008114610265576040519150601f19603f3d011682016040523d82523d6000602084013e61026a565b606091505b50509050806102aa5760405162461bcd60e51b81526004018080602001828103825260248152602001806102de6024913960400191505060405180910390fd5b505b5092915050565b6000805460408051602081019091528281526102d8916001600160a01b031690610137565b90509056fe50726f7879466163746f72792f636f6e7374727563746f722d63616c6c2d6661696c6564a2646970667358221220ce272b65f97a35b29480080671a9d509f69ecad5d1df11ce6e482b8512c3a2ac64736f6c634300060c0033608060405234801561001057600080fd5b50611d08806100206000396000f3fe608060405234801561001057600080fd5b50600436106101215760003560e01c806370a08231116100ad578063a9059cbb11610071578063a9059cbb14610395578063d505accf146103c1578063dd62ed3e14610412578063de7ea79d14610440578063f77c47911461057e57610121565b806370a08231146102e95780637ecebe001461030f57806390596dd11461033557806395d89b4114610361578063a457c2d71461036957610121565b8063313ce567116100f4578063313ce567146102335780633644e5151461025157806339509351146102595780635d7b075814610285578063631b5dfb146102b357610121565b806306fdde0314610126578063095ea7b3146101a357806318160ddd146101e357806323b872dd146101fd575b600080fd5b61012e6105a2565b6040805160208082528351818301528351919283929083019185019080838360005b83811015610168578181015183820152602001610150565b50505050905090810190601f1680156101955780820380516001836020036101000a031916815260200191505b509250505060405180910390f35b6101cf600480360360408110156101b957600080fd5b506001600160a01b038135169060200135610638565b604080519115158252519081900360200190f35b6101eb610655565b60408051918252519081900360200190f35b6101cf6004803603606081101561021357600080fd5b506001600160a01b0381358116916020810135909116906040013561065b565b61023b6106e2565b6040805160ff9092168252519081900360200190f35b6101eb6106eb565b6101cf6004803603604081101561026f57600080fd5b506001600160a01b0381351690602001356106fa565b6102b16004803603604081101561029b57600080fd5b506001600160a01b038135169060200135610748565b005b6102b1600480360360608110156102c957600080fd5b506001600160a01b038135811691602081013590911690604001356107c5565b6101eb600480360360208110156102ff57600080fd5b50356001600160a01b031661089b565b6101eb6004803603602081101561032557600080fd5b50356001600160a01b03166108b6565b6102b16004803603604081101561034b57600080fd5b506001600160a01b0381351690602001356108dd565b61012e610956565b6101cf6004803603604081101561037f57600080fd5b506001600160a01b0381351690602001356109b7565b6101cf600480360360408110156103ab57600080fd5b506001600160a01b038135169060200135610a1f565b6102b1600480360360e08110156103d757600080fd5b506001600160a01b03813581169160208101359091169060408101359060608101359060ff6080820135169060a08101359060c00135610a33565b6101eb6004803603604081101561042857600080fd5b506001600160a01b0381358116916020013516610bd6565b6102b16004803603608081101561045657600080fd5b81019060208101813564010000000081111561047157600080fd5b82018360208201111561048357600080fd5b803590602001918460018302840111640100000000831117156104a557600080fd5b91908080601f01602080910402602001604051908101604052809392919081815260200183838082843760009201919091525092959493602081019350359150506401000000008111156104f857600080fd5b82018360208201111561050a57600080fd5b8035906020019184600183028401116401000000008311171561052c57600080fd5b91908080601f0160208091040260200160405190810160405280939291908181526020018383808284376000920191909152509295505050813560ff16925050602001356001600160a01b0316610c01565b610586610d13565b604080516001600160a01b039092168252519081900360200190f35b60368054604080516020601f600260001961010060018816150201909516949094049384018190048102820181019092528281526060939092909183018282801561062e5780601f106106035761010080835404028352916020019161062e565b820191906000526020600020905b81548152906001019060200180831161061157829003601f168201915b5050505050905090565b600061064c610645610d22565b8484610d26565b50600192915050565b60355490565b6000610668848484610e12565b6106d884610674610d22565b6106d385604051806060016040528060288152602001611bfb602891396001600160a01b038a166000908152603460205260408120906106b2610d22565b6001600160a01b031681526020810191909152604001600020549190610f6f565b610d26565b5060019392505050565b60385460ff1690565b60006106f5611006565b905090565b600061064c610707610d22565b846106d38560346000610718610d22565b6001600160a01b03908116825260208083019390935260409182016000908120918c168152925290205490611041565b60cc546001600160a01b031661075c610d22565b6001600160a01b0316146107b7576040805162461bcd60e51b815260206004820152601f60248201527f436f6e74726f6c6c6564546f6b656e2f6f6e6c792d636f6e74726f6c6c657200604482015290519081900360640190fd5b6107c182826110a2565b5050565b60cc546001600160a01b03166107d9610d22565b6001600160a01b031614610834576040805162461bcd60e51b815260206004820152601f60248201527f436f6e74726f6c6c6564546f6b656e2f6f6e6c792d636f6e74726f6c6c657200604482015290519081900360640190fd5b816001600160a01b0316836001600160a01b03161461088c57600061087d82604051806060016040528060218152602001611c23602191396108768688610bd6565b9190610f6f565b905061088a838583610d26565b505b6108968282611194565b505050565b6001600160a01b031660009081526033602052604090205490565b6001600160a01b03811660009081526099602052604081206108d790611290565b92915050565b60cc546001600160a01b03166108f1610d22565b6001600160a01b03161461094c576040805162461bcd60e51b815260206004820152601f60248201527f436f6e74726f6c6c6564546f6b656e2f6f6e6c792d636f6e74726f6c6c657200604482015290519081900360640190fd5b6107c18282611194565b60378054604080516020601f600260001961010060018816150201909516949094049384018190048102820181019092528281526060939092909183018282801561062e5780601f106106035761010080835404028352916020019161062e565b600061064c6109c4610d22565b846106d385604051806060016040528060258152602001611cae60259139603460006109ee610d22565b6001600160a01b03908116825260208083019390935260409182016000908120918d16815292529020549190610f6f565b600061064c610a2c610d22565b8484610e12565b83421115610a88576040805162461bcd60e51b815260206004820152601d60248201527f45524332305065726d69743a206578706972656420646561646c696e65000000604482015290519081900360640190fd5b6000609a54888888610abd609960008e6001600160a01b03166001600160a01b03168152602001908152602001600020611290565b8960405160200180878152602001866001600160a01b03168152602001856001600160a01b0316815260200184815260200183815260200182815260200196505050505050506040516020818303038152906040528051906020012090506000610b2682611294565b90506000610b36828787876112e0565b9050896001600160a01b0316816001600160a01b031614610b9e576040805162461bcd60e51b815260206004820152601e60248201527f45524332305065726d69743a20696e76616c6964207369676e61747572650000604482015290519081900360640190fd5b6001600160a01b038a166000908152609960205260409020610bbf9061145e565b610bca8a8a8a610d26565b50505050505050505050565b6001600160a01b03918216600090815260346020908152604080832093909416825291909152205490565b600054610100900460ff1680610c1a5750610c1a611467565b80610c28575060005460ff16155b610c635760405162461bcd60e51b815260040180806020018281038252602e815260200180611bab602e913960400191505060405180910390fd5b600054610100900460ff16158015610c8e576000805460ff1961ff0019909116610100171660011790555b610c988585611478565b610cd66040518060400160405280601c81526020017f506f6f6c546f67657468657220436f6e74726f6c6c6564546f6b656e0000000081525061152d565b60cc80546001600160a01b0319166001600160a01b038416179055610cfa83611603565b8015610d0c576000805461ff00191690555b5050505050565b60cc546001600160a01b031681565b3390565b6001600160a01b038316610d6b5760405162461bcd60e51b8152600401808060200182810382526024815260200180611c8a6024913960400191505060405180910390fd5b6001600160a01b038216610db05760405162461bcd60e51b8152600401808060200182810382526022815260200180611b416022913960400191505060405180910390fd5b6001600160a01b03808416600081815260346020908152604080832094871680845294825291829020859055815185815291517f8c5be1e5ebec7d5bd14f71427d1e84f3dd0314c0f7b2291e5b200ac8c7c3b9259281900390910190a3505050565b6001600160a01b038316610e575760405162461bcd60e51b8152600401808060200182810382526025815260200180611c656025913960400191505060405180910390fd5b6001600160a01b038216610e9c5760405162461bcd60e51b8152600401808060200182810382526023815260200180611afc6023913960400191505060405180910390fd5b610ea7838383611619565b610ee481604051806060016040528060268152602001611b63602691396001600160a01b0386166000908152603360205260409020549190610f6f565b6001600160a01b038085166000908152603360205260408082209390935590841681522054610f139082611041565b6001600160a01b0380841660008181526033602090815260409182902094909455805185815290519193928716927fddf252ad1be2c89b69c2b068fc378daa952ba7f163c4a11628f55a4df523b3ef92918290030190a3505050565b60008184841115610ffe5760405162461bcd60e51b81526004018080602001828103825283818151815260200191508051906020019080838360005b83811015610fc3578181015183820152602001610fab565b50505050905090810190601f168015610ff05780820380516001836020036101000a031916815260200191505b509250505060405180910390fd5b505050900390565b60006106f57f8b73c3c69bb8fe3d512ecc4cf759cc79239f7b179b0ffacaa9a75d522b39400f611034611693565b61103c611699565b61169f565b60008282018381101561109b576040805162461bcd60e51b815260206004820152601b60248201527f536166654d6174683a206164646974696f6e206f766572666c6f770000000000604482015290519081900360640190fd5b9392505050565b6001600160a01b0382166110fd576040805162461bcd60e51b815260206004820152601f60248201527f45524332303a206d696e7420746f20746865207a65726f206164647265737300604482015290519081900360640190fd5b61110960008383611619565b6035546111169082611041565b6035556001600160a01b03821660009081526033602052604090205461113c9082611041565b6001600160a01b03831660008181526033602090815260408083209490945583518581529351929391927fddf252ad1be2c89b69c2b068fc378daa952ba7f163c4a11628f55a4df523b3ef9281900390910190a35050565b6001600160a01b0382166111d95760405162461bcd60e51b8152600401808060200182810382526021815260200180611c446021913960400191505060405180910390fd5b6111e582600083611619565b61122281604051806060016040528060228152602001611b1f602291396001600160a01b0385166000908152603360205260409020549190610f6f565b6001600160a01b0383166000908152603360205260409020556035546112489082611701565b6035556040805182815290516000916001600160a01b038516917fddf252ad1be2c89b69c2b068fc378daa952ba7f163c4a11628f55a4df523b3ef9181900360200190a35050565b5490565b600061129e611006565b82604051602001808061190160f01b81525060020183815260200182815260200192505050604051602081830303815290604052805190602001209050919050565b60007f7fffffffffffffffffffffffffffffff5d576e7357a4501ddfe92f46681b20a08211156113415760405162461bcd60e51b8152600401808060200182810382526022815260200180611b896022913960400191505060405180910390fd5b8360ff16601b148061135657508360ff16601c145b6113915760405162461bcd60e51b8152600401808060200182810382526022815260200180611bd96022913960400191505060405180910390fd5b600060018686868660405160008152602001604052604051808581526020018460ff1681526020018381526020018281526020019450505050506020604051602081039080840390855afa1580156113ed573d6000803e3d6000fd5b5050604051601f1901519150506001600160a01b038116611455576040805162461bcd60e51b815260206004820152601860248201527f45434453413a20696e76616c6964207369676e61747572650000000000000000604482015290519081900360640190fd5b95945050505050565b80546001019055565b60006114723061175e565b15905090565b600054610100900460ff16806114915750611491611467565b8061149f575060005460ff16155b6114da5760405162461bcd60e51b815260040180806020018281038252602e815260200180611bab602e913960400191505060405180910390fd5b600054610100900460ff16158015611505576000805460ff1961ff0019909116610100171660011790555b61150d611764565b6115178383611806565b8015610896576000805461ff0019169055505050565b600054610100900460ff16806115465750611546611467565b80611554575060005460ff16155b61158f5760405162461bcd60e51b815260040180806020018281038252602e815260200180611bab602e913960400191505060405180910390fd5b600054610100900460ff161580156115ba576000805460ff1961ff0019909116610100171660011790555b6115c2611764565b6115e582604051806040016040528060018152602001603160f81b8152506118de565b6115ee8261199e565b80156107c1576000805461ff00191690555050565b6038805460ff191660ff92909216919091179055565b60cc5460408051637cbab1c760e01b81526001600160a01b03868116600483015285811660248301526044820185905291519190921691637cbab1c791606480830192600092919082900301818387803b15801561167657600080fd5b505af115801561168a573d6000803e3d6000fd5b50505050505050565b60655490565b60665490565b60008383836116ac611a64565b3060405160200180868152602001858152602001848152602001838152602001826001600160a01b03168152602001955050505050506040516020818303038152906040528051906020012090509392505050565b600082821115611758576040805162461bcd60e51b815260206004820152601e60248201527f536166654d6174683a207375627472616374696f6e206f766572666c6f770000604482015290519081900360640190fd5b50900390565b3b151590565b600054610100900460ff168061177d575061177d611467565b8061178b575060005460ff16155b6117c65760405162461bcd60e51b815260040180806020018281038252602e815260200180611bab602e913960400191505060405180910390fd5b600054610100900460ff161580156117f1576000805460ff1961ff0019909116610100171660011790555b8015611803576000805461ff00191690555b50565b600054610100900460ff168061181f575061181f611467565b8061182d575060005460ff16155b6118685760405162461bcd60e51b815260040180806020018281038252602e815260200180611bab602e913960400191505060405180910390fd5b600054610100900460ff16158015611893576000805460ff1961ff0019909116610100171660011790555b82516118a6906036906020860190611a68565b5081516118ba906037906020850190611a68565b506038805460ff191660121790558015610896576000805461ff0019169055505050565b600054610100900460ff16806118f757506118f7611467565b80611905575060005460ff16155b6119405760405162461bcd60e51b815260040180806020018281038252602e815260200180611bab602e913960400191505060405180910390fd5b600054610100900460ff1615801561196b576000805460ff1961ff0019909116610100171660011790555b82516020808501919091208351918401919091206065919091556066558015610896576000805461ff0019169055505050565b600054610100900460ff16806119b757506119b7611467565b806119c5575060005460ff16155b611a005760405162461bcd60e51b815260040180806020018281038252602e815260200180611bab602e913960400191505060405180910390fd5b600054610100900460ff16158015611a2b576000805460ff1961ff0019909116610100171660011790555b7f6e71edae12b1b97f4d1f60370fef10105fa2faae0126114a169c64845d6126c9609a5580156107c1576000805461ff00191690555050565b4690565b828054600181600116156101000203166002900490600052602060002090601f016020900481019282601f10611aa957805160ff1916838001178555611ad6565b82800160010185558215611ad6579182015b82811115611ad6578251825591602001919060010190611abb565b50611ae2929150611ae6565b5090565b5b80821115611ae25760008155600101611ae756fe45524332303a207472616e7366657220746f20746865207a65726f206164647265737345524332303a206275726e20616d6f756e7420657863656564732062616c616e636545524332303a20617070726f766520746f20746865207a65726f206164647265737345524332303a207472616e7366657220616d6f756e7420657863656564732062616c616e636545434453413a20696e76616c6964207369676e6174757265202773272076616c7565496e697469616c697a61626c653a20636f6e747261637420697320616c726561647920696e697469616c697a656445434453413a20696e76616c6964207369676e6174757265202776272076616c756545524332303a207472616e7366657220616d6f756e74206578636565647320616c6c6f77616e6365436f6e74726f6c6c6564546f6b656e2f657863656564732d616c6c6f77616e636545524332303a206275726e2066726f6d20746865207a65726f206164647265737345524332303a207472616e736665722066726f6d20746865207a65726f206164647265737345524332303a20617070726f76652066726f6d20746865207a65726f206164647265737345524332303a2064656372656173656420616c6c6f77616e63652062656c6f77207a65726fa26469706673582212207a795868419af49bb44c350ff7980bbc44af12fc677d469b435fad1797f371ad64736f6c634300060c0033",
  "devdoc": {
    "kind": "dev",
    "methods": {
      "create()": {
        "returns": {
          "_0": "A reference to the new proxied Controlled ERC20 Token"
        }
      }
    },
    "title": "Controlled ERC20 Token Factory",
    "version": 1
  },
  "userdoc": {
    "kind": "user",
    "methods": {
      "constructor": "Initializes the Factory with an instance of the Controlled ERC20 Token",
      "create()": {
        "notice": "Creates a new Controlled ERC20 Token as a proxy of the template instance"
      },
      "instance()": {
        "notice": "Contract template for deploying proxied tokens"
      }
    },
    "notice": "Minimal proxy pattern for creating new Controlled ERC20 Tokens",
    "version": 1
  },
  "storageLayout": {
    "storage": [
      {
        "astId": 21610,
        "contract": "contracts/token/ControlledTokenProxyFactory.sol:ControlledTokenProxyFactory",
        "label": "instance",
        "offset": 0,
        "slot": "0",
        "type": "t_contract(ControlledToken)21560"
      }
    ],
    "types": {
      "t_contract(ControlledToken)21560": {
        "encoding": "inplace",
        "label": "contract ControlledToken",
        "numberOfBytes": "20"
      }
    }
  }
}