{
  "address": "0xE4E9cDB3E139D7E8a41172C20b6Ed17b6750f117",
  "abi": [
    {
      "inputs": [],
      "stateMutability": "nonpayable",
      "type": "constructor"
    },
    {
      "anonymous": false,
      "inputs": [
        {
          "indexed": false,
          "internalType": "address",
          "name": "proxy",
          "type": "address"
        }
      ],
      "name": "ProxyCreated",
      "type": "event"
    },
    {
      "inputs": [
        {
          "internalType": "address",
          "name": "user",
          "type": "address"
        },
        {
          "internalType": "contract TokenFaucet[]",
          "name": "tokenFaucets",
          "type": "address[]"
        }
      ],
      "name": "claimAll",
      "outputs": [],
      "stateMutability": "nonpayable",
      "type": "function"
    },
    {
      "inputs": [
        {
          "internalType": "contract IERC20Upgradeable",
          "name": "_asset",
          "type": "address"
        },
        {
          "internalType": "contract IERC20Upgradeable",
          "name": "_measure",
          "type": "address"
        },
        {
          "internalType": "uint256",
          "name": "_dripRatePerSecond",
          "type": "uint256"
        }
      ],
      "name": "create",
      "outputs": [
        {
          "internalType": "contract TokenFaucet",
          "name": "",
          "type": "address"
        }
      ],
      "stateMutability": "nonpayable",
      "type": "function"
    },
    {
      "inputs": [
        {
          "internalType": "contract IERC20Upgradeable",
          "name": "_asset",
          "type": "address"
        },
        {
          "internalType": "contract IERC20Upgradeable",
          "name": "_measure",
          "type": "address"
        },
        {
          "internalType": "uint256",
          "name": "_dripRatePerSecond",
          "type": "uint256"
        },
        {
          "internalType": "uint256",
          "name": "_amount",
          "type": "uint256"
        }
      ],
      "name": "createAndDeposit",
      "outputs": [
        {
          "internalType": "contract TokenFaucet",
          "name": "",
          "type": "address"
        }
      ],
      "stateMutability": "nonpayable",
      "type": "function"
    },
    {
      "inputs": [
        {
          "internalType": "address",
          "name": "_logic",
          "type": "address"
        },
        {
          "internalType": "bytes",
          "name": "_data",
          "type": "bytes"
        }
      ],
      "name": "deployMinimal",
      "outputs": [
        {
          "internalType": "address",
          "name": "proxy",
          "type": "address"
        }
      ],
      "stateMutability": "nonpayable",
      "type": "function"
    },
    {
      "inputs": [],
      "name": "instance",
      "outputs": [
        {
          "internalType": "contract TokenFaucet",
          "name": "",
          "type": "address"
        }
      ],
      "stateMutability": "view",
      "type": "function"
    }
  ],
  "transactionHash": "0x99dc8f3f465ce467e19461faa160bb2c71d1a6e7d894aa542f86d723972cb4e9",
  "args": [],
  "solcInputHash": "4ee5cd3af4cdf3f3b3aae685e2904e9d",
  "bytecode": "0x608060405234801561001057600080fd5b5060405161001d9061005f565b604051809103906000f080158015610039573d6000803e3d6000fd5b50600080546001600160a01b0319166001600160a01b039290921691909117905561006c565b611886806106ec83390190565b6106718061007b6000396000f3fe608060405234801561001057600080fd5b50600436106100575760003560e01c8063022ec0951461005c57806313e7e05814610080578063244a79d614610102578063b3eeb5e21461013e578063ffe5725f146101f4575b600080fd5b61006461022a565b604080516001600160a01b039092168252519081900360200190f35b6101006004803603604081101561009657600080fd5b6001600160a01b0382351691908101906040810160208201356401000000008111156100c157600080fd5b8201836020820111156100d357600080fd5b803590602001918460208302840111640100000000831117156100f557600080fd5b509092509050610239565b005b6100646004803603608081101561011857600080fd5b506001600160a01b038135811691602081013590911690604081013590606001356102e8565b6100646004803603604081101561015457600080fd5b6001600160a01b03823516919081019060408101602082013564010000000081111561017f57600080fd5b82018360208201111561019157600080fd5b803590602001918460018302840111640100000000831117156101b357600080fd5b91908080601f016020809104026020016040519081016040528093929190818152602001838380828437600092019190915250929550610388945050505050565b6100646004803603606081101561020a57600080fd5b506001600160a01b03813581169160208101359091169060400135610504565b6000546001600160a01b031681565b60005b818110156102e25782828281811061025057fe5b905060200201356001600160a01b03166001600160a01b0316631e83409a856040518263ffffffff1660e01b815260040180826001600160a01b03168152602001915050602060405180830381600087803b1580156102ae57600080fd5b505af11580156102c2573d6000803e3d6000fd5b505050506040513d60208110156102d857600080fd5b505060010161023c565b50505050565b6000806102f6868686610504565b604080516323b872dd60e01b81523360048201526001600160a01b038084166024830152604482018790529151929350908816916323b872dd916064808201926020929091908290030181600087803b15801561035257600080fd5b505af1158015610366573d6000803e3d6000fd5b505050506040513d602081101561037c57600080fd5b50919695505050505050565b6000808360601b9050604051733d602d80600a3d3981f3363d3d373d3d3d363d7360601b81528160148201526e5af43d82803e903d91602b57fd5bf360881b60288201526037816000f0604080516001600160a01b038316815290519194507efffc2da0b561cae30d9826d37709e9421c4725faebc226cbbb7ef5fc5e7349925081900360200190a18251156104fd576000826001600160a01b0316846040518082805190602001908083835b602083106104545780518252601f199092019160209182019101610435565b6001836020036101000a0380198251168184511680821785525050505050509050019150506000604051808303816000865af19150503d80600081146104b6576040519150601f19603f3d011682016040523d82523d6000602084013e6104bb565b606091505b50509050806104fb5760405162461bcd60e51b81526004018080602001828103825260248152602001806106186024913960400191505060405180910390fd5b505b5092915050565b600080546040805160208101909152828152829161052d916001600160a01b0390911690610388565b9050806001600160a01b0316631794bb3c8686866040518463ffffffff1660e01b815260040180846001600160a01b03168152602001836001600160a01b031681526020018281526020019350505050600060405180830381600087803b15801561059757600080fd5b505af11580156105ab573d6000803e3d6000fd5b50506040805163f2fde38b60e01b815233600482015290516001600160a01b038516935063f2fde38b9250602480830192600092919082900301818387803b1580156105f657600080fd5b505af115801561060a573d6000803e3d6000fd5b509297965050505050505056fe50726f7879466163746f72792f636f6e7374727563746f722d63616c6c2d6661696c6564a264697066735822122022236a8150b2c5353a69ba5904e39999f8420a1405c9f7445e4084e141cd695164736f6c634300060c0033608060405234801561001057600080fd5b50611866806100206000396000f3fe608060405234801561001057600080fd5b50600436106101215760003560e01c80638da5cb5b116100ad578063ca5baafc11610071578063ca5baafc1461034f578063d9772a251461036c578063e318613e1461038d578063efa9a1ad14610395578063f2fde38b1461039d57610121565b80638da5cb5b146102c25780639f678cca146102ca578063b2210957146102d2578063b6b55f251461030e578063c96f14b81461032b57610121565b80631e83409a116100f45780631e83409a14610208578063205c28781461022e57806338d52e0f1461025a5780634d7f3db01461027e578063715018a6146102ba57610121565b806301ffc9a7146101265780630ecc535f146101615780631794bb3c146101b6578063187f3334146101ee575b600080fd5b61014d6004803603602081101561013c57600080fd5b50356001600160e01b0319166103c3565b604080519115158252519081900360200190f35b6101876004803603602081101561017757600080fd5b50356001600160a01b03166103ff565b60405180836001600160801b03168152602001826001600160801b031681526020019250505060405180910390f35b6101ec600480360360608110156101cc57600080fd5b506001600160a01b03813581169160208101359091169060400135610425565b005b6101f6610583565b60408051918252519081900360200190f35b6101f66004803603602081101561021e57600080fd5b50356001600160a01b0316610589565b6101ec6004803603604081101561024457600080fd5b506001600160a01b0381351690602001356106f1565b610262610915565b604080516001600160a01b039092168252519081900360200190f35b6101ec6004803603608081101561029457600080fd5b506001600160a01b03813581169160208101359160408201358116916060013516610924565b6101ec610953565b6102626109ff565b6101f6610a0f565b6101ec600480360360808110156102e857600080fd5b506001600160a01b03813581169160208101358216916040820135916060013516610cab565b6101ec6004803603602081101561032457600080fd5b5035610ce7565b610333610daf565b604080516001600160701b039092168252519081900360200190f35b6101ec6004803603602081101561036557600080fd5b5035610dc5565b610374610ec0565b6040805163ffffffff9092168252519081900360200190f35b610333610ed3565b610262610ee2565b6101ec600480360360208110156103b357600080fd5b50356001600160a01b0316610ef1565b60006001600160e01b031982166301ffc9a760e01b14806103f757506001600160e01b03198216600162a1cb1960e01b0319145b90505b919050565b6069602052600090815260409020546001600160801b0380821691600160801b90041682565b600054610100900460ff168061043e575061043e610ff4565b8061044c575060005460ff16155b6104875760405162461bcd60e51b815260040180806020018281038252602e815260200180611773602e913960400191505060405180910390fd5b600054610100900460ff161580156104b2576000805460ff1961ff0019909116610100171660011790555b6104ba611005565b6104c26110b7565b6068805463ffffffff92909216600160e01b026001600160e01b03909216919091179055606580546001600160a01b038087166001600160a01b031992831617909255606680549286169290911691909117905561051f82610dc5565b60665460655460675460408051918252516001600160a01b039384169392909216917f10f27652c1015195ca7e6bc9b4c724cbf18e91c42117d92124703a3f49bb240f9181900360200190a3801561057d576000805461ff00191690555b50505050565b60675481565b6000610593610a0f565b5061059d826110c7565b506001600160a01b038216600090815260696020526040902080546001600160801b03808216909255606854600160801b909104909116906105f8906105f390600160701b90046001600160701b03168361126c565b6112ce565b606880546001600160701b0392909216600160701b026dffffffffffffffffffffffffffff60701b199092169190911790556065546040805163a9059cbb60e01b81526001600160a01b038681166004830152602482018590529151919092169163a9059cbb9160448083019260209291908290030181600087803b15801561068057600080fd5b505af1158015610694573d6000803e3d6000fd5b505050506040513d60208110156106aa57600080fd5b50506040805182815290516001600160a01b038516917fd8138f8a3f377c5259ca548e70e4c2de94f129f5a11036a15b69513cba2b426a919081900360200190a292915050565b6106f9611316565b6001600160a01b031661070a6109ff565b6001600160a01b031614610753576040805162461bcd60e51b815260206004820181905260248201526000805160206117c2833981519152604482015290519081900360640190fd5b61075b610a0f565b50606554604080516370a0823160e01b815230600482015290516000926001600160a01b0316916370a08231916024808301926020929190829003018186803b1580156107a757600080fd5b505afa1580156107bb573d6000803e3d6000fd5b505050506040513d60208110156107d157600080fd5b50516068549091506000906107f7908390600160701b90046001600160701b031661126c565b90508083111561084e576040805162461bcd60e51b815260206004820152601e60248201527f546f6b656e4661756365742f696e73756666696369656e742d66756e64730000604482015290519081900360640190fd5b6065546040805163a9059cbb60e01b81526001600160a01b038781166004830152602482018790529151919092169163a9059cbb9160448083019260209291908290030181600087803b1580156108a457600080fd5b505af11580156108b8573d6000803e3d6000fd5b505050506040513d60208110156108ce57600080fd5b50506040805184815290516001600160a01b038616917f7084f5476618d8e60b11ef0d7d3f06914655adb8793e28ff7f018d4c76d505d5919081900360200190a250505050565b6065546001600160a01b031681565b6066546001600160a01b038381169116141561057d57610942610a0f565b5061094c846110c7565b5050505050565b61095b611316565b6001600160a01b031661096c6109ff565b6001600160a01b0316146109b5576040805162461bcd60e51b815260206004820181905260248201526000805160206117c2833981519152604482015290519081900360640190fd5b6033546040516000916001600160a01b0316907f8be0079c531659141344cd1fd0a4f28419497f9722a3daafe3b4186f6b6457e0908390a3603380546001600160a01b0319169055565b6033546001600160a01b03165b90565b600080610a1a6110b7565b60685463ffffffff9182169250600160e01b900416811415610a40576000915050610a0c565b606554604080516370a0823160e01b815230600482015290516000926001600160a01b0316916370a08231916024808301926020929190829003018186803b158015610a8b57600080fd5b505afa158015610a9f573d6000803e3d6000fd5b505050506040513d6020811015610ab557600080fd5b5051606854909150600090610adb908390600160701b90046001600160701b031661126c565b606854909150600090610b0090859063ffffffff600160e01b90910481169061126c16565b606854606654604080516318160ddd60e01b815290519394506001600160701b039092169260009283926001600160a01b0316916318160ddd91600480820192602092909190829003018186803b158015610b5a57600080fd5b505afa158015610b6e573d6000803e3d6000fd5b505050506040513d6020811015610b8457600080fd5b505190508015801590610b975750600085115b15610c0957606754610baa90859061131a565b915084821115610bb8578491505b6000610bc4838361137a565b9050610bd084826113a3565b6040805185815290519195507f7de59a92c9386255180c28ede4b61edb9b7b2ac96855ac634151489cef21bad6919081900360200190a1505b610c12836112ce565b606880546dffffffffffffffffffffffffffff19166001600160701b039283161790819055610c4d916105f391600160701b900416846113a3565b6068600e6101000a8154816001600160701b0302191690836001600160701b03160217905550610c7c876113fd565b6068805463ffffffff92909216600160e01b026001600160e01b03909216919091179055509550505050505090565b6066546001600160a01b038281169116148015610cd057506001600160a01b03841615155b1561057d57610cdd610a0f565b50610942836110c7565b610cef610a0f565b50606554604080516323b872dd60e01b81523360048201523060248201526044810184905290516001600160a01b03909216916323b872dd916064808201926020929091908290030181600087803b158015610d4a57600080fd5b505af1158015610d5e573d6000803e3d6000fd5b505050506040513d6020811015610d7457600080fd5b505060408051828152905133917f2da466a7b24304f47e87fa2e1e5a81b9831ce54fec19055ce277ca2f39ba42c4919081900360200190a250565b606854600160701b90046001600160701b031681565b610dcd611316565b6001600160a01b0316610dde6109ff565b6001600160a01b031614610e27576040805162461bcd60e51b815260206004820181905260248201526000805160206117c2833981519152604482015290519081900360640190fd5b60008111610e7c576040805162461bcd60e51b815260206004820152601c60248201527f546f6b656e4661756365742f64726970526174652d67742d7a65726f00000000604482015290519081900360640190fd5b610e84610a0f565b5060678190556040805182815290517f3d38e7cd2e029035006f9977a727c8724cd41dffb6d2a40d9f66bd4c26836a329181900360200190a150565b606854600160e01b900463ffffffff1681565b6068546001600160701b031681565b6066546001600160a01b031681565b610ef9611316565b6001600160a01b0316610f0a6109ff565b6001600160a01b031614610f53576040805162461bcd60e51b815260206004820181905260248201526000805160206117c2833981519152604482015290519081900360640190fd5b6001600160a01b038116610f985760405162461bcd60e51b81526004018080602001828103825260268152602001806117266026913960400191505060405180910390fd5b6033546040516001600160a01b038084169216907f8be0079c531659141344cd1fd0a4f28419497f9722a3daafe3b4186f6b6457e090600090a3603380546001600160a01b0319166001600160a01b0392909216919091179055565b6000610fff30611442565b15905090565b600054610100900460ff168061101e575061101e610ff4565b8061102c575060005460ff16155b6110675760405162461bcd60e51b815260040180806020018281038252602e815260200180611773602e913960400191505060405180910390fd5b600054610100900460ff16158015611092576000805460ff1961ff0019909116610100171660011790555b61109a611448565b6110a26114e8565b80156110b4576000805461ff00191690555b50565b60006110c2426113fd565b905090565b6001600160a01b038116600090815260696020526040812080546068546001600160701b03166001600160801b0390911614156111085760009150506103fa565b805460685460009161112c916001600160701b0316906001600160801b031661126c565b606654604080516370a0823160e01b81526001600160a01b038881166004830152915193945060009391909216916370a08231916024808301926020929190829003018186803b15801561117f57600080fd5b505afa158015611193573d6000803e3d6000fd5b505050506040513d60208110156111a957600080fd5b5051905060006111c16111bc83856115e1565b611602565b604080518082019091526068546001600160701b031681528554919250906020820190611206906111bc90600160801b90046001600160801b039081169086166113a3565b6001600160801b039081169091526001600160a01b03881660009081526069602090815260409091208351815494909201518316600160801b029183166fffffffffffffffffffffffffffffffff19909416939093179091161790559350505050919050565b6000828211156112c3576040805162461bcd60e51b815260206004820152601e60248201527f536166654d6174683a207375627472616374696f6e206f766572666c6f770000604482015290519081900360640190fd5b508082035b92915050565b6000600160701b82106113125760405162461bcd60e51b81526004018080602001828103825260298152602001806117e26029913960400191505060405180910390fd5b5090565b3390565b600082611329575060006112c8565b8282028284828161133657fe5b04146113735760405162461bcd60e51b81526004018080602001828103825260218152602001806117a16021913960400191505060405180910390fd5b9392505050565b60008061138f84670de0b6b3a764000061131a565b905061139b8184611646565b949350505050565b600082820183811015611373576040805162461bcd60e51b815260206004820152601b60248201527f536166654d6174683a206164646974696f6e206f766572666c6f770000000000604482015290519081900360640190fd5b600064010000000082106113125760405162461bcd60e51b815260040180806020018281038252602681526020018061180b6026913960400191505060405180910390fd5b3b151590565b600054610100900460ff16806114615750611461610ff4565b8061146f575060005460ff16155b6114aa5760405162461bcd60e51b815260040180806020018281038252602e815260200180611773602e913960400191505060405180910390fd5b600054610100900460ff161580156110a2576000805460ff1961ff00199091166101001716600117905580156110b4576000805461ff001916905550565b600054610100900460ff16806115015750611501610ff4565b8061150f575060005460ff16155b61154a5760405162461bcd60e51b815260040180806020018281038252602e815260200180611773602e913960400191505060405180910390fd5b600054610100900460ff16158015611575576000805460ff1961ff0019909116610100171660011790555b600061157f611316565b603380546001600160a01b0319166001600160a01b038316908117909155604051919250906000907f8be0079c531659141344cd1fd0a4f28419497f9722a3daafe3b4186f6b6457e0908290a35080156110b4576000805461ff001916905550565b6000806115ee838561131a565b905061139b81670de0b6b3a7640000611646565b6000600160801b82106113125760405162461bcd60e51b815260040180806020018281038252602781526020018061174c6027913960400191505060405180910390fd5b600061137383836040518060400160405280601a81526020017f536166654d6174683a206469766973696f6e206279207a65726f0000000000008152506000818361170f5760405162461bcd60e51b81526004018080602001828103825283818151815260200191508051906020019080838360005b838110156116d45781810151838201526020016116bc565b50505050905090810190601f1680156117015780820380516001836020036101000a031916815260200191505b509250505060405180910390fd5b50600083858161171b57fe5b049594505050505056fe4f776e61626c653a206e6577206f776e657220697320746865207a65726f206164647265737353616665436173743a2076616c756520646f65736e27742066697420696e203132382062697473496e697469616c697a61626c653a20636f6e747261637420697320616c726561647920696e697469616c697a6564536166654d6174683a206d756c7469706c69636174696f6e206f766572666c6f774f776e61626c653a2063616c6c6572206973206e6f7420746865206f776e657253616665436173743a2076616c756520646f65736e27742066697420696e20616e2075696e7431313253616665436173743a2076616c756520646f65736e27742066697420696e2033322062697473a26469706673582212201842ecf27658c06bb758ac4217d3fd6c3fc0773ee5887f29e9541b4edb7a0c1d64736f6c634300060c0033",
  "devdoc": {
    "kind": "dev",
    "methods": {
      "claimAll(address,address[])": {
        "params": {
          "tokenFaucets": "The tokenFaucets to call claim on.",
          "user": "The user to claim for"
        }
      },
      "create(address,address,uint256)": {
        "params": {
          "_asset": "The asset to disburse to users",
          "_dripRatePerSecond": "The amount of the asset to drip each second",
          "_measure": "The token to use to measure a users portion"
        },
        "returns": {
          "_0": "A reference to the new proxied TokenFaucet"
        }
      },
      "createAndDeposit(address,address,uint256,uint256)": {
        "params": {
          "_amount": "The amount of assets to deposit into the faucet",
          "_asset": "The asset to disburse to users",
          "_dripRatePerSecond": "The amount of the asset to drip each second",
          "_measure": "The token to use to measure a users portion"
        },
        "returns": {
          "_0": "A reference to the new proxied TokenFaucet"
        }
      }
    },
    "title": "Stake Prize Pool Proxy Factory",
    "version": 1
  },
  "userdoc": {
    "kind": "user",
    "methods": {
      "claimAll(address,address[])": {
        "notice": "Runs claim on all passed comptrollers for a user."
      },
      "constructor": "Initializes the Factory with an instance of the TokenFaucet",
      "create(address,address,uint256)": {
        "notice": "Creates a new TokenFaucet"
      },
      "createAndDeposit(address,address,uint256,uint256)": {
        "notice": "Creates a new TokenFaucet and immediately deposits funds"
      },
      "instance()": {
        "notice": "Contract template for deploying proxied Comptrollers"
      }
    },
    "notice": "Minimal proxy pattern for creating new TokenFaucet contracts",
    "version": 1
  },
  "storageLayout": {
    "storage": [
      {
        "astId": 21283,
        "contract": "contracts/token-faucet/TokenFaucetProxyFactory.sol:TokenFaucetProxyFactory",
        "label": "instance",
        "offset": 0,
        "slot": "0",
        "type": "t_contract(TokenFaucet)21273"
      }
    ],
    "types": {
      "t_contract(TokenFaucet)21273": {
        "encoding": "inplace",
        "label": "contract TokenFaucet",
        "numberOfBytes": "20"
      }
    }
  }
}