{
  "address": "0xE19fe7A9aA49585510041ECDe274F6926c212C43",
  "abi": [
    {
      "inputs": [],
      "stateMutability": "nonpayable",
      "type": "constructor"
    },
    {
      "anonymous": false,
      "inputs": [
        {
          "indexed": false,
          "internalType": "address",
          "name": "proxy",
          "type": "address"
        }
      ],
      "name": "ProxyCreated",
      "type": "event"
    },
    {
      "inputs": [
        {
          "internalType": "address",
          "name": "user",
          "type": "address"
        },
        {
          "internalType": "contract TokenFaucet[]",
          "name": "comptrollers",
          "type": "address[]"
        }
      ],
      "name": "claimAll",
      "outputs": [],
      "stateMutability": "nonpayable",
      "type": "function"
    },
    {
      "inputs": [
        {
          "internalType": "contract IERC20Upgradeable",
          "name": "_asset",
          "type": "address"
        },
        {
          "internalType": "contract IERC20Upgradeable",
          "name": "_measure",
          "type": "address"
        },
        {
          "internalType": "uint256",
          "name": "_dripRatePerSecond",
          "type": "uint256"
        }
      ],
      "name": "create",
      "outputs": [
        {
          "internalType": "contract TokenFaucet",
          "name": "",
          "type": "address"
        }
      ],
      "stateMutability": "nonpayable",
      "type": "function"
    },
    {
      "inputs": [
        {
          "internalType": "address",
          "name": "_logic",
          "type": "address"
        },
        {
          "internalType": "bytes",
          "name": "_data",
          "type": "bytes"
        }
      ],
      "name": "deployMinimal",
      "outputs": [
        {
          "internalType": "address",
          "name": "proxy",
          "type": "address"
        }
      ],
      "stateMutability": "nonpayable",
      "type": "function"
    },
    {
      "inputs": [],
      "name": "instance",
      "outputs": [
        {
          "internalType": "contract TokenFaucet",
          "name": "",
          "type": "address"
        }
      ],
      "stateMutability": "view",
      "type": "function"
    }
  ],
  "transactionHash": "0x996e66ae62a21137005cb612c66490e9a0d90f20bf5733660a6a1d1636d75816",
  "args": [],
  "solcInputHash": "e709d825f034ede961081b62ddab9220",
  "bytecode": "0x608060405234801561001057600080fd5b5060405161001d9061005f565b604051809103906000f080158015610039573d6000803e3d6000fd5b50600080546001600160a01b0319166001600160a01b039290921691909117905561006c565b61164e8061060583390190565b61058a8061007b6000396000f3fe608060405234801561001057600080fd5b506004361061004c5760003560e01c8063022ec0951461005157806313e7e05814610075578063b3eeb5e2146100f7578063ffe5725f146101ad575b600080fd5b6100596101e3565b604080516001600160a01b039092168252519081900360200190f35b6100f56004803603604081101561008b57600080fd5b6001600160a01b0382351691908101906040810160208201356401000000008111156100b657600080fd5b8201836020820111156100c857600080fd5b803590602001918460208302840111640100000000831117156100ea57600080fd5b5090925090506101f2565b005b6100596004803603604081101561010d57600080fd5b6001600160a01b03823516919081019060408101602082013564010000000081111561013857600080fd5b82018360208201111561014a57600080fd5b8035906020019184600183028401116401000000008311171561016c57600080fd5b91908080601f0160208091040260200160405190810160405280939291908181526020018383808284376000920191909152509295506102a1945050505050565b610059600480360360608110156101c357600080fd5b506001600160a01b0381358116916020810135909116906040013561041d565b6000546001600160a01b031681565b60005b8181101561029b5782828281811061020957fe5b905060200201356001600160a01b03166001600160a01b0316631e83409a856040518263ffffffff1660e01b815260040180826001600160a01b03168152602001915050602060405180830381600087803b15801561026757600080fd5b505af115801561027b573d6000803e3d6000fd5b505050506040513d602081101561029157600080fd5b50506001016101f5565b50505050565b6000808360601b9050604051733d602d80600a3d3981f3363d3d373d3d3d363d7360601b81528160148201526e5af43d82803e903d91602b57fd5bf360881b60288201526037816000f0604080516001600160a01b038316815290519194507efffc2da0b561cae30d9826d37709e9421c4725faebc226cbbb7ef5fc5e7349925081900360200190a1825115610416576000826001600160a01b0316846040518082805190602001908083835b6020831061036d5780518252601f19909201916020918201910161034e565b6001836020036101000a0380198251168184511680821785525050505050509050019150506000604051808303816000865af19150503d80600081146103cf576040519150601f19603f3d011682016040523d82523d6000602084013e6103d4565b606091505b50509050806104145760405162461bcd60e51b81526004018080602001828103825260248152602001806105316024913960400191505060405180910390fd5b505b5092915050565b6000805460408051602081019091528281528291610446916001600160a01b03909116906102a1565b9050806001600160a01b0316631794bb3c8686866040518463ffffffff1660e01b815260040180846001600160a01b03168152602001836001600160a01b031681526020018281526020019350505050600060405180830381600087803b1580156104b057600080fd5b505af11580156104c4573d6000803e3d6000fd5b50506040805163f2fde38b60e01b815233600482015290516001600160a01b038516935063f2fde38b9250602480830192600092919082900301818387803b15801561050f57600080fd5b505af1158015610523573d6000803e3d6000fd5b509297965050505050505056fe50726f7879466163746f72792f636f6e7374727563746f722d63616c6c2d6661696c6564a2646970667358221220bb0c39cd0983f936bcd1f5a037dda3a860fcc96f05503f85b078733443345a2564736f6c634300060c0033608060405234801561001057600080fd5b5061162e806100206000396000f3fe608060405234801561001057600080fd5b50600436106101165760003560e01c80639f678cca116100a2578063ca5baafc11610071578063ca5baafc14610318578063d9772a2514610335578063e318613e14610356578063efa9a1ad1461035e578063f2fde38b1461036657610116565b80639f678cca14610293578063b22109571461029b578063b6b55f25146102d7578063c96f14b8146102f457610116565b80631e83409a116100e95780631e83409a146101fd57806338d52e0f146102235780634d7f3db014610247578063715018a6146102835780638da5cb5b1461028b57610116565b806301ffc9a71461011b5780630ecc535f146101565780631794bb3c146101ab578063187f3334146101e3575b600080fd5b6101426004803603602081101561013157600080fd5b50356001600160e01b03191661038c565b604080519115158252519081900360200190f35b61017c6004803603602081101561016c57600080fd5b50356001600160a01b03166103c8565b60405180836001600160801b03168152602001826001600160801b031681526020019250505060405180910390f35b6101e1600480360360608110156101c157600080fd5b506001600160a01b038135811691602081013590911690604001356103ee565b005b6101eb61054c565b60408051918252519081900360200190f35b6101eb6004803603602081101561021357600080fd5b50356001600160a01b0316610552565b61022b6106ba565b604080516001600160a01b039092168252519081900360200190f35b6101e16004803603608081101561025d57600080fd5b506001600160a01b038135811691602081013591604082013581169160600135166106c9565b6101e16106f8565b61022b6107ac565b6101eb6107bc565b6101e1600480360360808110156102b157600080fd5b506001600160a01b03813581169160208101358216916040820135916060013516610a58565b6101e1600480360360208110156102ed57600080fd5b5035610a94565b6102fc610b5c565b604080516001600160701b039092168252519081900360200190f35b6101e16004803603602081101561032e57600080fd5b5035610b72565b61033d610c75565b6040805163ffffffff9092168252519081900360200190f35b6102fc610c88565b61022b610c97565b6101e16004803603602081101561037c57600080fd5b50356001600160a01b0316610ca6565b60006001600160e01b031982166301ffc9a760e01b14806103c057506001600160e01b03198216600162a1cb1960e01b0319145b90505b919050565b6069602052600090815260409020546001600160801b0380821691600160801b90041682565b600054610100900460ff16806104075750610407610db1565b80610415575060005460ff16155b6104505760405162461bcd60e51b815260040180806020018281038252602e81526020018061155b602e913960400191505060405180910390fd5b600054610100900460ff1615801561047b576000805460ff1961ff0019909116610100171660011790555b610483610db7565b61048b610e69565b6068805463ffffffff92909216600160e01b026001600160e01b03909216919091179055606580546001600160a01b038087166001600160a01b03199283161790925560668054928616929091169190911790556104e882610b72565b60665460655460675460408051918252516001600160a01b039384169392909216917f10f27652c1015195ca7e6bc9b4c724cbf18e91c42117d92124703a3f49bb240f9181900360200190a38015610546576000805461ff00191690555b50505050565b60675481565b600061055c6107bc565b5061056682610e79565b506001600160a01b038216600090815260696020526040902080546001600160801b03808216909255606854600160801b909104909116906105c1906105bc90600160701b90046001600160701b03168361101e565b611069565b606880546001600160701b0392909216600160701b026dffffffffffffffffffffffffffff60701b199092169190911790556065546040805163a9059cbb60e01b81526001600160a01b038681166004830152602482018590529151919092169163a9059cbb9160448083019260209291908290030181600087803b15801561064957600080fd5b505af115801561065d573d6000803e3d6000fd5b505050506040513d602081101561067357600080fd5b50506040805182815290516001600160a01b038516917fd8138f8a3f377c5259ca548e70e4c2de94f129f5a11036a15b69513cba2b426a919081900360200190a292915050565b6065546001600160a01b031681565b6066546001600160a01b0383811691161415610546576106e76107bc565b506106f184610e79565b5050505050565b6107006110b1565b6033546001600160a01b03908116911614610762576040805162461bcd60e51b815260206004820181905260248201527f4f776e61626c653a2063616c6c6572206973206e6f7420746865206f776e6572604482015290519081900360640190fd5b6033546040516000916001600160a01b0316907f8be0079c531659141344cd1fd0a4f28419497f9722a3daafe3b4186f6b6457e0908390a3603380546001600160a01b0319169055565b6033546001600160a01b03165b90565b6000806107c7610e69565b60685463ffffffff9182169250600160e01b9004168114156107ed5760009150506107b9565b606554604080516370a0823160e01b815230600482015290516000926001600160a01b0316916370a08231916024808301926020929190829003018186803b15801561083857600080fd5b505afa15801561084c573d6000803e3d6000fd5b505050506040513d602081101561086257600080fd5b5051606854909150600090610888908390600160701b90046001600160701b031661101e565b6068549091506000906108ad90859063ffffffff600160e01b90910481169061101e16565b606854606654604080516318160ddd60e01b815290519394506001600160701b039092169260009283926001600160a01b0316916318160ddd91600480820192602092909190829003018186803b15801561090757600080fd5b505afa15801561091b573d6000803e3d6000fd5b505050506040513d602081101561093157600080fd5b5051905080158015906109445750600085115b156109b6576067546109579085906110b5565b915084821115610965578491505b6000610971838361110e565b905061097d8482611137565b6040805185815290519195507f7de59a92c9386255180c28ede4b61edb9b7b2ac96855ac634151489cef21bad6919081900360200190a1505b6109bf83611069565b606880546dffffffffffffffffffffffffffff19166001600160701b0392831617908190556109fa916105bc91600160701b90041684611137565b6068600e6101000a8154816001600160701b0302191690836001600160701b03160217905550610a2987611191565b6068805463ffffffff92909216600160e01b026001600160e01b03909216919091179055509550505050505090565b6066546001600160a01b038281169116148015610a7d57506001600160a01b03841615155b1561054657610a8a6107bc565b506106e783610e79565b610a9c6107bc565b50606554604080516323b872dd60e01b81523360048201523060248201526044810184905290516001600160a01b03909216916323b872dd916064808201926020929091908290030181600087803b158015610af757600080fd5b505af1158015610b0b573d6000803e3d6000fd5b505050506040513d6020811015610b2157600080fd5b505060408051828152905133917f2da466a7b24304f47e87fa2e1e5a81b9831ce54fec19055ce277ca2f39ba42c4919081900360200190a250565b606854600160701b90046001600160701b031681565b610b7a6110b1565b6033546001600160a01b03908116911614610bdc576040805162461bcd60e51b815260206004820181905260248201527f4f776e61626c653a2063616c6c6572206973206e6f7420746865206f776e6572604482015290519081900360640190fd5b60008111610c31576040805162461bcd60e51b815260206004820152601c60248201527f546f6b656e4661756365742f64726970526174652d67742d7a65726f00000000604482015290519081900360640190fd5b610c396107bc565b5060678190556040805182815290517f3d38e7cd2e029035006f9977a727c8724cd41dffb6d2a40d9f66bd4c26836a329181900360200190a150565b606854600160e01b900463ffffffff1681565b6068546001600160701b031681565b6066546001600160a01b031681565b610cae6110b1565b6033546001600160a01b03908116911614610d10576040805162461bcd60e51b815260206004820181905260248201527f4f776e61626c653a2063616c6c6572206973206e6f7420746865206f776e6572604482015290519081900360640190fd5b6001600160a01b038116610d555760405162461bcd60e51b815260040180806020018281038252602681526020018061150e6026913960400191505060405180910390fd5b6033546040516001600160a01b038084169216907f8be0079c531659141344cd1fd0a4f28419497f9722a3daafe3b4186f6b6457e090600090a3603380546001600160a01b0319166001600160a01b0392909216919091179055565b303b1590565b600054610100900460ff1680610dd05750610dd0610db1565b80610dde575060005460ff16155b610e195760405162461bcd60e51b815260040180806020018281038252602e81526020018061155b602e913960400191505060405180910390fd5b600054610100900460ff16158015610e44576000805460ff1961ff0019909116610100171660011790555b610e4c6111d6565b610e54611276565b8015610e66576000805461ff00191690555b50565b6000610e7442611191565b905090565b6001600160a01b038116600090815260696020526040812080546068546001600160701b03166001600160801b039091161415610eba5760009150506103c3565b8054606854600091610ede916001600160701b0316906001600160801b031661101e565b606654604080516370a0823160e01b81526001600160a01b038881166004830152915193945060009391909216916370a08231916024808301926020929190829003018186803b158015610f3157600080fd5b505afa158015610f45573d6000803e3d6000fd5b505050506040513d6020811015610f5b57600080fd5b505190506000610f73610f6e838561136f565b611390565b604080518082019091526068546001600160701b031681528554919250906020820190610fb890610f6e90600160801b90046001600160801b03908116908616611137565b6001600160801b039081169091526001600160a01b03881660009081526069602090815260409091208351815494909201518316600160801b029183166fffffffffffffffffffffffffffffffff19909416939093179091161790559350505050919050565b600061106083836040518060400160405280601e81526020017f536166654d6174683a207375627472616374696f6e206f766572666c6f7700008152506113d4565b90505b92915050565b6000600160701b82106110ad5760405162461bcd60e51b81526004018080602001828103825260298152602001806115aa6029913960400191505060405180910390fd5b5090565b3390565b6000826110c457506000611063565b828202828482816110d157fe5b04146110605760405162461bcd60e51b81526004018080602001828103825260218152602001806115896021913960400191505060405180910390fd5b60008061112384670de0b6b3a76400006110b5565b905061112f818461146b565b949350505050565b600082820183811015611060576040805162461bcd60e51b815260206004820152601b60248201527f536166654d6174683a206164646974696f6e206f766572666c6f770000000000604482015290519081900360640190fd5b600064010000000082106110ad5760405162461bcd60e51b81526004018080602001828103825260268152602001806115d36026913960400191505060405180910390fd5b600054610100900460ff16806111ef57506111ef610db1565b806111fd575060005460ff16155b6112385760405162461bcd60e51b815260040180806020018281038252602e81526020018061155b602e913960400191505060405180910390fd5b600054610100900460ff16158015610e54576000805460ff1961ff0019909116610100171660011790558015610e66576000805461ff001916905550565b600054610100900460ff168061128f575061128f610db1565b8061129d575060005460ff16155b6112d85760405162461bcd60e51b815260040180806020018281038252602e81526020018061155b602e913960400191505060405180910390fd5b600054610100900460ff16158015611303576000805460ff1961ff0019909116610100171660011790555b600061130d6110b1565b603380546001600160a01b0319166001600160a01b038316908117909155604051919250906000907f8be0079c531659141344cd1fd0a4f28419497f9722a3daafe3b4186f6b6457e0908290a3508015610e66576000805461ff001916905550565b60008061137c83856110b5565b905061112f81670de0b6b3a764000061146b565b6000600160801b82106110ad5760405162461bcd60e51b81526004018080602001828103825260278152602001806115346027913960400191505060405180910390fd5b600081848411156114635760405162461bcd60e51b81526004018080602001828103825283818151815260200191508051906020019080838360005b83811015611428578181015183820152602001611410565b50505050905090810190601f1680156114555780820380516001836020036101000a031916815260200191505b509250505060405180910390fd5b505050900390565b600061106083836040518060400160405280601a81526020017f536166654d6174683a206469766973696f6e206279207a65726f000000000000815250600081836114f75760405162461bcd60e51b8152602060048201818152835160248401528351909283926044909101919085019080838360008315611428578181015183820152602001611410565b50600083858161150357fe5b049594505050505056fe4f776e61626c653a206e6577206f776e657220697320746865207a65726f206164647265737353616665436173743a2076616c756520646f65736e27742066697420696e203132382062697473496e697469616c697a61626c653a20636f6e747261637420697320616c726561647920696e697469616c697a6564536166654d6174683a206d756c7469706c69636174696f6e206f766572666c6f7753616665436173743a2076616c756520646f65736e27742066697420696e20616e2075696e7431313253616665436173743a2076616c756520646f65736e27742066697420696e2033322062697473a26469706673582212203ccebbd3167cc6a19921f533931c5934c3eedc92caf2531686bd7830b2f04d5664736f6c634300060c0033",
  "devdoc": {
    "kind": "dev",
    "methods": {
      "claimAll(address,address[])": {
        "params": {
          "comptrollers": "The comptrollers to call claim on.",
          "user": "The user to claim for"
        }
      },
      "create(address,address,uint256)": {
        "params": {
          "_asset": "The asset to disburse to users",
          "_dripRatePerSecond": "The amount of the asset to drip each second",
          "_measure": "The token to use to measure a users portion"
        },
        "returns": {
          "_0": "A reference to the new proxied Comptroller V2"
        }
      }
    },
    "title": "Stake Prize Pool Proxy Factory",
    "version": 1
  },
  "userdoc": {
    "kind": "user",
    "methods": {
      "claimAll(address,address[])": {
        "notice": "Runs claim on all passed comptrollers for a user."
      },
      "constructor": "Initializes the Factory with an instance of the TokenFaucet",
      "create(address,address,uint256)": {
        "notice": "Creates a new Comptroller V2"
      },
      "instance()": {
        "notice": "Contract template for deploying proxied Comptrollers"
      }
    },
    "notice": "Minimal proxy pattern for creating new TokenFaucet contracts",
    "version": 1
  },
  "storageLayout": {
    "storage": [
      {
        "astId": 27406,
        "contract": "contracts/token-faucet/TokenFaucetProxyFactory.sol:TokenFaucetProxyFactory",
        "label": "instance",
        "offset": 0,
        "slot": "0",
        "type": "t_contract(TokenFaucet)27396"
      }
    ],
    "types": {
      "t_contract(TokenFaucet)27396": {
        "encoding": "inplace",
        "label": "contract TokenFaucet",
        "numberOfBytes": "20"
      }
    }
  }
}