{
  "address": "0x3FaB224830C182972239F6a599A5A5bd64e43d6D",
  "abi": [
    {
      "inputs": [],
      "stateMutability": "nonpayable",
      "type": "constructor"
    },
    {
      "anonymous": false,
      "inputs": [
        {
          "indexed": false,
          "internalType": "address",
          "name": "proxy",
          "type": "address"
        }
      ],
      "name": "ProxyCreated",
      "type": "event"
    },
    {
      "inputs": [
        {
          "internalType": "contract TokenListenerInterface",
          "name": "tokenListener",
          "type": "address"
        }
      ],
      "name": "create",
      "outputs": [
        {
          "internalType": "contract UnsafeTokenListenerDelegator",
          "name": "",
          "type": "address"
        }
      ],
      "stateMutability": "nonpayable",
      "type": "function"
    },
    {
      "inputs": [
        {
          "internalType": "address",
          "name": "_logic",
          "type": "address"
        },
        {
          "internalType": "bytes",
          "name": "_data",
          "type": "bytes"
        }
      ],
      "name": "deployMinimal",
      "outputs": [
        {
          "internalType": "address",
          "name": "proxy",
          "type": "address"
        }
      ],
      "stateMutability": "nonpayable",
      "type": "function"
    },
    {
      "inputs": [],
      "name": "instance",
      "outputs": [
        {
          "internalType": "contract UnsafeTokenListenerDelegator",
          "name": "",
          "type": "address"
        }
      ],
      "stateMutability": "view",
      "type": "function"
    }
  ],
  "transactionHash": "0x66037f7c4ca771d2b96c1da04ec953f16e70c8f9f848b36d83f684a7390d2a33",
  "args": [],
  "solcInputHash": "4ee5cd3af4cdf3f3b3aae685e2904e9d",
  "bytecode": "0x608060405234801561001057600080fd5b5060405161001d9061005f565b604051809103906000f080158015610039573d6000803e3d6000fd5b50600080546001600160a01b0319166001600160a01b039290921691909117905561006c565b6104378061043f83390190565b6103c48061007b6000396000f3fe608060405234801561001057600080fd5b50600436106100415760003560e01c8063022ec095146100465780639ed933181461006a578063b3eeb5e214610090575b600080fd5b61004e610146565b604080516001600160a01b039092168252519081900360200190f35b61004e6004803603602081101561008057600080fd5b50356001600160a01b0316610155565b61004e600480360360408110156100a657600080fd5b6001600160a01b0382351691908101906040810160208201356401000000008111156100d157600080fd5b8201836020820111156100e357600080fd5b8035906020019184600183028401116401000000008311171561010557600080fd5b91908080601f0160208091040260200160405190810160405280939291908181526020018383808284376000920191909152509295506101ee945050505050565b6000546001600160a01b031681565b600080546040805160208101909152828152829161017e916001600160a01b03909116906101ee565b9050806001600160a01b031663c4d66de8846040518263ffffffff1660e01b815260040180826001600160a01b03168152602001915050600060405180830381600087803b1580156101cf57600080fd5b505af11580156101e3573d6000803e3d6000fd5b509295945050505050565b6000808360601b9050604051733d602d80600a3d3981f3363d3d373d3d3d363d7360601b81528160148201526e5af43d82803e903d91602b57fd5bf360881b60288201526037816000f0604080516001600160a01b038316815290519194507efffc2da0b561cae30d9826d37709e9421c4725faebc226cbbb7ef5fc5e7349925081900360200190a1825115610363576000826001600160a01b0316846040518082805190602001908083835b602083106102ba5780518252601f19909201916020918201910161029b565b6001836020036101000a0380198251168184511680821785525050505050509050019150506000604051808303816000865af19150503d806000811461031c576040519150601f19603f3d011682016040523d82523d6000602084013e610321565b606091505b50509050806103615760405162461bcd60e51b815260040180806020018281038252602481526020018061036b6024913960400191505060405180910390fd5b505b509291505056fe50726f7879466163746f72792f636f6e7374727563746f722d63616c6c2d6661696c6564a264697066735822122045bf76b9f7d662201396731cc90dbe33650ce2f43369fbeb378dd3eca112ed7664736f6c634300060c0033608060405234801561001057600080fd5b50610417806100206000396000f3fe608060405234801561001057600080fd5b50600436106100575760003560e01c806301ffc9a71461005c5780634d7f3db014610097578063b2210957146100d5578063c4d66de814610111578063c8a1fc5514610137575b600080fd5b6100836004803603602081101561007257600080fd5b50356001600160e01b03191661015b565b604080519115158252519081900360200190f35b6100d3600480360360808110156100ad57600080fd5b506001600160a01b03813581169160208101359160408201358116916060013516610195565b005b6100d3600480360360808110156100eb57600080fd5b506001600160a01b0381358116916020810135821691604082013591606001351661021a565b6100d36004803603602081101561012757600080fd5b50356001600160a01b0316610281565b61013f610387565b604080516001600160a01b039092168252519081900360200190f35b60006001600160e01b031982166301ffc9a760e01b148061018f57506001600160e01b03198216600162a1cb1960e01b0319145b92915050565b60008054604080516304d7f3db60e41b81526001600160a01b038881166004830152602482018890528681166044830152858116606483015291516201000090930490911692634d7f3db09260848084019382900301818387803b1580156101fc57600080fd5b505af1158015610210573d6000803e3d6000fd5b5050505050505050565b600080546040805163b221095760e01b81526001600160a01b03888116600483015287811660248301526044820187905285811660648301529151620100009093049091169263b22109579260848084019382900301818387803b1580156101fc57600080fd5b600054610100900460ff168061029a575061029a61039c565b806102a8575060005460ff16155b6102e35760405162461bcd60e51b815260040180806020018281038252602e8152602001806103b4602e913960400191505060405180910390fd5b600054610100900460ff1615801561030e576000805460ff1961ff0019909116610100171660011790555b600080546001600160a01b038085166201000090810262010000600160b01b03199093169290921792839055604080519290930416815290517f908408e307fc569b417f6cbec5d5a06f44a0a505ac0479b47d421a4b2fd6a1e69181900360200190a18015610383576000805461ff00191690555b5050565b6000546201000090046001600160a01b031681565b60006103a7306103ad565b15905090565b3b15159056fe496e697469616c697a61626c653a20636f6e747261637420697320616c726561647920696e697469616c697a6564a26469706673582212202f18946613279d5c39b080642de2c880bd49f664ca27962a736beedc5b872d6c64736f6c634300060c0033",
  "devdoc": {
    "kind": "dev",
    "methods": {
      "create(address)": {
        "returns": {
          "_0": "A reference to the new proxied Controlled ERC20 Token"
        }
      }
    },
    "title": "Controlled ERC20 Token Factory",
    "version": 1
  },
  "userdoc": {
    "kind": "user",
    "methods": {
      "constructor": "Initializes the Factory with an instance of the Controlled ERC20 Token",
      "create(address)": {
        "notice": "Creates a new Controlled ERC20 Token as a proxy of the template instance"
      },
      "instance()": {
        "notice": "Contract template for deploying proxied tokens"
      }
    },
    "notice": "Minimal proxy pattern for creating new Controlled ERC20 Tokens",
    "version": 1
  },
  "storageLayout": {
    "storage": [
      {
        "astId": 22077,
        "contract": "contracts/token/UnsafeTokenListenerDelegatorFactory.sol:UnsafeTokenListenerDelegatorProxyFactory",
        "label": "instance",
        "offset": 0,
        "slot": "0",
        "type": "t_contract(UnsafeTokenListenerDelegator)22067"
      }
    ],
    "types": {
      "t_contract(UnsafeTokenListenerDelegator)22067": {
        "encoding": "inplace",
        "label": "contract UnsafeTokenListenerDelegator",
        "numberOfBytes": "20"
      }
    }
  }
}