{
  "address": "0x4027dE966127af5F015Ea1cfd6293a3583892668",
  "abi": [
    {
      "inputs": [
        {
          "internalType": "contract CTokenInterface",
          "name": "_cToken",
          "type": "address"
        }
      ],
      "stateMutability": "nonpayable",
      "type": "constructor"
    },
    {
      "anonymous": false,
      "inputs": [
        {
          "indexed": true,
          "internalType": "address",
          "name": "cToken",
          "type": "address"
        }
      ],
      "name": "CTokenYieldSourceInitialized",
      "type": "event"
    },
    {
      "inputs": [
        {
          "internalType": "address",
          "name": "addr",
          "type": "address"
        }
      ],
      "name": "balanceOf",
      "outputs": [
        {
          "internalType": "uint256",
          "name": "",
          "type": "uint256"
        }
      ],
      "stateMutability": "nonpayable",
      "type": "function"
    },
    {
      "inputs": [
        {
          "internalType": "address",
          "name": "",
          "type": "address"
        }
      ],
      "name": "balances",
      "outputs": [
        {
          "internalType": "uint256",
          "name": "",
          "type": "uint256"
        }
      ],
      "stateMutability": "view",
      "type": "function"
    },
    {
      "inputs": [],
      "name": "cToken",
      "outputs": [
        {
          "internalType": "contract CTokenInterface",
          "name": "",
          "type": "address"
        }
      ],
      "stateMutability": "view",
      "type": "function"
    },
    {
      "inputs": [
        {
          "internalType": "uint256",
          "name": "redeemAmount",
          "type": "uint256"
        }
      ],
      "name": "redeem",
      "outputs": [
        {
          "internalType": "uint256",
          "name": "",
          "type": "uint256"
        }
      ],
      "stateMutability": "nonpayable",
      "type": "function"
    },
    {
      "inputs": [
        {
          "internalType": "uint256",
          "name": "amount",
          "type": "uint256"
        },
        {
          "internalType": "address",
          "name": "to",
          "type": "address"
        }
      ],
      "name": "supplyTo",
      "outputs": [],
      "stateMutability": "nonpayable",
      "type": "function"
    },
    {
      "inputs": [],
      "name": "token",
      "outputs": [
        {
          "internalType": "contract IERC20Upgradeable",
          "name": "",
          "type": "address"
        }
      ],
      "stateMutability": "view",
      "type": "function"
    }
  ],
  "transactionHash": "0x5960528492d96b1afcbc15ff2c7169e1074afe4ad3af371e3880b2eb1caf62cb",
  "args": [
    "0xF0d0EB522cfa50B716B3b1604C4F0fA6f04376AD"
  ],
  "solcInputHash": "4ee5cd3af4cdf3f3b3aae685e2904e9d",
  "bytecode": "0x608060405234801561001057600080fd5b50604051610c77380380610c778339818101604052602081101561003357600080fd5b5051600180546001600160a01b0319166001600160a01b0380841691909117918290556040519116907f62a988a69bb7d6a98d15b99860212aeed699dd1c1c09f6474948e77f0d4addcb90600090a250610be5806100926000396000f3fe608060405234801561001057600080fd5b50600436106100625760003560e01c806304bbd6931461006757806327e235e31461009557806369e527da146100cd57806370a08231146100f1578063db006a7514610117578063fc0c546a14610134575b600080fd5b6100936004803603604081101561007d57600080fd5b50803590602001356001600160a01b031661013c565b005b6100bb600480360360208110156100ab57600080fd5b50356001600160a01b03166104cf565b60408051918252519081900360200190f35b6100d56104e1565b604080516001600160a01b039092168252519081900360200190f35b6100bb6004803603602081101561010757600080fd5b50356001600160a01b03166104f0565b6100bb6004803603602081101561012d57600080fd5b5035610624565b6100d5610995565b610144610995565b604080516323b872dd60e01b81523360048201523060248201526044810185905290516001600160a01b0392909216916323b872dd916064808201926020929091908290030181600087803b15801561019c57600080fd5b505af11580156101b0573d6000803e3d6000fd5b505050506040513d60208110156101c657600080fd5b505060015460408051636f307dc360e01b815290516001600160a01b0390921691636f307dc391600480820192602092909190829003018186803b15801561020d57600080fd5b505afa158015610221573d6000803e3d6000fd5b505050506040513d602081101561023757600080fd5b50516001546040805163095ea7b360e01b81526001600160a01b039283166004820152602481018690529051919092169163095ea7b39160448083019260209291908290030181600087803b15801561028f57600080fd5b505af11580156102a3573d6000803e3d6000fd5b505050506040513d60208110156102b957600080fd5b5050600154604080516370a0823160e01b815230600482015290516000926001600160a01b0316916370a08231916024808301926020929190829003018186803b15801561030657600080fd5b505afa15801561031a573d6000803e3d6000fd5b505050506040513d602081101561033057600080fd5b50516001546040805163140e25ad60e31b81526004810187905290519293506001600160a01b039091169163a0712d68916024808201926020929091908290030181600087803b15801561038357600080fd5b505af1158015610397573d6000803e3d6000fd5b505050506040513d60208110156103ad57600080fd5b505115610401576040805162461bcd60e51b815260206004820152601d60248201527f43546f6b656e5969656c64536f757263652f6d696e742d6661696c6564000000604482015290519081900360640190fd5b600154604080516370a0823160e01b815230600482015290516000926104879285926001600160a01b03909216916370a0823191602480820192602092909190829003018186803b15801561045557600080fd5b505afa158015610469573d6000803e3d6000fd5b505050506040513d602081101561047f57600080fd5b505190610a0b565b6001600160a01b0384166000908152602081905260409020549091506104ad9082610a6d565b6001600160a01b03909316600090815260208190526040902092909255505050565b60006020819052908152604090205481565b6001546001600160a01b031681565b60015460408051633af9e66960e01b8152306004820152905160009283926001600160a01b0390911691633af9e6699160248082019260209290919082900301818787803b15801561054157600080fd5b505af1158015610555573d6000803e3d6000fd5b505050506040513d602081101561056b57600080fd5b5051600154604080516370a0823160e01b815230600482015290519293506000926001600160a01b03909216916370a0823191602480820192602092909190829003018186803b1580156105be57600080fd5b505afa1580156105d2573d6000803e3d6000fd5b505050506040513d60208110156105e857600080fd5b50516001600160a01b03851660009081526020819052604090205490915061061c9082906106169085610ace565b90610b27565b949350505050565b600154604080516370a0823160e01b8152306004820152905160009283926001600160a01b03909116916370a0823191602480820192602092909190829003018186803b15801561067457600080fd5b505afa158015610688573d6000803e3d6000fd5b505050506040513d602081101561069e57600080fd5b5051905060006106ac610995565b6001600160a01b03166370a08231306040518263ffffffff1660e01b815260040180826001600160a01b0316815260200191505060206040518083038186803b1580156106f857600080fd5b505afa15801561070c573d6000803e3d6000fd5b505050506040513d602081101561072257600080fd5b50516001546040805163852a12e360e01b81526004810188905290519293506001600160a01b039091169163852a12e3916024808201926020929091908290030181600087803b15801561077557600080fd5b505af1158015610789573d6000803e3d6000fd5b505050506040513d602081101561079f57600080fd5b5051156107f3576040805162461bcd60e51b815260206004820152601f60248201527f43546f6b656e5969656c64536f757263652f72656465656d2d6661696c656400604482015290519081900360640190fd5b600154604080516370a0823160e01b81523060048201529051600092610878926001600160a01b03909116916370a0823191602480820192602092909190829003018186803b15801561084557600080fd5b505afa158015610859573d6000803e3d6000fd5b505050506040513d602081101561086f57600080fd5b50518490610a0b565b905060006108d483610888610995565b6001600160a01b03166370a08231306040518263ffffffff1660e01b815260040180826001600160a01b0316815260200191505060206040518083038186803b15801561045557600080fd5b336000908152602081905260409020549091506108f19083610a0b565b33600090815260208190526040902055610909610995565b6001600160a01b031663a9059cbb33836040518363ffffffff1660e01b815260040180836001600160a01b0316815260200182815260200192505050602060405180830381600087803b15801561095f57600080fd5b505af1158015610973573d6000803e3d6000fd5b505050506040513d602081101561098957600080fd5b50909695505050505050565b60015460408051636f307dc360e01b815290516000926001600160a01b031691636f307dc3916004808301926020929190829003018186803b1580156109da57600080fd5b505afa1580156109ee573d6000803e3d6000fd5b505050506040513d6020811015610a0457600080fd5b5051905090565b600082821115610a62576040805162461bcd60e51b815260206004820152601e60248201527f536166654d6174683a207375627472616374696f6e206f766572666c6f770000604482015290519081900360640190fd5b508082035b92915050565b600082820183811015610ac7576040805162461bcd60e51b815260206004820152601b60248201527f536166654d6174683a206164646974696f6e206f766572666c6f770000000000604482015290519081900360640190fd5b9392505050565b600082610add57506000610a67565b82820282848281610aea57fe5b0414610ac75760405162461bcd60e51b8152600401808060200182810382526021815260200180610b8f6021913960400191505060405180910390fd5b6000808211610b7d576040805162461bcd60e51b815260206004820152601a60248201527f536166654d6174683a206469766973696f6e206279207a65726f000000000000604482015290519081900360640190fd5b818381610b8657fe5b04939250505056fe536166654d6174683a206d756c7469706c69636174696f6e206f766572666c6f77a2646970667358221220d97e239ae1314b1eccd1a6ca6dc5bde8b16bb7ff93f705e55cd81828d35ff02c64736f6c634300060c0033",
  "devdoc": {
    "details": "THIS CONTRACT IS EXPERIMENTAL!  USE AT YOUR OWN RISK",
    "kind": "dev",
    "methods": {
      "balanceOf(address)": {
        "returns": {
          "_0": "The underlying balance of asset tokens"
        }
      },
      "constructor": {
        "params": {
          "_cToken": "Address of the Compound cToken interface"
        }
      },
      "redeem(uint256)": {
        "params": {
          "redeemAmount": "The amount of yield-bearing tokens to be redeemed"
        },
        "returns": {
          "_0": "The actual amount of tokens that were redeemed."
        }
      },
      "supplyTo(uint256,address)": {
        "params": {
          "amount": "The amount of asset tokens to be supplied"
        }
      },
      "token()": {
        "returns": {
          "_0": "The ERC20 asset token"
        }
      }
    },
    "title": "Defines the functions used to interact with a yield source.  The Prize Pool inherits this contract.",
    "version": 1
  },
  "userdoc": {
    "kind": "user",
    "methods": {
      "balanceOf(address)": {
        "notice": "Returns the total balance (in asset tokens).  This includes the deposits and interest."
      },
      "cToken()": {
        "notice": "Interface for the Yield-bearing cToken by Compound"
      },
      "constructor": "Initializes the Yield Service with the Compound cToken",
      "redeem(uint256)": {
        "notice": "Redeems asset tokens from the yield source."
      },
      "supplyTo(uint256,address)": {
        "notice": "Supplies asset tokens to the yield source."
      },
      "token()": {
        "notice": "Returns the ERC20 asset token used for deposits."
      }
    },
    "notice": "Prize Pools subclasses need to implement this interface so that yield can be generated.",
    "version": 1
  },
  "storageLayout": {
    "storage": [
      {
        "astId": 22618,
        "contract": "contracts/yield-source/CTokenYieldSource.sol:CTokenYieldSource",
        "label": "balances",
        "offset": 0,
        "slot": "0",
        "type": "t_mapping(t_address,t_uint256)"
      },
      {
        "astId": 22621,
        "contract": "contracts/yield-source/CTokenYieldSource.sol:CTokenYieldSource",
        "label": "cToken",
        "offset": 0,
        "slot": "1",
        "type": "t_contract(CTokenInterface)10225"
      }
    ],
    "types": {
      "t_address": {
        "encoding": "inplace",
        "label": "address",
        "numberOfBytes": "20"
      },
      "t_contract(CTokenInterface)10225": {
        "encoding": "inplace",
        "label": "contract CTokenInterface",
        "numberOfBytes": "20"
      },
      "t_mapping(t_address,t_uint256)": {
        "encoding": "mapping",
        "key": "t_address",
        "label": "mapping(address => uint256)",
        "numberOfBytes": "32",
        "value": "t_uint256"
      },
      "t_uint256": {
        "encoding": "inplace",
        "label": "uint256",
        "numberOfBytes": "32"
      }
    }
  }
}