{
  "abi": [
    {
      "inputs": [
        {
          "internalType": "contract ERC20Mintable",
          "name": "_token",
          "type": "address"
        },
        {
          "internalType": "uint256",
          "name": "_supplyRatePerBlock",
          "type": "uint256"
        }
      ],
      "stateMutability": "nonpayable",
      "type": "constructor"
    },
    {
      "anonymous": false,
      "inputs": [
        {
          "indexed": true,
          "internalType": "address",
          "name": "owner",
          "type": "address"
        },
        {
          "indexed": true,
          "internalType": "address",
          "name": "spender",
          "type": "address"
        },
        {
          "indexed": false,
          "internalType": "uint256",
          "name": "value",
          "type": "uint256"
        }
      ],
      "name": "Approval",
      "type": "event"
    },
    {
      "anonymous": false,
      "inputs": [
        {
          "indexed": true,
          "internalType": "address",
          "name": "from",
          "type": "address"
        },
        {
          "indexed": true,
          "internalType": "address",
          "name": "to",
          "type": "address"
        },
        {
          "indexed": false,
          "internalType": "uint256",
          "name": "value",
          "type": "uint256"
        }
      ],
      "name": "Transfer",
      "type": "event"
    },
    {
      "inputs": [],
      "name": "accrue",
      "outputs": [],
      "stateMutability": "nonpayable",
      "type": "function"
    },
    {
      "inputs": [
        {
          "internalType": "uint256",
          "name": "amount",
          "type": "uint256"
        }
      ],
      "name": "accrueCustom",
      "outputs": [],
      "stateMutability": "nonpayable",
      "type": "function"
    },
    {
      "inputs": [
        {
          "internalType": "address",
          "name": "owner",
          "type": "address"
        },
        {
          "internalType": "address",
          "name": "spender",
          "type": "address"
        }
      ],
      "name": "allowance",
      "outputs": [
        {
          "internalType": "uint256",
          "name": "",
          "type": "uint256"
        }
      ],
      "stateMutability": "view",
      "type": "function"
    },
    {
      "inputs": [
        {
          "internalType": "address",
          "name": "spender",
          "type": "address"
        },
        {
          "internalType": "uint256",
          "name": "amount",
          "type": "uint256"
        }
      ],
      "name": "approve",
      "outputs": [
        {
          "internalType": "bool",
          "name": "",
          "type": "bool"
        }
      ],
      "stateMutability": "nonpayable",
      "type": "function"
    },
    {
      "inputs": [
        {
          "internalType": "address",
          "name": "account",
          "type": "address"
        }
      ],
      "name": "balanceOf",
      "outputs": [
        {
          "internalType": "uint256",
          "name": "",
          "type": "uint256"
        }
      ],
      "stateMutability": "view",
      "type": "function"
    },
    {
      "inputs": [
        {
          "internalType": "address",
          "name": "account",
          "type": "address"
        }
      ],
      "name": "balanceOfUnderlying",
      "outputs": [
        {
          "internalType": "uint256",
          "name": "",
          "type": "uint256"
        }
      ],
      "stateMutability": "view",
      "type": "function"
    },
    {
      "inputs": [
        {
          "internalType": "uint256",
          "name": "amount",
          "type": "uint256"
        }
      ],
      "name": "burn",
      "outputs": [],
      "stateMutability": "nonpayable",
      "type": "function"
    },
    {
      "inputs": [
        {
          "internalType": "uint256",
          "name": "tokens",
          "type": "uint256"
        }
      ],
      "name": "cTokenValueOf",
      "outputs": [
        {
          "internalType": "uint256",
          "name": "",
          "type": "uint256"
        }
      ],
      "stateMutability": "view",
      "type": "function"
    },
    {
      "inputs": [],
      "name": "decimals",
      "outputs": [
        {
          "internalType": "uint8",
          "name": "",
          "type": "uint8"
        }
      ],
      "stateMutability": "view",
      "type": "function"
    },
    {
      "inputs": [
        {
          "internalType": "address",
          "name": "spender",
          "type": "address"
        },
        {
          "internalType": "uint256",
          "name": "subtractedValue",
          "type": "uint256"
        }
      ],
      "name": "decreaseAllowance",
      "outputs": [
        {
          "internalType": "bool",
          "name": "",
          "type": "bool"
        }
      ],
      "stateMutability": "nonpayable",
      "type": "function"
    },
    {
      "inputs": [],
      "name": "exchangeRateCurrent",
      "outputs": [
        {
          "internalType": "uint256",
          "name": "",
          "type": "uint256"
        }
      ],
      "stateMutability": "view",
      "type": "function"
    },
    {
      "inputs": [],
      "name": "getCash",
      "outputs": [
        {
          "internalType": "uint256",
          "name": "",
          "type": "uint256"
        }
      ],
      "stateMutability": "view",
      "type": "function"
    },
    {
      "inputs": [
        {
          "internalType": "address",
          "name": "spender",
          "type": "address"
        },
        {
          "internalType": "uint256",
          "name": "addedValue",
          "type": "uint256"
        }
      ],
      "name": "increaseAllowance",
      "outputs": [
        {
          "internalType": "bool",
          "name": "",
          "type": "bool"
        }
      ],
      "stateMutability": "nonpayable",
      "type": "function"
    },
    {
      "inputs": [
        {
          "internalType": "uint256",
          "name": "amount",
          "type": "uint256"
        }
      ],
      "name": "mint",
      "outputs": [
        {
          "internalType": "uint256",
          "name": "",
          "type": "uint256"
        }
      ],
      "stateMutability": "nonpayable",
      "type": "function"
    },
    {
      "inputs": [],
      "name": "name",
      "outputs": [
        {
          "internalType": "string",
          "name": "",
          "type": "string"
        }
      ],
      "stateMutability": "view",
      "type": "function"
    },
    {
      "inputs": [
        {
          "internalType": "uint256",
          "name": "requestedAmount",
          "type": "uint256"
        }
      ],
      "name": "redeemUnderlying",
      "outputs": [
        {
          "internalType": "uint256",
          "name": "",
          "type": "uint256"
        }
      ],
      "stateMutability": "nonpayable",
      "type": "function"
    },
    {
      "inputs": [
        {
          "internalType": "uint256",
          "name": "_supplyRatePerBlock",
          "type": "uint256"
        }
      ],
      "name": "setSupplyRateMantissa",
      "outputs": [],
      "stateMutability": "nonpayable",
      "type": "function"
    },
    {
      "inputs": [],
      "name": "supplyRatePerBlock",
      "outputs": [
        {
          "internalType": "uint256",
          "name": "",
          "type": "uint256"
        }
      ],
      "stateMutability": "view",
      "type": "function"
    },
    {
      "inputs": [],
      "name": "symbol",
      "outputs": [
        {
          "internalType": "string",
          "name": "",
          "type": "string"
        }
      ],
      "stateMutability": "view",
      "type": "function"
    },
    {
      "inputs": [],
      "name": "totalSupply",
      "outputs": [
        {
          "internalType": "uint256",
          "name": "",
          "type": "uint256"
        }
      ],
      "stateMutability": "view",
      "type": "function"
    },
    {
      "inputs": [
        {
          "internalType": "address",
          "name": "recipient",
          "type": "address"
        },
        {
          "internalType": "uint256",
          "name": "amount",
          "type": "uint256"
        }
      ],
      "name": "transfer",
      "outputs": [
        {
          "internalType": "bool",
          "name": "",
          "type": "bool"
        }
      ],
      "stateMutability": "nonpayable",
      "type": "function"
    },
    {
      "inputs": [
        {
          "internalType": "address",
          "name": "sender",
          "type": "address"
        },
        {
          "internalType": "address",
          "name": "recipient",
          "type": "address"
        },
        {
          "internalType": "uint256",
          "name": "amount",
          "type": "uint256"
        }
      ],
      "name": "transferFrom",
      "outputs": [
        {
          "internalType": "bool",
          "name": "",
          "type": "bool"
        }
      ],
      "stateMutability": "nonpayable",
      "type": "function"
    },
    {
      "inputs": [],
      "name": "underlying",
      "outputs": [
        {
          "internalType": "contract ERC20Mintable",
          "name": "",
          "type": "address"
        }
      ],
      "stateMutability": "view",
      "type": "function"
    }
  ],
  "address": "0xfFF2Af739d6e8dA1E9599c405aadDdBA24794688",
  "args": [
    "0xAE06635Be296dcDb71A7d69484e59203E2105961",
    "8888888888888"
  ],
  "solcInputHash": "0x46fdc4958f6881f7fa061a86a12604f712d9c6334db372656d746d0f3b729b52",
  "bytecode": "0x608060405234801561001057600080fd5b506040516116663803806116668339818101604052604081101561003357600080fd5b5080516020909101516001600160a01b038216610097576040805162461bcd60e51b815260206004820152601460248201527f746f6b656e206973206e6f7420646566696e6564000000000000000000000000604482015290519081900360640190fd5b609880546001600160a01b0319166001600160a01b03939093169290921790915560995561159c806100ca6000396000f3fe608060405234801561001057600080fd5b506004361061014d5760003560e01c80636f307dc3116100c3578063a457c2d71161007c578063a457c2d7146103d9578063a9059cbb14610405578063ae9d70b014610431578063bd6d894d14610439578063dd62ed3e14610441578063f8ba4cff1461046f5761014d565b80636f307dc31461033057806370a08231146103545780637dabc3ce1461037a578063852a12e31461039757806395d89b41146103b4578063a0712d68146103bc5761014d565b80633950935111610115578063395093511461027d5780633af9e669146102a95780633b1d21a2146102cf57806342966c68146102d75780634c1fb633146102f65780635a2c37ca146103135761014d565b806306fdde0314610152578063095ea7b3146101cf57806318160ddd1461020f57806323b872dd14610229578063313ce5671461025f575b600080fd5b61015a610477565b6040805160208082528351818301528351919283929083019185019080838360005b8381101561019457818101518382015260200161017c565b50505050905090810190601f1680156101c15780820380516001836020036101000a031916815260200191505b509250505060405180910390f35b6101fb600480360360408110156101e557600080fd5b506001600160a01b03813516906020013561050e565b604080519115158252519081900360200190f35b61021761052c565b60408051918252519081900360200190f35b6101fb6004803603606081101561023f57600080fd5b506001600160a01b03813581169160208101359091169060400135610532565b6102676105bf565b6040805160ff9092168252519081900360200190f35b6101fb6004803603604081101561029357600080fd5b506001600160a01b0381351690602001356105c8565b610217600480360360208110156102bf57600080fd5b50356001600160a01b031661061c565b610217610637565b6102f4600480360360208110156102ed57600080fd5b50356106b3565b005b6102f46004803603602081101561030c57600080fd5b5035610736565b6102f46004803603602081101561032957600080fd5b503561078a565b61033861078f565b604080516001600160a01b039092168252519081900360200190f35b6102176004803603602081101561036a57600080fd5b50356001600160a01b031661079e565b6102176004803603602081101561039057600080fd5b50356107b9565b610217600480360360208110156103ad57600080fd5b50356107cc565b61015a6108b7565b610217600480360360208110156103d257600080fd5b5035610918565b6101fb600480360360408110156103ef57600080fd5b506001600160a01b038135169060200135610ab0565b6101fb6004803603604081101561041b57600080fd5b506001600160a01b038135169060200135610b1e565b610217610b32565b610217610b38565b6102176004803603604081101561045757600080fd5b506001600160a01b0381358116916020013516610be1565b6102f4610c0c565b60688054604080516020601f60026000196101006001881615020190951694909404938401819004810282018101909252828152606093909290918301828280156105035780601f106104d857610100808354040283529160200191610503565b820191906000526020600020905b8154815290600101906020018083116104e657829003601f168201915b505050505090505b90565b600061052261051b610ceb565b8484610cef565b5060015b92915050565b60675490565b600061053f848484610ddb565b6105b58461054b610ceb565b6105b0856040518060600160405280602881526020016114b0602891396001600160a01b038a16600090815260666020526040812090610589610ceb565b6001600160a01b03168152602081019190915260400160002054919063ffffffff610f4416565b610cef565b5060019392505050565b606a5460ff1690565b60006105226105d5610ceb565b846105b085606660006105e6610ceb565b6001600160a01b03908116825260208083019390935260409182016000908120918c16815292529020549063ffffffff610fdb16565b600061052661062a8361079e565b610632610b38565b61103c565b609854604080516370a0823160e01b815230600482015290516000926001600160a01b0316916370a08231916024808301926020929190829003018186803b15801561068257600080fd5b505afa158015610696573d6000803e3d6000fd5b505050506040513d60208110156106ac57600080fd5b5051905090565b60985460408051632770a7eb60e21b81523060048201526024810184905290516001600160a01b0390921691639dc29fac916044808201926020929091908290030181600087803b15801561070757600080fd5b505af115801561071b573d6000803e3d6000fd5b505050506040513d602081101561073157600080fd5b505050565b609854604080516340c10f1960e01b81523060048201526024810184905290516001600160a01b03909216916340c10f19916044808201926020929091908290030181600087803b15801561070757600080fd5b609955565b6098546001600160a01b031681565b6001600160a01b031660009081526065602052604090205490565b6000610526826107c7610b38565b611071565b6000806107d8836107b9565b90506107e4338261109e565b6098546040805163a9059cbb60e01b81523360048201526024810186905290516001600160a01b039092169163a9059cbb916044808201926020929091908290030181600087803b15801561083857600080fd5b505af115801561084c573d6000803e3d6000fd5b505050506040513d602081101561086257600080fd5b50516108b1576040805162461bcd60e51b8152602060048201526019602482015278636f756c64206e6f74207472616e7366657220746f6b656e7360381b604482015290519081900360640190fd5b50919050565b60698054604080516020601f60026000196101006001881615020190951694909404938401819004810282018101909252828152606093909290918301828280156105035780601f106104d857610100808354040283529160200191610503565b60008061092361052c565b61092e5750816109ca565b609854604080516370a0823160e01b815230600482015290516000926109b39287926001600160a01b03909216916370a0823191602480820192602092909190829003018186803b15801561098257600080fd5b505afa158015610996573d6000803e3d6000fd5b505050506040513d60208110156109ac57600080fd5b50516111a6565b90506109c66109c061052c565b8261103c565b9150505b6109d433826111c1565b609854604080516323b872dd60e01b81523360048201523060248201526044810186905290516001600160a01b03909216916323b872dd916064808201926020929091908290030181600087803b158015610a2e57600080fd5b505af1158015610a42573d6000803e3d6000fd5b505050506040513d6020811015610a5857600080fd5b5051610aa7576040805162461bcd60e51b8152602060048201526019602482015278636f756c64206e6f74207472616e7366657220746f6b656e7360381b604482015290519081900360640190fd5b50600092915050565b6000610522610abd610ceb565b846105b0856040518060600160405280602581526020016115426025913960666000610ae7610ceb565b6001600160a01b03908116825260208083019390935260409182016000908120918d1681529252902054919063ffffffff610f4416565b6000610522610b2b610ceb565b8484610ddb565b60995490565b6000610b4261052c565b610b555750670de0b6b3a764000061050b565b609854604080516370a0823160e01b81523060048201529051610bda926001600160a01b0316916370a08231916024808301926020929190829003018186803b158015610ba157600080fd5b505afa158015610bb5573d6000803e3d6000fd5b505050506040513d6020811015610bcb57600080fd5b5051610bd561052c565b6111a6565b905061050b565b6001600160a01b03918216600090815260666020908152604080832093909416825291909152205490565b609854604080516370a0823160e01b815230600482015290516000926064926001600160a01b03909116916370a0823191602480820192602092909190829003018186803b158015610c5d57600080fd5b505afa158015610c71573d6000803e3d6000fd5b505050506040513d6020811015610c8757600080fd5b505160780281610c9357fe5b609854604080516340c10f1960e01b8152306004820152939092046024840181905291519193506001600160a01b0316916340c10f199160448083019260209291908290030181600087803b15801561070757600080fd5b3390565b6001600160a01b038316610d345760405162461bcd60e51b815260040180806020018281038252602481526020018061151e6024913960400191505060405180910390fd5b6001600160a01b038216610d795760405162461bcd60e51b81526004018080602001828103825260228152602001806114476022913960400191505060405180910390fd5b6001600160a01b03808416600081815260666020908152604080832094871680845294825291829020859055815185815291517f8c5be1e5ebec7d5bd14f71427d1e84f3dd0314c0f7b2291e5b200ac8c7c3b9259281900390910190a3505050565b6001600160a01b038316610e205760405162461bcd60e51b81526004018080602001828103825260258152602001806114f96025913960400191505060405180910390fd5b6001600160a01b038216610e655760405162461bcd60e51b81526004018080602001828103825260238152602001806114026023913960400191505060405180910390fd5b610e70838383610731565b610eb381604051806060016040528060268152602001611469602691396001600160a01b038616600090815260656020526040902054919063ffffffff610f4416565b6001600160a01b038085166000908152606560205260408082209390935590841681522054610ee8908263ffffffff610fdb16565b6001600160a01b0380841660008181526065602090815260409182902094909455805185815290519193928716927fddf252ad1be2c89b69c2b068fc378daa952ba7f163c4a11628f55a4df523b3ef92918290030190a3505050565b60008184841115610fd35760405162461bcd60e51b81526004018080602001828103825283818151815260200191508051906020019080838360005b83811015610f98578181015183820152602001610f80565b50505050905090810190601f168015610fc55780820380516001836020036101000a031916815260200191505b509250505060405180910390fd5b505050900390565b600082820183811015611035576040805162461bcd60e51b815260206004820152601b60248201527f536166654d6174683a206164646974696f6e206f766572666c6f770000000000604482015290519081900360640190fd5b9392505050565b60008061104f838563ffffffff6112bf16565b905061106981670de0b6b3a764000063ffffffff61131816565b949350505050565b60008061108c670de0b6b3a76400008563ffffffff6112bf16565b9050611069818463ffffffff61131816565b6001600160a01b0382166110e35760405162461bcd60e51b81526004018080602001828103825260218152602001806114d86021913960400191505060405180910390fd5b6110ef82600083610731565b61113281604051806060016040528060228152602001611425602291396001600160a01b038516600090815260656020526040902054919063ffffffff610f4416565b6001600160a01b03831660009081526065602052604090205560675461115e908263ffffffff61135a16565b6067556040805182815290516000916001600160a01b038516917fddf252ad1be2c89b69c2b068fc378daa952ba7f163c4a11628f55a4df523b3ef9181900360200190a35050565b60008061108c84670de0b6b3a764000063ffffffff6112bf16565b6001600160a01b03821661121c576040805162461bcd60e51b815260206004820152601f60248201527f45524332303a206d696e7420746f20746865207a65726f206164647265737300604482015290519081900360640190fd5b61122860008383610731565b60675461123b908263ffffffff610fdb16565b6067556001600160a01b038216600090815260656020526040902054611267908263ffffffff610fdb16565b6001600160a01b03831660008181526065602090815260408083209490945583518581529351929391927fddf252ad1be2c89b69c2b068fc378daa952ba7f163c4a11628f55a4df523b3ef9281900390910190a35050565b6000826112ce57506000610526565b828202828482816112db57fe5b04146110355760405162461bcd60e51b815260040180806020018281038252602181526020018061148f6021913960400191505060405180910390fd5b600061103583836040518060400160405280601a81526020017f536166654d6174683a206469766973696f6e206279207a65726f00000000000081525061139c565b600061103583836040518060400160405280601e81526020017f536166654d6174683a207375627472616374696f6e206f766572666c6f770000815250610f44565b600081836113eb5760405162461bcd60e51b8152602060048201818152835160248401528351909283926044909101919085019080838360008315610f98578181015183820152602001610f80565b5060008385816113f757fe5b049594505050505056fe45524332303a207472616e7366657220746f20746865207a65726f206164647265737345524332303a206275726e20616d6f756e7420657863656564732062616c616e636545524332303a20617070726f766520746f20746865207a65726f206164647265737345524332303a207472616e7366657220616d6f756e7420657863656564732062616c616e6365536166654d6174683a206d756c7469706c69636174696f6e206f766572666c6f7745524332303a207472616e7366657220616d6f756e74206578636565647320616c6c6f77616e636545524332303a206275726e2066726f6d20746865207a65726f206164647265737345524332303a207472616e736665722066726f6d20746865207a65726f206164647265737345524332303a20617070726f76652066726f6d20746865207a65726f206164647265737345524332303a2064656372656173656420616c6c6f77616e63652062656c6f77207a65726fa26469706673582212202927919e7d8213fcf5ec1f0014b42f6dd6712218025ed0639266c479162cbaa564736f6c63430006040033"
}