{
  "abi": [
    {
      "inputs": [
        {
          "internalType": "contract ComptrollerInterface",
          "name": "_comptroller",
          "type": "address"
        },
        {
          "internalType": "contract SingleRandomWinnerProxyFactory",
          "name": "_singleRandomWinnerProxyFactory",
          "type": "address"
        },
        {
          "internalType": "address",
          "name": "_trustedForwarder",
          "type": "address"
        },
        {
          "internalType": "contract CompoundPrizePoolProxyFactory",
          "name": "_compoundPrizePoolProxyFactory",
          "type": "address"
        },
        {
          "internalType": "contract ControlledTokenProxyFactory",
          "name": "_controlledTokenProxyFactory",
          "type": "address"
        },
        {
          "internalType": "contract OpenZeppelinProxyFactoryInterface",
          "name": "_proxyFactory",
          "type": "address"
        },
        {
          "internalType": "contract TicketProxyFactory",
          "name": "_ticketProxyFactory",
          "type": "address"
        }
      ],
      "stateMutability": "nonpayable",
      "type": "constructor"
    },
    {
      "anonymous": false,
      "inputs": [
        {
          "indexed": true,
          "internalType": "address",
          "name": "creator",
          "type": "address"
        },
        {
          "indexed": true,
          "internalType": "address",
          "name": "prizePool",
          "type": "address"
        },
        {
          "indexed": true,
          "internalType": "address",
          "name": "prizeStrategy",
          "type": "address"
        }
      ],
      "name": "CompoundPrizePoolCreated",
      "type": "event"
    },
    {
      "anonymous": false,
      "inputs": [
        {
          "indexed": true,
          "internalType": "address",
          "name": "singleRandomWinner",
          "type": "address"
        },
        {
          "indexed": true,
          "internalType": "address",
          "name": "ticket",
          "type": "address"
        },
        {
          "indexed": true,
          "internalType": "address",
          "name": "sponsorship",
          "type": "address"
        }
      ],
      "name": "SingleRandomWinnerCreated",
      "type": "event"
    },
    {
      "inputs": [],
      "name": "compoundPrizePoolProxyFactory",
      "outputs": [
        {
          "internalType": "contract CompoundPrizePoolProxyFactory",
          "name": "",
          "type": "address"
        }
      ],
      "stateMutability": "view",
      "type": "function"
    },
    {
      "inputs": [],
      "name": "comptroller",
      "outputs": [
        {
          "internalType": "contract ComptrollerInterface",
          "name": "",
          "type": "address"
        }
      ],
      "stateMutability": "view",
      "type": "function"
    },
    {
      "inputs": [],
      "name": "controlledTokenProxyFactory",
      "outputs": [
        {
          "internalType": "contract ControlledTokenProxyFactory",
          "name": "",
          "type": "address"
        }
      ],
      "stateMutability": "view",
      "type": "function"
    },
    {
      "inputs": [
        {
          "components": [
            {
              "internalType": "contract CTokenInterface",
              "name": "cToken",
              "type": "address"
            },
            {
              "internalType": "uint256",
              "name": "maxExitFeeMantissa",
              "type": "uint256"
            },
            {
              "internalType": "uint256",
              "name": "maxTimelockDuration",
              "type": "uint256"
            }
          ],
          "internalType": "struct CompoundPrizePoolBuilder.CompoundPrizePoolConfig",
          "name": "config",
          "type": "tuple"
        },
        {
          "internalType": "contract PrizePoolTokenListenerInterface",
          "name": "prizeStrategy",
          "type": "address"
        }
      ],
      "name": "createCompoundPrizePool",
      "outputs": [
        {
          "internalType": "contract CompoundPrizePool",
          "name": "",
          "type": "address"
        }
      ],
      "stateMutability": "nonpayable",
      "type": "function"
    },
    {
      "inputs": [
        {
          "components": [
            {
              "internalType": "contract CTokenInterface",
              "name": "cToken",
              "type": "address"
            },
            {
              "internalType": "uint256",
              "name": "maxExitFeeMantissa",
              "type": "uint256"
            },
            {
              "internalType": "uint256",
              "name": "maxTimelockDuration",
              "type": "uint256"
            }
          ],
          "internalType": "struct CompoundPrizePoolBuilder.CompoundPrizePoolConfig",
          "name": "prizePoolConfig",
          "type": "tuple"
        },
        {
          "components": [
            {
              "internalType": "address",
              "name": "proxyAdmin",
              "type": "address"
            },
            {
              "internalType": "contract RNGInterface",
              "name": "rngService",
              "type": "address"
            },
            {
              "internalType": "uint256",
              "name": "prizePeriodStart",
              "type": "uint256"
            },
            {
              "internalType": "uint256",
              "name": "prizePeriodSeconds",
              "type": "uint256"
            },
            {
              "internalType": "string",
              "name": "ticketName",
              "type": "string"
            },
            {
              "internalType": "string",
              "name": "ticketSymbol",
              "type": "string"
            },
            {
              "internalType": "string",
              "name": "sponsorshipName",
              "type": "string"
            },
            {
              "internalType": "string",
              "name": "sponsorshipSymbol",
              "type": "string"
            },
            {
              "internalType": "uint256",
              "name": "ticketCreditLimitMantissa",
              "type": "uint256"
            },
            {
              "internalType": "uint256",
              "name": "ticketCreditRateMantissa",
              "type": "uint256"
            },
            {
              "internalType": "address[]",
              "name": "externalERC20Awards",
              "type": "address[]"
            }
          ],
          "internalType": "struct SingleRandomWinnerBuilder.SingleRandomWinnerConfig",
          "name": "prizeStrategyConfig",
          "type": "tuple"
        }
      ],
      "name": "createSingleRandomWinner",
      "outputs": [
        {
          "internalType": "contract SingleRandomWinner",
          "name": "",
          "type": "address"
        }
      ],
      "stateMutability": "nonpayable",
      "type": "function"
    },
    {
      "inputs": [],
      "name": "proxyFactory",
      "outputs": [
        {
          "internalType": "contract OpenZeppelinProxyFactoryInterface",
          "name": "",
          "type": "address"
        }
      ],
      "stateMutability": "view",
      "type": "function"
    },
    {
      "inputs": [],
      "name": "singleRandomWinnerProxyFactory",
      "outputs": [
        {
          "internalType": "contract SingleRandomWinnerProxyFactory",
          "name": "",
          "type": "address"
        }
      ],
      "stateMutability": "view",
      "type": "function"
    },
    {
      "inputs": [],
      "name": "ticketProxyFactory",
      "outputs": [
        {
          "internalType": "contract TicketProxyFactory",
          "name": "",
          "type": "address"
        }
      ],
      "stateMutability": "view",
      "type": "function"
    },
    {
      "inputs": [],
      "name": "trustedForwarder",
      "outputs": [
        {
          "internalType": "address",
          "name": "",
          "type": "address"
        }
      ],
      "stateMutability": "view",
      "type": "function"
    }
  ],
  "address": "0xa901315Ce9F15b027aBeB91F6b3B3f5fC780bfB0",
  "args": [
    "0x518b04e4e1897efA7d343fc4Fd7f1406800b3EDE",
    "0x89f589e896Ee9604B17100B01987374aB91d6cF4",
    "0x6453D37248Ab2C16eBd1A8f782a2CBC65860E60B",
    "0x34AD03210cB39Bbd082E4B85390A0f71C370Fd52",
    "0xa22E273bD13c56e9E0df52101820e6D236F97268",
    "0x4365a737E963a8b9601f1945E42fDDCC6c825A05",
    "0xA5F9c7956a5DEb144f8d671bf1d7fA80640FAd59"
  ],
  "solcInputHash": "0x952a1c5ddcee9cfa35668d0ea97d336f2fe723c7e9085fb13b07daa4f06a7d3e",
  "bytecode": "0x60806040523480156200001157600080fd5b50604051620016ae380380620016ae8339810160408190526200003491620001b3565b6001600160a01b038716620000665760405162461bcd60e51b81526004016200005d90620003c3565b60405180910390fd5b6001600160a01b0386166200008f5760405162461bcd60e51b81526004016200005d906200025d565b6001600160a01b038416620000b85760405162461bcd60e51b81526004016200005d9062000309565b6001600160a01b038316620000e15760405162461bcd60e51b81526004016200005d9062000410565b6001600160a01b0382166200010a5760405162461bcd60e51b81526004016200005d90620002ba565b6001600160a01b038116620001335760405162461bcd60e51b81526004016200005d9062000366565b600580546001600160a01b03199081166001600160a01b03948516179091556003805482169284169290921790915560008054821697831697909717909655600480548716958216959095179094556006805486169385169390931790925560018054851691841691909117905560028054909316911617905562000487565b600080600080600080600060e0888a031215620001ce578283fd5b8751620001db816200046e565b6020890151909750620001ee816200046e565b604089015190965062000201816200046e565b606089015190955062000214816200046e565b608089015190945062000227816200046e565b60a08901519093506200023a816200046e565b60c08901519092506200024d816200046e565b8091505092959891949750929550565b6020808252603e908201527f436f6d706f756e645072697a65506f6f6c4275696c6465722f73696e676c652d60408201527f72616e646f6d2d77696e6e65722d666163746f72792d6e6f742d7a65726f0000606082015260800190565b6020808252602f908201527f436f6d706f756e645072697a65506f6f6c4275696c6465722f70726f78792d6660408201526e6163746f72792d6e6f742d7a65726f60881b606082015260800190565b6020808252603d908201527f436f6d706f756e645072697a65506f6f6c4275696c6465722f636f6d706f756e60408201527f642d7072697a652d706f6f6c2d6275696c6465722d6e6f742d7a65726f000000606082015260800190565b60208082526036908201527f436f6d706f756e645072697a65506f6f6c4275696c6465722f7469636b65742d60408201527f70726f78792d666163746f72792d6e6f742d7a65726f00000000000000000000606082015260800190565b6020808252602d908201527f436f6d706f756e645072697a65506f6f6c4275696c6465722f636f6d7074726f60408201526c6c6c65722d6e6f742d7a65726f60981b606082015260800190565b602080825260409082018190527f436f6d706f756e645072697a65506f6f6c4275696c6465722f636f6e74726f6c908201527f6c65642d746f6b656e2d70726f78792d666163746f72792d6e6f742d7a65726f606082015260800190565b6001600160a01b03811681146200048457600080fd5b50565b61121780620004976000396000f3fe608060405234801561001057600080fd5b50600436106100935760003560e01c8063802125f511610066578063802125f5146100d957806384c92869146100e1578063aa3b296c146100e9578063c10f1a75146100f1578063cbf93714146100f957610093565b806311bcc170146100985780635fe3b567146100c15780636a81d8bd146100c95780637da0a877146100d1575b600080fd5b6100ab6100a6366004610d86565b61010c565b6040516100b89190610ed5565b60405180910390f35b6100ab610192565b6100ab6101a1565b6100ab6101b0565b6100ab6101bf565b6100ab6101ce565b6100ab6101dd565b6100ab6101ec565b6100ab610107366004610dbd565b6101fb565b60008061012761012136869003860186610e06565b846109a3565b60405163f2fde38b60e01b81529091506001600160a01b0382169063f2fde38b90610156903390600401610ed5565b600060405180830381600087803b15801561017057600080fd5b505af1158015610184573d6000803e3d6000fd5b509293505050505b92915050565b6000546001600160a01b031681565b6002546001600160a01b031681565b6006546001600160a01b031681565b6001546001600160a01b031681565b6004546001600160a01b031681565b6003546001600160a01b031681565b6005546001600160a01b031681565b6000808061020c6020850185610c9c565b6001600160a01b03161461032657600554600480546040805163022ec09560e01b815290516001600160a01b0394851694636150864c9442949091169263022ec0959281830192602092829003018186803b15801561026a57600080fd5b505afa15801561027e573d6000803e3d6000fd5b505050506040513d601f19601f820116820180604052508101906102a29190610cbf565b6102af6020880188610c9c565b6040518463ffffffff1660e01b81526004016102cd939291906110e1565b602060405180830381600087803b1580156102e757600080fd5b505af11580156102fb573d6000803e3d6000fd5b505050506040513d601f19601f8201168201806040525081019061031f9190610cbf565b90506103a5565b6004805460408051633bf206a360e21b815290516001600160a01b039092169263efc81a8c9282820192602092908290030181600087803b15801561036a57600080fd5b505af115801561037e573d6000803e3d6000fd5b505050506040513d601f19601f820116820180604052508101906103a29190610cbf565b90505b60006103bf6103b936879003870187610e06565b836109a3565b905060006103d06020870187610c9c565b6001600160a01b031663313ce5676040518163ffffffff1660e01b815260040160206040518083038186803b15801561040857600080fd5b505afa15801561041c573d6000803e3d6000fd5b505050506040513d601f19601f820116820180604052508101906104409190610e4b565b90506001600160a01b03821663941d505d6104e08461046260808a018a61115d565b8080601f0160208091040260200160405190810160405280939291908181526020018383808284376000920191909152506104a49250505060a08b018b61115d565b8080601f016020809104026020016040519081016040528093929190818152602001838380828437600092019190915250899250610af3915050565b6040518263ffffffff1660e01b81526004016104fc9190610ed5565b600060405180830381600087803b15801561051657600080fd5b505af115801561052a573d6000803e3d6000fd5b5050506001600160a01b038316905063941d505d6105cd8461054f60c08a018a61115d565b8080601f0160208091040260200160405190810160405280939291908181526020018383808284376000920191909152506105919250505060e08b018b61115d565b8080601f016020809104026020016040519081016040528093929190818152602001838380828437600092019190915250899250610bf5915050565b6040518263ffffffff1660e01b81526004016105e99190610ed5565b600060405180830381600087803b15801561060357600080fd5b505af1158015610617573d6000803e3d6000fd5b505050506060826001600160a01b0316639d63848a6040518163ffffffff1660e01b815260040160006040518083038186803b15801561065657600080fd5b505afa15801561066a573d6000803e3d6000fd5b505050506040513d6000823e601f3d908101601f191682016040526106929190810190610cdb565b9050826001600160a01b031663a7b2cc31826001815181106106b057fe5b60200260200101516106c6896101200135610c48565b6106d48a6101000135610c48565b6040518463ffffffff1660e01b81526004016106f293929190610f7b565b600060405180830381600087803b15801561070c57600080fd5b505af1158015610720573d6000803e3d6000fd5b50505050826001600160a01b0316633e4bdf7b8260008151811061074057fe5b60200260200101516040518263ffffffff1660e01b81526004016107649190610ed5565b600060405180830381600087803b15801561077e57600080fd5b505af1158015610792573d6000803e3d6000fd5b50505050836001600160a01b03166388e1489c600660009054906101000a90046001600160a01b03168860400135896060013587866001815181106107d357fe5b6020026020010151876000815181106107e857fe5b60200260200101518d60200160208101906108039190610c9c565b8e806101400190610814919061110f565b6040518a63ffffffff1660e01b815260040161083899989796959493929190610fae565b600060405180830381600087803b15801561085257600080fd5b505af1158015610866573d6000803e3d6000fd5b505060405163f2fde38b60e01b81526001600160a01b038716925063f2fde38b9150610896903390600401610ed5565b600060405180830381600087803b1580156108b057600080fd5b505af11580156108c4573d6000803e3d6000fd5b505060405163f2fde38b60e01b81526001600160a01b038616925063f2fde38b91506108f4903390600401610ed5565b600060405180830381600087803b15801561090e57600080fd5b505af1158015610922573d6000803e3d6000fd5b505050508060008151811061093357fe5b60200260200101516001600160a01b03168160018151811061095157fe5b60200260200101516001600160a01b0316856001600160a01b03167f0ff3430811d84b8ceaad3d48db335030d651f13007e5699dbf0c63134cccb8a660405160405180910390a4509195945050505050565b600080600160009054906101000a90046001600160a01b03166001600160a01b031663efc81a8c6040518163ffffffff1660e01b8152600401602060405180830381600087803b1580156109f657600080fd5b505af1158015610a0a573d6000803e3d6000fd5b505050506040513d601f19601f82011682018060405250810190610a2e9190610cbf565b6006546000546020870151604080890151895191516396c1c12d60e01b81529596506060956001600160a01b03808916966396c1c12d96610a7f96918316958d9591909316938a9390600401610ee9565b600060405180830381600087803b158015610a9957600080fd5b505af1158015610aad573d6000803e3d6000fd5b50506040516001600160a01b0380881693508516915033907f737c46586c5966bdf5ba716d982ae751f84213774e836279195a754fdb8abf1690600090a4509392505050565b600080600360009054906101000a90046001600160a01b03166001600160a01b031663efc81a8c6040518163ffffffff1660e01b8152600401602060405180830381600087803b158015610b4657600080fd5b505af1158015610b5a573d6000803e3d6000fd5b505050506040513d601f19601f82011682018060405250810190610b7e9190610cbf565b60065460405163641078a360e11b81529192506001600160a01b038084169263c820f14692610bb9928a928a928a9216908d9060040161104a565b600060405180830381600087803b158015610bd357600080fd5b505af1158015610be7573d6000803e3d6000fd5b509298975050505050505050565b600080600260009054906101000a90046001600160a01b03166001600160a01b031663efc81a8c6040518163ffffffff1660e01b8152600401602060405180830381600087803b158015610b4657600080fd5b6000600160801b8210610c765760405162461bcd60e51b8152600401610c6d9061109a565b60405180910390fd5b5090565b805161018c816111c9565b600060608284031215610c96578081fd5b50919050565b600060208284031215610cad578081fd5b8135610cb8816111c9565b9392505050565b600060208284031215610cd0578081fd5b8151610cb8816111c9565b60006020808385031215610ced578182fd5b825167ffffffffffffffff80821115610d04578384fd5b818501915085601f830112610d17578384fd5b815181811115610d25578485fd5b8381029150610d358483016111a2565b8181528481019084860184860187018a1015610d4f578788fd5b8795505b83861015610d7957610d658a82610c7a565b835260019590950194918601918601610d53565b5098975050505050505050565b60008060808385031215610d98578081fd5b610da28484610c85565b91506060830135610db2816111c9565b809150509250929050565b60008060808385031215610dcf578182fd5b610dd98484610c85565b9150606083013567ffffffffffffffff811115610df4578182fd5b83016101608186031215610db2578182fd5b600060608284031215610e17578081fd5b610e2160606111a2565b8235610e2c816111c9565b8152602083810135908201526040928301359281019290925250919050565b600060208284031215610e5c578081fd5b815160ff81168114610cb8578182fd5b6001600160a01b0316815260200190565b6001600160a01b03169052565b60008151808452815b81811015610eaf57602081850181015186830182015201610e93565b81811115610ec05782602083870101525b50601f01601f19169290920160200192915050565b6001600160a01b0391909116815260200190565b6001600160a01b038881168252878116602080840191909152908716604083015260e06060830181905286519083018190526000918781019161010085019190845b81811015610f4e57610f3e848651610e7d565b9382019392820192600101610f2b565b50505080925050508460808301528360a0830152610f6f60c0830184610e7d565b98975050505050505050565b6001600160a01b039390931683526fffffffffffffffffffffffffffffffff918216602084015216604082015260600190565b6001600160a01b038a8116825260208083018b9052604083018a90528882166060840152878216608084015286821660a084015290851660c083015261010060e083018190528201839052600090610120830190859083905b8682101561103757823561101a816111c9565b6110248582610e6c565b9450508083019250600182019150611007565b50919d9c50505050505050505050505050565b600060a0825261105d60a0830188610e8a565b828103602084015261106f8188610e8a565b60ff96909616604084015250506001600160a01b039283166060820152911660809091015292915050565b60208082526027908201527f53616665436173743a2076616c756520646f65736e27742066697420696e20316040820152663238206269747360c81b606082015260800190565b9283526001600160a01b03918216602084015216604082015260806060820181905260009082015260a00190565b6000808335601e19843603018112611125578283fd5b83018035915067ffffffffffffffff82111561113f578283fd5b602090810192508102360382131561115657600080fd5b9250929050565b6000808335601e19843603018112611173578182fd5b83018035915067ffffffffffffffff82111561118d578283fd5b60200191503681900382131561115657600080fd5b60405181810167ffffffffffffffff811182821017156111c157600080fd5b604052919050565b6001600160a01b03811681146111de57600080fd5b5056fea26469706673582212205772529591ae9d96472b92ea3b0b8757ec7bf32e1a7dccf53a37adf1038f40d164736f6c634300060c0033",
  "devdoc": {
    "kind": "dev",
    "methods": {},
    "version": 1
  },
  "userdoc": {
    "kind": "user",
    "methods": {},
    "version": 1
  },
  "storageLayout": {
    "storage": [
      {
        "astId": 5575,
        "contract": "contracts/builders/CompoundPrizePoolBuilder.sol:CompoundPrizePoolBuilder",
        "label": "comptroller",
        "offset": 0,
        "slot": "0",
        "type": "t_contract(ComptrollerInterface)8031"
      },
      {
        "astId": 5577,
        "contract": "contracts/builders/CompoundPrizePoolBuilder.sol:CompoundPrizePoolBuilder",
        "label": "compoundPrizePoolProxyFactory",
        "offset": 0,
        "slot": "1",
        "type": "t_contract(CompoundPrizePoolProxyFactory)12558"
      },
      {
        "astId": 5579,
        "contract": "contracts/builders/CompoundPrizePoolBuilder.sol:CompoundPrizePoolBuilder",
        "label": "controlledTokenProxyFactory",
        "offset": 0,
        "slot": "2",
        "type": "t_contract(ControlledTokenProxyFactory)16838"
      },
      {
        "astId": 5581,
        "contract": "contracts/builders/CompoundPrizePoolBuilder.sol:CompoundPrizePoolBuilder",
        "label": "ticketProxyFactory",
        "offset": 0,
        "slot": "3",
        "type": "t_contract(TicketProxyFactory)17107"
      },
      {
        "astId": 5583,
        "contract": "contracts/builders/CompoundPrizePoolBuilder.sol:CompoundPrizePoolBuilder",
        "label": "singleRandomWinnerProxyFactory",
        "offset": 0,
        "slot": "4",
        "type": "t_contract(SingleRandomWinnerProxyFactory)14273"
      },
      {
        "astId": 5585,
        "contract": "contracts/builders/CompoundPrizePoolBuilder.sol:CompoundPrizePoolBuilder",
        "label": "proxyFactory",
        "offset": 0,
        "slot": "5",
        "type": "t_contract(OpenZeppelinProxyFactoryInterface)9573"
      },
      {
        "astId": 5587,
        "contract": "contracts/builders/CompoundPrizePoolBuilder.sol:CompoundPrizePoolBuilder",
        "label": "trustedForwarder",
        "offset": 0,
        "slot": "6",
        "type": "t_address"
      }
    ],
    "types": {
      "t_address": {
        "encoding": "inplace",
        "label": "address",
        "numberOfBytes": "20"
      },
      "t_contract(CompoundPrizePoolProxyFactory)12558": {
        "encoding": "inplace",
        "label": "contract CompoundPrizePoolProxyFactory",
        "numberOfBytes": "20"
      },
      "t_contract(ComptrollerInterface)8031": {
        "encoding": "inplace",
        "label": "contract ComptrollerInterface",
        "numberOfBytes": "20"
      },
      "t_contract(ControlledTokenProxyFactory)16838": {
        "encoding": "inplace",
        "label": "contract ControlledTokenProxyFactory",
        "numberOfBytes": "20"
      },
      "t_contract(OpenZeppelinProxyFactoryInterface)9573": {
        "encoding": "inplace",
        "label": "contract OpenZeppelinProxyFactoryInterface",
        "numberOfBytes": "20"
      },
      "t_contract(SingleRandomWinnerProxyFactory)14273": {
        "encoding": "inplace",
        "label": "contract SingleRandomWinnerProxyFactory",
        "numberOfBytes": "20"
      },
      "t_contract(TicketProxyFactory)17107": {
        "encoding": "inplace",
        "label": "contract TicketProxyFactory",
        "numberOfBytes": "20"
      }
    }
  },
  "gasEstimates": {
    "creation": {
      "codeDepositCost": "926200",
      "executionCost": "infinite",
      "totalCost": "infinite"
    },
    "external": {
      "compoundPrizePoolProxyFactory()": "1070",
      "comptroller()": "1093",
      "controlledTokenProxyFactory()": "1115",
      "createCompoundPrizePool((address,uint256,uint256),address)": "infinite",
      "createSingleRandomWinner((address,uint256,uint256),(address,address,uint256,uint256,string,string,string,string,uint256,uint256,address[]))": "infinite",
      "proxyFactory()": "1136",
      "singleRandomWinnerProxyFactory()": "1092",
      "ticketProxyFactory()": "1114",
      "trustedForwarder()": "1137"
    },
    "internal": {
      "_createCompoundPrizePool(struct CompoundPrizePoolBuilder.CompoundPrizePoolConfig memory,contract PrizePoolTokenListenerInterface)": "infinite",
      "_createControlledToken(contract TokenControllerInterface,string memory,string memory,uint8)": "infinite",
      "_createTicket(contract TokenControllerInterface,string memory,string memory,uint8)": "infinite"
    }
  }
}