{
  "address": "0xdb8E47BEFe4646fCc62BE61EEE5DF350404c124F",
  "abi": [
    {
      "inputs": [],
      "stateMutability": "nonpayable",
      "type": "constructor"
    },
    {
      "anonymous": false,
      "inputs": [
        {
          "indexed": true,
          "internalType": "address",
          "name": "source",
          "type": "address"
        },
        {
          "indexed": true,
          "internalType": "address",
          "name": "measure",
          "type": "address"
        },
        {
          "indexed": true,
          "internalType": "address",
          "name": "dripToken",
          "type": "address"
        },
        {
          "indexed": false,
          "internalType": "uint256",
          "name": "dripRatePerSecond",
          "type": "uint256"
        }
      ],
      "name": "BalanceDripActivated",
      "type": "event"
    },
    {
      "anonymous": false,
      "inputs": [
        {
          "indexed": true,
          "internalType": "address",
          "name": "source",
          "type": "address"
        },
        {
          "indexed": true,
          "internalType": "address",
          "name": "measure",
          "type": "address"
        },
        {
          "indexed": true,
          "internalType": "address",
          "name": "dripToken",
          "type": "address"
        }
      ],
      "name": "BalanceDripDeactivated",
      "type": "event"
    },
    {
      "anonymous": false,
      "inputs": [
        {
          "indexed": true,
          "internalType": "address",
          "name": "source",
          "type": "address"
        },
        {
          "indexed": true,
          "internalType": "address",
          "name": "measure",
          "type": "address"
        },
        {
          "indexed": true,
          "internalType": "address",
          "name": "dripToken",
          "type": "address"
        },
        {
          "indexed": false,
          "internalType": "address",
          "name": "user",
          "type": "address"
        },
        {
          "indexed": false,
          "internalType": "uint256",
          "name": "amount",
          "type": "uint256"
        }
      ],
      "name": "BalanceDripDripped",
      "type": "event"
    },
    {
      "anonymous": false,
      "inputs": [
        {
          "indexed": true,
          "internalType": "address",
          "name": "source",
          "type": "address"
        },
        {
          "indexed": true,
          "internalType": "address",
          "name": "measure",
          "type": "address"
        },
        {
          "indexed": true,
          "internalType": "address",
          "name": "dripToken",
          "type": "address"
        },
        {
          "indexed": false,
          "internalType": "uint256",
          "name": "dripRatePerSecond",
          "type": "uint256"
        }
      ],
      "name": "BalanceDripRateSet",
      "type": "event"
    },
    {
      "anonymous": false,
      "inputs": [
        {
          "indexed": true,
          "internalType": "address",
          "name": "operator",
          "type": "address"
        },
        {
          "indexed": true,
          "internalType": "address",
          "name": "dripToken",
          "type": "address"
        },
        {
          "indexed": true,
          "internalType": "address",
          "name": "user",
          "type": "address"
        },
        {
          "indexed": false,
          "internalType": "uint256",
          "name": "amount",
          "type": "uint256"
        }
      ],
      "name": "DripTokenClaimed",
      "type": "event"
    },
    {
      "anonymous": false,
      "inputs": [
        {
          "indexed": true,
          "internalType": "address",
          "name": "dripToken",
          "type": "address"
        },
        {
          "indexed": true,
          "internalType": "address",
          "name": "user",
          "type": "address"
        },
        {
          "indexed": false,
          "internalType": "uint256",
          "name": "amount",
          "type": "uint256"
        }
      ],
      "name": "DripTokenDripped",
      "type": "event"
    },
    {
      "anonymous": false,
      "inputs": [
        {
          "indexed": true,
          "internalType": "address",
          "name": "previousOwner",
          "type": "address"
        },
        {
          "indexed": true,
          "internalType": "address",
          "name": "newOwner",
          "type": "address"
        }
      ],
      "name": "OwnershipTransferred",
      "type": "event"
    },
    {
      "anonymous": false,
      "inputs": [
        {
          "indexed": true,
          "internalType": "address",
          "name": "token",
          "type": "address"
        },
        {
          "indexed": true,
          "internalType": "address",
          "name": "to",
          "type": "address"
        },
        {
          "indexed": false,
          "internalType": "uint256",
          "name": "amount",
          "type": "uint256"
        }
      ],
      "name": "TransferredOut",
      "type": "event"
    },
    {
      "anonymous": false,
      "inputs": [
        {
          "indexed": true,
          "internalType": "address",
          "name": "source",
          "type": "address"
        },
        {
          "indexed": true,
          "internalType": "address",
          "name": "measure",
          "type": "address"
        },
        {
          "indexed": true,
          "internalType": "address",
          "name": "dripToken",
          "type": "address"
        },
        {
          "indexed": false,
          "internalType": "bool",
          "name": "isReferral",
          "type": "bool"
        },
        {
          "indexed": false,
          "internalType": "uint256",
          "name": "periodSeconds",
          "type": "uint256"
        },
        {
          "indexed": false,
          "internalType": "uint256",
          "name": "dripAmount",
          "type": "uint256"
        }
      ],
      "name": "VolumeDripActivated",
      "type": "event"
    },
    {
      "anonymous": false,
      "inputs": [
        {
          "indexed": true,
          "internalType": "address",
          "name": "source",
          "type": "address"
        },
        {
          "indexed": true,
          "internalType": "address",
          "name": "measure",
          "type": "address"
        },
        {
          "indexed": true,
          "internalType": "address",
          "name": "dripToken",
          "type": "address"
        },
        {
          "indexed": false,
          "internalType": "bool",
          "name": "isReferral",
          "type": "bool"
        }
      ],
      "name": "VolumeDripDeactivated",
      "type": "event"
    },
    {
      "anonymous": false,
      "inputs": [
        {
          "indexed": true,
          "internalType": "address",
          "name": "source",
          "type": "address"
        },
        {
          "indexed": true,
          "internalType": "address",
          "name": "measure",
          "type": "address"
        },
        {
          "indexed": true,
          "internalType": "address",
          "name": "dripToken",
          "type": "address"
        },
        {
          "indexed": false,
          "internalType": "bool",
          "name": "isReferral",
          "type": "bool"
        },
        {
          "indexed": false,
          "internalType": "address",
          "name": "user",
          "type": "address"
        },
        {
          "indexed": false,
          "internalType": "uint256",
          "name": "amount",
          "type": "uint256"
        }
      ],
      "name": "VolumeDripDripped",
      "type": "event"
    },
    {
      "anonymous": false,
      "inputs": [
        {
          "indexed": true,
          "internalType": "address",
          "name": "source",
          "type": "address"
        },
        {
          "indexed": true,
          "internalType": "address",
          "name": "measure",
          "type": "address"
        },
        {
          "indexed": true,
          "internalType": "address",
          "name": "dripToken",
          "type": "address"
        },
        {
          "indexed": false,
          "internalType": "bool",
          "name": "isReferral",
          "type": "bool"
        },
        {
          "indexed": false,
          "internalType": "uint32",
          "name": "period",
          "type": "uint32"
        },
        {
          "indexed": false,
          "internalType": "uint256",
          "name": "totalSupply",
          "type": "uint256"
        },
        {
          "indexed": false,
          "internalType": "uint256",
          "name": "drippedTokens",
          "type": "uint256"
        }
      ],
      "name": "VolumeDripPeriodEnded",
      "type": "event"
    },
    {
      "anonymous": false,
      "inputs": [
        {
          "indexed": true,
          "internalType": "address",
          "name": "source",
          "type": "address"
        },
        {
          "indexed": true,
          "internalType": "address",
          "name": "measure",
          "type": "address"
        },
        {
          "indexed": true,
          "internalType": "address",
          "name": "dripToken",
          "type": "address"
        },
        {
          "indexed": false,
          "internalType": "bool",
          "name": "isReferral",
          "type": "bool"
        },
        {
          "indexed": false,
          "internalType": "uint32",
          "name": "period",
          "type": "uint32"
        },
        {
          "indexed": false,
          "internalType": "uint256",
          "name": "dripAmount",
          "type": "uint256"
        },
        {
          "indexed": false,
          "internalType": "uint256",
          "name": "endTime",
          "type": "uint256"
        }
      ],
      "name": "VolumeDripPeriodStarted",
      "type": "event"
    },
    {
      "anonymous": false,
      "inputs": [
        {
          "indexed": true,
          "internalType": "address",
          "name": "source",
          "type": "address"
        },
        {
          "indexed": true,
          "internalType": "address",
          "name": "measure",
          "type": "address"
        },
        {
          "indexed": true,
          "internalType": "address",
          "name": "dripToken",
          "type": "address"
        },
        {
          "indexed": false,
          "internalType": "bool",
          "name": "isReferral",
          "type": "bool"
        },
        {
          "indexed": false,
          "internalType": "uint256",
          "name": "periodSeconds",
          "type": "uint256"
        },
        {
          "indexed": false,
          "internalType": "uint256",
          "name": "dripAmount",
          "type": "uint256"
        }
      ],
      "name": "VolumeDripSet",
      "type": "event"
    },
    {
      "inputs": [
        {
          "internalType": "address",
          "name": "source",
          "type": "address"
        },
        {
          "internalType": "address",
          "name": "measure",
          "type": "address"
        },
        {
          "internalType": "address",
          "name": "dripToken",
          "type": "address"
        },
        {
          "internalType": "uint256",
          "name": "dripRatePerSecond",
          "type": "uint256"
        }
      ],
      "name": "activateBalanceDrip",
      "outputs": [],
      "stateMutability": "nonpayable",
      "type": "function"
    },
    {
      "inputs": [
        {
          "internalType": "address",
          "name": "source",
          "type": "address"
        },
        {
          "internalType": "address",
          "name": "measure",
          "type": "address"
        },
        {
          "internalType": "address",
          "name": "dripToken",
          "type": "address"
        },
        {
          "internalType": "bool",
          "name": "isReferral",
          "type": "bool"
        },
        {
          "internalType": "uint32",
          "name": "periodSeconds",
          "type": "uint32"
        },
        {
          "internalType": "uint112",
          "name": "dripAmount",
          "type": "uint112"
        },
        {
          "internalType": "uint32",
          "name": "endTime",
          "type": "uint32"
        }
      ],
      "name": "activateVolumeDrip",
      "outputs": [],
      "stateMutability": "nonpayable",
      "type": "function"
    },
    {
      "inputs": [
        {
          "internalType": "address",
          "name": "user",
          "type": "address"
        },
        {
          "internalType": "address[]",
          "name": "dripTokens",
          "type": "address[]"
        }
      ],
      "name": "balanceOfClaims",
      "outputs": [
        {
          "components": [
            {
              "internalType": "address",
              "name": "dripToken",
              "type": "address"
            },
            {
              "internalType": "uint256",
              "name": "balance",
              "type": "uint256"
            }
          ],
          "internalType": "struct Comptroller.DripTokenBalance[]",
          "name": "",
          "type": "tuple[]"
        }
      ],
      "stateMutability": "view",
      "type": "function"
    },
    {
      "inputs": [
        {
          "internalType": "address",
          "name": "user",
          "type": "address"
        },
        {
          "internalType": "address",
          "name": "dripToken",
          "type": "address"
        }
      ],
      "name": "balanceOfDrip",
      "outputs": [
        {
          "internalType": "uint256",
          "name": "",
          "type": "uint256"
        }
      ],
      "stateMutability": "view",
      "type": "function"
    },
    {
      "inputs": [
        {
          "internalType": "address",
          "name": "to",
          "type": "address"
        },
        {
          "internalType": "uint256",
          "name": "amount",
          "type": "uint256"
        },
        {
          "internalType": "address",
          "name": "measure",
          "type": "address"
        },
        {
          "internalType": "address",
          "name": "referrer",
          "type": "address"
        }
      ],
      "name": "beforeTokenMint",
      "outputs": [],
      "stateMutability": "nonpayable",
      "type": "function"
    },
    {
      "inputs": [
        {
          "internalType": "address",
          "name": "from",
          "type": "address"
        },
        {
          "internalType": "address",
          "name": "to",
          "type": "address"
        },
        {
          "internalType": "uint256",
          "name": "",
          "type": "uint256"
        },
        {
          "internalType": "address",
          "name": "measure",
          "type": "address"
        }
      ],
      "name": "beforeTokenTransfer",
      "outputs": [],
      "stateMutability": "nonpayable",
      "type": "function"
    },
    {
      "inputs": [
        {
          "components": [
            {
              "internalType": "address",
              "name": "source",
              "type": "address"
            },
            {
              "internalType": "address",
              "name": "measure",
              "type": "address"
            }
          ],
          "internalType": "struct Comptroller.UpdatePair[]",
          "name": "pairs",
          "type": "tuple[]"
        },
        {
          "internalType": "address",
          "name": "user",
          "type": "address"
        },
        {
          "internalType": "address[]",
          "name": "dripTokens",
          "type": "address[]"
        }
      ],
      "name": "captureClaimsForBalanceDripsForPairs",
      "outputs": [],
      "stateMutability": "nonpayable",
      "type": "function"
    },
    {
      "inputs": [
        {
          "internalType": "address",
          "name": "user",
          "type": "address"
        },
        {
          "internalType": "address",
          "name": "dripToken",
          "type": "address"
        },
        {
          "internalType": "uint256",
          "name": "amount",
          "type": "uint256"
        }
      ],
      "name": "claimDrip",
      "outputs": [],
      "stateMutability": "nonpayable",
      "type": "function"
    },
    {
      "inputs": [
        {
          "internalType": "address",
          "name": "user",
          "type": "address"
        },
        {
          "internalType": "address[]",
          "name": "dripTokens",
          "type": "address[]"
        }
      ],
      "name": "claimDrips",
      "outputs": [],
      "stateMutability": "nonpayable",
      "type": "function"
    },
    {
      "inputs": [
        {
          "internalType": "address",
          "name": "source",
          "type": "address"
        },
        {
          "internalType": "address",
          "name": "measure",
          "type": "address"
        },
        {
          "internalType": "address",
          "name": "dripToken",
          "type": "address"
        },
        {
          "internalType": "address",
          "name": "prevDripToken",
          "type": "address"
        }
      ],
      "name": "deactivateBalanceDrip",
      "outputs": [],
      "stateMutability": "nonpayable",
      "type": "function"
    },
    {
      "inputs": [
        {
          "internalType": "address",
          "name": "source",
          "type": "address"
        },
        {
          "internalType": "address",
          "name": "measure",
          "type": "address"
        },
        {
          "internalType": "address",
          "name": "dripToken",
          "type": "address"
        },
        {
          "internalType": "bool",
          "name": "isReferral",
          "type": "bool"
        },
        {
          "internalType": "address",
          "name": "prevDripToken",
          "type": "address"
        }
      ],
      "name": "deactivateVolumeDrip",
      "outputs": [],
      "stateMutability": "nonpayable",
      "type": "function"
    },
    {
      "inputs": [
        {
          "internalType": "address",
          "name": "source",
          "type": "address"
        },
        {
          "internalType": "address",
          "name": "measure",
          "type": "address"
        }
      ],
      "name": "getActiveBalanceDripTokens",
      "outputs": [
        {
          "internalType": "address[]",
          "name": "",
          "type": "address[]"
        }
      ],
      "stateMutability": "view",
      "type": "function"
    },
    {
      "inputs": [
        {
          "internalType": "address",
          "name": "source",
          "type": "address"
        },
        {
          "internalType": "address",
          "name": "measure",
          "type": "address"
        },
        {
          "internalType": "bool",
          "name": "isReferral",
          "type": "bool"
        }
      ],
      "name": "getActiveVolumeDripTokens",
      "outputs": [
        {
          "internalType": "address[]",
          "name": "",
          "type": "address[]"
        }
      ],
      "stateMutability": "view",
      "type": "function"
    },
    {
      "inputs": [
        {
          "internalType": "address",
          "name": "source",
          "type": "address"
        },
        {
          "internalType": "address",
          "name": "measure",
          "type": "address"
        },
        {
          "internalType": "address",
          "name": "dripToken",
          "type": "address"
        }
      ],
      "name": "getBalanceDrip",
      "outputs": [
        {
          "internalType": "uint256",
          "name": "dripRatePerSecond",
          "type": "uint256"
        },
        {
          "internalType": "uint128",
          "name": "exchangeRateMantissa",
          "type": "uint128"
        },
        {
          "internalType": "uint32",
          "name": "timestamp",
          "type": "uint32"
        }
      ],
      "stateMutability": "view",
      "type": "function"
    },
    {
      "inputs": [
        {
          "internalType": "address",
          "name": "source",
          "type": "address"
        },
        {
          "internalType": "address",
          "name": "measure",
          "type": "address"
        },
        {
          "internalType": "address",
          "name": "dripToken",
          "type": "address"
        },
        {
          "internalType": "bool",
          "name": "isReferral",
          "type": "bool"
        }
      ],
      "name": "getVolumeDrip",
      "outputs": [
        {
          "internalType": "uint256",
          "name": "periodSeconds",
          "type": "uint256"
        },
        {
          "internalType": "uint256",
          "name": "dripAmount",
          "type": "uint256"
        },
        {
          "internalType": "uint256",
          "name": "periodCount",
          "type": "uint256"
        }
      ],
      "stateMutability": "view",
      "type": "function"
    },
    {
      "inputs": [
        {
          "internalType": "address",
          "name": "source",
          "type": "address"
        },
        {
          "internalType": "address",
          "name": "measure",
          "type": "address"
        },
        {
          "internalType": "address",
          "name": "dripToken",
          "type": "address"
        },
        {
          "internalType": "bool",
          "name": "isReferral",
          "type": "bool"
        },
        {
          "internalType": "uint16",
          "name": "period",
          "type": "uint16"
        }
      ],
      "name": "getVolumeDripPeriod",
      "outputs": [
        {
          "internalType": "uint112",
          "name": "totalSupply",
          "type": "uint112"
        },
        {
          "internalType": "uint112",
          "name": "dripAmount",
          "type": "uint112"
        },
        {
          "internalType": "uint32",
          "name": "endTime",
          "type": "uint32"
        }
      ],
      "stateMutability": "view",
      "type": "function"
    },
    {
      "inputs": [
        {
          "internalType": "address",
          "name": "source",
          "type": "address"
        },
        {
          "internalType": "address",
          "name": "measure",
          "type": "address"
        },
        {
          "internalType": "address",
          "name": "dripToken",
          "type": "address"
        },
        {
          "internalType": "bool",
          "name": "isReferral",
          "type": "bool"
        }
      ],
      "name": "isVolumeDripActive",
      "outputs": [
        {
          "internalType": "bool",
          "name": "",
          "type": "bool"
        }
      ],
      "stateMutability": "view",
      "type": "function"
    },
    {
      "inputs": [
        {
          "components": [
            {
              "internalType": "address",
              "name": "source",
              "type": "address"
            },
            {
              "internalType": "address",
              "name": "measure",
              "type": "address"
            }
          ],
          "internalType": "struct Comptroller.UpdatePair[]",
          "name": "pairs",
          "type": "tuple[]"
        },
        {
          "internalType": "address",
          "name": "user",
          "type": "address"
        },
        {
          "internalType": "uint256",
          "name": "amount",
          "type": "uint256"
        },
        {
          "internalType": "address[]",
          "name": "dripTokens",
          "type": "address[]"
        }
      ],
      "name": "mintAndCaptureVolumeDripsForPairs",
      "outputs": [],
      "stateMutability": "nonpayable",
      "type": "function"
    },
    {
      "inputs": [],
      "name": "owner",
      "outputs": [
        {
          "internalType": "address",
          "name": "",
          "type": "address"
        }
      ],
      "stateMutability": "view",
      "type": "function"
    },
    {
      "inputs": [],
      "name": "renounceOwnership",
      "outputs": [],
      "stateMutability": "nonpayable",
      "type": "function"
    },
    {
      "inputs": [
        {
          "internalType": "address",
          "name": "source",
          "type": "address"
        },
        {
          "internalType": "address",
          "name": "measure",
          "type": "address"
        },
        {
          "internalType": "address",
          "name": "dripToken",
          "type": "address"
        },
        {
          "internalType": "uint256",
          "name": "dripRatePerSecond",
          "type": "uint256"
        }
      ],
      "name": "setBalanceDripRate",
      "outputs": [],
      "stateMutability": "nonpayable",
      "type": "function"
    },
    {
      "inputs": [
        {
          "internalType": "address",
          "name": "source",
          "type": "address"
        },
        {
          "internalType": "address",
          "name": "measure",
          "type": "address"
        },
        {
          "internalType": "address",
          "name": "dripToken",
          "type": "address"
        },
        {
          "internalType": "bool",
          "name": "isReferral",
          "type": "bool"
        },
        {
          "internalType": "uint32",
          "name": "periodSeconds",
          "type": "uint32"
        },
        {
          "internalType": "uint112",
          "name": "dripAmount",
          "type": "uint112"
        }
      ],
      "name": "setVolumeDrip",
      "outputs": [],
      "stateMutability": "nonpayable",
      "type": "function"
    },
    {
      "inputs": [
        {
          "internalType": "bytes4",
          "name": "interfaceId",
          "type": "bytes4"
        }
      ],
      "name": "supportsInterface",
      "outputs": [
        {
          "internalType": "bool",
          "name": "",
          "type": "bool"
        }
      ],
      "stateMutability": "view",
      "type": "function"
    },
    {
      "inputs": [
        {
          "internalType": "address",
          "name": "token",
          "type": "address"
        },
        {
          "internalType": "address",
          "name": "to",
          "type": "address"
        },
        {
          "internalType": "uint256",
          "name": "amount",
          "type": "uint256"
        }
      ],
      "name": "transferOut",
      "outputs": [],
      "stateMutability": "nonpayable",
      "type": "function"
    },
    {
      "inputs": [
        {
          "internalType": "address",
          "name": "newOwner",
          "type": "address"
        }
      ],
      "name": "transferOwnership",
      "outputs": [],
      "stateMutability": "nonpayable",
      "type": "function"
    },
    {
      "inputs": [
        {
          "components": [
            {
              "internalType": "address",
              "name": "source",
              "type": "address"
            },
            {
              "internalType": "address",
              "name": "measure",
              "type": "address"
            }
          ],
          "internalType": "struct Comptroller.UpdatePair[]",
          "name": "pairs",
          "type": "tuple[]"
        }
      ],
      "name": "updateActiveBalanceDripsForPairs",
      "outputs": [],
      "stateMutability": "nonpayable",
      "type": "function"
    },
    {
      "inputs": [
        {
          "components": [
            {
              "internalType": "address",
              "name": "source",
              "type": "address"
            },
            {
              "internalType": "address",
              "name": "measure",
              "type": "address"
            }
          ],
          "internalType": "struct Comptroller.UpdatePair[]",
          "name": "pairs",
          "type": "tuple[]"
        }
      ],
      "name": "updateActiveVolumeDripsForPairs",
      "outputs": [],
      "stateMutability": "nonpayable",
      "type": "function"
    },
    {
      "inputs": [
        {
          "components": [
            {
              "internalType": "address",
              "name": "source",
              "type": "address"
            },
            {
              "internalType": "address",
              "name": "measure",
              "type": "address"
            }
          ],
          "internalType": "struct Comptroller.UpdatePair[]",
          "name": "pairs",
          "type": "tuple[]"
        },
        {
          "internalType": "address",
          "name": "user",
          "type": "address"
        },
        {
          "internalType": "address[]",
          "name": "dripTokens",
          "type": "address[]"
        }
      ],
      "name": "updateAndClaimDrips",
      "outputs": [
        {
          "components": [
            {
              "internalType": "address",
              "name": "dripToken",
              "type": "address"
            },
            {
              "internalType": "uint256",
              "name": "balance",
              "type": "uint256"
            }
          ],
          "internalType": "struct Comptroller.DripTokenBalance[]",
          "name": "",
          "type": "tuple[]"
        }
      ],
      "stateMutability": "nonpayable",
      "type": "function"
    },
    {
      "inputs": [
        {
          "components": [
            {
              "internalType": "address",
              "name": "source",
              "type": "address"
            },
            {
              "internalType": "address",
              "name": "measure",
              "type": "address"
            }
          ],
          "internalType": "struct Comptroller.UpdatePair[]",
          "name": "pairs",
          "type": "tuple[]"
        },
        {
          "internalType": "address",
          "name": "user",
          "type": "address"
        },
        {
          "internalType": "address[]",
          "name": "dripTokens",
          "type": "address[]"
        }
      ],
      "name": "updateDrips",
      "outputs": [
        {
          "components": [
            {
              "internalType": "address",
              "name": "dripToken",
              "type": "address"
            },
            {
              "internalType": "uint256",
              "name": "balance",
              "type": "uint256"
            }
          ],
          "internalType": "struct Comptroller.DripTokenBalance[]",
          "name": "",
          "type": "tuple[]"
        }
      ],
      "stateMutability": "nonpayable",
      "type": "function"
    }
  ],
  "transactionHash": "0x9684c20727deb52b57a2e607ea936ce9e79d5957b58782d50313b7e0744c813d",
  "args": [],
  "solcInputHash": "4ee5cd3af4cdf3f3b3aae685e2904e9d",
  "bytecode": "0x60806040523480156200001157600080fd5b506200001c62000022565b620002b0565b600054610100900460ff16806200003e57506200003e620000cb565b806200004d575060005460ff16155b620000755760405162461bcd60e51b81526004016200006c9062000262565b60405180910390fd5b600054610100900460ff16158015620000a1576000805460ff1961ff0019909116610100171660011790555b620000ab620000e9565b620000b562000173565b8015620000c8576000805461ff00191690555b50565b6000620000e3306200025860201b62001a6e1760201c565b15905090565b600054610100900460ff168062000105575062000105620000cb565b8062000114575060005460ff16155b620001335760405162461bcd60e51b81526004016200006c9062000262565b600054610100900460ff16158015620000b5576000805460ff1961ff0019909116610100171660011790558015620000c8576000805461ff001916905550565b600054610100900460ff16806200018f57506200018f620000cb565b806200019e575060005460ff16155b620001bd5760405162461bcd60e51b81526004016200006c9062000262565b600054610100900460ff16158015620001e9576000805460ff1961ff0019909116610100171660011790555b6000620001f56200025e565b603380546001600160a01b0319166001600160a01b038316908117909155604051919250906000907f8be0079c531659141344cd1fd0a4f28419497f9722a3daafe3b4186f6b6457e0908290a3508015620000c8576000805461ff001916905550565b3b151590565b3390565b6020808252602e908201527f496e697469616c697a61626c653a20636f6e747261637420697320616c72656160408201526d191e481a5b9a5d1a585b1a5e995960921b606082015260800190565b6149b480620002c06000396000f3fe608060405234801561001057600080fd5b50600436106101cf5760003560e01c8063715018a611610104578063ce730461116100a2578063e5f83b7011610071578063e5f83b7014610405578063e72edc2814610418578063f28219ac14610438578063f2fde38b1461044b576101cf565b8063ce730461146103b9578063d7840aad146103cc578063e2937c77146103df578063e37288ec146103f2576101cf565b80639aebef23116100de5780639aebef231461035e578063b221095714610380578063b7e6810a14610393578063c35185df146103a6576101cf565b8063715018a61461032e57806384f8f31c146103365780638da5cb5b14610349576101cf565b80633a6c8a2c11610171578063503bd4801161014b578063503bd480146102d35780635d68ae22146102e65780635e19bad5146102f9578063626e76b41461030c576101cf565b80633a6c8a2c1461027e57806343fcacd01461029e5780634d7f3db0146102c0576101cf565b80631dc2d7a4116101ad5780631dc2d7a4146102255780632697a1a91461023857806334de6d19146102585780633632c1f41461026b576101cf565b806301ffc9a7146101d4578063078d3b79146101fd5780631a6eae6714610212575b600080fd5b6101e76101e23660046141a4565b61045e565b6040516101f491906142d1565b60405180910390f35b61021061020b366004613e82565b610498565b005b610210610220366004614094565b6105b1565b610210610233366004614109565b610684565b61024b610246366004613e38565b6106e8565b6040516101f4919061422c565b610210610266366004613e82565b610742565b610210610279366004614061565b6108c3565b61029161028c366004614094565b610965565b6040516101f49190614279565b6102b16102ac366004613c49565b6109a6565b6040516101f493929190614892565b6102106102ce366004613f56565b610ae0565b6102106102e1366004613de8565b610cc8565b6102106102f4366004613de8565b610d95565b610210610307366004613b30565b610e45565b61031f61031a366004613b87565b610e90565b6040516101f4939291906148e9565b610210611001565b610210610344366004613d48565b61108a565b6103516111e5565b6040516101f491906141ff565b61037161036c366004613aeb565b6111f4565b6040516101f4939291906148c4565b61021061038e366004613ec2565b61124b565b6102106103a1366004614061565b611449565b6102106103b4366004613cbc565b61153e565b6102916103c7366004613f8b565b611633565b6101e76103da366004613b87565b61170f565b6102106103ed366004613bdf565b61176c565b610210610400366004613f09565b6117b8565b61024b610413366004613ab7565b611845565b61042b610426366004613ab7565b61186a565b6040516101f491906148bb565b610291610446366004613f09565b611896565b610210610459366004613a9c565b6119ad565b60006001600160e01b031982166301ffc9a760e01b148061049257506001600160e01b03198216600162a1cb1960e01b0319145b92915050565b6104a0611a74565b6001600160a01b03166104b16111e5565b6001600160a01b0316146104e05760405162461bcd60e51b81526004016104d790614713565b60405180910390fd5b60405163a9059cbb60e01b81526001600160a01b0384169063a9059cbb9061050e9085908590600401614213565b602060405180830381600087803b15801561052857600080fd5b505af115801561053c573d6000803e3d6000fd5b505050506040513d601f19601f820116820180604052508101906105609190614188565b50816001600160a01b0316836001600160a01b03167f175984d55e63e57889870f617ac3d775087f5bf4e22126f7ae4145152113d79c836040516105a491906148bb565b60405180910390a3505050565b60005b835181101561067e576105c56138f5565b8482815181106105d157fe5b60200260200101519050600081602001516001600160a01b03166370a08231866040518263ffffffff1660e01b815260040161060d91906141ff565b60206040518083038186803b15801561062557600080fd5b505afa158015610639573d6000803e3d6000fd5b505050506040513d601f19601f8201168201806040525081019061065d91906141e7565b905061067482600001518360200151878488611a78565b50506001016105b4565b50505050565b60005b84518110156106e1576106986138f5565b8582815181106106a457fe5b602002602001015190506106c381600001518260200151878787611b08565b6106d881600001518260200151878787611b80565b50600101610687565b5050505050565b60608115610719576001600160a01b03841660009081526066602052604090206107129084611bfc565b905061073b565b6001600160a01b03841660009081526065602052604090206107129084611bfc565b9392505050565b600061074c611a74565b6001600160a01b0384166000908152606860205260409020549091506107729083611c20565b6001600160a01b038085166000908152606860209081526040808320949094556069815283822092881682529190915220546107ae9083611c20565b6001600160a01b038085166000818152606960209081526040808320948a168352939052829020929092555163a9059cbb60e01b815263a9059cbb906107fa9087908690600401614213565b602060405180830381600087803b15801561081457600080fd5b505af1158015610828573d6000803e3d6000fd5b505050506040513d601f19601f8201168201806040525081019061084c9190614188565b6108685760405162461bcd60e51b81526004016104d7906145d7565b836001600160a01b0316836001600160a01b0316826001600160a01b03167f76db671dc988a5ba4764a06da6bfc2a6a8df0d7d373cc205a687084b4a8492f0856040516108b591906148bb565b60405180910390a450505050565b60005b8151811015610961576108d76138f5565b8282815181106108e357fe5b6020026020010151905061092a6065600083600001516001600160a01b03166001600160a01b03168152602001908152602001600020826000015183602001516000611c48565b80516001600160a01b0316600090815260666020908152604090912082519183015161095892906001611c48565b506001016108c6565b5050565b606061097084611449565b61097b8484846105b1565b610984846108c3565b6109918484600085610684565b606061099d8484611896565b95945050505050565b60008060006109b361390c565b8515610a4057506001600160a01b0380891660009081526066602090815260408083208b8516845260019081018352818420948b16845293825280832061ffff89168452909301815290829020825160608101845290546001600160701b038082168352600160701b82041692820192909252600160e01b90910463ffffffff1691810191909152610ac3565b506001600160a01b0380891660009081526065602090815260408083208b8516845260019081018352818420948b16845293825280832061ffff89168452909301815290829020825160608101845290546001600160701b038082168352600160701b82041692820192909252600160e01b90910463ffffffff16918101919091525b80516020820151604090920151909a919950975095505050505050565b6000610aea611a74565b90506000836001600160a01b03166370a08231876040518263ffffffff1660e01b8152600401610b1a91906141ff565b60206040518083038186803b158015610b3257600080fd5b505afa158015610b46573d6000803e3d6000fd5b505050506040513d601f19601f82011682018060405250810190610b6a91906141e7565b90506000846001600160a01b03166318160ddd6040518163ffffffff1660e01b815260040160206040518083038186803b158015610ba757600080fd5b505afa158015610bbb573d6000803e3d6000fd5b505050506040513d601f19601f82011682018060405250810190610bdf91906141e7565b90506060610bed8487611f32565b6001600160a01b0385166000908152606760205260409020909150610c1c90858885610c17611f63565b611f67565b610c2984878a8685611a78565b6060610c35858861208b565b6001600160a01b0386166000908152606560205260408120919250610c5e919087908a90611c48565b610c6b85888b8b85611b08565b6001600160a01b03861615610cbd576060610c8686896120bc565b6001600160a01b0387166000908152606660205260409020909150610cae90878a6001611c48565b610cbb8689898c85611b80565b505b505050505050505050565b610cd0611a74565b6001600160a01b0316610ce16111e5565b6001600160a01b031614610d075760405162461bcd60e51b81526004016104d790614713565b610d48838383610d1d610d18611f63565b6120ed565b610d2687612117565b6001600160a01b038a16600090815260676020526040902094939291906121ca565b816001600160a01b0316836001600160a01b0316856001600160a01b03167f1198b38b5e10d4b1e4cd2866dd9bc4e71e32c649b6ff51addd64e01fb6a6d5ad846040516108b591906148bb565b610d9d611a74565b6001600160a01b0316610dae6111e5565b6001600160a01b031614610dd45760405162461bcd60e51b81526004016104d790614713565b6001600160a01b0384166000908152606760205260409020610df8908484846122e6565b816001600160a01b0316836001600160a01b0316856001600160a01b03167f4cf47603ce110cd8061678afe77c525be4ca073f4640f629292afcef7be49259846040516108b591906148bb565b610e4d611a74565b6001600160a01b0316610e5e6111e5565b6001600160a01b031614610e845760405162461bcd60e51b81526004016104d790614713565b61067e848484846123e3565b6000806000610e9d61392c565b8415610f3d57506001600160a01b0380881660009081526066602090815260408083208a851684526001018252808320938916835292815290829020825160a081018452600282015463ffffffff80821683526001600160701b036401000000008304811695840195909552600160901b9091048416948201949094526003909101549182166060820152600160701b9091049091166080820152610fd3565b506001600160a01b0380881660009081526065602090815260408083208a851684526001018252808320938916835292815290829020825160a081018452600282015463ffffffff80821683526001600160701b036401000000008304811695840195909552600160901b9091048416948201949094526003909101549182166060820152600160701b90910490911660808201525b8051602082015160809092015163ffffffff9182169a6001600160701b039093169950169650945050505050565b611009611a74565b6001600160a01b031661101a6111e5565b6001600160a01b0316146110405760405162461bcd60e51b81526004016104d790614713565b6033546040516000916001600160a01b0316907f8be0079c531659141344cd1fd0a4f28419497f9722a3daafe3b4186f6b6457e0908390a3603380546001600160a01b0319169055565b611092611a74565b6001600160a01b03166110a36111e5565b6001600160a01b0316146110c95760405162461bcd60e51b81526004016104d790614713565b600084156110fe576001600160a01b03881660009081526066602052604090206110f790888887878761246f565b9050611127565b6001600160a01b038816600090815260656020526040902061112490888887878761246f565b90505b856001600160a01b0316876001600160a01b0316896001600160a01b03167f0ee63f5b7633ec1ad321f6f89b83ec0993c2cc680112d7b153759242a655ed43888888604051611178939291906142fd565b60405180910390a4856001600160a01b0316876001600160a01b0316896001600160a01b03167f5030027163f1655f8ac4c205c22bfe42c59f83e61a7c15da775499920b214314888588886040516111d39493929190614350565b60405180910390a45050505050505050565b6033546001600160a01b031690565b6001600160a01b038316600090815260676020526040812081908190819061121d908787612582565b805460019091015490986001600160701b0382169850600160e01b90910463ffffffff169650945050505050565b6001600160a01b03841661125e5761067e565b6000611268611a74565b90506000826001600160a01b03166318160ddd6040518163ffffffff1660e01b815260040160206040518083038186803b1580156112a557600080fd5b505afa1580156112b9573d6000803e3d6000fd5b505050506040513d601f19601f820116820180604052508101906112dd91906141e7565b90506000836001600160a01b03166370a08231886040518263ffffffff1660e01b815260040161130d91906141ff565b60206040518083038186803b15801561132557600080fd5b505afa158015611339573d6000803e3d6000fd5b505050506040513d601f19601f8201168201806040525081019061135d91906141e7565b9050606061136b8486611f32565b6001600160a01b038516600090815260676020526040902090915061139590858786610c17611f63565b6113a284868a8585611a78565b6001600160a01b0387161561143f576040516370a0823160e01b81526000906001600160a01b038716906370a08231906113e0908b906004016141ff565b60206040518083038186803b1580156113f857600080fd5b505afa15801561140c573d6000803e3d6000fd5b505050506040513d601f19601f8201168201806040525081019061143091906141e7565b9050610cbd85878a8486611a78565b5050505050505050565b6000611453611f63565b905060005b8251811015611539576114696138f5565b83828151811061147557fe5b602002602001015190506115306067600083600001516001600160a01b03166001600160a01b031681526020019081526020016000208260000151836020015184602001516001600160a01b03166318160ddd6040518163ffffffff1660e01b815260040160206040518083038186803b1580156114f257600080fd5b505afa158015611506573d6000803e3d6000fd5b505050506040513d601f19601f8201168201806040525081019061152a91906141e7565b87611f67565b50600101611458565b505050565b611546611a74565b6001600160a01b03166115576111e5565b6001600160a01b03161461157d5760405162461bcd60e51b81526004016104d790614713565b82156115ad576001600160a01b03861660009081526066602052604090206115a890868685856125ae565b6115d2565b6001600160a01b03861660009081526065602052604090206115d290868685856125ae565b836001600160a01b0316856001600160a01b0316876001600160a01b03167f401facfe78ba5adec5aae1404afebf8e3a77cb5dfdf5b4b611504d626d9a2ed5868686604051611623939291906142fd565b60405180910390a4505050505050565b6060806116c68787808060200260200160405190810160405280939291908181526020016000905b8282101561168757611678604083028601368190038101906141cc565b8152602001906001019061165b565b50505050508686868080602002602001604051908101604052809392919081815260200183836020028082843760009201919091525061096592505050565b9050611705858585808060200260200160405190810160405280939291908181526020018383602002808284376000920191909152506117b892505050565b9695505050505050565b60008115611741576001600160a01b038516600090815260666020526040902061173a90858561261e565b9050611764565b6001600160a01b038516600090815260656020526040902061173a90858561261e565b949350505050565b611774611a74565b6001600160a01b03166117856111e5565b6001600160a01b0316146117ab5760405162461bcd60e51b81526004016104d790614713565b6106e18585858585612640565b60005b81518110156115395761183d838383815181106117d457fe5b6020026020010151606960008686815181106117ec57fe5b60200260200101516001600160a01b03166001600160a01b031681526020019081526020016000206000876001600160a01b03166001600160a01b0316815260200190815260200160002054610742565b6001016117bb565b6001600160a01b038216600090815260676020526040902060609061073b9083611bfc565b6001600160a01b0380821660009081526069602090815260408083209386168352929052205492915050565b606080825167ffffffffffffffff811180156118b157600080fd5b506040519080825280602002602001820160405280156118eb57816020015b6118d86138f5565b8152602001906001900390816118d05790505b50905060005b83518110156119a557604051806040016040528085838151811061191157fe5b60200260200101516001600160a01b031681526020016069600087858151811061193757fe5b60200260200101516001600160a01b03166001600160a01b031681526020019081526020016000206000886001600160a01b03166001600160a01b031681526020019081526020016000205481525082828151811061199257fe5b60209081029190910101526001016118f1565b509392505050565b6119b5611a74565b6001600160a01b03166119c66111e5565b6001600160a01b0316146119ec5760405162461bcd60e51b81526004016104d790614713565b6001600160a01b038116611a125760405162461bcd60e51b81526004016104d7906144a5565b6033546040516001600160a01b038084169216907f8be0079c531659141344cd1fd0a4f28419497f9722a3daafe3b4186f6b6457e090600090a3603380546001600160a01b0319166001600160a01b0392909216919091179055565b3b151590565b3390565b60005b8151811015611b00576000828281518110611a9257fe5b6020908102919091018101516001600160a01b03808a1660009081526067845260408082208b841683526001908101865281832093851683529290945292909220918201549092506001600160701b031615611af657611af6818989858a8a6126ef565b5050600101611a7b565b505050505050565b60005b8151811015611b00576000828281518110611b2257fe5b6020908102919091018101516001600160a01b03808a1660009081526065845260408082208b841683526001018552808220928416825291909352822090925090611b769082908a908a9086908b8b612779565b5050600101611b0b565b60005b8151811015611b00576000828281518110611b9a57fe5b6020908102919091018101516001600160a01b03808a1660009081526066845260408082208b84168352600190810186528183209385168352929094529290922090925090611bf29082908a908a9086908b8b612779565b5050600101611b83565b6001600160a01b038116600090815260208390526040902060609061073b906127eb565b600082821115611c425760405162461bcd60e51b81526004016104d7906145a0565b50900390565b6001600160a01b0382166000908152602085905260408120611c69906128cb565b90506000611c75611f63565b6001600160a01b038516600090815260208890526040812091925090611c9a906128d1565b90505b6001600160a01b03811615801590611ce757506001600160a01b0385166000908152602088905260409020611cd1906128cb565b6001600160a01b0316816001600160a01b031614155b15611f29576001600160a01b0380861660009081526001890160209081526040808320938516835292905290812090611d1f83612117565b600383015490915063ffffffff600160701b909104811690600090611d4a908590889086906128ee16565b600385015490915063ffffffff838116600160701b9092041614611ee05763ffffffff82166000908152600185016020526040908190205490516001600160a01b03808816928c821692918e16917f5af66de08c3f6079fb9df0df086b4866eef80830affd2db8a278a87a3c98317891611dd5918e9189916001600160701b03909116908990614324565b60405180910390a4846001600160a01b0316896001600160a01b03168b6001600160a01b03167f5030027163f1655f8ac4c205c22bfe42c59f83e61a7c15da775499920b2143148b88600301600e9054906101000a900463ffffffff168960010160008b600301600e9054906101000a900463ffffffff1663ffffffff1663ffffffff168152602001908152602001600020600001600e9054906101000a90046001600160701b03168a60010160008c600301600e9054906101000a900463ffffffff1663ffffffff1663ffffffff168152602001908152602001600020600001601c9054906101000a900463ffffffff16604051611ed79493929190614350565b60405180910390a45b8083148015611ef657611ef68b8b888c8c612640565b6001600160a01b038a16600090815260208d9052604090209597508795611f1d9087612914565b95505050505050611c9d565b50505050505050565b6001600160a01b03808316600090815260676020908152604080832093851683529290522060609061073b906127eb565b4290565b6001600160a01b0383166000908152602086905260408120611f88906128cb565b6001600160a01b038516600090815260208890526040812091925090611fad906128d1565b90505b6001600160a01b03811615801590611ffa57506001600160a01b0385166000908152602088905260409020611fe4906128cb565b6001600160a01b0316816001600160a01b031614155b15611f29576001600160a01b038086166000908152600189016020908152604080832093851683529290529081209061203283612117565b9050600061204283888885612937565b90508181148015612059576120598a8a87896123e3565b6001600160a01b038916600090815260208c90526040902094955085946120809086612914565b945050505050611fb0565b6001600160a01b03808316600090815260656020908152604080832093851683529290522060609061073b906127eb565b6001600160a01b03808316600090815260666020908152604080832093851683529290522060609061073b906127eb565b600064010000000082106121135760405162461bcd60e51b81526004016104d7906147de565b5090565b600080826001600160a01b03166370a08231306040518263ffffffff1660e01b815260040161214691906141ff565b60206040518083038186803b15801561215e57600080fd5b505afa158015612172573d6000803e3d6000fd5b505050506040513d601f19601f8201168201806040525081019061219691906141e7565b6001600160a01b0384166000908152606860205260409020549091508181106121c0576000611764565b6117648282611c20565b6001600160a01b03851660009081526020879052604090206121ec9085612ae7565b6122085760405162461bcd60e51b81526004016104d790614690565b6122b5856001600160a01b03166318160ddd6040518163ffffffff1660e01b815260040160206040518083038186803b15801561224457600080fd5b505afa158015612258573d6000803e3d6000fd5b505050506040513d601f19601f8201168201806040525081019061227c91906141e7565b6001600160a01b03808816600090815260018a0160209081526040808320938a168352929052209063ffffffff80861690859061293716565b5050506001600160a01b03928316600090815260019094016020908152604080862093909416855291909152912055565b6001600160a01b03831660009081526020859052604090206123089083612ae7565b156123255760405162461bcd60e51b81526004016104d7906143d2565b6001600160a01b038316600090815260208590526040902054612363576001600160a01b038316600090815260208590526040902061236390612b38565b6001600160a01b03831660009081526020859052604090206123859083612b7c565b6001600160a01b03808416600090815260018601602090815260408083209386168352929052206123b590612c44565b6001600160a01b03928316600090815260019094016020908152604080862093909416855291909152912055565b61241f8383836123f4610d18611f63565b6123fd87612117565b6001600160a01b038a1660009081526067602052604090209493929190612c5a565b816001600160a01b0316836001600160a01b0316856001600160a01b03167fbbd41ee308597dd699317716979d8ce8edde7cdde9471c26bfab7752e1186c9460405160405180910390a450505050565b6001600160a01b03851660009081526020879052604081206124919086612ae7565b156124ae5760405162461bcd60e51b81526004016104d79061485b565b6001600160a01b0386166000908152602088905260409020546124ec576001600160a01b03861660009081526020889052604090206124ec90612b38565b6001600160a01b038616600090815260208890526040902061250e9086612b7c565b6001600160a01b038087166000908152600189016020908152604080832093891683529290522061254190858585612ce9565b505050506001600160a01b0391821660009081526001939093016020908152604080852092909316845252902060030154600160701b900463ffffffff1690565b6001600160a01b0391821660009081526001939093016020908152604080852092909316845252902090565b6001600160a01b03841660009081526020869052604090206125d09084612ae7565b6125ec5760405162461bcd60e51b81526004016104d790614618565b6001600160a01b03808516600090815260018701602090815260408083209387168352929052206106e1908383612e35565b6001600160a01b03821660009081526020849052604081206117649083612ae7565b811561266f576001600160a01b038516600090815260666020526040902061266a90858584612ea4565b612693565b6001600160a01b038516600090815260656020526040902061269390858584612ea4565b826001600160a01b0316846001600160a01b0316866001600160a01b03167f9684c938581734d57a998217c38505f0c4fc95afd0af9da2c97b9822ee7a66c8856040516126e091906142d1565b60405180910390a45050505050565b60006126fc878484612ec7565b6001600160801b031690508015611f2957612718848483612ed4565b50836001600160a01b0316856001600160a01b0316876001600160a01b03167f782be3085b3ef7b927740f3ed02f7393ee3f20b8fe87595484dbf65c5be4230d8685604051612768929190614213565b60405180910390a450505050505050565b6000612786888484612fc6565b9050801561143f57612799858483612ed4565b50846001600160a01b0316866001600160a01b0316886001600160a01b03167f06c65e2aee0f9ad46bde72ca6800e5b29333356dc073eba0e3995ffc980148f78787866040516111d3939291906142dc565b606080826000015467ffffffffffffffff8111801561280957600080fd5b50604051908082528060200260200182016040528015612833578160200160208202803683370190505b50600160008181529085016020526040812054919250906001600160a01b03165b6001600160a01b0381161580159061287657506001600160a01b038116600114155b156128c2578083838151811061288857fe5b6001600160a01b03928316602091820292909201810191909152918116600090815260018088019093526040902054929091019116612854565b50909392505050565b50600190565b60016000818152910160205260409020546001600160a01b031690565b60006128fa84846131d4565b1561290a5761071284848461320a565b5060009392505050565b6001600160a01b0380821660009081526001840160205260409020541692915050565b600184015460009063ffffffff848116600160e01b90920416141561295e57506000611764565b6001850154600090600160e01b900463ffffffff161561298f576001860154600160e01b900463ffffffff16612991565b835b9050600061299f8583611c20565b60018801549091506000906001600160701b0316156129cb5760018801546001600160701b03166129dc565b6129dc670de0b6b3a76400006134da565b9050600080831180156129ef5750885415155b15612a49578854612a019084906134ff565b905085811115612a0e5750845b6000808911612a1e576000612a28565b612a28828a613539565b9050612a45612a406001600160701b0385168361355a565b6134da565b9250505b6001890180546001600160701b0319166001600160701b038481169190911791829055612a8391612a4091600160701b909104168361355a565b89600101600e6101000a8154816001600160701b0302191690836001600160701b03160217905550612ab4876120ed565b60018a01805463ffffffff92909216600160e01b026001600160e01b039092169190911790559350505050949350505050565b60006001600160a01b038216600114801590612b0b57506001600160a01b03821615155b801561073b5750506001600160a01b03908116600090815260019290920160205260409091205416151590565b805415612b575760405162461bcd60e51b81526004016104d790614748565b60016000818152918101602052604090912080546001600160a01b0319169091179055565b6001600160a01b038116600114801590612b9e57506001600160a01b03811615155b612bba5760405162461bcd60e51b81526004016104d79061444f565b6001600160a01b0381811660009081526001840160205260409020541615612bf45760405162461bcd60e51b81526004016104d7906147b7565b60016000818152838201602052604080822080546001600160a01b039586168085529284208054969091166001600160a01b03199687161790559183905281549093169092179091558154019055565b6001018054600160701b600160e01b0319169055565b6001600160a01b0385166000908152602087905260409020612c7d90848661357f565b612cb9856001600160a01b03166318160ddd6040518163ffffffff1660e01b815260040160206040518083038186803b15801561224457600080fd5b505050506001600160a01b0391821660009081526001939093016020908152604080852092909316845252812055565b8263ffffffff1660008111612d105760405162461bcd60e51b81526004016104d7906144eb565b60028501805463ffffffff191663ffffffff86811691909117640100000000600160901b0319166401000000006001600160701b03871602179091556003860180546001600160701b03191690819055612d8091612d7b91600160701b900481169060019061355a16565b613649565b60038601805463ffffffff60701b191661ffff92909216600160701b90810292909217908190556040805160608101825260008082526001600160701b03978816602080840191825263ffffffff98891684860190815295879004891683526001909b01909a529190912090518154985192516001600160701b031990991690871617600160701b600160e01b03191691909516909102176001600160e01b0316600160e01b95909216949094021790555050565b8163ffffffff1660008111612e5c5760405162461bcd60e51b81526004016104d7906144eb565b50600290920180546001600160701b0390931664010000000002640100000000600160901b031963ffffffff90931663ffffffff199094169390931791909116919091179055565b6001600160a01b038316600090815260208590526040902061067e90828461357f565b600061176484848461366d565b600080612ee085612117565b90506000818411612ef15783612ef3565b815b6001600160a01b038716600090815260686020526040902054909150612f19908261355a565b6001600160a01b03808816600090815260686020908152604080832094909455606981528382209289168252919091522054612f55908261355a565b6001600160a01b038088166000818152606960209081526040808320948b1680845294909152908190209390935591519091907f0f3ed8b918f23095606f705f6253b10267861573421cf05301b0f1f006c92b4490612fb59085906148bb565b60405180910390a395945050505050565b6003830154600090600160701b900463ffffffff16612fe75750600061073b565b6001600160a01b03831660009081526020859052604081205461302290869063ffffffff600160701b820416906001600160701b031661374d565b6003860154909150600160701b900463ffffffff1681156130bd576040518060400160405280613051866134da565b6001600160701b03908116825263ffffffff8085166020938401526001600160a01b03891660009081528a845260409020845181549590940151909116600160701b0263ffffffff60701b19939092166001600160701b03199094169390931791909116179055613160565b6040805180820182526001600160a01b03871660009081526020899052919091205481906130f890612a40906001600160701b03168861355a565b6001600160701b03908116825263ffffffff8085166020938401526001600160a01b03891660009081528a845260409020845181549590940151909116600160701b0263ffffffff60701b19939092166001600160701b031990941693909317919091161790555b63ffffffff808216600090815260018801602052604090205461319391612a40916001600160701b031690879061355a16565b63ffffffff9091166000908152600187016020526040902080546001600160701b03929092166001600160701b031990921691909117905590509392505050565b600382015463ffffffff600160701b90910481166000908152600184016020526040902054600160e01b90041681101592915050565b6000838361321882826131d4565b6132345760405162461bcd60e51b81526004016104d790614824565b6003860154600160701b900463ffffffff1660009081526001870160205260408120546001600160701b03161561329657506003860154600160701b9081900463ffffffff166000908152600188016020526040902054046001600160701b03165b84816001600160701b031611156132f9576132b0856134da565b6003880154600160701b9081900463ffffffff16600090815260018a01602052604090208054600160701b600160e01b0319166001600160701b03841690920291909117905590505b600387015463ffffffff600160701b909104811660009081526001808a01602052604082205460028b0154600160e01b9091048416936133569291613350919081169061334a908d908890611c2016565b90613804565b9061355a565b60028a01549091506000906133819061337a90849063ffffffff908116906134ff16565b849061355a565b60038b01549091506133a490612a40906001600160701b0390811690871661355a565b60038b0180546001600160701b0319166001600160701b039290921691909117908190556133e990612d7b90600160701b900463ffffffff9081169060019061355a16565b60038b01805463ffffffff60701b191661ffff92909216600160701b02919091179055604080516060810182526000815260028c01546001600160701b03640100000000909104166020820152908101613442836120ed565b63ffffffff90811690915260038c0154600160701b908190048216600090815260018e01602090815260409182902085518154928701519690930151909416600160e01b026001600160e01b036001600160701b03968716909402600160701b600160e01b03199387166001600160701b03199093169290921792909216179190911617905593909316955050505050509392505050565b6000600160701b82106121135760405162461bcd60e51b81526004016104d79061476e565b60008261350e57506000610492565b8282028284828161351b57fe5b041461073b5760405162461bcd60e51b81526004016104d7906146d2565b60008061354e84670de0b6b3a76400006134ff565b90506117648184613836565b60008282018381101561073b5760405162461bcd60e51b81526004016104d790614522565b6001600160a01b0381166001148015906135a157506001600160a01b03811615155b6135bd5760405162461bcd60e51b81526004016104d79061444f565b6001600160a01b0382811660009081526001850160205260409020548116908216146135fb5760405162461bcd60e51b81526004016104d790614478565b6001600160a01b039081166000818152600185016020526040808220805495851683529082208054959094166001600160a01b03199586161790935552805490911690558054600019019055565b60006201000082106121135760405162461bcd60e51b81526004016104d790614409565b6001600160a01b0382166000908152600284016020526040812080546001600160801b0316806136b4576136a8670de0b6b3a76400006134da565b6001600160701b031690505b60018601546000906136cf906001600160701b031683611c20565b905060006136e56136e08784613878565b613899565b604080516020808201835260018c01546001600160701b031682526001600160a01b039a909a1660009081526002909b01909952909820965187546fffffffffffffffffffffffffffffffff19166001600160801b0390911617909655509495945050505050565b6003830154600090819063ffffffff600160701b9091048116908516108015613795575063ffffffff841660009081526001860160205260409020546001600160701b031615155b156117645763ffffffff841660009081526001860160205260408120546137cf906001600160801b038616906001600160701b0316613539565b63ffffffff8616600090815260018801602052604090205490915061170590600160701b90046001600160701b031682613878565b60008082116138255760405162461bcd60e51b81526004016104d790614659565b81838161382e57fe5b049392505050565b600061073b83836040518060400160405280601a81526020017f536166654d6174683a206469766973696f6e206279207a65726f0000000000008152506138be565b60008061388583856134ff565b905061176481670de0b6b3a7640000613836565b6000600160801b82106121135760405162461bcd60e51b81526004016104d790614559565b600081836138df5760405162461bcd60e51b81526004016104d7919061437f565b5060008385816138eb57fe5b0495945050505050565b604080518082019091526000808252602082015290565b604080516060810182526000808252602082018190529181019190915290565b6040805160a08101825260008082526020820181905291810182905260608101829052608081019190915290565b80356001600160a01b038116811461049257600080fd5b600082601f830112613981578081fd5b813561399461398f82614926565b6148ff565b8181529150602080830190848101818402860182018710156139b557600080fd5b60005b848110156139dc576139ca888361395a565b845292820192908201906001016139b8565b505050505092915050565b600082601f8301126139f7578081fd5b8135613a0561398f82614926565b8181529150602080830190848101604080850287018301881015613a2857600080fd5b60005b85811015613a4f57613a3d8984613a5b565b85529383019391810191600101613a2b565b50505050505092915050565b600060408284031215613a6c578081fd5b613a7660406148ff565b9050613a82838361395a565b8152613a91836020840161395a565b602082015292915050565b600060208284031215613aad578081fd5b61073b838361395a565b60008060408385031215613ac9578081fd5b613ad3848461395a565b9150613ae2846020850161395a565b90509250929050565b600080600060608486031215613aff578081fd5b613b09858561395a565b9250613b18856020860161395a565b9150613b27856040860161395a565b90509250925092565b60008060008060808587031215613b45578081fd5b613b4f868661395a565b9350613b5e866020870161395a565b9250613b6d866040870161395a565b9150613b7c866060870161395a565b905092959194509250565b60008060008060808587031215613b9c578384fd5b613ba6868661395a565b9350613bb5866020870161395a565b9250613bc4866040870161395a565b91506060850135613bd48161495e565b939692955090935050565b600080600080600060a08688031215613bf6578081fd5b613c00878761395a565b9450613c0f876020880161395a565b9350613c1e876040880161395a565b92506060860135613c2e8161495e565b9150613c3d876080880161395a565b90509295509295909350565b600080600080600060a08688031215613c60578081fd5b613c6a878761395a565b9450613c79876020880161395a565b9350613c88876040880161395a565b92506060860135613c988161495e565b9150608086013561ffff81168114613cae578182fd5b809150509295509295909350565b60008060008060008060c08789031215613cd4578384fd5b8635613cdf81614946565b95506020870135613cef81614946565b94506040870135613cff81614946565b93506060870135613d0f8161495e565b92506080870135613d1f8161496c565b915060a08701356001600160701b0381168114613d3a578182fd5b809150509295509295509295565b600080600080600080600060e0888a031215613d62578485fd5b8735613d6d81614946565b96506020880135613d7d81614946565b95506040880135613d8d81614946565b94506060880135613d9d8161495e565b93506080880135613dad8161496c565b925060a08801356001600160701b0381168114613dc8578182fd5b915060c0880135613dd88161496c565b8091505092959891949750929550565b60008060008060808587031215613dfd578182fd5b8435613e0881614946565b93506020850135613e1881614946565b92506040850135613e2881614946565b9396929550929360600135925050565b600080600060608486031215613e4c578081fd5b8335613e5781614946565b92506020840135613e6781614946565b91506040840135613e778161495e565b809150509250925092565b600080600060608486031215613e96578081fd5b8335613ea181614946565b92506020840135613eb181614946565b929592945050506040919091013590565b60008060008060808587031215613ed7578182fd5b8435613ee281614946565b93506020850135613ef281614946565b9250604085013591506060850135613bd481614946565b60008060408385031215613f1b578182fd5b613f25848461395a565b9150602083013567ffffffffffffffff811115613f40578182fd5b613f4c85828601613971565b9150509250929050565b60008060008060808587031215613f6b578182fd5b613f75868661395a565b935060208501359250613b6d866040870161395a565b600080600080600060608688031215613fa2578283fd5b853567ffffffffffffffff80821115613fb9578485fd5b818801915088601f830112613fcc578485fd5b813581811115613fda578586fd5b60208a81604084028601011115613fef578687fd5b80840198508197506140038b828c0161395a565b965060408a0135935082841115614018578485fd5b838a0193508a601f85011261402b578485fd5b833591508282111561403b578485fd5b8a81828402860101111561404d578485fd5b979a96995094975050909401935090919050565b600060208284031215614072578081fd5b813567ffffffffffffffff811115614088578182fd5b611764848285016139e7565b6000806000606084860312156140a8578081fd5b833567ffffffffffffffff808211156140bf578283fd5b6140cb878388016139e7565b9450602086013591506140dd82614946565b909250604085013590808211156140f2578283fd5b506140ff86828701613971565b9150509250925092565b6000806000806080858703121561411e578182fd5b843567ffffffffffffffff80821115614135578384fd5b614141888389016139e7565b95506020870135915061415382614946565b909350604086013592506060860135908082111561416f578283fd5b5061417c87828801613971565b91505092959194509250565b600060208284031215614199578081fd5b815161073b8161495e565b6000602082840312156141b5578081fd5b81356001600160e01b03198116811461073b578182fd5b6000604082840312156141dd578081fd5b61073b8383613a5b565b6000602082840312156141f8578081fd5b5051919050565b6001600160a01b0391909116815260200190565b6001600160a01b03929092168252602082015260400190565b6020808252825182820181905260009190848201906040850190845b8181101561426d5783516001600160a01b031683529284019291840191600101614248565b50909695505050505050565b602080825282518282018190526000919060409081850190868401855b828110156142c457815180516001600160a01b03168552860151868501529284019290850190600101614296565b5091979650505050505050565b901515815260200190565b92151583526001600160a01b03919091166020830152604082015260600190565b921515835263ffffffff9190911660208301526001600160701b0316604082015260600190565b931515845263ffffffff9290921660208401526001600160701b03166040830152606082015260800190565b931515845263ffffffff92831660208501526001600160701b0391909116604084015216606082015260800190565b6000602080835283518082850152825b818110156143ab5785810183015185820160400152820161438f565b818111156143bc5783604083870101525b50601f01601f1916929092016040019392505050565b6020808252601e908201527f42616c616e6365447269704d616e616765722f647269702d6163746976650000604082015260600190565b60208082526026908201527f53616665436173743a2076616c756520646f65736e27742066697420696e203160408201526536206269747360d01b606082015260800190565b6020808252600f908201526e496e76616c6964206164647265737360881b604082015260600190565b602080825260139082015272496e76616c696420707265764164647265737360681b604082015260600190565b60208082526026908201527f4f776e61626c653a206e6577206f776e657220697320746865207a65726f206160408201526564647265737360d01b606082015260800190565b60208082526019908201527f566f6c756d65447269702f706572696f642d67742d7a65726f00000000000000604082015260600190565b6020808252601b908201527f536166654d6174683a206164646974696f6e206f766572666c6f770000000000604082015260600190565b60208082526027908201527f53616665436173743a2076616c756520646f65736e27742066697420696e20316040820152663238206269747360c81b606082015260800190565b6020808252601e908201527f536166654d6174683a207375627472616374696f6e206f766572666c6f770000604082015260600190565b60208082526021908201527f436f6d7074726f6c6c65722f636c61696d2d7472616e736665722d6661696c656040820152601960fa1b606082015260800190565b60208082526021908201527f566f6c756d65447269704d616e616765722f647269702d6e6f742d61637469766040820152606560f81b606082015260800190565b6020808252601a908201527f536166654d6174683a206469766973696f6e206279207a65726f000000000000604082015260600190565b60208082526022908201527f42616c616e6365447269704d616e616765722f647269702d6e6f742d61637469604082015261766560f01b606082015260800190565b60208082526021908201527f536166654d6174683a206d756c7469706c69636174696f6e206f766572666c6f6040820152607760f81b606082015260800190565b6020808252818101527f4f776e61626c653a2063616c6c6572206973206e6f7420746865206f776e6572604082015260600190565b6020808252600c908201526b105b1c9958591e481a5b9a5d60a21b604082015260600190565b60208082526029908201527f53616665436173743a2076616c756520646f65736e27742066697420696e206160408201526837103ab4b73a18989960b91b606082015260800190565b6020808252600d908201526c105b1c9958591e481859191959609a1b604082015260600190565b60208082526026908201527f53616665436173743a2076616c756520646f65736e27742066697420696e203360408201526532206269747360d01b606082015260800190565b6020808252601a908201527f566f6c756d65447269702f706572696f642d6e6f742d6f766572000000000000604082015260600190565b6020808252601d908201527f566f6c756d65447269704d616e616765722f647269702d616374697665000000604082015260600190565b6001600160701b03938416815291909216602082015263ffffffff909116604082015260600190565b90815260200190565b9283526001600160801b0391909116602083015263ffffffff16604082015260600190565b9283526020830191909152604082015260600190565b60405181810167ffffffffffffffff8111828210171561491e57600080fd5b604052919050565b600067ffffffffffffffff82111561493c578081fd5b5060209081020190565b6001600160a01b038116811461495b57600080fd5b50565b801515811461495b57600080fd5b63ffffffff8116811461495b57600080fdfea2646970667358221220fc476b09f54d2b498a7a1b80f3a4ab2436760380baa6d917b9d1d1aab5cf963764736f6c634300060c0033",
  "devdoc": {
    "kind": "dev",
    "methods": {
      "activateBalanceDrip(address,address,address,uint256)": {
        "params": {
          "dripRatePerSecond": "The amount of drip tokens that are awarded each second to the total supply of measure.",
          "dripToken": "The token that is dripped to users.",
          "measure": "The ERC20 token whose balances determines user's share of the drip rate.",
          "source": "The balance drip \"source\"; i.e. a Prize Pool address."
        }
      },
      "activateVolumeDrip(address,address,address,bool,uint32,uint112,uint32)": {
        "params": {
          "dripAmount": "The amount of dripTokens disbursed each period.",
          "dripToken": "The token that is being disbursed",
          "endTime": "The time at which the first period ends.",
          "isReferral": "Whether this volume drip is for referrals",
          "measure": "The Prize Pool controlled token whose volume should be measured",
          "periodSeconds": "The period of the volume drip, in seconds",
          "source": "The Prize Pool for which to bind to"
        }
      },
      "balanceOfDrip(address,address)": {
        "params": {
          "dripToken": "The token that is being disbursed",
          "user": "The user whose balance should be checked."
        },
        "returns": {
          "_0": "The claimable balance of the dripToken by the user."
        }
      },
      "beforeTokenMint(address,uint256,address,address)": {
        "params": {
          "amount": "The amount of tokens they are minting",
          "measure": "The measure token they are minting",
          "referrer": "The user who referred the minting.",
          "to": "The user who is minting the tokens"
        }
      },
      "beforeTokenTransfer(address,address,uint256,address)": {
        "params": {
          "from": "The user who is sending the tokens",
          "measure": "The measure token they are burning",
          "to": "The user who is receiving the tokens"
        }
      },
      "captureClaimsForBalanceDripsForPairs((address,address)[],address,address[])": {
        "params": {
          "dripTokens": "The drip tokens to retrieve claim balances for.",
          "pairs": "The (source, measure) pairs to update.  For each pair all of the balance drips, volume drips, and referral volume drips will be updated.",
          "user": "The user whose drips and balances will be updated."
        }
      },
      "claimDrip(address,address,uint256)": {
        "params": {
          "amount": "The amount of drip token to claim",
          "dripToken": "The drip token to claim",
          "user": "The user for whom to claim the drip tokens"
        }
      },
      "deactivateBalanceDrip(address,address,address,address)": {
        "params": {
          "dripToken": "The token that is dripped to users.",
          "measure": "The ERC20 token whose balances determines user's share of the drip rate.",
          "prevDripToken": "The previous drip token in the balance drip list.  If the dripToken is the first address, then the previous address is the SENTINEL address: 0x0000000000000000000000000000000000000001",
          "source": "The balance drip \"source\"; i.e. a Prize Pool address."
        }
      },
      "deactivateVolumeDrip(address,address,address,bool,address)": {
        "params": {
          "dripToken": "The token that is being disbursed",
          "isReferral": "Whether this volume drip is for referrals",
          "measure": "The Prize Pool controlled token whose volume should be measured",
          "prevDripToken": "The previous drip token in the volume drip list.  Is different for referrals vs non-referral volume drips.",
          "source": "The Prize Pool for which to bind to"
        }
      },
      "getActiveBalanceDripTokens(address,address)": {
        "params": {
          "measure": "The ERC20 token whose balances determines user's share of the drip rate.",
          "source": "The balance drip \"source\"; i.e. a Prize Pool address."
        },
        "returns": {
          "_0": "An array of active Balance Drip token addresses"
        }
      },
      "getActiveVolumeDripTokens(address,address,bool)": {
        "params": {
          "isReferral": "Whether this volume drip is a referral",
          "measure": "The ERC20 token whose volume determines user's share of the drip rate.",
          "source": "The volume drip \"source\"; i.e. a Prize Pool address."
        },
        "returns": {
          "_0": "An array of active Volume Drip token addresses"
        }
      },
      "getBalanceDrip(address,address,address)": {
        "params": {
          "dripToken": "The token that is being dripped to users",
          "measure": "The token that measure's a users share of the drip",
          "source": "The balance drip \"source\"; i.e. Prize Pool"
        },
        "returns": {
          "dripRatePerSecond": "The current drip rate of the balance drip.",
          "exchangeRateMantissa": "The current exchange rate from measure to dripTokens",
          "timestamp": "The timestamp at which the balance drip was last updated."
        }
      },
      "owner()": {
        "details": "Returns the address of the current owner."
      },
      "renounceOwnership()": {
        "details": "Leaves the contract without owner. It will not be possible to call `onlyOwner` functions anymore. Can only be called by the current owner. NOTE: Renouncing ownership will leave the contract without an owner, thereby removing any functionality that is only available to the owner."
      },
      "setBalanceDripRate(address,address,address,uint256)": {
        "params": {
          "dripRatePerSecond": "The new drip rate per second",
          "dripToken": "The token that is dripped to the user",
          "measure": "The token to use to measure a user's share of the drip rate",
          "source": "The balance drip \"source\"; i.e. Prize Pool"
        }
      },
      "setVolumeDrip(address,address,address,bool,uint32,uint112)": {
        "params": {
          "dripAmount": "The amount of tokens to drip for the next period",
          "dripToken": "The token that is being disbursed",
          "isReferral": "Whether this volume drip is a referral",
          "measure": "The token whose volume is being measured",
          "periodSeconds": "The length to use for the next period",
          "source": "The Prize Pool of the volume drip"
        }
      },
      "supportsInterface(bytes4)": {
        "details": "Returns true if this contract implements the interface defined by `interfaceId`. See the corresponding https://eips.ethereum.org/EIPS/eip-165#how-interfaces-are-identified[EIP section] to learn more about how these ids are created. This function call must use less than 30 000 gas."
      },
      "transferOwnership(address)": {
        "details": "Transfers ownership of the contract to a new account (`newOwner`). Can only be called by the current owner."
      },
      "updateAndClaimDrips((address,address)[],address,address[])": {
        "details": "This function will be useful to check the *current* claim balances for a user. Just need to run this as a constant function to see the latest balances. in order to claim the values, this function needs to be run alongside a claimDrip function.",
        "params": {
          "dripTokens": "The drip tokens whose entire balance will be claimed after the update.",
          "pairs": "The (source, measure) pairs of drips to update for the given user",
          "user": "The user for whom to update and claim tokens"
        },
        "returns": {
          "_0": "The claimable balance of each of the passed drip tokens for the user.  These are the post-update balances, and therefore the most accurate."
        }
      },
      "updateDrips((address,address)[],address,address[])": {
        "details": "This function will be useful to check the *current* claim balances for a user. Just need to run this as a constant function to see the latest balances. in order to claim the values, this function needs to be run alongside a claimDrip function.",
        "params": {
          "dripTokens": "The drip tokens whose entire balance will be claimed after the update.",
          "pairs": "The (source, measure) pairs of drips to update for the given user",
          "user": "The user for whom to update and claim tokens"
        },
        "returns": {
          "_0": "The claimable balance of each of the passed drip tokens for the user.  These are the post-update balances, and therefore the most accurate."
        }
      }
    },
    "title": "The Comptroller disburses rewards to pool users",
    "version": 1
  },
  "userdoc": {
    "events": {
      "BalanceDripActivated(address,address,address,uint256)": {
        "notice": "Emitted when a balance drip is actived"
      },
      "BalanceDripDeactivated(address,address,address)": {
        "notice": "Emitted when a balance drip is deactivated"
      },
      "BalanceDripDripped(address,address,address,address,uint256)": {
        "notice": "Emitted when a balance drip drips tokens"
      },
      "BalanceDripRateSet(address,address,address,uint256)": {
        "notice": "Emitted when a balance drip rate is updated"
      },
      "DripTokenClaimed(address,address,address,uint256)": {
        "notice": "Emitted when a user claims drip tokens"
      },
      "VolumeDripActivated(address,address,address,bool,uint256,uint256)": {
        "notice": "Emitted when a volume drip is activated"
      },
      "VolumeDripDeactivated(address,address,address,bool)": {
        "notice": "Emitted when a volume drip is deactivated."
      },
      "VolumeDripDripped(address,address,address,bool,address,uint256)": {
        "notice": "Emitted when a volue drip drips tokens"
      },
      "VolumeDripPeriodEnded(address,address,address,bool,uint32,uint256,uint256)": {
        "notice": "Emitted when a volume drip period has ended"
      },
      "VolumeDripPeriodStarted(address,address,address,bool,uint32,uint256,uint256)": {
        "notice": "Emitted when a new volume drip period has started"
      },
      "VolumeDripSet(address,address,address,bool,uint256,uint256)": {
        "notice": "Emitted when a volume drip is updated"
      }
    },
    "kind": "user",
    "methods": {
      "activateBalanceDrip(address,address,address,uint256)": {
        "notice": "Activates a balance drip.  Only callable by the owner."
      },
      "activateVolumeDrip(address,address,address,bool,uint32,uint112,uint32)": {
        "notice": "Activates a volume drip.  Volume drips distribute tokens to users based on their share of the activity within a period."
      },
      "balanceOfDrip(address,address)": {
        "notice": "Returns a users claimable balance of drip tokens.  This is the combination of all balance and volume drips."
      },
      "beforeTokenMint(address,uint256,address,address)": {
        "notice": "Called by a \"source\" (i.e. Prize Pool) when a user mints new \"measure\" tokens."
      },
      "beforeTokenTransfer(address,address,uint256,address)": {
        "notice": "Called by a \"source\" (i.e. Prize Pool) when tokens change hands or are burned"
      },
      "claimDrip(address,address,uint256)": {
        "notice": "Claims a drip token on behalf of a user.  If the passed amount is less than or equal to the users drip balance, then they will be transferred that amount.  Otherwise, it fails."
      },
      "constructor": "Initializes a new Comptroller.",
      "deactivateBalanceDrip(address,address,address,address)": {
        "notice": "Deactivates a balance drip.  Only callable by the owner."
      },
      "deactivateVolumeDrip(address,address,address,bool,address)": {
        "notice": "Deactivates a volume drip.  Volume drips distribute tokens to users based on their share of the activity within a period."
      },
      "getActiveBalanceDripTokens(address,address)": {
        "notice": "Gets a list of active balance drip tokens"
      },
      "getActiveVolumeDripTokens(address,address,bool)": {
        "notice": "Gets a list of active volume drip tokens"
      },
      "getBalanceDrip(address,address,address)": {
        "notice": "Returns the state of a balance drip."
      },
      "setBalanceDripRate(address,address,address,uint256)": {
        "notice": "Sets the drip rate for a balance drip.  The drip rate is the number of drip tokens given to the entire supply of measure tokens.  Only callable by the owner."
      },
      "setVolumeDrip(address,address,address,bool,uint32,uint112)": {
        "notice": "Sets the parameters for the *next* volume drip period.  The source, measure, dripToken and isReferral combined are used to uniquely identify a volume drip.  Only callable by the owner."
      },
      "updateAndClaimDrips((address,address)[],address,address[])": {
        "notice": "Updates the given drips for a user and then claims the given drip tokens.  This call will poke all of the drips and update the claim balances for the given user."
      },
      "updateDrips((address,address)[],address,address[])": {
        "notice": "Updates the given drips for a user and then claims the given drip tokens.  This call will poke all of the drips and update the claim balances for the given user."
      }
    },
    "version": 1
  },
  "storageLayout": {
    "storage": [
      {
        "astId": 1397,
        "contract": "contracts/comptroller/Comptroller.sol:Comptroller",
        "label": "_initialized",
        "offset": 0,
        "slot": "0",
        "type": "t_bool"
      },
      {
        "astId": 1400,
        "contract": "contracts/comptroller/Comptroller.sol:Comptroller",
        "label": "_initializing",
        "offset": 1,
        "slot": "0",
        "type": "t_bool"
      },
      {
        "astId": 3750,
        "contract": "contracts/comptroller/Comptroller.sol:Comptroller",
        "label": "__gap",
        "offset": 0,
        "slot": "1",
        "type": "t_array(t_uint256)50_storage"
      },
      {
        "astId": 10,
        "contract": "contracts/comptroller/Comptroller.sol:Comptroller",
        "label": "_owner",
        "offset": 0,
        "slot": "51",
        "type": "t_address"
      },
      {
        "astId": 129,
        "contract": "contracts/comptroller/Comptroller.sol:Comptroller",
        "label": "__gap",
        "offset": 0,
        "slot": "52",
        "type": "t_array(t_uint256)49_storage"
      },
      {
        "astId": 8831,
        "contract": "contracts/comptroller/Comptroller.sol:Comptroller",
        "label": "volumeDrips",
        "offset": 0,
        "slot": "101",
        "type": "t_mapping(t_address,t_struct(State)9964_storage)"
      },
      {
        "astId": 8835,
        "contract": "contracts/comptroller/Comptroller.sol:Comptroller",
        "label": "referralVolumeDrips",
        "offset": 0,
        "slot": "102",
        "type": "t_mapping(t_address,t_struct(State)9964_storage)"
      },
      {
        "astId": 8839,
        "contract": "contracts/comptroller/Comptroller.sol:Comptroller",
        "label": "balanceDrips",
        "offset": 0,
        "slot": "103",
        "type": "t_mapping(t_address,t_struct(State)9154_storage)"
      },
      {
        "astId": 8843,
        "contract": "contracts/comptroller/Comptroller.sol:Comptroller",
        "label": "dripTokenTotalSupply",
        "offset": 0,
        "slot": "104",
        "type": "t_mapping(t_address,t_uint256)"
      },
      {
        "astId": 8849,
        "contract": "contracts/comptroller/Comptroller.sol:Comptroller",
        "label": "dripTokenBalances",
        "offset": 0,
        "slot": "105",
        "type": "t_mapping(t_address,t_mapping(t_address,t_uint256))"
      }
    ],
    "types": {
      "t_address": {
        "encoding": "inplace",
        "label": "address",
        "numberOfBytes": "20"
      },
      "t_array(t_uint256)49_storage": {
        "base": "t_uint256",
        "encoding": "inplace",
        "label": "uint256[49]",
        "numberOfBytes": "1568"
      },
      "t_array(t_uint256)50_storage": {
        "base": "t_uint256",
        "encoding": "inplace",
        "label": "uint256[50]",
        "numberOfBytes": "1600"
      },
      "t_bool": {
        "encoding": "inplace",
        "label": "bool",
        "numberOfBytes": "1"
      },
      "t_mapping(t_address,t_address)": {
        "encoding": "mapping",
        "key": "t_address",
        "label": "mapping(address => address)",
        "numberOfBytes": "32",
        "value": "t_address"
      },
      "t_mapping(t_address,t_mapping(t_address,t_struct(State)8882_storage))": {
        "encoding": "mapping",
        "key": "t_address",
        "label": "mapping(address => mapping(address => struct BalanceDrip.State))",
        "numberOfBytes": "32",
        "value": "t_mapping(t_address,t_struct(State)8882_storage)"
      },
      "t_mapping(t_address,t_mapping(t_address,t_struct(State)9444_storage))": {
        "encoding": "mapping",
        "key": "t_address",
        "label": "mapping(address => mapping(address => struct VolumeDrip.State))",
        "numberOfBytes": "32",
        "value": "t_mapping(t_address,t_struct(State)9444_storage)"
      },
      "t_mapping(t_address,t_mapping(t_address,t_uint256))": {
        "encoding": "mapping",
        "key": "t_address",
        "label": "mapping(address => mapping(address => uint256))",
        "numberOfBytes": "32",
        "value": "t_mapping(t_address,t_uint256)"
      },
      "t_mapping(t_address,t_struct(Deposit)9418_storage)": {
        "encoding": "mapping",
        "key": "t_address",
        "label": "mapping(address => struct VolumeDrip.Deposit)",
        "numberOfBytes": "32",
        "value": "t_struct(Deposit)9418_storage"
      },
      "t_mapping(t_address,t_struct(Mapping)22184_storage)": {
        "encoding": "mapping",
        "key": "t_address",
        "label": "mapping(address => struct MappedSinglyLinkedList.Mapping)",
        "numberOfBytes": "32",
        "value": "t_struct(Mapping)22184_storage"
      },
      "t_mapping(t_address,t_struct(State)8882_storage)": {
        "encoding": "mapping",
        "key": "t_address",
        "label": "mapping(address => struct BalanceDrip.State)",
        "numberOfBytes": "32",
        "value": "t_struct(State)8882_storage"
      },
      "t_mapping(t_address,t_struct(State)9154_storage)": {
        "encoding": "mapping",
        "key": "t_address",
        "label": "mapping(address => struct BalanceDripManager.State)",
        "numberOfBytes": "32",
        "value": "t_struct(State)9154_storage"
      },
      "t_mapping(t_address,t_struct(State)9444_storage)": {
        "encoding": "mapping",
        "key": "t_address",
        "label": "mapping(address => struct VolumeDrip.State)",
        "numberOfBytes": "32",
        "value": "t_struct(State)9444_storage"
      },
      "t_mapping(t_address,t_struct(State)9964_storage)": {
        "encoding": "mapping",
        "key": "t_address",
        "label": "mapping(address => struct VolumeDripManager.State)",
        "numberOfBytes": "32",
        "value": "t_struct(State)9964_storage"
      },
      "t_mapping(t_address,t_struct(UserState)8869_storage)": {
        "encoding": "mapping",
        "key": "t_address",
        "label": "mapping(address => struct BalanceDrip.UserState)",
        "numberOfBytes": "32",
        "value": "t_struct(UserState)8869_storage"
      },
      "t_mapping(t_address,t_uint256)": {
        "encoding": "mapping",
        "key": "t_address",
        "label": "mapping(address => uint256)",
        "numberOfBytes": "32",
        "value": "t_uint256"
      },
      "t_mapping(t_uint32,t_struct(Period)9425_storage)": {
        "encoding": "mapping",
        "key": "t_uint32",
        "label": "mapping(uint32 => struct VolumeDrip.Period)",
        "numberOfBytes": "32",
        "value": "t_struct(Period)9425_storage"
      },
      "t_struct(Deposit)9418_storage": {
        "encoding": "inplace",
        "label": "struct VolumeDrip.Deposit",
        "members": [
          {
            "astId": 9415,
            "contract": "contracts/comptroller/Comptroller.sol:Comptroller",
            "label": "balance",
            "offset": 0,
            "slot": "0",
            "type": "t_uint112"
          },
          {
            "astId": 9417,
            "contract": "contracts/comptroller/Comptroller.sol:Comptroller",
            "label": "period",
            "offset": 14,
            "slot": "0",
            "type": "t_uint32"
          }
        ],
        "numberOfBytes": "32"
      },
      "t_struct(Mapping)22184_storage": {
        "encoding": "inplace",
        "label": "struct MappedSinglyLinkedList.Mapping",
        "members": [
          {
            "astId": 22179,
            "contract": "contracts/comptroller/Comptroller.sol:Comptroller",
            "label": "count",
            "offset": 0,
            "slot": "0",
            "type": "t_uint256"
          },
          {
            "astId": 22183,
            "contract": "contracts/comptroller/Comptroller.sol:Comptroller",
            "label": "addressMap",
            "offset": 0,
            "slot": "1",
            "type": "t_mapping(t_address,t_address)"
          }
        ],
        "numberOfBytes": "64"
      },
      "t_struct(Period)9425_storage": {
        "encoding": "inplace",
        "label": "struct VolumeDrip.Period",
        "members": [
          {
            "astId": 9420,
            "contract": "contracts/comptroller/Comptroller.sol:Comptroller",
            "label": "totalSupply",
            "offset": 0,
            "slot": "0",
            "type": "t_uint112"
          },
          {
            "astId": 9422,
            "contract": "contracts/comptroller/Comptroller.sol:Comptroller",
            "label": "dripAmount",
            "offset": 14,
            "slot": "0",
            "type": "t_uint112"
          },
          {
            "astId": 9424,
            "contract": "contracts/comptroller/Comptroller.sol:Comptroller",
            "label": "endTime",
            "offset": 28,
            "slot": "0",
            "type": "t_uint32"
          }
        ],
        "numberOfBytes": "32"
      },
      "t_struct(State)8882_storage": {
        "encoding": "inplace",
        "label": "struct BalanceDrip.State",
        "members": [
          {
            "astId": 8871,
            "contract": "contracts/comptroller/Comptroller.sol:Comptroller",
            "label": "dripRatePerSecond",
            "offset": 0,
            "slot": "0",
            "type": "t_uint256"
          },
          {
            "astId": 8873,
            "contract": "contracts/comptroller/Comptroller.sol:Comptroller",
            "label": "exchangeRateMantissa",
            "offset": 0,
            "slot": "1",
            "type": "t_uint112"
          },
          {
            "astId": 8875,
            "contract": "contracts/comptroller/Comptroller.sol:Comptroller",
            "label": "totalDripped",
            "offset": 14,
            "slot": "1",
            "type": "t_uint112"
          },
          {
            "astId": 8877,
            "contract": "contracts/comptroller/Comptroller.sol:Comptroller",
            "label": "timestamp",
            "offset": 28,
            "slot": "1",
            "type": "t_uint32"
          },
          {
            "astId": 8881,
            "contract": "contracts/comptroller/Comptroller.sol:Comptroller",
            "label": "userStates",
            "offset": 0,
            "slot": "2",
            "type": "t_mapping(t_address,t_struct(UserState)8869_storage)"
          }
        ],
        "numberOfBytes": "96"
      },
      "t_struct(State)9154_storage": {
        "encoding": "inplace",
        "label": "struct BalanceDripManager.State",
        "members": [
          {
            "astId": 9147,
            "contract": "contracts/comptroller/Comptroller.sol:Comptroller",
            "label": "activeBalanceDrips",
            "offset": 0,
            "slot": "0",
            "type": "t_mapping(t_address,t_struct(Mapping)22184_storage)"
          },
          {
            "astId": 9153,
            "contract": "contracts/comptroller/Comptroller.sol:Comptroller",
            "label": "balanceDrips",
            "offset": 0,
            "slot": "1",
            "type": "t_mapping(t_address,t_mapping(t_address,t_struct(State)8882_storage))"
          }
        ],
        "numberOfBytes": "64"
      },
      "t_struct(State)9444_storage": {
        "encoding": "inplace",
        "label": "struct VolumeDrip.State",
        "members": [
          {
            "astId": 9429,
            "contract": "contracts/comptroller/Comptroller.sol:Comptroller",
            "label": "deposits",
            "offset": 0,
            "slot": "0",
            "type": "t_mapping(t_address,t_struct(Deposit)9418_storage)"
          },
          {
            "astId": 9433,
            "contract": "contracts/comptroller/Comptroller.sol:Comptroller",
            "label": "periods",
            "offset": 0,
            "slot": "1",
            "type": "t_mapping(t_uint32,t_struct(Period)9425_storage)"
          },
          {
            "astId": 9435,
            "contract": "contracts/comptroller/Comptroller.sol:Comptroller",
            "label": "nextPeriodSeconds",
            "offset": 0,
            "slot": "2",
            "type": "t_uint32"
          },
          {
            "astId": 9437,
            "contract": "contracts/comptroller/Comptroller.sol:Comptroller",
            "label": "nextDripAmount",
            "offset": 4,
            "slot": "2",
            "type": "t_uint112"
          },
          {
            "astId": 9439,
            "contract": "contracts/comptroller/Comptroller.sol:Comptroller",
            "label": "__gap",
            "offset": 18,
            "slot": "2",
            "type": "t_uint112"
          },
          {
            "astId": 9441,
            "contract": "contracts/comptroller/Comptroller.sol:Comptroller",
            "label": "totalDripped",
            "offset": 0,
            "slot": "3",
            "type": "t_uint112"
          },
          {
            "astId": 9443,
            "contract": "contracts/comptroller/Comptroller.sol:Comptroller",
            "label": "periodCount",
            "offset": 14,
            "slot": "3",
            "type": "t_uint32"
          }
        ],
        "numberOfBytes": "128"
      },
      "t_struct(State)9964_storage": {
        "encoding": "inplace",
        "label": "struct VolumeDripManager.State",
        "members": [
          {
            "astId": 9957,
            "contract": "contracts/comptroller/Comptroller.sol:Comptroller",
            "label": "activeVolumeDrips",
            "offset": 0,
            "slot": "0",
            "type": "t_mapping(t_address,t_struct(Mapping)22184_storage)"
          },
          {
            "astId": 9963,
            "contract": "contracts/comptroller/Comptroller.sol:Comptroller",
            "label": "volumeDrips",
            "offset": 0,
            "slot": "1",
            "type": "t_mapping(t_address,t_mapping(t_address,t_struct(State)9444_storage))"
          }
        ],
        "numberOfBytes": "64"
      },
      "t_struct(UserState)8869_storage": {
        "encoding": "inplace",
        "label": "struct BalanceDrip.UserState",
        "members": [
          {
            "astId": 8868,
            "contract": "contracts/comptroller/Comptroller.sol:Comptroller",
            "label": "lastExchangeRateMantissa",
            "offset": 0,
            "slot": "0",
            "type": "t_uint128"
          }
        ],
        "numberOfBytes": "32"
      },
      "t_uint112": {
        "encoding": "inplace",
        "label": "uint112",
        "numberOfBytes": "14"
      },
      "t_uint128": {
        "encoding": "inplace",
        "label": "uint128",
        "numberOfBytes": "16"
      },
      "t_uint256": {
        "encoding": "inplace",
        "label": "uint256",
        "numberOfBytes": "32"
      },
      "t_uint32": {
        "encoding": "inplace",
        "label": "uint32",
        "numberOfBytes": "4"
      }
    }
  }
}