{
  "abi": [
    {
      "inputs": [
        {
          "internalType": "contract ComptrollerInterface",
          "name": "_comptroller",
          "type": "address"
        },
        {
          "internalType": "contract PrizeStrategyProxyFactory",
          "name": "_prizeStrategyProxyFactory",
          "type": "address"
        },
        {
          "internalType": "address",
          "name": "_trustedForwarder",
          "type": "address"
        },
        {
          "internalType": "contract CompoundPrizePoolProxyFactory",
          "name": "_compoundPrizePoolProxyFactory",
          "type": "address"
        },
        {
          "internalType": "contract ControlledTokenProxyFactory",
          "name": "_controlledTokenProxyFactory",
          "type": "address"
        },
        {
          "internalType": "contract OpenZeppelinProxyFactoryInterface",
          "name": "_proxyFactory",
          "type": "address"
        }
      ],
      "stateMutability": "nonpayable",
      "type": "constructor"
    },
    {
      "anonymous": false,
      "inputs": [
        {
          "indexed": true,
          "internalType": "address",
          "name": "creator",
          "type": "address"
        },
        {
          "indexed": true,
          "internalType": "address",
          "name": "prizePool",
          "type": "address"
        },
        {
          "indexed": true,
          "internalType": "address",
          "name": "prizeStrategy",
          "type": "address"
        }
      ],
      "name": "CompoundPrizePoolCreated",
      "type": "event"
    },
    {
      "inputs": [],
      "name": "compoundPrizePoolProxyFactory",
      "outputs": [
        {
          "internalType": "contract CompoundPrizePoolProxyFactory",
          "name": "",
          "type": "address"
        }
      ],
      "stateMutability": "view",
      "type": "function"
    },
    {
      "inputs": [],
      "name": "comptroller",
      "outputs": [
        {
          "internalType": "contract ComptrollerInterface",
          "name": "",
          "type": "address"
        }
      ],
      "stateMutability": "view",
      "type": "function"
    },
    {
      "inputs": [],
      "name": "controlledTokenProxyFactory",
      "outputs": [
        {
          "internalType": "contract ControlledTokenProxyFactory",
          "name": "",
          "type": "address"
        }
      ],
      "stateMutability": "view",
      "type": "function"
    },
    {
      "inputs": [
        {
          "components": [
            {
              "internalType": "address",
              "name": "proxyAdmin",
              "type": "address"
            },
            {
              "internalType": "contract CTokenInterface",
              "name": "cToken",
              "type": "address"
            },
            {
              "internalType": "contract RNGInterface",
              "name": "rngService",
              "type": "address"
            },
            {
              "internalType": "uint256",
              "name": "prizePeriodStart",
              "type": "uint256"
            },
            {
              "internalType": "uint256",
              "name": "prizePeriodSeconds",
              "type": "uint256"
            },
            {
              "internalType": "string",
              "name": "ticketName",
              "type": "string"
            },
            {
              "internalType": "string",
              "name": "ticketSymbol",
              "type": "string"
            },
            {
              "internalType": "string",
              "name": "sponsorshipName",
              "type": "string"
            },
            {
              "internalType": "string",
              "name": "sponsorshipSymbol",
              "type": "string"
            },
            {
              "internalType": "uint256",
              "name": "maxExitFeeMantissa",
              "type": "uint256"
            },
            {
              "internalType": "uint256",
              "name": "maxTimelockDuration",
              "type": "uint256"
            },
            {
              "internalType": "uint256",
              "name": "exitFeeMantissa",
              "type": "uint256"
            },
            {
              "internalType": "uint256",
              "name": "creditRateMantissa",
              "type": "uint256"
            },
            {
              "internalType": "address[]",
              "name": "externalERC20Awards",
              "type": "address[]"
            }
          ],
          "internalType": "struct CompoundPrizePoolBuilder.Config",
          "name": "config",
          "type": "tuple"
        }
      ],
      "name": "create",
      "outputs": [
        {
          "internalType": "contract PrizeStrategy",
          "name": "",
          "type": "address"
        }
      ],
      "stateMutability": "nonpayable",
      "type": "function"
    },
    {
      "inputs": [],
      "name": "prizeStrategyProxyFactory",
      "outputs": [
        {
          "internalType": "contract PrizeStrategyProxyFactory",
          "name": "",
          "type": "address"
        }
      ],
      "stateMutability": "view",
      "type": "function"
    },
    {
      "inputs": [],
      "name": "proxyFactory",
      "outputs": [
        {
          "internalType": "contract OpenZeppelinProxyFactoryInterface",
          "name": "",
          "type": "address"
        }
      ],
      "stateMutability": "view",
      "type": "function"
    },
    {
      "inputs": [],
      "name": "trustedForwarder",
      "outputs": [
        {
          "internalType": "address",
          "name": "",
          "type": "address"
        }
      ],
      "stateMutability": "view",
      "type": "function"
    }
  ],
  "address": "0x4E7649204C49cB214E5A884B60Ac017D6660D828",
  "args": [
    "0x7C286b25072C46d3027B8a4Feef773EFe80E5Cb4",
    "0x8Df950Df255cD95A9FB9c205Aa262e9d28208BCf",
    "0x6453D37248Ab2C16eBd1A8f782a2CBC65860E60B",
    "0xF92865217B9aBBd65e623f7EC748857418B6Ea30",
    "0xF88Bf2F904dd880eA569a67c9887583eA276D312",
    "0xa364de253770A4a92C6108c33A94446dB2e33d50"
  ],
  "solcInputHash": "0x26e26c3e1f5e2abb158915f796ee2f4b5db82cc8779a654accb44342706ca281",
  "bytecode": "0x60806040523480156200001157600080fd5b50604051620010d3380380620010d383398101604081905262000034916200017a565b6001600160a01b038616620000665760405162461bcd60e51b81526004016200005d9062000316565b60405180910390fd5b6001600160a01b0385166200008f5760405162461bcd60e51b81526004016200005d906200020d565b6001600160a01b038316620000b85760405162461bcd60e51b81526004016200005d90620002b9565b6001600160a01b038216620000e15760405162461bcd60e51b81526004016200005d9062000363565b6001600160a01b0381166200010a5760405162461bcd60e51b81526004016200005d906200026a565b600480546001600160a01b03199081166001600160a01b0393841617909155600080548216978316979097179096556003805487169582169590951790945560058054861693851693909317909255600180548516918416919091179055600280549093169116179055620003da565b60008060008060008060c0878903121562000193578182fd5b8651620001a081620003c1565b6020880151909650620001b381620003c1565b6040880151909550620001c681620003c1565b6060880151909450620001d981620003c1565b6080880151909350620001ec81620003c1565b60a0880151909250620001ff81620003c1565b809150509295509295509295565b60208082526038908201527f436f6d706f756e645072697a65506f6f6c4275696c6465722f7072697a652d7360408201527f747261746567792d666163746f72792d6e6f742d7a65726f0000000000000000606082015260800190565b6020808252602f908201527f436f6d706f756e645072697a65506f6f6c4275696c6465722f70726f78792d6660408201526e6163746f72792d6e6f742d7a65726f60881b606082015260800190565b6020808252603d908201527f436f6d706f756e645072697a65506f6f6c4275696c6465722f636f6d706f756e60408201527f642d7072697a652d706f6f6c2d6275696c6465722d6e6f742d7a65726f000000606082015260800190565b6020808252602d908201527f436f6d706f756e645072697a65506f6f6c4275696c6465722f636f6d7074726f60408201526c6c6c65722d6e6f742d7a65726f60981b606082015260800190565b602080825260409082018190527f436f6d706f756e645072697a65506f6f6c4275696c6465722f636f6e74726f6c908201527f6c65642d746f6b656e2d70726f78792d666163746f72792d6e6f742d7a65726f606082015260800190565b6001600160a01b0381168114620003d757600080fd5b50565b610ce980620003ea6000396000f3fe608060405234801561001057600080fd5b506004361061007d5760003560e01c806375b81dc11161005b57806375b81dc1146100bb5780637da0a877146100c3578063802125f5146100cb578063c10f1a75146100d35761007d565b80630b615161146100825780635fe3b567146100ab5780636a81d8bd146100b3575b600080fd5b6100956100903660046109b0565b6100db565b6040516100a29190610a4e565b60405180910390f35b61009561065c565b61009561066b565b61009561067a565b610095610689565b610095610698565b6100956106a7565b600080806100ec6020850185610971565b6001600160a01b03161461020457600480546003546040805163022ec09560e01b815290516001600160a01b0393841694636150864c944294169263022ec0959281830192602092829003018186803b15801561014857600080fd5b505afa15801561015c573d6000803e3d6000fd5b505050506040513d601f19601f820116820180604052508101906101809190610994565b61018d6020880188610971565b6040518463ffffffff1660e01b81526004016101ab93929190610bd4565b602060405180830381600087803b1580156101c557600080fd5b505af11580156101d9573d6000803e3d6000fd5b505050506040513d601f19601f820116820180604052508101906101fd9190610994565b905061028f565b600360009054906101000a90046001600160a01b03166001600160a01b031663efc81a8c6040518163ffffffff1660e01b8152600401602060405180830381600087803b15801561025457600080fd5b505af1158015610268573d6000803e3d6000fd5b505050506040513d601f19601f8201168201806040525081019061028c9190610994565b90505b600060606103c0836102a76040880160208901610971565b6102b460a0890189610c54565b8080601f0160208091040260200160405190810160405280939291908181526020018383808284376000920191909152506102f69250505060c08a018a610c54565b8080601f0160208091040260200160405190810160405280939291908181526020018383808284376000920191909152506103389250505060e08b018b610c54565b8080601f01602080910402602001604051908101604052809392919081815260200183838082843760009201919091525061037b925050506101008c018c610c54565b8080601f0160208091040260200160405190810160405280939291908181526020018383808284376000920191909152505050506101208c01356101408d01356106b6565b60405163f2fde38b60e01b815291935091506001600160a01b0383169063f2fde38b906103f1903390600401610a4e565b600060405180830381600087803b15801561040b57600080fd5b505af115801561041f573d6000803e3d6000fd5b50506005546000805485516001600160a01b03898116965063f2a7713b9550938416939091169160608b01359160808c013591899189919061045d57fe5b60200260200101518860018151811061047257fe5b60200260200101518d604001602081019061048d9190610971565b8e806101a0019061049e9190610c02565b6040518b63ffffffff1660e01b81526004016104c39a99989796959493929190610a62565b600060405180830381600087803b1580156104dd57600080fd5b505af11580156104f1573d6000803e3d6000fd5b50506040516330192d0760e21b81526001600160a01b038616925063c064b41c91506105269061016089013590600401610bcb565b600060405180830381600087803b15801561054057600080fd5b505af1158015610554573d6000803e3d6000fd5b505060405163091bfa8960e11b81526001600160a01b0386169250631237f51291506105899061018089013590600401610bcb565b600060405180830381600087803b1580156105a357600080fd5b505af11580156105b7573d6000803e3d6000fd5b505060405163f2fde38b60e01b81526001600160a01b038616925063f2fde38b91506105e7903390600401610a4e565b600060405180830381600087803b15801561060157600080fd5b505af1158015610615573d6000803e3d6000fd5b50506040516001600160a01b0380871693508516915033907f737c46586c5966bdf5ba716d982ae751f84213774e836279195a754fdb8abf1690600090a450909392505050565b6000546001600160a01b031681565b6002546001600160a01b031681565b6003546001600160a01b031681565b6005546001600160a01b031681565b6001546001600160a01b031681565b6004546001600160a01b031681565b60006060600160009054906101000a90046001600160a01b03166001600160a01b031663efc81a8c6040518163ffffffff1660e01b8152600401602060405180830381600087803b15801561070a57600080fd5b505af115801561071e573d6000803e3d6000fd5b505050506040513d601f19601f820116820180604052508101906107429190610994565b604080516002808252606082018352929450919060208301908036833701905050905061077082898961085f565b8160008151811061077d57fe5b60200260200101906001600160a01b031690816001600160a01b0316815250506107a882878761085f565b816001815181106107b557fe5b60200260200101906001600160a01b031690816001600160a01b031681525050816001600160a01b031663986b6aaf600560009054906101000a90046001600160a01b03168c8488888f6040518763ffffffff1660e01b815260040161082096959493929190610b0a565b600060405180830381600087803b15801561083a57600080fd5b505af115801561084e573d6000803e3d6000fd5b505050509850989650505050505050565b600080600260009054906101000a90046001600160a01b03166001600160a01b031663efc81a8c6040518163ffffffff1660e01b8152600401602060405180830381600087803b1580156108b257600080fd5b505af11580156108c6573d6000803e3d6000fd5b505050506040513d601f19601f820116820180604052508101906108ea9190610994565b6005546040516323c56d0560e21b81529192506001600160a01b0380841692638f15b414926109259289928992909116908b90600401610b81565b600060405180830381600087803b15801561093f57600080fd5b505af1158015610953573d6000803e3d6000fd5b5092979650505050505050565b803561096b81610c9b565b92915050565b600060208284031215610982578081fd5b813561098d81610c9b565b9392505050565b6000602082840312156109a5578081fd5b815161098d81610c9b565b6000602082840312156109c1578081fd5b813567ffffffffffffffff8111156109d7578182fd5b8083016101c081860312156109ea578283fd5b949350505050565b6001600160a01b0316815260200190565b60008151808452815b81811015610a2857602081850181015186830182015201610a0c565b81811115610a395782602083870101525b50601f01601f19169290920160200192915050565b6001600160a01b0391909116815260200190565b600061012080830160018060a01b03808f1685526020818f16818701528d60408701528c6060870152818c166080870152818b1660a0870152818a1660c087015281891660e087015283610100870152829350610abf8784610bcb565b93508792508491505b86821015610af657808301610ae685610ae18387610960565b6109f2565b9450925060019190910190610ac8565b50919e9d5050505050505050505050505050565b600060c0820160018060a01b03808a1684526020818a168186015260c0604086015282895180855260e087019150828b019450855b81811015610b5d578551851683529483019491830191600101610b3f565b505060608601989098525060808401959095525050911660a0909101529392505050565b600060808252610b946080830187610a03565b8281036020840152610ba68187610a03565b6001600160a01b03958616604085015293909416606090920191909152509392505050565b90815260200190565b9283526001600160a01b03918216602084015216604082015260806060820181905260009082015260a00190565b6000808335601e19843603018112610c18578283fd5b8084018035925067ffffffffffffffff831115610c33578384fd5b6020810193505050602081023603821315610c4d57600080fd5b9250929050565b6000808335601e19843603018112610c6a578283fd5b8084018035925067ffffffffffffffff831115610c85578384fd5b60200192505036819003821315610c4d57600080fd5b6001600160a01b0381168114610cb057600080fd5b5056fea26469706673582212209ed4e53cd2a25973c3dc73a0c6b08f42115d2840114787fccf1af3bc35230e0164736f6c63430006040033",
  "devdoc": {
    "methods": {}
  },
  "userdoc": {
    "methods": {}
  },
  "storageLayout": {
    "storage": [
      {
        "astId": 5445,
        "contract": "contracts/builders/CompoundPrizePoolBuilder.sol:CompoundPrizePoolBuilder",
        "label": "comptroller",
        "offset": 0,
        "slot": "0",
        "type": "t_contract(ComptrollerInterface)6934"
      },
      {
        "astId": 5447,
        "contract": "contracts/builders/CompoundPrizePoolBuilder.sol:CompoundPrizePoolBuilder",
        "label": "compoundPrizePoolProxyFactory",
        "offset": 0,
        "slot": "1",
        "type": "t_contract(CompoundPrizePoolProxyFactory)10284"
      },
      {
        "astId": 5449,
        "contract": "contracts/builders/CompoundPrizePoolBuilder.sol:CompoundPrizePoolBuilder",
        "label": "controlledTokenProxyFactory",
        "offset": 0,
        "slot": "2",
        "type": "t_contract(ControlledTokenProxyFactory)14647"
      },
      {
        "astId": 5451,
        "contract": "contracts/builders/CompoundPrizePoolBuilder.sol:CompoundPrizePoolBuilder",
        "label": "prizeStrategyProxyFactory",
        "offset": 0,
        "slot": "3",
        "type": "t_contract(PrizeStrategyProxyFactory)12734"
      },
      {
        "astId": 5453,
        "contract": "contracts/builders/CompoundPrizePoolBuilder.sol:CompoundPrizePoolBuilder",
        "label": "proxyFactory",
        "offset": 0,
        "slot": "4",
        "type": "t_contract(OpenZeppelinProxyFactoryInterface)8478"
      },
      {
        "astId": 5455,
        "contract": "contracts/builders/CompoundPrizePoolBuilder.sol:CompoundPrizePoolBuilder",
        "label": "trustedForwarder",
        "offset": 0,
        "slot": "5",
        "type": "t_address"
      }
    ],
    "types": {
      "t_address": {
        "encoding": "inplace",
        "label": "address",
        "numberOfBytes": "20"
      },
      "t_contract(CompoundPrizePoolProxyFactory)10284": {
        "encoding": "inplace",
        "label": "contract CompoundPrizePoolProxyFactory",
        "numberOfBytes": "20"
      },
      "t_contract(ComptrollerInterface)6934": {
        "encoding": "inplace",
        "label": "contract ComptrollerInterface",
        "numberOfBytes": "20"
      },
      "t_contract(ControlledTokenProxyFactory)14647": {
        "encoding": "inplace",
        "label": "contract ControlledTokenProxyFactory",
        "numberOfBytes": "20"
      },
      "t_contract(OpenZeppelinProxyFactoryInterface)8478": {
        "encoding": "inplace",
        "label": "contract OpenZeppelinProxyFactoryInterface",
        "numberOfBytes": "20"
      },
      "t_contract(PrizeStrategyProxyFactory)12734": {
        "encoding": "inplace",
        "label": "contract PrizeStrategyProxyFactory",
        "numberOfBytes": "20"
      }
    }
  },
  "gasEstimates": {
    "creation": {
      "codeDepositCost": "661000",
      "executionCost": "infinite",
      "totalCost": "infinite"
    },
    "external": {
      "compoundPrizePoolProxyFactory()": "1114",
      "comptroller()": "1093",
      "controlledTokenProxyFactory()": "1115",
      "create((address,address,address,uint256,uint256,string,string,string,string,uint256,uint256,uint256,uint256,address[]))": "infinite",
      "prizeStrategyProxyFactory()": "1070",
      "proxyFactory()": "1136",
      "trustedForwarder()": "1092"
    },
    "internal": {
      "createControlledToken(contract TokenControllerInterface,string memory,string memory)": "infinite",
      "createPrizePoolAndTokens(contract PrizeStrategy,contract CTokenInterface,string memory,string memory,string memory,string memory,uint256,uint256)": "infinite"
    }
  }
}