{
  "abi": [
    {
      "inputs": [],
      "stateMutability": "nonpayable",
      "type": "constructor"
    },
    {
      "anonymous": false,
      "inputs": [
        {
          "indexed": true,
          "internalType": "address",
          "name": "source",
          "type": "address"
        },
        {
          "indexed": true,
          "internalType": "address",
          "name": "measure",
          "type": "address"
        },
        {
          "indexed": true,
          "internalType": "address",
          "name": "dripToken",
          "type": "address"
        },
        {
          "indexed": false,
          "internalType": "uint256",
          "name": "dripRatePerSecond",
          "type": "uint256"
        }
      ],
      "name": "BalanceDripActivated",
      "type": "event"
    },
    {
      "anonymous": false,
      "inputs": [
        {
          "indexed": true,
          "internalType": "address",
          "name": "source",
          "type": "address"
        },
        {
          "indexed": true,
          "internalType": "address",
          "name": "measure",
          "type": "address"
        },
        {
          "indexed": true,
          "internalType": "address",
          "name": "dripToken",
          "type": "address"
        }
      ],
      "name": "BalanceDripDeactivated",
      "type": "event"
    },
    {
      "anonymous": false,
      "inputs": [
        {
          "indexed": true,
          "internalType": "address",
          "name": "source",
          "type": "address"
        },
        {
          "indexed": true,
          "internalType": "address",
          "name": "measure",
          "type": "address"
        },
        {
          "indexed": true,
          "internalType": "address",
          "name": "dripToken",
          "type": "address"
        },
        {
          "indexed": false,
          "internalType": "address",
          "name": "user",
          "type": "address"
        },
        {
          "indexed": false,
          "internalType": "uint256",
          "name": "amount",
          "type": "uint256"
        }
      ],
      "name": "BalanceDripDripped",
      "type": "event"
    },
    {
      "anonymous": false,
      "inputs": [
        {
          "indexed": true,
          "internalType": "address",
          "name": "source",
          "type": "address"
        },
        {
          "indexed": true,
          "internalType": "address",
          "name": "measure",
          "type": "address"
        },
        {
          "indexed": true,
          "internalType": "address",
          "name": "dripToken",
          "type": "address"
        },
        {
          "indexed": false,
          "internalType": "uint256",
          "name": "dripRatePerSecond",
          "type": "uint256"
        }
      ],
      "name": "BalanceDripRateSet",
      "type": "event"
    },
    {
      "anonymous": false,
      "inputs": [
        {
          "indexed": true,
          "internalType": "address",
          "name": "operator",
          "type": "address"
        },
        {
          "indexed": true,
          "internalType": "address",
          "name": "dripToken",
          "type": "address"
        },
        {
          "indexed": true,
          "internalType": "address",
          "name": "user",
          "type": "address"
        },
        {
          "indexed": false,
          "internalType": "uint256",
          "name": "amount",
          "type": "uint256"
        }
      ],
      "name": "DripTokenClaimed",
      "type": "event"
    },
    {
      "anonymous": false,
      "inputs": [
        {
          "indexed": true,
          "internalType": "address",
          "name": "dripToken",
          "type": "address"
        },
        {
          "indexed": true,
          "internalType": "address",
          "name": "user",
          "type": "address"
        },
        {
          "indexed": false,
          "internalType": "uint256",
          "name": "amount",
          "type": "uint256"
        }
      ],
      "name": "DripTokenDripped",
      "type": "event"
    },
    {
      "anonymous": false,
      "inputs": [
        {
          "indexed": true,
          "internalType": "address",
          "name": "previousOwner",
          "type": "address"
        },
        {
          "indexed": true,
          "internalType": "address",
          "name": "newOwner",
          "type": "address"
        }
      ],
      "name": "OwnershipTransferred",
      "type": "event"
    },
    {
      "anonymous": false,
      "inputs": [
        {
          "indexed": true,
          "internalType": "address",
          "name": "source",
          "type": "address"
        },
        {
          "indexed": true,
          "internalType": "address",
          "name": "measure",
          "type": "address"
        },
        {
          "indexed": true,
          "internalType": "address",
          "name": "dripToken",
          "type": "address"
        },
        {
          "indexed": false,
          "internalType": "bool",
          "name": "isReferral",
          "type": "bool"
        },
        {
          "indexed": false,
          "internalType": "uint256",
          "name": "periodSeconds",
          "type": "uint256"
        },
        {
          "indexed": false,
          "internalType": "uint256",
          "name": "dripAmount",
          "type": "uint256"
        }
      ],
      "name": "VolumeDripActivated",
      "type": "event"
    },
    {
      "anonymous": false,
      "inputs": [
        {
          "indexed": true,
          "internalType": "address",
          "name": "source",
          "type": "address"
        },
        {
          "indexed": true,
          "internalType": "address",
          "name": "measure",
          "type": "address"
        },
        {
          "indexed": true,
          "internalType": "address",
          "name": "dripToken",
          "type": "address"
        },
        {
          "indexed": false,
          "internalType": "bool",
          "name": "isReferral",
          "type": "bool"
        }
      ],
      "name": "VolumeDripDeactivated",
      "type": "event"
    },
    {
      "anonymous": false,
      "inputs": [
        {
          "indexed": true,
          "internalType": "address",
          "name": "source",
          "type": "address"
        },
        {
          "indexed": true,
          "internalType": "address",
          "name": "measure",
          "type": "address"
        },
        {
          "indexed": true,
          "internalType": "address",
          "name": "dripToken",
          "type": "address"
        },
        {
          "indexed": false,
          "internalType": "bool",
          "name": "isReferral",
          "type": "bool"
        },
        {
          "indexed": false,
          "internalType": "address",
          "name": "user",
          "type": "address"
        },
        {
          "indexed": false,
          "internalType": "uint256",
          "name": "amount",
          "type": "uint256"
        }
      ],
      "name": "VolumeDripDripped",
      "type": "event"
    },
    {
      "anonymous": false,
      "inputs": [
        {
          "indexed": true,
          "internalType": "address",
          "name": "source",
          "type": "address"
        },
        {
          "indexed": true,
          "internalType": "address",
          "name": "measure",
          "type": "address"
        },
        {
          "indexed": true,
          "internalType": "address",
          "name": "dripToken",
          "type": "address"
        },
        {
          "indexed": false,
          "internalType": "bool",
          "name": "isReferral",
          "type": "bool"
        },
        {
          "indexed": false,
          "internalType": "uint32",
          "name": "period",
          "type": "uint32"
        },
        {
          "indexed": false,
          "internalType": "uint256",
          "name": "totalSupply",
          "type": "uint256"
        }
      ],
      "name": "VolumeDripPeriodEnded",
      "type": "event"
    },
    {
      "anonymous": false,
      "inputs": [
        {
          "indexed": true,
          "internalType": "address",
          "name": "source",
          "type": "address"
        },
        {
          "indexed": true,
          "internalType": "address",
          "name": "measure",
          "type": "address"
        },
        {
          "indexed": true,
          "internalType": "address",
          "name": "dripToken",
          "type": "address"
        },
        {
          "indexed": false,
          "internalType": "bool",
          "name": "isReferral",
          "type": "bool"
        },
        {
          "indexed": false,
          "internalType": "uint32",
          "name": "period",
          "type": "uint32"
        },
        {
          "indexed": false,
          "internalType": "uint256",
          "name": "dripAmount",
          "type": "uint256"
        },
        {
          "indexed": false,
          "internalType": "uint256",
          "name": "endTime",
          "type": "uint256"
        }
      ],
      "name": "VolumeDripPeriodStarted",
      "type": "event"
    },
    {
      "anonymous": false,
      "inputs": [
        {
          "indexed": true,
          "internalType": "address",
          "name": "source",
          "type": "address"
        },
        {
          "indexed": true,
          "internalType": "address",
          "name": "measure",
          "type": "address"
        },
        {
          "indexed": true,
          "internalType": "address",
          "name": "dripToken",
          "type": "address"
        },
        {
          "indexed": false,
          "internalType": "bool",
          "name": "isReferral",
          "type": "bool"
        },
        {
          "indexed": false,
          "internalType": "uint256",
          "name": "periodSeconds",
          "type": "uint256"
        },
        {
          "indexed": false,
          "internalType": "uint256",
          "name": "dripAmount",
          "type": "uint256"
        }
      ],
      "name": "VolumeDripSet",
      "type": "event"
    },
    {
      "inputs": [
        {
          "internalType": "address",
          "name": "source",
          "type": "address"
        },
        {
          "internalType": "address",
          "name": "measure",
          "type": "address"
        },
        {
          "internalType": "address",
          "name": "dripToken",
          "type": "address"
        },
        {
          "internalType": "uint256",
          "name": "dripRatePerSecond",
          "type": "uint256"
        }
      ],
      "name": "activateBalanceDrip",
      "outputs": [],
      "stateMutability": "nonpayable",
      "type": "function"
    },
    {
      "inputs": [
        {
          "internalType": "address",
          "name": "source",
          "type": "address"
        },
        {
          "internalType": "address",
          "name": "measure",
          "type": "address"
        },
        {
          "internalType": "address",
          "name": "dripToken",
          "type": "address"
        },
        {
          "internalType": "bool",
          "name": "isReferral",
          "type": "bool"
        },
        {
          "internalType": "uint32",
          "name": "periodSeconds",
          "type": "uint32"
        },
        {
          "internalType": "uint112",
          "name": "dripAmount",
          "type": "uint112"
        },
        {
          "internalType": "uint32",
          "name": "endTime",
          "type": "uint32"
        }
      ],
      "name": "activateVolumeDrip",
      "outputs": [],
      "stateMutability": "nonpayable",
      "type": "function"
    },
    {
      "inputs": [
        {
          "internalType": "address",
          "name": "dripToken",
          "type": "address"
        },
        {
          "internalType": "address",
          "name": "user",
          "type": "address"
        }
      ],
      "name": "balanceOfDrip",
      "outputs": [
        {
          "internalType": "uint256",
          "name": "",
          "type": "uint256"
        }
      ],
      "stateMutability": "view",
      "type": "function"
    },
    {
      "inputs": [
        {
          "internalType": "address",
          "name": "to",
          "type": "address"
        },
        {
          "internalType": "uint256",
          "name": "amount",
          "type": "uint256"
        },
        {
          "internalType": "address",
          "name": "measure",
          "type": "address"
        },
        {
          "internalType": "address",
          "name": "referrer",
          "type": "address"
        }
      ],
      "name": "beforeTokenMint",
      "outputs": [],
      "stateMutability": "nonpayable",
      "type": "function"
    },
    {
      "inputs": [
        {
          "internalType": "address",
          "name": "from",
          "type": "address"
        },
        {
          "internalType": "address",
          "name": "to",
          "type": "address"
        },
        {
          "internalType": "uint256",
          "name": "amount",
          "type": "uint256"
        },
        {
          "internalType": "address",
          "name": "measure",
          "type": "address"
        }
      ],
      "name": "beforeTokenTransfer",
      "outputs": [],
      "stateMutability": "nonpayable",
      "type": "function"
    },
    {
      "inputs": [
        {
          "internalType": "address",
          "name": "user",
          "type": "address"
        },
        {
          "internalType": "address",
          "name": "dripToken",
          "type": "address"
        },
        {
          "internalType": "uint256",
          "name": "amount",
          "type": "uint256"
        }
      ],
      "name": "claimDrip",
      "outputs": [],
      "stateMutability": "nonpayable",
      "type": "function"
    },
    {
      "inputs": [
        {
          "internalType": "address",
          "name": "source",
          "type": "address"
        },
        {
          "internalType": "address",
          "name": "measure",
          "type": "address"
        },
        {
          "internalType": "address",
          "name": "dripToken",
          "type": "address"
        },
        {
          "internalType": "address",
          "name": "prevDripToken",
          "type": "address"
        }
      ],
      "name": "deactivateBalanceDrip",
      "outputs": [],
      "stateMutability": "nonpayable",
      "type": "function"
    },
    {
      "inputs": [
        {
          "internalType": "address",
          "name": "source",
          "type": "address"
        },
        {
          "internalType": "address",
          "name": "measure",
          "type": "address"
        },
        {
          "internalType": "address",
          "name": "dripToken",
          "type": "address"
        },
        {
          "internalType": "bool",
          "name": "isReferral",
          "type": "bool"
        },
        {
          "internalType": "address",
          "name": "prevDripToken",
          "type": "address"
        }
      ],
      "name": "deactivateVolumeDrip",
      "outputs": [],
      "stateMutability": "nonpayable",
      "type": "function"
    },
    {
      "inputs": [
        {
          "internalType": "address",
          "name": "source",
          "type": "address"
        },
        {
          "internalType": "address",
          "name": "measure",
          "type": "address"
        },
        {
          "internalType": "address",
          "name": "dripToken",
          "type": "address"
        }
      ],
      "name": "getBalanceDrip",
      "outputs": [
        {
          "internalType": "uint256",
          "name": "dripRatePerSecond",
          "type": "uint256"
        },
        {
          "internalType": "uint128",
          "name": "exchangeRateMantissa",
          "type": "uint128"
        },
        {
          "internalType": "uint32",
          "name": "timestamp",
          "type": "uint32"
        }
      ],
      "stateMutability": "view",
      "type": "function"
    },
    {
      "inputs": [
        {
          "internalType": "address",
          "name": "source",
          "type": "address"
        },
        {
          "internalType": "address",
          "name": "measure",
          "type": "address"
        },
        {
          "internalType": "address",
          "name": "dripToken",
          "type": "address"
        },
        {
          "internalType": "bool",
          "name": "isReferral",
          "type": "bool"
        }
      ],
      "name": "getVolumeDrip",
      "outputs": [
        {
          "internalType": "uint256",
          "name": "periodSeconds",
          "type": "uint256"
        },
        {
          "internalType": "uint256",
          "name": "dripAmount",
          "type": "uint256"
        },
        {
          "internalType": "uint256",
          "name": "periodCount",
          "type": "uint256"
        }
      ],
      "stateMutability": "view",
      "type": "function"
    },
    {
      "inputs": [
        {
          "internalType": "address",
          "name": "source",
          "type": "address"
        },
        {
          "internalType": "address",
          "name": "measure",
          "type": "address"
        },
        {
          "internalType": "address",
          "name": "dripToken",
          "type": "address"
        },
        {
          "internalType": "bool",
          "name": "isReferral",
          "type": "bool"
        },
        {
          "internalType": "uint16",
          "name": "period",
          "type": "uint16"
        }
      ],
      "name": "getVolumeDripPeriod",
      "outputs": [
        {
          "internalType": "uint112",
          "name": "totalSupply",
          "type": "uint112"
        },
        {
          "internalType": "uint112",
          "name": "dripAmount",
          "type": "uint112"
        },
        {
          "internalType": "uint32",
          "name": "endTime",
          "type": "uint32"
        }
      ],
      "stateMutability": "view",
      "type": "function"
    },
    {
      "inputs": [
        {
          "internalType": "address",
          "name": "source",
          "type": "address"
        },
        {
          "internalType": "address",
          "name": "measure",
          "type": "address"
        },
        {
          "internalType": "address",
          "name": "dripToken",
          "type": "address"
        },
        {
          "internalType": "bool",
          "name": "isReferral",
          "type": "bool"
        }
      ],
      "name": "isVolumeDripActive",
      "outputs": [
        {
          "internalType": "bool",
          "name": "",
          "type": "bool"
        }
      ],
      "stateMutability": "view",
      "type": "function"
    },
    {
      "inputs": [],
      "name": "owner",
      "outputs": [
        {
          "internalType": "address",
          "name": "",
          "type": "address"
        }
      ],
      "stateMutability": "view",
      "type": "function"
    },
    {
      "inputs": [],
      "name": "renounceOwnership",
      "outputs": [],
      "stateMutability": "nonpayable",
      "type": "function"
    },
    {
      "inputs": [
        {
          "internalType": "address",
          "name": "source",
          "type": "address"
        },
        {
          "internalType": "address",
          "name": "measure",
          "type": "address"
        },
        {
          "internalType": "address",
          "name": "dripToken",
          "type": "address"
        },
        {
          "internalType": "uint256",
          "name": "dripRatePerSecond",
          "type": "uint256"
        }
      ],
      "name": "setBalanceDripRate",
      "outputs": [],
      "stateMutability": "nonpayable",
      "type": "function"
    },
    {
      "inputs": [
        {
          "internalType": "address",
          "name": "source",
          "type": "address"
        },
        {
          "internalType": "address",
          "name": "measure",
          "type": "address"
        },
        {
          "internalType": "address",
          "name": "dripToken",
          "type": "address"
        },
        {
          "internalType": "bool",
          "name": "isReferral",
          "type": "bool"
        },
        {
          "internalType": "uint32",
          "name": "periodSeconds",
          "type": "uint32"
        },
        {
          "internalType": "uint112",
          "name": "dripAmount",
          "type": "uint112"
        }
      ],
      "name": "setVolumeDrip",
      "outputs": [],
      "stateMutability": "nonpayable",
      "type": "function"
    },
    {
      "inputs": [
        {
          "internalType": "address",
          "name": "newOwner",
          "type": "address"
        }
      ],
      "name": "transferOwnership",
      "outputs": [],
      "stateMutability": "nonpayable",
      "type": "function"
    },
    {
      "inputs": [
        {
          "components": [
            {
              "internalType": "address",
              "name": "source",
              "type": "address"
            },
            {
              "internalType": "address",
              "name": "measure",
              "type": "address"
            }
          ],
          "internalType": "struct Comptroller.UpdatePair[]",
          "name": "pairs",
          "type": "tuple[]"
        },
        {
          "internalType": "address",
          "name": "user",
          "type": "address"
        },
        {
          "internalType": "address[]",
          "name": "dripTokens",
          "type": "address[]"
        }
      ],
      "name": "updateAndClaimDrips",
      "outputs": [],
      "stateMutability": "nonpayable",
      "type": "function"
    },
    {
      "inputs": [
        {
          "components": [
            {
              "internalType": "address",
              "name": "source",
              "type": "address"
            },
            {
              "internalType": "address",
              "name": "measure",
              "type": "address"
            }
          ],
          "internalType": "struct Comptroller.UpdatePair[]",
          "name": "pairs",
          "type": "tuple[]"
        },
        {
          "internalType": "address",
          "name": "user",
          "type": "address"
        },
        {
          "internalType": "address[]",
          "name": "dripTokens",
          "type": "address[]"
        }
      ],
      "name": "updateDrips",
      "outputs": [
        {
          "components": [
            {
              "internalType": "address",
              "name": "dripToken",
              "type": "address"
            },
            {
              "internalType": "uint256",
              "name": "balance",
              "type": "uint256"
            }
          ],
          "internalType": "struct Comptroller.DripTokenBalance[]",
          "name": "",
          "type": "tuple[]"
        }
      ],
      "stateMutability": "nonpayable",
      "type": "function"
    }
  ],
  "address": "0x8E5579c916D95713F339Fedec273088a143d4cC3",
  "args": [],
  "solcInputHash": "0x6340fcbeed079e284d2e5b37851e01c54c9ce216cfbfb71550fcb3294424f434",
  "bytecode": "0x60806040523480156200001157600080fd5b506200001c62000022565b62000292565b600054610100900460ff16806200003e57506200003e620000cb565b806200004d575060005460ff16155b620000755760405162461bcd60e51b81526004016200006c9062000244565b60405180910390fd5b600054610100900460ff16158015620000a1576000805460ff1961ff0019909116610100171660011790555b620000ab620000d1565b620000b56200015b565b8015620000c8576000805461ff00191690555b50565b303b1590565b600054610100900460ff1680620000ed5750620000ed620000cb565b80620000fc575060005460ff16155b6200011b5760405162461bcd60e51b81526004016200006c9062000244565b600054610100900460ff16158015620000b5576000805460ff1961ff0019909116610100171660011790558015620000c8576000805461ff001916905550565b600054610100900460ff168062000177575062000177620000cb565b8062000186575060005460ff16155b620001a55760405162461bcd60e51b81526004016200006c9062000244565b600054610100900460ff16158015620001d1576000805460ff1961ff0019909116610100171660011790555b6000620001dd62000240565b606580546001600160a01b0319166001600160a01b038316908117909155604051919250906000907f8be0079c531659141344cd1fd0a4f28419497f9722a3daafe3b4186f6b6457e0908290a3508015620000c8576000805461ff001916905550565b3390565b6020808252602e908201527f436f6e747261637420696e7374616e63652068617320616c726561647920626560408201526d195b881a5b9a5d1a585b1a5e995960921b606082015260800190565b613f0180620002a26000396000f3fe608060405234801561001057600080fd5b50600436106101215760003560e01c806384f8f31c116100ad578063ce73046111610071578063ce7304611461026c578063d7840aad1461027f578063e2937c771461029f578063e72edc28146102b2578063f2fde38b146102d257610121565b806384f8f31c146101fc5780638da5cb5b1461020f5780639aebef2314610224578063b221095714610246578063c35185df1461025957610121565b8063503bd480116100f4578063503bd480146101995780635d68ae22146101ac5780635e19bad5146101bf578063626e76b4146101d2578063715018a6146101f457610121565b806334de6d19146101265780633a6c8a2c1461013b57806343fcacd0146101645780634d7f3db014610186575b600080fd5b610139610134366004613503565b6102e5565b005b61014e610149366004613695565b61046f565b60405161015b919061380d565b60405180910390f35b610177610172366004613314565b610760565b60405161015b93929190613ddf565b61013961019436600461358a565b61089a565b6101396101a73660046134b3565b610a32565b6101396101ba3660046134b3565b610aeb565b6101396101cd3660046131fb565b610b9f565b6101e56101e0366004613252565b610be6565b60405161015b93929190613e36565b610139610d55565b61013961020a366004613413565b610dd4565b610217610f25565b60405161015b91906137be565b6102376102323660046131b6565b610f34565b60405161015b93929190613e11565b610139610254366004613543565b610f8b565b610139610267366004613387565b61118d565b61013961027a3660046135bf565b611278565b61029261028d366004613252565b611359565b60405161015b9190613865565b6101396102ad3660046132aa565b6113b6565b6102c56102c0366004613182565b6113ff565b60405161015b9190613e08565b6101396102e0366004613167565b61142c565b60006102ef6114e3565b6001600160a01b0384166000908152609a602052604090205490915061031590836114e7565b6001600160a01b038085166000908152609a6020908152604080832094909455609b8152838220928816825291909152205461035190836114e7565b6001600160a01b038085166000818152609b60209081526040808320948a168352939052829020929092555163a9059cbb60e01b815263a9059cbb9061039d90879086906004016137f4565b602060405180830381600087803b1580156103b757600080fd5b505af11580156103cb573d6000803e3d6000fd5b505050506040513d601f19601f820116820180604052508101906103ef919061376f565b6104145760405162461bcd60e51b815260040161040b90613b2d565b60405180910390fd5b836001600160a01b0316836001600160a01b0316826001600160a01b03167f76db671dc988a5ba4764a06da6bfc2a6a8df0d7d373cc205a687084b4a8492f0856040516104619190613e08565b60405180910390a450505050565b6060600061047b611530565b905060005b855181101561064357610491613032565b86828151811061049d57fe5b602002602001015190506105d96099600083600001516001600160a01b03166001600160a01b03168152602001908152602001600020826000015183602001518985602001516001600160a01b03166370a082318c6040518263ffffffff1660e01b815260040161050e91906137be565b60206040518083038186803b15801561052657600080fd5b505afa15801561053a573d6000803e3d6000fd5b505050506040513d601f19601f8201168201806040525081019061055e91906137a6565b86602001516001600160a01b03166318160ddd6040518163ffffffff1660e01b815260040160206040518083038186803b15801561059b57600080fd5b505afa1580156105af573d6000803e3d6000fd5b505050506040513d601f19601f820116820180604052508101906105d391906137a6565b89611534565b80516001600160a01b031660009081526097602090815260408220835191840151610609939192918a908061162c565b80516001600160a01b03166000908152609860209081526040822083519184015161063a939192918a90600161162c565b50600101610480565b6060845167ffffffffffffffff8111801561065d57600080fd5b5060405190808252806020026020018201604052801561069757816020015b610684613032565b81526020019060019003908161067c5790505b509050600091505b84518210156107565760405180604001604052808684815181106106bf57fe5b60200260200101516001600160a01b03168152602001609b60008886815181106106e557fe5b60200260200101516001600160a01b03166001600160a01b031681526020019081526020016000206000896001600160a01b03166001600160a01b031681526020019081526020016000205481525081838151811061074057fe5b602090810291909101015260019091019061069f565b9695505050505050565b600080600061076d613049565b85156107fa57506001600160a01b0380891660009081526098602090815260408083208b8516845260019081018352818420948b16845293825280832061ffff89168452909301815290829020825160608101845290546001600160701b038082168352600160701b82041692820192909252600160e01b90910463ffffffff169181019190915261087d565b506001600160a01b0380891660009081526097602090815260408083208b8516845260019081018352818420948b16845293825280832061ffff89168452909301815290829020825160608101845290546001600160701b038082168352600160701b82041692820192909252600160e01b90910463ffffffff16918101919091525b80516020820151604090920151909a919950975095505050505050565b60006108a46114e3565b90506000836001600160a01b03166370a08231876040518263ffffffff1660e01b81526004016108d491906137be565b60206040518083038186803b1580156108ec57600080fd5b505afa158015610900573d6000803e3d6000fd5b505050506040513d601f19601f8201168201806040525081019061092491906137a6565b90506000846001600160a01b03166318160ddd6040518163ffffffff1660e01b815260040160206040518083038186803b15801561096157600080fd5b505afa158015610975573d6000803e3d6000fd5b505050506040513d601f19601f8201168201806040525081019061099991906137a6565b6001600160a01b03841660009081526099602052604090209091506109ca9084878a86866109c5611530565b611534565b6001600160a01b03831660009081526097602052604081206109f391859088908b908b9061162c565b6001600160a01b03841615610a29576001600160a01b0383166000908152609860205260409020610a29908487878a600161162c565b50505050505050565b610a3a6114e3565b6065546001600160a01b03908116911614610a675760405162461bcd60e51b815260040161040b90613c60565b610a9e838383610a7d610a78611530565b611726565b6001600160a01b03891660009081526099602052604090209392919061174f565b816001600160a01b0316836001600160a01b0316856001600160a01b03167f1198b38b5e10d4b1e4cd2866dd9bc4e71e32c649b6ff51addd64e01fb6a6d5ad846040516104619190613e08565b610af36114e3565b6065546001600160a01b03908116911614610b205760405162461bcd60e51b815260040161040b90613c60565b610b52838383610b31610a78611530565b6001600160a01b038916600090815260996020526040902093929190611830565b816001600160a01b0316836001600160a01b0316856001600160a01b03167f4cf47603ce110cd8061678afe77c525be4ca073f4640f629292afcef7be49259846040516104619190613e08565b610ba76114e3565b6065546001600160a01b03908116911614610bd45760405162461bcd60e51b815260040161040b90613c60565b610be0848484846118ff565b50505050565b6000806000610bf3613069565b8415610c9257506001600160a01b0380881660009081526098602090815260408083208a851684526001018252808320938916835292815290829020825160a081018452600282015463ffffffff80821683526001600160701b03600160201b8304811695840195909552600160901b9091048416948201949094526003909101549182166060820152600160701b9091049091166080820152610d27565b506001600160a01b0380881660009081526097602090815260408083208a851684526001018252808320938916835292815290829020825160a081018452600282015463ffffffff80821683526001600160701b03600160201b8304811695840195909552600160901b9091048416948201949094526003909101549182166060820152600160701b90910490911660808201525b8051602082015160809092015163ffffffff9182169a6001600160701b039093169950169650945050505050565b610d5d6114e3565b6065546001600160a01b03908116911614610d8a5760405162461bcd60e51b815260040161040b90613c60565b6065546040516000916001600160a01b0316907f8be0079c531659141344cd1fd0a4f28419497f9722a3daafe3b4186f6b6457e0908390a3606580546001600160a01b0319169055565b610ddc6114e3565b6065546001600160a01b03908116911614610e095760405162461bcd60e51b815260040161040b90613c60565b60008415610e3e576001600160a01b0388166000908152609860205260409020610e37908888878787611981565b9050610e67565b6001600160a01b0388166000908152609760205260409020610e64908888878787611981565b90505b856001600160a01b0316876001600160a01b0316896001600160a01b03167f0ee63f5b7633ec1ad321f6f89b83ec0993c2cc680112d7b153759242a655ed43888888604051610eb8939291906138b6565b60405180910390a4856001600160a01b0316876001600160a01b0316896001600160a01b03167f5030027163f1655f8ac4c205c22bfe42c59f83e61a7c15da775499920b21431488858888604051610f1394939291906138dd565b60405180910390a45050505050505050565b6065546001600160a01b031690565b6001600160a01b0383166000908152609960205260408120819081908190610f5d908787611a94565b805460019091015490986001600160701b0382169850600160e01b90910463ffffffff169650945050505050565b6001600160a01b038416610f9e57610be0565b6000610fa86114e3565b90506000826001600160a01b03166318160ddd6040518163ffffffff1660e01b815260040160206040518083038186803b158015610fe557600080fd5b505afa158015610ff9573d6000803e3d6000fd5b505050506040513d601f19601f8201168201806040525081019061101d91906137a6565b90506000836001600160a01b03166370a08231886040518263ffffffff1660e01b815260040161104d91906137be565b60206040518083038186803b15801561106557600080fd5b505afa158015611079573d6000803e3d6000fd5b505050506040513d601f19601f8201168201806040525081019061109d91906137a6565b6001600160a01b03841660009081526099602052604090209091506110c99084868a85876109c5611530565b6001600160a01b03861615610a29576040516370a0823160e01b81526000906001600160a01b038616906370a0823190611107908a906004016137be565b60206040518083038186803b15801561111f57600080fd5b505afa158015611133573d6000803e3d6000fd5b505050506040513d601f19601f8201168201806040525081019061115791906137a6565b6001600160a01b03851660009081526099602052604090209091506111839085878a85886109c5611530565b5050505050505050565b6111956114e3565b6065546001600160a01b039081169116146111c25760405162461bcd60e51b815260040161040b90613c60565b82156111f2576001600160a01b03861660009081526098602052604090206111ed9086868585611ac0565b611217565b6001600160a01b03861660009081526097602052604090206112179086868585611ac0565b836001600160a01b0316856001600160a01b0316876001600160a01b03167f401facfe78ba5adec5aae1404afebf8e3a77cb5dfdf5b4b611504d626d9a2ed5868686604051611268939291906138b6565b60405180910390a4505050505050565b606061130a8686808060200260200160405190810160405280939291908181526020016000905b828210156112cb576112bc6040830286013681900381019061378b565b8152602001906001019061129f565b50505050508585858080602002602001604051908101604052809392919081815260200183836020028082843760009201919091525061046f92505050565b905060005b8151811015610a29576113518583838151811061132857fe5b60200260200101516000015184848151811061134057fe5b6020026020010151602001516102e5565b60010161130f565b6000811561138b576001600160a01b0385166000908152609860205260409020611384908585611b30565b90506113ae565b6001600160a01b0385166000908152609760205260409020611384908585611b30565b949350505050565b6113be6114e3565b6065546001600160a01b039081169116146113eb5760405162461bcd60e51b815260040161040b90613c60565b6113f88585858585611b52565b5050505050565b6001600160a01b038083166000908152609b60209081526040808320938516835292905220545b92915050565b6114346114e3565b6065546001600160a01b039081169116146114615760405162461bcd60e51b815260040161040b90613c60565b6001600160a01b0381166114875760405162461bcd60e51b815260040161040b90613a32565b6065546040516001600160a01b038084169216907f8be0079c531659141344cd1fd0a4f28419497f9722a3daafe3b4186f6b6457e090600090a3606580546001600160a01b0319166001600160a01b0392909216919091179055565b3390565b600061152983836040518060400160405280601e81526020017f536166654d6174683a207375627472616374696f6e206f766572666c6f770000815250611c01565b9392505050565b4290565b6001600160a01b038516600090815260208890526040812061155590611c2d565b6001600160a01b038716600090815260208a9052604081209192509061157a90611c33565b90505b6001600160a01b038116158015906115c757506001600160a01b038716600090815260208a9052604090206115b190611c2d565b6001600160a01b0316816001600160a01b031614155b156116215760006115de8a8a8a858b8b8b8b611c50565b905080156115f2576115f2898984866118ff565b6001600160a01b038816600090815260208b90526040902091925082916116199083611d56565b91505061157d565b505050505050505050565b6001600160a01b038416600090815260208790526040812061164d90611c2d565b90506000611659611530565b6001600160a01b038716600090815260208a9052604081209192509061167e90611c33565b90505b6001600160a01b038116158015906116cb57506001600160a01b038716600090815260208a9052604090206116b590611c2d565b6001600160a01b0316816001600160a01b031614155b156116215760006116e28a8a8a858b8b898c611d79565b905080156116f7576116f78989848888611b52565b6001600160a01b038816600090815260208b905260409020919350839161171e9083611d56565b915050611681565b6000600160201b821061174b5760405162461bcd60e51b815260040161040b90613d2b565b5090565b6001600160a01b0384166000908152602086905260409020611771908461202e565b61178d5760405162461bcd60e51b815260040161040b90613bdd565b6113f8846001600160a01b03166318160ddd6040518163ffffffff1660e01b815260040160206040518083038186803b1580156117c957600080fd5b505afa1580156117dd573d6000803e3d6000fd5b505050506040513d601f19601f8201168201806040525081019061180191906137a6565b6001600160a01b038087166000908152600189016020908152604080832093891683529290522090848461207f565b6001600160a01b0384166000908152602086905260409020611852908461202e565b1561186f5760405162461bcd60e51b815260040161040b9061395f565b6001600160a01b0384166000908152602086905260409020546118ad576001600160a01b03841660009081526020869052604090206118ad90612097565b6001600160a01b03841660009081526020869052604090206118cf90846120db565b6001600160a01b038085166000908152600187016020908152604080832093871683529290522061178d906121a3565b611931838383611910610a78611530565b6001600160a01b0389166000908152609960205260409020939291906121b9565b816001600160a01b0316836001600160a01b0316856001600160a01b03167fbbd41ee308597dd699317716979d8ce8edde7cdde9471c26bfab7752e1186c9460405160405180910390a450505050565b6001600160a01b03851660009081526020879052604081206119a3908661202e565b156119c05760405162461bcd60e51b815260040161040b90613da8565b6001600160a01b0386166000908152602088905260409020546119fe576001600160a01b03861660009081526020889052604090206119fe90612097565b6001600160a01b0386166000908152602088905260409020611a2090866120db565b6001600160a01b0380871660009081526001890160209081526040808320938916835292905220611a5390858585612281565b505050506001600160a01b0391821660009081526001939093016020908152604080852092909316845252902060030154600160701b900463ffffffff1690565b6001600160a01b0391821660009081526001939093016020908152604080852092909316845252902090565b6001600160a01b0384166000908152602086905260409020611ae2908461202e565b611afe5760405162461bcd60e51b815260040161040b90613b9c565b6001600160a01b03808516600090815260018701602090815260408083209387168352929052206113f89083836123c7565b6001600160a01b03821660009081526020849052604081206113ae908361202e565b8115611b81576001600160a01b0385166000908152609860205260409020611b7c90858584612435565b611ba5565b6001600160a01b0385166000908152609760205260409020611ba590858584612435565b826001600160a01b0316846001600160a01b0316866001600160a01b03167f9684c938581734d57a998217c38505f0c4fc95afd0af9da2c97b9822ee7a66c885604051611bf29190613865565b60405180910390a45050505050565b60008184841115611c255760405162461bcd60e51b815260040161040b919061390c565b505050900390565b50600190565b60016000818152910160205260409020546001600160a01b031690565b6001600160a01b03808716600081815260018b0160209081526040808320948a1683529381528382209282528b90529182208290611c8e908961202e565b905060008115611cac57611ca58389898989612458565b9050611cba565b611cb7838989612470565b90505b60006001600160801b03821615611d3957611cdf8a8a846001600160801b031661247d565b9050896001600160a01b03168b6001600160a01b03168d6001600160a01b03167f782be3085b3ef7b927740f3ed02f7393ee3f20b8fe87595484dbf65c5be4230d8c86604051611d309291906137d2565b60405180910390a45b6001600160801b0390911614159250505098975050505050505050565b6001600160a01b0380821660009081526001840160205260409020541692915050565b6001600160a01b03808716600090815260018a016020908152604080832093891683529290529081208180611db083898989612610565b909250905060008215611e2457611dc88a8a8561247d565b9050896001600160a01b03168b6001600160a01b03168d6001600160a01b03167f06c65e2aee0f9ad46bde72ca6800e5b29333356dc073eba0e3995ffc980148f7898d88604051611e1b93929190613870565b60405180910390a45b6001600160a01b038b16600090815260208e905260408120611e46908c61202e565b9050808015611e525750825b15612019576003850154600090611e8590611e809063ffffffff600160701b9091048116906001906114e716565b612845565b90508b6001600160a01b03168d6001600160a01b03168f6001600160a01b03167fa2ec807a0c220b85f5b188be41d7d35248cc5abe1a2fab6c33d31132cdd682c38b858b60010160008861ffff1663ffffffff16815260200190815260200160002060000160009054906101000a90046001600160701b0316604051611f0d93929190613891565b60405180910390a48b6001600160a01b03168d6001600160a01b03168f6001600160a01b03167f5030027163f1655f8ac4c205c22bfe42c59f83e61a7c15da775499920b2143148b8a600301600e9054906101000a900463ffffffff168b60010160008d600301600e9054906101000a900463ffffffff1663ffffffff1663ffffffff168152602001908152602001600020600001600e9054906101000a90046001600160701b03168c60010160008e600301600e9054906101000a900463ffffffff1663ffffffff1663ffffffff168152602001908152602001600020600001601c9054906101000a900463ffffffff1660405161200f94939291906138dd565b60405180910390a4505b50909114159250505098975050505050505050565b60006001600160a01b03821660011480159061205257506001600160a01b03821615155b80156115295750506001600160a01b03908116600090815260019290920160205260409091205416151590565b61209084848363ffffffff16612869565b5090915550565b8054156120b65760405162461bcd60e51b815260040161040b90613c95565b60016000818152918101602052604090912080546001600160a01b0319169091179055565b6001600160a01b0381166001148015906120fd57506001600160a01b03811615155b6121195760405162461bcd60e51b815260040161040b906139dc565b6001600160a01b03818116600090815260018401602052604090205416156121535760405162461bcd60e51b815260040161040b90613d04565b60016000818152838201602052604080822080546001600160a01b039586168085529284208054969091166001600160a01b03199687161790559183905281549093169092179091558154019055565b6001018054600160701b600160e01b0319169055565b6001600160a01b03841660009081526020869052604090206121dc9083856129fc565b6113f8846001600160a01b03166318160ddd6040518163ffffffff1660e01b815260040160206040518083038186803b15801561221857600080fd5b505afa15801561222c573d6000803e3d6000fd5b505050506040513d601f19601f8201168201806040525081019061225091906137a6565b6001600160a01b0380871660009081526001890160209081526040808320938916835292905290812091908461207f565b8263ffffffff16600081116122a85760405162461bcd60e51b815260040161040b90613a78565b60028501805463ffffffff191663ffffffff86811691909117640100000000600160901b031916600160201b6001600160701b03871602179091556003860180546001600160701b0319169081905561231291611e8091600160701b9004811690600190612ac616565b60038601805463ffffffff60701b191661ffff92909216600160701b90810292909217908190556040805160608101825260008082526001600160701b03978816602080840191825263ffffffff98891684860190815295879004891683526001909b01909a529190912090518154985192516001600160701b031990991690871617600160701b600160e01b03191691909516909102176001600160e01b0316600160e01b95909216949094021790555050565b8163ffffffff16600081116123ee5760405162461bcd60e51b815260040161040b90613a78565b50600290920180546001600160701b03909316600160201b02640100000000600160901b031963ffffffff90931663ffffffff199094169390931791909116919091179055565b6001600160a01b0383166000908152602085905260409020610be09082846129fc565b6000612465868484612869565b610756868686612aeb565b60006113ae848484612aeb565b600080846001600160a01b03166370a08231306040518263ffffffff1660e01b81526004016124ac91906137be565b60206040518083038186803b1580156124c457600080fd5b505afa1580156124d8573d6000803e3d6000fd5b505050506040513d601f19601f820116820180604052508101906124fc91906137a6565b6001600160a01b0386166000908152609a6020526040812054919250828210612526576000612530565b61253083836114e7565b90508085111561253e578094505b6001600160a01b0387166000908152609a60205260409020546125619086612ac6565b6001600160a01b038089166000908152609a6020908152604080832094909455609b8152838220928a16825291909152205461259d9086612ac6565b6001600160a01b038089166000818152609b60209081526040808320948c1680845294909152908190209390935591519091907f0f3ed8b918f23095606f705f6253b10267861573421cf05301b0f1f006c92b44906125fd908990613e08565b60405180910390a3509295945050505050565b600384015460009081908690600160701b900463ffffffff166126455760405162461bcd60e51b815260040161040b90613b6e565b61264f8785612bcb565b6001600160a01b03871660009081526020899052604090205490925061268d90889063ffffffff600160701b820416906001600160701b0316612bf7565b6003880154909350600160701b900463ffffffff1683156127285760405180604001604052806126bc88612c9b565b6001600160701b03908116825263ffffffff8085166020938401526001600160a01b038b1660009081528c845260409020845181549590940151909116600160701b0263ffffffff60701b19939092166001600160701b031990941693909317919091161790556127d0565b6040805180820182526001600160a01b038916600090815260208b90529190912054819061276890612763906001600160701b03168a612ac6565b612c9b565b6001600160701b03908116825263ffffffff8085166020938401526001600160a01b038b1660009081528c845260409020845181549590940151909116600160701b0263ffffffff60701b19939092166001600160701b031990941693909317919091161790555b63ffffffff808216600090815260018a01602052604090205461280391612763916001600160701b0316908990612ac616565b63ffffffff9091166000908152600189016020526040902080546001600160701b03929092166001600160701b03199092169190911790555094509492505050565b600062010000821061174b5760405162461bcd60e51b815260040161040b90613996565b600183015463ffffffff828116600160e01b90920416141561288a576129f7565b6001830154600090600160e01b900463ffffffff16156128bb576001840154600160e01b900463ffffffff166128bd565b815b905060006128cb83836114e7565b60018601549091506000906001600160701b0316156128f75760018601546001600160701b0316612908565b612908670de0b6b3a7640000612c9b565b90506000808311801561291b5750865415155b1561296557865461292d908490612cc0565b9050600080871161293f576000612949565b6129498288612cfa565b90506129616127636001600160701b03851683612ac6565b9250505b6001870180546001600160701b0319166001600160701b03848116919091179182905561299f9161276391600160701b9091041683612ac6565b87600101600e6101000a8154816001600160701b0302191690836001600160701b031602179055506129d085611726565b87600101601c6101000a81548163ffffffff021916908363ffffffff160217905550505050505b505050565b6001600160a01b038116600114801590612a1e57506001600160a01b03811615155b612a3a5760405162461bcd60e51b815260040161040b906139dc565b6001600160a01b038281166000908152600185016020526040902054811690821614612a785760405162461bcd60e51b815260040161040b90613a05565b6001600160a01b039081166000818152600185016020526040808220805495851683529082208054959094166001600160a01b03199586161790935552805490911690558054600019019055565b6000828201838110156115295760405162461bcd60e51b815260040161040b90613aaf565b6001600160a01b0382166000908152600284016020526040812080546001600160801b031680612b3257612b26670de0b6b3a7640000612c9b565b6001600160701b031690505b6001860154600090612b4d906001600160701b0316836114e7565b90506000612b63612b5e8784612d1b565b612d3c565b604080516020808201835260018c01546001600160701b031682526001600160a01b039a909a1660009081526002909b01909952909820965187546fffffffffffffffffffffffffffffffff19166001600160801b0390911617909655509495945050505050565b6000612bd78383612d61565b15612bee57612be68383612d97565b506001611426565b50600092915050565b6003830154600090819063ffffffff600160701b9091048116908516108015612c3f575063ffffffff841660009081526001860160205260409020546001600160701b031615155b156113ae5763ffffffff84166000908152600186016020526040812054612c79906001600160801b038616906001600160701b0316612cfa565b600287015490915061075690600160201b90046001600160701b031682612d1b565b6000600160701b821061174b5760405162461bcd60e51b815260040161040b90613cbb565b600082612ccf57506000611426565b82820282848281612cdc57fe5b04146115295760405162461bcd60e51b815260040161040b90613c1f565b600080612d0f84670de0b6b3a7640000612cc0565b90506113ae8184612fbe565b600080612d288385612cc0565b90506113ae81670de0b6b3a7640000612fbe565b6000600160801b821061174b5760405162461bcd60e51b815260040161040b90613ae6565b600382015463ffffffff600160701b90910481166000908152600184016020526040902054600160e01b90041681101592915050565b8181612da38282612d61565b612dbf5760405162461bcd60e51b815260040161040b90613d71565b600384015463ffffffff600160701b90910481166000908152600180870160205260408220546002880154600160e01b909104841693612e1c9291612e169190811690612e10908a9088906114e716565b90612fbe565b90612ac6565b6002870154909150600090612e4790612e4090849063ffffffff90811690612cc016565b8490612ac6565b600388015463ffffffff600160701b8083048216600090815260018c016020526040902054939450612e8f93612763936001600160701b0390811693929091041690612ac616565b6003880180546001600160701b0319166001600160701b03929092169190911790819055612ed490611e8090600160701b900463ffffffff90811690600190612ac616565b60038801805463ffffffff60701b191661ffff92909216600160701b02919091179055604080516060810182526000815260028901546001600160701b03600160201b909104166020820152908101612f2c83611726565b63ffffffff9081169091526003890154600160701b90819004821660009081526001909a01602090815260409a8b9020845181549286015195909c01516001600160701b03199092166001600160701b039c8d1617600160701b600160e01b0319169b909416909102999099176001600160e01b0316600160e01b999091169890980297909717909655505050505050565b600061152983836040518060400160405280601a81526020017f536166654d6174683a206469766973696f6e206279207a65726f0000000000008152506000818361301c5760405162461bcd60e51b815260040161040b919061390c565b50600083858161302857fe5b0495945050505050565b604080518082019091526000808252602082015290565b604080516060810182526000808252602082018190529181019190915290565b6040805160a08101825260008082526020820181905291810182905260608101829052608081019190915290565b80356001600160a01b038116811461142657600080fd5b600082601f8301126130be578081fd5b81356130d16130cc82613e73565b613e4c565b8181529150602080830190848101818402860182018710156130f257600080fd5b60005b84811015613119576131078883613097565b845292820192908201906001016130f5565b505050505092915050565b600060408284031215613135578081fd5b61313f6040613e4c565b9050813561314c81613e93565b8152602082013561315c81613e93565b602082015292915050565b600060208284031215613178578081fd5b6115298383613097565b60008060408385031215613194578081fd5b61319e8484613097565b91506131ad8460208501613097565b90509250929050565b6000806000606084860312156131ca578081fd5b6131d48585613097565b92506131e38560208601613097565b91506131f28560408601613097565b90509250925092565b60008060008060808587031215613210578081fd5b61321a8686613097565b93506132298660208701613097565b92506132388660408701613097565b91506132478660608701613097565b905092959194509250565b60008060008060808587031215613267578384fd5b6132718686613097565b93506132808660208701613097565b925061328f8660408701613097565b9150606085013561329f81613eab565b939692955090935050565b600080600080600060a086880312156132c1578081fd5b6132cb8787613097565b94506132da8760208801613097565b93506132e98760408801613097565b925060608601356132f981613eab565b91506133088760808801613097565b90509295509295909350565b600080600080600060a0868803121561332b578081fd5b6133358787613097565b94506133448760208801613097565b93506133538760408801613097565b9250606086013561336381613eab565b9150608086013561ffff81168114613379578182fd5b809150509295509295909350565b60008060008060008060c0878903121561339f578384fd5b86356133aa81613e93565b955060208701356133ba81613e93565b945060408701356133ca81613e93565b935060608701356133da81613eab565b925060808701356133ea81613eb9565b915060a08701356001600160701b0381168114613405578182fd5b809150509295509295509295565b600080600080600080600060e0888a03121561342d578485fd5b873561343881613e93565b9650602088013561344881613e93565b9550604088013561345881613e93565b9450606088013561346881613eab565b9350608088013561347881613eb9565b925060a08801356001600160701b0381168114613493578182fd5b915060c08801356134a381613eb9565b8091505092959891949750929550565b600080600080608085870312156134c8578182fd5b84356134d381613e93565b935060208501356134e381613e93565b925060408501356134f381613e93565b9396929550929360600135925050565b600080600060608486031215613517578081fd5b833561352281613e93565b9250602084013561353281613e93565b929592945050506040919091013590565b60008060008060808587031215613558578182fd5b843561356381613e93565b9350602085013561357381613e93565b925060408501359150606085013561329f81613e93565b6000806000806080858703121561359f578182fd5b6135a98686613097565b9350602085013592506132388660408701613097565b6000806000806000606086880312156135d6578283fd5b853567ffffffffffffffff808211156135ed578485fd5b818801915088601f830112613600578485fd5b81358181111561360e578586fd5b60208a81604084028601011115613623578687fd5b80840198508197506136378b828c01613097565b965060408a013593508284111561364c578485fd5b838a0193508a601f85011261365f578485fd5b833591508282111561366f578485fd5b8a818284028601011115613681578485fd5b979a96995094975050909401935090919050565b6000806000606084860312156136a9578081fd5b833567ffffffffffffffff808211156136c0578283fd5b818601915086601f8301126136d3578283fd5b81356136e16130cc82613e73565b808282526020808301925080860160408c838288028a01011115613703578889fd5b8897505b8588101561372f576137198d83613124565b8552600197909701969382019390810190613707565b839a5061373e8d848e01613097565b9950808c0135975050505050505080821115613758578283fd5b50613765868287016130ae565b9150509250925092565b600060208284031215613780578081fd5b815161152981613eab565b60006040828403121561379c578081fd5b6115298383613124565b6000602082840312156137b7578081fd5b5051919050565b6001600160a01b0391909116815260200190565b6001600160a01b039290921682526001600160801b0316602082015260400190565b6001600160a01b03929092168252602082015260400190565b602080825282518282018190526000919060409081850190868401855b8281101561385857815180516001600160a01b0316855286015186850152928401929085019060010161382a565b5091979650505050505050565b901515815260200190565b92151583526001600160a01b03919091166020830152604082015260600190565b921515835261ffff9190911660208301526001600160701b0316604082015260600190565b921515835263ffffffff9190911660208301526001600160701b0316604082015260600190565b931515845263ffffffff92831660208501526001600160701b0391909116604084015216606082015260800190565b6000602080835283518082850152825b818110156139385785810183015185820160400152820161391c565b818111156139495783604083870101525b50601f01601f1916929092016040019392505050565b6020808252601e908201527f42616c616e6365447269704d616e616765722f647269702d6163746976650000604082015260600190565b60208082526026908201527f53616665436173743a2076616c756520646f65736e27742066697420696e203160408201526536206269747360d01b606082015260800190565b6020808252600f908201526e496e76616c6964206164647265737360881b604082015260600190565b602080825260139082015272496e76616c696420707265764164647265737360681b604082015260600190565b60208082526026908201527f4f776e61626c653a206e6577206f776e657220697320746865207a65726f206160408201526564647265737360d01b606082015260800190565b60208082526019908201527f566f6c756d65447269702f706572696f642d67742d7a65726f00000000000000604082015260600190565b6020808252601b908201527f536166654d6174683a206164646974696f6e206f766572666c6f770000000000604082015260600190565b60208082526027908201527f53616665436173743a2076616c756520646f65736e27742066697420696e20316040820152663238206269747360c81b606082015260800190565b60208082526021908201527f436f6d7074726f6c6c65722f636c61696d2d7472616e736665722d6661696c656040820152601960fa1b606082015260800190565b602080825260149082015273159bdb1d5b59511c9a5c0bdb9bcb5c195c9a5bd960621b604082015260600190565b60208082526021908201527f566f6c756d65447269704d616e616765722f647269702d6e6f742d61637469766040820152606560f81b606082015260800190565b60208082526022908201527f42616c616e6365447269704d616e616765722f647269702d6e6f742d61637469604082015261766560f01b606082015260800190565b60208082526021908201527f536166654d6174683a206d756c7469706c69636174696f6e206f766572666c6f6040820152607760f81b606082015260800190565b6020808252818101527f4f776e61626c653a2063616c6c6572206973206e6f7420746865206f776e6572604082015260600190565b6020808252600c908201526b105b1c9958591e481a5b9a5d60a21b604082015260600190565b60208082526029908201527f53616665436173743a2076616c756520646f65736e27742066697420696e206160408201526837103ab4b73a18989960b91b606082015260800190565b6020808252600d908201526c105b1c9958591e481859191959609a1b604082015260600190565b60208082526026908201527f53616665436173743a2076616c756520646f65736e27742066697420696e203360408201526532206269747360d01b606082015260800190565b6020808252601a908201527f566f6c756d65447269702f706572696f642d6e6f742d6f766572000000000000604082015260600190565b6020808252601d908201527f566f6c756d65447269704d616e616765722f647269702d616374697665000000604082015260600190565b6001600160701b03938416815291909216602082015263ffffffff909116604082015260600190565b90815260200190565b9283526001600160801b0391909116602083015263ffffffff16604082015260600190565b9283526020830191909152604082015260600190565b60405181810167ffffffffffffffff81118282101715613e6b57600080fd5b604052919050565b600067ffffffffffffffff821115613e89578081fd5b5060209081020190565b6001600160a01b0381168114613ea857600080fd5b50565b8015158114613ea857600080fd5b63ffffffff81168114613ea857600080fdfea264697066735822122090404adc9f55962e3a443b23d281ed3cb93b14c112ad86a311da151c8aab540c64736f6c634300060c0033",
  "devdoc": {
    "kind": "dev",
    "methods": {
      "activateBalanceDrip(address,address,address,uint256)": {
        "params": {
          "dripRatePerSecond": "The amount of drip tokens that are awarded each second to the total supply of measure.",
          "dripToken": "The token that is dripped to users.",
          "measure": "The ERC20 token whose balances determines user's share of the drip rate.",
          "source": "The balance drip \"source\"; i.e. a Prize Pool address."
        }
      },
      "activateVolumeDrip(address,address,address,bool,uint32,uint112,uint32)": {
        "params": {
          "dripAmount": "The amount of dripTokens disbursed each period.",
          "dripToken": "The token that is being disbursed",
          "endTime": "The time at which the first period ends.",
          "isReferral": "Whether this volume drip is for referrals",
          "measure": "The Prize Pool controlled token whose volume should be measured",
          "periodSeconds": "The period of the volume drip, in seconds",
          "source": "The Prize Pool for which to bind to"
        }
      },
      "balanceOfDrip(address,address)": {
        "params": {
          "dripToken": "The token that is being disbursed",
          "user": "The user whose balance should be checked."
        },
        "returns": {
          "_0": "The claimable balance of the dripToken by the user."
        }
      },
      "beforeTokenMint(address,uint256,address,address)": {
        "params": {
          "amount": "The amount of tokens they are minting",
          "measure": "The measure token they are minting",
          "referrer": "The user who referred the minting.",
          "to": "The user who is minting the tokens"
        }
      },
      "beforeTokenTransfer(address,address,uint256,address)": {
        "params": {
          "from": "The user who is sending the tokens",
          "measure": "The measure token they are burning",
          "to": "The user who is receiving the tokens"
        }
      },
      "claimDrip(address,address,uint256)": {
        "params": {
          "amount": "The amount of drip token to claim",
          "dripToken": "The drip token to claim",
          "user": "The user for whom to claim the drip tokens"
        }
      },
      "deactivateBalanceDrip(address,address,address,address)": {
        "params": {
          "dripToken": "The token that is dripped to users.",
          "measure": "The ERC20 token whose balances determines user's share of the drip rate.",
          "prevDripToken": "The previous drip token in the balance drip list.  If the dripToken is the first address, then the previous address is the SENTINEL address: 0x0000000000000000000000000000000000000001",
          "source": "The balance drip \"source\"; i.e. a Prize Pool address."
        }
      },
      "deactivateVolumeDrip(address,address,address,bool,address)": {
        "params": {
          "dripToken": "The token that is being disbursed",
          "isReferral": "Whether this volume drip is for referrals",
          "measure": "The Prize Pool controlled token whose volume should be measured",
          "prevDripToken": "The previous drip token in the volume drip list.  Is different for referrals vs non-referral volume drips.",
          "source": "The Prize Pool for which to bind to"
        }
      },
      "getBalanceDrip(address,address,address)": {
        "params": {
          "dripToken": "The token that is being dripped to users",
          "measure": "The token that measure's a users share of the drip",
          "source": "The balance drip \"source\"; i.e. Prize Pool"
        },
        "returns": {
          "dripRatePerSecond": "The current drip rate of the balance drip.",
          "exchangeRateMantissa": "The current exchange rate from measure to dripTokens",
          "timestamp": "The timestamp at which the balance drip was last updated."
        }
      },
      "owner()": {
        "details": "Returns the address of the current owner."
      },
      "renounceOwnership()": {
        "details": "Leaves the contract without owner. It will not be possible to call `onlyOwner` functions anymore. Can only be called by the current owner. NOTE: Renouncing ownership will leave the contract without an owner, thereby removing any functionality that is only available to the owner."
      },
      "setBalanceDripRate(address,address,address,uint256)": {
        "params": {
          "dripRatePerSecond": "The new drip rate per second",
          "dripToken": "The token that is dripped to the user",
          "measure": "The token to use to measure a user's share of the drip rate",
          "source": "The balance drip \"source\"; i.e. Prize Pool"
        }
      },
      "setVolumeDrip(address,address,address,bool,uint32,uint112)": {
        "params": {
          "dripAmount": "The amount of tokens to drip for the next period",
          "dripToken": "The token that is being disbursed",
          "isReferral": "Whether this volume drip is a referral",
          "measure": "The token whose volume is being measured",
          "periodSeconds": "The length to use for the next period",
          "source": "The Prize Pool of the volume drip"
        }
      },
      "transferOwnership(address)": {
        "details": "Transfers ownership of the contract to a new account (`newOwner`). Can only be called by the current owner."
      },
      "updateAndClaimDrips((address,address)[],address,address[])": {
        "params": {
          "dripTokens": "The drip tokens whose entire balance will be claimed after the update.",
          "pairs": "The (source, measure) pairs of drips to update for the given user",
          "user": "The user for whom to update and claim tokens"
        }
      },
      "updateDrips((address,address)[],address,address[])": {
        "details": "This function will be useful to check the *current* claim balances for a user. Just need to run this as a constant function to see the latest balances. in order to claim the values, this function needs to be run alongside a claimDrip function.",
        "params": {
          "dripTokens": "The drip tokens to retrieve claim balances for.",
          "pairs": "The (source, measure) pairs to update.  For each pair all of the balance drips, volume drips, and referral volume drips will be updated.",
          "user": "The user whose drips and balances will be updated."
        },
        "returns": {
          "_0": "The claimable balance of each of the passed drip tokens for the user.  These are the post-update balances, and therefore the most accurate."
        }
      }
    },
    "title": "The Comptroller disburses rewards to pool users",
    "version": 1
  },
  "userdoc": {
    "events": {
      "BalanceDripActivated(address,address,address,uint256)": {
        "notice": "Emitted when a balance drip is actived"
      },
      "BalanceDripDeactivated(address,address,address)": {
        "notice": "Emitted when a balance drip is deactivated"
      },
      "BalanceDripDripped(address,address,address,address,uint256)": {
        "notice": "Emitted when a balance drip drips tokens"
      },
      "BalanceDripRateSet(address,address,address,uint256)": {
        "notice": "Emitted when a balance drip rate is updated"
      },
      "DripTokenClaimed(address,address,address,uint256)": {
        "notice": "Emitted when a user claims drip tokens"
      },
      "VolumeDripActivated(address,address,address,bool,uint256,uint256)": {
        "notice": "Emitted when a volume drip is activated"
      },
      "VolumeDripDeactivated(address,address,address,bool)": {
        "notice": "Emitted when a volume drip is deactivated."
      },
      "VolumeDripDripped(address,address,address,bool,address,uint256)": {
        "notice": "Emitted when a volue drip drips tokens"
      },
      "VolumeDripPeriodEnded(address,address,address,bool,uint32,uint256)": {
        "notice": "Emitted when a volume drip period has ended"
      },
      "VolumeDripPeriodStarted(address,address,address,bool,uint32,uint256,uint256)": {
        "notice": "Emitted when a new volume drip period has started"
      },
      "VolumeDripSet(address,address,address,bool,uint256,uint256)": {
        "notice": "Emitted when a volume drip is updated"
      }
    },
    "kind": "user",
    "methods": {
      "activateBalanceDrip(address,address,address,uint256)": {
        "notice": "Activates a balance drip.  Only callable by the owner."
      },
      "activateVolumeDrip(address,address,address,bool,uint32,uint112,uint32)": {
        "notice": "Activates a volume drip.  Volume drips distribute tokens to users based on their share of the activity within a period."
      },
      "balanceOfDrip(address,address)": {
        "notice": "Returns a users claimable balance of drip tokens.  This is the combination of all balance and volume drips."
      },
      "beforeTokenMint(address,uint256,address,address)": {
        "notice": "Called by a \"source\" (i.e. Prize Pool) when a user mints new \"measure\" tokens."
      },
      "beforeTokenTransfer(address,address,uint256,address)": {
        "notice": "Called by a \"source\" (i.e. Prize Pool) when tokens change hands or are burned"
      },
      "claimDrip(address,address,uint256)": {
        "notice": "Claims a drip token on behalf of a user.  If the passed amount is less than or equal to the users drip balance, then they will be transferred that amount.  Otherwise, it fails."
      },
      "constructor": "Initializes a new Comptroller.",
      "deactivateBalanceDrip(address,address,address,address)": {
        "notice": "Deactivates a balance drip.  Only callable by the owner."
      },
      "deactivateVolumeDrip(address,address,address,bool,address)": {
        "notice": "Deactivates a volume drip.  Volume drips distribute tokens to users based on their share of the activity within a period."
      },
      "getBalanceDrip(address,address,address)": {
        "notice": "Returns the state of a balance drip."
      },
      "setBalanceDripRate(address,address,address,uint256)": {
        "notice": "Sets the drip rate for a balance drip.  The drip rate is the number of drip tokens given to the entire supply of measure tokens.  Only callable by the owner."
      },
      "setVolumeDrip(address,address,address,bool,uint32,uint112)": {
        "notice": "Sets the parameters for the *next* volume drip period.  The source, measure, dripToken and isReferral combined are used to uniquely identify a volume drip.  Only callable by the owner."
      },
      "updateAndClaimDrips((address,address)[],address,address[])": {
        "notice": "Updates the given drips for a user and then claims the given drip tokens"
      },
      "updateDrips((address,address)[],address,address[])": {
        "notice": "Updates all drips. Drip may need to be \"poked\" from time-to-time if there is little transaction activity.  This call will poke all of the drips and update the claim balances for the given user."
      }
    },
    "version": 1
  },
  "storageLayout": {
    "storage": [
      {
        "astId": 678,
        "contract": "contracts/comptroller/Comptroller.sol:Comptroller",
        "label": "initialized",
        "offset": 0,
        "slot": "0",
        "type": "t_bool"
      },
      {
        "astId": 681,
        "contract": "contracts/comptroller/Comptroller.sol:Comptroller",
        "label": "initializing",
        "offset": 1,
        "slot": "0",
        "type": "t_bool"
      },
      {
        "astId": 746,
        "contract": "contracts/comptroller/Comptroller.sol:Comptroller",
        "label": "______gap",
        "offset": 0,
        "slot": "1",
        "type": "t_array(t_uint256)50_storage"
      },
      {
        "astId": 671,
        "contract": "contracts/comptroller/Comptroller.sol:Comptroller",
        "label": "__gap",
        "offset": 0,
        "slot": "51",
        "type": "t_array(t_uint256)50_storage"
      },
      {
        "astId": 758,
        "contract": "contracts/comptroller/Comptroller.sol:Comptroller",
        "label": "_owner",
        "offset": 0,
        "slot": "101",
        "type": "t_address"
      },
      {
        "astId": 876,
        "contract": "contracts/comptroller/Comptroller.sol:Comptroller",
        "label": "__gap",
        "offset": 0,
        "slot": "102",
        "type": "t_array(t_uint256)49_storage"
      },
      {
        "astId": 8269,
        "contract": "contracts/comptroller/Comptroller.sol:Comptroller",
        "label": "volumeDrips",
        "offset": 0,
        "slot": "151",
        "type": "t_mapping(t_address,t_struct(State)9623_storage)"
      },
      {
        "astId": 8273,
        "contract": "contracts/comptroller/Comptroller.sol:Comptroller",
        "label": "referralVolumeDrips",
        "offset": 0,
        "slot": "152",
        "type": "t_mapping(t_address,t_struct(State)9623_storage)"
      },
      {
        "astId": 8277,
        "contract": "contracts/comptroller/Comptroller.sol:Comptroller",
        "label": "balanceDrips",
        "offset": 0,
        "slot": "153",
        "type": "t_mapping(t_address,t_struct(State)8876_storage)"
      },
      {
        "astId": 8281,
        "contract": "contracts/comptroller/Comptroller.sol:Comptroller",
        "label": "dripTokenTotalSupply",
        "offset": 0,
        "slot": "154",
        "type": "t_mapping(t_address,t_uint256)"
      },
      {
        "astId": 8287,
        "contract": "contracts/comptroller/Comptroller.sol:Comptroller",
        "label": "dripTokenBalances",
        "offset": 0,
        "slot": "155",
        "type": "t_mapping(t_address,t_mapping(t_address,t_uint256))"
      }
    ],
    "types": {
      "t_address": {
        "encoding": "inplace",
        "label": "address",
        "numberOfBytes": "20"
      },
      "t_array(t_uint256)49_storage": {
        "base": "t_uint256",
        "encoding": "inplace",
        "label": "uint256[49]",
        "numberOfBytes": "1568"
      },
      "t_array(t_uint256)50_storage": {
        "base": "t_uint256",
        "encoding": "inplace",
        "label": "uint256[50]",
        "numberOfBytes": "1600"
      },
      "t_bool": {
        "encoding": "inplace",
        "label": "bool",
        "numberOfBytes": "1"
      },
      "t_mapping(t_address,t_address)": {
        "encoding": "mapping",
        "key": "t_address",
        "label": "mapping(address => address)",
        "numberOfBytes": "32",
        "value": "t_address"
      },
      "t_mapping(t_address,t_mapping(t_address,t_struct(State)8568_storage))": {
        "encoding": "mapping",
        "key": "t_address",
        "label": "mapping(address => mapping(address => struct BalanceDrip.State))",
        "numberOfBytes": "32",
        "value": "t_mapping(t_address,t_struct(State)8568_storage)"
      },
      "t_mapping(t_address,t_mapping(t_address,t_struct(State)9129_storage))": {
        "encoding": "mapping",
        "key": "t_address",
        "label": "mapping(address => mapping(address => struct VolumeDrip.State))",
        "numberOfBytes": "32",
        "value": "t_mapping(t_address,t_struct(State)9129_storage)"
      },
      "t_mapping(t_address,t_mapping(t_address,t_uint256))": {
        "encoding": "mapping",
        "key": "t_address",
        "label": "mapping(address => mapping(address => uint256))",
        "numberOfBytes": "32",
        "value": "t_mapping(t_address,t_uint256)"
      },
      "t_mapping(t_address,t_struct(Deposit)9103_storage)": {
        "encoding": "mapping",
        "key": "t_address",
        "label": "mapping(address => struct VolumeDrip.Deposit)",
        "numberOfBytes": "32",
        "value": "t_struct(Deposit)9103_storage"
      },
      "t_mapping(t_address,t_struct(Mapping)19431_storage)": {
        "encoding": "mapping",
        "key": "t_address",
        "label": "mapping(address => struct MappedSinglyLinkedList.Mapping)",
        "numberOfBytes": "32",
        "value": "t_struct(Mapping)19431_storage"
      },
      "t_mapping(t_address,t_struct(State)8568_storage)": {
        "encoding": "mapping",
        "key": "t_address",
        "label": "mapping(address => struct BalanceDrip.State)",
        "numberOfBytes": "32",
        "value": "t_struct(State)8568_storage"
      },
      "t_mapping(t_address,t_struct(State)8876_storage)": {
        "encoding": "mapping",
        "key": "t_address",
        "label": "mapping(address => struct BalanceDripManager.State)",
        "numberOfBytes": "32",
        "value": "t_struct(State)8876_storage"
      },
      "t_mapping(t_address,t_struct(State)9129_storage)": {
        "encoding": "mapping",
        "key": "t_address",
        "label": "mapping(address => struct VolumeDrip.State)",
        "numberOfBytes": "32",
        "value": "t_struct(State)9129_storage"
      },
      "t_mapping(t_address,t_struct(State)9623_storage)": {
        "encoding": "mapping",
        "key": "t_address",
        "label": "mapping(address => struct VolumeDripManager.State)",
        "numberOfBytes": "32",
        "value": "t_struct(State)9623_storage"
      },
      "t_mapping(t_address,t_struct(UserState)8555_storage)": {
        "encoding": "mapping",
        "key": "t_address",
        "label": "mapping(address => struct BalanceDrip.UserState)",
        "numberOfBytes": "32",
        "value": "t_struct(UserState)8555_storage"
      },
      "t_mapping(t_address,t_uint256)": {
        "encoding": "mapping",
        "key": "t_address",
        "label": "mapping(address => uint256)",
        "numberOfBytes": "32",
        "value": "t_uint256"
      },
      "t_mapping(t_uint32,t_struct(Period)9110_storage)": {
        "encoding": "mapping",
        "key": "t_uint32",
        "label": "mapping(uint32 => struct VolumeDrip.Period)",
        "numberOfBytes": "32",
        "value": "t_struct(Period)9110_storage"
      },
      "t_struct(Deposit)9103_storage": {
        "encoding": "inplace",
        "label": "struct VolumeDrip.Deposit",
        "members": [
          {
            "astId": 9100,
            "contract": "contracts/comptroller/Comptroller.sol:Comptroller",
            "label": "balance",
            "offset": 0,
            "slot": "0",
            "type": "t_uint112"
          },
          {
            "astId": 9102,
            "contract": "contracts/comptroller/Comptroller.sol:Comptroller",
            "label": "period",
            "offset": 14,
            "slot": "0",
            "type": "t_uint32"
          }
        ],
        "numberOfBytes": "32"
      },
      "t_struct(Mapping)19431_storage": {
        "encoding": "inplace",
        "label": "struct MappedSinglyLinkedList.Mapping",
        "members": [
          {
            "astId": 19426,
            "contract": "contracts/comptroller/Comptroller.sol:Comptroller",
            "label": "count",
            "offset": 0,
            "slot": "0",
            "type": "t_uint256"
          },
          {
            "astId": 19430,
            "contract": "contracts/comptroller/Comptroller.sol:Comptroller",
            "label": "addressMap",
            "offset": 0,
            "slot": "1",
            "type": "t_mapping(t_address,t_address)"
          }
        ],
        "numberOfBytes": "64"
      },
      "t_struct(Period)9110_storage": {
        "encoding": "inplace",
        "label": "struct VolumeDrip.Period",
        "members": [
          {
            "astId": 9105,
            "contract": "contracts/comptroller/Comptroller.sol:Comptroller",
            "label": "totalSupply",
            "offset": 0,
            "slot": "0",
            "type": "t_uint112"
          },
          {
            "astId": 9107,
            "contract": "contracts/comptroller/Comptroller.sol:Comptroller",
            "label": "dripAmount",
            "offset": 14,
            "slot": "0",
            "type": "t_uint112"
          },
          {
            "astId": 9109,
            "contract": "contracts/comptroller/Comptroller.sol:Comptroller",
            "label": "endTime",
            "offset": 28,
            "slot": "0",
            "type": "t_uint32"
          }
        ],
        "numberOfBytes": "32"
      },
      "t_struct(State)8568_storage": {
        "encoding": "inplace",
        "label": "struct BalanceDrip.State",
        "members": [
          {
            "astId": 8557,
            "contract": "contracts/comptroller/Comptroller.sol:Comptroller",
            "label": "dripRatePerSecond",
            "offset": 0,
            "slot": "0",
            "type": "t_uint256"
          },
          {
            "astId": 8559,
            "contract": "contracts/comptroller/Comptroller.sol:Comptroller",
            "label": "exchangeRateMantissa",
            "offset": 0,
            "slot": "1",
            "type": "t_uint112"
          },
          {
            "astId": 8561,
            "contract": "contracts/comptroller/Comptroller.sol:Comptroller",
            "label": "totalDripped",
            "offset": 14,
            "slot": "1",
            "type": "t_uint112"
          },
          {
            "astId": 8563,
            "contract": "contracts/comptroller/Comptroller.sol:Comptroller",
            "label": "timestamp",
            "offset": 28,
            "slot": "1",
            "type": "t_uint32"
          },
          {
            "astId": 8567,
            "contract": "contracts/comptroller/Comptroller.sol:Comptroller",
            "label": "userStates",
            "offset": 0,
            "slot": "2",
            "type": "t_mapping(t_address,t_struct(UserState)8555_storage)"
          }
        ],
        "numberOfBytes": "96"
      },
      "t_struct(State)8876_storage": {
        "encoding": "inplace",
        "label": "struct BalanceDripManager.State",
        "members": [
          {
            "astId": 8869,
            "contract": "contracts/comptroller/Comptroller.sol:Comptroller",
            "label": "activeBalanceDrips",
            "offset": 0,
            "slot": "0",
            "type": "t_mapping(t_address,t_struct(Mapping)19431_storage)"
          },
          {
            "astId": 8875,
            "contract": "contracts/comptroller/Comptroller.sol:Comptroller",
            "label": "balanceDrips",
            "offset": 0,
            "slot": "1",
            "type": "t_mapping(t_address,t_mapping(t_address,t_struct(State)8568_storage))"
          }
        ],
        "numberOfBytes": "64"
      },
      "t_struct(State)9129_storage": {
        "encoding": "inplace",
        "label": "struct VolumeDrip.State",
        "members": [
          {
            "astId": 9114,
            "contract": "contracts/comptroller/Comptroller.sol:Comptroller",
            "label": "deposits",
            "offset": 0,
            "slot": "0",
            "type": "t_mapping(t_address,t_struct(Deposit)9103_storage)"
          },
          {
            "astId": 9118,
            "contract": "contracts/comptroller/Comptroller.sol:Comptroller",
            "label": "periods",
            "offset": 0,
            "slot": "1",
            "type": "t_mapping(t_uint32,t_struct(Period)9110_storage)"
          },
          {
            "astId": 9120,
            "contract": "contracts/comptroller/Comptroller.sol:Comptroller",
            "label": "nextPeriodSeconds",
            "offset": 0,
            "slot": "2",
            "type": "t_uint32"
          },
          {
            "astId": 9122,
            "contract": "contracts/comptroller/Comptroller.sol:Comptroller",
            "label": "nextDripAmount",
            "offset": 4,
            "slot": "2",
            "type": "t_uint112"
          },
          {
            "astId": 9124,
            "contract": "contracts/comptroller/Comptroller.sol:Comptroller",
            "label": "__gap",
            "offset": 18,
            "slot": "2",
            "type": "t_uint112"
          },
          {
            "astId": 9126,
            "contract": "contracts/comptroller/Comptroller.sol:Comptroller",
            "label": "totalDripped",
            "offset": 0,
            "slot": "3",
            "type": "t_uint112"
          },
          {
            "astId": 9128,
            "contract": "contracts/comptroller/Comptroller.sol:Comptroller",
            "label": "periodCount",
            "offset": 14,
            "slot": "3",
            "type": "t_uint32"
          }
        ],
        "numberOfBytes": "128"
      },
      "t_struct(State)9623_storage": {
        "encoding": "inplace",
        "label": "struct VolumeDripManager.State",
        "members": [
          {
            "astId": 9616,
            "contract": "contracts/comptroller/Comptroller.sol:Comptroller",
            "label": "activeVolumeDrips",
            "offset": 0,
            "slot": "0",
            "type": "t_mapping(t_address,t_struct(Mapping)19431_storage)"
          },
          {
            "astId": 9622,
            "contract": "contracts/comptroller/Comptroller.sol:Comptroller",
            "label": "volumeDrips",
            "offset": 0,
            "slot": "1",
            "type": "t_mapping(t_address,t_mapping(t_address,t_struct(State)9129_storage))"
          }
        ],
        "numberOfBytes": "64"
      },
      "t_struct(UserState)8555_storage": {
        "encoding": "inplace",
        "label": "struct BalanceDrip.UserState",
        "members": [
          {
            "astId": 8554,
            "contract": "contracts/comptroller/Comptroller.sol:Comptroller",
            "label": "lastExchangeRateMantissa",
            "offset": 0,
            "slot": "0",
            "type": "t_uint128"
          }
        ],
        "numberOfBytes": "32"
      },
      "t_uint112": {
        "encoding": "inplace",
        "label": "uint112",
        "numberOfBytes": "14"
      },
      "t_uint128": {
        "encoding": "inplace",
        "label": "uint128",
        "numberOfBytes": "16"
      },
      "t_uint256": {
        "encoding": "inplace",
        "label": "uint256",
        "numberOfBytes": "32"
      },
      "t_uint32": {
        "encoding": "inplace",
        "label": "uint32",
        "numberOfBytes": "4"
      }
    }
  },
  "gasEstimates": {
    "creation": {
      "codeDepositCost": "3225800",
      "executionCost": "infinite",
      "totalCost": "infinite"
    },
    "external": {
      "activateBalanceDrip(address,address,address,uint256)": "infinite",
      "activateVolumeDrip(address,address,address,bool,uint32,uint112,uint32)": "infinite",
      "balanceOfDrip(address,address)": "infinite",
      "beforeTokenMint(address,uint256,address,address)": "infinite",
      "beforeTokenTransfer(address,address,uint256,address)": "infinite",
      "claimDrip(address,address,uint256)": "infinite",
      "deactivateBalanceDrip(address,address,address,address)": "infinite",
      "deactivateVolumeDrip(address,address,address,bool,address)": "infinite",
      "getBalanceDrip(address,address,address)": "infinite",
      "getVolumeDrip(address,address,address,bool)": "infinite",
      "getVolumeDripPeriod(address,address,address,bool,uint16)": "infinite",
      "isVolumeDripActive(address,address,address,bool)": "infinite",
      "owner()": "1115",
      "renounceOwnership()": "24312",
      "setBalanceDripRate(address,address,address,uint256)": "infinite",
      "setVolumeDrip(address,address,address,bool,uint32,uint112)": "infinite",
      "transferOwnership(address)": "24554",
      "updateAndClaimDrips((address,address)[],address,address[])": "infinite",
      "updateDrips((address,address)[],address,address[])": "infinite"
    },
    "internal": {
      "_addDripBalance(address,address,uint256)": "infinite",
      "_currentTime()": "14",
      "_deactivateBalanceDrip(address,address,address,address)": "infinite",
      "_deactivateVolumeDrip(address,address,address,bool,address)": "infinite",
      "_depositVolumeDrip(struct VolumeDripManager.State storage pointer,address,address,address,uint256,bool)": "infinite",
      "_updateBalanceDripToken(struct BalanceDripManager.State storage pointer,address,address,address,address,uint256,uint256,uint256)": "infinite",
      "_updateBalanceDrips(struct BalanceDripManager.State storage pointer,address,address,address,uint256,uint256,uint256)": "infinite",
      "_updateVolumeDripToken(struct VolumeDripManager.State storage pointer,address,address,address,address,uint256,uint256,bool)": "infinite"
    }
  }
}