{
  "abi": [
    {
      "inputs": [
        {
          "internalType": "address",
          "name": "from",
          "type": "address"
        }
      ],
      "name": "getNonce",
      "outputs": [
        {
          "internalType": "uint256",
          "name": "",
          "type": "uint256"
        }
      ],
      "stateMutability": "view",
      "type": "function"
    },
    {
      "inputs": [
        {
          "components": [
            {
              "internalType": "address",
              "name": "target",
              "type": "address"
            },
            {
              "internalType": "bytes",
              "name": "encodedFunction",
              "type": "bytes"
            },
            {
              "components": [
                {
                  "internalType": "uint256",
                  "name": "gasLimit",
                  "type": "uint256"
                },
                {
                  "internalType": "uint256",
                  "name": "gasPrice",
                  "type": "uint256"
                },
                {
                  "internalType": "uint256",
                  "name": "pctRelayFee",
                  "type": "uint256"
                },
                {
                  "internalType": "uint256",
                  "name": "baseRelayFee",
                  "type": "uint256"
                }
              ],
              "internalType": "struct GSNTypes.GasData",
              "name": "gasData",
              "type": "tuple"
            },
            {
              "components": [
                {
                  "internalType": "address",
                  "name": "senderAddress",
                  "type": "address"
                },
                {
                  "internalType": "uint256",
                  "name": "senderNonce",
                  "type": "uint256"
                },
                {
                  "internalType": "address",
                  "name": "relayWorker",
                  "type": "address"
                },
                {
                  "internalType": "address",
                  "name": "paymaster",
                  "type": "address"
                },
                {
                  "internalType": "address",
                  "name": "forwarder",
                  "type": "address"
                }
              ],
              "internalType": "struct GSNTypes.RelayData",
              "name": "relayData",
              "type": "tuple"
            }
          ],
          "internalType": "struct GSNTypes.RelayRequest",
          "name": "req",
          "type": "tuple"
        },
        {
          "internalType": "bytes",
          "name": "sig",
          "type": "bytes"
        }
      ],
      "name": "verify",
      "outputs": [],
      "stateMutability": "view",
      "type": "function"
    },
    {
      "inputs": [
        {
          "components": [
            {
              "internalType": "address",
              "name": "target",
              "type": "address"
            },
            {
              "internalType": "bytes",
              "name": "encodedFunction",
              "type": "bytes"
            },
            {
              "components": [
                {
                  "internalType": "uint256",
                  "name": "gasLimit",
                  "type": "uint256"
                },
                {
                  "internalType": "uint256",
                  "name": "gasPrice",
                  "type": "uint256"
                },
                {
                  "internalType": "uint256",
                  "name": "pctRelayFee",
                  "type": "uint256"
                },
                {
                  "internalType": "uint256",
                  "name": "baseRelayFee",
                  "type": "uint256"
                }
              ],
              "internalType": "struct GSNTypes.GasData",
              "name": "gasData",
              "type": "tuple"
            },
            {
              "components": [
                {
                  "internalType": "address",
                  "name": "senderAddress",
                  "type": "address"
                },
                {
                  "internalType": "uint256",
                  "name": "senderNonce",
                  "type": "uint256"
                },
                {
                  "internalType": "address",
                  "name": "relayWorker",
                  "type": "address"
                },
                {
                  "internalType": "address",
                  "name": "paymaster",
                  "type": "address"
                },
                {
                  "internalType": "address",
                  "name": "forwarder",
                  "type": "address"
                }
              ],
              "internalType": "struct GSNTypes.RelayData",
              "name": "relayData",
              "type": "tuple"
            }
          ],
          "internalType": "struct GSNTypes.RelayRequest",
          "name": "req",
          "type": "tuple"
        },
        {
          "internalType": "bytes",
          "name": "sig",
          "type": "bytes"
        }
      ],
      "name": "verifyAndCall",
      "outputs": [],
      "stateMutability": "nonpayable",
      "type": "function"
    },
    {
      "inputs": [],
      "name": "versionForwarder",
      "outputs": [
        {
          "internalType": "string",
          "name": "",
          "type": "string"
        }
      ],
      "stateMutability": "view",
      "type": "function"
    }
  ],
  "address": "0x101FE0C63EedD4aC898448EaEa0616bd02D96b49",
  "args": [],
  "solcInputHash": "0x46fdc4958f6881f7fa061a86a12604f712d9c6334db372656d746d0f3b729b52",
  "bytecode": "0x6080604052306040516100119061005d565b61001b919061006a565b604051809103906000f080158015610037573d6000803e3d6000fd5b50600080546001600160a01b0319166001600160a01b039290921691909117905561007e565b610c6b80610adc83390190565b6001600160a01b0391909116815260200190565b610a4f8061008d6000396000f3fe608060405234801561001057600080fd5b506004361061004c5760003560e01c80632d0335ab146100515780636822ee771461007a578063c36f3d8c1461008f578063f2ec77da146100a4575b600080fd5b61006461005f3660046105a2565b6100b7565b604051610071919061094a565b60405180910390f35b6100826100d6565b604051610071919061080d565b6100a261009d36600461065f565b6100f6565b005b6100a26100b236600461065f565b6101dd565b6001600160a01b0381166000908152600160205260409020545b919050565b60606040518060600160405280602a81526020016109f0602a9139905090565b61010082826101eb565b610109826101fe565b6000606083600001516001600160a01b031684604001516000015185602001518660600151600001516040516020016101439291906107b4565b60408051601f198184030181529082905261015d91610798565b60006040518083038160008787f1925050503d806000811461019b576040519150601f19603f3d011682016040523d82523d6000602084013e6101a0565b606091505b5091509150816101af82610226565b906101d65760405162461bcd60e51b81526004016101cd919061080d565b60405180910390fd5b5050505050565b6101e782826101eb565b5050565b6101f48261025f565b6101e782826102a4565b60600151516001600160a01b0316600090815260016020819052604090912080549091019055565b60606024825110156102395750806100d1565b6102468260048451610342565b80602001905181019061025991906105e9565b92915050565b606081015160208082015191516001600160a01b0316600090815260019091526040902054146102a15760405162461bcd60e51b81526004016101cd90610820565b50565b6000546040516379763bed60e11b81526001600160a01b039091169063f2ec77da906102d69085908590600401610874565b60206040518083038186803b1580156102ee57600080fd5b505afa158015610302573d6000803e3d6000fd5b505050506040513d601f19601f8201168201806040525081019061032691906105c9565b6101e75760405162461bcd60e51b81526004016101cd90610848565b6060818311156103605761036061035b600085856103ce565b610428565b83518211156103795761037961035b60018487516103ce565b8282036040519080825280601f01601f1916602001820160405280156103a6576020820181803683370190505b5090506103c76103b582610430565b846103bf87610430565b018351610436565b9392505050565b6060632800659560e01b8484846040516024016103ed939291906107eb565b60408051601f198184030181529190526020810180516001600160e01b03166001600160e01b03199093169290921790915290509392505050565b805160208201fd5b60200190565b6020811015610460576001816020036101000a0380198351168185511680821786525050506104d7565b8282141561046d576104d7565b828211156104a75760208103905080820181840181515b8285101561049f578451865260209586019590940193610484565b9052506104d7565b60208103905080820181840183515b818612156104d25782518252601f1992830192909101906104b6565b855250505b505050565b600082601f8301126104ec578081fd5b81356104ff6104fa8261097a565b610953565b915080825283602082850101111561051657600080fd5b8060208401602084013760009082016020015292915050565b600060a08284031215610540578081fd5b61054a60a0610953565b90508135610557816109da565b8152602082810135908201526040820135610571816109da565b60408201526060820135610584816109da565b60608201526080820135610597816109da565b608082015292915050565b6000602082840312156105b3578081fd5b81356001600160a01b03811681146103c7578182fd5b6000602082840312156105da578081fd5b815180151581146103c7578182fd5b6000602082840312156105fa578081fd5b815167ffffffffffffffff811115610610578182fd5b80830184601f820112610621578283fd5b805191506106316104fa8361097a565b828152856020848401011115610645578384fd5b6106568360208301602085016109aa565b95945050505050565b60008060408385031215610671578081fd5b823567ffffffffffffffff80821115610688578283fd5b818501808703925061016083121561069e578384fd5b6106a86080610953565b81356106b3816109da565b81526020820135838111156106c6578586fd5b6106d2898285016104dc565b6020830152506080603f19850112156106e9578485fd5b6106f36080610953565b935060408201358452606082013560208501526080820135604085015260a0820135606085015283604082015261072d8860c0840161052f565b60608201529450506020850135915080821115610748578283fd5b50610755858286016104dc565b9150509250929050565b6001600160a01b03169052565b600081518084526107848160208601602086016109aa565b601f01601f19169290920160200192915050565b600082516107aa8184602087016109aa565b9190910192915050565b600083516107c68184602088016109aa565b60609390931b6bffffffffffffffffffffffff19169190920190815260140192915050565b60608101600885106107f957fe5b938152602081019290925260409091015290565b6000602082526103c7602083018461076c565b6020808252600e908201526d0dcdedcc6ca40dad2e6dac2e8c6d60931b604082015260600190565b6020808252601290820152710e6d2cedcc2e8eae4ca40dad2e6dac2e8c6d60731b604082015260600190565b600060408252610884845161099e565b604083015260208401516101608060608501526108a56101a085018361076c565b6040870151925082516080860152602083015160a0860152604083015160c0860152606083015160e0860152606087015192506108e76101008601845161075f565b6020830151610120860152604083015161090561014087018261075f565b5060608301516109178387018261075f565b506080830151915061092d61018086018361075f565b848103602086015261093f818761076c565b979650505050505050565b90815260200190565b60405181810167ffffffffffffffff8111828210171561097257600080fd5b604052919050565b600067ffffffffffffffff821115610990578081fd5b50601f01601f191660200190565b6001600160a01b031690565b60005b838110156109c55781810151838201526020016109ad565b838111156109d4576000848401525b50505050565b6001600160a01b03811681146102a157600080fdfe322e302e302d616c7068612e312b6f70656e67736e2e666f727761726465722e69666f72776172646572a26469706673582212202ccbc153b38b59d7f72a5d8ceeb4e2c6363a6d4607cc519eb2a87e34584d433d64736f6c63430006040033608060405234801561001057600080fd5b50604051610c6b380380610c6b83398101604081905261002f91610115565b6040805160a0810182526017606082019081527f47534e2052656c61796564205472616e73616374696f6e000000000000000000608083015281528151808301835260018152603160f81b6020828101919091528201526001600160a01b038316918101919091526100a9906001600160e01b036100b216565b600055506101c1565b60006040516100c090610143565b604051809103902082600001518051906020012083602001518051906020012084604001516040516020016100f8949392919061019d565b604051602081830303815290604052805190602001209050919050565b600060208284031215610126578081fd5b81516001600160a01b038116811461013c578182fd5b9392505050565b7f454950373132446f6d61696e28737472696e67206e616d652c737472696e672081527f76657273696f6e2c6164647265737320766572696679696e67436f6e74726163602082015261742960f01b604082015260420190565b938452602084019290925260408301526001600160a01b0316606082015260800190565b610a9b806101d06000396000f3fe608060405234801561001057600080fd5b50600436106100625760003560e01c80633644e515146100675780633fb37abf14610085578063abf0d3f41461008d578063c49f91d314610095578063cc0c62b21461009d578063f2ec77da146100a5575b600080fd5b61006f6100c5565b60405161007c9190610888565b60405180910390f35b61006f6100cb565b61006f6100e2565b61006f6100ee565b61006f6100fa565b6100b86100b3366004610487565b610106565b60405161007c919061087d565b60005481565b6040516100d790610812565b604051809103902081565b6040516100d7906106bf565b6040516100d790610665565b6040516100d7906105db565b60008060005461011585610172565b6040516020016101269291906105c0565b60408051601f1981840301815291905280516020909101206060850151519091506001600160a01b0316610160828563ffffffff6101f216565b6001600160a01b031614949350505050565b6000604051610180906106bf565b60405180910390208260000151836020015160405161019f9190610587565b60405180910390206101b48560400151610329565b6101c18660600151610367565b6040516020016101d5959493929190610891565b604051602081830303815290604052805190602001209050919050565b6000815160411461021e5760405162461bcd60e51b81526004016102159061096b565b60405180910390fd5b60208201516040830151606084015160001a7f7fffffffffffffffffffffffffffffff5d576e7357a4501ddfe92f46681b20a08211156102705760405162461bcd60e51b8152600401610215906109a2565b8060ff16601b1415801561028857508060ff16601c14155b156102a55760405162461bcd60e51b8152600401610215906109e4565b6000600187838686604051600081526020016040526040516102ca9493929190610916565b6020604051602081039080840390855afa1580156102ec573d6000803e3d6000fd5b5050604051601f1901519150506001600160a01b03811661031f5760405162461bcd60e51b815260040161021590610934565b9695505050505050565b600060405161033790610812565b604051809103902082600001518360200151846040015185606001516040516020016101d59594939291906108f3565b6000604051610375906105db565b6040518091039020826000015183602001518460400151856060015186608001516040516020016101d5969594939291906108bd565b600082601f8301126103bb578081fd5b813567ffffffffffffffff8111156103d1578182fd5b6103e4601f8201601f1916602001610a26565b91508082528360208285010111156103fb57600080fd5b8060208401602084013760009082016020015292915050565b600060a08284031215610425578081fd5b61042f60a0610a26565b9050813561043c81610a4d565b815260208281013590820152604082013561045681610a4d565b6040820152606082013561046981610a4d565b6060820152608082013561047c81610a4d565b608082015292915050565b60008060408385031215610499578182fd5b823567ffffffffffffffff808211156104b0578384fd5b81850180870392506101608312156104c6578485fd5b6104d06080610a26565b81356104db81610a4d565b81526020820135838111156104ee578687fd5b6104fa898285016103ab565b6020830152506080603f1985011215610511578586fd5b61051b6080610a26565b935060408201358452606082013560208501526080820135604085015260a082013560608501528360408201526105558860c08401610414565b60608201529450506020850135915080821115610570578283fd5b5061057d858286016103ab565b9150509250929050565b60008251815b818110156105a7576020818601810151858301520161058d565b818111156105b55782828501525b509190910192915050565b61190160f01b81526002810192909252602282015260420190565b7f52656c61794461746128616464726573732073656e646572416464726573732c81527f75696e743235362073656e6465724e6f6e63652c616464726573732072656c6160208201527f79576f726b65722c61646472657373207061796d61737465722c61646472657360408201526b7320666f727761726465722960a01b6060820152606c0190565b7f454950373132446f6d61696e28737472696e67206e616d652c737472696e672081527f76657273696f6e2c6164647265737320766572696679696e67436f6e74726163602082015261742960f01b604082015260420190565b7f52656c6179526571756573742861646472657373207461726765742c6279746581527f7320656e636f64656446756e6374696f6e2c476173446174612067617344617460208201527f612c52656c6179446174612072656c617944617461294761734461746128756960408201527f6e74323536206761734c696d69742c75696e743235362067617350726963652c60608201527f75696e743235362070637452656c61794665652c75696e74323536206261736560808201527f52656c61794665652952656c61794461746128616464726573732073656e646560a08201527f72416464726573732c75696e743235362073656e6465724e6f6e63652c61646460c08201527f726573732072656c6179576f726b65722c61646472657373207061796d61737460e08201527465722c6164647265737320666f727761726465722960581b6101008201526101150190565b7f476173446174612875696e74323536206761734c696d69742c75696e7432353681527f2067617350726963652c75696e743235362070637452656c61794665652c75696020820152726e74323536206261736552656c61794665652960681b604082015260530190565b901515815260200190565b90815260200190565b9485526001600160a01b0393909316602085015260408401919091526060830152608082015260a00190565b9586526001600160a01b03948516602087015260408601939093529083166060850152821660808401521660a082015260c00190565b948552602085019390935260408401919091526060830152608082015260a00190565b93845260ff9290921660208401526040830152606082015260800190565b60208082526018908201527f45434453413a20696e76616c6964207369676e61747572650000000000000000604082015260600190565b6020808252601f908201527f45434453413a20696e76616c6964207369676e6174757265206c656e67746800604082015260600190565b60208082526022908201527f45434453413a20696e76616c6964207369676e6174757265202773272076616c604082015261756560f01b606082015260800190565b60208082526022908201527f45434453413a20696e76616c6964207369676e6174757265202776272076616c604082015261756560f01b606082015260800190565b60405181810167ffffffffffffffff81118282101715610a4557600080fd5b604052919050565b6001600160a01b0381168114610a6257600080fd5b5056fea264697066735822122029da66c240b1fad35aa512b05ba97936c60268d490d6a377ec4160f46cba1b0564736f6c63430006040033",
  "devdoc": {
    "methods": {}
  },
  "userdoc": {
    "methods": {}
  },
  "storageLayout": {
    "storage": [
      {
        "astId": 682,
        "contract": "contracts/external/opengsn/TrustedForwarder.sol:TrustedForwarder",
        "label": "eip712sig",
        "offset": 0,
        "slot": "0",
        "type": "t_contract(EIP712Sig)1097"
      },
      {
        "astId": 686,
        "contract": "contracts/external/opengsn/TrustedForwarder.sol:TrustedForwarder",
        "label": "nonces",
        "offset": 0,
        "slot": "1",
        "type": "t_mapping(t_address,t_uint256)"
      }
    ],
    "types": {
      "t_address": {
        "encoding": "inplace",
        "label": "address",
        "numberOfBytes": "20"
      },
      "t_contract(EIP712Sig)1097": {
        "encoding": "inplace",
        "label": "contract EIP712Sig",
        "numberOfBytes": "20"
      },
      "t_mapping(t_address,t_uint256)": {
        "encoding": "mapping",
        "key": "t_address",
        "label": "mapping(address => uint256)",
        "numberOfBytes": "32",
        "value": "t_uint256"
      },
      "t_uint256": {
        "encoding": "inplace",
        "label": "uint256",
        "numberOfBytes": "32"
      }
    }
  },
  "gasEstimates": {
    "creation": {
      "codeDepositCost": "527800",
      "executionCost": "infinite",
      "totalCost": "infinite"
    },
    "external": {
      "getNonce(address)": "1222",
      "verify((address,bytes,(uint256,uint256,uint256,uint256),(address,uint256,address,address,address)),bytes)": "infinite",
      "verifyAndCall((address,bytes,(uint256,uint256,uint256,uint256),(address,uint256,address,address,address)),bytes)": "infinite",
      "versionForwarder()": "infinite"
    }
  }
}